{
  "contractName": "APContract",
  "abi": [
    {
      "inputs": [
        {
          "internalType": "address",
          "name": "_whitelistModule",
          "type": "address"
        },
        {
          "internalType": "address",
          "name": "_platformManagementFee",
          "type": "address"
        },
        {
          "internalType": "address",
          "name": "_profitManagementFee",
          "type": "address"
        },
        {
          "internalType": "address",
          "name": "_stringUtils",
          "type": "address"
        },
        {
          "internalType": "address",
          "name": "_yieldsterExchange",
          "type": "address"
        },
        {
          "internalType": "address",
          "name": "_exchangeRegistry",
          "type": "address"
        },
        {
          "internalType": "address",
          "name": "_priceModule",
          "type": "address"
        },
        {
          "internalType": "address",
          "name": "_safeUtils",
          "type": "address"
        }
      ],
      "payable": false,
      "stateMutability": "nonpayable",
      "type": "constructor"
    },
    {
      "anonymous": false,
      "inputs": [
        {
          "indexed": false,
          "internalType": "address",
          "name": "vaultAddress",
          "type": "address"
        }
      ],
      "name": "VaultCreation",
      "type": "event"
    },
    {
      "constant": true,
      "inputs": [],
      "name": "emergencyVault",
      "outputs": [
        {
          "internalType": "address",
          "name": "",
          "type": "address"
        }
      ],
      "payable": false,
      "stateMutability": "view",
      "type": "function"
    },
    {
      "constant": true,
      "inputs": [],
      "name": "exchangeRegistry",
      "outputs": [
        {
          "internalType": "address",
          "name": "",
          "type": "address"
        }
      ],
      "payable": false,
      "stateMutability": "view",
      "type": "function"
    },
    {
      "constant": true,
      "inputs": [],
      "name": "platFormManagementFee",
      "outputs": [
        {
          "internalType": "address",
          "name": "",
          "type": "address"
        }
      ],
      "payable": false,
      "stateMutability": "view",
      "type": "function"
    },
    {
      "constant": true,
      "inputs": [],
      "name": "priceModule",
      "outputs": [
        {
          "internalType": "address",
          "name": "",
          "type": "address"
        }
      ],
      "payable": false,
      "stateMutability": "view",
      "type": "function"
    },
    {
      "constant": true,
      "inputs": [],
      "name": "profitManagementFee",
      "outputs": [
        {
          "internalType": "address",
          "name": "",
          "type": "address"
        }
      ],
      "payable": false,
      "stateMutability": "view",
      "type": "function"
    },
    {
      "constant": true,
      "inputs": [],
      "name": "proxyFactory",
      "outputs": [
        {
          "internalType": "address",
          "name": "",
          "type": "address"
        }
      ],
      "payable": false,
      "stateMutability": "view",
      "type": "function"
    },
    {
      "constant": true,
      "inputs": [],
      "name": "safeMinter",
      "outputs": [
        {
          "internalType": "address",
          "name": "",
          "type": "address"
        }
      ],
      "payable": false,
      "stateMutability": "view",
      "type": "function"
    },
    {
      "constant": true,
      "inputs": [],
      "name": "safeUtils",
      "outputs": [
        {
          "internalType": "address",
          "name": "",
          "type": "address"
        }
      ],
      "payable": false,
      "stateMutability": "view",
      "type": "function"
    },
    {
      "constant": true,
      "inputs": [],
      "name": "stockDeposit",
      "outputs": [
        {
          "internalType": "address",
          "name": "",
          "type": "address"
        }
      ],
      "payable": false,
      "stateMutability": "view",
      "type": "function"
    },
    {
      "constant": true,
      "inputs": [],
      "name": "stockWithdraw",
      "outputs": [
        {
          "internalType": "address",
          "name": "",
          "type": "address"
        }
      ],
      "payable": false,
      "stateMutability": "view",
      "type": "function"
    },
    {
      "constant": true,
      "inputs": [],
      "name": "stringUtils",
      "outputs": [
        {
          "internalType": "address",
          "name": "",
          "type": "address"
        }
      ],
      "payable": false,
      "stateMutability": "view",
      "type": "function"
    },
    {
      "constant": true,
      "inputs": [],
      "name": "whitelistManager",
      "outputs": [
        {
          "internalType": "address",
          "name": "",
          "type": "address"
        }
      ],
      "payable": false,
      "stateMutability": "view",
      "type": "function"
    },
    {
      "constant": true,
      "inputs": [],
      "name": "whitelistModule",
      "outputs": [
        {
          "internalType": "address",
          "name": "",
          "type": "address"
        }
      ],
      "payable": false,
      "stateMutability": "view",
      "type": "function"
    },
    {
      "constant": true,
      "inputs": [],
      "name": "yieldsterDAO",
      "outputs": [
        {
          "internalType": "address",
          "name": "",
          "type": "address"
        }
      ],
      "payable": false,
      "stateMutability": "view",
      "type": "function"
    },
    {
      "constant": true,
      "inputs": [],
      "name": "yieldsterExchange",
      "outputs": [
        {
          "internalType": "address",
          "name": "",
          "type": "address"
        }
      ],
      "payable": false,
      "stateMutability": "view",
      "type": "function"
    },
    {
      "constant": true,
      "inputs": [],
      "name": "yieldsterGOD",
      "outputs": [
        {
          "internalType": "address",
          "name": "",
          "type": "address"
        }
      ],
      "payable": false,
      "stateMutability": "view",
      "type": "function"
    },
    {
      "constant": true,
      "inputs": [],
      "name": "yieldsterTreasury",
      "outputs": [
        {
          "internalType": "address",
          "name": "",
          "type": "address"
        }
      ],
      "payable": false,
      "stateMutability": "view",
      "type": "function"
    },
    {
      "constant": false,
      "inputs": [
        {
          "internalType": "address",
          "name": "_proxyFactory",
          "type": "address"
        }
      ],
      "name": "addProxyFactory",
      "outputs": [],
      "payable": false,
      "stateMutability": "nonpayable",
      "type": "function"
    },
    {
      "constant": false,
      "inputs": [
        {
          "internalType": "address",
          "name": "_platformManagement",
          "type": "address"
        },
        {
          "internalType": "address",
          "name": "_profitManagement",
          "type": "address"
        }
      ],
      "name": "setProfitAndPlatformManagementFeeStrategies",
      "outputs": [],
      "payable": false,
      "stateMutability": "nonpayable",
      "type": "function"
    },
    {
      "constant": true,
      "inputs": [
        {
          "internalType": "address",
          "name": "_address",
          "type": "address"
        }
      ],
      "name": "isVault",
      "outputs": [
        {
          "internalType": "bool",
          "name": "",
          "type": "bool"
        }
      ],
      "payable": false,
      "stateMutability": "view",
      "type": "function"
    },
    {
      "constant": false,
      "inputs": [
        {
          "internalType": "address",
          "name": "_manager",
          "type": "address"
        }
      ],
      "name": "addManager",
      "outputs": [],
      "payable": false,
      "stateMutability": "nonpayable",
      "type": "function"
    },
    {
      "constant": false,
      "inputs": [
        {
          "internalType": "address",
          "name": "_manager",
          "type": "address"
        }
      ],
      "name": "removeManager",
      "outputs": [],
      "payable": false,
      "stateMutability": "nonpayable",
      "type": "function"
    },
    {
      "constant": false,
      "inputs": [
        {
          "internalType": "address",
          "name": "_whitelistManager",
          "type": "address"
        }
      ],
      "name": "changeWhitelistManager",
      "outputs": [],
      "payable": false,
      "stateMutability": "nonpayable",
      "type": "function"
    },
    {
      "constant": false,
      "inputs": [
        {
          "internalType": "address",
          "name": "_yieldsterGOD",
          "type": "address"
        }
      ],
      "name": "setYieldsterGOD",
      "outputs": [],
      "payable": false,
      "stateMutability": "nonpayable",
      "type": "function"
    },
    {
      "constant": false,
      "inputs": [
        {
          "internalType": "address",
          "name": "_yieldsterDAO",
          "type": "address"
        }
      ],
      "name": "setYieldsterDAO",
      "outputs": [],
      "payable": false,
      "stateMutability": "nonpayable",
      "type": "function"
    },
    {
      "constant": false,
      "inputs": [
        {
          "internalType": "address",
          "name": "_yieldsterTreasury",
          "type": "address"
        }
      ],
      "name": "setYieldsterTreasury",
      "outputs": [],
      "payable": false,
      "stateMutability": "nonpayable",
      "type": "function"
    },
    {
      "constant": false,
      "inputs": [],
      "name": "disableYieldsterGOD",
      "outputs": [],
      "payable": false,
      "stateMutability": "nonpayable",
      "type": "function"
    },
    {
      "constant": false,
      "inputs": [
        {
          "internalType": "address",
          "name": "_emergencyVault",
          "type": "address"
        }
      ],
      "name": "setEmergencyVault",
      "outputs": [],
      "payable": false,
      "stateMutability": "nonpayable",
      "type": "function"
    },
    {
      "constant": false,
      "inputs": [
        {
          "internalType": "address",
          "name": "_safeMinter",
          "type": "address"
        }
      ],
      "name": "setSafeMinter",
      "outputs": [],
      "payable": false,
      "stateMutability": "nonpayable",
      "type": "function"
    },
    {
      "constant": false,
      "inputs": [
        {
          "internalType": "address",
          "name": "_safeUtils",
          "type": "address"
        }
      ],
      "name": "setSafeUtils",
      "outputs": [],
      "payable": false,
      "stateMutability": "nonpayable",
      "type": "function"
    },
    {
      "constant": false,
      "inputs": [
        {
          "internalType": "address",
          "name": "_exchangeRegistry",
          "type": "address"
        }
      ],
      "name": "setExchangeRegistry",
      "outputs": [],
      "payable": false,
      "stateMutability": "nonpayable",
      "type": "function"
    },
    {
      "constant": true,
      "inputs": [
        {
          "internalType": "address",
          "name": "_minter",
          "type": "address"
        }
      ],
      "name": "getStrategyFromMinter",
      "outputs": [
        {
          "internalType": "address",
          "name": "",
          "type": "address"
        }
      ],
      "payable": false,
      "stateMutability": "view",
      "type": "function"
    },
    {
      "constant": false,
      "inputs": [
        {
          "internalType": "address",
          "name": "_yieldsterExchange",
          "type": "address"
        }
      ],
      "name": "setYieldsterExchange",
      "outputs": [],
      "payable": false,
      "stateMutability": "nonpayable",
      "type": "function"
    },
    {
      "constant": false,
      "inputs": [
        {
          "internalType": "address",
          "name": "_stockDeposit",
          "type": "address"
        },
        {
          "internalType": "address",
          "name": "_stockWithdraw",
          "type": "address"
        }
      ],
      "name": "setStockDepositWithdraw",
      "outputs": [],
      "payable": false,
      "stateMutability": "nonpayable",
      "type": "function"
    },
    {
      "constant": false,
      "inputs": [
        {
          "internalType": "address",
          "name": "_vaultAPSManager",
          "type": "address"
        }
      ],
      "name": "changeVaultAPSManager",
      "outputs": [],
      "payable": false,
      "stateMutability": "nonpayable",
      "type": "function"
    },
    {
      "constant": false,
      "inputs": [
        {
          "internalType": "address",
          "name": "_vaultStrategyManager",
          "type": "address"
        }
      ],
      "name": "changeVaultStrategyManager",
      "outputs": [],
      "payable": false,
      "stateMutability": "nonpayable",
      "type": "function"
    },
    {
      "constant": false,
      "inputs": [
        {
          "internalType": "uint256",
          "name": "_slippage",
          "type": "uint256"
        }
      ],
      "name": "setVaultSlippage",
      "outputs": [],
      "payable": false,
      "stateMutability": "nonpayable",
      "type": "function"
    },
    {
      "constant": true,
      "inputs": [],
      "name": "getVaultSlippage",
      "outputs": [
        {
          "internalType": "uint256",
          "name": "",
          "type": "uint256"
        }
      ],
      "payable": false,
      "stateMutability": "view",
      "type": "function"
    },
    {
      "constant": false,
      "inputs": [
        {
          "internalType": "address",
          "name": "_priceModule",
          "type": "address"
        }
      ],
      "name": "setPriceModule",
      "outputs": [],
      "payable": false,
      "stateMutability": "nonpayable",
      "type": "function"
    },
    {
      "constant": true,
      "inputs": [
        {
          "internalType": "address",
          "name": "_tokenAddress",
          "type": "address"
        }
      ],
      "name": "getUSDPrice",
      "outputs": [
        {
          "internalType": "uint256",
          "name": "",
          "type": "uint256"
        }
      ],
      "payable": false,
      "stateMutability": "view",
      "type": "function"
    },
    {
      "constant": false,
      "inputs": [
        {
          "internalType": "address",
          "name": "_vaultAddress",
          "type": "address"
        }
      ],
      "name": "createVault",
      "outputs": [],
      "payable": false,
      "stateMutability": "nonpayable",
      "type": "function"
    },
    {
      "constant": false,
      "inputs": [
        {
          "internalType": "address",
          "name": "_vaultAPSManager",
          "type": "address"
        },
        {
          "internalType": "address",
          "name": "_vaultStrategyManager",
          "type": "address"
        },
        {
          "internalType": "uint256[]",
          "name": "_whitelistGroup",
          "type": "uint256[]"
        }
      ],
      "name": "addVault",
      "outputs": [],
      "payable": false,
      "stateMutability": "nonpayable",
      "type": "function"
    },
    {
      "constant": false,
      "inputs": [
        {
          "internalType": "address[]",
          "name": "_enabledDepositAsset",
          "type": "address[]"
        },
        {
          "internalType": "address[]",
          "name": "_enabledWithdrawalAsset",
          "type": "address[]"
        },
        {
          "internalType": "address[]",
          "name": "_disabledDepositAsset",
          "type": "address[]"
        },
        {
          "internalType": "address[]",
          "name": "_disabledWithdrawalAsset",
          "type": "address[]"
        }
      ],
      "name": "setVaultAssets",
      "outputs": [],
      "payable": false,
      "stateMutability": "nonpayable",
      "type": "function"
    },
    {
      "constant": true,
      "inputs": [],
      "name": "getVaultManagementFee",
      "outputs": [
        {
          "internalType": "address[]",
          "name": "",
          "type": "address[]"
        }
      ],
      "payable": false,
      "stateMutability": "view",
      "type": "function"
    },
    {
      "constant": true,
      "inputs": [],
      "name": "getDepositStrategy",
      "outputs": [
        {
          "internalType": "address",
          "name": "",
          "type": "address"
        }
      ],
      "payable": false,
      "stateMutability": "view",
      "type": "function"
    },
    {
      "constant": true,
      "inputs": [],
      "name": "getWithdrawStrategy",
      "outputs": [
        {
          "internalType": "address",
          "name": "",
          "type": "address"
        }
      ],
      "payable": false,
      "stateMutability": "view",
      "type": "function"
    },
    {
      "constant": false,
      "inputs": [
        {
          "internalType": "address",
          "name": "_vaultAddress",
          "type": "address"
        },
        {
          "internalType": "address",
          "name": "_managementFeeAddress",
          "type": "address"
        }
      ],
      "name": "setManagementFeeStrategies",
      "outputs": [],
      "payable": false,
      "stateMutability": "nonpayable",
      "type": "function"
    },
    {
      "constant": false,
      "inputs": [
        {
          "internalType": "address",
          "name": "_vaultAddress",
          "type": "address"
        },
        {
          "internalType": "address",
          "name": "_managementFeeAddress",
          "type": "address"
        }
      ],
      "name": "removeManagementFeeStrategies",
      "outputs": [],
      "payable": false,
      "stateMutability": "nonpayable",
      "type": "function"
    },
    {
      "constant": false,
      "inputs": [
        {
          "internalType": "address",
          "name": "_strategyAddress",
          "type": "address"
        }
      ],
      "name": "setVaultActiveStrategy",
      "outputs": [],
      "payable": false,
      "stateMutability": "nonpayable",
      "type": "function"
    },
    {
      "constant": false,
      "inputs": [
        {
          "internalType": "address",
          "name": "_strategyAddress",
          "type": "address"
        }
      ],
      "name": "deactivateVaultStrategy",
      "outputs": [],
      "payable": false,
      "stateMutability": "nonpayable",
      "type": "function"
    },
    {
      "constant": true,
      "inputs": [
        {
          "internalType": "address",
          "name": "_vaultAddress",
          "type": "address"
        }
      ],
      "name": "getVaultActiveStrategy",
      "outputs": [
        {
          "internalType": "address[]",
          "name": "",
          "type": "address[]"
        }
      ],
      "payable": false,
      "stateMutability": "view",
      "type": "function"
    },
    {
      "constant": true,
      "inputs": [
        {
          "internalType": "address",
          "name": "_vaultAddress",
          "type": "address"
        },
        {
          "internalType": "address",
          "name": "_strategyAddress",
          "type": "address"
        }
      ],
      "name": "isStrategyActive",
      "outputs": [
        {
          "internalType": "bool",
          "name": "",
          "type": "bool"
        }
      ],
      "payable": false,
      "stateMutability": "view",
      "type": "function"
    },
    {
      "constant": true,
      "inputs": [
        {
          "internalType": "address",
          "name": "_vaultAddress",
          "type": "address"
        },
        {
          "internalType": "address",
          "name": "_strategyAddress",
          "type": "address"
        }
      ],
      "name": "getStrategyManagementDetails",
      "outputs": [
        {
          "internalType": "address",
          "name": "",
          "type": "address"
        },
        {
          "internalType": "uint256",
          "name": "",
          "type": "uint256"
        }
      ],
      "payable": false,
      "stateMutability": "view",
      "type": "function"
    },
    {
      "constant": false,
      "inputs": [
        {
          "internalType": "address",
          "name": "_vaultStrategy",
          "type": "address"
        },
        {
          "internalType": "address[]",
          "name": "_enabledStrategyProtocols",
          "type": "address[]"
        },
        {
          "internalType": "address[]",
          "name": "_disabledStrategyProtocols",
          "type": "address[]"
        },
        {
          "internalType": "address[]",
          "name": "_assetsToBeEnabled",
          "type": "address[]"
        }
      ],
      "name": "setVaultStrategyAndProtocol",
      "outputs": [],
      "payable": false,
      "stateMutability": "nonpayable",
      "type": "function"
    },
    {
      "constant": false,
      "inputs": [
        {
          "internalType": "address",
          "name": "_strategyAddress",
          "type": "address"
        },
        {
          "internalType": "address[]",
          "name": "_assetsToBeDisabled",
          "type": "address[]"
        }
      ],
      "name": "disableVaultStrategy",
      "outputs": [],
      "payable": false,
      "stateMutability": "nonpayable",
      "type": "function"
    },
    {
      "constant": false,
      "inputs": [
        {
          "internalType": "address",
          "name": "_smartStrategyAddress",
          "type": "address"
        },
        {
          "internalType": "uint256",
          "name": "_type",
          "type": "uint256"
        }
      ],
      "name": "setVaultSmartStrategy",
      "outputs": [],
      "payable": false,
      "stateMutability": "nonpayable",
      "type": "function"
    },
    {
      "constant": true,
      "inputs": [
        {
          "internalType": "address",
          "name": "_vaultAddress",
          "type": "address"
        },
        {
          "internalType": "address",
          "name": "_strategyAddress",
          "type": "address"
        },
        {
          "internalType": "address",
          "name": "_protocolAddress",
          "type": "address"
        }
      ],
      "name": "_isStrategyProtocolEnabled",
      "outputs": [
        {
          "internalType": "bool",
          "name": "",
          "type": "bool"
        }
      ],
      "payable": false,
      "stateMutability": "view",
      "type": "function"
    },
    {
      "constant": true,
      "inputs": [
        {
          "internalType": "address",
          "name": "_vaultAddress",
          "type": "address"
        },
        {
          "internalType": "address",
          "name": "_strategyAddress",
          "type": "address"
        }
      ],
      "name": "_isStrategyEnabled",
      "outputs": [
        {
          "internalType": "bool",
          "name": "",
          "type": "bool"
        }
      ],
      "payable": false,
      "stateMutability": "view",
      "type": "function"
    },
    {
      "constant": true,
      "inputs": [
        {
          "internalType": "address",
          "name": "cleanUpAsset",
          "type": "address"
        }
      ],
      "name": "_isVaultAsset",
      "outputs": [
        {
          "internalType": "bool",
          "name": "",
          "type": "bool"
        }
      ],
      "payable": false,
      "stateMutability": "view",
      "type": "function"
    },
    {
      "constant": false,
      "inputs": [
        {
          "internalType": "string",
          "name": "_symbol",
          "type": "string"
        },
        {
          "internalType": "string",
          "name": "_name",
          "type": "string"
        },
        {
          "internalType": "address",
          "name": "_tokenAddress",
          "type": "address"
        }
      ],
      "name": "addAsset",
      "outputs": [],
      "payable": false,
      "stateMutability": "nonpayable",
      "type": "function"
    },
    {
      "constant": false,
      "inputs": [
        {
          "internalType": "address",
          "name": "_tokenAddress",
          "type": "address"
        }
      ],
      "name": "removeAsset",
      "outputs": [],
      "payable": false,
      "stateMutability": "nonpayable",
      "type": "function"
    },
    {
      "constant": true,
      "inputs": [
        {
          "internalType": "address",
          "name": "_assetAddress",
          "type": "address"
        }
      ],
      "name": "isDepositAsset",
      "outputs": [
        {
          "internalType": "bool",
          "name": "",
          "type": "bool"
        }
      ],
      "payable": false,
      "stateMutability": "view",
      "type": "function"
    },
    {
      "constant": true,
      "inputs": [
        {
          "internalType": "address",
          "name": "_assetAddress",
          "type": "address"
        }
      ],
      "name": "isWithdrawalAsset",
      "outputs": [
        {
          "internalType": "bool",
          "name": "",
          "type": "bool"
        }
      ],
      "payable": false,
      "stateMutability": "view",
      "type": "function"
    },
    {
      "constant": false,
      "inputs": [
        {
          "internalType": "string",
          "name": "_strategyName",
          "type": "string"
        },
        {
          "internalType": "address",
          "name": "_strategyAddress",
          "type": "address"
        },
        {
          "internalType": "address[]",
          "name": "_strategyProtocols",
          "type": "address[]"
        },
        {
          "internalType": "address",
          "name": "_minter",
          "type": "address"
        },
        {
          "internalType": "address",
          "name": "_executor",
          "type": "address"
        },
        {
          "internalType": "address",
          "name": "_benefeciary",
          "type": "address"
        },
        {
          "internalType": "uint256",
          "name": "_managementFeePercentage",
          "type": "uint256"
        }
      ],
      "name": "addStrategy",
      "outputs": [],
      "payable": false,
      "stateMutability": "nonpayable",
      "type": "function"
    },
    {
      "constant": false,
      "inputs": [
        {
          "internalType": "address",
          "name": "_strategyAddress",
          "type": "address"
        }
      ],
      "name": "removeStrategy",
      "outputs": [],
      "payable": false,
      "stateMutability": "nonpayable",
      "type": "function"
    },
    {
      "constant": true,
      "inputs": [
        {
          "internalType": "address",
          "name": "_strategy",
          "type": "address"
        }
      ],
      "name": "strategyExecutor",
      "outputs": [
        {
          "internalType": "address",
          "name": "",
          "type": "address"
        }
      ],
      "payable": false,
      "stateMutability": "view",
      "type": "function"
    },
    {
      "constant": false,
      "inputs": [
        {
          "internalType": "address",
          "name": "_strategyAddress",
          "type": "address"
        },
        {
          "internalType": "address",
          "name": "_executor",
          "type": "address"
        }
      ],
      "name": "changeStrategyExecutor",
      "outputs": [],
      "payable": false,
      "stateMutability": "nonpayable",
      "type": "function"
    },
    {
      "constant": false,
      "inputs": [
        {
          "internalType": "string",
          "name": "_smartStrategyName",
          "type": "string"
        },
        {
          "internalType": "address",
          "name": "_smartStrategyAddress",
          "type": "address"
        },
        {
          "internalType": "address",
          "name": "_minter",
          "type": "address"
        },
        {
          "internalType": "address",
          "name": "_executor",
          "type": "address"
        }
      ],
      "name": "addSmartStrategy",
      "outputs": [],
      "payable": false,
      "stateMutability": "nonpayable",
      "type": "function"
    },
    {
      "constant": false,
      "inputs": [
        {
          "internalType": "address",
          "name": "_smartStrategyAddress",
          "type": "address"
        }
      ],
      "name": "removeSmartStrategy",
      "outputs": [],
      "payable": false,
      "stateMutability": "nonpayable",
      "type": "function"
    },
    {
      "constant": true,
      "inputs": [
        {
          "internalType": "address",
          "name": "_smartStrategy",
          "type": "address"
        }
      ],
      "name": "smartStrategyExecutor",
      "outputs": [
        {
          "internalType": "address",
          "name": "",
          "type": "address"
        }
      ],
      "payable": false,
      "stateMutability": "view",
      "type": "function"
    },
    {
      "constant": false,
      "inputs": [
        {
          "internalType": "address",
          "name": "_smartStrategy",
          "type": "address"
        },
        {
          "internalType": "address",
          "name": "_executor",
          "type": "address"
        }
      ],
      "name": "changeSmartStrategyExecutor",
      "outputs": [],
      "payable": false,
      "stateMutability": "nonpayable",
      "type": "function"
    },
    {
      "constant": false,
      "inputs": [
        {
          "internalType": "string",
          "name": "_symbol",
          "type": "string"
        },
        {
          "internalType": "string",
          "name": "_name",
          "type": "string"
        },
        {
          "internalType": "address",
          "name": "_protocolAddress",
          "type": "address"
        }
      ],
      "name": "addProtocol",
      "outputs": [],
      "payable": false,
      "stateMutability": "nonpayable",
      "type": "function"
    },
    {
      "constant": false,
      "inputs": [
        {
          "internalType": "address",
          "name": "_protocolAddress",
          "type": "address"
        }
      ],
      "name": "removeProtocol",
      "outputs": [],
      "payable": false,
      "stateMutability": "nonpayable",
      "type": "function"
    }
  ],
  "bytecode": "0x608060405234801561001057600080fd5b5060405162004e7d38038062004e7d833981810160405261010081101561003657600080fd5b5080516020808301516040808501516060860151608087015160a088015160c089015160e09099015160008054336001600160a01b031991821681178355600180548316821781556002805484168317905560038054841683179055908352601a909a52968120805460ff19169099179098556006805487166001600160a01b039a8b16179055600a80548716978a16979097179096556005805486169389169390931790925560048054851691881691909117905560108054841691871691909117905560098054831696861696909617909555600f8054821692851692909217909155600b80549091169290931691909117909155614d3f9081906200013e90396000f3fe608060405234801561001057600080fd5b50600436106104335760003560e01c80638261f16811610236578063bdbef07d1161013b578063ce03e7a3116100c3578063e8e6813011610087578063e8e6813014611593578063e9bf666d146115c1578063eb6c9130146115e7578063ef20cd24146115ef578063fe6f68ba1461161557610433565b8063ce03e7a31461132e578063d731cc7e14611336578063d9ee71ee1461133e578063e61faeac14611346578063e6b8b5c61461136c57610433565b8063c4c957b91161010a578063c4c957b914610ebf578063c7bfe8e114611017578063c8b8d16b1461101f578063cbf32a8f14611045578063cd7076751461117957610433565b8063bdbef07d14610e3d578063c10f1a7514610e63578063c40fcbba14610e6b578063c49fc0d114610e9957610433565b8063a5153643116101be578063b4bd6f461161018d578063b4bd6f4614610c69578063b4eed71d14610c8f578063bc2c274214610cb5578063bc2e7f5614610cdb578063bd779da614610e0f57610433565b8063a515364314610b8c578063a6ee554514610bba578063aa9bb5d414610bf2578063ac18de4314610c4357610433565b80638d7fc1d6116102055780638d7fc1d614610a595780638fea31b014610a8757806394520bbd14610a8f578063989da20114610b405780639b0b6a5114610b6657610433565b80638261f168146109c1578063846a6080146109e757806385a345cf14610a0d5780638b2f0f4f14610a3357610433565b80634a5e42b11161033c578063652b9b41116102c457806374b0d31d1161029357806374b0d31d1461092d5780637b6ffc15146109475780637f1262b81461096d578063803eaa4d1461099357806380b837e1146109b957610433565b8063652b9b41146108975780636bcda2e5146108d157806370f2e342146108ff57806372f273e01461092557610433565b806356ba93841161030b57806356ba9384146108255780635948cb9e1461082d5780635a72fee8146108595780636168ea9e146108615780636199a9ba1461086957610433565b80634a5e42b1146107b45780635276bc5e146107da57806352ff3183146107e257806353f9e8ff1461080857610433565b80631d187fc9116103bf5780632d06177a1161038e5780632d06177a146107145780633eb618851461073a57806342ecaaec146107605780634407ea171461078657806347ec48f31461078e57610433565b80631d187fc91461063e57806326563b40146106fc57806328b0d4e2146107045780632970947d1461070c57610433565b806314c3165f1161040657806314c3165f146104ec578063175188e81461051257806318ff5768146105385780631be8cb041461055e5780631bea35cd1461058457610433565b806302fd9b5d14610438578063061776421461049057806307786025146104b457806313ae2e11146104e4575b600080fd5b61044061161d565b60408051602080825283518183015283519192839290830191858101910280838360005b8381101561047c578181015183820152602001610464565b505050509050019250505060405180910390f35b6104986116e2565b604080516001600160a01b039092168252519081900360200190f35b6104e2600480360360408110156104ca57600080fd5b506001600160a01b03813581169160200135166116f1565b005b610498611794565b6104986004803603602081101561050257600080fd5b50356001600160a01b0316611809565b6104e26004803603602081101561052857600080fd5b50356001600160a01b031661182a565b6104e26004803603602081101561054e57600080fd5b50356001600160a01b031661192b565b6104e26004803603602081101561057457600080fd5b50356001600160a01b0316611a0b565b6104e26004803603606081101561059a57600080fd5b6001600160a01b038235811692602081013590911691810190606081016040820135600160201b8111156105cd57600080fd5b8201836020820111156105df57600080fd5b803590602001918460208302840111600160201b8311171561060057600080fd5b919080806020026020016040519081016040528093929190818152602001838360200280828437600092019190915250929550611a76945050505050565b6104e26004803603608081101561065457600080fd5b810190602081018135600160201b81111561066e57600080fd5b82018360208201111561068057600080fd5b803590602001918460018302840111600160201b831117156106a157600080fd5b91908080601f016020809104026020016040519081016040528093929190818152602001838380828437600092019190915250929550506001600160a01b03833581169450602084013581169360400135169150611c859050565b610498611e0e565b610498611e1d565b610498611e2c565b6104e26004803603602081101561072a57600080fd5b50356001600160a01b0316611e3b565b6104e26004803603602081101561075057600080fd5b50356001600160a01b0316611ea8565b6104e26004803603602081101561077657600080fd5b50356001600160a01b0316611f13565b610498611f7e565b6104e2600480360360208110156107a457600080fd5b50356001600160a01b0316611f8d565b6104e2600480360360208110156107ca57600080fd5b50356001600160a01b0316611ff8565b6104e26120b8565b6104e2600480360360208110156107f857600080fd5b50356001600160a01b0316612113565b6104e26004803603602081101561081e57600080fd5b5035612183565b6104986121f6565b6104e26004803603604081101561084357600080fd5b506001600160a01b038135169060200135612205565b610498612355565b610498612364565b6104e26004803603604081101561087f57600080fd5b506001600160a01b0381358116916020013516612373565b6108bd600480360360208110156108ad57600080fd5b50356001600160a01b031661244c565b604080519115158252519081900360200190f35b6104e2600480360360408110156108e757600080fd5b506001600160a01b038135811691602001351661246d565b6104406004803603602081101561091557600080fd5b50356001600160a01b031661253e565b610498612616565b610935612625565b60408051918252519081900360200190f35b6104e26004803603602081101561095d57600080fd5b50356001600160a01b031661269a565b6104e26004803603602081101561098357600080fd5b50356001600160a01b0316612705565b6104e2600480360360208110156109a957600080fd5b50356001600160a01b03166127f8565b610498612863565b6104e2600480360360208110156109d757600080fd5b50356001600160a01b0316612872565b6104e2600480360360208110156109fd57600080fd5b50356001600160a01b0316612902565b6104e260048036036020811015610a2357600080fd5b50356001600160a01b031661296d565b61093560048036036020811015610a4957600080fd5b50356001600160a01b0316612c25565b6108bd60048036036040811015610a6f57600080fd5b506001600160a01b0381358116916020013516612ca8565b610498612d3a565b6104e260048036036040811015610aa557600080fd5b6001600160a01b038235169190810190604081016020820135600160201b811115610acf57600080fd5b820183602082011115610ae157600080fd5b803590602001918460208302840111600160201b83111715610b0257600080fd5b919080806020026020016040519081016040528093929190818152602001838360200280828437600092019190915250929550612d49945050505050565b6104e260048036036020811015610b5657600080fd5b50356001600160a01b0316612f76565b6108bd60048036036020811015610b7c57600080fd5b50356001600160a01b0316612fe6565b6108bd60048036036040811015610ba257600080fd5b506001600160a01b0381358116916020013516613070565b6108bd60048036036060811015610bd057600080fd5b506001600160a01b03813581169160208101358216916040909101351661309e565b610c2060048036036040811015610c0857600080fd5b506001600160a01b0381358116916020013516613193565b604080516001600160a01b03909316835260208301919091528051918290030190f35b6104e260048036036020811015610c5957600080fd5b50356001600160a01b03166132f8565b6104e260048036036020811015610c7f57600080fd5b50356001600160a01b0316613362565b6108bd60048036036020811015610ca557600080fd5b50356001600160a01b03166133cf565b61049860048036036020811015610ccb57600080fd5b50356001600160a01b0316613454565b6104e260048036036060811015610cf157600080fd5b810190602081018135600160201b811115610d0b57600080fd5b820183602082011115610d1d57600080fd5b803590602001918460018302840111600160201b83111715610d3e57600080fd5b91908080601f0160208091040260200160405190810160405280939291908181526020018383808284376000920191909152509295949360208101935035915050600160201b811115610d9057600080fd5b820183602082011115610da257600080fd5b803590602001918460018302840111600160201b83111715610dc357600080fd5b91908080601f016020809104026020016040519081016040528093929190818152602001838380828437600092019190915250929550505090356001600160a01b031691506134759050565b6104e260048036036040811015610e2557600080fd5b506001600160a01b03813581169160200135166135a2565b6108bd60048036036020811015610e5357600080fd5b50356001600160a01b0316613619565b61049861369e565b6104e260048036036040811015610e8157600080fd5b506001600160a01b03813581169160200135166136ad565b6104e260048036036020811015610eaf57600080fd5b50356001600160a01b0316613a57565b6104e2600480360360e0811015610ed557600080fd5b810190602081018135600160201b811115610eef57600080fd5b820183602082011115610f0157600080fd5b803590602001918460018302840111600160201b83111715610f2257600080fd5b91908080601f01602080910402602001604051908101604052809392919081815260200183838082843760009201919091525092956001600160a01b03853516959094909350604081019250602001359050600160201b811115610f8557600080fd5b820183602082011115610f9757600080fd5b803590602001918460208302840111600160201b83111715610fb857600080fd5b919080806020026020016040519081016040528093929190818152602001838360200280828437600092019190915250929550506001600160a01b03833581169450602084013581169360408101359091169250606001359050613ac2565b610498613d22565b6104e26004803603602081101561103557600080fd5b50356001600160a01b0316613d31565b6104e26004803603606081101561105b57600080fd5b810190602081018135600160201b81111561107557600080fd5b82018360208201111561108757600080fd5b803590602001918460018302840111600160201b831117156110a857600080fd5b91908080601f0160208091040260200160405190810160405280939291908181526020018383808284376000920191909152509295949360208101935035915050600160201b8111156110fa57600080fd5b82018360208201111561110c57600080fd5b803590602001918460018302840111600160201b8311171561112d57600080fd5b91908080601f016020809104026020016040519081016040528093929190818152602001838380828437600092019190915250929550505090356001600160a01b03169150613d9c9050565b6104e26004803603608081101561118f57600080fd5b6001600160a01b038235169190810190604081016020820135600160201b8111156111b957600080fd5b8201836020820111156111cb57600080fd5b803590602001918460208302840111600160201b831117156111ec57600080fd5b9190808060200260200160405190810160405280939291908181526020018383602002808284376000920191909152509295949360208101935035915050600160201b81111561123b57600080fd5b82018360208201111561124d57600080fd5b803590602001918460208302840111600160201b8311171561126e57600080fd5b9190808060200260200160405190810160405280939291908181526020018383602002808284376000920191909152509295949360208101935035915050600160201b8111156112bd57600080fd5b8201836020820111156112cf57600080fd5b803590602001918460208302840111600160201b831117156112f057600080fd5b919080806020026020016040519081016040528093929190818152602001838360200280828437600092019190915250929550613e95945050505050565b6104986141a3565b6104986141b2565b6104986141c1565b6104e26004803603602081101561135c57600080fd5b50356001600160a01b03166141d0565b6104e26004803603608081101561138257600080fd5b810190602081018135600160201b81111561139c57600080fd5b8201836020820111156113ae57600080fd5b803590602001918460208302840111600160201b831117156113cf57600080fd5b9190808060200260200160405190810160405280939291908181526020018383602002808284376000920191909152509295949360208101935035915050600160201b81111561141e57600080fd5b82018360208201111561143057600080fd5b803590602001918460208302840111600160201b8311171561145157600080fd5b9190808060200260200160405190810160405280939291908181526020018383602002808284376000920191909152509295949360208101935035915050600160201b8111156114a057600080fd5b8201836020820111156114b257600080fd5b803590602001918460208302840111600160201b831117156114d357600080fd5b9190808060200260200160405190810160405280939291908181526020018383602002808284376000920191909152509295949360208101935035915050600160201b81111561152257600080fd5b82018360208201111561153457600080fd5b803590602001918460208302840111600160201b8311171561155557600080fd5b919080806020026020016040519081016040528093929190818152602001838360200280828437600092019190915250929550614260945050505050565b6104e2600480360360408110156115a957600080fd5b506001600160a01b0381358116916020013516614599565b6104e2600480360360208110156115d757600080fd5b50356001600160a01b03166146ca565b610498614841565b6104986004803603602081101561160557600080fd5b50356001600160a01b03166148b6565b6104986148d4565b3360009081526016602052604090206009015460609060ff16611675576040805162461bcd60e51b81526020600482015260116024820152600080516020614c9b833981519152604482015290519081900360640190fd5b33600090815260116020908152604091829020600201805483518184028101840190945280845290918301828280156116d757602002820191906000526020600020905b81546001600160a01b031681526001909101906020018083116116b9575b505050505090505b90565b6000546001600160a01b031681565b6000546001600160a01b0316331461173a5760405162461bcd60e51b8152600401808060200182810382526037815260200180614b9d6037913960400191505060405180910390fd5b6001600160a01b0381161561176557600b80546001600160a01b0319166001600160a01b0383161790555b6001600160a01b0382161561179057600a80546001600160a01b0319166001600160a01b0384161790555b5050565b3360009081526016602052604081206009015460ff166117e9576040805162461bcd60e51b81526020600482015260116024820152600080516020614c9b833981519152604482015290519081900360640190fd5b50336000908152601660205260409020600401546001600160a01b031690565b6001600160a01b039081166000908152601860205260409020600201541690565b336000908152601a602052604090205460ff166118785760405162461bcd60e51b8152600401808060200182810382526034815260200180614b3f6034913960400191505060405180910390fd5b611881816148e3565b6118ca576040805162461bcd60e51b81526020600482015260156024820152745374726174656779206e6f742070726573656e742160581b604482015290519081900360640190fd5b6001600160a01b0381166000908152601760205260408120906118ed828261496e565b506002810180546001600160a81b03191690556003810180546001600160a01b03199081169091556004820180549091169055600060059091015550565b336000908152601a602052604090205460ff166119795760405162461bcd60e51b8152600401808060200182810382526034815260200180614b3f6034913960400191505060405180910390fd5b61198281614904565b6119cb576040805162461bcd60e51b815260206004820152601560248201527450726f746f636f6c206e6f742070726573656e742160581b604482015290519081900360640190fd5b6001600160a01b0381166000908152601560205260408120906119ee828261496e565b6119fc60018301600061496e565b50600201805460ff1916905550565b6000546001600160a01b03163314611a545760405162461bcd60e51b8152600401808060200182810382526037815260200180614b9d6037913960400191505060405180910390fd5b600e80546001600160a01b0319166001600160a01b0392909216919091179055565b3360009081526019602052604090205460ff16611ace576040805162461bcd60e51b815260206004820152601160248201527015985d5b1d081b9bdd0818dc99585d1959607a1b604482015290519081900360640190fd5b611ad66149b2565b506040805160e081018252600c546001600160a01b039081168252600d54811660208084019182528783168486019081528784166060860190815260808601888152600160a08801526101f460c0880152336000908152601685529790972086516004820180546001600160a01b03199081169289169290921790559451600582018054871691881691909117905591516006830180548616918716919091179055516007820180549094169416939093179091559251805192938493611ba392600885019201906149ed565b5060a082015160098201805491151560ff1992831617905560c090920151600a9182015533600090815260116020818152604080842085546001600160a01b039081168652818452828620805489166001908117909155600283018054895484168952848301808852868a2082905599548184018355828a52878a2091820180546001600160a01b0319908116928716929092179055600b805486168b52958852868a208054909c168417909b558154855485168a52998752948820899055959094529054928601845592909352929091018054909316911617905550505050565b336000908152601a602052604090205460ff16611cd35760405162461bcd60e51b8152600401808060200182810382526034815260200180614b3f6034913960400191505060405180910390fd5b611cdc83614925565b15611d2e576040805162461bcd60e51b815260206004820152601f60248201527f536d61727420537472617465677920616c72656164792070726573656e742100604482015290519081900360640190fd5b611d36614a38565b50604080516080810182528581526001600160a01b038085166020808401919091528482168385015260016060840152908616600090815260188252929092208151805192938493611d8b9284920190614a5f565b506020828101516001830180546001600160a01b039283166001600160a01b031991821617909155604080860151600290950180546060909701511515600160a01b0260ff60a01b199685169784169790971795909516959095179093559586166000908152601b90915291909120805495909416941693909317909155505050565b6007546001600160a01b031681565b6002546001600160a01b031681565b600e546001600160a01b031681565b6000546001600160a01b03163314611e845760405162461bcd60e51b8152600401808060200182810382526037815260200180614b9d6037913960400191505060405180910390fd5b6001600160a01b03166000908152601a60205260409020805460ff19166001179055565b6000546001600160a01b03163314611ef15760405162461bcd60e51b815260040180806020018281038252602d815260200180614c21602d913960400191505060405180910390fd5b600080546001600160a01b0319166001600160a01b0392909216919091179055565b6000546001600160a01b03163314611f5c5760405162461bcd60e51b8152600401808060200182810382526037815260200180614b9d6037913960400191505060405180910390fd5b600380546001600160a01b0319166001600160a01b0392909216919091179055565b6010546001600160a01b031681565b6000546001600160a01b03163314611fd65760405162461bcd60e51b815260040180806020018281038252602d815260200180614c21602d913960400191505060405180910390fd5b600180546001600160a01b0319166001600160a01b0392909216919091179055565b336000908152601a602052604090205460ff166120465760405162461bcd60e51b8152600401808060200182810382526034815260200180614b3f6034913960400191505060405180910390fd5b61204f8161494d565b612095576040805162461bcd60e51b81526020600482015260126024820152714173736574206e6f742070726573656e742160701b604482015290519081900360640190fd5b6001600160a01b0381166000908152601460205260408120906119ee828261496e565b6002546001600160a01b031633146121015760405162461bcd60e51b815260040180806020018281038252602d815260200180614cde602d913960400191505060405180910390fd5b600280546001600160a01b0319169055565b336000908152601a602052604090205460ff166121615760405162461bcd60e51b8152600401808060200182810382526034815260200180614b3f6034913960400191505060405180910390fd5b600980546001600160a01b0319166001600160a01b0392909216919091179055565b3360009081526016602052604090206009015460ff166121e1576040805162461bcd60e51b815260206004820152601460248201527315985d5b1d081a5cc81b9bdd081c1c995cd95b9d60621b604482015290519081900360640190fd5b336000908152601660205260409020600a0155565b600f546001600160a01b031681565b3360009081526016602052604090206009015460ff1661225a576040805162461bcd60e51b81526020600482015260116024820152600080516020614c9b833981519152604482015290519081900360640190fd5b61226382614925565b61229e5760405162461bcd60e51b8152600401808060200182810382526029815260200180614bf86029913960400191505060405180910390fd5b80600114156122d75733600090815260166020526040902060040180546001600160a01b0319166001600160a01b038416179055611790565b80600214156123105733600090815260166020526040902060050180546001600160a01b0319166001600160a01b038416179055611790565b6040805162461bcd60e51b8152602060048201526015602482015274125b9d985b1a59081d1e5c19481c1c9bdd9a591959605a1b604482015290519081900360640190fd5b6005546001600160a01b031681565b600d546001600160a01b031681565b336000908152601a602052604090205460ff166123c15760405162461bcd60e51b8152600401808060200182810382526034815260200180614b3f6034913960400191505060405180910390fd5b6123ca82614925565b61241b576040805162461bcd60e51b815260206004820152601b60248201527f536d617274205374726174656779206e6f742070726573656e74210000000000604482015290519081900360640190fd5b6001600160a01b03918216600090815260186020526040902060020180546001600160a01b03191691909216179055565b6001600160a01b031660009081526016602052604090206009015460ff1690565b336000908152601a602052604090205460ff166124bb5760405162461bcd60e51b8152600401808060200182810382526034815260200180614b3f6034913960400191505060405180910390fd5b6124c4826148e3565b61250d576040805162461bcd60e51b81526020600482015260156024820152745374726174656779206e6f742070726573656e742160581b604482015290519081900360640190fd5b6001600160a01b03918216600090815260176020526040902060030180546001600160a01b03191691909216179055565b6001600160a01b03811660009081526016602052604090206009015460609060ff1661259f576040805162461bcd60e51b81526020600482015260116024820152600080516020614c9b833981519152604482015290519081900360640190fd5b6001600160a01b0382166000908152601360209081526040918290206002018054835181840281018401909452808452909183018282801561260a57602002820191906000526020600020905b81546001600160a01b031681526001909101906020018083116125ec575b50505050509050919050565b600c546001600160a01b031681565b3360009081526016602052604081206009015460ff16612683576040805162461bcd60e51b815260206004820152601460248201527315985d5b1d081a5cc81b9bdd081c1c995cd95b9d60621b604482015290519081900360640190fd5b50336000908152601660205260409020600a015490565b6000546001600160a01b031633146126e35760405162461bcd60e51b8152600401808060200182810382526037815260200180614b9d6037913960400191505060405180910390fd5b601080546001600160a01b0319166001600160a01b0392909216919091179055565b336000908152601a602052604090205460ff166127535760405162461bcd60e51b8152600401808060200182810382526034815260200180614b3f6034913960400191505060405180910390fd5b61275c81614925565b156127ae576040805162461bcd60e51b815260206004820152601a60248201527f536d617274205374726174656779206e6f742070726573656e74000000000000604482015290519081900360640190fd5b6001600160a01b0381166000908152601860205260408120906127d1828261496e565b506001810180546001600160a01b031916905560020180546001600160a81b031916905550565b6000546001600160a01b031633146128415760405162461bcd60e51b8152600401808060200182810382526037815260200180614b9d6037913960400191505060405180910390fd5b600f80546001600160a01b0319166001600160a01b0392909216919091179055565b600b546001600160a01b031681565b3360009081526016602052604090206009015460ff166128d0576040805162461bcd60e51b815260206004820152601460248201527315985d5b1d081a5cc81b9bdd081c1c995cd95b9d60621b604482015290519081900360640190fd5b33600090815260166020526040902060070180546001600160a01b0319166001600160a01b0392909216919091179055565b6000546001600160a01b0316331461294b5760405162461bcd60e51b8152600401808060200182810382526037815260200180614b9d6037913960400191505060405180910390fd5b600480546001600160a01b0319166001600160a01b0392909216919091179055565b3360009081526016602052604090206009015460ff166129c2576040805162461bcd60e51b81526020600482015260116024820152600080516020614c9b833981519152604482015290519081900360640190fd5b3360009081526013602090815260408083206001600160a01b038516845290915290205460ff16612a3a576040805162461bcd60e51b815260206004820152601f60248201527f50726f7669646564207374726174656779206973206e6f742061637469766500604482015290519081900360640190fd5b3360008181526013602081815260408084206001600160a01b0387168552808352908420805460ff191690559390925290526002015460011415612aba57336000908152601360205260409020600201805480612a9357fe5b600082815260209020810160001990810180546001600160a01b0319169055019055612c22565b3360008181526013602081815260408084206001600160a01b038716855260018101835290842054949093525260020180546000198101919083908110612afd57fe5b6000918252602080832090910180546001600160a01b03191690553382526013905260408120600281018054859360019390930192919085908110612b3e57fe5b60009182526020808320909101546001600160a01b0316835282810193909352604091820181209390935533835260139091529020600201805482908110612b8257fe5b60009182526020808320909101543383526013909152604090912060020180546001600160a01b039092169184908110612bb857fe5b600091825260208083209190910180546001600160a01b0319166001600160a01b039490941693909317909255338152601390915260409020600201805480612bfd57fe5b600082815260209020810160001990810180546001600160a01b031916905501905550505b50565b60095460408051638b2f0f4f60e01b81526001600160a01b03848116600483015291516000939290921691638b2f0f4f91602480820192602092909190829003018186803b158015612c7657600080fd5b505afa158015612c8a573d6000803e3d6000fd5b505050506040513d6020811015612ca057600080fd5b505192915050565b6001600160a01b03821660009081526016602052604081206009015460ff168015612cee57506001600160a01b03821660009081526017602052604090206002015460ff165b8015612d2357506001600160a01b038084166000908152601660209081526040808320938616835260039093019052205460ff165b15612d3057506001612d34565b5060005b92915050565b6006546001600160a01b031681565b3360009081526016602052604090206009015460ff16612d9e576040805162461bcd60e51b81526020600482015260116024820152600080516020614c9b833981519152604482015290519081900360640190fd5b6001600160a01b03821660009081526017602052604090206002015460ff16612e05576040805162461bcd60e51b815260206004820152601460248201527314dd1c985d1959de481b9bdd081c1c995cd95b9d60621b604482015290519081900360640190fd5b3360009081526016602090815260408083206001600160a01b038616845260030190915290205460ff16612e80576040805162461bcd60e51b815260206004820152601860248201527f537472617465677920776173206e6f7420656e61626c65640000000000000000604482015290519081900360640190fd5b3360009081526016602090815260408083206001600160a01b03861684526003019091528120805460ff191690555b8151811015612f71576000828281518110612ec657fe5b60200260200101519050612ed98161494d565b612f18576040805162461bcd60e51b81526020600482018190526024820152600080516020614c7b833981519152604482015290519081900360640190fd5b3360009081526016602090815260408083206001600160a01b03949094168352838252808320805460ff199081169091556001808601845282852080548316905560029095019092529091208054909116905501612eaf565b505050565b336000908152601a602052604090205460ff16612fc45760405162461bcd60e51b8152600401808060200182810382526034815260200180614b3f6034913960400191505060405180910390fd5b600880546001600160a01b0319166001600160a01b0392909216919091179055565b3360009081526016602052604081206009015460ff16613044576040805162461bcd60e51b815260206004820152601460248201527315985d5b1d081a5cc81b9bdd081c1c995cd95b9d60621b604482015290519081900360640190fd5b503360009081526016602090815260408083206001600160a01b03949094168352929052205460ff1690565b6001600160a01b03918216600090815260136020908152604080832093909416825291909152205460ff1690565b6001600160a01b03831660009081526016602052604081206009015460ff1680156130e457506001600160a01b03831660009081526017602052604090206002015460ff165b801561310b57506001600160a01b03821660009081526015602052604090206002015460ff165b801561314057506001600160a01b038085166000908152601660209081526040808320938716835260039093019052205460ff165b801561317b57506001600160a01b038085166000908152601260209081526040808320878516845282528083209386168352929052205460ff165b156131885750600161318c565b5060005b9392505050565b6001600160a01b038216600090815260166020526040812060090154819060ff166131f3576040805162461bcd60e51b81526020600482015260116024820152600080516020614c9b833981519152604482015290519081900360640190fd5b6001600160a01b03831660009081526017602052604090206002015460ff1661325a576040805162461bcd60e51b815260206004820152601460248201527314dd1c985d1959de481b9bdd081c1c995cd95b9d60621b604482015290519081900360640190fd5b6001600160a01b0380851660009081526013602090815260408083209387168352929052205460ff166132ca576040805162461bcd60e51b81526020600482015260136024820152725374726174656779206e6f742041637469766560681b604482015290519081900360640190fd5b50506001600160a01b0390811660009081526017602052604090206004810154600590910154911692909150565b6000546001600160a01b031633146133415760405162461bcd60e51b8152600401808060200182810382526037815260200180614b9d6037913960400191505060405180910390fd5b6001600160a01b03166000908152601a60205260409020805460ff19169055565b6008546001600160a01b031633146133ab5760405162461bcd60e51b815260040180806020018281038252602d815260200180614c4e602d913960400191505060405180910390fd5b6001600160a01b03166000908152601960205260409020805460ff19166001179055565b3360009081526016602052604081206009015460ff16613424576040805162461bcd60e51b81526020600482015260116024820152600080516020614c9b833981519152604482015290519081900360640190fd5b503360009081526016602090815260408083206001600160a01b038516845260020190915290205460ff16919050565b6001600160a01b039081166000908152601760205260409020600301541690565b336000908152601a602052604090205460ff166134c35760405162461bcd60e51b8152600401808060200182810382526034815260200180614b3f6034913960400191505060405180910390fd5b6134cc8161494d565b15613517576040805162461bcd60e51b8152602060048201526016602482015275417373657420616c72656164792070726573656e742160501b604482015290519081900360640190fd5b61351f614acc565b506040805160608101825283815260208082018690526001828401526001600160a01b0384166000908152601482529290922081518051929384936135679284920190614a5f565b5060208281015180516135809260018501920190614a5f565b50604091909101516002909101805460ff191691151591909117905550505050565b6000546001600160a01b031633146135eb5760405162461bcd60e51b8152600401808060200182810382526037815260200180614b9d6037913960400191505060405180910390fd5b600c80546001600160a01b039384166001600160a01b031991821617909155600d8054929093169116179055565b3360009081526016602052604081206009015460ff1661366e576040805162461bcd60e51b81526020600482015260116024820152600080516020614c9b833981519152604482015290519081900360640190fd5b503360009081526016602090815260408083206001600160a01b038516845260010190915290205460ff16919050565b6008546001600160a01b031681565b6001600160a01b03821660009081526016602052604090206009015460ff1661370b576040805162461bcd60e51b81526020600482015260116024820152600080516020614c9b833981519152604482015290519081900360640190fd5b6001600160a01b0380831660009081526011602090815260408083209385168352929052205460ff1661376f5760405162461bcd60e51b8152600401808060200182810382526024815260200180614bd46024913960400191505060405180910390fd5b6001600160a01b03828116600090815260166020526040902060070154163314806137a457506000546001600160a01b031633145b6137ed576040805162461bcd60e51b815260206004820152601560248201527414d95b99195c881b9bdd08105d5d1a1bdc9a5e9959605a1b604482015290519081900360640190fd5b600a546001600160a01b03828116911614158061381457506000546001600160a01b031633145b61384f5760405162461bcd60e51b815260040180806020018281038252602a815260200180614b73602a913960400191505060405180910390fd5b6001600160a01b03808316600081815260116020818152604080842095871684528582528320805460ff1916905592909152905260020154600114156138da576001600160a01b03821660009081526011602052604090206002018054806138b357fe5b600082815260209020810160001990810180546001600160a01b0319169055019055611790565b6001600160a01b038083166000818152601160208181526040808420958716845260018601825283205493909252905260029091018054600019810191908390811061392257fe5b6000918252602080832090910180546001600160a01b03191690556001600160a01b0386168252601190526040812060028101805485936001939093019291908590811061396c57fe5b60009182526020808320909101546001600160a01b03908116845283820194909452604092830182209490945591871682526011909252206002018054829081106139b357fe5b60009182526020808320909101546001600160a01b038781168452601190925260409092206002018054919092169190849081106139ed57fe5b600091825260208083209190910180546001600160a01b0319166001600160a01b039485161790559186168152601190915260409020600201805480613a2f57fe5b600082815260209020810160001990810180546001600160a01b031916905501905550505050565b6000546001600160a01b03163314613aa05760405162461bcd60e51b8152600401808060200182810382526037815260200180614b9d6037913960400191505060405180910390fd5b600780546001600160a01b0319166001600160a01b0392909216919091179055565b336000908152601a602052604090205460ff16613b105760405162461bcd60e51b8152600401808060200182810382526034815260200180614b3f6034913960400191505060405180910390fd5b613b19866148e3565b15613b6b576040805162461bcd60e51b815260206004820152601960248201527f537472617465677920616c72656164792070726573656e742100000000000000604482015290519081900360640190fd5b613b73614aef565b506040805160c08101825288815260016020808301919091526001600160a01b03808816838501528681166060840152858116608084015260a083018590528916600090815260178252929092208151805192938493613bd69284920190614a5f565b5060208281015160028301805460408087015160ff1990921693151593909317610100600160a81b0319166101006001600160a01b03928316021790915560608501516003850180546001600160a01b03199081169284169290921790556080860151600486018054831691841691909117905560a0909501516005909401939093558883166000908152601b90925281208054909316918a16919091179091555b8651811015613d17576000878281518110613c8f57fe5b60200260200101519050613ca281614904565b613cdd5760405162461bcd60e51b8152600401808060200182810382526023815260200180614cbb6023913960400191505060405180910390fd5b6001600160a01b03808a1660009081526017602090815260408083209490931682526001938401905220805460ff19168217905501613c78565b505050505050505050565b600a546001600160a01b031681565b6002546001600160a01b03163314613d7a5760405162461bcd60e51b815260040180806020018281038252602d815260200180614cde602d913960400191505060405180910390fd5b600280546001600160a01b0319166001600160a01b0392909216919091179055565b336000908152601a602052604090205460ff16613dea5760405162461bcd60e51b8152600401808060200182810382526034815260200180614b3f6034913960400191505060405180910390fd5b613df381614904565b15613e45576040805162461bcd60e51b815260206004820152601960248201527f50726f746f636f6c20616c72656164792070726573656e742100000000000000604482015290519081900360640190fd5b613e4d614acc565b506040805160608101825283815260208082018690526001828401526001600160a01b0384166000908152601582529290922081518051929384936135679284920190614a5f565b3360009081526016602052604090206009015460ff16613eea576040805162461bcd60e51b81526020600482015260116024820152600080516020614c9b833981519152604482015290519081900360640190fd5b6001600160a01b03841660009081526017602052604090206002015460ff16613f51576040805162461bcd60e51b815260206004820152601460248201527314dd1c985d1959de481b9bdd081c1c995cd95b9d60621b604482015290519081900360640190fd5b3360009081526016602090815260408083206001600160a01b03881684526003019091528120805460ff191660011790555b8351811015614029576000848281518110613f9a57fe5b60200260200101519050613fad81614904565b613fe85760405162461bcd60e51b8152600401808060200182810382526023815260200180614cbb6023913960400191505060405180910390fd5b3360009081526012602090815260408083206001600160a01b038a811685529083528184209416835292905220805460ff1916600190811790915501613f83565b5060005b82518110156140cf57600083828151811061404457fe5b6020026020010151905061405781614904565b6140925760405162461bcd60e51b8152600401808060200182810382526023815260200180614cbb6023913960400191505060405180910390fd5b3360009081526012602090815260408083206001600160a01b038a811685529083528184209416835292905220805460ff1916905560010161402d565b5060005b815181101561419c5760008282815181106140ea57fe5b602002602001015190506140fd8161494d565b61413c576040805162461bcd60e51b81526020600482018190526024820152600080516020614c7b833981519152604482015290519081900360640190fd5b3360009081526016602090815260408083206001600160a01b039490941683528382528083208054600160ff19918216811790925581860184528285208054821683179055600290950190925290912080549092168117909155016140d3565b5050505050565b6009546001600160a01b031681565b6001546001600160a01b031681565b6004546001600160a01b031681565b3360009081526016602052604090206009015460ff1661422e576040805162461bcd60e51b815260206004820152601460248201527315985d5b1d081a5cc81b9bdd081c1c995cd95b9d60621b604482015290519081900360640190fd5b33600090815260166020526040902060060180546001600160a01b0319166001600160a01b0392909216919091179055565b3360009081526016602052604090206009015460ff166142b5576040805162461bcd60e51b81526020600482015260116024820152600080516020614c9b833981519152604482015290519081900360640190fd5b60005b845181101561436f5760008582815181106142cf57fe5b602002602001015190506142e28161494d565b614321576040805162461bcd60e51b81526020600482018190526024820152600080516020614c7b833981519152604482015290519081900360640190fd5b3360009081526016602090815260408083206001600160a01b039490941683528382528083208054600160ff19918216811790925594810190925290912080549092168117909155016142b8565b5060005b835181101561442c57600084828151811061438a57fe5b6020026020010151905061439d8161494d565b6143dc576040805162461bcd60e51b81526020600482018190526024820152600080516020614c7b833981519152604482015290519081900360640190fd5b3360009081526016602090815260408083206001600160a01b039490941683528382528083208054600160ff19918216811790925560029095019092529091208054909216811790915501614373565b5060005b82518110156144e257600083828151811061444757fe5b6020026020010151905061445a8161494d565b614499576040805162461bcd60e51b81526020600482018190526024820152600080516020614c7b833981519152604482015290519081900360640190fd5b3360009081526016602090815260408083206001600160a01b03949094168352838252808320805460ff1990811690915560019485019092529091208054909116905501614430565b5060005b815181101561419c5760008282815181106144fd57fe5b602002602001015190506145108161494d565b61454f576040805162461bcd60e51b81526020600482018190526024820152600080516020614c7b833981519152604482015290519081900360640190fd5b3360009081526016602090815260408083206001600160a01b03949094168352838252808320805460ff1990811690915560029094019091529020805490911690556001016144e6565b6001600160a01b03821660009081526016602052604090206009015460ff166145f7576040805162461bcd60e51b81526020600482015260116024820152600080516020614c9b833981519152604482015290519081900360640190fd5b6001600160a01b03828116600090815260166020526040902060070154163314614660576040805162461bcd60e51b815260206004820152601560248201527414d95b99195c881b9bdd08105d5d1a1bdc9a5e9959605a1b604482015290519081900360640190fd5b6001600160a01b03918216600090815260116020818152604080842094909516808452848252858420805460ff19166001908117909155600286018054968201845296852086905592825291840185559382529290200180546001600160a01b0319169091179055565b3360009081526016602052604090206009015460ff1661471f576040805162461bcd60e51b81526020600482015260116024820152600080516020614c9b833981519152604482015290519081900360640190fd5b6001600160a01b03811660009081526017602052604090206002015460ff16614786576040805162461bcd60e51b815260206004820152601460248201527314dd1c985d1959de481b9bdd081c1c995cd95b9d60621b604482015290519081900360640190fd5b6147903382612ca8565b6147d8576040805162461bcd60e51b815260206004820152601460248201527314dd1c985d1959de481b9bdd08195b98589b195960621b604482015290519081900360640190fd5b3360009081526013602081815260408084206001600160a01b0395909516808552858352818520805460ff1916600190811790915560028701805497820185529286208790559383529285018155835290912090910180546001600160a01b0319169091179055565b3360009081526016602052604081206009015460ff16614896576040805162461bcd60e51b81526020600482015260116024820152600080516020614c9b833981519152604482015290519081900360640190fd5b50336000908152601660205260409020600501546001600160a01b031690565b6001600160a01b039081166000908152601b60205260409020541690565b6003546001600160a01b031681565b6001600160a01b031660009081526017602052604090206002015460ff1690565b6001600160a01b031660009081526015602052604090206002015460ff1690565b6001600160a01b0316600090815260186020526040902060020154600160a01b900460ff1690565b6001600160a01b031660009081526014602052604090206002015460ff1690565b50805460018160011615610100020316600290046000825580601f106149945750612c22565b601f016020900490600052602060002090810190612c229190614b24565b6040805160e0810182526000808252602082018190529181018290526060808201839052608082015260a0810182905260c081019190915290565b828054828255906000526020600020908101928215614a28579160200282015b82811115614a28578251825591602001919060010190614a0d565b50614a34929150614b24565b5090565b60408051608081018252606080825260006020830181905292820183905281019190915290565b828054600181600116156101000203166002900490600052602060002090601f016020900481019282601f10614aa057805160ff1916838001178555614a28565b82800160010185558215614a285791820182811115614a28578251825591602001919060010190614a0d565b604051806060016040528060608152602001606081526020016000151581525090565b6040805160c081018252606080825260006020830181905292820183905281018290526080810182905260a081019190915290565b6116df91905b80821115614a345760008155600101614b2a56fe4f6e6c7920415053206d616e616765727320616c6c6f77656420746f20706572666f726d2074686973206f7065726174696f6e21506c617466726f6d204d616e6167656d656e74206f6e6c79206368616e6761626c652062792064616f214f6e6c79205969656c64737465722044414f20697320616c6c6f77656420746f20706572666f726d2074686973206f7065726174696f6e50726f7669646564204d616e6167656d656e74466565206973206e6f7420616374697665536d617274205374726174656779206e6f7420537570706f72746564206279205969656c64737465724f6e6c79205969656c64737465722044414f2063616e20706572666f726d2074686973206f7065726174696f6e4f6e6c792050726f787920466163746f72792063616e20706572666f726d2074686973206f7065726174696f6e4173736574206e6f7420737570706f72746564206279205969656c64737465725661756c74206e6f742070726573656e7400000000000000000000000000000050726f746f636f6c206e6f7420737570706f72746564206279205969656c64737465724f6e6c79205969656c647374657220474f442063616e20706572666f726d2074686973206f7065726174696f6ea265627a7a7231582016a90cf0d9ef749861085aa30cc1c968af448a8c3862890e9b7a1429ef2df90d64736f6c63430005110032",
  "source": "// SPDX-License-Identifier: MIT\npragma solidity >=0.5.0 <0.7.0;\nimport \"../interfaces/IPriceModule.sol\";\n\ncontract APContract {\n    address public yieldsterDAO;\n\n    address public yieldsterTreasury;\n\n    address public yieldsterGOD;\n\n    address public emergencyVault;\n\n    address public yieldsterExchange;\n\n    address public stringUtils;\n\n    address public whitelistModule;\n\n    address public whitelistManager;\n\n    address public proxyFactory;\n\n    address public priceModule;\n\n    address public platFormManagementFee;\n\n    address public profitManagementFee;\n\n    address public stockDeposit;\n\n    address public stockWithdraw;\n\n    address public safeMinter;\n\n    address public safeUtils;\n\n    address public exchangeRegistry;\n\n    struct Asset {\n        string name;\n        string symbol;\n        bool created;\n    }\n\n    struct Protocol {\n        string name;\n        string symbol;\n        bool created;\n    }\n\n    struct Vault {\n        mapping(address => bool) vaultAssets;\n        mapping(address => bool) vaultDepositAssets;\n        mapping(address => bool) vaultWithdrawalAssets;\n        mapping(address => bool) vaultEnabledStrategy;\n        address depositStrategy;\n        address withdrawStrategy;\n        address vaultAPSManager;\n        address vaultStrategyManager;\n        uint256[] whitelistGroup;\n        bool created;\n        uint256 slippage;\n    }\n\n    struct VaultActiveStrategy {\n        mapping(address => bool) isActiveStrategy;\n        mapping(address => uint256) activeStrategyIndex;\n        address[] activeStrategyList;\n    }\n\n    struct Strategy {\n        string strategyName;\n        mapping(address => bool) strategyProtocols;\n        bool created;\n        address minter;\n        address executor;\n        address benefeciary;\n        uint256 managementFeePercentage;\n    }\n\n    struct SmartStrategy {\n        string smartStrategyName;\n        address minter;\n        address executor;\n        bool created;\n    }\n\n    struct vaultActiveManagemetFee {\n        mapping(address => bool) isActiveManagementFee;\n        mapping(address => uint256) activeManagementFeeIndex;\n        address[] activeManagementFeeList;\n    }\n\n    event VaultCreation(address vaultAddress);\n\n    mapping(address => vaultActiveManagemetFee) managementFeeStrategies;\n\n    mapping(address => mapping(address => mapping(address => bool))) vaultStrategyEnabledProtocols;\n\n    mapping(address => VaultActiveStrategy) vaultActiveStrategies;\n\n    mapping(address => Asset) assets;\n\n    mapping(address => Protocol) protocols;\n\n    mapping(address => Vault) vaults;\n\n    mapping(address => Strategy) strategies;\n\n    mapping(address => SmartStrategy) smartStrategies;\n\n    mapping(address => bool) vaultCreated;\n\n    mapping(address => bool) APSManagers;\n\n    mapping(address => address) minterStrategyMap;\n\n    constructor(\n        address _whitelistModule,\n        address _platformManagementFee,\n        address _profitManagementFee,\n        address _stringUtils,\n        address _yieldsterExchange,\n        address _exchangeRegistry,\n        address _priceModule,\n        address _safeUtils\n    ) public {\n        yieldsterDAO = msg.sender;\n        yieldsterTreasury = msg.sender;\n        yieldsterGOD = msg.sender;\n        emergencyVault = msg.sender;\n        APSManagers[msg.sender] = true;\n        whitelistModule = _whitelistModule;\n        platFormManagementFee = _platformManagementFee;\n        stringUtils = _stringUtils;\n        yieldsterExchange = _yieldsterExchange;\n        exchangeRegistry = _exchangeRegistry;\n        priceModule = _priceModule;\n        safeUtils = _safeUtils;\n        profitManagementFee = _profitManagementFee;\n    }\n\n    /// @dev Function to add proxy Factory address to Yieldster.\n    /// @param _proxyFactory Address of proxy factory.\n    function addProxyFactory(address _proxyFactory) public onlyManager {\n        proxyFactory = _proxyFactory;\n    }\n\n    function setProfitAndPlatformManagementFeeStrategies(\n        address _platformManagement,\n        address _profitManagement\n    ) public onlyYieldsterDAO {\n        if (_profitManagement != address(0))\n            profitManagementFee = _profitManagement;\n        if (_platformManagement != address(0))\n            platFormManagementFee = _platformManagement;\n    }\n\n    //Modifiers\n    modifier onlyYieldsterDAO {\n        require(\n            yieldsterDAO == msg.sender,\n            \"Only Yieldster DAO is allowed to perform this operation\"\n        );\n        _;\n    }\n\n    modifier onlyManager {\n        require(\n            APSManagers[msg.sender],\n            \"Only APS managers allowed to perform this operation!\"\n        );\n        _;\n    }\n\n    function isVault(address _address) public view returns (bool) {\n        return vaults[_address].created;\n    }\n\n    /// @dev Function to add APS manager to Yieldster.\n    /// @param _manager Address of the manager.\n    function addManager(address _manager) public onlyYieldsterDAO {\n        APSManagers[_manager] = true;\n    }\n\n    /// @dev Function to remove APS manager from Yieldster.\n    /// @param _manager Address of the manager.\n    function removeManager(address _manager) public onlyYieldsterDAO {\n        APSManagers[_manager] = false;\n    }\n\n    /// @dev Function to change whitelist Manager.\n    /// @param _whitelistManager Address of the whitelist manager.\n    function changeWhitelistManager(address _whitelistManager)\n        public\n        onlyYieldsterDAO\n    {\n        whitelistManager = _whitelistManager;\n    }\n\n    /// @dev Function to set Yieldster GOD.\n    /// @param _yieldsterGOD Address of the Yieldster GOD.\n    function setYieldsterGOD(address _yieldsterGOD) public {\n        require(\n            msg.sender == yieldsterGOD,\n            \"Only Yieldster GOD can perform this operation\"\n        );\n        yieldsterGOD = _yieldsterGOD;\n    }\n\n    /// @dev Function to set Yieldster DAO.\n    /// @param _yieldsterDAO Address of the Yieldster DAO.\n    function setYieldsterDAO(address _yieldsterDAO) public {\n        require(\n            msg.sender == yieldsterDAO,\n            \"Only Yieldster DAO can perform this operation\"\n        );\n        yieldsterDAO = _yieldsterDAO;\n    }\n\n    /// @dev Function to set Yieldster Treasury.\n    /// @param _yieldsterTreasury Address of the Yieldster Treasury.\n    function setYieldsterTreasury(address _yieldsterTreasury) public {\n        require(\n            msg.sender == yieldsterDAO,\n            \"Only Yieldster DAO can perform this operation\"\n        );\n        yieldsterTreasury = _yieldsterTreasury;\n    }\n\n    /// @dev Function to disable Yieldster GOD.\n    function disableYieldsterGOD() public {\n        require(\n            msg.sender == yieldsterGOD,\n            \"Only Yieldster GOD can perform this operation\"\n        );\n        yieldsterGOD = address(0);\n    }\n\n    /// @dev Function to set Emergency vault.\n    /// @param _emergencyVault Address of the Yieldster Emergency vault.\n    function setEmergencyVault(address _emergencyVault)\n        public\n        onlyYieldsterDAO\n    {\n        emergencyVault = _emergencyVault;\n    }\n\n    /// @dev Function to set Safe Minter.\n    /// @param _safeMinter Address of the Safe Minter.\n    function setSafeMinter(address _safeMinter) public onlyYieldsterDAO {\n        safeMinter = _safeMinter;\n    }\n\n    /// @dev Function to set safeUtils contract.\n    /// @param _safeUtils Address of the safeUtils contract.\n    function setSafeUtils(address _safeUtils) public onlyYieldsterDAO {\n        safeUtils = _safeUtils;\n    }\n\n    /// @dev Function to set exchangeRegistry address.\n    /// @param _exchangeRegistry Address of the exchangeRegistry.\n    function setExchangeRegistry(address _exchangeRegistry)\n        public\n        onlyYieldsterDAO\n    {\n        exchangeRegistry = _exchangeRegistry;\n    }\n\n    /// @dev Function to get strategy address from minter.\n    /// @param _minter Address of the minter.\n    function getStrategyFromMinter(address _minter)\n        external\n        view\n        returns (address)\n    {\n        return minterStrategyMap[_minter];\n    }\n\n    /// @dev Function to set Yieldster Exchange.\n    /// @param _yieldsterExchange Address of the Yieldster exchange.\n    function setYieldsterExchange(address _yieldsterExchange)\n        public\n        onlyYieldsterDAO\n    {\n        yieldsterExchange = _yieldsterExchange;\n    }\n\n    /// @dev Function to set stock Deposit and Withdraw.\n    /// @param _stockDeposit Address of the stock deposit contract.\n    /// @param _stockWithdraw Address of the stock withdraw contract.\n    function setStockDepositWithdraw(\n        address _stockDeposit,\n        address _stockWithdraw\n    ) public onlyYieldsterDAO {\n        stockDeposit = _stockDeposit;\n        stockWithdraw = _stockWithdraw;\n    }\n\n    /// @dev Function to change the APS Manager for a vault.\n    /// @param _vaultAPSManager Address of the new APS Manager.\n    function changeVaultAPSManager(address _vaultAPSManager) external {\n        require(vaults[msg.sender].created, \"Vault is not present\");\n        vaults[msg.sender].vaultAPSManager = _vaultAPSManager;\n    }\n\n    /// @dev Function to change the Strategy Manager for a vault.\n    /// @param _vaultStrategyManager Address of the new Strategy Manager.\n    function changeVaultStrategyManager(address _vaultStrategyManager)\n        external\n    {\n        require(vaults[msg.sender].created, \"Vault is not present\");\n        vaults[msg.sender].vaultStrategyManager = _vaultStrategyManager;\n    }\n\n    /// @dev Function to change the Slippage Settings for a vault.\n    /// @param _slippage value of slippage.\n    function setVaultSlippage(uint256 _slippage) external {\n        require(vaults[msg.sender].created, \"Vault is not present\");\n        vaults[msg.sender].slippage = _slippage;\n    }\n\n    /// @dev Function to get the Slippage Settings for a vault.\n    function getVaultSlippage() external view returns (uint256) {\n        require(vaults[msg.sender].created, \"Vault is not present\");\n        return vaults[msg.sender].slippage;\n    }\n\n    //Price Module\n    /// @dev Function to set Yieldster price module.\n    /// @param _priceModule Address of the price module.\n    function setPriceModule(address _priceModule) public onlyManager {\n        priceModule = _priceModule;\n    }\n\n    /// @dev Function to get the USD price for a token.\n    /// @param _tokenAddress Address of the token.\n    function getUSDPrice(address _tokenAddress) public view returns (uint256) {\n        return IPriceModule(priceModule).getUSDPrice(_tokenAddress);\n    }\n\n    //Vaults\n    /// @dev Function to create a vault.\n    /// @param _vaultAddress Address of the new vault.\n    function createVault(address _vaultAddress) public {\n        require(\n            msg.sender == proxyFactory,\n            \"Only Proxy Factory can perform this operation\"\n        );\n        vaultCreated[_vaultAddress] = true;\n    }\n\n    /// @dev Function to add a vault in the APS.\n    /// @param _vaultAPSManager Address of the vaults APS Manager.\n    /// @param _vaultStrategyManager Address of the vaults Strateg Manager.\n    /// @param _whitelistGroup List of whitelist groups applied to the vault.\n    function addVault(\n        address _vaultAPSManager,\n        address _vaultStrategyManager,\n        uint256[] memory _whitelistGroup\n    ) public {\n        require(vaultCreated[msg.sender], \"Vault not created\");\n        Vault memory newVault = Vault({\n            vaultAPSManager: _vaultAPSManager,\n            vaultStrategyManager: _vaultStrategyManager,\n            whitelistGroup: _whitelistGroup,\n            depositStrategy: stockDeposit,\n            withdrawStrategy: stockWithdraw,\n            created: true,\n            slippage: 500 //5 percent slippage\n        });\n        vaults[msg.sender] = newVault;\n\n        //applying Platform management fee\n        managementFeeStrategies[msg.sender].isActiveManagementFee[\n            platFormManagementFee\n        ] = true;\n        managementFeeStrategies[msg.sender].activeManagementFeeIndex[\n            platFormManagementFee\n        ] = managementFeeStrategies[msg.sender].activeManagementFeeList.length;\n        managementFeeStrategies[msg.sender].activeManagementFeeList.push(\n            platFormManagementFee\n        );\n\n        //applying Profit management fee\n        managementFeeStrategies[msg.sender].isActiveManagementFee[\n            profitManagementFee\n        ] = true;\n        managementFeeStrategies[msg.sender].activeManagementFeeIndex[\n            profitManagementFee\n        ] = managementFeeStrategies[msg.sender].activeManagementFeeList.length;\n        managementFeeStrategies[msg.sender].activeManagementFeeList.push(\n            profitManagementFee\n        );\n    }\n\n    /// @dev Function to Manage the vault assets.\n    /// @param _enabledDepositAsset List of deposit assets to be enabled in the vault.\n    /// @param _enabledWithdrawalAsset List of withdrawal assets to be enabled in the vault.\n    /// @param _disabledDepositAsset List of deposit assets to be disabled in the vault.\n    /// @param _disabledWithdrawalAsset List of withdrawal assets to be disabled in the vault.\n    function setVaultAssets(\n        address[] memory _enabledDepositAsset,\n        address[] memory _enabledWithdrawalAsset,\n        address[] memory _disabledDepositAsset,\n        address[] memory _disabledWithdrawalAsset\n    ) public {\n        require(vaults[msg.sender].created, \"Vault not present\");\n\n        for (uint256 i = 0; i < _enabledDepositAsset.length; i++) {\n            address asset = _enabledDepositAsset[i];\n            require(_isAssetPresent(asset), \"Asset not supported by Yieldster\");\n            vaults[msg.sender].vaultAssets[asset] = true;\n            vaults[msg.sender].vaultDepositAssets[asset] = true;\n        }\n\n        for (uint256 i = 0; i < _enabledWithdrawalAsset.length; i++) {\n            address asset = _enabledWithdrawalAsset[i];\n            require(_isAssetPresent(asset), \"Asset not supported by Yieldster\");\n            vaults[msg.sender].vaultAssets[asset] = true;\n            vaults[msg.sender].vaultWithdrawalAssets[asset] = true;\n        }\n\n        for (uint256 i = 0; i < _disabledDepositAsset.length; i++) {\n            address asset = _disabledDepositAsset[i];\n            require(_isAssetPresent(asset), \"Asset not supported by Yieldster\");\n            vaults[msg.sender].vaultAssets[asset] = false;\n            vaults[msg.sender].vaultDepositAssets[asset] = false;\n        }\n\n        for (uint256 i = 0; i < _disabledWithdrawalAsset.length; i++) {\n            address asset = _disabledWithdrawalAsset[i];\n            require(_isAssetPresent(asset), \"Asset not supported by Yieldster\");\n            vaults[msg.sender].vaultAssets[asset] = false;\n            vaults[msg.sender].vaultWithdrawalAssets[asset] = false;\n        }\n    }\n\n    /// @dev Function to get the list of management fee strategies applied to the vault.\n    function getVaultManagementFee() public view returns (address[] memory) {\n        require(vaults[msg.sender].created, \"Vault not present\");\n        return managementFeeStrategies[msg.sender].activeManagementFeeList;\n    }\n\n    /// @dev Function to get the deposit strategy applied to the vault.\n    function getDepositStrategy() public view returns (address) {\n        require(vaults[msg.sender].created, \"Vault not present\");\n        return vaults[msg.sender].depositStrategy;\n    }\n\n    /// @dev Function to get the withdrawal strategy applied to the vault.\n    function getWithdrawStrategy() public view returns (address) {\n        require(vaults[msg.sender].created, \"Vault not present\");\n        return vaults[msg.sender].withdrawStrategy;\n    }\n\n    /// @dev Function to set the management fee strategies applied to a vault.\n    /// @param _vaultAddress Address of the vault.\n    /// @param _managementFeeAddress Address of the management fee strategy.\n    function setManagementFeeStrategies(\n        address _vaultAddress,\n        address _managementFeeAddress\n    ) public {\n        require(vaults[_vaultAddress].created, \"Vault not present\");\n        require(\n            vaults[_vaultAddress].vaultStrategyManager == msg.sender,\n            \"Sender not Authorized\"\n        );\n        managementFeeStrategies[_vaultAddress].isActiveManagementFee[\n            _managementFeeAddress\n        ] = true;\n        managementFeeStrategies[_vaultAddress].activeManagementFeeIndex[\n            _managementFeeAddress\n        ] = managementFeeStrategies[_vaultAddress]\n        .activeManagementFeeList\n        .length;\n        managementFeeStrategies[_vaultAddress].activeManagementFeeList.push(\n            _managementFeeAddress\n        );\n    }\n\n    /// @dev Function to deactivate a vault strategy.\n    /// @param _managementFeeAddress Address of the Management Fee Strategy.\n    function removeManagementFeeStrategies(\n        address _vaultAddress,\n        address _managementFeeAddress\n    ) public {\n        require(vaults[_vaultAddress].created, \"Vault not present\");\n        require(\n            managementFeeStrategies[_vaultAddress].isActiveManagementFee[\n                _managementFeeAddress\n            ],\n            \"Provided ManagementFee is not active\"\n        );\n        require(\n            vaults[_vaultAddress].vaultStrategyManager == msg.sender ||\n                yieldsterDAO == msg.sender,\n            \"Sender not Authorized\"\n        );\n        require(\n            platFormManagementFee != _managementFeeAddress ||\n                yieldsterDAO == msg.sender,\n            \"Platfrom Management only changable by dao!\"\n        );\n        managementFeeStrategies[_vaultAddress].isActiveManagementFee[\n            _managementFeeAddress\n        ] = false;\n\n        if (\n            managementFeeStrategies[_vaultAddress]\n            .activeManagementFeeList\n            .length == 1\n        ) {\n            managementFeeStrategies[_vaultAddress]\n                .activeManagementFeeList\n                .pop();\n        } else {\n            uint256 index = managementFeeStrategies[_vaultAddress]\n            .activeManagementFeeIndex[_managementFeeAddress];\n            uint256 lastIndex = managementFeeStrategies[_vaultAddress]\n            .activeManagementFeeList\n            .length - 1;\n            delete managementFeeStrategies[_vaultAddress]\n                .activeManagementFeeList[index];\n            managementFeeStrategies[_vaultAddress].activeManagementFeeIndex[\n                managementFeeStrategies[_vaultAddress].activeManagementFeeList[\n                    lastIndex\n                ]\n            ] = index;\n            managementFeeStrategies[_vaultAddress].activeManagementFeeList[\n                index\n            ] = managementFeeStrategies[_vaultAddress].activeManagementFeeList[\n                lastIndex\n            ];\n            managementFeeStrategies[_vaultAddress]\n                .activeManagementFeeList\n                .pop();\n        }\n    }\n\n    /// @dev Function to set vault active strategy.\n    /// @param _strategyAddress Address of the strategy.\n    function setVaultActiveStrategy(address _strategyAddress) public {\n        require(vaults[msg.sender].created, \"Vault not present\");\n        require(strategies[_strategyAddress].created, \"Strategy not present\");\n        require(\n            _isStrategyEnabled(msg.sender, _strategyAddress),\n            \"Strategy not enabled\"\n        );\n        vaultActiveStrategies[msg.sender].isActiveStrategy[\n            _strategyAddress\n        ] = true;\n        vaultActiveStrategies[msg.sender].activeStrategyIndex[\n            _strategyAddress\n        ] = vaultActiveStrategies[msg.sender].activeStrategyList.length;\n        vaultActiveStrategies[msg.sender].activeStrategyList.push(\n            _strategyAddress\n        );\n    }\n\n    /// @dev Function to deactivate a vault strategy.\n    /// @param _strategyAddress Address of the strategy.\n    function deactivateVaultStrategy(address _strategyAddress) public {\n        require(vaults[msg.sender].created, \"Vault not present\");\n        require(\n            vaultActiveStrategies[msg.sender].isActiveStrategy[\n                _strategyAddress\n            ],\n            \"Provided strategy is not active\"\n        );\n        vaultActiveStrategies[msg.sender].isActiveStrategy[\n            _strategyAddress\n        ] = false;\n\n        if (vaultActiveStrategies[msg.sender].activeStrategyList.length == 1) {\n            vaultActiveStrategies[msg.sender].activeStrategyList.pop();\n        } else {\n            uint256 index = vaultActiveStrategies[msg.sender]\n            .activeStrategyIndex[_strategyAddress];\n            uint256 lastIndex = vaultActiveStrategies[msg.sender]\n            .activeStrategyList\n            .length - 1;\n            delete vaultActiveStrategies[msg.sender].activeStrategyList[index];\n            vaultActiveStrategies[msg.sender].activeStrategyIndex[\n                vaultActiveStrategies[msg.sender].activeStrategyList[lastIndex]\n            ] = index;\n            vaultActiveStrategies[msg.sender].activeStrategyList[\n                index\n            ] = vaultActiveStrategies[msg.sender].activeStrategyList[lastIndex];\n            vaultActiveStrategies[msg.sender].activeStrategyList.pop();\n        }\n    }\n\n    /// @dev Function to get vault active strategy.\n    function getVaultActiveStrategy(address _vaultAddress)\n        public\n        view\n        returns (address[] memory)\n    {\n        require(vaults[_vaultAddress].created, \"Vault not present\");\n        return vaultActiveStrategies[_vaultAddress].activeStrategyList;\n    }\n\n    function isStrategyActive(address _vaultAddress, address _strategyAddress)\n        public\n        view\n        returns (bool)\n    {\n        return\n            vaultActiveStrategies[_vaultAddress].isActiveStrategy[\n                _strategyAddress\n            ];\n    }\n\n    function getStrategyManagementDetails(\n        address _vaultAddress,\n        address _strategyAddress\n    ) public view returns (address, uint256) {\n        require(vaults[_vaultAddress].created, \"Vault not present\");\n        require(strategies[_strategyAddress].created, \"Strategy not present\");\n        require(\n            vaultActiveStrategies[_vaultAddress].isActiveStrategy[\n                _strategyAddress\n            ],\n            \"Strategy not Active\"\n        );\n        return (\n            strategies[_strategyAddress].benefeciary,\n            strategies[_strategyAddress].managementFeePercentage\n        );\n    }\n\n    /// @dev Function to Manage the vault strategies.\n    /// @param _vaultStrategy Address of the strategy.\n    /// @param _enabledStrategyProtocols List of protocols that are enabled in the strategy.\n    /// @param _disabledStrategyProtocols List of protocols that are disabled in the strategy.\n    /// @param _assetsToBeEnabled List of assets that have to be enabled along with the strategy.\n    function setVaultStrategyAndProtocol(\n        address _vaultStrategy,\n        address[] memory _enabledStrategyProtocols,\n        address[] memory _disabledStrategyProtocols,\n        address[] memory _assetsToBeEnabled\n    ) public {\n        require(vaults[msg.sender].created, \"Vault not present\");\n        require(strategies[_vaultStrategy].created, \"Strategy not present\");\n        vaults[msg.sender].vaultEnabledStrategy[_vaultStrategy] = true;\n\n        for (uint256 i = 0; i < _enabledStrategyProtocols.length; i++) {\n            address protocol = _enabledStrategyProtocols[i];\n            require(\n                _isProtocolPresent(protocol),\n                \"Protocol not supported by Yieldster\"\n            );\n            vaultStrategyEnabledProtocols[msg.sender][_vaultStrategy][\n                protocol\n            ] = true;\n        }\n\n        for (uint256 i = 0; i < _disabledStrategyProtocols.length; i++) {\n            address protocol = _disabledStrategyProtocols[i];\n            require(\n                _isProtocolPresent(protocol),\n                \"Protocol not supported by Yieldster\"\n            );\n            vaultStrategyEnabledProtocols[msg.sender][_vaultStrategy][\n                protocol\n            ] = false;\n        }\n\n        for (uint256 i = 0; i < _assetsToBeEnabled.length; i++) {\n            address asset = _assetsToBeEnabled[i];\n            require(_isAssetPresent(asset), \"Asset not supported by Yieldster\");\n            vaults[msg.sender].vaultAssets[asset] = true;\n            vaults[msg.sender].vaultDepositAssets[asset] = true;\n            vaults[msg.sender].vaultWithdrawalAssets[asset] = true;\n        }\n    }\n\n    /// @dev Function to disable the vault strategies.\n    /// @param _strategyAddress Address of the strategy.\n    /// @param _assetsToBeDisabled List of assets that have to be disabled along with the strategy.\n    function disableVaultStrategy(\n        address _strategyAddress,\n        address[] memory _assetsToBeDisabled\n    ) public {\n        require(vaults[msg.sender].created, \"Vault not present\");\n        require(strategies[_strategyAddress].created, \"Strategy not present\");\n        require(\n            vaults[msg.sender].vaultEnabledStrategy[_strategyAddress],\n            \"Strategy was not enabled\"\n        );\n        vaults[msg.sender].vaultEnabledStrategy[_strategyAddress] = false;\n\n        for (uint256 i = 0; i < _assetsToBeDisabled.length; i++) {\n            address asset = _assetsToBeDisabled[i];\n            require(_isAssetPresent(asset), \"Asset not supported by Yieldster\");\n            vaults[msg.sender].vaultAssets[asset] = false;\n            vaults[msg.sender].vaultDepositAssets[asset] = false;\n            vaults[msg.sender].vaultWithdrawalAssets[asset] = false;\n        }\n    }\n\n    /// @dev Function to set smart strategy applied to the vault.\n    /// @param _smartStrategyAddress Address of the smart strategy.\n    /// @param _type type of smart strategy(deposit or withdraw).\n    function setVaultSmartStrategy(address _smartStrategyAddress, uint256 _type)\n        public\n    {\n        require(vaults[msg.sender].created, \"Vault not present\");\n        require(\n            _isSmartStrategyPresent(_smartStrategyAddress),\n            \"Smart Strategy not Supported by Yieldster\"\n        );\n        if (_type == 1) {\n            vaults[msg.sender].depositStrategy = _smartStrategyAddress;\n        } else if (_type == 2) {\n            vaults[msg.sender].withdrawStrategy = _smartStrategyAddress;\n        } else {\n            revert(\"Invalid type provided\");\n        }\n    }\n\n    /// @dev Function to check if a particular protocol is enabled in a strategy for a vault.\n    /// @param _vaultAddress Address of the vault.\n    /// @param _strategyAddress Address of the strategy.\n    /// @param _protocolAddress Address of the protocol to check.\n    function _isStrategyProtocolEnabled(\n        address _vaultAddress,\n        address _strategyAddress,\n        address _protocolAddress\n    ) public view returns (bool) {\n        if (\n            vaults[_vaultAddress].created &&\n            strategies[_strategyAddress].created &&\n            protocols[_protocolAddress].created &&\n            vaults[_vaultAddress].vaultEnabledStrategy[_strategyAddress] &&\n            vaultStrategyEnabledProtocols[_vaultAddress][_strategyAddress][\n                _protocolAddress\n            ]\n        ) {\n            return true;\n        } else {\n            return false;\n        }\n    }\n\n    /// @dev Function to check if a strategy is enabled for the vault.\n    /// @param _vaultAddress Address of the vault.\n    /// @param _strategyAddress Address of the strategy.\n    function _isStrategyEnabled(address _vaultAddress, address _strategyAddress)\n        public\n        view\n        returns (bool)\n    {\n        if (\n            vaults[_vaultAddress].created &&\n            strategies[_strategyAddress].created &&\n            vaults[_vaultAddress].vaultEnabledStrategy[_strategyAddress]\n        ) {\n            return true;\n        } else {\n            return false;\n        }\n    }\n\n    /// @dev Function to check if the asset is supported by the vault.\n    /// @param cleanUpAsset Address of the asset.\n    function _isVaultAsset(address cleanUpAsset) public view returns (bool) {\n        require(vaults[msg.sender].created, \"Vault is not present\");\n        return vaults[msg.sender].vaultAssets[cleanUpAsset];\n    }\n\n    // Assets\n    /// @dev Function to check if an asset is supported by Yieldster.\n    /// @param _address Address of the asset.\n    function _isAssetPresent(address _address) private view returns (bool) {\n        return assets[_address].created;\n    }\n\n    /// @dev Function to add an asset to the Yieldster.\n    /// @param _symbol Symbol of the asset.\n    /// @param _name Name of the asset.\n    /// @param _tokenAddress Address of the asset.\n    function addAsset(\n        string memory _symbol,\n        string memory _name,\n        address _tokenAddress\n    ) public onlyManager {\n        require(!_isAssetPresent(_tokenAddress), \"Asset already present!\");\n        Asset memory newAsset = Asset({\n            name: _name,\n            symbol: _symbol,\n            created: true\n        });\n        assets[_tokenAddress] = newAsset;\n    }\n\n    /// @dev Function to remove an asset from the Yieldster.\n    /// @param _tokenAddress Address of the asset.\n    function removeAsset(address _tokenAddress) public onlyManager {\n        require(_isAssetPresent(_tokenAddress), \"Asset not present!\");\n        delete assets[_tokenAddress];\n    }\n\n    /// @dev Function to check if an asset is supported deposit asset in the vault.\n    /// @param _assetAddress Address of the asset.\n    function isDepositAsset(address _assetAddress) public view returns (bool) {\n        require(vaults[msg.sender].created, \"Vault not present\");\n        return vaults[msg.sender].vaultDepositAssets[_assetAddress];\n    }\n\n    /// @dev Function to check if an asset is supported withdrawal asset in the vault.\n    /// @param _assetAddress Address of the asset.\n    function isWithdrawalAsset(address _assetAddress)\n        public\n        view\n        returns (bool)\n    {\n        require(vaults[msg.sender].created, \"Vault not present\");\n        return vaults[msg.sender].vaultWithdrawalAssets[_assetAddress];\n    }\n\n    //Strategies\n    /// @dev Function to check if a strategy is supported by Yieldster.\n    /// @param _address Address of the strategy.\n    function _isStrategyPresent(address _address) private view returns (bool) {\n        return strategies[_address].created;\n    }\n\n    /// @dev Function to add a strategy to Yieldster.\n    /// @param _strategyName Name of the strategy.\n    /// @param _strategyAddress Address of the strategy.\n    /// @param _strategyAddress List of protocols present in the strategy.\n    /// @param _minter Address of strategy minter.\n    /// @param _executor Address of strategy executor.\n    function addStrategy(\n        string memory _strategyName,\n        address _strategyAddress,\n        address[] memory _strategyProtocols,\n        address _minter,\n        address _executor,\n        address _benefeciary,\n        uint256 _managementFeePercentage\n    ) public onlyManager {\n        require(\n            !_isStrategyPresent(_strategyAddress),\n            \"Strategy already present!\"\n        );\n        Strategy memory newStrategy = Strategy({\n            strategyName: _strategyName,\n            created: true,\n            minter: _minter,\n            executor: _executor,\n            benefeciary: _benefeciary,\n            managementFeePercentage: _managementFeePercentage\n        });\n        strategies[_strategyAddress] = newStrategy;\n        minterStrategyMap[_minter] = _strategyAddress;\n\n        for (uint256 i = 0; i < _strategyProtocols.length; i++) {\n            address protocol = _strategyProtocols[i];\n            require(\n                _isProtocolPresent(protocol),\n                \"Protocol not supported by Yieldster\"\n            );\n            strategies[_strategyAddress].strategyProtocols[protocol] = true;\n        }\n    }\n\n    /// @dev Function to remove a strategy from Yieldster.\n    /// @param _strategyAddress Address of the strategy.\n    function removeStrategy(address _strategyAddress) public onlyManager {\n        require(_isStrategyPresent(_strategyAddress), \"Strategy not present!\");\n        delete strategies[_strategyAddress];\n    }\n\n    /// @dev Function to get strategy executor address.\n    /// @param _strategy Address of the strategy.\n    function strategyExecutor(address _strategy)\n        external\n        view\n        returns (address)\n    {\n        return strategies[_strategy].executor;\n    }\n\n    /// @dev Function to change executor of strategy.\n    /// @param _strategyAddress Address of the strategy.\n    /// @param _executor Address of the executor.\n    function changeStrategyExecutor(address _strategyAddress, address _executor)\n        public\n        onlyManager\n    {\n        require(_isStrategyPresent(_strategyAddress), \"Strategy not present!\");\n        strategies[_strategyAddress].executor = _executor;\n    }\n\n    //Smart Strategy\n    /// @dev Function to check if a smart strategy is supported by Yieldster.\n    /// @param _address Address of the smart strategy.\n    function _isSmartStrategyPresent(address _address)\n        private\n        view\n        returns (bool)\n    {\n        return smartStrategies[_address].created;\n    }\n\n    /// @dev Function to add a smart strategy to Yieldster.\n    /// @param _smartStrategyName Name of the smart strategy.\n    /// @param _smartStrategyAddress Address of the smart strategy.\n    function addSmartStrategy(\n        string memory _smartStrategyName,\n        address _smartStrategyAddress,\n        address _minter,\n        address _executor\n    ) public onlyManager {\n        require(\n            !_isSmartStrategyPresent(_smartStrategyAddress),\n            \"Smart Strategy already present!\"\n        );\n        SmartStrategy memory newSmartStrategy = SmartStrategy({\n            smartStrategyName: _smartStrategyName,\n            minter: _minter,\n            executor: _executor,\n            created: true\n        });\n        smartStrategies[_smartStrategyAddress] = newSmartStrategy;\n        minterStrategyMap[_minter] = _smartStrategyAddress;\n    }\n\n    /// @dev Function to remove a smart strategy from Yieldster.\n    /// @param _smartStrategyAddress Address of the smart strategy.\n    function removeSmartStrategy(address _smartStrategyAddress)\n        public\n        onlyManager\n    {\n        require(\n            !_isSmartStrategyPresent(_smartStrategyAddress),\n            \"Smart Strategy not present\"\n        );\n        delete smartStrategies[_smartStrategyAddress];\n    }\n\n    /// @dev Function to get ssmart strategy executor address.\n    /// @param _smartStrategy Address of the strategy.\n    function smartStrategyExecutor(address _smartStrategy)\n        external\n        view\n        returns (address)\n    {\n        return smartStrategies[_smartStrategy].executor;\n    }\n\n    /// @dev Function to change executor of smart strategy.\n    /// @param _smartStrategy Address of the smart strategy.\n    /// @param _executor Address of the executor.\n    function changeSmartStrategyExecutor(\n        address _smartStrategy,\n        address _executor\n    ) public onlyManager {\n        require(\n            _isSmartStrategyPresent(_smartStrategy),\n            \"Smart Strategy not present!\"\n        );\n        smartStrategies[_smartStrategy].executor = _executor;\n    }\n\n    // Protocols\n    /// @dev Function to check if a protocol is supported by Yieldster.\n    /// @param _address Address of the protocol.\n    function _isProtocolPresent(address _address) private view returns (bool) {\n        return protocols[_address].created;\n    }\n\n    /// @dev Function to add a protocol to Yieldster.\n    /// @param _symbol symbol of the protocol.\n    /// @param _name Name of the protocol.\n    /// @param _protocolAddress Address of the protocol.\n    function addProtocol(\n        string memory _symbol,\n        string memory _name,\n        address _protocolAddress\n    ) public onlyManager {\n        require(\n            !_isProtocolPresent(_protocolAddress),\n            \"Protocol already present!\"\n        );\n        Protocol memory newProtocol = Protocol({\n            name: _name,\n            created: true,\n            symbol: _symbol\n        });\n        protocols[_protocolAddress] = newProtocol;\n    }\n\n    /// @dev Function to remove a protocol from Yieldster.\n    /// @param _protocolAddress Address of the protocol.\n    function removeProtocol(address _protocolAddress) public onlyManager {\n        require(_isProtocolPresent(_protocolAddress), \"Protocol not present!\");\n        delete protocols[_protocolAddress];\n    }\n}\n",
  "sourcePath": "/home/dxuser/Documents/scode/yieldster-vault/contracts/aps/APContract.sol",
  "compiler": {
    "name": "solc",
    "version": "0.5.17+commit.d19bba13.Emscripten.clang"
  },
  "schemaVersion": "3.4.4",
  "updatedAt": "2022-02-14T06:05:12.468Z",
  "networkType": "ethereum",
  "devdoc": {
    "methods": {
      "_isStrategyEnabled(address,address)": {
        "details": "Function to check if a strategy is enabled for the vault.",
        "params": {
          "_strategyAddress": "Address of the strategy.",
          "_vaultAddress": "Address of the vault."
        }
      },
      "_isStrategyProtocolEnabled(address,address,address)": {
        "details": "Function to check if a particular protocol is enabled in a strategy for a vault.",
        "params": {
          "_protocolAddress": "Address of the protocol to check.",
          "_strategyAddress": "Address of the strategy.",
          "_vaultAddress": "Address of the vault."
        }
      },
      "_isVaultAsset(address)": {
        "details": "Function to check if the asset is supported by the vault.",
        "params": {
          "cleanUpAsset": "Address of the asset."
        }
      },
      "addAsset(string,string,address)": {
        "details": "Function to add an asset to the Yieldster.",
        "params": {
          "_name": "Name of the asset.",
          "_symbol": "Symbol of the asset.",
          "_tokenAddress": "Address of the asset."
        }
      },
      "addManager(address)": {
        "details": "Function to add APS manager to Yieldster.",
        "params": {
          "_manager": "Address of the manager."
        }
      },
      "addProtocol(string,string,address)": {
        "details": "Function to add a protocol to Yieldster.",
        "params": {
          "_name": "Name of the protocol.",
          "_protocolAddress": "Address of the protocol.",
          "_symbol": "symbol of the protocol."
        }
      },
      "addProxyFactory(address)": {
        "details": "Function to add proxy Factory address to Yieldster.",
        "params": {
          "_proxyFactory": "Address of proxy factory."
        }
      },
      "addSmartStrategy(string,address,address,address)": {
        "details": "Function to add a smart strategy to Yieldster.",
        "params": {
          "_smartStrategyAddress": "Address of the smart strategy.",
          "_smartStrategyName": "Name of the smart strategy."
        }
      },
      "addStrategy(string,address,address[],address,address,address,uint256)": {
        "details": "Function to add a strategy to Yieldster.",
        "params": {
          "_executor": "Address of strategy executor.",
          "_minter": "Address of strategy minter.",
          "_strategyAddress": "List of protocols present in the strategy.",
          "_strategyName": "Name of the strategy."
        }
      },
      "addVault(address,address,uint256[])": {
        "details": "Function to add a vault in the APS.",
        "params": {
          "_vaultAPSManager": "Address of the vaults APS Manager.",
          "_vaultStrategyManager": "Address of the vaults Strateg Manager.",
          "_whitelistGroup": "List of whitelist groups applied to the vault."
        }
      },
      "changeSmartStrategyExecutor(address,address)": {
        "details": "Function to change executor of smart strategy.",
        "params": {
          "_executor": "Address of the executor.",
          "_smartStrategy": "Address of the smart strategy."
        }
      },
      "changeStrategyExecutor(address,address)": {
        "details": "Function to change executor of strategy.",
        "params": {
          "_executor": "Address of the executor.",
          "_strategyAddress": "Address of the strategy."
        }
      },
      "changeVaultAPSManager(address)": {
        "details": "Function to change the APS Manager for a vault.",
        "params": {
          "_vaultAPSManager": "Address of the new APS Manager."
        }
      },
      "changeVaultStrategyManager(address)": {
        "details": "Function to change the Strategy Manager for a vault.",
        "params": {
          "_vaultStrategyManager": "Address of the new Strategy Manager."
        }
      },
      "changeWhitelistManager(address)": {
        "details": "Function to change whitelist Manager.",
        "params": {
          "_whitelistManager": "Address of the whitelist manager."
        }
      },
      "createVault(address)": {
        "details": "Function to create a vault.",
        "params": {
          "_vaultAddress": "Address of the new vault."
        }
      },
      "deactivateVaultStrategy(address)": {
        "details": "Function to deactivate a vault strategy.",
        "params": {
          "_strategyAddress": "Address of the strategy."
        }
      },
      "disableVaultStrategy(address,address[])": {
        "details": "Function to disable the vault strategies.",
        "params": {
          "_assetsToBeDisabled": "List of assets that have to be disabled along with the strategy.",
          "_strategyAddress": "Address of the strategy."
        }
      },
      "disableYieldsterGOD()": {
        "details": "Function to disable Yieldster GOD."
      },
      "getDepositStrategy()": {
        "details": "Function to get the deposit strategy applied to the vault."
      },
      "getStrategyFromMinter(address)": {
        "details": "Function to get strategy address from minter.",
        "params": {
          "_minter": "Address of the minter."
        }
      },
      "getUSDPrice(address)": {
        "details": "Function to get the USD price for a token.",
        "params": {
          "_tokenAddress": "Address of the token."
        }
      },
      "getVaultActiveStrategy(address)": {
        "details": "Function to get vault active strategy."
      },
      "getVaultManagementFee()": {
        "details": "Function to get the list of management fee strategies applied to the vault."
      },
      "getVaultSlippage()": {
        "details": "Function to get the Slippage Settings for a vault."
      },
      "getWithdrawStrategy()": {
        "details": "Function to get the withdrawal strategy applied to the vault."
      },
      "isDepositAsset(address)": {
        "details": "Function to check if an asset is supported deposit asset in the vault.",
        "params": {
          "_assetAddress": "Address of the asset."
        }
      },
      "isWithdrawalAsset(address)": {
        "details": "Function to check if an asset is supported withdrawal asset in the vault.",
        "params": {
          "_assetAddress": "Address of the asset."
        }
      },
      "removeAsset(address)": {
        "details": "Function to remove an asset from the Yieldster.",
        "params": {
          "_tokenAddress": "Address of the asset."
        }
      },
      "removeManagementFeeStrategies(address,address)": {
        "details": "Function to deactivate a vault strategy.",
        "params": {
          "_managementFeeAddress": "Address of the Management Fee Strategy."
        }
      },
      "removeManager(address)": {
        "details": "Function to remove APS manager from Yieldster.",
        "params": {
          "_manager": "Address of the manager."
        }
      },
      "removeProtocol(address)": {
        "details": "Function to remove a protocol from Yieldster.",
        "params": {
          "_protocolAddress": "Address of the protocol."
        }
      },
      "removeSmartStrategy(address)": {
        "details": "Function to remove a smart strategy from Yieldster.",
        "params": {
          "_smartStrategyAddress": "Address of the smart strategy."
        }
      },
      "removeStrategy(address)": {
        "details": "Function to remove a strategy from Yieldster.",
        "params": {
          "_strategyAddress": "Address of the strategy."
        }
      },
      "setEmergencyVault(address)": {
        "details": "Function to set Emergency vault.",
        "params": {
          "_emergencyVault": "Address of the Yieldster Emergency vault."
        }
      },
      "setExchangeRegistry(address)": {
        "details": "Function to set exchangeRegistry address.",
        "params": {
          "_exchangeRegistry": "Address of the exchangeRegistry."
        }
      },
      "setManagementFeeStrategies(address,address)": {
        "details": "Function to set the management fee strategies applied to a vault.",
        "params": {
          "_managementFeeAddress": "Address of the management fee strategy.",
          "_vaultAddress": "Address of the vault."
        }
      },
      "setPriceModule(address)": {
        "details": "Function to set Yieldster price module.",
        "params": {
          "_priceModule": "Address of the price module."
        }
      },
      "setSafeMinter(address)": {
        "details": "Function to set Safe Minter.",
        "params": {
          "_safeMinter": "Address of the Safe Minter."
        }
      },
      "setSafeUtils(address)": {
        "details": "Function to set safeUtils contract.",
        "params": {
          "_safeUtils": "Address of the safeUtils contract."
        }
      },
      "setStockDepositWithdraw(address,address)": {
        "details": "Function to set stock Deposit and Withdraw.",
        "params": {
          "_stockDeposit": "Address of the stock deposit contract.",
          "_stockWithdraw": "Address of the stock withdraw contract."
        }
      },
      "setVaultActiveStrategy(address)": {
        "details": "Function to set vault active strategy.",
        "params": {
          "_strategyAddress": "Address of the strategy."
        }
      },
      "setVaultAssets(address[],address[],address[],address[])": {
        "details": "Function to Manage the vault assets.",
        "params": {
          "_disabledDepositAsset": "List of deposit assets to be disabled in the vault.",
          "_disabledWithdrawalAsset": "List of withdrawal assets to be disabled in the vault.",
          "_enabledDepositAsset": "List of deposit assets to be enabled in the vault.",
          "_enabledWithdrawalAsset": "List of withdrawal assets to be enabled in the vault."
        }
      },
      "setVaultSlippage(uint256)": {
        "details": "Function to change the Slippage Settings for a vault.",
        "params": {
          "_slippage": "value of slippage."
        }
      },
      "setVaultSmartStrategy(address,uint256)": {
        "details": "Function to set smart strategy applied to the vault.",
        "params": {
          "_smartStrategyAddress": "Address of the smart strategy.",
          "_type": "type of smart strategy(deposit or withdraw)."
        }
      },
      "setVaultStrategyAndProtocol(address,address[],address[],address[])": {
        "details": "Function to Manage the vault strategies.",
        "params": {
          "_assetsToBeEnabled": "List of assets that have to be enabled along with the strategy.",
          "_disabledStrategyProtocols": "List of protocols that are disabled in the strategy.",
          "_enabledStrategyProtocols": "List of protocols that are enabled in the strategy.",
          "_vaultStrategy": "Address of the strategy."
        }
      },
      "setYieldsterDAO(address)": {
        "details": "Function to set Yieldster DAO.",
        "params": {
          "_yieldsterDAO": "Address of the Yieldster DAO."
        }
      },
      "setYieldsterExchange(address)": {
        "details": "Function to set Yieldster Exchange.",
        "params": {
          "_yieldsterExchange": "Address of the Yieldster exchange."
        }
      },
      "setYieldsterGOD(address)": {
        "details": "Function to set Yieldster GOD.",
        "params": {
          "_yieldsterGOD": "Address of the Yieldster GOD."
        }
      },
      "setYieldsterTreasury(address)": {
        "details": "Function to set Yieldster Treasury.",
        "params": {
          "_yieldsterTreasury": "Address of the Yieldster Treasury."
        }
      },
      "smartStrategyExecutor(address)": {
        "details": "Function to get ssmart strategy executor address.",
        "params": {
          "_smartStrategy": "Address of the strategy."
        }
      },
      "strategyExecutor(address)": {
        "details": "Function to get strategy executor address.",
        "params": {
          "_strategy": "Address of the strategy."
        }
      }
    }
  },
  "userdoc": {
    "methods": {}
  }
}