{
  "contractName": "ChainlinkService",
  "abi": [
    {
      "constant": true,
      "inputs": [
        {
          "internalType": "address",
          "name": "feedAddress",
          "type": "address"
        }
      ],
      "name": "getLatestPrice",
      "outputs": [
        {
          "internalType": "int256",
          "name": "",
          "type": "int256"
        },
        {
          "internalType": "uint256",
          "name": "",
          "type": "uint256"
        },
        {
          "internalType": "uint8",
          "name": "",
          "type": "uint8"
        }
      ],
      "payable": false,
      "stateMutability": "view",
      "type": "function"
    }
  ],
  "bytecode": "0x608060405234801561001057600080fd5b506101a8806100206000396000f3fe608060405234801561001057600080fd5b506004361061002b5760003560e01c806316345f1814610030575b600080fd5b6100566004803603602081101561004657600080fd5b50356001600160a01b0316610077565b60408051938452602084019290925260ff1682820152519081900360600190f35b600080600080849050600080826001600160a01b031663feaf968c6040518163ffffffff1660e01b815260040160a06040518083038186803b1580156100bc57600080fd5b505afa1580156100d0573d6000803e3d6000fd5b505050506040513d60a08110156100e657600080fd5b506020808201516060909201516040805163313ce56760e01b815290519395509093506000926001600160a01b0387169263313ce5679260048082019391829003018186803b15801561013857600080fd5b505afa15801561014c573d6000803e3d6000fd5b505050506040513d602081101561016257600080fd5b50519298919750919550935050505056fea265627a7a72315820bcef0e7ffd2b97b5d839516d0b1a45882da3972ee6bf9f53eadf2b61cf57029064736f6c63430005110032",
  "source": "pragma solidity >=0.5.0 <0.7.0;\nimport \"@chainlink/contracts/src/v0.5/interfaces/AggregatorV3Interface.sol\";\n\ncontract ChainlinkService {\n    function getLatestPrice(address feedAddress)\n        public\n        view\n        returns (\n            int256,\n            uint256,\n            uint8\n        )\n    {\n        AggregatorV3Interface priceFeed = AggregatorV3Interface(feedAddress);\n        (, int256 price, , uint256 timeStamp, ) = priceFeed.latestRoundData();\n        uint8 decimal = priceFeed.decimals();\n        return (price, timeStamp, decimal);\n    }\n}\n",
  "sourcePath": "/home/dxuser/Documents/scode/yieldster-vault/contracts/price/ChainlinkService.sol",
  "compiler": {
    "name": "solc",
    "version": "0.5.17+commit.d19bba13.Emscripten.clang"
  },
  "schemaVersion": "3.4.4",
  "updatedAt": "2022-02-01T11:12:09.302Z",
  "devdoc": {
    "methods": {}
  },
  "userdoc": {
    "methods": {}
  }
}