{
  "contractName": "ConvexCRVMinter",
  "abi": [
    {
      "inputs": [
        {
          "internalType": "address",
          "name": "_APContract",
          "type": "address"
        },
        {
          "internalType": "address",
          "name": "_strategyAddress",
          "type": "address"
        }
      ],
      "payable": false,
      "stateMutability": "nonpayable",
      "type": "constructor"
    },
    {
      "anonymous": false,
      "inputs": [
        {
          "indexed": true,
          "internalType": "address",
          "name": "account",
          "type": "address"
        },
        {
          "indexed": true,
          "internalType": "address",
          "name": "operator",
          "type": "address"
        },
        {
          "indexed": false,
          "internalType": "bool",
          "name": "approved",
          "type": "bool"
        }
      ],
      "name": "ApprovalForAll",
      "type": "event"
    },
    {
      "anonymous": false,
      "inputs": [
        {
          "indexed": true,
          "internalType": "address",
          "name": "operator",
          "type": "address"
        },
        {
          "indexed": true,
          "internalType": "address",
          "name": "from",
          "type": "address"
        },
        {
          "indexed": true,
          "internalType": "address",
          "name": "to",
          "type": "address"
        },
        {
          "indexed": false,
          "internalType": "uint256[]",
          "name": "ids",
          "type": "uint256[]"
        },
        {
          "indexed": false,
          "internalType": "uint256[]",
          "name": "values",
          "type": "uint256[]"
        }
      ],
      "name": "TransferBatch",
      "type": "event"
    },
    {
      "anonymous": false,
      "inputs": [
        {
          "indexed": true,
          "internalType": "address",
          "name": "operator",
          "type": "address"
        },
        {
          "indexed": true,
          "internalType": "address",
          "name": "from",
          "type": "address"
        },
        {
          "indexed": true,
          "internalType": "address",
          "name": "to",
          "type": "address"
        },
        {
          "indexed": false,
          "internalType": "uint256",
          "name": "id",
          "type": "uint256"
        },
        {
          "indexed": false,
          "internalType": "uint256",
          "name": "value",
          "type": "uint256"
        }
      ],
      "name": "TransferSingle",
      "type": "event"
    },
    {
      "anonymous": false,
      "inputs": [
        {
          "indexed": false,
          "internalType": "string",
          "name": "value",
          "type": "string"
        },
        {
          "indexed": true,
          "internalType": "uint256",
          "name": "id",
          "type": "uint256"
        }
      ],
      "name": "URI",
      "type": "event"
    },
    {
      "constant": true,
      "inputs": [],
      "name": "APContract",
      "outputs": [
        {
          "internalType": "address",
          "name": "",
          "type": "address"
        }
      ],
      "payable": false,
      "stateMutability": "view",
      "type": "function"
    },
    {
      "constant": true,
      "inputs": [
        {
          "internalType": "address",
          "name": "account",
          "type": "address"
        },
        {
          "internalType": "uint256",
          "name": "id",
          "type": "uint256"
        }
      ],
      "name": "balanceOf",
      "outputs": [
        {
          "internalType": "uint256",
          "name": "",
          "type": "uint256"
        }
      ],
      "payable": false,
      "stateMutability": "view",
      "type": "function"
    },
    {
      "constant": true,
      "inputs": [
        {
          "internalType": "address[]",
          "name": "accounts",
          "type": "address[]"
        },
        {
          "internalType": "uint256[]",
          "name": "ids",
          "type": "uint256[]"
        }
      ],
      "name": "balanceOfBatch",
      "outputs": [
        {
          "internalType": "uint256[]",
          "name": "",
          "type": "uint256[]"
        }
      ],
      "payable": false,
      "stateMutability": "view",
      "type": "function"
    },
    {
      "constant": true,
      "inputs": [
        {
          "internalType": "address",
          "name": "account",
          "type": "address"
        },
        {
          "internalType": "address",
          "name": "operator",
          "type": "address"
        }
      ],
      "name": "isApprovedForAll",
      "outputs": [
        {
          "internalType": "bool",
          "name": "",
          "type": "bool"
        }
      ],
      "payable": false,
      "stateMutability": "view",
      "type": "function"
    },
    {
      "constant": true,
      "inputs": [],
      "name": "owner",
      "outputs": [
        {
          "internalType": "address",
          "name": "",
          "type": "address"
        }
      ],
      "payable": false,
      "stateMutability": "view",
      "type": "function"
    },
    {
      "constant": false,
      "inputs": [
        {
          "internalType": "address",
          "name": "from",
          "type": "address"
        },
        {
          "internalType": "address",
          "name": "to",
          "type": "address"
        },
        {
          "internalType": "uint256[]",
          "name": "ids",
          "type": "uint256[]"
        },
        {
          "internalType": "uint256[]",
          "name": "amounts",
          "type": "uint256[]"
        },
        {
          "internalType": "bytes",
          "name": "data",
          "type": "bytes"
        }
      ],
      "name": "safeBatchTransferFrom",
      "outputs": [],
      "payable": false,
      "stateMutability": "nonpayable",
      "type": "function"
    },
    {
      "constant": false,
      "inputs": [
        {
          "internalType": "address",
          "name": "from",
          "type": "address"
        },
        {
          "internalType": "address",
          "name": "to",
          "type": "address"
        },
        {
          "internalType": "uint256",
          "name": "id",
          "type": "uint256"
        },
        {
          "internalType": "uint256",
          "name": "amount",
          "type": "uint256"
        },
        {
          "internalType": "bytes",
          "name": "data",
          "type": "bytes"
        }
      ],
      "name": "safeTransferFrom",
      "outputs": [],
      "payable": false,
      "stateMutability": "nonpayable",
      "type": "function"
    },
    {
      "constant": false,
      "inputs": [
        {
          "internalType": "address",
          "name": "operator",
          "type": "address"
        },
        {
          "internalType": "bool",
          "name": "approved",
          "type": "bool"
        }
      ],
      "name": "setApprovalForAll",
      "outputs": [],
      "payable": false,
      "stateMutability": "nonpayable",
      "type": "function"
    },
    {
      "constant": true,
      "inputs": [],
      "name": "strategy",
      "outputs": [
        {
          "internalType": "address",
          "name": "",
          "type": "address"
        }
      ],
      "payable": false,
      "stateMutability": "view",
      "type": "function"
    },
    {
      "constant": true,
      "inputs": [
        {
          "internalType": "bytes4",
          "name": "interfaceId",
          "type": "bytes4"
        }
      ],
      "name": "supportsInterface",
      "outputs": [
        {
          "internalType": "bool",
          "name": "",
          "type": "bool"
        }
      ],
      "payable": false,
      "stateMutability": "view",
      "type": "function"
    },
    {
      "constant": true,
      "inputs": [
        {
          "internalType": "uint256",
          "name": "",
          "type": "uint256"
        }
      ],
      "name": "uri",
      "outputs": [
        {
          "internalType": "string",
          "name": "",
          "type": "string"
        }
      ],
      "payable": false,
      "stateMutability": "view",
      "type": "function"
    },
    {
      "constant": false,
      "inputs": [
        {
          "internalType": "address",
          "name": "_APContract",
          "type": "address"
        }
      ],
      "name": "setAPContract",
      "outputs": [],
      "payable": false,
      "stateMutability": "nonpayable",
      "type": "function"
    },
    {
      "constant": false,
      "inputs": [
        {
          "internalType": "address",
          "name": "_strategyAddress",
          "type": "address"
        }
      ],
      "name": "setStrategyAddress",
      "outputs": [],
      "payable": false,
      "stateMutability": "nonpayable",
      "type": "function"
    },
    {
      "constant": false,
      "inputs": [
        {
          "internalType": "address",
          "name": "safeAddress",
          "type": "address"
        },
        {
          "internalType": "bytes",
          "name": "instruction",
          "type": "bytes"
        }
      ],
      "name": "mintStrategy",
      "outputs": [],
      "payable": false,
      "stateMutability": "nonpayable",
      "type": "function"
    },
    {
      "constant": false,
      "inputs": [
        {
          "internalType": "bytes",
          "name": "instruction",
          "type": "bytes"
        }
      ],
      "name": "executeStrategyInstruction",
      "outputs": [],
      "payable": false,
      "stateMutability": "nonpayable",
      "type": "function"
    },
    {
      "constant": false,
      "inputs": [
        {
          "internalType": "address",
          "name": "safeAddress",
          "type": "address"
        },
        {
          "internalType": "address[]",
          "name": "_assets",
          "type": "address[]"
        },
        {
          "internalType": "uint256[]",
          "name": "_amount",
          "type": "uint256[]"
        },
        {
          "internalType": "bytes",
          "name": "data",
          "type": "bytes"
        }
      ],
      "name": "earn",
      "outputs": [],
      "payable": false,
      "stateMutability": "nonpayable",
      "type": "function"
    }
  ],
  "bytecode": "0x60806040523480156200001157600080fd5b506040516200228d3803806200228d833981810160405260408110156200003757600080fd5b508051602091820151604080516060810190915260318082529293919290916200225c90830139620000927f01ffc9a7000000000000000000000000000000000000000000000000000000006001600160e01b036200015116565b620000a6816001600160e01b036200022016565b620000da7fd9b67a26000000000000000000000000000000000000000000000000000000006001600160e01b036200015116565b6200010e7f0e89341c000000000000000000000000000000000000000000000000000000006001600160e01b036200015116565b50600480546001600160a01b039384166001600160a01b0319918216179091556005805492909316918116919091179091556006805490911633179055620002de565b7fffffffff000000000000000000000000000000000000000000000000000000008082161415620001e357604080517f08c379a000000000000000000000000000000000000000000000000000000000815260206004820152601c60248201527f4552433136353a20696e76616c696420696e7465726661636520696400000000604482015290519081900360640190fd5b7fffffffff00000000000000000000000000000000000000000000000000000000166000908152602081905260409020805460ff19166001179055565b80516200023590600390602084019062000239565b5050565b828054600181600116156101000203166002900490600052602060002090601f016020900481019282601f106200027c57805160ff1916838001178555620002ac565b82800160010185558215620002ac579182015b82811115620002ac5782518255916020019190600101906200028f565b50620002ba929150620002be565b5090565b620002db91905b80821115620002ba5760008155600101620002c5565b90565b611f6e80620002ee6000396000f3fe608060405234801561001057600080fd5b50600436106100ff5760003560e01c80637f82e19711610097578063a22cb46511610066578063a22cb465146108cd578063a8c62e76146108fb578063e985e9c514610903578063f242432a14610931576100ff565b80637f82e1971461074757806387bd07e3146107fb5780638da5cb5b1461089f5780639a8eff90146108a7576100ff565b80632eb2c2d6116100d35780632eb2c2d614610237578063308bdf11146103f857806333846027146105b05780634e1273f4146105d4576100ff565b8062fdd58e1461010457806301ffc9a7146101425780630e89341c1461017d57806324cfba9f1461020f575b600080fd5b6101306004803603604081101561011a57600080fd5b506001600160a01b0381351690602001356109fa565b60408051918252519081900360200190f35b6101696004803603602081101561015857600080fd5b50356001600160e01b031916610a69565b604080519115158252519081900360200190f35b61019a6004803603602081101561019357600080fd5b5035610a88565b6040805160208082528351818301528351919283929083019185019080838360005b838110156101d45781810151838201526020016101bc565b50505050905090810190601f1680156102015780820380516001836020036101000a031916815260200191505b509250505060405180910390f35b6102356004803603602081101561022557600080fd5b50356001600160a01b0316610b20565b005b610235600480360360a081101561024d57600080fd5b6001600160a01b038235811692602081013590911691810190606081016040820135600160201b81111561028057600080fd5b82018360208201111561029257600080fd5b803590602001918460208302840111600160201b831117156102b357600080fd5b9190808060200260200160405190810160405280939291908181526020018383602002808284376000920191909152509295949360208101935035915050600160201b81111561030257600080fd5b82018360208201111561031457600080fd5b803590602001918460208302840111600160201b8311171561033557600080fd5b9190808060200260200160405190810160405280939291908181526020018383602002808284376000920191909152509295949360208101935035915050600160201b81111561038457600080fd5b82018360208201111561039657600080fd5b803590602001918460018302840111600160201b831117156103b757600080fd5b91908080601f016020809104026020016040519081016040528093929190818152602001838380828437600092019190915250929550610b9b945050505050565b6102356004803603608081101561040e57600080fd5b6001600160a01b038235169190810190604081016020820135600160201b81111561043857600080fd5b82018360208201111561044a57600080fd5b803590602001918460208302840111600160201b8311171561046b57600080fd5b9190808060200260200160405190810160405280939291908181526020018383602002808284376000920191909152509295949360208101935035915050600160201b8111156104ba57600080fd5b8201836020820111156104cc57600080fd5b803590602001918460208302840111600160201b831117156104ed57600080fd5b9190808060200260200160405190810160405280939291908181526020018383602002808284376000920191909152509295949360208101935035915050600160201b81111561053c57600080fd5b82018360208201111561054e57600080fd5b803590602001918460018302840111600160201b8311171561056f57600080fd5b91908080601f016020809104026020016040519081016040528093929190818152602001838380828437600092019190915250929550610e99945050505050565b6105b86110c6565b604080516001600160a01b039092168252519081900360200190f35b6106f7600480360360408110156105ea57600080fd5b810190602081018135600160201b81111561060457600080fd5b82018360208201111561061657600080fd5b803590602001918460208302840111600160201b8311171561063757600080fd5b9190808060200260200160405190810160405280939291908181526020018383602002808284376000920191909152509295949360208101935035915050600160201b81111561068657600080fd5b82018360208201111561069857600080fd5b803590602001918460208302840111600160201b831117156106b957600080fd5b9190808060200260200160405190810160405280939291908181526020018383602002808284376000920191909152509295506110d5945050505050565b60408051602080825283518183015283519192839290830191858101910280838360005b8381101561073357818101518382015260200161071b565b505050509050019250505060405180910390f35b6102356004803603604081101561075d57600080fd5b6001600160a01b038235169190810190604081016020820135600160201b81111561078757600080fd5b82018360208201111561079957600080fd5b803590602001918460018302840111600160201b831117156107ba57600080fd5b91908080601f0160208091040260200160405190810160405280939291908181526020018383808284376000920191909152509295506111aa945050505050565b6102356004803603602081101561081157600080fd5b810190602081018135600160201b81111561082b57600080fd5b82018360208201111561083d57600080fd5b803590602001918460018302840111600160201b8311171561085e57600080fd5b91908080601f01602080910402602001604051908101604052809392919081815260200183838082843760009201919091525092955061129e945050505050565b6105b861143a565b610235600480360360208110156108bd57600080fd5b50356001600160a01b0316611449565b610235600480360360408110156108e357600080fd5b506001600160a01b03813516906020013515156114c4565b6105b86115b3565b6101696004803603604081101561091957600080fd5b506001600160a01b03813581169160200135166115c2565b610235600480360360a081101561094757600080fd5b6001600160a01b03823581169260208101359091169160408201359160608101359181019060a081016080820135600160201b81111561098657600080fd5b82018360208201111561099857600080fd5b803590602001918460018302840111600160201b831117156109b957600080fd5b91908080601f0160208091040260200160405190810160405280939291908181526020018383808284376000920191909152509295506115f0945050505050565b60006001600160a01b038316610a415760405162461bcd60e51b815260040180806020018281038252602b815260200180611dca602b913960400191505060405180910390fd5b5060009081526001602090815260408083206001600160a01b03949094168352929052205490565b6001600160e01b03191660009081526020819052604090205460ff1690565b60038054604080516020601f6002600019610100600188161502019095169490940493840181900481028201810190925282815260609390929091830182828015610b145780601f10610ae957610100808354040283529160200191610b14565b820191906000526020600020905b815481529060010190602001808311610af757829003601f168201915b50505050509050919050565b6006546001600160a01b03163314610b79576040805162461bcd60e51b815260206004820152601760248201527627b7363c903832b936b4ba3a32b2103a379037bbb732b960491b604482015290519081900360640190fd5b600580546001600160a01b0319166001600160a01b0392909216919091179055565b8151835114610bdb5760405162461bcd60e51b8152600401808060200182810382526028815260200180611ef16028913960400191505060405180910390fd5b6001600160a01b038416610c205760405162461bcd60e51b8152600401808060200182810382526025815260200180611e1e6025913960400191505060405180910390fd5b610c286117c1565b6001600160a01b0316856001600160a01b03161480610c535750610c5385610c4e6117c1565b6115c2565b610c8e5760405162461bcd60e51b8152600401808060200182810382526032815260200180611e436032913960400191505060405180910390fd5b6000610c986117c1565b9050610ca8818787878787610e91565b60005b8451811015610da9576000858281518110610cc257fe5b602002602001015190506000858381518110610cda57fe5b60200260200101519050610d47816040518060600160405280602a8152602001611e75602a91396001600086815260200190815260200160002060008d6001600160a01b03166001600160a01b03168152602001908152602001600020546117c59092919063ffffffff16565b60008381526001602090815260408083206001600160a01b038e811685529252808320939093558a1681522054610d7e908261185c565b60009283526001602081815260408086206001600160a01b038d168752909152909320555001610cab565b50846001600160a01b0316866001600160a01b0316826001600160a01b03167f4a39dc06d4c0dbc64b70af90fd698a233a518aa5d07e595d983b8c0526c8f7fb8787604051808060200180602001838103835285818151815260200191508051906020019060200280838360005b83811015610e2f578181015183820152602001610e17565b50505050905001838103825284818151815260200191508051906020019060200280838360005b83811015610e6e578181015183820152602001610e56565b5050505090500194505050505060405180910390a4610e918187878787876118bd565b505050505050565b6004805460055460408051635e1613a160e11b81526001600160a01b0392831694810194909452513393929091169163bc2c2742916024808301926020929190829003018186803b158015610eed57600080fd5b505afa158015610f01573d6000803e3d6000fd5b505050506040513d6020811015610f1757600080fd5b50516001600160a01b031614610f74576040805162461bcd60e51b815260206004820181905260248201527f4f6e6c79205969656c6473746572205374726174656779204578656375746f72604482015290519081900360640190fd5b836001600160a01b03166351eaa9b48484846040518463ffffffff1660e01b815260040180806020018060200180602001848103845287818151815260200191508051906020019060200280838360005b83811015610fdd578181015183820152602001610fc5565b50505050905001848103835286818151815260200191508051906020019060200280838360005b8381101561101c578181015183820152602001611004565b50505050905001848103825285818151815260200191508051906020019080838360005b83811015611058578181015183820152602001611040565b50505050905090810190601f1680156110855780820380516001836020036101000a031916815260200191505b509650505050505050600060405180830381600087803b1580156110a857600080fd5b505af11580156110bc573d6000803e3d6000fd5b5050505050505050565b6004546001600160a01b031681565b606081518351146111175760405162461bcd60e51b8152600401808060200182810382526029815260200180611ec86029913960400191505060405180910390fd5b60608351604051908082528060200260200182016040528015611144578160200160208202803883390190505b50905060005b84518110156111a25761118385828151811061116257fe5b602002602001015185838151811061117657fe5b60200260200101516109fa565b82828151811061118f57fe5b602090810291909101015260010161114a565b509392505050565b6004805460055460408051635e1613a160e11b81526001600160a01b0392831694810194909452513393929091169163bc2c2742916024808301926020929190829003018186803b1580156111fe57600080fd5b505afa158015611212573d6000803e3d6000fd5b505050506040513d602081101561122857600080fd5b50516001600160a01b031614611285576040805162461bcd60e51b815260206004820181905260248201527f4f6e6c79205969656c6473746572205374726174656779204578656375746f72604482015290519081900360640190fd5b61129a826001670de0b6b3a764000084611ac4565b5050565b6004805460055460408051635e1613a160e11b81526001600160a01b0392831694810194909452513393929091169163bc2c2742916024808301926020929190829003018186803b1580156112f257600080fd5b505afa158015611306573d6000803e3d6000fd5b505050506040513d602081101561131c57600080fd5b50516001600160a01b031614611379576040805162461bcd60e51b815260206004820181905260248201527f4f6e6c79205969656c6473746572205374726174656779204578656375746f72604482015290519081900360640190fd5b60055460405182516000926060926001600160a01b0390911691859190819060208401908083835b602083106113c05780518252601f1990920191602091820191016113a1565b6001836020036101000a0380198251168184511680821785525050505050509050019150506000604051808303816000865af19150503d8060008114611422576040519150601f19603f3d011682016040523d82523d6000602084013e611427565b606091505b509150915061143582611bd2565b505050565b6006546001600160a01b031681565b6006546001600160a01b031633146114a2576040805162461bcd60e51b815260206004820152601760248201527627b7363c903832b936b4ba3a32b2103a379037bbb732b960491b604482015290519081900360640190fd5b600480546001600160a01b0319166001600160a01b0392909216919091179055565b816001600160a01b03166114d66117c1565b6001600160a01b0316141561151c5760405162461bcd60e51b8152600401808060200182810382526029815260200180611e9f6029913960400191505060405180910390fd5b80600260006115296117c1565b6001600160a01b03908116825260208083019390935260409182016000908120918716808252919093529120805460ff19169215159290921790915561156d6117c1565b60408051841515815290516001600160a01b0392909216917f17307eab39ab6107e8899845ad3d59bd9653f200f220920489ca2b5937696c319181900360200190a35050565b6005546001600160a01b031681565b6001600160a01b03918216600090815260026020908152604080832093909416825291909152205460ff1690565b6001600160a01b0384166116355760405162461bcd60e51b8152600401808060200182810382526025815260200180611e1e6025913960400191505060405180910390fd5b61163d6117c1565b6001600160a01b0316856001600160a01b03161480611663575061166385610c4e6117c1565b61169e5760405162461bcd60e51b8152600401808060200182810382526029815260200180611df56029913960400191505060405180910390fd5b60006116a86117c1565b90506116c88187876116b988611be7565b6116c288611be7565b87610e91565b611715836040518060600160405280602a8152602001611e75602a913960008781526001602090815260408083206001600160a01b038d168452909152902054919063ffffffff6117c516565b60008581526001602090815260408083206001600160a01b038b8116855292528083209390935587168152205461174c908461185c565b60008581526001602090815260408083206001600160a01b03808b168086529184529382902094909455805188815291820187905280518a8416938616927fc3d58168c5ae7397731d063d5bbf3d657854427343f4c083240f7aacaa2d0f6292908290030190a4610e91818787878787611c2b565b3390565b600081848411156118545760405162461bcd60e51b81526004018080602001828103825283818151815260200191508051906020019080838360005b83811015611819578181015183820152602001611801565b50505050905090810190601f1680156118465780820380516001836020036101000a031916815260200191505b509250505060405180910390fd5b505050900390565b6000828201838110156118b6576040805162461bcd60e51b815260206004820152601b60248201527f536166654d6174683a206164646974696f6e206f766572666c6f770000000000604482015290519081900360640190fd5b9392505050565b6118cf846001600160a01b0316611d65565b15610e91576000846001600160a01b031663bc197c8188888787876040518663ffffffff1660e01b815260040180866001600160a01b03166001600160a01b03168152602001856001600160a01b03166001600160a01b03168152602001806020018060200180602001848103845287818151815260200191508051906020019060200280838360005b83811015611971578181015183820152602001611959565b50505050905001848103835286818151815260200191508051906020019060200280838360005b838110156119b0578181015183820152602001611998565b50505050905001848103825285818151815260200191508051906020019080838360005b838110156119ec5781810151838201526020016119d4565b50505050905090810190601f168015611a195780820380516001836020036101000a031916815260200191505b5098505050505050505050602060405180830381600087803b158015611a3e57600080fd5b505af1158015611a52573d6000803e3d6000fd5b505050506040513d6020811015611a6857600080fd5b505190506001600160e01b0319811663bc197c8160e01b14611abb5760405162461bcd60e51b8152600401808060200182810382526028815260200180611da26028913960400191505060405180910390fd5b50505050505050565b6001600160a01b038416611b095760405162461bcd60e51b8152600401808060200182810382526021815260200180611f196021913960400191505060405180910390fd5b6000611b136117c1565b9050611b25816000876116b988611be7565b60008481526001602090815260408083206001600160a01b0389168452909152902054611b58908463ffffffff61185c16565b60008581526001602090815260408083206001600160a01b03808b16808652918452828520959095558151898152928301889052815190948616927fc3d58168c5ae7397731d063d5bbf3d657854427343f4c083240f7aacaa2d0f6292908290030190a4611bcb81600087878787611c2b565b5050505050565b80611be4576040513d806000833e8082fd5b50565b604080516001808252818301909252606091829190602080830190803883390190505090508281600081518110611c1a57fe5b602090810291909101015292915050565b611c3d846001600160a01b0316611d65565b15610e91576000846001600160a01b031663f23a6e6188888787876040518663ffffffff1660e01b815260040180866001600160a01b03166001600160a01b03168152602001856001600160a01b03166001600160a01b0316815260200184815260200183815260200180602001828103825283818151815260200191508051906020019080838360005b83811015611ce0578181015183820152602001611cc8565b50505050905090810190601f168015611d0d5780820380516001836020036101000a031916815260200191505b509650505050505050602060405180830381600087803b158015611d3057600080fd5b505af1158015611d44573d6000803e3d6000fd5b505050506040513d6020811015611d5a57600080fd5b505050505050505050565b6000813f7fc5d2460186f7233c927e7db2dcc703c0e500b653ca82273b7bfad8045d85a470818114801590611d9957508115155b94935050505056fe455243313135353a204552433131353552656365697665722072656a656374656420746f6b656e73455243313135353a2062616c616e636520717565727920666f7220746865207a65726f2061646472657373455243313135353a2063616c6c6572206973206e6f74206f776e6572206e6f7220617070726f766564455243313135353a207472616e7366657220746f20746865207a65726f2061646472657373455243313135353a207472616e736665722063616c6c6572206973206e6f74206f776e6572206e6f7220617070726f766564455243313135353a20696e73756666696369656e742062616c616e636520666f72207472616e73666572455243313135353a2073657474696e6720617070726f76616c2073746174757320666f722073656c66455243313135353a206163636f756e747320616e6420696473206c656e677468206d69736d61746368455243313135353a2069647320616e6420616d6f756e7473206c656e677468206d69736d61746368455243313135353a206d696e7420746f20746865207a65726f2061646472657373a265627a7a723158208cf24d59b1b13dd83580c531ee51d6f3d87ca61404bd3a76d8832c7cf6ae970b64736f6c6343000511003268747470733a2f2f7969656c64737465722e66696e616e63652f73747261746567792f6d6574612f7b69647d2e6a736f6e",
  "source": "// SPDX-License-Identifier: MIT\npragma solidity ^0.5.0;\nimport \"../../token/ERC1155/ERC1155.sol\";\nimport \"../../interfaces/IAPContract.sol\";\nimport \"../../interfaces/IYieldsterVault.sol\";\n\ncontract ConvexCRVMinter is ERC1155 {\n    address public APContract;\n    address public strategy;\n    address public owner;\n\n    constructor(address _APContract, address _strategyAddress)\n    public\n        ERC1155(\"https://yieldster.finance/strategy/meta/{id}.json\")\n    {\n        APContract = _APContract;\n        strategy = _strategyAddress;\n        owner = msg.sender;\n    }\n\n    modifier onlyOwner() {\n        require(msg.sender == owner, \"Only permitted to owner\");\n        _;\n    }\n\n    function setAPContract(address _APContract) public onlyOwner {\n        APContract = _APContract;\n    }\n\n    function setStrategyAddress(address _strategyAddress) public onlyOwner {\n        strategy = _strategyAddress;\n    }\n\n    /// @dev Function to revert in case of delegatecall fail.\n    function revertDelegate(bool delegateStatus) internal pure {\n        if (delegateStatus == false) {\n            assembly {\n                let ptr := mload(0x40)\n                let size := returndatasize()\n                returndatacopy(ptr, 0, size)\n                revert(ptr, size)\n            }\n        }\n    }\n\n    function mintStrategy(address safeAddress, bytes memory instruction)\n        public\n    {\n        require(\n            IAPContract(APContract).strategyExecutor(strategy) == msg.sender,\n            \"Only Yieldster Strategy Executor\"\n        );\n        _mint(safeAddress, 1, 10**18, instruction);\n    }\n\n    function executeStrategyInstruction(bytes memory instruction) public {\n        require(\n            IAPContract(APContract).strategyExecutor(strategy) == msg.sender,\n            \"Only Yieldster Strategy Executor\"\n        );\n\n        (bool success, bytes memory returnData) = strategy.call(instruction);\n        revertDelegate(success);\n    }\n\n    function earn(\n        address safeAddress,\n        address[] memory _assets,\n        uint256[] memory _amount,\n        bytes memory data\n    ) public {\n        require(\n            IAPContract(APContract).strategyExecutor(strategy) == msg.sender,\n            \"Only Yieldster Strategy Executor\"\n        );\n        //revert(\"at line 76\");\n        IYieldsterVault(safeAddress).earn(_assets, _amount, data);\n    }\n}\n",
  "sourcePath": "/home/dxuser/Documents/scode/yieldster-vault/contracts/strategies/ConvexSingleAsset/ConvexCRVMinter.sol",
  "compiler": {
    "name": "solc",
    "version": "0.5.17+commit.d19bba13.Emscripten.clang"
  },
  "schemaVersion": "3.4.4",
  "updatedAt": "2022-02-04T04:48:40.402Z",
  "networkType": "ethereum",
  "devdoc": {
    "methods": {
      "balanceOf(address,uint256)": {
        "details": "See {IERC1155-balanceOf}.     * Requirements:     * - `account` cannot be the zero address."
      },
      "balanceOfBatch(address[],uint256[])": {
        "details": "See {IERC1155-balanceOfBatch}.     * Requirements:     * - `accounts` and `ids` must have the same length."
      },
      "isApprovedForAll(address,address)": {
        "details": "See {IERC1155-isApprovedForAll}."
      },
      "safeBatchTransferFrom(address,address,uint256[],uint256[],bytes)": {
        "details": "See {IERC1155-safeBatchTransferFrom}."
      },
      "safeTransferFrom(address,address,uint256,uint256,bytes)": {
        "details": "See {IERC1155-safeTransferFrom}."
      },
      "setApprovalForAll(address,bool)": {
        "details": "See {IERC1155-setApprovalForAll}."
      },
      "supportsInterface(bytes4)": {
        "details": "See {IERC165-supportsInterface}.     * Time complexity O(1), guaranteed to always use less than 30 000 gas."
      },
      "uri(uint256)": {
        "details": "See {IERC1155MetadataURI-uri}.     * This implementation returns the same URI for *all* token types. It relies on the token type ID substitution mechanism https://eips.ethereum.org/EIPS/eip-1155#metadata[defined in the EIP].     * Clients calling this function must replace the `\\{id\\}` substring with the actual token type ID."
      }
    }
  },
  "userdoc": {
    "methods": {}
  }
}