{
  "contractName": "ConvexCRV",
  "abi": [
    {
      "inputs": [
        {
          "internalType": "string",
          "name": "_name",
          "type": "string"
        },
        {
          "internalType": "string",
          "name": "_symbol",
          "type": "string"
        },
        {
          "internalType": "address",
          "name": "_APContract",
          "type": "address"
        },
        {
          "internalType": "uint256",
          "name": "_poolInfoID",
          "type": "uint256"
        },
        {
          "internalType": "address",
          "name": "_baseToken",
          "type": "address"
        }
      ],
      "payable": false,
      "stateMutability": "nonpayable",
      "type": "constructor"
    },
    {
      "anonymous": false,
      "inputs": [
        {
          "indexed": true,
          "internalType": "address",
          "name": "owner",
          "type": "address"
        },
        {
          "indexed": true,
          "internalType": "address",
          "name": "spender",
          "type": "address"
        },
        {
          "indexed": false,
          "internalType": "uint256",
          "name": "value",
          "type": "uint256"
        }
      ],
      "name": "Approval",
      "type": "event"
    },
    {
      "anonymous": false,
      "inputs": [
        {
          "indexed": true,
          "internalType": "address",
          "name": "from",
          "type": "address"
        },
        {
          "indexed": true,
          "internalType": "address",
          "name": "to",
          "type": "address"
        },
        {
          "indexed": false,
          "internalType": "uint256",
          "name": "value",
          "type": "uint256"
        }
      ],
      "name": "Transfer",
      "type": "event"
    },
    {
      "constant": true,
      "inputs": [
        {
          "internalType": "address",
          "name": "owner",
          "type": "address"
        },
        {
          "internalType": "address",
          "name": "spender",
          "type": "address"
        }
      ],
      "name": "allowance",
      "outputs": [
        {
          "internalType": "uint256",
          "name": "",
          "type": "uint256"
        }
      ],
      "payable": false,
      "stateMutability": "view",
      "type": "function"
    },
    {
      "constant": false,
      "inputs": [
        {
          "internalType": "address",
          "name": "spender",
          "type": "address"
        },
        {
          "internalType": "uint256",
          "name": "amount",
          "type": "uint256"
        }
      ],
      "name": "approve",
      "outputs": [
        {
          "internalType": "bool",
          "name": "",
          "type": "bool"
        }
      ],
      "payable": false,
      "stateMutability": "nonpayable",
      "type": "function"
    },
    {
      "constant": true,
      "inputs": [
        {
          "internalType": "address",
          "name": "account",
          "type": "address"
        }
      ],
      "name": "balanceOf",
      "outputs": [
        {
          "internalType": "uint256",
          "name": "",
          "type": "uint256"
        }
      ],
      "payable": false,
      "stateMutability": "view",
      "type": "function"
    },
    {
      "constant": true,
      "inputs": [],
      "name": "decimals",
      "outputs": [
        {
          "internalType": "uint8",
          "name": "",
          "type": "uint8"
        }
      ],
      "payable": false,
      "stateMutability": "view",
      "type": "function"
    },
    {
      "constant": false,
      "inputs": [
        {
          "internalType": "address",
          "name": "spender",
          "type": "address"
        },
        {
          "internalType": "uint256",
          "name": "subtractedValue",
          "type": "uint256"
        }
      ],
      "name": "decreaseAllowance",
      "outputs": [
        {
          "internalType": "bool",
          "name": "",
          "type": "bool"
        }
      ],
      "payable": false,
      "stateMutability": "nonpayable",
      "type": "function"
    },
    {
      "constant": false,
      "inputs": [
        {
          "internalType": "address",
          "name": "spender",
          "type": "address"
        },
        {
          "internalType": "uint256",
          "name": "addedValue",
          "type": "uint256"
        }
      ],
      "name": "increaseAllowance",
      "outputs": [
        {
          "internalType": "bool",
          "name": "",
          "type": "bool"
        }
      ],
      "payable": false,
      "stateMutability": "nonpayable",
      "type": "function"
    },
    {
      "constant": true,
      "inputs": [],
      "name": "name",
      "outputs": [
        {
          "internalType": "string",
          "name": "",
          "type": "string"
        }
      ],
      "payable": false,
      "stateMutability": "view",
      "type": "function"
    },
    {
      "constant": true,
      "inputs": [],
      "name": "poolInfoID",
      "outputs": [
        {
          "internalType": "uint256",
          "name": "",
          "type": "uint256"
        }
      ],
      "payable": false,
      "stateMutability": "view",
      "type": "function"
    },
    {
      "constant": true,
      "inputs": [],
      "name": "priceModule",
      "outputs": [
        {
          "internalType": "address",
          "name": "",
          "type": "address"
        }
      ],
      "payable": false,
      "stateMutability": "view",
      "type": "function"
    },
    {
      "constant": true,
      "inputs": [],
      "name": "protocolBalance",
      "outputs": [
        {
          "internalType": "uint256",
          "name": "",
          "type": "uint256"
        }
      ],
      "payable": false,
      "stateMutability": "view",
      "type": "function"
    },
    {
      "constant": true,
      "inputs": [],
      "name": "symbol",
      "outputs": [
        {
          "internalType": "string",
          "name": "",
          "type": "string"
        }
      ],
      "payable": false,
      "stateMutability": "view",
      "type": "function"
    },
    {
      "constant": true,
      "inputs": [],
      "name": "totalSupply",
      "outputs": [
        {
          "internalType": "uint256",
          "name": "",
          "type": "uint256"
        }
      ],
      "payable": false,
      "stateMutability": "view",
      "type": "function"
    },
    {
      "constant": false,
      "inputs": [
        {
          "internalType": "address",
          "name": "recipient",
          "type": "address"
        },
        {
          "internalType": "uint256",
          "name": "amount",
          "type": "uint256"
        }
      ],
      "name": "transfer",
      "outputs": [
        {
          "internalType": "bool",
          "name": "",
          "type": "bool"
        }
      ],
      "payable": false,
      "stateMutability": "nonpayable",
      "type": "function"
    },
    {
      "constant": false,
      "inputs": [
        {
          "internalType": "address",
          "name": "sender",
          "type": "address"
        },
        {
          "internalType": "address",
          "name": "recipient",
          "type": "address"
        },
        {
          "internalType": "uint256",
          "name": "amount",
          "type": "uint256"
        }
      ],
      "name": "transferFrom",
      "outputs": [
        {
          "internalType": "bool",
          "name": "",
          "type": "bool"
        }
      ],
      "payable": false,
      "stateMutability": "nonpayable",
      "type": "function"
    },
    {
      "constant": false,
      "inputs": [],
      "name": "registerSafe",
      "outputs": [],
      "payable": false,
      "stateMutability": "nonpayable",
      "type": "function"
    },
    {
      "constant": false,
      "inputs": [],
      "name": "deRegisterSafe",
      "outputs": [],
      "payable": false,
      "stateMutability": "nonpayable",
      "type": "function"
    },
    {
      "constant": false,
      "inputs": [
        {
          "internalType": "uint256",
          "name": "_slippageSwap",
          "type": "uint256"
        }
      ],
      "name": "setSlippageSwap",
      "outputs": [],
      "payable": false,
      "stateMutability": "nonpayable",
      "type": "function"
    },
    {
      "constant": false,
      "inputs": [
        {
          "internalType": "uint256",
          "name": "_slippage",
          "type": "uint256"
        }
      ],
      "name": "setSlippage",
      "outputs": [],
      "payable": false,
      "stateMutability": "nonpayable",
      "type": "function"
    },
    {
      "constant": false,
      "inputs": [
        {
          "internalType": "address",
          "name": "_APContract",
          "type": "address"
        }
      ],
      "name": "setAPContract",
      "outputs": [],
      "payable": false,
      "stateMutability": "nonpayable",
      "type": "function"
    },
    {
      "constant": false,
      "inputs": [
        {
          "internalType": "address",
          "name": "_convexDeposit",
          "type": "address"
        }
      ],
      "name": "setConvexDeposit",
      "outputs": [],
      "payable": false,
      "stateMutability": "nonpayable",
      "type": "function"
    },
    {
      "constant": false,
      "inputs": [
        {
          "internalType": "uint256",
          "name": "_poolInfoID",
          "type": "uint256"
        },
        {
          "internalType": "address",
          "name": "_baseToken",
          "type": "address"
        }
      ],
      "name": "setProtocol",
      "outputs": [],
      "payable": false,
      "stateMutability": "nonpayable",
      "type": "function"
    },
    {
      "constant": false,
      "inputs": [
        {
          "internalType": "address",
          "name": "_depositContractAddress",
          "type": "address"
        }
      ],
      "name": "changeDepositContract",
      "outputs": [],
      "payable": false,
      "stateMutability": "nonpayable",
      "type": "function"
    },
    {
      "constant": false,
      "inputs": [
        {
          "internalType": "address[]",
          "name": "_depositAssets",
          "type": "address[]"
        },
        {
          "internalType": "uint256[]",
          "name": "_amounts",
          "type": "uint256[]"
        },
        {
          "internalType": "bytes",
          "name": "data",
          "type": "bytes"
        }
      ],
      "name": "deposit",
      "outputs": [],
      "payable": false,
      "stateMutability": "nonpayable",
      "type": "function"
    },
    {
      "constant": true,
      "inputs": [],
      "name": "getStrategyNAV",
      "outputs": [
        {
          "internalType": "uint256",
          "name": "",
          "type": "uint256"
        }
      ],
      "payable": false,
      "stateMutability": "view",
      "type": "function"
    },
    {
      "constant": true,
      "inputs": [
        {
          "internalType": "address",
          "name": "_tokenAddress",
          "type": "address"
        },
        {
          "internalType": "uint256",
          "name": "_amount",
          "type": "uint256"
        }
      ],
      "name": "getDepositNAV",
      "outputs": [
        {
          "internalType": "uint256",
          "name": "",
          "type": "uint256"
        }
      ],
      "payable": false,
      "stateMutability": "view",
      "type": "function"
    },
    {
      "constant": true,
      "inputs": [],
      "name": "tokenValueInUSD",
      "outputs": [
        {
          "internalType": "uint256",
          "name": "",
          "type": "uint256"
        }
      ],
      "payable": false,
      "stateMutability": "view",
      "type": "function"
    },
    {
      "constant": false,
      "inputs": [],
      "name": "harvest",
      "outputs": [],
      "payable": false,
      "stateMutability": "nonpayable",
      "type": "function"
    },
    {
      "constant": false,
      "inputs": [],
      "name": "stake",
      "outputs": [],
      "payable": false,
      "stateMutability": "nonpayable",
      "type": "function"
    },
    {
      "constant": false,
      "inputs": [],
      "name": "getRewardFromConvexReward",
      "outputs": [],
      "payable": false,
      "stateMutability": "nonpayable",
      "type": "function"
    },
    {
      "constant": false,
      "inputs": [],
      "name": "getRewardFromcvxCRVReward",
      "outputs": [
        {
          "internalType": "bool",
          "name": "",
          "type": "bool"
        }
      ],
      "payable": false,
      "stateMutability": "nonpayable",
      "type": "function"
    },
    {
      "constant": false,
      "inputs": [],
      "name": "getRewardFromBasePool",
      "outputs": [
        {
          "internalType": "bool",
          "name": "",
          "type": "bool"
        }
      ],
      "payable": false,
      "stateMutability": "nonpayable",
      "type": "function"
    },
    {
      "constant": false,
      "inputs": [
        {
          "internalType": "uint256",
          "name": "_shares",
          "type": "uint256"
        },
        {
          "internalType": "address",
          "name": "_withdrawalAsset",
          "type": "address"
        }
      ],
      "name": "withdraw",
      "outputs": [
        {
          "internalType": "bool",
          "name": "",
          "type": "bool"
        },
        {
          "internalType": "address",
          "name": "",
          "type": "address"
        },
        {
          "internalType": "uint256",
          "name": "",
          "type": "uint256"
        }
      ],
      "payable": false,
      "stateMutability": "nonpayable",
      "type": "function"
    },
    {
      "constant": false,
      "inputs": [
        {
          "internalType": "address",
          "name": "_withdrawalAsset",
          "type": "address"
        }
      ],
      "name": "withdrawAllToSafe",
      "outputs": [
        {
          "internalType": "bool",
          "name": "",
          "type": "bool"
        },
        {
          "internalType": "address",
          "name": "",
          "type": "address"
        },
        {
          "internalType": "uint256",
          "name": "",
          "type": "uint256"
        }
      ],
      "payable": false,
      "stateMutability": "nonpayable",
      "type": "function"
    },
    {
      "constant": false,
      "inputs": [
        {
          "internalType": "address",
          "name": "_tokenAddres",
          "type": "address"
        },
        {
          "internalType": "uint256",
          "name": "_tokenAmount",
          "type": "uint256"
        }
      ],
      "name": "inCaseTokenGetsStuck",
      "outputs": [],
      "payable": false,
      "stateMutability": "nonpayable",
      "type": "function"
    },
    {
      "constant": false,
      "inputs": [
        {
          "internalType": "address",
          "name": "beneficiary",
          "type": "address"
        },
        {
          "internalType": "uint256",
          "name": "gasTokenCount",
          "type": "uint256"
        }
      ],
      "name": "paybackExecutor",
      "outputs": [],
      "payable": false,
      "stateMutability": "nonpayable",
      "type": "function"
    }
  ],
  "bytecode": "0x6080604052600780546001600160a01b031990811673c98435837175795d216547a8edc9e0472604bbda17909155600880548216736c3f90f043a72fa612cbac8115ee7e52bde6e4901790556009805482166f22d53366457f9d5e68ec105046fc43831790556032600a819055600b55600f8054821673f403c135812408bfbe8713b5a23a04b3d48aae3117905560118054821673d533a949740bb3306d119cc777fa900ba034cd52179055601280548216734e3fbd56cd56c3e72c1403e103b45db9da5b9d2b1790556013805482167362b9c7356a2dc64a1969e19c23e4f579f9810aa717905560148054821673cf50b810e57ac33b91dcf525c6ddd9881b139332179055601580548216733fe65692bfcd0e6cf84cb1e7d24108e434a7587e17905560168054909116738014595f2ab54cd7c604b00e9fb932176fdc86ae1790553480156200014f57600080fd5b5060405162004ed438038062004ed4833981810160405260a08110156200017557600080fd5b81019080805160405193929190846401000000008211156200019657600080fd5b908301906020820185811115620001ac57600080fd5b8251640100000000811182820188101715620001c757600080fd5b82525081516020918201929091019080838360005b83811015620001f6578181015183820152602001620001dc565b50505050905090810190601f168015620002245780820380516001836020036101000a031916815260200191505b50604052602001805160405193929190846401000000008211156200024857600080fd5b9083019060208201858111156200025e57600080fd5b82516401000000008111828201881017156200027957600080fd5b82525081516020918201929091019080838360005b83811015620002a85781810151838201526020016200028e565b50505050905090810190601f168015620002d65780820380516001836020036101000a031916815260200191505b506040818152602083810151918401516060909401517f796c2d6376786669000000000000000000000000000000000000000000000000828501908152885193975094955093879390926028909101918401908083835b602083106200034e5780518252601f1990920191602091820191016200032d565b6001836020036101000a0380198251168184511680821785525050505050509050019150506040516020818303038152906040528560405160200180807f796c2d637678000000000000000000000000000000000000000000000000000081525060060182805190602001908083835b60208310620003df5780518252601f199092019160209182019101620003be565b6001836020036101000a038019825116818451168082178552505050505050905001915050604051602081830303815290604052601282600390805190602001906200042d929190620004ab565b50815162000443906004906020850190620004ab565b506005805460ff191660ff9290921691909117610100600160a81b0319166101006001600160a01b03978816021790555050600c91909155600e80546001600160a01b0319908116929093169190911790556006805433921691909117905550620005509050565b828054600181600116156101000203166002900490600052602060002090601f016020900481019282601f10620004ee57805160ff19168380011785556200051e565b828001600101855582156200051e579182015b828111156200051e57825182559160200191906001019062000501565b506200052c92915062000530565b5090565b6200054d91905b808211156200052c576000815560010162000537565b90565b61497480620005606000396000f3fe608060405234801561001057600080fd5b50600436106102105760003560e01c806362ebbeeb116101255780639a8eff90116100ad578063ce03e7a31161007c578063ce03e7a3146106bb578063dd62ed3e146106df578063eb5aa4ed1461070d578063f0fa55a914610739578063f4837c111461075657610210565b80639a8eff9014610611578063a457c2d714610637578063a9059cbb14610663578063c5e722791461068f57610210565b806370a08231116100f457806370a08231146104a7578063721b7351146104cd5780637264a5de146104f3578063776b50eb146104fb57806395d89b411461060957610210565b806362ebbeeb146104635780636700b2f31461046b5780636a209f4c146104975780636fe688f21461049f57610210565b806334d8895b116101a85780634919ebda116101775780634919ebda146104085780635354c8f11461042e57806355c1f8281461044b5780635969326b1461045357806361e98db81461045b57610210565b806334d8895b146103c257806339509351146103ca5780633a4b66f1146103f65780634641257d1461040057610210565b80632065a7f0116101e45780632065a7f01461034057806323b872dd14610348578063241cb4681461037e578063313ce567146103a457610210565b8062f714ce1461021557806306fdde0314610269578063095ea7b3146102e657806318160ddd14610326575b600080fd5b6102416004803603604081101561022b57600080fd5b50803590602001356001600160a01b0316610782565b6040805193151584526001600160a01b03909216602084015282820152519081900360600190f35b610271610828565b6040805160208082528351818301528351919283929083019185019080838360005b838110156102ab578181015183820152602001610293565b50505050905090810190601f1680156102d85780820380516001836020036101000a031916815260200191505b509250505060405180910390f35b610312600480360360408110156102fc57600080fd5b506001600160a01b0381351690602001356108bf565b604080519115158252519081900360200190f35b61032e6108dd565b60408051918252519081900360200190f35b6103126108e3565b6103126004803603606081101561035e57600080fd5b506001600160a01b03813581169160208101359091169060400135610978565b6102416004803603602081101561039457600080fd5b50356001600160a01b0316610a05565b6103ac610a84565b6040805160ff9092168252519081900360200190f35b610312610a8d565b610312600480360360408110156103e057600080fd5b506001600160a01b038135169060200135610aac565b6103fe610b00565b005b6103fe610fc5565b6103fe6004803603602081101561041e57600080fd5b50356001600160a01b0316610fe1565b6103fe6004803603602081101561044457600080fd5b503561109a565b6103fe611131565b61032e6111d1565b61032e61122b565b61032e611231565b6103fe6004803603604081101561048157600080fd5b506001600160a01b0381351690602001356116c6565b6103fe6117a9565b61032e611809565b61032e600480360360208110156104bd57600080fd5b50356001600160a01b031661180f565b6103fe600480360360208110156104e357600080fd5b50356001600160a01b031661182e565b6103fe61187b565b6103fe6004803603606081101561051157600080fd5b810190602081018135600160201b81111561052b57600080fd5b82018360208201111561053d57600080fd5b803590602001918460208302840111600160201b8311171561055e57600080fd5b919390929091602081019035600160201b81111561057b57600080fd5b82018360208201111561058d57600080fd5b803590602001918460208302840111600160201b831117156105ae57600080fd5b919390929091602081019035600160201b8111156105cb57600080fd5b8201836020820111156105dd57600080fd5b803590602001918460018302840111600160201b831117156105fe57600080fd5b5090925090506118f0565b610271611c09565b6103fe6004803603602081101561062757600080fd5b50356001600160a01b0316611c6a565b6103126004803603604081101561064d57600080fd5b506001600160a01b038135169060200135611cdf565b6103126004803603604081101561067957600080fd5b506001600160a01b038135169060200135611d4d565b6103fe600480360360408110156106a557600080fd5b506001600160a01b038135169060200135611d61565b6106c361207d565b604080516001600160a01b039092168252519081900360200190f35b61032e600480360360408110156106f557600080fd5b506001600160a01b038135811691602001351661208c565b6103fe6004803603604081101561072357600080fd5b50803590602001356001600160a01b03166120b7565b6103fe6004803603602081101561074f57600080fd5b50356121e9565b61032e6004803603604081101561076c57600080fd5b506001600160a01b038135169060200135612280565b336000908152601060205260408120548190819060ff166107e2576040805162461bcd60e51b81526020600482015260156024820152744e6f7420612072656769737465726564205361666560581b604482015290519081900360640190fd5b6040805162461bcd60e51b815260206004820152600a6024820152690686579206174203738360b41b604482015290519081900360640190fd5b9063ffffffff61247e16565b60038054604080516020601f60026000196101006001881615020190951694909404938401819004810282018101909252828152606093909290918301828280156108b45780601f10610889576101008083540402835291602001916108b4565b820191906000526020600020905b81548152906001019060200180831161089757829003601f168201915b505050505090505b90565b60006108d36108cc612517565b848461251b565b5060015b92915050565b60025490565b600f54600c5460408051631526fe2760e01b815260048101929092525160009283926001600160a01b0390911691631526fe279160248082019260c092909190829003018186803b15801561093757600080fd5b505afa15801561094b573d6000803e3d6000fd5b505050506040513d60c081101561096157600080fd5b506060015190506109723082612607565b91505090565b6000610985848484612692565b6109fb84610991612517565b6109f68560405180606001604052806028815260200161482a602891396001600160a01b038a166000908152600160205260408120906109cf612517565b6001600160a01b03168152602081019190915260400160002054919063ffffffff6127ee16565b61251b565b5060019392505050565b336000908152601060205260408120548190819060ff16610a65576040805162461bcd60e51b81526020600482015260156024820152744e6f7420612072656769737465726564205361666560581b604482015290519081900360640190fd5b610a77610a713361180f565b85610782565b9250925092509193909250565b60055460ff1690565b601554600090610aa79030906001600160a01b0316612607565b905090565b60006108d3610ab9612517565b846109f68560016000610aca612517565b6001600160a01b03908116825260208083019390935260409182016000908120918c16815292529020549063ffffffff61288516565b600f54600c5460408051631526fe2760e01b81526004810192909252516000926001600160a01b031691631526fe279160248083019260c0929190829003018186803b158015610b4f57600080fd5b505afa158015610b63573d6000803e3d6000fd5b505050506040513d60c0811015610b7957600080fd5b5060600151601154604080516370a0823160e01b815230600482015290519293506000926001600160a01b03909216916370a0823191602480820192602092909190829003018186803b158015610bcf57600080fd5b505afa158015610be3573d6000803e3d6000fd5b505050506040513d6020811015610bf957600080fd5b50511115610c0957610c096128df565b601354604080516370a0823160e01b815230600482015290516000926001600160a01b0316916370a08231916024808301926020929190829003018186803b158015610c5457600080fd5b505afa158015610c68573d6000803e3d6000fd5b505050506040513d6020811015610c7e57600080fd5b50511115610c8e57610c8e6129dd565b601254604080516370a0823160e01b815230600482015290516000926001600160a01b0316916370a08231916024808301926020929190829003018186803b158015610cd957600080fd5b505afa158015610ced573d6000803e3d6000fd5b505050506040513d6020811015610d0357600080fd5b50511115610d1357610d136129fb565b6000816001600160a01b031663d55a23f46040518163ffffffff1660e01b815260040160206040518083038186803b158015610d4e57600080fd5b505afa158015610d62573d6000803e3d6000fd5b505050506040513d6020811015610d7857600080fd5b505190508015610f175760005b81811015610f15576000836001600160a01b03166340c35446836040518263ffffffff1660e01b81526004018082815260200191505060206040518083038186803b158015610dd357600080fd5b505afa158015610de7573d6000803e3d6000fd5b505050506040513d6020811015610dfd57600080fd5b50516040805163f7c618c160e01b815290516001600160a01b039092169163f7c618c191600480820192602092909190829003018186803b158015610e4157600080fd5b505afa158015610e55573d6000803e3d6000fd5b505050506040513d6020811015610e6b57600080fd5b5051604080516370a0823160e01b815230600482015290519192506000916001600160a01b038416916370a08231916024808301926020929190829003018186803b158015610eb957600080fd5b505afa158015610ecd573d6000803e3d6000fd5b505050506040513d6020811015610ee357600080fd5b505190508015610f0b57600854600090610f089084906001600160a01b031684612a17565b50505b5050600101610d85565b505b600854604080516370a0823160e01b8152306004820152905160009283926001600160a01b03909116916370a0823191602480820192602092909190829003018186803b158015610f6757600080fd5b505afa158015610f7b573d6000803e3d6000fd5b505050506040513d6020811015610f9157600080fd5b505190508015610fbf576000610fa8826000612bee565b600d8054820190559050610fbb816130f2565b9250505b50505050565b610fcd6108e3565b50610fd66117a9565b610fde610a8d565b50565b6006546001600160a01b0316331461102e576040805162461bcd60e51b81526020600482015260176024820152600080516020614877833981519152604482015290519081900360640190fd5b6001600160a01b038116611078576040805162461bcd60e51b815260206004820152600c60248201526b5a65726f206164647265737360a01b604482015290519081900360640190fd5b600f80546001600160a01b0319166001600160a01b0392909216919091179055565b6006546001600160a01b031633146110e7576040805162461bcd60e51b81526020600482015260176024820152600080516020614877833981519152604482015290519081900360640190fd5b612710811061112c576040805162461bcd60e51b815260206004820152600c60248201526b212070657263656e7461676560a01b604482015290519081900360640190fd5b600b55565b6005546040805163652b9b4160e01b815233600482015290516101009092046001600160a01b03169163652b9b4191602480820192602092909190829003018186803b15801561118057600080fd5b505afa158015611194573d6000803e3d6000fd5b505050506040513d60208110156111aa57600080fd5b50516111b557600080fd5b336000908152601060205260409020805460ff19166001179055565b60006111db611231565b15806111ec57506111ea6108dd565b155b156111f9575060006108bc565b6112246112046108dd565b61081c670de0b6b3a7640000611218611231565b9063ffffffff61241e16565b90506108bc565b600d5481565b600f54600c5460408051631526fe2760e01b815260048101929092525160009283926001600160a01b0390911691631526fe279160248082019260c092909190829003018186803b15801561128557600080fd5b505afa158015611299573d6000803e3d6000fd5b505050506040513d60c08110156112af57600080fd5b5051601454604080516370a0823160e01b815230600482015290519293506000926001600160a01b03909216916370a0823191602480820192602092909190829003018186803b15801561130257600080fd5b505afa158015611316573d6000803e3d6000fd5b505050506040513d602081101561132c57600080fd5b5051601554604080516370a0823160e01b815230600482015290519293506000926001600160a01b03909216916370a0823191602480820192602092909190829003018186803b15801561137f57600080fd5b505afa158015611393573d6000803e3d6000fd5b505050506040513d60208110156113a957600080fd5b5051600d549091501515806113be5750600082115b806113c95750600081115b156116ba5760055460408051638b2f0f4f60e01b81526001600160a01b0386811660048301529151600093610100900490921691638b2f0f4f91602480820192602092909190829003018186803b15801561142357600080fd5b505afa158015611437573d6000803e3d6000fd5b505050506040513d602081101561144d57600080fd5b505160055460408051630b4e5fdd60e31b815290519293506000926101009092046001600160a01b031691635a72fee891600480820192602092909190829003018186803b15801561149e57600080fd5b505afa1580156114b2573d6000803e3d6000fd5b505050506040513d60208110156114c857600080fd5b5051600d546040805163165013c360e31b81526001600160a01b03898116600483015260248201939093529051919092169163b2809e18916044808301926020929190829003018186803b15801561151f57600080fd5b505afa158015611533573d6000803e3d6000fd5b505050506040513d602081101561154957600080fd5b505160055460125460408051638b2f0f4f60e01b81526001600160a01b039283166004820152905193945060009361010090930490911691638b2f0f4f91602480820192602092909190829003018186803b1580156115a757600080fd5b505afa1580156115bb573d6000803e3d6000fd5b505050506040513d60208110156115d157600080fd5b505160055460115460408051638b2f0f4f60e01b81526001600160a01b039283166004820152905193945060009361010090930490911691638b2f0f4f91602480820192602092909190829003018186803b15801561162f57600080fd5b505afa158015611643573d6000803e3d6000fd5b505050506040513d602081101561165957600080fd5b50519050600061166f868363ffffffff61241e16565b61167f888563ffffffff61241e16565b61168f868863ffffffff61241e16565b010190506116ab81670de0b6b3a764000063ffffffff61247e16565b985050505050505050506108bc565b600093505050506108bc565b600560019054906101000a90046001600160a01b03166001600160a01b031663061776426040518163ffffffff1660e01b815260040160206040518083038186803b15801561171457600080fd5b505afa158015611728573d6000803e3d6000fd5b505050506040513d602081101561173e57600080fd5b50516001600160a01b0316331461178b576040805162461bcd60e51b815260206004820152600c60248201526b1d5b985d5d1a1bdc9a5e995960a21b604482015290519081900360640190fd5b6117a56001600160a01b038316338363ffffffff6124c016565b5050565b6014546040805163a4698feb60e01b815260006004820181905291516001600160a01b039093169263a4698feb9260248084019391929182900301818387803b1580156117f557600080fd5b505af1158015610fbf573d6000803e3d6000fd5b600c5481565b6001600160a01b0381166000908152602081905260409020545b919050565b6006546001600160a01b03163314611078576040805162461bcd60e51b81526020600482015260176024820152600080516020614877833981519152604482015290519081900360640190fd5b3360009081526010602052604090205460ff166118d7576040805162461bcd60e51b81526020600482015260156024820152744e6f7420612072656769737465726564205361666560581b604482015290519081900360640190fd5b336000908152601060205260409020805460ff19169055565b3360009081526010602052604090205460ff1661194c576040805162461bcd60e51b81526020600482015260156024820152744e6f7420612072656769737465726564205361666560581b604482015290519081900360640190fd5b600f54600c5460408051631526fe2760e01b815260048101929092525160009283926001600160a01b0390911691631526fe279160248082019260c092909190829003018186803b1580156119a057600080fd5b505afa1580156119b4573d6000803e3d6000fd5b505050506040513d60c08110156119ca57600080fd5b50805160a090910151909250905060018115151415611a20576040805162461bcd60e51b815260206004820152600d60248201526c2837b7b61039b43aba3237bbb760991b604482015290519081900360640190fd5b6000611a2a61326e565b6001600160a01b031663bdf475c3846040518263ffffffff1660e01b815260040180826001600160a01b03166001600160a01b0316815260200191505060206040518083038186803b158015611a7f57600080fd5b505afa158015611a93573d6000803e3d6000fd5b505050506040513d6020811015611aa957600080fd5b505190506001600160a01b038116611afb576040805162461bcd60e51b815260206004820152601060248201526f1c1bdbdb081b9bdd081c1c995cd95b9d60821b604482015290519081900360640190fd5b60005b88811015611b76576000888883818110611b1457fe5b905060200201351115611b6e57611b6e33308a8a85818110611b3257fe5b905060200201358d8d86818110611b4557fe5b905060200201356001600160a01b03166001600160a01b03166132e4909392919063ffffffff16565b600101611afe565b506000611bb886868080601f01602080910402602001604051908101604052809392919081815260200183838082843760009201919091525061333e92505050565b90506000611bc46108dd565b611bcf575080611be4565b611be1611bdc8684612280565b613535565b90505b600d8054830190558015611bfc57611bfc338261355a565b5050505050505050505050565b60048054604080516020601f60026000196101006001881615020190951694909404938401819004810282018101909252828152606093909290918301828280156108b45780601f10610889576101008083540402835291602001916108b4565b6006546001600160a01b03163314611cb7576040805162461bcd60e51b81526020600482015260176024820152600080516020614877833981519152604482015290519081900360640190fd5b600580546001600160a01b0390921661010002610100600160a81b0319909216919091179055565b60006108d3611cec612517565b846109f68560405180606001604052806025815260200161491b6025913960016000611d16612517565b6001600160a01b03908116825260208083019390935260409182016000908120918d1681529252902054919063ffffffff6127ee16565b60006108d3611d5a612517565b8484612692565b60055460408051633bc8334960e21b815233600482015290516101009092046001600160a01b03169163ef20cd2491602480820192602092909190829003018186803b158015611db057600080fd5b505afa158015611dc4573d6000803e3d6000fd5b505050506040513d6020811015611dda57600080fd5b50516001600160a01b03163014611e2f576040805162461bcd60e51b815260206004820152601460248201527327b7363c9029ba3930ba32b3bc9026b4b73a32b960611b604482015290519081900360640190fd5b600f54600c5460408051631526fe2760e01b815260048101929092525160009283926001600160a01b0390911691631526fe279160248082019260c092909190829003018186803b158015611e8357600080fd5b505afa158015611e97573d6000803e3d6000fd5b505050506040513d60c0811015611ead57600080fd5b508051606090910151604080516370a0823160e01b815230600482015290519294509092506001600160a01b038316916370a0823191602480820192602092909190829003018186803b158015611f0357600080fd5b505afa158015611f17573d6000803e3d6000fd5b505050506040513d6020811015611f2d57600080fd5b50518310611f82576040805162461bcd60e51b815260206004820152601760248201527f416d6f756e7420746f207265696d62203e20746f74616c000000000000000000604482015290519081900360640190fd5b60408051636197390160e11b81526004810185905260006024820181905291516001600160a01b0384169163c32e720291604480830192602092919082900301818787803b158015611fd357600080fd5b505af1158015611fe7573d6000803e3d6000fd5b505050506040513d6020811015611ffd57600080fd5b5051905080612053576040805162461bcd60e51b815260206004820152601760248201527f4572726f7220696e207769746864726177556e77726170000000000000000000604482015290519081900360640190fd5b600d805485900390556120766001600160a01b038416868663ffffffff6124c016565b5050505050565b6007546001600160a01b031681565b6001600160a01b03918216600090815260016020908152604080832093909416825291909152205490565b6006546001600160a01b03163314612104576040805162461bcd60e51b81526020600482015260176024820152600080516020614877833981519152604482015290519081900360640190fd5b600f60009054906101000a90046001600160a01b03166001600160a01b031663081e3eda6040518163ffffffff1660e01b815260040160206040518083038186803b15801561215257600080fd5b505afa158015612166573d6000803e3d6000fd5b505050506040513d602081101561217c57600080fd5b505182106121c2576040805162461bcd60e51b815260206004820152600e60248201526d43616e6e6f74206265207a65726f60901b604482015290519081900360640190fd5b600c91909155600e80546001600160a01b0319166001600160a01b03909216919091179055565b6006546001600160a01b03163314612236576040805162461bcd60e51b81526020600482015260176024820152600080516020614877833981519152604482015290519081900360640190fd5b612710811061227b576040805162461bcd60e51b815260206004820152600c60248201526b212070657263656e7461676560a01b604482015290519081900360640190fd5b600a55565b60055460408051638b2f0f4f60e01b81526001600160a01b038581166004830152915160009384936101009091041691638b2f0f4f916024808301926020929190829003018186803b1580156122d557600080fd5b505afa1580156122e9573d6000803e3d6000fd5b505050506040513d60208110156122ff57600080fd5b505160055460408051630b4e5fdd60e31b8152905192935061241692670de0b6b3a76400009261081c9286926101009092046001600160a01b031691635a72fee891600480820192602092909190829003018186803b15801561236157600080fd5b505afa158015612375573d6000803e3d6000fd5b505050506040513d602081101561238b57600080fd5b50516040805163165013c360e31b81526001600160a01b038b81166004830152602482018b90529151919092169163b2809e18916044808301926020929190829003018186803b1580156123de57600080fd5b505afa1580156123f2573d6000803e3d6000fd5b505050506040513d602081101561240857600080fd5b50519063ffffffff61241e16565b949350505050565b60008261242d575060006108d7565b8282028284828161243a57fe5b04146124775760405162461bcd60e51b81526004018080602001828103825260218152602001806148096021913960400191505060405180910390fd5b9392505050565b600061247783836040518060400160405280601a81526020017f536166654d6174683a206469766973696f6e206279207a65726f00000000000081525061364a565b604080516001600160a01b038416602482015260448082018490528251808303909101815260649091019091526020810180516001600160e01b031663a9059cbb60e01b179052612512908490613868565b505050565b3390565b6001600160a01b0383166125605760405162461bcd60e51b81526004018080602001828103825260248152602001806148976024913960400191505060405180910390fd5b6001600160a01b0382166125a55760405162461bcd60e51b81526004018080602001828103825260228152602001806147c16022913960400191505060405180910390fd5b6001600160a01b03808416600081815260016020908152604080832094871680845294825291829020859055815185815291517f8c5be1e5ebec7d5bd14f71427d1e84f3dd0314c0f7b2291e5b200ac8c7c3b9259281900390910190a3505050565b60408051637050ccd960e01b81526001600160a01b038481166004830152600160248301529151600092839290851691637050ccd99160448082019260209290919082900301818787803b15801561265e57600080fd5b505af1158015612672573d6000803e3d6000fd5b505050506040513d602081101561268857600080fd5b5051949350505050565b6001600160a01b0383166126d75760405162461bcd60e51b81526004018080602001828103825260258152602001806148526025913960400191505060405180910390fd5b6001600160a01b03821661271c5760405162461bcd60e51b815260040180806020018281038252602381526020018061479e6023913960400191505060405180910390fd5b61275f816040518060600160405280602681526020016147e3602691396001600160a01b038616600090815260208190526040902054919063ffffffff6127ee16565b6001600160a01b038085166000908152602081905260408082209390935590841681522054612794908263ffffffff61288516565b6001600160a01b038084166000818152602081815260409182902094909455805185815290519193928716927fddf252ad1be2c89b69c2b068fc378daa952ba7f163c4a11628f55a4df523b3ef92918290030190a3505050565b6000818484111561287d5760405162461bcd60e51b81526004018080602001828103825283818151815260200191508051906020019080838360005b8381101561284257818101518382015260200161282a565b50505050905090810190601f16801561286f5780820380516001836020036101000a031916815260200191505b509250505060405180910390fd5b505050900390565b600082820183811015612477576040805162461bcd60e51b815260206004820152601b60248201527f536166654d6174683a206164646974696f6e206f766572666c6f770000000000604482015290519081900360640190fd5b601154604080516370a0823160e01b815230600482015290516000926001600160a01b0316916370a08231916024808301926020929190829003018186803b15801561292a57600080fd5b505afa15801561293e573d6000803e3d6000fd5b505050506040513d602081101561295457600080fd5b5051601154601654919250612976916001600160a01b03918216911683613af4565b6016546040805163215537fd60e01b81526000600482018190526024820181905291516001600160a01b039093169263215537fd9260448084019391929182900301818387803b1580156129c957600080fd5b505af1158015612076573d6000803e3d6000fd5b6013546015546129f9916001600160a01b039081169116613bcb565b565b6012546014546129f9916001600160a01b039081169116613bcb565b6000806000600560019054906101000a90046001600160a01b03166001600160a01b0316634407ea176040518163ffffffff1660e01b815260040160206040518083038186803b158015612a6a57600080fd5b505afa158015612a7e573d6000803e3d6000fd5b505050506040513d6020811015612a9457600080fd5b50516040805163e6a4390560e01b81526001600160a01b038981166004830152888116602483015291519293506000929184169163e6a439059160448082019260209290919082900301818787803b158015612aef57600080fd5b505af1158015612b03573d6000803e3d6000fd5b505050506040513d6020811015612b1957600080fd5b505190506001600160a01b038116612b345760009250612be3565b6000612b44888888600b54613ca6565b9050612b51888388613af4565b60408051637f0148ab60e11b81526001600160a01b038a811660048301528981166024830152604482018990526064820184905291519184169163fe029156916084808201926020929091908290030181600087803b158015612bb357600080fd5b505af1158015612bc7573d6000803e3d6000fd5b505050506040513d6020811015612bdd57600080fd5b50519350505b509095945050505050565b600f54600c5460408051631526fe2760e01b815260048101929092525160009283926001600160a01b0390911691631526fe279160248082019260c092909190829003018186803b158015612c4257600080fd5b505afa158015612c56573d6000803e3d6000fd5b505050506040513d60c0811015612c6c57600080fd5b50519050600080612c7b61326e565b6001600160a01b031663bdf475c3846040518263ffffffff1660e01b815260040180826001600160a01b03166001600160a01b0316815260200191505060206040518083038186803b158015612cd057600080fd5b505afa158015612ce4573d6000803e3d6000fd5b505050506040513d6020811015612cfa57600080fd5b50519050612d06614742565b612d0e61326e565b6040805163940494f160e01b81526001600160a01b038581166004830152825193169263940494f192602480840193919291829003018186803b158015612d5457600080fd5b505afa158015612d68573d6000803e3d6000fd5b505050506040513d601f19601f820116820180604052506040811015612d8d57600080fd5b509050612d98614760565b612da061326e565b6001600160a01b0316639ac90d3d846040518263ffffffff1660e01b815260040180826001600160a01b03166001600160a01b031681526020019150506101006040518083038186803b158015612df657600080fd5b505afa158015612e0a573d6000803e3d6000fd5b505050506040513d601f19601f82011682018060405250610100811015612e3057600080fd5b508251909150612e3e614742565b60005b82811015612f5257600880546001600160a01b031690859083908110612e6357fe5b60200201516001600160a01b03161415612ecd578a828260028110612e8457fe5b60200201528a15612ec857600854612ea6906001600160a01b0316878d613af4565b600854600a54612ec3916001600160a01b0316908a908e90613ca6565b870196505b612f4a565b600e546001600160a01b0316848260088110612ee557fe5b60200201516001600160a01b03161415612f4a5789828260028110612f0657fe5b60200201528915612f4a57600e54612f28906001600160a01b0316878c613af4565b600e54600a54612f45916001600160a01b0316908a908d90613ca6565b870196505b600101612e41565b50604080516370a0823160e01b815230600482015290516000916001600160a01b038a16916370a0823191602480820192602092909190829003018186803b158015612f9d57600080fd5b505afa158015612fb1573d6000803e3d6000fd5b505050506040513d6020811015612fc757600080fd5b505160408051630b4c7e4d60e01b81529192506001600160a01b03881691630b4c7e4d9185918b916004909101908190849080838360005b83811015613017578181015183820152602001612fff565b5050505090500182815260200192505050600060405180830381600087803b15801561304257600080fd5b505af1158015613056573d6000803e3d6000fd5b5050604080516370a0823160e01b81523060048201529051600093506001600160a01b038c1692506370a0823191602480820192602092909190829003018186803b1580156130a457600080fd5b505afa1580156130b8573d6000803e3d6000fd5b505050506040513d60208110156130ce57600080fd5b505190506130e2818363ffffffff6136af16565b9c9b505050505050505050505050565b600f54600c5460408051631526fe2760e01b815260048101929092525160009283926001600160a01b0390911691631526fe279160248082019260c092909190829003018186803b15801561314657600080fd5b505afa15801561315a573d6000803e3d6000fd5b505050506040513d60c081101561317057600080fd5b5051600f5490915061318d9082906001600160a01b031685613af4565b600f54600c54604080516321d0683360e11b815260048101929092526024820186905260016044830152516000926001600160a01b0316916343a0d06691606480830192602092919082900301818787803b1580156131eb57600080fd5b505af11580156131ff573d6000803e3d6000fd5b505050506040513d602081101561321557600080fd5b505190508015613229578392505050611829565b6040805162461bcd60e51b815260206004820152601560248201527411195c1bdcda5d081d1bc810d5960811985a5b1959605a1b604482015290519081900360640190fd5b6009546040805163a262904b60e01b815290516000926001600160a01b03169163a262904b916004808301926020929190829003018186803b1580156132b357600080fd5b505afa1580156132c7573d6000803e3d6000fd5b505050506040513d60208110156132dd57600080fd5b5051905090565b604080516001600160a01b0385811660248301528416604482015260648082018490528251808303909101815260849091019091526020810180516001600160e01b03166323b872dd60e01b179052610fbf908590613868565b600080600080600080600080600061335461477f565b61335c61477f565b60006060808e80602001905161012081101561337757600080fd5b60c082015160e083018051604051606086019490929086019186919084600160201b8211156133a557600080fd5b9083019060208201858111156133ba57600080fd5b82518660208202830111600160201b821117156133d657600080fd5b82525081516020918201928201910280838360005b838110156134035781810151838201526020016133eb565b5050505090500160405260200180516040519392919084600160201b82111561342b57600080fd5b90830190602082018581111561344057600080fd5b82518660208202830111600160201b8211171561345c57600080fd5b82525081516020918201928201910280838360005b83811015613489578181015183820152602001613471565b505050509050016040525050509450945094509450945060008311156134b7576134b4858585613fe2565b9c505b8151156134d3576134c8828261425f565b929d50909950975095505b6000888e0111806134e45750600087115b156134f8576134f5888e0188612bee565b9b505b8b8b011561350e5761350b8b8d016130f2565b98505b85156135205761351d866144a7565b99505b505050949095019a9950505050505050505050565b60006108d7613542611231565b61081c61354d6108dd565b859063ffffffff61241e16565b6001600160a01b0382166135b5576040805162461bcd60e51b815260206004820152601f60248201527f45524332303a206d696e7420746f20746865207a65726f206164647265737300604482015290519081900360640190fd5b6002546135c8908263ffffffff61288516565b6002556001600160a01b0382166000908152602081905260409020546135f4908263ffffffff61288516565b6001600160a01b0383166000818152602081815260408083209490945583518581529351929391927fddf252ad1be2c89b69c2b068fc378daa952ba7f163c4a11628f55a4df523b3ef9281900390910190a35050565b600081836136995760405162461bcd60e51b815260206004820181815283516024840152835190928392604490910191908501908083836000831561284257818101518382015260200161282a565b5060008385816136a557fe5b0495945050505050565b600061247783836040518060400160405280601e81526020017f536166654d6174683a207375627472616374696f6e206f766572666c6f7700008152506127ee565b6000806000600560019054906101000a90046001600160a01b03166001600160a01b0316634407ea176040518163ffffffff1660e01b815260040160206040518083038186803b15801561374457600080fd5b505afa158015613758573d6000803e3d6000fd5b505050506040513d602081101561376e57600080fd5b50516040805163e6a4390560e01b81526001600160a01b038981166004830152888116602483015291519293506000929184169163e6a439059160448082019260209290919082900301818787803b1580156137c957600080fd5b505af11580156137dd573d6000803e3d6000fd5b505050506040513d60208110156137f357600080fd5b505190506001600160a01b038116613852576040805162461bcd60e51b815260206004820152601960248201527f45786368616e67652070616972206e6f742070726573656e7400000000000000604482015290519081900360640190fd5b61385d878787612a17565b979650505050505050565b61387a826001600160a01b03166145f6565b6138cb576040805162461bcd60e51b815260206004820152601f60248201527f5361666545524332303a2063616c6c20746f206e6f6e2d636f6e747261637400604482015290519081900360640190fd5b60006060836001600160a01b0316836040518082805190602001908083835b602083106139095780518252601f1990920191602091820191016138ea565b6001836020036101000a0380198251168184511680821785525050505050509050019150506000604051808303816000865af19150503d806000811461396b576040519150601f19603f3d011682016040523d82523d6000602084013e613970565b606091505b5091509150816139c7576040805162461bcd60e51b815260206004820181905260248201527f5361666545524332303a206c6f772d6c6576656c2063616c6c206661696c6564604482015290519081900360640190fd5b805115610fbf578080602001905160208110156139e357600080fd5b5051610fbf5760405162461bcd60e51b815260040180806020018281038252602a8152602001806148bb602a913960400191505060405180910390fd5b82811015613ae5578a6001600160a01b0316848260088110613a3e57fe5b60200201516001600160a01b03161415613add57856001600160a01b0316631a4d01d28a83856040518463ffffffff1660e01b81526004018084815260200183600f0b600f0b81526020018281526020019350505050602060405180830381600087803b158015613aae57600080fd5b505af1158015613ac2573d6000803e3d6000fd5b505050506040513d6020811015613ad857600080fd5b505196505b600101613a20565b50949998505050505050505050565b60408051636eb1769f60e11b81523060048201526001600160a01b038481166024830152915160009286169163dd62ed3e916044808301926020929190829003018186803b158015613b4557600080fd5b505afa158015613b59573d6000803e3d6000fd5b505050506040513d6020811015613b6f57600080fd5b50511115613bb157613b926001600160a01b03841683600063ffffffff61462f16565b613bac6001600160a01b038416838363ffffffff61462f16565b612512565b6125126001600160a01b038416838363ffffffff61462f16565b604080516370a0823160e01b815230600482015290516000916001600160a01b038516916370a0823191602480820192602092909190829003018186803b158015613c1557600080fd5b505afa158015613c29573d6000803e3d6000fd5b505050506040513d6020811015613c3f57600080fd5b50519050613c4e838383613af4565b816001600160a01b0316638dcb40616040518163ffffffff1660e01b8152600401600060405180830381600087803b158015613c8957600080fd5b505af1158015613c9d573d6000803e3d6000fd5b50505050505050565b60055460408051638b2f0f4f60e01b81526001600160a01b038781166004830152915160009384936101009091041691638b2f0f4f916024808301926020929190829003018186803b158015613cfb57600080fd5b505afa158015613d0f573d6000803e3d6000fd5b505050506040513d6020811015613d2557600080fd5b505160055460408051638b2f0f4f60e01b81526001600160a01b038981166004830152915193945060009361010090930490911691638b2f0f4f91602480820192602092909190829003018186803b158015613d8057600080fd5b505afa158015613d94573d6000803e3d6000fd5b505050506040513d6020811015613daa57600080fd5b505160055460408051630b4e5fdd60e31b815290519293506000926101009092046001600160a01b031691635a72fee891600480820192602092909190829003018186803b158015613dfb57600080fd5b505afa158015613e0f573d6000803e3d6000fd5b505050506040513d6020811015613e2557600080fd5b50516040805163165013c360e31b81526001600160a01b038b81166004830152602482018a90529151919092169163b2809e18916044808301926020929190829003018186803b158015613e7857600080fd5b505afa158015613e8c573d6000803e3d6000fd5b505050506040513d6020811015613ea257600080fd5b505190506000613ebc8361081c848763ffffffff61241e16565b90506000600560019054906101000a90046001600160a01b03166001600160a01b0316635a72fee86040518163ffffffff1660e01b815260040160206040518083038186803b158015613f0e57600080fd5b505afa158015613f22573d6000803e3d6000fd5b505050506040513d6020811015613f3857600080fd5b50516040805163566ab92760e01b81526001600160a01b038c81166004830152602482018690529151919092169163566ab927916044808301926020929190829003018186803b158015613f8b57600080fd5b505afa158015613f9f573d6000803e3d6000fd5b505050506040513d6020811015613fb557600080fd5b505190506000613fd161271061081c848b63ffffffff61241e16565b9091039a9950505050505050505050565b600080613fed61326e565b6008546040805163bdf475c360e01b81526001600160a01b0392831660048201529051929091169163bdf475c391602480820192602092909190829003018186803b15801561403b57600080fd5b505afa15801561404f573d6000803e3d6000fd5b505050506040513d602081101561406557600080fd5b5051905060005b60038110156140c157600085826003811061408357fe5b602002015111156140b9576140b986826003811061409d57fe5b6020020151838784600381106140af57fe5b6020020151613af4565b60010161406c565b50600854604080516370a0823160e01b815230600482015290516000926001600160a01b0316916370a08231916024808301926020929190829003018186803b15801561410d57600080fd5b505afa158015614121573d6000803e3d6000fd5b505050506040513d602081101561413757600080fd5b5051604051634515cef360e01b81529091506001600160a01b03831690634515cef390879087906004018083606080838360005b8381101561418357818101518382015260200161416b565b5050505090500182815260200192505050600060405180830381600087803b1580156141ae57600080fd5b505af11580156141c2573d6000803e3d6000fd5b5050600854604080516370a0823160e01b81523060048201529051600094506001600160a01b0390921692506370a08231916024808301926020929190829003018186803b15801561421357600080fd5b505afa158015614227573d6000803e3d6000fd5b505050506040513d602081101561423d57600080fd5b505190506000614253828463ffffffff6136af16565b98975050505050505050565b600080600080600080600f60009054906101000a90046001600160a01b03166001600160a01b0316631526fe27600c546040518263ffffffff1660e01b81526004018082815260200191505060c06040518083038186803b1580156142c357600080fd5b505afa1580156142d7573d6000803e3d6000fd5b505050506040513d60c08110156142ed57600080fd5b50805160209091015190925090506000808080805b8c5181101561449457866001600160a01b03168d828151811061432157fe5b60200260200101516001600160a01b03161415614355578b818151811061434457fe5b60200260200101518501945061448c565b600e548d516001600160a01b03909116908e908390811061437257fe5b60200260200101516001600160a01b031614156143a6578b818151811061439557fe5b60200260200101518301925061448c565b6008548d516001600160a01b03909116908e90839081106143c357fe5b60200260200101516001600160a01b031614156143f7578b81815181106143e657fe5b60200260200101518401935061448c565b856001600160a01b03168d828151811061440d57fe5b60200260200101516001600160a01b03161415614441578b818151811061443057fe5b60200260200101518201915061448c565b6144878d828151811061445057fe5b6020026020010151600860009054906101000a90046001600160a01b03168e848151811061447a57fe5b60200260200101516136f1565b840193505b600101614302565b50929b919a509850909650945050505050565b600f54600c5460408051631526fe2760e01b815260048101929092525160009283926001600160a01b0390911691631526fe279160248082019260c092909190829003018186803b1580156144fb57600080fd5b505afa15801561450f573d6000803e3d6000fd5b505050506040513d60c081101561452557600080fd5b5060600151604080516305dc812160e31b81523060048201526024810186905290519192506001600160a01b03831691632ee40908916044808201926020929091908290030181600087803b15801561457d57600080fd5b505af1158015614591573d6000803e3d6000fd5b505050506040513d60208110156145a757600080fd5b50506040805162461bcd60e51b815260206004820152601e60248201527f66756e6374696f6e2072656163686564206174207374616b65746f6376780000604482015290519081900360640190fd5b6000813f7fc5d2460186f7233c927e7db2dcc703c0e500b653ca82273b7bfad8045d85a470818114801590612416575050151592915050565b8015806146b5575060408051636eb1769f60e11b81523060048201526001600160a01b03848116602483015291519185169163dd62ed3e91604480820192602092909190829003018186803b15801561468757600080fd5b505afa15801561469b573d6000803e3d6000fd5b505050506040513d60208110156146b157600080fd5b5051155b6146f05760405162461bcd60e51b81526004018080602001828103825260368152602001806148e56036913960400191505060405180910390fd5b604080516001600160a01b038416602482015260448082018490528251808303909101815260649091019091526020810180516001600160e01b031663095ea7b360e01b179052612512908490613868565b60405180604001604052806002906020820280388339509192915050565b6040518061010001604052806008906020820280388339509192915050565b6040518060600160405280600390602082028038833950919291505056fe45524332303a207472616e7366657220746f20746865207a65726f206164647265737345524332303a20617070726f766520746f20746865207a65726f206164647265737345524332303a207472616e7366657220616d6f756e7420657863656564732062616c616e6365536166654d6174683a206d756c7469706c69636174696f6e206f766572666c6f7745524332303a207472616e7366657220616d6f756e74206578636565647320616c6c6f77616e636545524332303a207472616e736665722066726f6d20746865207a65726f20616464726573734f6e6c79207065726d697474656420746f206f776e657200000000000000000045524332303a20617070726f76652066726f6d20746865207a65726f20616464726573735361666545524332303a204552433230206f7065726174696f6e20646964206e6f7420737563636565645361666545524332303a20617070726f76652066726f6d206e6f6e2d7a65726f20746f206e6f6e2d7a65726f20616c6c6f77616e636545524332303a2064656372656173656420616c6c6f77616e63652062656c6f77207a65726fa265627a7a723158202b5a4fef770697951545611502c903f53239f22fa4f09425f4991e8922ea625e64736f6c63430005110032",
  "source": "// SPDX-License-Identifier: MIT\n// pragma solidity ^0.8.0;\npragma solidity >=0.5.0;\n\nimport \"@openzeppelin/contracts/math/SafeMath.sol\";\nimport \"@openzeppelin/contracts/utils/Address.sol\";\nimport \"@openzeppelin/contracts/token/ERC20/SafeERC20.sol\";\nimport \"@openzeppelin/contracts/token/ERC20/ERC20Detailed.sol\";\nimport \"@openzeppelin/contracts/token/ERC20/ERC20.sol\";\nimport \"@openzeppelin/contracts/token/ERC20/IERC20.sol\";\n\nimport \"./interfaces/convex/IConvex.sol\";\nimport \"./interfaces/convex/IRewards.sol\";\nimport \"../interfaces/ICrvAddressProvider.sol\";\nimport \"../interfaces/ICrvRegistry.sol\";\nimport \"../interfaces/IExchangeRegistry.sol\";\nimport \"../interfaces/IExchange.sol\";\nimport \"../interfaces/ICrvPool.sol\";\nimport \"../interfaces/ICrv3Pool.sol\";\nimport \"../interfaces/IAPContract.sol\";\nimport \"../interfaces/IHexUtils.sol\";\nimport \"./interfaces/convex/ITokenMinter.sol\";\nimport \"./interfaces/convex/IStake.sol\";\nimport \"./interfaces/convex/IcrvDeposit.sol\";\n\ncontract ConvexCRV is ERC20, ERC20Detailed {\n    using SafeERC20 for IERC20;\n    using SafeMath for uint256;\n       // uint256 public _sharesnew;  //shana\n\n    address private APContract;\n    address private owner;\n    address public priceModule= 0xC98435837175795D216547a8eDc9E0472604BBdA;\n    address private crv3Token = 0x6c3F90f043a72FA612cbac8115EE7e52BDe6E490;\n    address private crvAddressProvider =\n        0x0000000022D53366457F9d5E68Ec105046FC4383;\n    uint256 slippage = 50; //  0.5% slippage\n    uint256 slippageSwap = 50; //  0.5% slippage on swap\n\n    uint256 public poolInfoID;\n    uint256 public protocolBalance;\n    address private baseToken; //USDN\n    address private convexDeposit = 0xF403C135812408BFbE8713b5A23a04b3D48AAE31;\n    mapping(address => bool) isRegistered;\n\n    address private crv = 0xD533a949740bb3306d119CC777fa900bA034cd52;\n    address private cvx = 0x4e3FBD56CD56c3e72c1403e103b45Db9da5B9D2B;\n    address private cvxcrv = 0x62B9c7356A2Dc64a1969e19C23e4f579F9810Aa7;\n\n    address private convexRewardContract =\n        0xCF50b810E57Ac33B91dCF525C6ddd9881B139332;\n    address private cvxcrvRewardContract =\n        0x3Fe65692bfCD0e6CF84cB1E7d24108E434A7587e;\n    address private crvDepositContract =\n        0x8014595F2AB54cD7c604B00E9fb932176fDc86Ae;\n\n    modifier onlyRegisteredVault() {\n        require(isRegistered[msg.sender], \"Not a registered Safe\");\n        _;\n    }\n\n    modifier onlyOwner() {\n        require(msg.sender == owner, \"Only permitted to owner\");\n        _;\n    }\n\n    constructor(\n        string memory _name,\n        string memory _symbol,\n        address _APContract,\n        uint256 _poolInfoID,\n        address _baseToken\n    )\n        public\n        ERC20Detailed(\n            string(abi.encodePacked(\"yl-cvxfi\", _symbol)),\n            string(abi.encodePacked(\"yl-cvx\", _name)),\n            18\n        )\n    {\n        APContract = _APContract;\n        poolInfoID = _poolInfoID;\n        baseToken = _baseToken;\n        owner = msg.sender;\n    }\n\n    /// @dev Function to subscribe a new vault to the strategy.\n    function registerSafe() external {\n        require(IAPContract(APContract).isVault(msg.sender));\n        isRegistered[msg.sender] = true;\n    }\n\n    /// @dev Function to unsubscribe a vault from the strategy.\n    function deRegisterSafe() external onlyRegisteredVault {\n        isRegistered[msg.sender] = false;\n    }\n\n    /// @dev Function to set slippage settings when performing exchanges.\n    /// @param _slippageSwap Slippage value.\n    function setSlippageSwap(uint256 _slippageSwap) external onlyOwner {\n        require(_slippageSwap < 10000, \"! percentage\");\n        slippageSwap = _slippageSwap;\n    }\n\n    /// @dev Function to set slippage settings when interacting with Curve pools.\n    /// @param _slippage Slippage value.\n    function setSlippage(uint256 _slippage) external onlyOwner {\n        require(_slippage < 10000, \"! percentage\");\n        slippage = _slippage;\n    }\n\n    /// @dev Function to set the address of the Yieldster APS.\n    /// @param _APContract Address of the APS Contract.\n    function setAPContract(address _APContract) external onlyOwner {\n        APContract = _APContract;\n    }\n\n    /// @dev Function to set the convex deposit contract\n    /// @param _convexDeposit address of convex deposit contract\n    function setConvexDeposit(address _convexDeposit) external onlyOwner {\n        convexDeposit = _convexDeposit;\n    }\n\n    /// @dev Function to set convex pool to the strategy.\n    /// @param _poolInfoID poolInfoID of the convex pool.\n    /// @param _baseToken baseToken of the convex pool.\n\n    function setProtocol(uint256 _poolInfoID, address _baseToken)\n        external\n        onlyOwner\n    {\n        require(_poolInfoID >= 0, \"Cannot be zero\");\n        require(\n            _poolInfoID < IConvex(convexDeposit).poolLength(),\n            \"Cannot be zero\"\n        );\n\n        poolInfoID = _poolInfoID;\n        baseToken = _baseToken;\n    }\n\n    /// @dev Function to change convex deposit contract\n    /// @param _depositContractAddress Address of the new deposit contract\n\n    function changeDepositContract(address _depositContractAddress)\n        external\n        onlyOwner\n    {\n        require(_depositContractAddress != address(0), \"Zero address\");\n        convexDeposit = _depositContractAddress;\n    }\n\n    /// @dev Function to approve a token.\n    /// @param _token Address of the token.\n    /// @param _spender Address of the spender.\n    /// @param _amount Amount of tokens to approve.\n    function _approveToken(\n        address _token,\n        address _spender,\n        uint256 _amount\n    ) internal {\n        if (IERC20(_token).allowance(address(this), _spender) > 0) {\n            IERC20(_token).safeApprove(_spender, 0);\n            IERC20(_token).safeApprove(_spender, _amount);\n        } else IERC20(_token).safeApprove(_spender, _amount);\n    }\n\n    /// @dev Function that returns the address of the Curve Registry contract.\n    function getRegistry() internal view returns (address) {\n        return ICrvAddressProvider(crvAddressProvider).get_registry();\n    }\n\n    /// @dev Function to deposit DAI | USDC | USDT to Curve 3 Pool.\n    /// @param assets Address List of the token.\n    /// @param amounts Amount List of the token.\n    /// @param min_mint_amount Min amount of 3Crv tokens expected.\n    function depositToCurve3Pool(\n        address[3] memory assets,\n        uint256[3] memory amounts,\n        uint256 min_mint_amount\n    ) internal returns (uint256) {\n\n        address pool = ICrvRegistry(getRegistry()).get_pool_from_lp_token(\n            crv3Token\n        );\n        for (uint256 i = 0; i < assets.length; i++) {\n            if (amounts[i] > 0) _approveToken(assets[i], pool, amounts[i]);\n        }\n        uint256 crv3TokenBefore = IERC20(crv3Token).balanceOf(address(this));\n        ICrv3Pool(pool).add_liquidity(amounts, min_mint_amount);\n        uint256 crv3TokenAfter = IERC20(crv3Token).balanceOf(address(this));\n        uint256 returnAmount = crv3TokenAfter.sub(crv3TokenBefore);\n        return returnAmount;\n    }\n\n    function calculateSlippage(\n        address fromToken,\n        address toToken,\n        uint256 amount,\n        uint256 slippagePercent\n    ) internal view returns (uint256) {\n        uint256 fromTokenUSD = IAPContract(APContract).getUSDPrice(fromToken);\n        uint256 toTokenUSD = IAPContract(APContract).getUSDPrice(toToken);\n        uint256 fromTokenAmountDecimals = IHexUtils(\n            IAPContract(APContract).stringUtils()\n        ).toDecimals(fromToken, amount);\n\n        uint256 expectedToTokenDecimal = (\n            fromTokenAmountDecimals.mul(fromTokenUSD)\n        ).div(toTokenUSD);\n        uint256 expectedToToken = IHexUtils(\n            IAPContract(APContract).stringUtils()\n        ).fromDecimals(toToken, expectedToTokenDecimal);\n        uint256 minReturn = expectedToToken - //SLIPPAGE\n            expectedToToken.mul(slippagePercent).div(10000);\n        return minReturn;\n    }\n\n    function strictExchangeToken(\n        address fromToken,\n        address toToken,\n        uint256 amount\n    ) internal returns (uint256) {\n        uint256 exchangeReturn;\n        IExchangeRegistry exchangeRegistry = IExchangeRegistry(\n            IAPContract(APContract).exchangeRegistry()\n        );\n        address exchange = exchangeRegistry.getPair(fromToken, toToken);\n        require(exchange != address(0), \"Exchange pair not present\");\n        exchangeReturn = exchangeToken(fromToken, toToken, amount);\n        return exchangeReturn;\n    }\n\n    /// @dev Function to exchange from one token to another.\n    /// @param fromToken Address of from token.\n    /// @param toToken Address of target token.\n    /// @param amount Amount of tokens to exchange.\n    function exchangeToken(\n        address fromToken,\n        address toToken,\n        uint256 amount\n    ) internal returns (uint256) {\n        uint256 exchangeReturn;\n        IExchangeRegistry exchangeRegistry = IExchangeRegistry(\n            IAPContract(APContract).exchangeRegistry()\n        );\n        address exchange = exchangeRegistry.getPair(fromToken, toToken);\n        if (exchange == address(0)) {\n            exchangeReturn = uint256(0);\n        } else {\n            uint256 minReturn = calculateSlippage(\n                fromToken,\n                toToken,\n                amount,\n                slippageSwap\n            );\n\n            _approveToken(fromToken, exchange, amount);\n            exchangeReturn = IExchange(exchange).swap(\n                fromToken,\n                toToken,\n                amount,\n                minReturn\n            );\n        }\n        return exchangeReturn;\n    }\n\n    /// @dev Function to handle tokens other than DAI | USDC | USDT.\n    /// @param otherAssets Address List of tokens.\n    /// @param otherAmounts Amount List of tokens.\n    function handleOtherTokens(\n        address[] memory otherAssets,\n        uint256[] memory otherAmounts\n    )\n        internal\n        returns (\n            uint256,\n            uint256,\n            uint256,\n            uint256\n        )\n    {\n        (address crvLPToken, address boosterDepositToken, , , , ) = IConvex(\n            convexDeposit\n        ).poolInfo(poolInfoID);\n        uint256 underlyingTokens;\n        uint256 crv3Tokens;\n        uint256 baseTokens;\n        uint256 cvxTokens;\n        for (uint256 i = 0; i < otherAssets.length; i++) {\n            if (otherAssets[i] == crvLPToken)\n                underlyingTokens += otherAmounts[i];\n                //revert(\"asset is curlptoken\"); //asset3CRV Token\n            else if (otherAssets[i] == baseToken)\n                baseTokens += otherAmounts[i]; //baseAsset token\n            else if (otherAssets[i] == crv3Token)\n                crv3Tokens += otherAmounts[i]; //3CRV Token\n            else if (otherAssets[i] == boosterDepositToken)\n                cvxTokens += otherAmounts[i]; //cvx deposit tokens\n            else {\n                crv3Tokens += strictExchangeToken(\n                    otherAssets[i],\n                    crv3Token,\n                    otherAmounts[i]\n                );\n            }\n        }\n        return (underlyingTokens, crv3Tokens, baseTokens, cvxTokens);\n    }\n\n    /// @dev Function to deposit 3Crv to Target Pool.\n    /// @param crv3Amount Amount of 3Crv tokens.\n    /// @param baseAmount Amount of base tokens.\n    function depositToTargetPool(uint256 crv3Amount, uint256 baseAmount)\n        internal\n        returns (uint256)\n    {\n        (address crvLPToken, , , , , ) = IConvex(convexDeposit).poolInfo(\n            poolInfoID\n        );\n        uint256 min_mint_amount;\n        address pool = ICrvRegistry(getRegistry()).get_pool_from_lp_token(\n            crvLPToken\n        );\n        uint256[2] memory poolNCoins = ICrvRegistry(getRegistry()).get_n_coins(\n            pool\n        );\n        address[8] memory poolCoins = ICrvRegistry(getRegistry()).get_coins(\n            pool\n        );\n        uint256 index = poolNCoins[0];\n        uint256[2] memory amounts;\n\n        for (uint256 i = 0; i < index; i++) {\n            if (poolCoins[i] == crv3Token) {\n                amounts[i] = crv3Amount;\n                if (crv3Amount > 0) {\n                    _approveToken(crv3Token, pool, crv3Amount);\n                    min_mint_amount += calculateSlippage(\n                        crv3Token,\n                        crvLPToken,\n                        crv3Amount,\n                        slippage\n                    );\n                }\n            } else if (poolCoins[i] == baseToken) {\n                amounts[i] = baseAmount;\n                if (baseAmount > 0) {\n                    _approveToken(baseToken, pool, baseAmount);\n                    min_mint_amount += calculateSlippage(\n                        baseToken,\n                        crvLPToken,\n                        baseAmount,\n                        slippage\n                    );\n                }\n            }\n        }\n        uint256 underlyingBefore = IERC20(crvLPToken).balanceOf(address(this));\n        ICrvPool(pool).add_liquidity(amounts, min_mint_amount);\n        uint256 underlyingAfter = IERC20(crvLPToken).balanceOf(address(this));\n        return underlyingAfter.sub(underlyingBefore);\n    }\n\n    /// @dev Function to Deposit to convex\n    /// @param amount amount to deposit.\n    function depositToCVX(uint256 amount) internal returns (uint256) {\n        (address crvLPToken, , , , , ) = IConvex(convexDeposit).poolInfo(\n            poolInfoID\n        );\n        _approveToken(crvLPToken, convexDeposit, amount);\n        bool status = IConvex(convexDeposit).deposit(poolInfoID, amount, true);\n        if (status) return amount;\n        else revert(\"Deposit to CVX Failed\");\n    }\n\n    /// @dev Function to stake to convex\n    /// @param amount amount to deposit.\n    function stakeToCVX(uint256 amount) internal returns (uint256) {\n        (, , , address baseRewards, , ) = IConvex(convexDeposit).poolInfo(\n            poolInfoID\n        );\n        IRewards(baseRewards).stakeFor(address(this), amount); //adrs(this) receive staking token\n        revert(\"function reached at staketocvx\");\n        return amount;\n    }\n\n    /// @dev Function to handle strategy deposit function.\n    /// @param data Encoded parameters to be used.\n    function handleDeposit(bytes memory data) internal returns (uint256) {\n        uint256 crv3PoolReturn;\n        uint256 CVXUnderlyingReturn;\n        uint256 otherCVXUnderlyingReturn;\n        uint256 cvxStakedReturns;\n        uint256 CVXUnderlyingTokens;\n        uint256 other3CrvReturn;\n        uint256 otherBaseReturn;\n        uint256 cvxTokens;\n        (\n            address[3] memory crv3Assets,\n            uint256[3] memory crv3Amounts,\n            uint256 min3CrvMint,\n            address[] memory otherAssets,\n            uint256[] memory otherAmounts\n        ) = abi.decode(\n                data,\n                (address[3], uint256[3], uint256, address[], uint256[])\n            );\n\n        if (min3CrvMint > 0) {\n            crv3PoolReturn = depositToCurve3Pool( //3crv token\n                crv3Assets,\n                crv3Amounts,\n                min3CrvMint\n            );\n        }\n\n        if (otherAssets.length > 0) {\n            (\n                otherCVXUnderlyingReturn, //asset 3crv token\n                other3CrvReturn, //3crv token\n                otherBaseReturn, //asset token\n                cvxTokens\n            ) = handleOtherTokens(otherAssets, otherAmounts);\n        }\n\n        if (crv3PoolReturn + other3CrvReturn > 0 || otherBaseReturn > 0)\n            CVXUnderlyingReturn = depositToTargetPool( //asset 3crv token\n                crv3PoolReturn + other3CrvReturn,\n                otherBaseReturn\n            );\n\n        if (CVXUnderlyingReturn + otherCVXUnderlyingReturn > 0) //deposis crvLptoken into cvx\n            CVXUnderlyingTokens = depositToCVX(\n                CVXUnderlyingReturn + otherCVXUnderlyingReturn\n            );\n            //CVXUnderlyingTokens contain hw many crvLPtokens have been deposited to convex\n        if (cvxTokens > 0) cvxStakedReturns = stakeToCVX(cvxTokens);\n        return cvxStakedReturns + CVXUnderlyingTokens;\n    }\n\n    /// @dev Function to deposit into strategy.\n    /// @param _depositAssets Address List of total assets being deposited.\n    /// @param _amounts Amounts List of total assets being deposited.\n    /// @param data Encoded parameters to be used.\n    function deposit(\n        address[] calldata _depositAssets,\n        uint256[] calldata _amounts,\n        bytes calldata data\n    ) external onlyRegisteredVault{\n        (address crvLPToken, , , , , bool shutdown) = IConvex(convexDeposit)\n            .poolInfo(poolInfoID);\n\n        require(shutdown != true, \"Pool shutdown\");\n        address pool = ICrvRegistry(getRegistry()).get_pool_from_lp_token(\n            crvLPToken\n        );\n        require(pool != address(0), \"pool not present\");\n\n        for (uint256 i = 0; i < _depositAssets.length; i++) {\n            if (_amounts[i] > 0) {\n                IERC20(_depositAssets[i]).safeTransferFrom(\n                    msg.sender,\n                    address(this),\n                    _amounts[i]\n                );\n            }\n        }\n        uint256 cvxPoolTokens = handleDeposit(data);  //(cvxrlyingstakedReturn+cnvunderlyngToken)\n\n       // return(cvxPoolTokens);\n        uint256 _shares;\n        if (totalSupply() == 0) _shares = cvxPoolTokens;\n        else _shares = getMintValue(getDepositNAV(crvLPToken, cvxPoolTokens));\n        protocolBalance += cvxPoolTokens;\n\n        if (_shares > 0) _mint(msg.sender, _shares);\n    }\n\n    /// @dev Function to calculate the strategy tokens to be minted for given nav.\n    /// @param depositNAV NAV for the amount.\n    function getMintValue(uint256 depositNAV) internal view returns (uint256) {\n        return (depositNAV.mul(totalSupply())).div(getStrategyNAV());\n    }\n\n\n    /// @dev Function to calculate the NAV of strategy for a subscribed vault | if the msg.sender is\n    function getStrategyNAV() public view returns (uint256) {\n        (address crvLPToken, , , , , ) = IConvex(convexDeposit).poolInfo(\n            poolInfoID\n        );\n\n        uint256 cvxbal = IRewards(convexRewardContract).balanceOf(\n            address(this)\n        ); //bal of cvx\n        uint256 cvxcrvbal = IRewards(cvxcrvRewardContract).balanceOf(\n            address(this)\n        ); //crvbal\n        if (protocolBalance >0 || cvxbal > 0 || cvxcrvbal > 0) {\n\n            uint256 tokenUSD = IAPContract(APContract).getUSDPrice(crvLPToken);\n\n            //balance of lpToken\n            uint256 lpBal = IHexUtils(IAPContract(APContract).stringUtils())\n                .toDecimals(crvLPToken, protocolBalance);\n            // //price of cvx and cvxcrv in USD\n            uint256 cvxUSD = IAPContract(APContract).getUSDPrice(cvx);\n            // uint256 cvxcrvUSD = IAPContract(APContract).getUSDPrice(cvxcrv); //Uncomment in production\n            uint256 cvxcrvUSD = IAPContract(APContract).getUSDPrice(crv);\n\n\n                uint256 balance = ((lpBal.mul(tokenUSD)) +\n                (cvxbal.mul(cvxUSD)) +\n                (cvxcrvbal.mul(cvxcrvUSD))); //total balance\n                return (balance).div(1e18);\n\n            /**\n            1) get balanceOf cvxCRV and CVX of this strategy.\n            2) Normalize the returned balance using hex utils (using the same method as shown above)\n            3) get usd price of cvxCRV and CVX\n            4) now, get the total prices of both the tokens and add it to the strategy nav.\n             */\n        } \n        else return 0;\n    }\n\n    /// @dev Function to calculate the NAV of a given token and amount.\n    /// @param _tokenAddress Address of the deposit token.\n    /// @param _amount Amount of deposit token.\n    function getDepositNAV(address _tokenAddress, uint256 _amount)\n        public\n        view\n        returns (uint256)\n    {\n        uint256 tokenUSD = IAPContract(APContract).getUSDPrice(_tokenAddress);\n        return\n            (\n                IHexUtils(IAPContract(APContract).stringUtils())\n                    .toDecimals(_tokenAddress, _amount)\n                    .mul(tokenUSD)\n            ).div(1e18);\n    }\n\n    function tokenValueInUSD() external view returns (uint256) {\n        if (getStrategyNAV() == 0 || totalSupply() == 0) return 0;\n        else return (getStrategyNAV().mul(1e18)).div(totalSupply());\n    }\n\n    //calculate reward of convex reward pool\n    // function calculateReward()\n    //     public\n    //     view\n    //     returns (address[] memory, uint256[] memory)\n    // {\n    //     address[] memory extraRewards = new address[](1);  //convexToken //cvx\n    //     uint256[] memory extraRewardsValue = new uint256[](1);\n    //     extraRewardsValue[0] = IRewards(convexRewardContract).earned(\n    //         address(this)\n    //     );\n    //     extraRewards[0] = cvx;\n\n    //     return (extraRewards, extraRewardsValue);\n    // }\n\n    \n    //calculate reward of base pool and cvxcrv pool\n    // function calculateReward(address rewardContract,uint256 crvReward, uint256 cvxReward) ///TODO Move to backend monitor\n    //     public\n    //     view\n    //     returns (address[] memory, uint256[] memory)\n    // {\n    //     uint256 crvReward = IRewards(rewardContract).earned(address(this));\n    //     uint256 cvxReward = getRewardValue(crvReward);\n\n    //     uint256 extraRewardLength = IRewards(rewardContract)\n    //         .extraRewardsLength();\n    //     address[] memory extraRewards = new address[](extraRewardLength + 2);\n    //     uint256[] memory extraRewardsValue = new uint256[](\n    //         extraRewardLength + 2\n    //     );\n\n    //     extraRewardsValue[0] = crvReward;\n    //     extraRewardsValue[1] = cvxReward;\n    //     extraRewards[0] = crv;\n    //     extraRewards[1] = cvx;\n\n    //     if (extraRewardLength > 0) {\n    //         address user = address(this);\n    //         for (uint256 i = 2; i < extraRewardLength + 2; i++) {\n    //             extraRewardsValue[i] = IRewards(\n    //                 IRewards(rewardContract).extraRewards(i)\n    //             ).earned(user);\n    //             extraRewards[i] = IRewards(\n    //                 IRewards(rewardContract).extraRewards(i)\n    //             ).rewardToken();\n    //         }\n    //     }\n\n    //     return (extraRewards, extraRewardsValue);\n    // }\n\n    // function to get amount of cvx minted\n    // function getRewardValue(uint256 rewardEarned)\n    //     internal\n    //     view\n    //     returns (uint256)\n    // {\n    //     if (rewardEarned > 0) {\n    //         address minter = IConvex(convexDeposit).minter();\n    //         uint256 supply = ITokenMinter(minter).totalSupply();\n    //         if (supply == 0) {\n    //             return rewardEarned;\n    //         }\n\n    //         uint256 reductionPerCliff = ITokenMinter(minter)\n    //             .reductionPerCliff();\n    //         uint256 cliff = supply.div(reductionPerCliff);\n    //         uint256 totalCliffs = ITokenMinter(minter).totalCliffs();\n    //         if (cliff < totalCliffs) {\n    //             uint256 reduction = totalCliffs.sub(cliff);\n    //             //reduce\n    //             rewardEarned = rewardEarned.mul(reduction).div(totalCliffs);\n    //             //supply cap check\n    //             uint256 amtTillMax = ITokenMinter(minter).maxSupply().sub(\n    //                 supply\n    //             );\n    //             if (rewardEarned > amtTillMax) {\n    //                 rewardEarned = amtTillMax;\n    //             }\n    //             return rewardEarned;\n    //         }\n    //         return 0;\n    //     } else {\n    //         return 0;\n    //     }\n    // }\n\n    //function to convert crv to cvxCRV\n    function getcvxCRV() internal {\n        uint256 crvAmount = IERC20(crv).balanceOf(address(this));\n        _approveToken(crv, crvDepositContract, crvAmount);\n        IcrvDeposit(crvDepositContract).depositAll(false, address(0));\n    }\n\n    //function to stake token to corresponding reard contract\n    function stakeAll(address token, address stakeRewardContract) internal {\n        uint256 tokenAmount = IERC20(token).balanceOf(address(this));\n        _approveToken(token, stakeRewardContract, tokenAmount);\n        IStake(stakeRewardContract).stakeAll();\n    }\n\n    //function to stake cvx into cvx Reward contract\n    function stakeCVX() internal {\n        stakeAll(cvx, convexRewardContract);\n    }\n\n    //function to stake cvxCRV into cvxCRV Reward contract\n    function stakecvxCRV() internal {\n        stakeAll(cvxcrv, cvxcrvRewardContract);\n    }\n\n    // function to harvest from every contracts\n    function harvest() external {\n        getRewardFromBasePool();\n        getRewardFromConvexReward();\n        getRewardFromcvxCRVReward();\n    }\n\n    // function to stake all rewards\n    function stake() external {\n        (, , , address crvRewards, , ) = IConvex(convexDeposit).poolInfo(\n            poolInfoID\n        );\n\n        //convert crv to cvxcrv\n        if (IERC20(crv).balanceOf(address(this)) > 0) getcvxCRV();\n        // stake cvxcrv\n        if (IERC20(cvxcrv).balanceOf(address(this)) > 0) stakecvxCRV();\n        //stake cvx\n        if (IERC20(cvx).balanceOf(address(this)) > 0) stakeCVX();\n        // convert extra rewards into 3crv\n        uint256 extraRewardLength = IRewards(crvRewards).extraRewardsLength();\n        if (extraRewardLength > 0) {\n            for (uint256 i = 0; i < extraRewardLength; i++) {\n                address token = IRewards(IRewards(crvRewards).extraRewards(i))\n                    .rewardToken();\n                uint256 extraRewardAmount = IERC20(token).balanceOf(\n                    address(this)\n                );\n                if (extraRewardAmount > 0) {\n                    uint256 exchanged = exchangeToken(\n                        token,\n                        crv3Token,\n                        extraRewardAmount\n                    );\n                }\n            }\n        }\n\n        uint256 CVXUnderlyingTokens;\n        uint256 crv3TokenAmount = IERC20(crv3Token).balanceOf(address(this));\n\n        if (crv3TokenAmount > 0) {\n            //convert 3crv to lp tokenAmount //TODO:- add to protocol balance. Refer how deposit function works.\n            uint256 CVXUnderlyingReturn = depositToTargetPool( //asset 3crv token\n                crv3TokenAmount,\n                0\n            );\n            protocolBalance += CVXUnderlyingReturn;\n            //deposit to base pool\n            CVXUnderlyingTokens = depositToCVX(CVXUnderlyingReturn);\n        }\n    }\n\n    // function to get reward from convex reward contract----cvxcrv reward token\n    function getRewardFromConvexReward() public {\n        IRewards(convexRewardContract).getReward(false);\n    }\n\n    //function to get reward from  cvxcrv reward contract --crv,3crv,cvx\n    function getRewardFromcvxCRVReward() public returns (bool) {\n        return getReward(address(this), cvxcrvRewardContract);\n    }\n\n    //function to get reward from base pool\n    function getRewardFromBasePool() public returns (bool) {\n        (, , , address crvRewards, , ) = IConvex(convexDeposit).poolInfo(\n            poolInfoID\n        );\n        return getReward(address(this), crvRewards);\n    }\n\n    // function to get reward from corresponding reward contract\n    function getReward(address user, address rewardContract)\n        internal\n        returns (bool)\n    {\n        bool success = IRewards(rewardContract).getReward(user, true);\n        return success;\n    }\n\n function withdrawFromConvexReward(uint256 _strategyTokenValueInUSD,address _withdrawalAsset) internal\n    returns(uint256,uint256,bool) {\n            \n            uint256 cvxTokenPriceInUSD = IAPContract(APContract).getUSDPrice(cvx);\n            uint256 cvxTokenCount = _strategyTokenValueInUSD.mul(1e18).div(cvxTokenPriceInUSD);\n            uint256 cvxTokensToWithdraw = IHexUtils(\n            IAPContract(APContract).stringUtils()).fromDecimals(cvx, cvxTokenCount);\n            //find cvx token balance in convex reward contract\n            uint256 cvxBalance = IRewards(convexRewardContract).balanceOf(address(this));\n            bool withdrawSatisfied=false;\n            //withdraw cvx from contract\n             uint256 cvxBalanceInStrategyBefore = IERC20(cvx).balanceOf(address(this));\n            if(cvxTokensToWithdraw >= cvxBalance){\n                IRewards(convexRewardContract).withdrawAll(false);\n            }else{\n                IRewards(convexRewardContract).withdraw(cvxTokensToWithdraw,false);\n                withdrawSatisfied = true;\n            }\n            \n            uint256 cvxBalanceInStrategy = IERC20(cvx).balanceOf(address(this)).sub(cvxBalanceInStrategyBefore);\n            uint256 exchangedAmount = strictExchangeToken(cvx,_withdrawalAsset,cvxBalanceInStrategy);\n            //reduce amount of strategy token that has too be withdrawn from base pool\n            uint256 cvxUSDPriceForShares = cvxBalanceInStrategy.mul(cvxTokenPriceInUSD);\n            return (exchangedAmount,cvxUSDPriceForShares,withdrawSatisfied);\n            // strategyTokenValueInUSD -= cvxUSDPriceForShares;\n    }\n\n    /// @dev Function to withdraw strategy shares.\n    /// @param _shares amount of strategy shares to withdraw.\n    /// @param _withdrawalAsset Address of the prefered withdrawal asset.\n    function withdraw(uint256 _shares, address _withdrawalAsset)\n        public\n        onlyRegisteredVault\n        returns (\n            bool,\n            address,\n            uint256\n        )\n    {   revert(\"hey at 780\");\n        require(balanceOf(msg.sender) >= _shares, \"Not enough shares\");\n        uint256 strategyTokenValueInUSD = (_shares.mul(getStrategyNAV())).div(\n            totalSupply()\n        );\n        uint256 shares = _shares;\n        address withdrawalAsset=_withdrawalAsset;\n        (\n            ,\n            ,\n            ,\n            ,\n            ,\n            bool shutdown\n        ) = IConvex(convexDeposit).poolInfo(poolInfoID);\n        require(shutdown != true, \"Pool shutdown\");\n        //to store cvx exchanged amount\n        uint256 cvxExchangedWithdrawAsset;\n\n        //initially take tokens from convex reward pool\n        //check if exchange pair for cvx to withdraw token is present\n        IExchangeRegistry exchangeRegistry = IExchangeRegistry(\n            IAPContract(APContract).exchangeRegistry()\n        );\n        // address exchange = exchangeRegistry.getPair(cvx, withdrawalAsset);\n        bool withdrawComplete;\n        if(exchangeRegistry.getPair(cvx, withdrawalAsset) != address(0)){\n            uint256 cvxUSDPriceForShares;\n            (cvxExchangedWithdrawAsset,cvxUSDPriceForShares,withdrawComplete) = withdrawFromConvexReward(strategyTokenValueInUSD,withdrawalAsset);\n            //reduce amount of strategy token that has too be withdrawn from base pool\n            strategyTokenValueInUSD -= cvxUSDPriceForShares;\n\n        }\n        //returns if entire token is available in convex reward contract\n        if(withdrawComplete){\n            IERC20(withdrawalAsset).safeTransfer(\n                    msg.sender,\n                    cvxExchangedWithdrawAsset\n                );\n                return (true, withdrawalAsset, cvxExchangedWithdrawAsset);\n        }\n\n        return (withdrawFromBasePool(withdrawalAsset,strategyTokenValueInUSD,cvxExchangedWithdrawAsset,shares));\n\n       \n        \n        \n    }\n\n    function withdrawFromBasePool(\n        address _withdrawalAsset,uint256 strategyTokenValueInUSD,uint256 _cvxExchangedWithdrawAsset,uint256 shares) \n        internal returns(bool,address,uint256){\n        \n        address withdrawalAsset=_withdrawalAsset;\n        (\n            address underlying,\n            address boosterDepositToken,\n            ,\n            address baseRewards,\n            ,\n            \n        ) = IConvex(convexDeposit).poolInfo(poolInfoID);\n\n        // uint256 protocolTokenUSD = IAPContract(APContract).getUSDPrice(\n        //     boosterDepositToken\n        // ); //UNCOMMENT IN PRODUCTION\n        uint256 protocolTokenUSD = IAPContract(APContract).getUSDPrice(\n            underlying\n        );\n        uint256 strategyValueInUSD = strategyTokenValueInUSD;\n        uint256 protocolTokenCount = strategyValueInUSD.mul(1e18).div(\n            protocolTokenUSD\n        );\n        uint256 protocolTokensToWithdraw = IHexUtils(\n            IAPContract(APContract).stringUtils()\n        ).fromDecimals(boosterDepositToken, protocolTokenCount);\n        _burn(msg.sender,shares);\n        protocolBalance -= protocolTokensToWithdraw;\n\n        if (\n            withdrawalAsset == address(0) ||\n            withdrawalAsset == boosterDepositToken\n        ) {\n            uint256 cvxExchangedWithdrawAsset = _cvxExchangedWithdrawAsset;\n            //Transfer deposit token directly to user\n            bool status = IRewards(baseRewards).withdraw(\n                protocolTokensToWithdraw,\n                false\n            );\n            require(status == true, \"Error in withdraw\");\n            uint256 amount = protocolTokensToWithdraw+cvxExchangedWithdrawAsset;\n            IERC20(boosterDepositToken).safeTransfer(\n                msg.sender,\n                amount\n            );\n            return (true, boosterDepositToken, amount);\n        } else {\n            uint256 cvxExchangedWithdrawAsset = _cvxExchangedWithdrawAsset;\n            bool status = IRewards(baseRewards).withdrawAndUnwrap(\n                protocolTokensToWithdraw,\n                false\n            );\n            require(status, \"Error in withdrawUnwrap\");\n            //Tranfer underlying crv lptoken to user\n            if (withdrawalAsset == underlying) {\n                uint256 amount = protocolTokensToWithdraw+cvxExchangedWithdrawAsset;\n                IERC20(underlying).safeTransfer(\n                    msg.sender,\n                    amount\n                );\n                return (true, underlying, amount);\n            }\n            //Transfer the base asset token to the user\n            else if (withdrawalAsset == baseToken) {\n                uint256 baseTokens = withdrawFromPool(\n                    baseToken,\n                    underlying,\n                    protocolTokensToWithdraw\n                );\n                uint256 amount = baseTokens+cvxExchangedWithdrawAsset;\n                IERC20(baseToken).safeTransfer(msg.sender, amount);\n                return (true, baseToken, amount);\n            } else {\n                \n\n                uint256 crv3Tokens = withdrawFromPool(\n                    crv3Token,\n                    underlying,\n                    protocolTokensToWithdraw\n                );\n                if (withdrawalAsset == crv3Token) {\n                    uint256 amount = crv3Tokens+cvxExchangedWithdrawAsset;\n                    IERC20(crv3Token).safeTransfer(msg.sender,amount);\n                    return (true, crv3Token, amount);\n                }\n                uint256 withdrawalTokens = strictExchangeToken(\n                    crv3Token,\n                    withdrawalAsset,\n                    crv3Tokens\n                );\n                uint256 amount = withdrawalTokens+cvxExchangedWithdrawAsset;\n                IERC20(withdrawalAsset).safeTransfer(\n                    msg.sender,\n                    amount\n                );\n                \n                return (true, withdrawalAsset, amount);\n            }\n        }\n\n    }\n \n\n    /// @dev Function to remove Liquidity from Curve pool into 3Crv.\n    /// @param lpToken Address of the LP token of the Curve pool.\n    /// @param amount Amount of LP tokens.\n    function withdrawFromPool(\n        address toToken,\n        address lpToken,\n        uint256 amount\n    ) internal returns (uint256) {\n        uint256 toTokenReturn;\n        address pool = ICrvRegistry(getRegistry()).get_pool_from_lp_token(\n            lpToken\n        );\n\n        uint256[2] memory poolNCoins = ICrvRegistry(getRegistry()).get_n_coins(\n            pool\n        );\n        address[8] memory poolCoins = ICrvRegistry(getRegistry()).get_coins(\n            pool\n        );\n        uint256 index = poolNCoins[0];\n\n        uint256 minReturn = calculateSlippage(\n            lpToken,\n            toToken,\n            amount,\n            slippage\n        );\n\n        for (uint256 i = 0; i < index; i++) {\n            if (poolCoins[i] == toToken) {\n                toTokenReturn = ICrvPool(pool).remove_liquidity_one_coin(\n                    amount,\n                    int128(int256(i)),\n                    minReturn\n                );\n            }\n        }\n\n        return toTokenReturn;\n    }\n\n    /// @dev Function to withdraw all shares from strategy.\n    /// @param _withdrawalAsset Address of the prefered withdrawal asset.\n    function withdrawAllToSafe(address _withdrawalAsset)\n        external\n        onlyRegisteredVault\n        returns (\n            bool,\n            address,\n            uint256\n        )\n    {\n        return withdraw(balanceOf(msg.sender), _withdrawalAsset);\n    }\n\n    /// @dev Function to use in an Emergency, when a token gets stuck in the strategy.\n    /// @param _tokenAddres Address of the token.\n    /// @param _tokenAmount Amount of the token.\n    function inCaseTokenGetsStuck(address _tokenAddres, uint256 _tokenAmount)\n        external\n    {\n        require(\n            msg.sender == IAPContract(APContract).yieldsterDAO(),\n            \"unauthorized\"\n        );\n        IERC20(_tokenAddres).safeTransfer(msg.sender, _tokenAmount);\n    }\n\n    function paybackExecutor(address beneficiary,uint256 gasTokenCount) external {\n        require(\n            address(this) ==\n                IAPContract(APContract).getStrategyFromMinter(msg.sender),\n            \"Only Strategy Minter\"\n        );\n        (address underlying, , , address baseRewards, , ) = IConvex(\n            convexDeposit\n        ).poolInfo(poolInfoID);\n\n        // uint256 gasTokenUSD = IAPContract(APContract).getUSDPrice(underlying);\n        // uint256 gasCostUSD = (\n        //     gasCost.mul(IAPContract(APContract).getUSDPrice(address(0)))\n        // ).div(1e18);\n        // uint256 gasTokenCount = IHexUtils(IAPContract(APContract).stringUtils())\n        //     .fromDecimals(underlying, (gasCostUSD.mul(1e18)).div(gasTokenUSD));\n\n        require(\n            gasTokenCount < IRewards(baseRewards).balanceOf(address(this)),\n            \"Amount to reimb > total\"\n        );\n        bool status = IRewards(baseRewards).withdrawAndUnwrap(\n            gasTokenCount,\n            false\n        );\n        require(status, \"Error in withdrawUnwrap\");\n        protocolBalance -= gasTokenCount;\n\n        IERC20(underlying).safeTransfer(beneficiary, gasTokenCount);\n    }\n}\n",
  "sourcePath": "/home/dxuser/Documents/scode/yieldster-vault/contracts/strategies/ConvexSingleAsset/ConvexCRV.sol",
  "compiler": {
    "name": "solc",
    "version": "0.5.17+commit.d19bba13.Emscripten.clang"
  },
  "schemaVersion": "3.4.4",
  "updatedAt": "2022-02-08T04:41:08.898Z",
  "devdoc": {
    "methods": {
      "allowance(address,address)": {
        "details": "See {IERC20-allowance}."
      },
      "approve(address,uint256)": {
        "details": "See {IERC20-approve}.     * Requirements:     * - `spender` cannot be the zero address."
      },
      "balanceOf(address)": {
        "details": "See {IERC20-balanceOf}."
      },
      "changeDepositContract(address)": {
        "details": "Function to change convex deposit contract",
        "params": {
          "_depositContractAddress": "Address of the new deposit contract"
        }
      },
      "deRegisterSafe()": {
        "details": "Function to unsubscribe a vault from the strategy."
      },
      "decimals()": {
        "details": "Returns the number of decimals used to get its user representation. For example, if `decimals` equals `2`, a balance of `505` tokens should be displayed to a user as `5,05` (`505 / 10 ** 2`).     * Tokens usually opt for a value of 18, imitating the relationship between Ether and Wei.     * NOTE: This information is only used for _display_ purposes: it in no way affects any of the arithmetic of the contract, including {IERC20-balanceOf} and {IERC20-transfer}."
      },
      "decreaseAllowance(address,uint256)": {
        "details": "Atomically decreases the allowance granted to `spender` by the caller.     * This is an alternative to {approve} that can be used as a mitigation for problems described in {IERC20-approve}.     * Emits an {Approval} event indicating the updated allowance.     * Requirements:     * - `spender` cannot be the zero address. - `spender` must have allowance for the caller of at least `subtractedValue`."
      },
      "deposit(address[],uint256[],bytes)": {
        "details": "Function to deposit into strategy.",
        "params": {
          "_amounts": "Amounts List of total assets being deposited.",
          "_depositAssets": "Address List of total assets being deposited.",
          "data": "Encoded parameters to be used."
        }
      },
      "getDepositNAV(address,uint256)": {
        "details": "Function to calculate the NAV of a given token and amount.",
        "params": {
          "_amount": "Amount of deposit token.",
          "_tokenAddress": "Address of the deposit token."
        }
      },
      "getStrategyNAV()": {
        "details": "Function to calculate the NAV of strategy for a subscribed vault | if the msg.sender is"
      },
      "inCaseTokenGetsStuck(address,uint256)": {
        "details": "Function to use in an Emergency, when a token gets stuck in the strategy.",
        "params": {
          "_tokenAddres": "Address of the token.",
          "_tokenAmount": "Amount of the token."
        }
      },
      "increaseAllowance(address,uint256)": {
        "details": "Atomically increases the allowance granted to `spender` by the caller.     * This is an alternative to {approve} that can be used as a mitigation for problems described in {IERC20-approve}.     * Emits an {Approval} event indicating the updated allowance.     * Requirements:     * - `spender` cannot be the zero address."
      },
      "name()": {
        "details": "Returns the name of the token."
      },
      "registerSafe()": {
        "details": "Function to subscribe a new vault to the strategy."
      },
      "setAPContract(address)": {
        "details": "Function to set the address of the Yieldster APS.",
        "params": {
          "_APContract": "Address of the APS Contract."
        }
      },
      "setConvexDeposit(address)": {
        "details": "Function to set the convex deposit contract",
        "params": {
          "_convexDeposit": "address of convex deposit contract"
        }
      },
      "setProtocol(uint256,address)": {
        "details": "Function to set convex pool to the strategy.",
        "params": {
          "_baseToken": "baseToken of the convex pool.",
          "_poolInfoID": "poolInfoID of the convex pool."
        }
      },
      "setSlippage(uint256)": {
        "details": "Function to set slippage settings when interacting with Curve pools.",
        "params": {
          "_slippage": "Slippage value."
        }
      },
      "setSlippageSwap(uint256)": {
        "details": "Function to set slippage settings when performing exchanges.",
        "params": {
          "_slippageSwap": "Slippage value."
        }
      },
      "symbol()": {
        "details": "Returns the symbol of the token, usually a shorter version of the name."
      },
      "totalSupply()": {
        "details": "See {IERC20-totalSupply}."
      },
      "transfer(address,uint256)": {
        "details": "See {IERC20-transfer}.     * Requirements:     * - `recipient` cannot be the zero address. - the caller must have a balance of at least `amount`."
      },
      "transferFrom(address,address,uint256)": {
        "details": "See {IERC20-transferFrom}.     * Emits an {Approval} event indicating the updated allowance. This is not required by the EIP. See the note at the beginning of {ERC20};     * Requirements: - `sender` and `recipient` cannot be the zero address. - `sender` must have a balance of at least `amount`. - the caller must have allowance for `sender`'s tokens of at least `amount`."
      },
      "withdraw(uint256,address)": {
        "details": "Function to withdraw strategy shares.",
        "params": {
          "_shares": "amount of strategy shares to withdraw.",
          "_withdrawalAsset": "Address of the prefered withdrawal asset."
        }
      },
      "withdrawAllToSafe(address)": {
        "details": "Function to withdraw all shares from strategy.",
        "params": {
          "_withdrawalAsset": "Address of the prefered withdrawal asset."
        }
      }
    }
  },
  "userdoc": {
    "methods": {}
  }
}