{
  "contractName": "EuroPlus",
  "abi": [
    {
      "inputs": [
        {
          "internalType": "address",
          "name": "_APContract",
          "type": "address"
        },
        {
          "internalType": "address",
          "name": "_protocol",
          "type": "address"
        },
        {
          "internalType": "address[]",
          "name": "_poolTokens",
          "type": "address[]"
        }
      ],
      "payable": false,
      "stateMutability": "nonpayable",
      "type": "constructor"
    },
    {
      "anonymous": false,
      "inputs": [
        {
          "indexed": true,
          "internalType": "address",
          "name": "owner",
          "type": "address"
        },
        {
          "indexed": true,
          "internalType": "address",
          "name": "spender",
          "type": "address"
        },
        {
          "indexed": false,
          "internalType": "uint256",
          "name": "value",
          "type": "uint256"
        }
      ],
      "name": "Approval",
      "type": "event"
    },
    {
      "anonymous": false,
      "inputs": [
        {
          "indexed": true,
          "internalType": "address",
          "name": "from",
          "type": "address"
        },
        {
          "indexed": true,
          "internalType": "address",
          "name": "to",
          "type": "address"
        },
        {
          "indexed": false,
          "internalType": "uint256",
          "name": "value",
          "type": "uint256"
        }
      ],
      "name": "Transfer",
      "type": "event"
    },
    {
      "constant": true,
      "inputs": [],
      "name": "APContract",
      "outputs": [
        {
          "internalType": "address",
          "name": "",
          "type": "address"
        }
      ],
      "payable": false,
      "stateMutability": "view",
      "type": "function"
    },
    {
      "constant": true,
      "inputs": [
        {
          "internalType": "address",
          "name": "owner",
          "type": "address"
        },
        {
          "internalType": "address",
          "name": "spender",
          "type": "address"
        }
      ],
      "name": "allowance",
      "outputs": [
        {
          "internalType": "uint256",
          "name": "",
          "type": "uint256"
        }
      ],
      "payable": false,
      "stateMutability": "view",
      "type": "function"
    },
    {
      "constant": false,
      "inputs": [
        {
          "internalType": "address",
          "name": "spender",
          "type": "address"
        },
        {
          "internalType": "uint256",
          "name": "amount",
          "type": "uint256"
        }
      ],
      "name": "approve",
      "outputs": [
        {
          "internalType": "bool",
          "name": "",
          "type": "bool"
        }
      ],
      "payable": false,
      "stateMutability": "nonpayable",
      "type": "function"
    },
    {
      "constant": true,
      "inputs": [
        {
          "internalType": "address",
          "name": "account",
          "type": "address"
        }
      ],
      "name": "balanceOf",
      "outputs": [
        {
          "internalType": "uint256",
          "name": "",
          "type": "uint256"
        }
      ],
      "payable": false,
      "stateMutability": "view",
      "type": "function"
    },
    {
      "constant": true,
      "inputs": [],
      "name": "decimals",
      "outputs": [
        {
          "internalType": "uint8",
          "name": "",
          "type": "uint8"
        }
      ],
      "payable": false,
      "stateMutability": "view",
      "type": "function"
    },
    {
      "constant": false,
      "inputs": [
        {
          "internalType": "address",
          "name": "spender",
          "type": "address"
        },
        {
          "internalType": "uint256",
          "name": "subtractedValue",
          "type": "uint256"
        }
      ],
      "name": "decreaseAllowance",
      "outputs": [
        {
          "internalType": "bool",
          "name": "",
          "type": "bool"
        }
      ],
      "payable": false,
      "stateMutability": "nonpayable",
      "type": "function"
    },
    {
      "constant": false,
      "inputs": [
        {
          "internalType": "address",
          "name": "spender",
          "type": "address"
        },
        {
          "internalType": "uint256",
          "name": "addedValue",
          "type": "uint256"
        }
      ],
      "name": "increaseAllowance",
      "outputs": [
        {
          "internalType": "bool",
          "name": "",
          "type": "bool"
        }
      ],
      "payable": false,
      "stateMutability": "nonpayable",
      "type": "function"
    },
    {
      "constant": true,
      "inputs": [],
      "name": "name",
      "outputs": [
        {
          "internalType": "string",
          "name": "",
          "type": "string"
        }
      ],
      "payable": false,
      "stateMutability": "view",
      "type": "function"
    },
    {
      "constant": true,
      "inputs": [],
      "name": "owner",
      "outputs": [
        {
          "internalType": "address",
          "name": "",
          "type": "address"
        }
      ],
      "payable": false,
      "stateMutability": "view",
      "type": "function"
    },
    {
      "constant": true,
      "inputs": [],
      "name": "protocol",
      "outputs": [
        {
          "internalType": "address",
          "name": "",
          "type": "address"
        }
      ],
      "payable": false,
      "stateMutability": "view",
      "type": "function"
    },
    {
      "constant": true,
      "inputs": [],
      "name": "protocolBalance",
      "outputs": [
        {
          "internalType": "uint256",
          "name": "",
          "type": "uint256"
        }
      ],
      "payable": false,
      "stateMutability": "view",
      "type": "function"
    },
    {
      "constant": true,
      "inputs": [],
      "name": "slippage",
      "outputs": [
        {
          "internalType": "uint256",
          "name": "",
          "type": "uint256"
        }
      ],
      "payable": false,
      "stateMutability": "view",
      "type": "function"
    },
    {
      "constant": true,
      "inputs": [],
      "name": "slippageSwap",
      "outputs": [
        {
          "internalType": "uint256",
          "name": "",
          "type": "uint256"
        }
      ],
      "payable": false,
      "stateMutability": "view",
      "type": "function"
    },
    {
      "constant": true,
      "inputs": [],
      "name": "symbol",
      "outputs": [
        {
          "internalType": "string",
          "name": "",
          "type": "string"
        }
      ],
      "payable": false,
      "stateMutability": "view",
      "type": "function"
    },
    {
      "constant": true,
      "inputs": [],
      "name": "totalSupply",
      "outputs": [
        {
          "internalType": "uint256",
          "name": "",
          "type": "uint256"
        }
      ],
      "payable": false,
      "stateMutability": "view",
      "type": "function"
    },
    {
      "constant": false,
      "inputs": [
        {
          "internalType": "address",
          "name": "recipient",
          "type": "address"
        },
        {
          "internalType": "uint256",
          "name": "amount",
          "type": "uint256"
        }
      ],
      "name": "transfer",
      "outputs": [
        {
          "internalType": "bool",
          "name": "",
          "type": "bool"
        }
      ],
      "payable": false,
      "stateMutability": "nonpayable",
      "type": "function"
    },
    {
      "constant": false,
      "inputs": [
        {
          "internalType": "address",
          "name": "sender",
          "type": "address"
        },
        {
          "internalType": "address",
          "name": "recipient",
          "type": "address"
        },
        {
          "internalType": "uint256",
          "name": "amount",
          "type": "uint256"
        }
      ],
      "name": "transferFrom",
      "outputs": [
        {
          "internalType": "bool",
          "name": "",
          "type": "bool"
        }
      ],
      "payable": false,
      "stateMutability": "nonpayable",
      "type": "function"
    },
    {
      "constant": false,
      "inputs": [
        {
          "internalType": "address",
          "name": "_protocol",
          "type": "address"
        },
        {
          "internalType": "address[]",
          "name": "addPoolTokens",
          "type": "address[]"
        },
        {
          "internalType": "address[]",
          "name": "removePoolTokens",
          "type": "address[]"
        }
      ],
      "name": "setProtocol",
      "outputs": [],
      "payable": false,
      "stateMutability": "nonpayable",
      "type": "function"
    },
    {
      "constant": false,
      "inputs": [
        {
          "internalType": "uint256",
          "name": "_slippageSwap",
          "type": "uint256"
        }
      ],
      "name": "setSlippageSwap",
      "outputs": [],
      "payable": false,
      "stateMutability": "nonpayable",
      "type": "function"
    },
    {
      "constant": false,
      "inputs": [
        {
          "internalType": "uint256",
          "name": "_slippage",
          "type": "uint256"
        }
      ],
      "name": "setSlippage",
      "outputs": [],
      "payable": false,
      "stateMutability": "nonpayable",
      "type": "function"
    },
    {
      "constant": false,
      "inputs": [
        {
          "internalType": "address",
          "name": "_APContract",
          "type": "address"
        }
      ],
      "name": "setAPContract",
      "outputs": [],
      "payable": false,
      "stateMutability": "nonpayable",
      "type": "function"
    },
    {
      "constant": false,
      "inputs": [],
      "name": "registerSafe",
      "outputs": [],
      "payable": false,
      "stateMutability": "nonpayable",
      "type": "function"
    },
    {
      "constant": false,
      "inputs": [],
      "name": "deRegisterSafe",
      "outputs": [],
      "payable": false,
      "stateMutability": "nonpayable",
      "type": "function"
    },
    {
      "constant": false,
      "inputs": [
        {
          "internalType": "address[]",
          "name": "_depositAssets",
          "type": "address[]"
        },
        {
          "internalType": "uint256[]",
          "name": "_amounts",
          "type": "uint256[]"
        },
        {
          "internalType": "bytes",
          "name": "data",
          "type": "bytes"
        }
      ],
      "name": "deposit",
      "outputs": [],
      "payable": false,
      "stateMutability": "nonpayable",
      "type": "function"
    },
    {
      "constant": true,
      "inputs": [
        {
          "internalType": "uint256",
          "name": "depositNAV",
          "type": "uint256"
        }
      ],
      "name": "getMintValue",
      "outputs": [
        {
          "internalType": "uint256",
          "name": "",
          "type": "uint256"
        }
      ],
      "payable": false,
      "stateMutability": "view",
      "type": "function"
    },
    {
      "constant": true,
      "inputs": [],
      "name": "getStrategyNAV",
      "outputs": [
        {
          "internalType": "uint256",
          "name": "",
          "type": "uint256"
        }
      ],
      "payable": false,
      "stateMutability": "view",
      "type": "function"
    },
    {
      "constant": true,
      "inputs": [
        {
          "internalType": "address",
          "name": "_tokenAddress",
          "type": "address"
        },
        {
          "internalType": "uint256",
          "name": "_amount",
          "type": "uint256"
        }
      ],
      "name": "getDepositNAV",
      "outputs": [
        {
          "internalType": "uint256",
          "name": "",
          "type": "uint256"
        }
      ],
      "payable": false,
      "stateMutability": "view",
      "type": "function"
    },
    {
      "constant": true,
      "inputs": [],
      "name": "tokenValueInUSD",
      "outputs": [
        {
          "internalType": "uint256",
          "name": "",
          "type": "uint256"
        }
      ],
      "payable": false,
      "stateMutability": "view",
      "type": "function"
    },
    {
      "constant": false,
      "inputs": [
        {
          "internalType": "uint256",
          "name": "_shares",
          "type": "uint256"
        },
        {
          "internalType": "address",
          "name": "_withrawalAsset",
          "type": "address"
        }
      ],
      "name": "withdraw",
      "outputs": [
        {
          "internalType": "bool",
          "name": "",
          "type": "bool"
        },
        {
          "internalType": "address",
          "name": "",
          "type": "address"
        },
        {
          "internalType": "uint256",
          "name": "",
          "type": "uint256"
        }
      ],
      "payable": false,
      "stateMutability": "nonpayable",
      "type": "function"
    },
    {
      "constant": false,
      "inputs": [
        {
          "internalType": "address",
          "name": "_withdrawalAsset",
          "type": "address"
        }
      ],
      "name": "withdrawAllToSafe",
      "outputs": [
        {
          "internalType": "bool",
          "name": "",
          "type": "bool"
        },
        {
          "internalType": "address",
          "name": "",
          "type": "address"
        },
        {
          "internalType": "uint256",
          "name": "",
          "type": "uint256"
        }
      ],
      "payable": false,
      "stateMutability": "nonpayable",
      "type": "function"
    },
    {
      "constant": false,
      "inputs": [
        {
          "internalType": "address",
          "name": "_tokenAddres",
          "type": "address"
        }
      ],
      "name": "inCaseTokenGetsStuck",
      "outputs": [],
      "payable": false,
      "stateMutability": "nonpayable",
      "type": "function"
    }
  ],
  "bytecode": "0x6080604052600780546001600160a01b0319166f22d53366457f9d5e68ec105046fc4383179055600a60085560326009553480156200003d57600080fd5b5060405162003f8838038062003f88833981810160405260608110156200006357600080fd5b815160208301516040808501805191519395929483019291846401000000008211156200008f57600080fd5b908301906020820185811115620000a557600080fd5b8251866020820283011164010000000082111715620000c357600080fd5b82525081516020918201928201910280838360005b83811015620000f2578181015183820152602001620000d8565b5050505090910160408181018152600782527f455552504c55530000000000000000000000000000000000000000000000000060208084019182528251808401909352600983527f4555524f20504c555300000000000000000000000000000000000000000000009083015282519296509094506012935062000179925060039162000257565b5081516200018f90600490602085019062000257565b50600580546001600160a01b0380891661010002610100600160a81b031960ff90951660ff199093169290921793909316179055600a80549186166001600160a01b031990921691909117905550600090505b81518110156200023a576001600c6000848481518110620001ff57fe5b6020908102919091018101516001600160a01b03168252810191909152604001600020805460ff1916911515919091179055600101620001e2565b5050600680546001600160a01b0319163317905550620002fc9050565b828054600181600116156101000203166002900490600052602060002090601f016020900481019282601f106200029a57805160ff1916838001178555620002ca565b82800160010185558215620002ca579182015b82811115620002ca578251825591602001919060010190620002ad565b50620002d8929150620002dc565b5090565b620002f991905b80821115620002d85760008155600101620002e3565b90565b613c7c806200030c6000396000f3fe608060405234801561001057600080fd5b50600436106101e45760003560e01c80635969326b1161010f57806395d89b41116100a2578063dd62ed3e11610071578063dd62ed3e146106f3578063ef0a4fd814610721578063f0fa55a91461073e578063f4837c111461075b576101e4565b806395d89b411461066d5780639a8eff9014610675578063a457c2d71461069b578063a9059cbb146106c7576101e4565b80637264a5de116100de5780637264a5de14610547578063776b50eb1461054f5780638ce744261461065d5780638da5cb5b14610665576101e4565b80635969326b1461050957806361e98db81461051157806362ebbeeb1461051957806370a0823114610521576101e4565b80632e8d6e18116101875780633e032a3b116101565780633e032a3b146104d457806350236130146104dc5780635354c8f1146104e457806355c1f82814610501576101e4565b80632e8d6e1814610440578063313ce56714610466578063338460271461048457806339509351146104a8576101e4565b806318160ddd116101c357806318160ddd146102fa57806323b872dd14610314578063241cb4681461034a57806327df32d914610370576101e4565b8062f714ce146101e957806306fdde031461023d578063095ea7b3146102ba575b600080fd5b610215600480360360408110156101ff57600080fd5b50803590602001356001600160a01b0316610787565b6040805193151584526001600160a01b03909216602084015282820152519081900360600190f35b610245610c35565b6040805160208082528351818301528351919283929083019185019080838360005b8381101561027f578181015183820152602001610267565b50505050905090810190601f1680156102ac5780820380516001836020036101000a031916815260200191505b509250505060405180910390f35b6102e6600480360360408110156102d057600080fd5b506001600160a01b038135169060200135610ccc565b604080519115158252519081900360200190f35b610302610cea565b60408051918252519081900360200190f35b6102e66004803603606081101561032a57600080fd5b506001600160a01b03813581169160208101359091169060400135610cf0565b6102156004803603602081101561036057600080fd5b50356001600160a01b0316610d7d565b61043e6004803603606081101561038657600080fd5b6001600160a01b038235169190810190604081016020820135600160201b8111156103b057600080fd5b8201836020820111156103c257600080fd5b803590602001918460208302840111600160201b831117156103e357600080fd5b919390929091602081019035600160201b81111561040057600080fd5b82018360208201111561041257600080fd5b803590602001918460208302840111600160201b8311171561043357600080fd5b509092509050610dfc565b005b61043e6004803603602081101561045657600080fd5b50356001600160a01b0316610f6f565b61046e6110c6565b6040805160ff9092168252519081900360200190f35b61048c6110cf565b604080516001600160a01b039092168252519081900360200190f35b6102e6600480360360408110156104be57600080fd5b506001600160a01b0381351690602001356110e3565b610302611137565b61030261113d565b61043e600480360360208110156104fa57600080fd5b5035611143565b61043e6111e6565b610302611202565b61030261125c565b610302611262565b6103026004803603602081101561053757600080fd5b50356001600160a01b031661141e565b61043e611439565b61043e6004803603606081101561056557600080fd5b810190602081018135600160201b81111561057f57600080fd5b82018360208201111561059157600080fd5b803590602001918460208302840111600160201b831117156105b257600080fd5b919390929091602081019035600160201b8111156105cf57600080fd5b8201836020820111156105e157600080fd5b803590602001918460208302840111600160201b8311171561060257600080fd5b919390929091602081019035600160201b81111561061f57600080fd5b82018360208201111561063157600080fd5b803590602001918460018302840111600160201b8311171561065257600080fd5b5090925090506114ae565b61048c61186c565b61048c61187b565b61024561188a565b61043e6004803603602081101561068b57600080fd5b50356001600160a01b03166118eb565b6102e6600480360360408110156106b157600080fd5b506001600160a01b03813516906020013561196c565b6102e6600480360360408110156106dd57600080fd5b506001600160a01b0381351690602001356119da565b6103026004803603604081101561070957600080fd5b506001600160a01b03813581169160200135166119ee565b6103026004803603602081101561073757600080fd5b5035611a19565b61043e6004803603602081101561075457600080fd5b5035611a3e565b6103026004803603604081101561077157600080fd5b506001600160a01b038135169060200135611ae1565b336000908152600d60205260408120548190819060ff166107e7576040805162461bcd60e51b81526020600482015260156024820152744e6f7420612072656769737465726564205361666560581b604482015290519081900360640190fd5b846107f13361141e565b1015610838576040805162461bcd60e51b81526020600482015260116024820152704e6f7420656e6f7567682073686172657360781b604482015290519081900360640190fd5b6000610869610845610cea565b61085d610850611262565b899063ffffffff611c7f16565b9063ffffffff611cdf16565b90506000600a60009054906101000a90046001600160a01b03166001600160a01b031663fc0c546a6040518163ffffffff1660e01b815260040160206040518083038186803b1580156108bb57600080fd5b505afa1580156108cf573d6000803e3d6000fd5b505050506040513d60208110156108e557600080fd5b5051600554600a5460408051638b2f0f4f60e01b81526001600160a01b039283166004820152905193945060009361010090930490911691638b2f0f4f91602480820192602092909190829003018186803b15801561094357600080fd5b505afa158015610957573d6000803e3d6000fd5b505050506040513d602081101561096d57600080fd5b50519050600061098f8261085d86670de0b6b3a764000063ffffffff611c7f16565b90506000600560019054906101000a90046001600160a01b03166001600160a01b0316635a72fee86040518163ffffffff1660e01b815260040160206040518083038186803b1580156109e157600080fd5b505afa1580156109f5573d6000803e3d6000fd5b505050506040513d6020811015610a0b57600080fd5b5051600a546040805163566ab92760e01b81526001600160a01b039283166004820152602481018690529051919092169163566ab927916044808301926020929190829003018186803b158015610a6157600080fd5b505afa158015610a75573d6000803e3d6000fd5b505050506040513d6020811015610a8b57600080fd5b50519050610a99338b611d21565b600b805482900390556001600160a01b0389161580610ac55750600a546001600160a01b038a81169116145b15610b0557600a54610ae7906001600160a01b0316338363ffffffff611e1d16565b600a54600198506001600160a01b031696509450610c2e9350505050565b600a5460408051632e1a7d4d60e01b81526004810184905290516000926001600160a01b031691632e1a7d4d91602480830192602092919082900301818787803b158015610b5257600080fd5b505af1158015610b66573d6000803e3d6000fd5b505050506040513d6020811015610b7c57600080fd5b505190506001600160a01b038a81169086161415610bc257610bae6001600160a01b038616338363ffffffff611e1d16565b60019850939650929450610c2e9350505050565b6001600160a01b038a166000908152600c602052604090205460ff1615610c21576000610bf08b8784611e74565b9050610c0c6001600160a01b038c16338363ffffffff611e1d16565b600199508a98509650610c2e95505050505050565b6000610bf0868c8461246c565b9250925092565b60038054604080516020601f6002600019610100600188161502019095169490940493840181900481028201810190925282815260609390929091830182828015610cc15780601f10610c9657610100808354040283529160200191610cc1565b820191906000526020600020905b815481529060010190602001808311610ca457829003601f168201915b505050505090505b90565b6000610ce0610cd96129ae565b84846129b2565b5060015b92915050565b60025490565b6000610cfd848484612a9e565b610d7384610d096129ae565b610d6e85604051806060016040528060288152602001613b31602891396001600160a01b038a16600090815260016020526040812090610d476129ae565b6001600160a01b03168152602081019190915260400160002054919063ffffffff612bfa16565b6129b2565b5060019392505050565b336000908152600d60205260408120548190819060ff16610ddd576040805162461bcd60e51b81526020600482015260156024820152744e6f7420612072656769737465726564205361666560581b604482015290519081900360640190fd5b610def610de93361141e565b85610787565b9250925092509193909250565b6006546001600160a01b03163314610e55576040805162461bcd60e51b815260206004820152601760248201527627b7363c903832b936b4ba3a32b2103a379037bbb732b960491b604482015290519081900360640190fd5b6001600160a01b038516610e9f576040805162461bcd60e51b815260206004820152600c60248201526b5a65726f206164647265737360a01b604482015290519081900360640190fd5b600a80546001600160a01b0319166001600160a01b03871617905560005b83811015610f10576001600c6000878785818110610ed757fe5b602090810292909201356001600160a01b0316835250810191909152604001600020805460ff1916911515919091179055600101610ebd565b5060005b81811015610f67576000600c6000858585818110610f2e57fe5b602090810292909201356001600160a01b0316835250810191909152604001600020805460ff1916911515919091179055600101610f14565b505050505050565b600560019054906101000a90046001600160a01b03166001600160a01b031663061776426040518163ffffffff1660e01b815260040160206040518083038186803b158015610fbd57600080fd5b505afa158015610fd1573d6000803e3d6000fd5b505050506040513d6020811015610fe757600080fd5b50516001600160a01b03163314611034576040805162461bcd60e51b815260206004820152600c60248201526b1d5b985d5d1a1bdc9a5e995960a21b604482015290519081900360640190fd5b604080516370a0823160e01b815230600482015290516110c39133916001600160a01b038516916370a08231916024808301926020929190829003018186803b15801561108057600080fd5b505afa158015611094573d6000803e3d6000fd5b505050506040513d60208110156110aa57600080fd5b50516001600160a01b038416919063ffffffff611e1d16565b50565b60055460ff1690565b60055461010090046001600160a01b031681565b6000610ce06110f06129ae565b84610d6e85600160006111016129ae565b6001600160a01b03908116825260208083019390935260409182016000908120918c16815292529020549063ffffffff612c9116565b60085481565b60095481565b6006546001600160a01b0316331461119c576040805162461bcd60e51b815260206004820152601760248201527627b7363c903832b936b4ba3a32b2103a379037bbb732b960491b604482015290519081900360640190fd5b61271081106111e1576040805162461bcd60e51b815260206004820152600c60248201526b212070657263656e7461676560a01b604482015290519081900360640190fd5b600955565b336000908152600d60205260409020805460ff19166001179055565b600061120c611262565b158061121d575061121b610cea565b155b1561122a57506000610cc9565b611255611235610cea565b61085d670de0b6b3a7640000611249611262565b9063ffffffff611c7f16565b9050610cc9565b600b5481565b600b546000901561141657600554600a5460408051638b2f0f4f60e01b81526001600160a01b0392831660048201529051600093610100900490921691638b2f0f4f91602480820192602092909190829003018186803b1580156112c557600080fd5b505afa1580156112d9573d6000803e3d6000fd5b505050506040513d60208110156112ef57600080fd5b505160055460408051630b4e5fdd60e31b815290519293506000926101009092046001600160a01b031691635a72fee891600480820192602092909190829003018186803b15801561134057600080fd5b505afa158015611354573d6000803e3d6000fd5b505050506040513d602081101561136a57600080fd5b5051600a54600b546040805163165013c360e31b81526001600160a01b039384166004820152602481019290925251919092169163b2809e18916044808301926020929190829003018186803b1580156113c357600080fd5b505afa1580156113d7573d6000803e3d6000fd5b505050506040513d60208110156113ed57600080fd5b5051905061140d670de0b6b3a764000061085d838563ffffffff611c7f16565b92505050610cc9565b506000610cc9565b6001600160a01b031660009081526020819052604090205490565b336000908152600d602052604090205460ff16611495576040805162461bcd60e51b81526020600482015260156024820152744e6f7420612072656769737465726564205361666560581b604482015290519081900360640190fd5b336000908152600d60205260409020805460ff19169055565b336000908152600d602052604090205460ff1661150a576040805162461bcd60e51b81526020600482015260156024820152744e6f7420612072656769737465726564205361666560581b604482015290519081900360640190fd5b600a5460408051637e062a3560e11b815290516000926001600160a01b03169163fc0c546a916004808301926020929190829003018186803b15801561154f57600080fd5b505afa158015611563573d6000803e3d6000fd5b505050506040513d602081101561157957600080fd5b505190506000611587612ceb565b6001600160a01b031663bdf475c3836040518263ffffffff1660e01b815260040180826001600160a01b03166001600160a01b0316815260200191505060206040518083038186803b1580156115dc57600080fd5b505afa1580156115f0573d6000803e3d6000fd5b505050506040513d602081101561160657600080fd5b505190506001600160a01b038116611658576040805162461bcd60e51b815260206004820152601060248201526f1c1bdbdb081b9bdd081c1c995cd95b9d60821b604482015290519081900360640190fd5b60005b878110156116d357600087878381811061167157fe5b9050602002013511156116cb576116cb333089898581811061168f57fe5b905060200201358c8c868181106116a257fe5b905060200201356001600160a01b03166001600160a01b0316612d61909392919063ffffffff16565b60010161165b565b50600061171585858080601f016020809104026020016040519081016040528093929190818152602001838380828437600092019190915250612dc192505050565b90506000611721610cea565b61182657600560019054906101000a90046001600160a01b03166001600160a01b0316635a72fee86040518163ffffffff1660e01b815260040160206040518083038186803b15801561177357600080fd5b505afa158015611787573d6000803e3d6000fd5b505050506040513d602081101561179d57600080fd5b5051600a546040805163165013c360e31b81526001600160a01b039283166004820152602481018690529051919092169163b2809e18916044808301926020929190829003018186803b1580156117f357600080fd5b505afa158015611807573d6000803e3d6000fd5b505050506040513d602081101561181d57600080fd5b50519050611848565b600a5461184590611840906001600160a01b031684611ae1565b611a19565b90505b600b8054830190558015611860576118603382612f7e565b50505050505050505050565b600a546001600160a01b031681565b6006546001600160a01b031681565b60048054604080516020601f6002600019610100600188161502019095169490940493840181900481028201810190925282815260609390929091830182828015610cc15780601f10610c9657610100808354040283529160200191610cc1565b6006546001600160a01b03163314611944576040805162461bcd60e51b815260206004820152601760248201527627b7363c903832b936b4ba3a32b2103a379037bbb732b960491b604482015290519081900360640190fd5b600580546001600160a01b0390921661010002610100600160a81b0319909216919091179055565b6000610ce06119796129ae565b84610d6e85604051806060016040528060258152602001613c2360259139600160006119a36129ae565b6001600160a01b03908116825260208083019390935260409182016000908120918d1681529252902054919063ffffffff612bfa16565b6000610ce06119e76129ae565b8484612a9e565b6001600160a01b03918216600090815260016020908152604080832093909416825291909152205490565b6000610ce4611a26611262565b61085d611a31610cea565b859063ffffffff611c7f16565b6006546001600160a01b03163314611a97576040805162461bcd60e51b815260206004820152601760248201527627b7363c903832b936b4ba3a32b2103a379037bbb732b960491b604482015290519081900360640190fd5b6127108110611adc576040805162461bcd60e51b815260206004820152600c60248201526b212070657263656e7461676560a01b604482015290519081900360640190fd5b600855565b60055460408051638b2f0f4f60e01b81526001600160a01b038581166004830152915160009384936101009091041691638b2f0f4f916024808301926020929190829003018186803b158015611b3657600080fd5b505afa158015611b4a573d6000803e3d6000fd5b505050506040513d6020811015611b6057600080fd5b505160055460408051630b4e5fdd60e31b81529051929350611c7792670de0b6b3a76400009261085d9286926101009092046001600160a01b031691635a72fee891600480820192602092909190829003018186803b158015611bc257600080fd5b505afa158015611bd6573d6000803e3d6000fd5b505050506040513d6020811015611bec57600080fd5b50516040805163165013c360e31b81526001600160a01b038b81166004830152602482018b90529151919092169163b2809e18916044808301926020929190829003018186803b158015611c3f57600080fd5b505afa158015611c53573d6000803e3d6000fd5b505050506040513d6020811015611c6957600080fd5b50519063ffffffff611c7f16565b949350505050565b600082611c8e57506000610ce4565b82820282848281611c9b57fe5b0414611cd85760405162461bcd60e51b8152600401808060200182810382526021815260200180613b106021913960400191505060405180910390fd5b9392505050565b6000611cd883836040518060400160405280601a81526020017f536166654d6174683a206469766973696f6e206279207a65726f00000000000081525061306e565b6001600160a01b038216611d665760405162461bcd60e51b8152600401808060200182810382526021815260200180613b596021913960400191505060405180910390fd5b611da981604051806060016040528060228152602001613aa6602291396001600160a01b038516600090815260208190526040902054919063ffffffff612bfa16565b6001600160a01b038316600090815260208190526040902055600254611dd5908263ffffffff6130d316565b6002556040805182815290516000916001600160a01b038516917fddf252ad1be2c89b69c2b068fc378daa952ba7f163c4a11628f55a4df523b3ef9181900360200190a35050565b604080516001600160a01b038416602482015260448082018490528251808303909101815260649091019091526020810180516001600160e01b031663a9059cbb60e01b179052611e6f908490613115565b505050565b6000806000611e81612ceb565b6001600160a01b031663bdf475c3866040518263ffffffff1660e01b815260040180826001600160a01b03166001600160a01b0316815260200191505060206040518083038186803b158015611ed657600080fd5b505afa158015611eea573d6000803e3d6000fd5b505050506040513d6020811015611f0057600080fd5b50519050611f0c613a45565b611f14612ceb565b6040805163940494f160e01b81526001600160a01b038581166004830152825193169263940494f192602480840193919291829003018186803b158015611f5a57600080fd5b505afa158015611f6e573d6000803e3d6000fd5b505050506040513d601f19601f820116820180604052506040811015611f9357600080fd5b509050611f9e613a63565b611fa6612ceb565b6001600160a01b0316639ac90d3d846040518263ffffffff1660e01b815260040180826001600160a01b03166001600160a01b031681526020019150506101006040518083038186803b158015611ffc57600080fd5b505afa158015612010573d6000803e3d6000fd5b505050506040513d601f19601f8201168201806040525061010081101561203657600080fd5b50825160055460408051638b2f0f4f60e01b81526001600160a01b038c811660048301529151949550929360009361010090930490911691638b2f0f4f916024808301926020929190829003018186803b15801561209357600080fd5b505afa1580156120a7573d6000803e3d6000fd5b505050506040513d60208110156120bd57600080fd5b505160055460408051638b2f0f4f60e01b81526001600160a01b038e81166004830152915193945060009361010090930490911691638b2f0f4f91602480820192602092909190829003018186803b15801561211857600080fd5b505afa15801561212c573d6000803e3d6000fd5b505050506040513d602081101561214257600080fd5b505160055460408051630b4e5fdd60e31b815290519293506000926101009092046001600160a01b031691635a72fee891600480820192602092909190829003018186803b15801561219357600080fd5b505afa1580156121a7573d6000803e3d6000fd5b505050506040513d60208110156121bd57600080fd5b50516040805163165013c360e31b81526001600160a01b038e81166004830152602482018e90529151919092169163b2809e18916044808301926020929190829003018186803b15801561221057600080fd5b505afa158015612224573d6000803e3d6000fd5b505050506040513d602081101561223a57600080fd5b5051905060006122548361085d848763ffffffff611c7f16565b90506000600560019054906101000a90046001600160a01b03166001600160a01b0316635a72fee86040518163ffffffff1660e01b815260040160206040518083038186803b1580156122a657600080fd5b505afa1580156122ba573d6000803e3d6000fd5b505050506040513d60208110156122d057600080fd5b81019080805190602001909291905050506001600160a01b031663566ab9278f846040518363ffffffff1660e01b815260040180836001600160a01b03166001600160a01b031681526020018281526020019250505060206040518083038186803b15801561233e57600080fd5b505afa158015612352573d6000803e3d6000fd5b505050506040513d602081101561236857600080fd5b505160085490915060009061238c906127109061085d90859063ffffffff611c7f16565b8203905060005b87811015612458578f6001600160a01b03168982600881106123b157fe5b60200201516001600160a01b03161415612450578a6001600160a01b0316631a4d01d28f83856040518463ffffffff1660e01b81526004018084815260200183600f0b600f0b81526020018281526020019350505050602060405180830381600087803b15801561242157600080fd5b505af1158015612435573d6000803e3d6000fd5b505050506040513d602081101561244b57600080fd5b50519b505b600101612393565b50999e9d5050505050505050505050505050565b6000806000600560019054906101000a90046001600160a01b03166001600160a01b0316634407ea176040518163ffffffff1660e01b815260040160206040518083038186803b1580156124bf57600080fd5b505afa1580156124d3573d6000803e3d6000fd5b505050506040513d60208110156124e957600080fd5b50516040805163e6a4390560e01b81526001600160a01b038981166004830152888116602483015291519293506000929184169163e6a439059160448082019260209290919082900301818787803b15801561254457600080fd5b505af1158015612558573d6000803e3d6000fd5b505050506040513d602081101561256e57600080fd5b505190506001600160a01b0381166125cd576040805162461bcd60e51b815260206004820152601960248201527f45786368616e67652070616972206e6f742070726573656e7400000000000000604482015290519081900360640190fd5b60055460408051638b2f0f4f60e01b81526001600160a01b038a811660048301529151600093610100900490921691638b2f0f4f91602480820192602092909190829003018186803b15801561262257600080fd5b505afa158015612636573d6000803e3d6000fd5b505050506040513d602081101561264c57600080fd5b505160055460408051638b2f0f4f60e01b81526001600160a01b038b81166004830152915193945060009361010090930490911691638b2f0f4f91602480820192602092909190829003018186803b1580156126a757600080fd5b505afa1580156126bb573d6000803e3d6000fd5b505050506040513d60208110156126d157600080fd5b505160055460408051630b4e5fdd60e31b815290519293506000926101009092046001600160a01b031691635a72fee891600480820192602092909190829003018186803b15801561272257600080fd5b505afa158015612736573d6000803e3d6000fd5b505050506040513d602081101561274c57600080fd5b50516040805163165013c360e31b81526001600160a01b038d81166004830152602482018c90529151919092169163b2809e18916044808301926020929190829003018186803b15801561279f57600080fd5b505afa1580156127b3573d6000803e3d6000fd5b505050506040513d60208110156127c957600080fd5b5051905060006127e38361085d848763ffffffff611c7f16565b90506000600560019054906101000a90046001600160a01b03166001600160a01b0316635a72fee86040518163ffffffff1660e01b815260040160206040518083038186803b15801561283557600080fd5b505afa158015612849573d6000803e3d6000fd5b505050506040513d602081101561285f57600080fd5b50516040805163566ab92760e01b81526001600160a01b038e81166004830152602482018690529151919092169163566ab927916044808301926020929190829003018186803b1580156128b257600080fd5b505afa1580156128c6573d6000803e3d6000fd5b505050506040513d60208110156128dc57600080fd5b5051600954909150600090612900906127109061085d90859063ffffffff611c7f16565b8203905061290f8d888d6132cd565b60408051637f0148ab60e11b81526001600160a01b038f811660048301528e81166024830152604482018e90526064820184905291519189169163fe029156916084808201926020929091908290030181600087803b15801561297157600080fd5b505af1158015612985573d6000803e3d6000fd5b505050506040513d602081101561299b57600080fd5b50519d9c50505050505050505050505050565b3390565b6001600160a01b0383166129f75760405162461bcd60e51b8152600401808060200182810382526024815260200180613b9f6024913960400191505060405180910390fd5b6001600160a01b038216612a3c5760405162461bcd60e51b8152600401808060200182810382526022815260200180613ac86022913960400191505060405180910390fd5b6001600160a01b03808416600081815260016020908152604080832094871680845294825291829020859055815185815291517f8c5be1e5ebec7d5bd14f71427d1e84f3dd0314c0f7b2291e5b200ac8c7c3b9259281900390910190a3505050565b6001600160a01b038316612ae35760405162461bcd60e51b8152600401808060200182810382526025815260200180613b7a6025913960400191505060405180910390fd5b6001600160a01b038216612b285760405162461bcd60e51b8152600401808060200182810382526023815260200180613a836023913960400191505060405180910390fd5b612b6b81604051806060016040528060268152602001613aea602691396001600160a01b038616600090815260208190526040902054919063ffffffff612bfa16565b6001600160a01b038085166000908152602081905260408082209390935590841681522054612ba0908263ffffffff612c9116565b6001600160a01b038084166000818152602081815260409182902094909455805185815290519193928716927fddf252ad1be2c89b69c2b068fc378daa952ba7f163c4a11628f55a4df523b3ef92918290030190a3505050565b60008184841115612c895760405162461bcd60e51b81526004018080602001828103825283818151815260200191508051906020019080838360005b83811015612c4e578181015183820152602001612c36565b50505050905090810190601f168015612c7b5780820380516001836020036101000a031916815260200191505b509250505060405180910390fd5b505050900390565b600082820183811015611cd8576040805162461bcd60e51b815260206004820152601b60248201527f536166654d6174683a206164646974696f6e206f766572666c6f770000000000604482015290519081900360640190fd5b6007546040805163a262904b60e01b815290516000926001600160a01b03169163a262904b916004808301926020929190829003018186803b158015612d3057600080fd5b505afa158015612d44573d6000803e3d6000fd5b505050506040513d6020811015612d5a57600080fd5b5051905090565b604080516001600160a01b0385811660248301528416604482015260648082018490528251808303909101815260849091019091526020810180516001600160e01b03166323b872dd60e01b179052612dbb908590613115565b50505050565b6000806000806000612dd1613a45565b612dd9613a45565b60006060808a80602001905160e0811015612df357600080fd5b608082015160a083018051604080519086019490929086019186919084600160201b821115612e2157600080fd5b908301906020820185811115612e3657600080fd5b82518660208202830111600160201b82111715612e5257600080fd5b82525081516020918201928201910280838360005b83811015612e7f578181015183820152602001612e67565b5050505090500160405260200180516040519392919084600160201b821115612ea757600080fd5b908301906020820185811115612ebc57600080fd5b82518660208202830111600160201b82111715612ed857600080fd5b82525081516020918201928201910280838360005b83811015612f05578181015183820152602001612eed565b50505050905001604052505050945094509450945094506000831115612f3357612f308585856133a4565b98505b815115612f4a57612f44828261368d565b90985095505b88880115612f6d57600a54612f6a906001600160a01b03168a8a01613807565b96505b505050929091019695505050505050565b6001600160a01b038216612fd9576040805162461bcd60e51b815260206004820152601f60248201527f45524332303a206d696e7420746f20746865207a65726f206164647265737300604482015290519081900360640190fd5b600254612fec908263ffffffff612c9116565b6002556001600160a01b038216600090815260208190526040902054613018908263ffffffff612c9116565b6001600160a01b0383166000818152602081815260408083209490945583518581529351929391927fddf252ad1be2c89b69c2b068fc378daa952ba7f163c4a11628f55a4df523b3ef9281900390910190a35050565b600081836130bd5760405162461bcd60e51b8152602060048201818152835160248401528351909283926044909101919085019080838360008315612c4e578181015183820152602001612c36565b5060008385816130c957fe5b0495945050505050565b6000611cd883836040518060400160405280601e81526020017f536166654d6174683a207375627472616374696f6e206f766572666c6f770000815250612bfa565b613127826001600160a01b03166138f9565b613178576040805162461bcd60e51b815260206004820152601f60248201527f5361666545524332303a2063616c6c20746f206e6f6e2d636f6e747261637400604482015290519081900360640190fd5b60006060836001600160a01b0316836040518082805190602001908083835b602083106131b65780518252601f199092019160209182019101613197565b6001836020036101000a0380198251168184511680821785525050505050509050019150506000604051808303816000865af19150503d8060008114613218576040519150601f19603f3d011682016040523d82523d6000602084013e61321d565b606091505b509150915081613274576040805162461bcd60e51b815260206004820181905260248201527f5361666545524332303a206c6f772d6c6576656c2063616c6c206661696c6564604482015290519081900360640190fd5b805115612dbb5780806020019051602081101561329057600080fd5b5051612dbb5760405162461bcd60e51b815260040180806020018281038252602a815260200180613bc3602a913960400191505060405180910390fd5b60408051636eb1769f60e11b81523060048201526001600160a01b038481166024830152915160009286169163dd62ed3e916044808301926020929190829003018186803b15801561331e57600080fd5b505afa158015613332573d6000803e3d6000fd5b505050506040513d602081101561334857600080fd5b5051111561338a5761336b6001600160a01b03841683600063ffffffff61393216565b6133856001600160a01b038416838363ffffffff61393216565b611e6f565b611e6f6001600160a01b038416838363ffffffff61393216565b600080600a60009054906101000a90046001600160a01b03166001600160a01b031663fc0c546a6040518163ffffffff1660e01b815260040160206040518083038186803b1580156133f557600080fd5b505afa158015613409573d6000803e3d6000fd5b505050506040513d602081101561341f57600080fd5b50519050600061342d612ceb565b6001600160a01b031663bdf475c3836040518263ffffffff1660e01b815260040180826001600160a01b03166001600160a01b0316815260200191505060206040518083038186803b15801561348257600080fd5b505afa158015613496573d6000803e3d6000fd5b505050506040513d60208110156134ac57600080fd5b5051905060005b6002811015613500576134f8828783600281106134cc57fe5b60200201518984600281106134dd57fe5b60200201516001600160a01b0316919063ffffffff61393216565b6001016134b3565b50604080516370a0823160e01b815230600482015290516000916001600160a01b038516916370a0823191602480820192602092909190829003018186803b15801561354b57600080fd5b505afa15801561355f573d6000803e3d6000fd5b505050506040513d602081101561357557600080fd5b505160408051630b4c7e4d60e01b81529192506001600160a01b03841691630b4c7e4d91899189916004909101908190849080838360005b838110156135c55781810151838201526020016135ad565b5050505090500182815260200192505050600060405180830381600087803b1580156135f057600080fd5b505af1158015613604573d6000803e3d6000fd5b5050604080516370a0823160e01b81523060048201529051600093506001600160a01b03871692506370a0823191602480820192602092909190829003018186803b15801561365257600080fd5b505afa158015613666573d6000803e3d6000fd5b505050506040513d602081101561367c57600080fd5b505191909103979650505050505050565b600080600080600080600a60009054906101000a90046001600160a01b03166001600160a01b031663fc0c546a6040518163ffffffff1660e01b815260040160206040518083038186803b1580156136e457600080fd5b505afa1580156136f8573d6000803e3d6000fd5b505050506040513d602081101561370e57600080fd5b5051905060005b88518110156137f757816001600160a01b031689828151811061373457fe5b60200260200101516001600160a01b031614156137685787818151811061375757fe5b6020026020010151850194506137ef565b600a5489516001600160a01b03909116908a908390811061378557fe5b60200260200101516001600160a01b031614156137b9578781815181106137a857fe5b6020026020010151840193506137ef565b6137ea8982815181106137c857fe5b6020026020010151838a84815181106137dd57fe5b602002602001015161246c565b830192505b600101613715565b5050919091019590945092505050565b600080836001600160a01b031663fc0c546a6040518163ffffffff1660e01b815260040160206040518083038186803b15801561384357600080fd5b505afa158015613857573d6000803e3d6000fd5b505050506040513d602081101561386d57600080fd5b5051905061387c8185856132cd565b6000846001600160a01b031663b6b55f25856040518263ffffffff1660e01b815260040180828152602001915050602060405180830381600087803b1580156138c457600080fd5b505af11580156138d8573d6000803e3d6000fd5b505050506040513d60208110156138ee57600080fd5b505195945050505050565b6000813f7fc5d2460186f7233c927e7db2dcc703c0e500b653ca82273b7bfad8045d85a470818114801590611c77575050151592915050565b8015806139b8575060408051636eb1769f60e11b81523060048201526001600160a01b03848116602483015291519185169163dd62ed3e91604480820192602092909190829003018186803b15801561398a57600080fd5b505afa15801561399e573d6000803e3d6000fd5b505050506040513d60208110156139b457600080fd5b5051155b6139f35760405162461bcd60e51b8152600401808060200182810382526036815260200180613bed6036913960400191505060405180910390fd5b604080516001600160a01b038416602482015260448082018490528251808303909101815260649091019091526020810180516001600160e01b031663095ea7b360e01b179052611e6f908490613115565b60405180604001604052806002906020820280388339509192915050565b604051806101000160405280600890602082028038833950919291505056fe45524332303a207472616e7366657220746f20746865207a65726f206164647265737345524332303a206275726e20616d6f756e7420657863656564732062616c616e636545524332303a20617070726f766520746f20746865207a65726f206164647265737345524332303a207472616e7366657220616d6f756e7420657863656564732062616c616e6365536166654d6174683a206d756c7469706c69636174696f6e206f766572666c6f7745524332303a207472616e7366657220616d6f756e74206578636565647320616c6c6f77616e636545524332303a206275726e2066726f6d20746865207a65726f206164647265737345524332303a207472616e736665722066726f6d20746865207a65726f206164647265737345524332303a20617070726f76652066726f6d20746865207a65726f20616464726573735361666545524332303a204552433230206f7065726174696f6e20646964206e6f7420737563636565645361666545524332303a20617070726f76652066726f6d206e6f6e2d7a65726f20746f206e6f6e2d7a65726f20616c6c6f77616e636545524332303a2064656372656173656420616c6c6f77616e63652062656c6f77207a65726fa265627a7a72315820401801fb1eda49b38404c5b920551e2c309bfa9351e971ed4f27fdf0bfe4b7c764736f6c63430005110032",
  "source": "// SPDX-License-Identifier: MIT\npragma solidity >=0.5.0 <0.7.0;\nimport \"@openzeppelin/contracts/math/SafeMath.sol\";\nimport \"@openzeppelin/contracts/utils/Address.sol\";\nimport \"@openzeppelin/contracts/token/ERC20/SafeERC20.sol\";\nimport \"@openzeppelin/contracts/token/ERC20/ERC20Detailed.sol\";\nimport \"@openzeppelin/contracts/token/ERC20/ERC20.sol\";\nimport \"@openzeppelin/contracts/token/ERC20/IERC20.sol\";\nimport \"../interfaces/IAPContract.sol\";\nimport \"../interfaces/ICrvAddressProvider.sol\";\nimport \"../interfaces/ICrvRegistry.sol\";\nimport \"../interfaces/yearn/IVault.sol\";\nimport \"../interfaces/IExchange.sol\";\nimport \"../interfaces/IHexUtils.sol\";\nimport \"../interfaces/ICrvPool.sol\";\nimport \"../interfaces/IExchangeRegistry.sol\";\n\ncontract EuroPlus is ERC20, ERC20Detailed {\n    using SafeERC20 for IERC20;\n    using SafeMath for uint256;\n\n    address public APContract;\n    address public owner;\n    address private crvAddressProvider =\n        0x0000000022D53366457F9d5E68Ec105046FC4383;\n    uint256 public slippage = 10; //  0.1% slippage\n    uint256 public slippageSwap = 50; //  0.5% slippage on swap\n    address public protocol;\n    uint256 public protocolBalance;\n    mapping(address => bool) poolTokens;\n    mapping(address => bool) isRegistered;\n\n    modifier onlyRegisteredVault() {\n        require(isRegistered[msg.sender], \"Not a registered Safe\");\n        _;\n    }\n\n    modifier onlyOwner() {\n        require(msg.sender == owner, \"Only permitted to owner\");\n        _;\n    }\n\n    constructor(\n        address _APContract,\n        address _protocol,\n        address[] memory _poolTokens\n    ) public ERC20Detailed(\"EURPLUS\", \"EURO PLUS\", 18) {\n        APContract = _APContract;\n        protocol = _protocol;\n        for (uint256 i = 0; i < _poolTokens.length; i++) {\n            poolTokens[_poolTokens[i]] = true;\n        }\n        owner = msg.sender;\n    }\n\n    /// @dev Function to set yearn protocols to the strategy.\n    /// @param _protocol Address of the yearn protocol.\n    function setProtocol(\n        address _protocol,\n        address[] calldata addPoolTokens,\n        address[] calldata removePoolTokens\n    ) external onlyOwner {\n        require(_protocol != address(0), \"Zero address\");\n        protocol = _protocol;\n        for (uint256 i = 0; i < addPoolTokens.length; i++) {\n            poolTokens[addPoolTokens[i]] = true;\n        }\n        for (uint256 i = 0; i < removePoolTokens.length; i++) {\n            poolTokens[removePoolTokens[i]] = false;\n        }\n    }\n\n    /// @dev Function that returns the address of the Curve Registry contract.\n    function getRegistry() internal view returns (address) {\n        return ICrvAddressProvider(crvAddressProvider).get_registry();\n    }\n\n    /// @dev Function to set slippage settings when performing exchanges.\n    /// @param _slippageSwap Slippage value.\n    function setSlippageSwap(uint256 _slippageSwap) external onlyOwner {\n        require(_slippageSwap < 10000, \"! percentage\");\n        slippageSwap = _slippageSwap;\n    }\n\n    /// @dev Function to set slippage settings when interacting with Curve pools.\n    /// @param _slippage Slippage value.\n    function setSlippage(uint256 _slippage) external onlyOwner {\n        require(_slippage < 10000, \"! percentage\");\n        slippage = _slippage;\n    }\n\n    /// @dev Function to set the address of the Yieldster APS.\n    /// @param _APContract Address of the APS Contract.\n    function setAPContract(address _APContract) external onlyOwner {\n        APContract = _APContract;\n    }\n\n    /// @dev Function to subscribe a new vault to the strategy.\n    function registerSafe() external {\n        isRegistered[msg.sender] = true;\n    }\n\n    /// @dev Function to unsubscribe a vault from the strategy.\n    function deRegisterSafe() external onlyRegisteredVault {\n        isRegistered[msg.sender] = false;\n    }\n\n    /// @dev Function to approve a token.\n    /// @param _token Address of the token.\n    /// @param _spender Address of the spender.\n    /// @param _amount Amount of tokens to approve.\n    function _approveToken(\n        address _token,\n        address _spender,\n        uint256 _amount\n    ) internal {\n        if (IERC20(_token).allowance(address(this), _spender) > 0) {\n            IERC20(_token).safeApprove(_spender, 0);\n            IERC20(_token).safeApprove(_spender, _amount);\n        } else IERC20(_token).safeApprove(_spender, _amount);\n    }\n\n    function depositToPool(\n        address[2] memory poolAssets,\n        uint256[2] memory poolAmounts,\n        uint256 minPoolTokens\n    ) internal returns (uint256) {\n        address underlying = IVault(protocol).token();\n        address pool = ICrvRegistry(getRegistry()).get_pool_from_lp_token(\n            underlying\n        );\n\n        for (uint256 i = 0; i < poolAssets.length; i++) {\n            IERC20(poolAssets[i]).safeApprove(pool, poolAmounts[i]);\n        }\n\n        uint256 underlyingBefore = IERC20(underlying).balanceOf(address(this));\n        ICrvPool(pool).add_liquidity(poolAmounts, minPoolTokens);\n        uint256 underlyingAfter = IERC20(underlying).balanceOf(address(this));\n        return underlyingAfter - underlyingBefore;\n    }\n\n    /// @dev Function to handle tokens other than DAI | USDC | USDT.\n    /// @param otherAssets Address List of tokens.\n    /// @param otherAmounts Amount List of tokens.\n    function handleOtherAssets(\n        address[] memory otherAssets,\n        uint256[] memory otherAmounts\n    ) internal returns (uint256, uint256) {\n        uint256 underlyingTokens;\n        uint256 yVTokens;\n        uint256 exchangeUnderlying;\n        address underlying = IVault(protocol).token();\n        for (uint256 i = 0; i < otherAssets.length; i++) {\n            if (otherAssets[i] == underlying)\n                underlyingTokens += otherAmounts[i];\n            else if (otherAssets[i] == protocol) yVTokens += otherAmounts[i];\n            else {\n                exchangeUnderlying += exchangeToken(\n                    otherAssets[i],\n                    underlying,\n                    otherAmounts[i]\n                );\n            }\n        }\n        return (underlyingTokens + exchangeUnderlying, yVTokens);\n    }\n\n    /// @dev Function to deposit LP tokens to Yearn Vault.\n    /// @param yVault Address of the yearn vault.\n    /// @param amount Amount of LP tokens to deposit.\n    function depositToYearnVault(address yVault, uint256 amount)\n        internal\n        returns (uint256)\n    {\n        address underlying = IVault(yVault).token();\n        _approveToken(underlying, yVault, amount);\n        uint256 yVaultTokens = IVault(yVault).deposit(amount);\n        return yVaultTokens;\n    }\n\n    /// @dev Function to exchange from one token to another.\n    /// @param fromToken Address of from token.\n    /// @param toToken Address of target token.\n    /// @param amount Amount of tokens to exchange.\n    function exchangeToken(\n        address fromToken,\n        address toToken,\n        uint256 amount\n    ) internal returns (uint256) {\n        uint256 exchangeReturn;\n        IExchangeRegistry exchangeRegistry = IExchangeRegistry(\n            IAPContract(APContract).exchangeRegistry()\n        );\n        address exchange = exchangeRegistry.getPair(fromToken, toToken);\n        require(exchange != address(0), \"Exchange pair not present\");\n\n        uint256 fromTokenUSD = IAPContract(APContract).getUSDPrice(fromToken);\n        uint256 toTokenUSD = IAPContract(APContract).getUSDPrice(toToken);\n        uint256 fromTokenAmountDecimals = IHexUtils(\n            IAPContract(APContract).stringUtils()\n        ).toDecimals(fromToken, amount);\n\n        uint256 expectedToTokenDecimal = (\n            fromTokenAmountDecimals.mul(fromTokenUSD)\n        ).div(toTokenUSD);\n        uint256 expectedToToken = IHexUtils(\n            IAPContract(APContract).stringUtils()\n        ).fromDecimals(toToken, expectedToTokenDecimal);\n        uint256 minReturn = expectedToToken - //SLIPPAGE\n            expectedToToken.mul(slippageSwap).div(10000);\n\n        _approveToken(fromToken, exchange, amount);\n        exchangeReturn = IExchange(exchange).swap(\n            fromToken,\n            toToken,\n            amount,\n            minReturn\n        );\n        return exchangeReturn;\n    }\n\n    /// @dev Function to handle strategy deposit function.\n    /// @param data Encoded parameters to be used.\n    function handleDeposit(bytes memory data) internal returns (uint256) {\n        uint256 yVaultUnderlyingReturn;\n        uint256 otherYVUnderlyingReturn;\n        uint256 yVTokens;\n        uint256 _yVToken;\n        (\n            address[2] memory poolAssets,\n            uint256[2] memory poolAmounts,\n            uint256 minPoolTokens,\n            address[] memory otherAssets,\n            uint256[] memory otherAmounts\n        ) = abi.decode(\n                data,\n                (address[2], uint256[2], uint256, address[], uint256[])\n            );\n\n        if (minPoolTokens > 0) {\n            yVaultUnderlyingReturn = depositToPool(\n                poolAssets,\n                poolAmounts,\n                minPoolTokens\n            );\n        }\n        if (otherAssets.length > 0) {\n            (otherYVUnderlyingReturn, _yVToken) = handleOtherAssets(\n                otherAssets,\n                otherAmounts\n            );\n        }\n        if (yVaultUnderlyingReturn + otherYVUnderlyingReturn > 0)\n            yVTokens = depositToYearnVault(\n                protocol,\n                yVaultUnderlyingReturn + otherYVUnderlyingReturn\n            );\n        return _yVToken + yVTokens;\n    }\n\n    /// @dev Function to deposit into strategy.\n    /// @param _depositAssets Address List of total assets being deposited.\n    /// @param _amounts Amounts List of total assets being deposited.\n    /// @param data Encoded parameters to be used.\n    function deposit(\n        address[] calldata _depositAssets,\n        uint256[] calldata _amounts,\n        bytes calldata data\n    ) external onlyRegisteredVault {\n        address underlying = IVault(protocol).token();\n        address pool = ICrvRegistry(getRegistry()).get_pool_from_lp_token(\n            underlying\n        );\n        require(pool != address(0), \"pool not present\");\n        for (uint256 i = 0; i < _depositAssets.length; i++) {\n            if (_amounts[i] > 0) {\n                IERC20(_depositAssets[i]).safeTransferFrom(\n                    msg.sender,\n                    address(this),\n                    _amounts[i]\n                );\n            }\n        }\n\n        uint256 yVTokens = handleDeposit(data);\n        uint256 _shares;\n        if (totalSupply() == 0)\n            _shares = IHexUtils(IAPContract(APContract).stringUtils())\n                .toDecimals(protocol, yVTokens);\n        else _shares = getMintValue(getDepositNAV(protocol, yVTokens));\n        protocolBalance += yVTokens;\n\n        if (_shares > 0) _mint(msg.sender, _shares);\n    }\n\n    /// @dev Function to calculate the strategy tokens to be minted for given nav.\n    /// @param depositNAV NAV for the amount.\n    function getMintValue(uint256 depositNAV) public view returns (uint256) {\n        return (depositNAV.mul(totalSupply())).div(getStrategyNAV());\n    }\n\n    /// @dev Function to calculate the NAV of strategy for a subscribed vault | if the msg.sender is\n    ///not subscribed vault then overall NAV of the strategy is returned.\n    function getStrategyNAV() public view returns (uint256) {\n        if (protocolBalance > 0) {\n            uint256 tokenUSD = IAPContract(APContract).getUSDPrice(protocol);\n            uint256 balance = IHexUtils(IAPContract(APContract).stringUtils())\n                .toDecimals(protocol, protocolBalance);\n            return (balance.mul(tokenUSD)).div(1e18);\n        } else return 0;\n    }\n\n    /// @dev Function to calculate the NAV of a given token and amount.\n    /// @param _tokenAddress Address of the deposit token.\n    /// @param _amount Amount of deposit token.\n    function getDepositNAV(address _tokenAddress, uint256 _amount)\n        public\n        view\n        returns (uint256)\n    {\n        uint256 tokenUSD = IAPContract(APContract).getUSDPrice(_tokenAddress);\n        return\n            (\n                IHexUtils(IAPContract(APContract).stringUtils())\n                    .toDecimals(_tokenAddress, _amount)\n                    .mul(tokenUSD)\n            ).div(1e18);\n    }\n\n    /// @dev Function to calculate the token value of strategy for a subscribed Safe, if msg.sender is\n    /// not a subscribed safe then the overall token value is returned.\n    function tokenValueInUSD() public view returns (uint256) {\n        if (getStrategyNAV() == 0 || totalSupply() == 0) return 0;\n        else return (getStrategyNAV().mul(1e18)).div(totalSupply());\n    }\n\n    /// @dev Function to withdraw strategy shares.\n    /// @param _shares amount of strategy shares to withdraw.\n    /// @param _withrawalAsset Address of the prefered withdrawal asset.\n    function withdraw(uint256 _shares, address _withrawalAsset)\n        public\n        onlyRegisteredVault\n        returns (\n            bool,\n            address,\n            uint256\n        )\n    {\n        require(balanceOf(msg.sender) >= _shares, \"Not enough shares\");\n        uint256 strategyTokenValueInUSD = (_shares.mul(getStrategyNAV())).div(\n            totalSupply()\n        );\n        address underlying = IVault(protocol).token();\n        uint256 protocolTokenUSD = IAPContract(APContract).getUSDPrice(\n            protocol\n        );\n        uint256 protocolTokenCount = strategyTokenValueInUSD.mul(1e18).div(\n            protocolTokenUSD\n        );\n        uint256 protocolTokensToWithdraw = IHexUtils(\n            IAPContract(APContract).stringUtils()\n        ).fromDecimals(protocol, protocolTokenCount);\n        _burn(msg.sender, _shares);\n        protocolBalance -= protocolTokensToWithdraw;\n\n        if (_withrawalAsset == address(0) || _withrawalAsset == protocol) {\n            IERC20(protocol).safeTransfer(msg.sender, protocolTokensToWithdraw);\n            return (true, protocol, protocolTokensToWithdraw);\n        } else {\n            uint256 underlyingAmount = IVault(protocol).withdraw(\n                protocolTokensToWithdraw\n            );\n            if (_withrawalAsset == underlying) {\n                IERC20(underlying).safeTransfer(msg.sender, underlyingAmount);\n                return (true, underlying, underlyingAmount);\n            } else if (poolTokens[_withrawalAsset]) {\n                uint256 returnTokens = withdrawFromPool(\n                    _withrawalAsset,\n                    underlying,\n                    underlyingAmount\n                );\n                IERC20(_withrawalAsset).safeTransfer(msg.sender, returnTokens);\n                return (true, _withrawalAsset, returnTokens);\n            } else {\n                uint256 withdrawalTokens = exchangeToken(\n                    underlying,\n                    _withrawalAsset,\n                    underlyingAmount\n                );\n                IERC20(_withrawalAsset).safeTransfer(\n                    msg.sender,\n                    withdrawalTokens\n                );\n                return (true, _withrawalAsset, withdrawalTokens);\n            }\n        }\n    }\n\n    function withdrawFromPool(\n        address toToken,\n        address lpToken,\n        uint256 amount\n    ) internal returns (uint256) {\n        uint256 toTokenReturn;\n        address pool = ICrvRegistry(getRegistry()).get_pool_from_lp_token(\n            lpToken\n        );\n\n        uint256[2] memory poolNCoins = ICrvRegistry(getRegistry()).get_n_coins(\n            pool\n        );\n        address[8] memory poolCoins = ICrvRegistry(getRegistry()).get_coins(\n            pool\n        );\n        uint256 index = poolNCoins[0];\n\n        uint256 lpTokenUSD = IAPContract(APContract).getUSDPrice(lpToken);\n        uint256 toTokenUSD = IAPContract(APContract).getUSDPrice(toToken);\n        uint256 lpTokenAmountDecimals = IHexUtils(\n            IAPContract(APContract).stringUtils()\n        ).toDecimals(lpToken, amount);\n\n        uint256 expectedToTokenDecimal = (lpTokenAmountDecimals.mul(lpTokenUSD))\n            .div(toTokenUSD);\n        uint256 expectedToToken = IHexUtils(\n            IAPContract(APContract).stringUtils()\n        ).fromDecimals(toToken, expectedToTokenDecimal);\n        uint256 minReturn = expectedToToken - //SLIPPAGE\n            expectedToToken.mul(slippage).div(10000);\n\n        for (uint256 i = 0; i < index; i++) {\n            if (poolCoins[i] == toToken) {\n                toTokenReturn = ICrvPool(pool).remove_liquidity_one_coin(\n                    amount,\n                    int128(int256(i)),\n                    minReturn\n                );\n            }\n        }\n\n        return toTokenReturn;\n    }\n\n    /// @dev Function to withdraw all shares from strategy.\n    /// @param _withdrawalAsset Address of the prefered withdrawal asset.\n    function withdrawAllToSafe(address _withdrawalAsset)\n        external\n        onlyRegisteredVault\n        returns (\n            bool,\n            address,\n            uint256\n        )\n    {\n        return withdraw(balanceOf(msg.sender), _withdrawalAsset);\n    }\n\n    /// @dev Function to use in an Emergency, when a token gets stuck in the strategy.\n    /// @param _tokenAddres Address of the token.\n    function inCaseTokenGetsStuck(address _tokenAddres) external {\n        require(\n            msg.sender == IAPContract(APContract).yieldsterDAO(),\n            \"unauthorized\"\n        );\n        IERC20(_tokenAddres).safeTransfer(\n            msg.sender,\n            IERC20(_tokenAddres).balanceOf(address(this))\n        );\n    }\n}\n",
  "sourcePath": "/home/dxuser/Documents/scode/yieldster-vault/contracts/strategies/EuroPlus/EuroPlus.sol",
  "compiler": {
    "name": "solc",
    "version": "0.5.17+commit.d19bba13.Emscripten.clang"
  },
  "schemaVersion": "3.4.4",
  "updatedAt": "2022-02-08T04:41:08.930Z",
  "devdoc": {
    "methods": {
      "allowance(address,address)": {
        "details": "See {IERC20-allowance}."
      },
      "approve(address,uint256)": {
        "details": "See {IERC20-approve}.     * Requirements:     * - `spender` cannot be the zero address."
      },
      "balanceOf(address)": {
        "details": "See {IERC20-balanceOf}."
      },
      "deRegisterSafe()": {
        "details": "Function to unsubscribe a vault from the strategy."
      },
      "decimals()": {
        "details": "Returns the number of decimals used to get its user representation. For example, if `decimals` equals `2`, a balance of `505` tokens should be displayed to a user as `5,05` (`505 / 10 ** 2`).     * Tokens usually opt for a value of 18, imitating the relationship between Ether and Wei.     * NOTE: This information is only used for _display_ purposes: it in no way affects any of the arithmetic of the contract, including {IERC20-balanceOf} and {IERC20-transfer}."
      },
      "decreaseAllowance(address,uint256)": {
        "details": "Atomically decreases the allowance granted to `spender` by the caller.     * This is an alternative to {approve} that can be used as a mitigation for problems described in {IERC20-approve}.     * Emits an {Approval} event indicating the updated allowance.     * Requirements:     * - `spender` cannot be the zero address. - `spender` must have allowance for the caller of at least `subtractedValue`."
      },
      "deposit(address[],uint256[],bytes)": {
        "details": "Function to deposit into strategy.",
        "params": {
          "_amounts": "Amounts List of total assets being deposited.",
          "_depositAssets": "Address List of total assets being deposited.",
          "data": "Encoded parameters to be used."
        }
      },
      "getDepositNAV(address,uint256)": {
        "details": "Function to calculate the NAV of a given token and amount.",
        "params": {
          "_amount": "Amount of deposit token.",
          "_tokenAddress": "Address of the deposit token."
        }
      },
      "getMintValue(uint256)": {
        "details": "Function to calculate the strategy tokens to be minted for given nav.",
        "params": {
          "depositNAV": "NAV for the amount."
        }
      },
      "getStrategyNAV()": {
        "details": "Function to calculate the NAV of strategy for a subscribed vault | if the msg.sender is not subscribed vault then overall NAV of the strategy is returned."
      },
      "inCaseTokenGetsStuck(address)": {
        "details": "Function to use in an Emergency, when a token gets stuck in the strategy.",
        "params": {
          "_tokenAddres": "Address of the token."
        }
      },
      "increaseAllowance(address,uint256)": {
        "details": "Atomically increases the allowance granted to `spender` by the caller.     * This is an alternative to {approve} that can be used as a mitigation for problems described in {IERC20-approve}.     * Emits an {Approval} event indicating the updated allowance.     * Requirements:     * - `spender` cannot be the zero address."
      },
      "name()": {
        "details": "Returns the name of the token."
      },
      "registerSafe()": {
        "details": "Function to subscribe a new vault to the strategy."
      },
      "setAPContract(address)": {
        "details": "Function to set the address of the Yieldster APS.",
        "params": {
          "_APContract": "Address of the APS Contract."
        }
      },
      "setProtocol(address,address[],address[])": {
        "details": "Function to set yearn protocols to the strategy.",
        "params": {
          "_protocol": "Address of the yearn protocol."
        }
      },
      "setSlippage(uint256)": {
        "details": "Function to set slippage settings when interacting with Curve pools.",
        "params": {
          "_slippage": "Slippage value."
        }
      },
      "setSlippageSwap(uint256)": {
        "details": "Function to set slippage settings when performing exchanges.",
        "params": {
          "_slippageSwap": "Slippage value."
        }
      },
      "symbol()": {
        "details": "Returns the symbol of the token, usually a shorter version of the name."
      },
      "tokenValueInUSD()": {
        "details": "Function to calculate the token value of strategy for a subscribed Safe, if msg.sender is not a subscribed safe then the overall token value is returned."
      },
      "totalSupply()": {
        "details": "See {IERC20-totalSupply}."
      },
      "transfer(address,uint256)": {
        "details": "See {IERC20-transfer}.     * Requirements:     * - `recipient` cannot be the zero address. - the caller must have a balance of at least `amount`."
      },
      "transferFrom(address,address,uint256)": {
        "details": "See {IERC20-transferFrom}.     * Emits an {Approval} event indicating the updated allowance. This is not required by the EIP. See the note at the beginning of {ERC20};     * Requirements: - `sender` and `recipient` cannot be the zero address. - `sender` must have a balance of at least `amount`. - the caller must have allowance for `sender`'s tokens of at least `amount`."
      },
      "withdraw(uint256,address)": {
        "details": "Function to withdraw strategy shares.",
        "params": {
          "_shares": "amount of strategy shares to withdraw.",
          "_withrawalAsset": "Address of the prefered withdrawal asset."
        }
      },
      "withdrawAllToSafe(address)": {
        "details": "Function to withdraw all shares from strategy.",
        "params": {
          "_withdrawalAsset": "Address of the prefered withdrawal asset."
        }
      }
    }
  },
  "userdoc": {
    "methods": {}
  }
}