{
  "contractName": "Exchange",
  "abi": [
    {
      "anonymous": false,
      "inputs": [
        {
          "indexed": true,
          "internalType": "address",
          "name": "owner",
          "type": "address"
        },
        {
          "indexed": true,
          "internalType": "address",
          "name": "spender",
          "type": "address"
        },
        {
          "indexed": false,
          "internalType": "uint256",
          "name": "value",
          "type": "uint256"
        }
      ],
      "name": "Approval",
      "type": "event"
    },
    {
      "anonymous": false,
      "inputs": [
        {
          "indexed": false,
          "internalType": "address",
          "name": "masterCopy",
          "type": "address"
        }
      ],
      "name": "ChangedMasterCopy",
      "type": "event"
    },
    {
      "anonymous": false,
      "inputs": [
        {
          "indexed": true,
          "internalType": "address",
          "name": "from",
          "type": "address"
        },
        {
          "indexed": true,
          "internalType": "address",
          "name": "to",
          "type": "address"
        },
        {
          "indexed": false,
          "internalType": "uint256",
          "name": "value",
          "type": "uint256"
        }
      ],
      "name": "Transfer",
      "type": "event"
    },
    {
      "constant": true,
      "inputs": [],
      "name": "APContract",
      "outputs": [
        {
          "internalType": "address",
          "name": "",
          "type": "address"
        }
      ],
      "payable": false,
      "stateMutability": "view",
      "type": "function"
    },
    {
      "constant": true,
      "inputs": [
        {
          "internalType": "address",
          "name": "owner",
          "type": "address"
        },
        {
          "internalType": "address",
          "name": "spender",
          "type": "address"
        }
      ],
      "name": "allowance",
      "outputs": [
        {
          "internalType": "uint256",
          "name": "",
          "type": "uint256"
        }
      ],
      "payable": false,
      "stateMutability": "view",
      "type": "function"
    },
    {
      "constant": false,
      "inputs": [
        {
          "internalType": "address",
          "name": "spender",
          "type": "address"
        },
        {
          "internalType": "uint256",
          "name": "amount",
          "type": "uint256"
        }
      ],
      "name": "approve",
      "outputs": [
        {
          "internalType": "bool",
          "name": "",
          "type": "bool"
        }
      ],
      "payable": false,
      "stateMutability": "nonpayable",
      "type": "function"
    },
    {
      "constant": true,
      "inputs": [
        {
          "internalType": "address",
          "name": "account",
          "type": "address"
        }
      ],
      "name": "balanceOf",
      "outputs": [
        {
          "internalType": "uint256",
          "name": "",
          "type": "uint256"
        }
      ],
      "payable": false,
      "stateMutability": "view",
      "type": "function"
    },
    {
      "constant": false,
      "inputs": [
        {
          "internalType": "address",
          "name": "_masterCopy",
          "type": "address"
        }
      ],
      "name": "changeMasterCopy",
      "outputs": [],
      "payable": false,
      "stateMutability": "nonpayable",
      "type": "function"
    },
    {
      "constant": true,
      "inputs": [],
      "name": "decimals",
      "outputs": [
        {
          "internalType": "uint8",
          "name": "",
          "type": "uint8"
        }
      ],
      "payable": false,
      "stateMutability": "view",
      "type": "function"
    },
    {
      "constant": false,
      "inputs": [
        {
          "internalType": "address",
          "name": "spender",
          "type": "address"
        },
        {
          "internalType": "uint256",
          "name": "subtractedValue",
          "type": "uint256"
        }
      ],
      "name": "decreaseAllowance",
      "outputs": [
        {
          "internalType": "bool",
          "name": "",
          "type": "bool"
        }
      ],
      "payable": false,
      "stateMutability": "nonpayable",
      "type": "function"
    },
    {
      "constant": true,
      "inputs": [],
      "name": "emergencyConditions",
      "outputs": [
        {
          "internalType": "uint8",
          "name": "",
          "type": "uint8"
        }
      ],
      "payable": false,
      "stateMutability": "view",
      "type": "function"
    },
    {
      "constant": true,
      "inputs": [
        {
          "internalType": "address",
          "name": "_tokenAddress",
          "type": "address"
        }
      ],
      "name": "getTokenBalance",
      "outputs": [
        {
          "internalType": "uint256",
          "name": "",
          "type": "uint256"
        }
      ],
      "payable": false,
      "stateMutability": "view",
      "type": "function"
    },
    {
      "constant": true,
      "inputs": [],
      "name": "getVaultActiveStrategy",
      "outputs": [
        {
          "internalType": "address[]",
          "name": "",
          "type": "address[]"
        }
      ],
      "payable": false,
      "stateMutability": "view",
      "type": "function"
    },
    {
      "constant": true,
      "inputs": [],
      "name": "getVaultNAV",
      "outputs": [
        {
          "internalType": "uint256",
          "name": "",
          "type": "uint256"
        }
      ],
      "payable": false,
      "stateMutability": "view",
      "type": "function"
    },
    {
      "constant": true,
      "inputs": [],
      "name": "getVaultNAVWithoutStrategyToken",
      "outputs": [
        {
          "internalType": "uint256",
          "name": "",
          "type": "uint256"
        }
      ],
      "payable": false,
      "stateMutability": "view",
      "type": "function"
    },
    {
      "constant": false,
      "inputs": [
        {
          "internalType": "address",
          "name": "spender",
          "type": "address"
        },
        {
          "internalType": "uint256",
          "name": "addedValue",
          "type": "uint256"
        }
      ],
      "name": "increaseAllowance",
      "outputs": [
        {
          "internalType": "bool",
          "name": "",
          "type": "bool"
        }
      ],
      "payable": false,
      "stateMutability": "nonpayable",
      "type": "function"
    },
    {
      "constant": true,
      "inputs": [],
      "name": "name",
      "outputs": [
        {
          "internalType": "string",
          "name": "",
          "type": "string"
        }
      ],
      "payable": false,
      "stateMutability": "view",
      "type": "function"
    },
    {
      "constant": false,
      "inputs": [
        {
          "internalType": "address",
          "name": "operator",
          "type": "address"
        },
        {
          "internalType": "address",
          "name": "from",
          "type": "address"
        },
        {
          "internalType": "uint256[]",
          "name": "ids",
          "type": "uint256[]"
        },
        {
          "internalType": "uint256[]",
          "name": "values",
          "type": "uint256[]"
        },
        {
          "internalType": "bytes",
          "name": "data",
          "type": "bytes"
        }
      ],
      "name": "onERC1155BatchReceived",
      "outputs": [
        {
          "internalType": "bytes4",
          "name": "",
          "type": "bytes4"
        }
      ],
      "payable": false,
      "stateMutability": "nonpayable",
      "type": "function"
    },
    {
      "constant": false,
      "inputs": [
        {
          "internalType": "address",
          "name": "operator",
          "type": "address"
        },
        {
          "internalType": "address",
          "name": "from",
          "type": "address"
        },
        {
          "internalType": "uint256",
          "name": "id",
          "type": "uint256"
        },
        {
          "internalType": "uint256",
          "name": "value",
          "type": "uint256"
        },
        {
          "internalType": "bytes",
          "name": "data",
          "type": "bytes"
        }
      ],
      "name": "onERC1155Received",
      "outputs": [
        {
          "internalType": "bytes4",
          "name": "",
          "type": "bytes4"
        }
      ],
      "payable": false,
      "stateMutability": "nonpayable",
      "type": "function"
    },
    {
      "constant": true,
      "inputs": [],
      "name": "owner",
      "outputs": [
        {
          "internalType": "address",
          "name": "",
          "type": "address"
        }
      ],
      "payable": false,
      "stateMutability": "view",
      "type": "function"
    },
    {
      "constant": true,
      "inputs": [
        {
          "internalType": "bytes4",
          "name": "interfaceId",
          "type": "bytes4"
        }
      ],
      "name": "supportsInterface",
      "outputs": [
        {
          "internalType": "bool",
          "name": "",
          "type": "bool"
        }
      ],
      "payable": false,
      "stateMutability": "view",
      "type": "function"
    },
    {
      "constant": true,
      "inputs": [],
      "name": "symbol",
      "outputs": [
        {
          "internalType": "string",
          "name": "",
          "type": "string"
        }
      ],
      "payable": false,
      "stateMutability": "view",
      "type": "function"
    },
    {
      "constant": true,
      "inputs": [],
      "name": "tokenValueInUSD",
      "outputs": [
        {
          "internalType": "uint256",
          "name": "",
          "type": "uint256"
        }
      ],
      "payable": false,
      "stateMutability": "view",
      "type": "function"
    },
    {
      "constant": true,
      "inputs": [],
      "name": "totalSupply",
      "outputs": [
        {
          "internalType": "uint256",
          "name": "",
          "type": "uint256"
        }
      ],
      "payable": false,
      "stateMutability": "view",
      "type": "function"
    },
    {
      "constant": false,
      "inputs": [
        {
          "internalType": "address",
          "name": "recipient",
          "type": "address"
        },
        {
          "internalType": "uint256",
          "name": "amount",
          "type": "uint256"
        }
      ],
      "name": "transfer",
      "outputs": [
        {
          "internalType": "bool",
          "name": "",
          "type": "bool"
        }
      ],
      "payable": false,
      "stateMutability": "nonpayable",
      "type": "function"
    },
    {
      "constant": false,
      "inputs": [
        {
          "internalType": "address",
          "name": "sender",
          "type": "address"
        },
        {
          "internalType": "address",
          "name": "recipient",
          "type": "address"
        },
        {
          "internalType": "uint256",
          "name": "amount",
          "type": "uint256"
        }
      ],
      "name": "transferFrom",
      "outputs": [
        {
          "internalType": "bool",
          "name": "",
          "type": "bool"
        }
      ],
      "payable": false,
      "stateMutability": "nonpayable",
      "type": "function"
    },
    {
      "constant": true,
      "inputs": [],
      "name": "vaultAPSManager",
      "outputs": [
        {
          "internalType": "address",
          "name": "",
          "type": "address"
        }
      ],
      "payable": false,
      "stateMutability": "view",
      "type": "function"
    },
    {
      "constant": true,
      "inputs": [],
      "name": "vaultStrategyManager",
      "outputs": [
        {
          "internalType": "address",
          "name": "",
          "type": "address"
        }
      ],
      "payable": false,
      "stateMutability": "view",
      "type": "function"
    },
    {
      "constant": false,
      "inputs": [
        {
          "internalType": "address",
          "name": "targetToken",
          "type": "address"
        },
        {
          "internalType": "uint256",
          "name": "nav",
          "type": "uint256"
        }
      ],
      "name": "exchangeTokens",
      "outputs": [
        {
          "internalType": "uint256",
          "name": "",
          "type": "uint256"
        }
      ],
      "payable": false,
      "stateMutability": "nonpayable",
      "type": "function"
    }
  ],
  "bytecode": "0x6080604052620000387f01ffc9a7000000000000000000000000000000000000000000000000000000006001600160e01b036200007216565b6200006c7f4e2312e0000000000000000000000000000000000000000000000000000000006001600160e01b036200007216565b62000173565b7fffffffff000000000000000000000000000000000000000000000000000000008082161415620000da576040517f08c379a0000000000000000000000000000000000000000000000000000000008152600401620000d19062000152565b60405180910390fd5b7fffffffff00000000000000000000000000000000000000000000000000000000166000908152600760205260409020805460ff19166001179055565b600062000126601c836200016a565b7f4552433136353a20696e76616c696420696e7465726661636520696400000000815260200192915050565b60208082528101620001648162000117565b92915050565b90815260200190565b6131f380620001836000396000f3fe608060405234801561001057600080fd5b506004361061018e5760003560e01c80634256fa9f116100de578063a457c2d711610097578063b28aaf7d11610071578063b28aaf7d1461030a578063bc197c8114610312578063dd62ed3e14610332578063f23a6e61146103455761018e565b8063a457c2d7146102cf578063a9059cbb146102e2578063ac221b5c146102f55761018e565b80634256fa9f1461027c5780635969326b1461028f57806370a08231146102975780637de7edef146102aa5780638da5cb5b146102bf57806395d89b41146102c75761018e565b80632b27ef661161014b57806333846027116101255780633384602714610246578063395093511461024e5780633aecd0e3146102615780633f514315146102745761018e565b80632b27ef66146102215780632c9a410514610236578063313ce5671461023e5761018e565b806301ffc9a71461019357806306fdde03146101bc578063095ea7b3146101d15780630c6a957f146101e457806318160ddd146101f957806323b872dd1461020e575b600080fd5b6101a66101a13660046129de565b610358565b6040516101b39190612f2d565b60405180910390f35b6101c4610377565b6040516101b39190612f49565b6101a66101df36600461295b565b61040e565b6101ec61042c565b6040516101b39190613038565b610201610435565b6040516101b3919061302a565b6101a661021c36600461287e565b61043b565b6102296104c9565b6040516101b39190612e9a565b6102016104d8565b6101ec6109fa565b610229610a03565b6101a661025c36600461295b565b610a19565b61020161026f36600461273e565b610a6d565b610229610aee565b61020161028a36600461295b565b610afd565b610201611038565b6102016102a536600461273e565b611086565b6102bd6102b836600461273e565b6110a1565b005b61022961113c565b6101c461114b565b6101a66102dd36600461295b565b6111ac565b6101a66102f036600461295b565b61121a565b6102fd61122e565b6040516101b39190612f1c565b6102016112bf565b6103256103203660046127b4565b6114b0565b6040516101b39190612f3b565b61020161034036600461277a565b6114be565b6103256103533660046128cb565b6114e9565b6001600160e01b03191660009081526007602052604090205460ff1690565b60048054604080516020601f60026000196101006001881615020190951694909404938401819004810282018101909252828152606093909290918301828280156104035780601f106103d857610100808354040283529160200191610403565b820191906000526020600020905b8154815290600101906020018083116103e657829003601f168201915b505050505090505b90565b600061042261041b6114f5565b84846114f9565b5060015b92915050565b60085460ff1681565b60035490565b60006104488484846115ad565b6104be846104546114f5565b6104b985604051806060016040528060288152602001613164602891396001600160a01b038a166000908152600260205260408120906104926114f5565b6001600160a01b03168152602081019190915260400160002054919063ffffffff6116c316565b6114f9565b5060015b9392505050565b600b546001600160a01b031681565b600060606104e461122e565b90506000805b600d5481101561083d57600f54600d80546000926001600160a01b031691633aecd0e3918590811061051857fe5b6000918252602090912001546040516001600160e01b031960e084901b16815261054e916001600160a01b031690600401612e9a565b60206040518083038186803b15801561056657600080fd5b505afa15801561057a573d6000803e3d6000fd5b505050506040513d601f19601f8201168201806040525061059e91908101906129fc565b111561083557600854600d8054600092630100000090046001600160a01b031691638b2f0f4f91859081106105cf57fe5b6000918252602090912001546040516001600160e01b031960e084901b168152610605916001600160a01b031690600401612e9a565b60206040518083038186803b15801561061d57600080fd5b505afa158015610631573d6000803e3d6000fd5b505050506040513d601f19601f8201168201806040525061065591908101906129fc565b905061082f81600860039054906101000a90046001600160a01b03166001600160a01b0316635a72fee86040518163ffffffff1660e01b815260040160206040518083038186803b1580156106a957600080fd5b505afa1580156106bd573d6000803e3d6000fd5b505050506040513d601f19601f820116820180604052506106e1919081019061275c565b6001600160a01b031663b2809e18600d86815481106106fc57fe5b600091825260209091200154600f54600d80546001600160a01b039384169390921691633aecd0e391908a90811061073057fe5b6000918252602090912001546040516001600160e01b031960e084901b168152610766916001600160a01b031690600401612e9a565b60206040518083038186803b15801561077e57600080fd5b505afa158015610792573d6000803e3d6000fd5b505050506040513d601f19601f820116820180604052506107b691908101906129fc565b6040518363ffffffff1660e01b81526004016107d3929190612f01565b60206040518083038186803b1580156107eb57600080fd5b505afa1580156107ff573d6000803e3d6000fd5b505050506040513d601f19601f8201168201806040525061082391908101906129fc565b9063ffffffff6116ef16565b83019250505b6001016104ea565b5081516108655761085c81670de0b6b3a764000063ffffffff61172916565b9250505061040b565b60005b82518110156109e157600083828151811061087f57fe5b60200260200101516001600160a01b03166370a08231306040518263ffffffff1660e01b81526004016108b29190612e9a565b60206040518083038186803b1580156108ca57600080fd5b505afa1580156108de573d6000803e3d6000fd5b505050506040513d601f19601f8201168201806040525061090291908101906129fc565b11156109d957600083828151811061091657fe5b60200260200101516001600160a01b0316635969326b6040518163ffffffff1660e01b815260040160206040518083038186803b15801561095657600080fd5b505afa15801561096a573d6000803e3d6000fd5b505050506040513d601f19601f8201168201806040525061098e91908101906129fc565b90506109d3818584815181106109a057fe5b60200260200101516001600160a01b03166370a08231306040518263ffffffff1660e01b81526004016107d39190612e9a565b83019250505b600101610868565b5061085c81670de0b6b3a764000063ffffffff61172916565b60065460ff1690565b600854630100000090046001600160a01b031681565b6000610422610a266114f5565b846104b98560026000610a376114f5565b6001600160a01b03908116825260208083019390935260409182016000908120918c16815292529020549063ffffffff61176b16565b600f54604051633aecd0e360e01b81526000916001600160a01b031690633aecd0e390610a9e908590600401612e9a565b60206040518083038186803b158015610ab657600080fd5b505afa158015610aca573d6000803e3d6000fd5b505050506040513d601f19601f8201168201806040525061042691908101906129fc565b600a546001600160a01b031681565b6000808211610b275760405162461bcd60e51b8152600401610b1e90612f7a565b60405180910390fd5b6000610b338484611790565b90508015610b42579050610426565b60008080805b600d5481101561102a57876001600160a01b0316600d8281548110610b6957fe5b6000918252602090912001546001600160a01b031614611022578287111561100e57600854600d8054600092630100000090046001600160a01b031691638b2f0f4f9185908110610bb657fe5b6000918252602090912001546040516001600160e01b031960e084901b168152610bec916001600160a01b031690600401612e9a565b60206040518083038186803b158015610c0457600080fd5b505afa158015610c18573d6000803e3d6000fd5b505050506040513d601f19601f82011682018060405250610c3c91908101906129fc565b600f54600d80549293506000926001600160a01b0390921691633aecd0e3919086908110610c6657fe5b6000918252602090912001546040516001600160e01b031960e084901b168152610c9c916001600160a01b031690600401612e9a565b60206040518083038186803b158015610cb457600080fd5b505afa158015610cc8573d6000803e3d6000fd5b505050506040513d601f19601f82011682018060405250610cec91908101906129fc565b90506000610e41670de0b6b3a7640000610e35600860039054906101000a90046001600160a01b03166001600160a01b0316635a72fee86040518163ffffffff1660e01b815260040160206040518083038186803b158015610d4d57600080fd5b505afa158015610d61573d6000803e3d6000fd5b505050506040513d601f19601f82011682018060405250610d85919081019061275c565b6001600160a01b031663b2809e18600d8981548110610da057fe5b6000918252602090912001546040516001600160e01b031960e084901b168152610dd8916001600160a01b0316908990600401612f01565b60206040518083038186803b158015610df057600080fd5b505afa158015610e04573d6000803e3d6000fd5b505050506040513d601f19601f82011682018060405250610e2891908101906129fc565b869063ffffffff6116ef16565b9063ffffffff61172916565b9050858a038111610e8757610e78600d8581548110610e5c57fe5b6000918252602090912001546001600160a01b03168c84611afa565b9687019695810195945061100a565b6000868b0390506000600860039054906101000a90046001600160a01b03166001600160a01b0316635a72fee86040518163ffffffff1660e01b815260040160206040518083038186803b158015610ede57600080fd5b505afa158015610ef2573d6000803e3d6000fd5b505050506040513d601f19601f82011682018060405250610f16919081019061275c565b6001600160a01b031663566ab927600d8881548110610f3157fe5b6000918252602090912001546001600160a01b0316610f6288610e3587670de0b6b3a764000063ffffffff6116ef16565b6040518363ffffffff1660e01b8152600401610f7f929190612f01565b60206040518083038186803b158015610f9757600080fd5b505afa158015610fab573d6000803e3d6000fd5b505050506040513d601f19601f82011682018060405250610fcf91908101906129fc565b9050610ffd600d8781548110610fe157fe5b6000918252602090912001546001600160a01b03168e83611afa565b9889019897909101969550505b5050505b868310611022578395505050505050610426565b600101610b48565b506000945050505050610426565b60006110426104d8565b15806110535750611051610435565b155b156110605750600061040b565b61107f61106b610435565b610e35670de0b6b3a76400006108236104d8565b905061040b565b6001600160a01b031660009081526001602052604090205490565b3330146110c05760405162461bcd60e51b8152600401610b1e90612fda565b6001600160a01b0381166110e65760405162461bcd60e51b8152600401610b1e90612f6a565b600080546001600160a01b0319166001600160a01b0383161790556040517f75e41bc35ff1bf14d81d1d2f649c0084a0f974f9289c803ec9898eeec4c8d0b890611131908390612e9a565b60405180910390a150565b6009546001600160a01b031681565b60058054604080516020601f60026000196101006001881615020190951694909404938401819004810282018101909252828152606093909290918301828280156104035780601f106103d857610100808354040283529160200191610403565b60006104226111b96114f5565b846104b98560405180606001604052806025815260200161318c60259139600260006111e36114f5565b6001600160a01b03908116825260208083019390935260409182016000908120918d1681529252902054919063ffffffff6116c316565b60006104226112276114f5565b84846115ad565b60085460405163387971a160e11b8152606091630100000090046001600160a01b0316906370f2e34290611266903090600401612e9a565b60006040518083038186803b15801561127e57600080fd5b505afa158015611292573d6000803e3d6000fd5b505050506040513d6000823e601f3d908101601f191682016040526112ba919081019061298b565b905090565b600080805b600d5481101561149157600f54600d80546000926001600160a01b031691633aecd0e391859081106112f257fe5b6000918252602090912001546040516001600160e01b031960e084901b168152611328916001600160a01b031690600401612e9a565b60206040518083038186803b15801561134057600080fd5b505afa158015611354573d6000803e3d6000fd5b505050506040513d601f19601f8201168201806040525061137891908101906129fc565b111561148957600854600d8054600092630100000090046001600160a01b031691638b2f0f4f91859081106113a957fe5b6000918252602090912001546040516001600160e01b031960e084901b1681526113df916001600160a01b031690600401612e9a565b60206040518083038186803b1580156113f757600080fd5b505afa15801561140b573d6000803e3d6000fd5b505050506040513d601f19601f8201168201806040525061142f91908101906129fc565b905061148381600860039054906101000a90046001600160a01b03166001600160a01b0316635a72fee86040518163ffffffff1660e01b815260040160206040518083038186803b1580156106a957600080fd5b83019250505b6001016112c4565b506114aa81670de0b6b3a764000063ffffffff61172916565b91505090565b600098975050505050505050565b6001600160a01b03918216600090815260026020908152604080832093909416825291909152205490565b60009695505050505050565b3390565b6001600160a01b03831661151f5760405162461bcd60e51b8152600401610b1e90612fea565b6001600160a01b0382166115455760405162461bcd60e51b8152600401610b1e90612f8a565b6001600160a01b0380841660008181526002602090815260408083209487168084529490915290819020849055517f8c5be1e5ebec7d5bd14f71427d1e84f3dd0314c0f7b2291e5b200ac8c7c3b925906115a090859061302a565b60405180910390a3505050565b6001600160a01b0383166115d35760405162461bcd60e51b8152600401610b1e90612fca565b6001600160a01b0382166115f95760405162461bcd60e51b8152600401610b1e90612f5a565b61163c8160405180606001604052806026815260200161313e602691396001600160a01b038616600090815260016020526040902054919063ffffffff6116c316565b6001600160a01b038085166000908152600160205260408082209390935590841681522054611671908263ffffffff61176b16565b6001600160a01b0380841660008181526001602052604090819020939093559151908516907fddf252ad1be2c89b69c2b068fc378daa952ba7f163c4a11628f55a4df523b3ef906115a090859061302a565b600081848411156116e75760405162461bcd60e51b8152600401610b1e9190612f49565b505050900390565b6000826116fe57506000610426565b8282028284828161170b57fe5b04146104c25760405162461bcd60e51b8152600401610b1e90612fba565b60006104c283836040518060400160405280601a81526020017f536166654d6174683a206469766973696f6e206279207a65726f000000000000815250611e88565b6000828201838110156104c25760405162461bcd60e51b8152600401610b1e90612f9a565b6000805b600d54811015611af057836001600160a01b0316600d82815481106117b557fe5b6000918252602090912001546001600160a01b031614611ae857600854600d8054600092630100000090046001600160a01b031691638b2f0f4f91859081106117fa57fe5b6000918252602090912001546040516001600160e01b031960e084901b168152611830916001600160a01b031690600401612e9a565b60206040518083038186803b15801561184857600080fd5b505afa15801561185c573d6000803e3d6000fd5b505050506040513d601f19601f8201168201806040525061188091908101906129fc565b905083611968670de0b6b3a7640000610e3584600860039054906101000a90046001600160a01b03166001600160a01b0316635a72fee86040518163ffffffff1660e01b815260040160206040518083038186803b1580156118e157600080fd5b505afa1580156118f5573d6000803e3d6000fd5b505050506040513d601f19601f82011682018060405250611919919081019061275c565b6001600160a01b031663b2809e18600d898154811061193457fe5b600091825260209091200154600f54600d80546001600160a01b039384169390921691633aecd0e391908d90811061073057fe5b10611ae657600061198b82610e3587670de0b6b3a764000063ffffffff6116ef16565b90506000611ada600d858154811061199f57fe5b6000918252602091829020015460085460408051630b4e5fdd60e31b815290516001600160a01b03938416948d94630100000090940490931692635a72fee89260048082019391829003018186803b1580156119fa57600080fd5b505afa158015611a0e573d6000803e3d6000fd5b505050506040513d601f19601f82011682018060405250611a32919081019061275c565b6001600160a01b031663566ab927600d8981548110611a4d57fe5b6000918252602090912001546040516001600160e01b031960e084901b168152611a85916001600160a01b0316908990600401612f01565b60206040518083038186803b158015611a9d57600080fd5b505afa158015611ab1573d6000803e3d6000fd5b505050506040513d601f19601f82011682018060405250611ad591908101906129fc565b611afa565b94506104269350505050565b505b600101611794565b5060009392505050565b600080600860039054906101000a90046001600160a01b03166001600160a01b0316634407ea176040518163ffffffff1660e01b8152600401602060405180830381600087803b158015611b4d57600080fd5b505af1158015611b61573d6000803e3d6000fd5b505050506040513d601f19601f82011682018060405250611b85919081019061275c565b6001600160a01b031663e6a4390586866040518363ffffffff1660e01b8152600401611bb2929190612ea8565b602060405180830381600087803b158015611bcc57600080fd5b505af1158015611be0573d6000803e3d6000fd5b505050506040513d601f19601f82011682018060405250611c04919081019061275c565b9050611c11858285611ebf565b6000611c1e868686611f9f565b90506000826001600160a01b031663fe029156888888866040518563ffffffff1660e01b8152600401611c549493929190612ec3565b602060405180830381600087803b158015611c6e57600080fd5b505af1158015611c82573d6000803e3d6000fd5b505050506040513d601f19601f82011682018060405250611ca691908101906129fc565b600f54604051633aecd0e360e01b81529192506001600160a01b031690634ceb1f13908990611d439089908590633aecd0e390611ce7908690600401612e9a565b60206040518083038186803b158015611cff57600080fd5b505afa158015611d13573d6000803e3d6000fd5b505050506040513d601f19601f82011682018060405250611d3791908101906129fc565b9063ffffffff61239116565b6040518363ffffffff1660e01b8152600401611d60929190612f01565b600060405180830381600087803b158015611d7a57600080fd5b505af1158015611d8e573d6000803e3d6000fd5b5050600f54604051633aecd0e360e01b81526001600160a01b039091169250634ceb1f1391508890611e2e9085908590633aecd0e390611dd2908690600401612e9a565b60206040518083038186803b158015611dea57600080fd5b505afa158015611dfe573d6000803e3d6000fd5b505050506040513d601f19601f82011682018060405250611e2291908101906129fc565b9063ffffffff61176b16565b6040518363ffffffff1660e01b8152600401611e4b929190612f01565b600060405180830381600087803b158015611e6557600080fd5b505af1158015611e79573d6000803e3d6000fd5b50929998505050505050505050565b60008183611ea95760405162461bcd60e51b8152600401610b1e9190612f49565b506000838581611eb557fe5b0495945050505050565b604051636eb1769f60e11b81526000906001600160a01b0385169063dd62ed3e90611ef09030908790600401612ea8565b60206040518083038186803b158015611f0857600080fd5b505afa158015611f1c573d6000803e3d6000fd5b505050506040513d601f19601f82011682018060405250611f4091908101906129fc565b1115611f8057611f616001600160a01b03841683600063ffffffff6123d316565b611f7b6001600160a01b038416838363ffffffff6123d316565b611f9a565b611f9a6001600160a01b038416838363ffffffff6123d316565b505050565b600080600860039054906101000a90046001600160a01b03166001600160a01b03166374b0d31d6040518163ffffffff1660e01b815260040160206040518083038186803b158015611ff057600080fd5b505afa158015612004573d6000803e3d6000fd5b505050506040513d601f19601f8201168201806040525061202891908101906129fc565b600854604051638b2f0f4f60e01b815291925060009163010000009091046001600160a01b031690638b2f0f4f90612064908990600401612e9a565b60206040518083038186803b15801561207c57600080fd5b505afa158015612090573d6000803e3d6000fd5b505050506040513d601f19601f820116820180604052506120b491908101906129fc565b600854604051638b2f0f4f60e01b815291925060009163010000009091046001600160a01b031690638b2f0f4f906120f0908990600401612e9a565b60206040518083038186803b15801561210857600080fd5b505afa15801561211c573d6000803e3d6000fd5b505050506040513d601f19601f8201168201806040525061214091908101906129fc565b90506000600860039054906101000a90046001600160a01b03166001600160a01b0316635a72fee86040518163ffffffff1660e01b815260040160206040518083038186803b15801561219257600080fd5b505afa1580156121a6573d6000803e3d6000fd5b505050506040513d601f19601f820116820180604052506121ca919081019061275c565b6001600160a01b031663b2809e1889886040518363ffffffff1660e01b81526004016121f7929190612f01565b60206040518083038186803b15801561220f57600080fd5b505afa158015612223573d6000803e3d6000fd5b505050506040513d601f19601f8201168201806040525061224791908101906129fc565b9050600061225f83610e35848763ffffffff6116ef16565b90506000600860039054906101000a90046001600160a01b03166001600160a01b0316635a72fee86040518163ffffffff1660e01b815260040160206040518083038186803b1580156122b157600080fd5b505afa1580156122c5573d6000803e3d6000fd5b505050506040513d601f19601f820116820180604052506122e9919081019061275c565b6001600160a01b031663566ab9278a846040518363ffffffff1660e01b8152600401612316929190612f01565b60206040518083038186803b15801561232e57600080fd5b505afa158015612342573d6000803e3d6000fd5b505050506040513d601f19601f8201168201806040525061236691908101906129fc565b90506000612380612710610e35848a63ffffffff6116ef16565b9091039a9950505050505050505050565b60006104c283836040518060400160405280601e81526020017f536166654d6174683a207375627472616374696f6e206f766572666c6f7700008152506116c3565b80158061245b5750604051636eb1769f60e11b81526001600160a01b0384169063dd62ed3e906124099030908690600401612ea8565b60206040518083038186803b15801561242157600080fd5b505afa158015612435573d6000803e3d6000fd5b505050506040513d601f19601f8201168201806040525061245991908101906129fc565b155b6124775760405162461bcd60e51b8152600401610b1e9061300a565b604051611f9a90849063095ea7b360e01b906124999086908690602401612f01565b60408051601f198184030181529190526020810180516001600160e01b03166001600160e01b0319909316929092179091526124dd826001600160a01b03166125b6565b6124f95760405162461bcd60e51b8152600401610b1e9061301a565b60006060836001600160a01b0316836040516125159190612e8e565b6000604051808303816000865af19150503d8060008114612552576040519150601f19603f3d011682016040523d82523d6000602084013e612557565b606091505b5091509150816125795760405162461bcd60e51b8152600401610b1e90612faa565b8051156125b0578080602001905161259491908101906129c0565b6125b05760405162461bcd60e51b8152600401610b1e90612ffa565b50505050565b6000813f7fc5d2460186f7233c927e7db2dcc703c0e500b653ca82273b7bfad8045d85a4708181148015906125ea57508115155b949350505050565b80356104268161310b565b80516104268161310b565b600082601f83011261261957600080fd5b815161262c6126278261306d565b613046565b9150818183526020840193506020810190508385602084028201111561265157600080fd5b60005b8381101561267d578161266788826125fd565b8452506020928301929190910190600101612654565b5050505092915050565b60008083601f84011261269957600080fd5b50813567ffffffffffffffff8111156126b157600080fd5b6020830191508360208202830111156126c957600080fd5b9250929050565b805161042681613122565b80356104268161312b565b60008083601f8401126126f857600080fd5b50813567ffffffffffffffff81111561271057600080fd5b6020830191508360018202830111156126c957600080fd5b803561042681613134565b805161042681613134565b60006020828403121561275057600080fd5b60006125ea84846125f2565b60006020828403121561276e57600080fd5b60006125ea84846125fd565b6000806040838503121561278d57600080fd5b600061279985856125f2565b92505060206127aa858286016125f2565b9150509250929050565b60008060008060008060008060a0898b0312156127d057600080fd5b60006127dc8b8b6125f2565b98505060206127ed8b828c016125f2565b975050604089013567ffffffffffffffff81111561280a57600080fd5b6128168b828c01612687565b9650965050606089013567ffffffffffffffff81111561283557600080fd5b6128418b828c01612687565b9450945050608089013567ffffffffffffffff81111561286057600080fd5b61286c8b828c016126e6565b92509250509295985092959890939650565b60008060006060848603121561289357600080fd5b600061289f86866125f2565b93505060206128b0868287016125f2565b92505060406128c186828701612728565b9150509250925092565b60008060008060008060a087890312156128e457600080fd5b60006128f089896125f2565b965050602061290189828a016125f2565b955050604061291289828a01612728565b945050606061292389828a01612728565b935050608087013567ffffffffffffffff81111561294057600080fd5b61294c89828a016126e6565b92509250509295509295509295565b6000806040838503121561296e57600080fd5b600061297a85856125f2565b92505060206127aa85828601612728565b60006020828403121561299d57600080fd5b815167ffffffffffffffff8111156129b457600080fd5b6125ea84828501612608565b6000602082840312156129d257600080fd5b60006125ea84846126d0565b6000602082840312156129f057600080fd5b60006125ea84846126db565b600060208284031215612a0e57600080fd5b60006125ea8484612733565b6000612a268383612a2e565b505060200190565b612a37816130a6565b82525050565b6000612a4882613094565b612a528185613098565b9350612a5d8361308e565b8060005b83811015612a8b578151612a758882612a1a565b9750612a808361308e565b925050600101612a61565b509495945050505050565b612a37816130b1565b612a37816130b6565b6000612ab382613094565b612abd81856130a1565b9350612acd8185602086016130d5565b9290920192915050565b6000612ae282613094565b612aec8185613098565b9350612afc8185602086016130d5565b612b0581613101565b9093019392505050565b6000612b1c602383613098565b7f45524332303a207472616e7366657220746f20746865207a65726f206164647281526265737360e81b602082015260400192915050565b6000612b61602483613098565b7f496e76616c6964206d617374657220636f707920616464726573732070726f768152631a59195960e21b602082015260400192915050565b6000612ba7601583613098565b741b9bdb881e995c9bc81b985d881c995c5d5a5c9959605a1b815260200192915050565b6000612bd8602283613098565b7f45524332303a20617070726f766520746f20746865207a65726f206164647265815261737360f01b602082015260400192915050565b6000612c1c601b83613098565b7f536166654d6174683a206164646974696f6e206f766572666c6f770000000000815260200192915050565b6000612c55602083613098565b7f5361666545524332303a206c6f772d6c6576656c2063616c6c206661696c6564815260200192915050565b6000612c8e602183613098565b7f536166654d6174683a206d756c7469706c69636174696f6e206f766572666c6f8152607760f81b602082015260400192915050565b6000612cd1602583613098565b7f45524332303a207472616e736665722066726f6d20746865207a65726f206164815264647265737360d81b602082015260400192915050565b6000612d18602c83613098565b7f4d6574686f642063616e206f6e6c792062652063616c6c65642066726f6d207481526b1a1a5cc818dbdb9d1c9858dd60a21b602082015260400192915050565b6000612d66602483613098565b7f45524332303a20617070726f76652066726f6d20746865207a65726f206164648152637265737360e01b602082015260400192915050565b6000612dac602a83613098565b7f5361666545524332303a204552433230206f7065726174696f6e20646964206e8152691bdd081cdd58d8d9595960b21b602082015260400192915050565b6000612df8603683613098565b7f5361666545524332303a20617070726f76652066726f6d206e6f6e2d7a65726f81527520746f206e6f6e2d7a65726f20616c6c6f77616e636560501b602082015260400192915050565b6000612e50601f83613098565b7f5361666545524332303a2063616c6c20746f206e6f6e2d636f6e747261637400815260200192915050565b612a378161040b565b612a37816130cf565b60006104c28284612aa8565b602081016104268284612a2e565b60408101612eb68285612a2e565b6104c26020830184612a2e565b60808101612ed18287612a2e565b612ede6020830186612a2e565b612eeb6040830185612e7c565b612ef86060830184612e7c565b95945050505050565b60408101612f0f8285612a2e565b6104c26020830184612e7c565b602080825281016104c28184612a3d565b602081016104268284612a96565b602081016104268284612a9f565b602080825281016104c28184612ad7565b6020808252810161042681612b0f565b6020808252810161042681612b54565b6020808252810161042681612b9a565b6020808252810161042681612bcb565b6020808252810161042681612c0f565b6020808252810161042681612c48565b6020808252810161042681612c81565b6020808252810161042681612cc4565b6020808252810161042681612d0b565b6020808252810161042681612d59565b6020808252810161042681612d9f565b6020808252810161042681612deb565b6020808252810161042681612e43565b602081016104268284612e7c565b602081016104268284612e85565b60405181810167ffffffffffffffff8111828210171561306557600080fd5b604052919050565b600067ffffffffffffffff82111561308457600080fd5b5060209081020190565b60200190565b5190565b90815260200190565b919050565b6000610426826130c3565b151590565b6001600160e01b03191690565b6001600160a01b031690565b60ff1690565b60005b838110156130f05781810151838201526020016130d8565b838111156125b05750506000910152565b601f01601f191690565b613114816130a6565b811461311f57600080fd5b50565b613114816130b1565b613114816130b6565b6131148161040b56fe45524332303a207472616e7366657220616d6f756e7420657863656564732062616c616e636545524332303a207472616e7366657220616d6f756e74206578636565647320616c6c6f77616e636545524332303a2064656372656173656420616c6c6f77616e63652062656c6f77207a65726fa365627a7a723158206a536881d3179efb64fb717fa3d570d4268c3149bf383715c43f830a783e799c6c6578706572696d656e74616cf564736f6c63430005110040",
  "source": "// SPDX-License-Identifier: MIT\npragma solidity >=0.5.0 <0.7.0;\npragma experimental ABIEncoderV2;\nimport \"../storage/VaultStorage.sol\";\n\ncontract Exchange is VaultStorage {\n    /// @dev Function to exchange tokens to for a target token.\n    /// @param targetToken Address of the target token.\n    /// @param nav Nav to exchange.\n    function exchangeSingleToken(address targetToken, uint256 nav)\n        internal\n        returns (uint256)\n    {\n        for (uint256 i = 0; i < assetList.length; i++) {\n            if (assetList[i] != targetToken) {\n                uint256 haveTokenUSD = IAPContract(APContract).getUSDPrice(\n                    assetList[i]\n                );\n                if (\n                    (\n                        IHexUtils(IAPContract(APContract).stringUtils())\n                            .toDecimals(\n                                assetList[i],\n                                tokenBalances.getTokenBalance(assetList[i])\n                            )\n                            .mul(haveTokenUSD)\n                    ).div(1e18) >= nav\n                ) {\n                    uint256 amountToExchange = (nav.mul(1e18)).div(\n                        haveTokenUSD\n                    );\n                    uint256 returnedTokenCount = swap(\n                        assetList[i],\n                        targetToken,\n                        IHexUtils(IAPContract(APContract).stringUtils())\n                            .fromDecimals(assetList[i], amountToExchange)\n                    );\n                    return returnedTokenCount;\n                }\n            }\n        }\n        return 0;\n    }\n\n    function calculateSlippage(\n        address fromToken,\n        address toToken,\n        uint256 amount\n    ) internal view returns (uint256) {\n        uint256 slippage = IAPContract(APContract).getVaultSlippage();\n        uint256 fromTokenUSD = IAPContract(APContract).getUSDPrice(fromToken);\n        uint256 toTokenUSD = IAPContract(APContract).getUSDPrice(toToken);\n        uint256 fromTokenAmountDecimals = IHexUtils(\n            IAPContract(APContract).stringUtils()\n        ).toDecimals(fromToken, amount);\n\n        uint256 expectedToTokenDecimal = (\n            fromTokenAmountDecimals.mul(fromTokenUSD)\n        ).div(toTokenUSD);\n        uint256 expectedToToken = IHexUtils(\n            IAPContract(APContract).stringUtils()\n        ).fromDecimals(toToken, expectedToTokenDecimal);\n        uint256 minReturn = expectedToToken - //SLIPPAGE\n            expectedToToken.mul(slippage).div(10000);\n        return minReturn;\n    }\n\n    /// @dev Function to exchange tokens to for a target token.\n    /// @param fromToken Address of the from token.\n    /// @param toToken Address of the to token.\n    /// @param amount Amount of tokens to exchange.\n    function swap(\n        address fromToken,\n        address toToken,\n        uint256 amount\n    ) internal returns (uint256) {\n        address exchange = IExchangeRegistry(\n            IAPContract(APContract).exchangeRegistry()\n        ).getPair(fromToken, toToken);\n        _approveToken(fromToken, exchange, amount);\n        uint256 minReturn = calculateSlippage(fromToken, toToken, amount);\n\n        uint256 returnedTokenCount = IExchange(exchange).swap(\n            fromToken,\n            toToken,\n            amount,\n            minReturn\n        );\n        tokenBalances.setTokenBalance(\n            fromToken,\n            tokenBalances.getTokenBalance(fromToken).sub(amount)\n        );\n        tokenBalances.setTokenBalance(\n            toToken,\n            tokenBalances.getTokenBalance(toToken).add(returnedTokenCount)\n        );\n        return returnedTokenCount;\n    }\n\n    /// @dev Function to exchange tokens to for a target token.\n    /// @param targetToken Address of the target token.\n    /// @param nav Nav to exchange.\n    function exchangeTokens(address targetToken, uint256 nav)\n        public\n        returns (uint256)\n    {\n        require(nav > 0, \"non zero nav required\");\n        uint256 exchangedAmount = exchangeSingleToken(targetToken, nav);\n        if (exchangedAmount > 0) {\n            return exchangedAmount;\n        } else {\n            uint256 aquiredToken;\n            uint256 currentNav;\n            uint256 swappedAmount;\n\n            for (uint256 i = 0; i < assetList.length; i++) {\n                if (assetList[i] != targetToken) {\n                    if (nav > currentNav) {\n                        uint256 haveTokenUSD = IAPContract(APContract)\n                            .getUSDPrice(assetList[i]);\n                        uint256 haveTokenCount = tokenBalances.getTokenBalance(\n                            assetList[i]\n                        );\n                        uint256 haveTokenNav = (\n                            haveTokenUSD.mul(\n                                IHexUtils(IAPContract(APContract).stringUtils())\n                                    .toDecimals(assetList[i], haveTokenCount)\n                            )\n                        ).div(1e18);\n                        if (haveTokenNav <= (nav - currentNav)) {\n                            swappedAmount = swap(\n                                assetList[i],\n                                targetToken,\n                                haveTokenCount\n                            );\n                            aquiredToken += swappedAmount;\n                            currentNav += haveTokenNav;\n                        } else {\n                            uint256 navToExchange = nav - currentNav;\n                            uint256 tokensToExchange = IHexUtils(\n                                IAPContract(APContract).stringUtils()\n                            ).fromDecimals(\n                                    assetList[i],\n                                    (navToExchange.mul(1e18)).div(haveTokenUSD)\n                                );\n\n                            swappedAmount = swap(\n                                assetList[i],\n                                targetToken,\n                                tokensToExchange\n                            );\n                            aquiredToken += swappedAmount;\n                            currentNav += navToExchange;\n                        }\n                    }\n                    if (currentNav >= nav) return aquiredToken;\n                }\n            }\n            return 0;\n        }\n    }\n}\n",
  "sourcePath": "/home/dxuser/Documents/scode/yieldster-vault/contracts/exchange/Exchange.sol",
  "compiler": {
    "name": "solc",
    "version": "0.5.17+commit.d19bba13.Emscripten.clang"
  },
  "schemaVersion": "3.4.4",
  "updatedAt": "2022-02-04T04:47:14.771Z",
  "devdoc": {
    "methods": {
      "allowance(address,address)": {
        "details": "See {IERC20-allowance}."
      },
      "approve(address,uint256)": {
        "details": "See {IERC20-approve}.     * Requirements:     * - `spender` cannot be the zero address."
      },
      "balanceOf(address)": {
        "details": "See {IERC20-balanceOf}."
      },
      "changeMasterCopy(address)": {
        "details": "Allows to upgrade the contract. This can only be done via a Safe transaction.",
        "params": {
          "_masterCopy": "New contract address."
        }
      },
      "decimals()": {
        "details": "Returns the number of decimals used to get its user representation. For example, if `decimals` equals `2`, a balance of `505` tokens should be displayed to a user as `5,05` (`505 / 10 ** 2`).     * Tokens usually opt for a value of 18, imitating the relationship between Ether and Wei.     * NOTE: This information is only used for _display_ purposes: it in no way affects any of the arithmetic of the contract, including {IERC20-balanceOf} and {IERC20-transfer}."
      },
      "decreaseAllowance(address,uint256)": {
        "details": "Atomically decreases the allowance granted to `spender` by the caller.     * This is an alternative to {approve} that can be used as a mitigation for problems described in {IERC20-approve}.     * Emits an {Approval} event indicating the updated allowance.     * Requirements:     * - `spender` cannot be the zero address. - `spender` must have allowance for the caller of at least `subtractedValue`."
      },
      "exchangeTokens(address,uint256)": {
        "details": "Function to exchange tokens to for a target token.",
        "params": {
          "nav": "Nav to exchange.",
          "targetToken": "Address of the target token."
        }
      },
      "getVaultActiveStrategy()": {
        "details": "Function to get the address of active strategy in the vault."
      },
      "getVaultNAV()": {
        "details": "Function to return the NAV of the Vault."
      },
      "getVaultNAVWithoutStrategyToken()": {
        "details": "Function to return the NAV of the Vault excluding Strategy Tokens."
      },
      "increaseAllowance(address,uint256)": {
        "details": "Atomically increases the allowance granted to `spender` by the caller.     * This is an alternative to {approve} that can be used as a mitigation for problems described in {IERC20-approve}.     * Emits an {Approval} event indicating the updated allowance.     * Requirements:     * - `spender` cannot be the zero address."
      },
      "name()": {
        "details": "Returns the name of the token."
      },
      "supportsInterface(bytes4)": {
        "details": "See {IERC165-supportsInterface}.     * Time complexity O(1), guaranteed to always use less than 30 000 gas."
      },
      "symbol()": {
        "details": "Returns the symbol of the token, usually a shorter version of the name."
      },
      "tokenValueInUSD()": {
        "details": "Function to return Value of the Vault Token."
      },
      "totalSupply()": {
        "details": "See {IERC20-totalSupply}."
      },
      "transfer(address,uint256)": {
        "details": "See {IERC20-transfer}.     * Requirements:     * - `recipient` cannot be the zero address. - the caller must have a balance of at least `amount`."
      },
      "transferFrom(address,address,uint256)": {
        "details": "See {IERC20-transferFrom}.     * Emits an {Approval} event indicating the updated allowance. This is not required by the EIP. See the note at the beginning of {ERC20};     * Requirements: - `sender` and `recipient` cannot be the zero address. - `sender` must have a balance of at least `amount`. - the caller must have allowance for `sender`'s tokens of at least `amount`."
      }
    }
  },
  "userdoc": {
    "methods": {}
  }
}