{
  "contractName": "HexUtils",
  "abi": [
    {
      "constant": true,
      "inputs": [
        {
          "internalType": "bytes",
          "name": "ss",
          "type": "bytes"
        }
      ],
      "name": "fromHex",
      "outputs": [
        {
          "internalType": "bytes",
          "name": "",
          "type": "bytes"
        }
      ],
      "payable": false,
      "stateMutability": "pure",
      "type": "function"
    },
    {
      "constant": true,
      "inputs": [
        {
          "internalType": "uint8",
          "name": "c",
          "type": "uint8"
        }
      ],
      "name": "fromHexChar",
      "outputs": [
        {
          "internalType": "uint8",
          "name": "",
          "type": "uint8"
        }
      ],
      "payable": false,
      "stateMutability": "pure",
      "type": "function"
    },
    {
      "constant": true,
      "inputs": [
        {
          "internalType": "address",
          "name": "tokenAddress",
          "type": "address"
        },
        {
          "internalType": "uint256",
          "name": "tokenCount",
          "type": "uint256"
        }
      ],
      "name": "toDecimals",
      "outputs": [
        {
          "internalType": "uint256",
          "name": "",
          "type": "uint256"
        }
      ],
      "payable": false,
      "stateMutability": "view",
      "type": "function"
    },
    {
      "constant": true,
      "inputs": [
        {
          "internalType": "address",
          "name": "tokenAddress",
          "type": "address"
        },
        {
          "internalType": "uint256",
          "name": "tokenCount",
          "type": "uint256"
        }
      ],
      "name": "fromDecimals",
      "outputs": [
        {
          "internalType": "uint256",
          "name": "",
          "type": "uint256"
        }
      ],
      "payable": false,
      "stateMutability": "view",
      "type": "function"
    }
  ],
  "bytecode": "0x608060405234801561001057600080fd5b506106ca806100206000396000f3fe608060405234801561001057600080fd5b506004361061004c5760003560e01c80632ecb20d31461005157806345b7822214610087578063566ab927146101a2578063b2809e18146101e0575b600080fd5b6100716004803603602081101561006757600080fd5b503560ff1661020c565b6040805160ff9092168252519081900360200190f35b61012d6004803603602081101561009d57600080fd5b8101906020810181356401000000008111156100b857600080fd5b8201836020820111156100ca57600080fd5b803590602001918460018302840111640100000000831117156100ec57600080fd5b91908080601f0160208091040260200160405190810160405280939291908181526020018383808284376000920191909152509295506102db945050505050565b6040805160208082528351818301528351919283929083019185019080838360005b8381101561016757818101518382015260200161014f565b50505050905090810190601f1680156101945780820380516001836020036101000a031916815260200191505b509250505060405180910390f35b6101ce600480360360408110156101b857600080fd5b506001600160a01b0381351690602001356103b1565b60408051918252519081900360200190f35b6101ce600480360360408110156101f657600080fd5b506001600160a01b03813516906020013561047a565b6000600360fc1b60f883901b6001600160f81b031916108015906102425750603960f81b60f883901b6001600160f81b03191611155b156102525750602f1981016102d6565b606160f81b60f883901b6001600160f81b031916108015906102865750603360f91b60f883901b6001600160f81b03191611155b15610296575060561981016102d6565b604160f81b60f883901b6001600160f81b031916108015906102ca5750602360f91b60f883901b6001600160f81b03191611155b156102d6575060361981015b919050565b606060028251816102e857fe5b06156102f357600080fd5b6060600283518161030057fe5b046040519080825280601f01601f19166020018201604052801561032b576020820181803883390190505b50905060005b600284518161033c57fe5b048110156103aa5761036684826002026001018151811061035957fe5b016020015160f81c61020c565b61037885836002028151811061035957fe5b6010020160f81b82828151811061038b57fe5b60200101906001600160f81b031916908160001a905350600101610331565b5092915050565b600080836001600160a01b031663313ce5676040518163ffffffff1660e01b815260040160206040518083038186803b1580156103ed57600080fd5b505afa158015610401573d6000803e3d6000fd5b505050506040513d602081101561041757600080fd5b50519050601260ff82161015610449576104418360ff601284900316600a0a63ffffffff61053016565b915050610474565b60128160ff16111561046f576104418360ff601119840116600a0a63ffffffff61057916565b829150505b92915050565b600080836001600160a01b031663313ce5676040518163ffffffff1660e01b815260040160206040518083038186803b1580156104b657600080fd5b505afa1580156104ca573d6000803e3d6000fd5b505050506040513d60208110156104e057600080fd5b50519050601260ff8216101561050a576104418360ff601284900316600a0a63ffffffff61057916565b60128160ff16111561046f576104418360ff601119840116600a0a63ffffffff61053016565b600061057283836040518060400160405280601a81526020017f536166654d6174683a206469766973696f6e206279207a65726f0000000000008152506105d2565b9392505050565b60008261058857506000610474565b8282028284828161059557fe5b04146105725760405162461bcd60e51b81526004018080602001828103825260218152602001806106756021913960400191505060405180910390fd5b6000818361065e5760405162461bcd60e51b81526004018080602001828103825283818151815260200191508051906020019080838360005b8381101561062357818101518382015260200161060b565b50505050905090810190601f1680156106505780820380516001836020036101000a031916815260200191505b509250505060405180910390fd5b50600083858161066a57fe5b049594505050505056fe536166654d6174683a206d756c7469706c69636174696f6e206f766572666c6f77a265627a7a723158207f72b16dc9e9b04432e1f0da8f803030c9dcdaffc438bd73c12e751986baa42d64736f6c63430005110032",
  "source": "pragma solidity >=0.5.0 <0.7.0;\nimport \"../token/ERC20Detailed.sol\";\nimport \"@openzeppelin/contracts/math/SafeMath.sol\";\n\ncontract HexUtils {\n    using SafeMath for uint256;\n\n    function fromHex(bytes memory ss) public pure returns (bytes memory) {\n        require(ss.length % 2 == 0); // length must be even\n        bytes memory r = new bytes(ss.length / 2);\n        for (uint256 i = 0; i < ss.length / 2; ++i) {\n            r[i] = bytes1(\n                fromHexChar(uint8(ss[2 * i])) *\n                    16 +\n                    fromHexChar(uint8(ss[2 * i + 1]))\n            );\n        }\n        return r;\n    }\n\n    function fromHexChar(uint8 c) public pure returns (uint8) {\n        if (bytes1(c) >= bytes1(\"0\") && bytes1(c) <= bytes1(\"9\")) {\n            return c - uint8(bytes1(\"0\"));\n        }\n        if (bytes1(c) >= bytes1(\"a\") && bytes1(c) <= bytes1(\"f\")) {\n            return 10 + c - uint8(bytes1(\"a\"));\n        }\n        if (bytes1(c) >= bytes1(\"A\") && bytes1(c) <= bytes1(\"F\")) {\n            return 10 + c - uint8(bytes1(\"A\"));\n        }\n    }\n\n    function toDecimals(address tokenAddress, uint256 tokenCount)\n        public\n        view\n        returns (uint256)\n    {\n        uint8 decimals = ERC20Detailed(tokenAddress).decimals();\n        if (decimals < 18) {\n            return tokenCount.mul(10**uint256(18 - decimals));\n        } else if (decimals > 18) {\n            return tokenCount.div(10**uint256(decimals - 18));\n        } else {\n            return tokenCount;\n        }\n    }\n\n    function fromDecimals(address tokenAddress, uint256 tokenCount)\n        public\n        view\n        returns (uint256)\n    {\n        uint8 decimals = ERC20Detailed(tokenAddress).decimals();\n        if (decimals < 18) {\n            return tokenCount.div(10**uint256(18 - decimals));\n        } else if (decimals > 18) {\n            return tokenCount.mul(10**uint256(decimals - 18));\n        } else {\n            return tokenCount;\n        }\n    }\n}\n",
  "sourcePath": "/home/dxuser/Documents/scode/yieldster-vault/contracts/utils/HexUtils.sol",
  "compiler": {
    "name": "solc",
    "version": "0.5.17+commit.d19bba13.Emscripten.clang"
  },
  "schemaVersion": "3.4.4",
  "updatedAt": "2022-02-01T11:12:09.430Z",
  "devdoc": {
    "methods": {}
  },
  "userdoc": {
    "methods": {}
  }
}