{
  "contractName": "LivaOneMinter",
  "abi": [
    {
      "inputs": [
        {
          "internalType": "address",
          "name": "_APContract",
          "type": "address"
        },
        {
          "internalType": "address",
          "name": "_strategyAddress",
          "type": "address"
        }
      ],
      "payable": false,
      "stateMutability": "nonpayable",
      "type": "constructor"
    },
    {
      "anonymous": false,
      "inputs": [
        {
          "indexed": true,
          "internalType": "address",
          "name": "account",
          "type": "address"
        },
        {
          "indexed": true,
          "internalType": "address",
          "name": "operator",
          "type": "address"
        },
        {
          "indexed": false,
          "internalType": "bool",
          "name": "approved",
          "type": "bool"
        }
      ],
      "name": "ApprovalForAll",
      "type": "event"
    },
    {
      "anonymous": false,
      "inputs": [
        {
          "indexed": true,
          "internalType": "address",
          "name": "operator",
          "type": "address"
        },
        {
          "indexed": true,
          "internalType": "address",
          "name": "from",
          "type": "address"
        },
        {
          "indexed": true,
          "internalType": "address",
          "name": "to",
          "type": "address"
        },
        {
          "indexed": false,
          "internalType": "uint256[]",
          "name": "ids",
          "type": "uint256[]"
        },
        {
          "indexed": false,
          "internalType": "uint256[]",
          "name": "values",
          "type": "uint256[]"
        }
      ],
      "name": "TransferBatch",
      "type": "event"
    },
    {
      "anonymous": false,
      "inputs": [
        {
          "indexed": true,
          "internalType": "address",
          "name": "operator",
          "type": "address"
        },
        {
          "indexed": true,
          "internalType": "address",
          "name": "from",
          "type": "address"
        },
        {
          "indexed": true,
          "internalType": "address",
          "name": "to",
          "type": "address"
        },
        {
          "indexed": false,
          "internalType": "uint256",
          "name": "id",
          "type": "uint256"
        },
        {
          "indexed": false,
          "internalType": "uint256",
          "name": "value",
          "type": "uint256"
        }
      ],
      "name": "TransferSingle",
      "type": "event"
    },
    {
      "anonymous": false,
      "inputs": [
        {
          "indexed": false,
          "internalType": "string",
          "name": "value",
          "type": "string"
        },
        {
          "indexed": true,
          "internalType": "uint256",
          "name": "id",
          "type": "uint256"
        }
      ],
      "name": "URI",
      "type": "event"
    },
    {
      "constant": true,
      "inputs": [],
      "name": "APContract",
      "outputs": [
        {
          "internalType": "address",
          "name": "",
          "type": "address"
        }
      ],
      "payable": false,
      "stateMutability": "view",
      "type": "function"
    },
    {
      "constant": true,
      "inputs": [
        {
          "internalType": "address",
          "name": "account",
          "type": "address"
        },
        {
          "internalType": "uint256",
          "name": "id",
          "type": "uint256"
        }
      ],
      "name": "balanceOf",
      "outputs": [
        {
          "internalType": "uint256",
          "name": "",
          "type": "uint256"
        }
      ],
      "payable": false,
      "stateMutability": "view",
      "type": "function"
    },
    {
      "constant": true,
      "inputs": [
        {
          "internalType": "address[]",
          "name": "accounts",
          "type": "address[]"
        },
        {
          "internalType": "uint256[]",
          "name": "ids",
          "type": "uint256[]"
        }
      ],
      "name": "balanceOfBatch",
      "outputs": [
        {
          "internalType": "uint256[]",
          "name": "",
          "type": "uint256[]"
        }
      ],
      "payable": false,
      "stateMutability": "view",
      "type": "function"
    },
    {
      "constant": true,
      "inputs": [
        {
          "internalType": "address",
          "name": "account",
          "type": "address"
        },
        {
          "internalType": "address",
          "name": "operator",
          "type": "address"
        }
      ],
      "name": "isApprovedForAll",
      "outputs": [
        {
          "internalType": "bool",
          "name": "",
          "type": "bool"
        }
      ],
      "payable": false,
      "stateMutability": "view",
      "type": "function"
    },
    {
      "constant": true,
      "inputs": [],
      "name": "owner",
      "outputs": [
        {
          "internalType": "address",
          "name": "",
          "type": "address"
        }
      ],
      "payable": false,
      "stateMutability": "view",
      "type": "function"
    },
    {
      "constant": false,
      "inputs": [
        {
          "internalType": "address",
          "name": "from",
          "type": "address"
        },
        {
          "internalType": "address",
          "name": "to",
          "type": "address"
        },
        {
          "internalType": "uint256[]",
          "name": "ids",
          "type": "uint256[]"
        },
        {
          "internalType": "uint256[]",
          "name": "amounts",
          "type": "uint256[]"
        },
        {
          "internalType": "bytes",
          "name": "data",
          "type": "bytes"
        }
      ],
      "name": "safeBatchTransferFrom",
      "outputs": [],
      "payable": false,
      "stateMutability": "nonpayable",
      "type": "function"
    },
    {
      "constant": false,
      "inputs": [
        {
          "internalType": "address",
          "name": "from",
          "type": "address"
        },
        {
          "internalType": "address",
          "name": "to",
          "type": "address"
        },
        {
          "internalType": "uint256",
          "name": "id",
          "type": "uint256"
        },
        {
          "internalType": "uint256",
          "name": "amount",
          "type": "uint256"
        },
        {
          "internalType": "bytes",
          "name": "data",
          "type": "bytes"
        }
      ],
      "name": "safeTransferFrom",
      "outputs": [],
      "payable": false,
      "stateMutability": "nonpayable",
      "type": "function"
    },
    {
      "constant": false,
      "inputs": [
        {
          "internalType": "address",
          "name": "operator",
          "type": "address"
        },
        {
          "internalType": "bool",
          "name": "approved",
          "type": "bool"
        }
      ],
      "name": "setApprovalForAll",
      "outputs": [],
      "payable": false,
      "stateMutability": "nonpayable",
      "type": "function"
    },
    {
      "constant": true,
      "inputs": [],
      "name": "strategy",
      "outputs": [
        {
          "internalType": "address",
          "name": "",
          "type": "address"
        }
      ],
      "payable": false,
      "stateMutability": "view",
      "type": "function"
    },
    {
      "constant": true,
      "inputs": [
        {
          "internalType": "bytes4",
          "name": "interfaceId",
          "type": "bytes4"
        }
      ],
      "name": "supportsInterface",
      "outputs": [
        {
          "internalType": "bool",
          "name": "",
          "type": "bool"
        }
      ],
      "payable": false,
      "stateMutability": "view",
      "type": "function"
    },
    {
      "constant": true,
      "inputs": [
        {
          "internalType": "uint256",
          "name": "",
          "type": "uint256"
        }
      ],
      "name": "uri",
      "outputs": [
        {
          "internalType": "string",
          "name": "",
          "type": "string"
        }
      ],
      "payable": false,
      "stateMutability": "view",
      "type": "function"
    },
    {
      "constant": false,
      "inputs": [
        {
          "internalType": "address",
          "name": "_APContract",
          "type": "address"
        }
      ],
      "name": "setAPContract",
      "outputs": [],
      "payable": false,
      "stateMutability": "nonpayable",
      "type": "function"
    },
    {
      "constant": false,
      "inputs": [
        {
          "internalType": "address",
          "name": "_strategyAddress",
          "type": "address"
        }
      ],
      "name": "setStrategyAddress",
      "outputs": [],
      "payable": false,
      "stateMutability": "nonpayable",
      "type": "function"
    },
    {
      "constant": false,
      "inputs": [
        {
          "internalType": "address",
          "name": "safeAddress",
          "type": "address"
        },
        {
          "internalType": "bytes",
          "name": "instruction",
          "type": "bytes"
        }
      ],
      "name": "mintStrategy",
      "outputs": [],
      "payable": false,
      "stateMutability": "nonpayable",
      "type": "function"
    },
    {
      "constant": false,
      "inputs": [
        {
          "internalType": "address",
          "name": "safeAddress",
          "type": "address"
        },
        {
          "internalType": "address[]",
          "name": "_assets",
          "type": "address[]"
        },
        {
          "internalType": "uint256[]",
          "name": "_amount",
          "type": "uint256[]"
        },
        {
          "internalType": "bytes",
          "name": "data",
          "type": "bytes"
        }
      ],
      "name": "earn",
      "outputs": [],
      "payable": false,
      "stateMutability": "nonpayable",
      "type": "function"
    }
  ],
  "bytecode": "0x60806040523480156200001157600080fd5b506040516200202d3803806200202d833981810160405260408110156200003757600080fd5b5080516020918201516040805160608101909152603180825292939192909162001ffc90830139620000927f01ffc9a7000000000000000000000000000000000000000000000000000000006001600160e01b036200015116565b620000a6816001600160e01b036200022016565b620000da7fd9b67a26000000000000000000000000000000000000000000000000000000006001600160e01b036200015116565b6200010e7f0e89341c000000000000000000000000000000000000000000000000000000006001600160e01b036200015116565b50600480546001600160a01b039384166001600160a01b0319918216179091556005805492909316918116919091179091556006805490911633179055620002de565b7fffffffff000000000000000000000000000000000000000000000000000000008082161415620001e357604080517f08c379a000000000000000000000000000000000000000000000000000000000815260206004820152601c60248201527f4552433136353a20696e76616c696420696e7465726661636520696400000000604482015290519081900360640190fd5b7fffffffff00000000000000000000000000000000000000000000000000000000166000908152602081905260409020805460ff19166001179055565b80516200023590600390602084019062000239565b5050565b828054600181600116156101000203166002900490600052602060002090601f016020900481019282601f106200027c57805160ff1916838001178555620002ac565b82800160010185558215620002ac579182015b82811115620002ac5782518255916020019190600101906200028f565b50620002ba929150620002be565b5090565b620002db91905b80821115620002ba5760008155600101620002c5565b90565b611d0e80620002ee6000396000f3fe608060405234801561001057600080fd5b50600436106100f45760003560e01c80634e1273f411610097578063a22cb46511610066578063a22cb4651461081e578063a8c62e761461084c578063e985e9c514610854578063f242432a14610882576100f4565b80634e1273f4146105c95780637f82e1971461073c5780638da5cb5b146107f05780639a8eff90146107f8576100f4565b806324cfba9f116100d357806324cfba9f146102045780632eb2c2d61461022c578063308bdf11146103ed57806333846027146105a5576100f4565b8062fdd58e146100f957806301ffc9a7146101375780630e89341c14610172575b600080fd5b6101256004803603604081101561010f57600080fd5b506001600160a01b03813516906020013561094b565b60408051918252519081900360200190f35b61015e6004803603602081101561014d57600080fd5b50356001600160e01b0319166109ba565b604080519115158252519081900360200190f35b61018f6004803603602081101561018857600080fd5b50356109d9565b6040805160208082528351818301528351919283929083019185019080838360005b838110156101c95781810151838201526020016101b1565b50505050905090810190601f1680156101f65780820380516001836020036101000a031916815260200191505b509250505060405180910390f35b61022a6004803603602081101561021a57600080fd5b50356001600160a01b0316610a71565b005b61022a600480360360a081101561024257600080fd5b6001600160a01b038235811692602081013590911691810190606081016040820135600160201b81111561027557600080fd5b82018360208201111561028757600080fd5b803590602001918460208302840111600160201b831117156102a857600080fd5b9190808060200260200160405190810160405280939291908181526020018383602002808284376000920191909152509295949360208101935035915050600160201b8111156102f757600080fd5b82018360208201111561030957600080fd5b803590602001918460208302840111600160201b8311171561032a57600080fd5b9190808060200260200160405190810160405280939291908181526020018383602002808284376000920191909152509295949360208101935035915050600160201b81111561037957600080fd5b82018360208201111561038b57600080fd5b803590602001918460018302840111600160201b831117156103ac57600080fd5b91908080601f016020809104026020016040519081016040528093929190818152602001838380828437600092019190915250929550610aec945050505050565b61022a6004803603608081101561040357600080fd5b6001600160a01b038235169190810190604081016020820135600160201b81111561042d57600080fd5b82018360208201111561043f57600080fd5b803590602001918460208302840111600160201b8311171561046057600080fd5b9190808060200260200160405190810160405280939291908181526020018383602002808284376000920191909152509295949360208101935035915050600160201b8111156104af57600080fd5b8201836020820111156104c157600080fd5b803590602001918460208302840111600160201b831117156104e257600080fd5b9190808060200260200160405190810160405280939291908181526020018383602002808284376000920191909152509295949360208101935035915050600160201b81111561053157600080fd5b82018360208201111561054357600080fd5b803590602001918460018302840111600160201b8311171561056457600080fd5b91908080601f016020809104026020016040519081016040528093929190818152602001838380828437600092019190915250929550610dea945050505050565b6105ad611017565b604080516001600160a01b039092168252519081900360200190f35b6106ec600480360360408110156105df57600080fd5b810190602081018135600160201b8111156105f957600080fd5b82018360208201111561060b57600080fd5b803590602001918460208302840111600160201b8311171561062c57600080fd5b9190808060200260200160405190810160405280939291908181526020018383602002808284376000920191909152509295949360208101935035915050600160201b81111561067b57600080fd5b82018360208201111561068d57600080fd5b803590602001918460208302840111600160201b831117156106ae57600080fd5b919080806020026020016040519081016040528093929190818152602001838360200280828437600092019190915250929550611026945050505050565b60408051602080825283518183015283519192839290830191858101910280838360005b83811015610728578181015183820152602001610710565b505050509050019250505060405180910390f35b61022a6004803603604081101561075257600080fd5b6001600160a01b038235169190810190604081016020820135600160201b81111561077c57600080fd5b82018360208201111561078e57600080fd5b803590602001918460018302840111600160201b831117156107af57600080fd5b91908080601f0160208091040260200160405190810160405280939291908181526020018383808284376000920191909152509295506110fb945050505050565b6105ad6111ef565b61022a6004803603602081101561080e57600080fd5b50356001600160a01b03166111fe565b61022a6004803603604081101561083457600080fd5b506001600160a01b0381351690602001351515611279565b6105ad611368565b61015e6004803603604081101561086a57600080fd5b506001600160a01b0381358116916020013516611377565b61022a600480360360a081101561089857600080fd5b6001600160a01b03823581169260208101359091169160408201359160608101359181019060a081016080820135600160201b8111156108d757600080fd5b8201836020820111156108e957600080fd5b803590602001918460018302840111600160201b8311171561090a57600080fd5b91908080601f0160208091040260200160405190810160405280939291908181526020018383808284376000920191909152509295506113a5945050505050565b60006001600160a01b0383166109925760405162461bcd60e51b815260040180806020018281038252602b815260200180611b6a602b913960400191505060405180910390fd5b5060009081526001602090815260408083206001600160a01b03949094168352929052205490565b6001600160e01b03191660009081526020819052604090205460ff1690565b60038054604080516020601f6002600019610100600188161502019095169490940493840181900481028201810190925282815260609390929091830182828015610a655780601f10610a3a57610100808354040283529160200191610a65565b820191906000526020600020905b815481529060010190602001808311610a4857829003601f168201915b50505050509050919050565b6006546001600160a01b03163314610aca576040805162461bcd60e51b815260206004820152601760248201527627b7363c903832b936b4ba3a32b2103a379037bbb732b960491b604482015290519081900360640190fd5b600580546001600160a01b0319166001600160a01b0392909216919091179055565b8151835114610b2c5760405162461bcd60e51b8152600401808060200182810382526028815260200180611c916028913960400191505060405180910390fd5b6001600160a01b038416610b715760405162461bcd60e51b8152600401808060200182810382526025815260200180611bbe6025913960400191505060405180910390fd5b610b79611576565b6001600160a01b0316856001600160a01b03161480610ba45750610ba485610b9f611576565b611377565b610bdf5760405162461bcd60e51b8152600401808060200182810382526032815260200180611be36032913960400191505060405180910390fd5b6000610be9611576565b9050610bf9818787878787610de2565b60005b8451811015610cfa576000858281518110610c1357fe5b602002602001015190506000858381518110610c2b57fe5b60200260200101519050610c98816040518060600160405280602a8152602001611c15602a91396001600086815260200190815260200160002060008d6001600160a01b03166001600160a01b031681526020019081526020016000205461157a9092919063ffffffff16565b60008381526001602090815260408083206001600160a01b038e811685529252808320939093558a1681522054610ccf9082611611565b60009283526001602081815260408086206001600160a01b038d168752909152909320555001610bfc565b50846001600160a01b0316866001600160a01b0316826001600160a01b03167f4a39dc06d4c0dbc64b70af90fd698a233a518aa5d07e595d983b8c0526c8f7fb8787604051808060200180602001838103835285818151815260200191508051906020019060200280838360005b83811015610d80578181015183820152602001610d68565b50505050905001838103825284818151815260200191508051906020019060200280838360005b83811015610dbf578181015183820152602001610da7565b5050505090500194505050505060405180910390a4610de2818787878787611672565b505050505050565b6004805460055460408051635e1613a160e11b81526001600160a01b0392831694810194909452513393929091169163bc2c2742916024808301926020929190829003018186803b158015610e3e57600080fd5b505afa158015610e52573d6000803e3d6000fd5b505050506040513d6020811015610e6857600080fd5b50516001600160a01b031614610ec5576040805162461bcd60e51b815260206004820181905260248201527f4f6e6c79205969656c6473746572205374726174656779204578656375746f72604482015290519081900360640190fd5b836001600160a01b03166351eaa9b48484846040518463ffffffff1660e01b815260040180806020018060200180602001848103845287818151815260200191508051906020019060200280838360005b83811015610f2e578181015183820152602001610f16565b50505050905001848103835286818151815260200191508051906020019060200280838360005b83811015610f6d578181015183820152602001610f55565b50505050905001848103825285818151815260200191508051906020019080838360005b83811015610fa9578181015183820152602001610f91565b50505050905090810190601f168015610fd65780820380516001836020036101000a031916815260200191505b509650505050505050600060405180830381600087803b158015610ff957600080fd5b505af115801561100d573d6000803e3d6000fd5b5050505050505050565b6004546001600160a01b031681565b606081518351146110685760405162461bcd60e51b8152600401808060200182810382526029815260200180611c686029913960400191505060405180910390fd5b60608351604051908082528060200260200182016040528015611095578160200160208202803883390190505b50905060005b84518110156110f3576110d48582815181106110b357fe5b60200260200101518583815181106110c757fe5b602002602001015161094b565b8282815181106110e057fe5b602090810291909101015260010161109b565b509392505050565b6004805460055460408051635e1613a160e11b81526001600160a01b0392831694810194909452513393929091169163bc2c2742916024808301926020929190829003018186803b15801561114f57600080fd5b505afa158015611163573d6000803e3d6000fd5b505050506040513d602081101561117957600080fd5b50516001600160a01b0316146111d6576040805162461bcd60e51b815260206004820181905260248201527f4f6e6c79205969656c6473746572205374726174656779204578656375746f72604482015290519081900360640190fd5b6111eb826001670de0b6b3a764000084611879565b5050565b6006546001600160a01b031681565b6006546001600160a01b03163314611257576040805162461bcd60e51b815260206004820152601760248201527627b7363c903832b936b4ba3a32b2103a379037bbb732b960491b604482015290519081900360640190fd5b600480546001600160a01b0319166001600160a01b0392909216919091179055565b816001600160a01b031661128b611576565b6001600160a01b031614156112d15760405162461bcd60e51b8152600401808060200182810382526029815260200180611c3f6029913960400191505060405180910390fd5b80600260006112de611576565b6001600160a01b03908116825260208083019390935260409182016000908120918716808252919093529120805460ff191692151592909217909155611322611576565b60408051841515815290516001600160a01b0392909216917f17307eab39ab6107e8899845ad3d59bd9653f200f220920489ca2b5937696c319181900360200190a35050565b6005546001600160a01b031681565b6001600160a01b03918216600090815260026020908152604080832093909416825291909152205460ff1690565b6001600160a01b0384166113ea5760405162461bcd60e51b8152600401808060200182810382526025815260200180611bbe6025913960400191505060405180910390fd5b6113f2611576565b6001600160a01b0316856001600160a01b03161480611418575061141885610b9f611576565b6114535760405162461bcd60e51b8152600401808060200182810382526029815260200180611b956029913960400191505060405180910390fd5b600061145d611576565b905061147d81878761146e88611987565b61147788611987565b87610de2565b6114ca836040518060600160405280602a8152602001611c15602a913960008781526001602090815260408083206001600160a01b038d168452909152902054919063ffffffff61157a16565b60008581526001602090815260408083206001600160a01b038b811685529252808320939093558716815220546115019084611611565b60008581526001602090815260408083206001600160a01b03808b168086529184529382902094909455805188815291820187905280518a8416938616927fc3d58168c5ae7397731d063d5bbf3d657854427343f4c083240f7aacaa2d0f6292908290030190a4610de28187878787876119cb565b3390565b600081848411156116095760405162461bcd60e51b81526004018080602001828103825283818151815260200191508051906020019080838360005b838110156115ce5781810151838201526020016115b6565b50505050905090810190601f1680156115fb5780820380516001836020036101000a031916815260200191505b509250505060405180910390fd5b505050900390565b60008282018381101561166b576040805162461bcd60e51b815260206004820152601b60248201527f536166654d6174683a206164646974696f6e206f766572666c6f770000000000604482015290519081900360640190fd5b9392505050565b611684846001600160a01b0316611b05565b15610de2576000846001600160a01b031663bc197c8188888787876040518663ffffffff1660e01b815260040180866001600160a01b03166001600160a01b03168152602001856001600160a01b03166001600160a01b03168152602001806020018060200180602001848103845287818151815260200191508051906020019060200280838360005b8381101561172657818101518382015260200161170e565b50505050905001848103835286818151815260200191508051906020019060200280838360005b8381101561176557818101518382015260200161174d565b50505050905001848103825285818151815260200191508051906020019080838360005b838110156117a1578181015183820152602001611789565b50505050905090810190601f1680156117ce5780820380516001836020036101000a031916815260200191505b5098505050505050505050602060405180830381600087803b1580156117f357600080fd5b505af1158015611807573d6000803e3d6000fd5b505050506040513d602081101561181d57600080fd5b505190506001600160e01b0319811663bc197c8160e01b146118705760405162461bcd60e51b8152600401808060200182810382526028815260200180611b426028913960400191505060405180910390fd5b50505050505050565b6001600160a01b0384166118be5760405162461bcd60e51b8152600401808060200182810382526021815260200180611cb96021913960400191505060405180910390fd5b60006118c8611576565b90506118da8160008761146e88611987565b60008481526001602090815260408083206001600160a01b038916845290915290205461190d908463ffffffff61161116565b60008581526001602090815260408083206001600160a01b03808b16808652918452828520959095558151898152928301889052815190948616927fc3d58168c5ae7397731d063d5bbf3d657854427343f4c083240f7aacaa2d0f6292908290030190a4611980816000878787876119cb565b5050505050565b6040805160018082528183019092526060918291906020808301908038833901905050905082816000815181106119ba57fe5b602090810291909101015292915050565b6119dd846001600160a01b0316611b05565b15610de2576000846001600160a01b031663f23a6e6188888787876040518663ffffffff1660e01b815260040180866001600160a01b03166001600160a01b03168152602001856001600160a01b03166001600160a01b0316815260200184815260200183815260200180602001828103825283818151815260200191508051906020019080838360005b83811015611a80578181015183820152602001611a68565b50505050905090810190601f168015611aad5780820380516001836020036101000a031916815260200191505b509650505050505050602060405180830381600087803b158015611ad057600080fd5b505af1158015611ae4573d6000803e3d6000fd5b505050506040513d6020811015611afa57600080fd5b505050505050505050565b6000813f7fc5d2460186f7233c927e7db2dcc703c0e500b653ca82273b7bfad8045d85a470818114801590611b3957508115155b94935050505056fe455243313135353a204552433131353552656365697665722072656a656374656420746f6b656e73455243313135353a2062616c616e636520717565727920666f7220746865207a65726f2061646472657373455243313135353a2063616c6c6572206973206e6f74206f776e6572206e6f7220617070726f766564455243313135353a207472616e7366657220746f20746865207a65726f2061646472657373455243313135353a207472616e736665722063616c6c6572206973206e6f74206f776e6572206e6f7220617070726f766564455243313135353a20696e73756666696369656e742062616c616e636520666f72207472616e73666572455243313135353a2073657474696e6720617070726f76616c2073746174757320666f722073656c66455243313135353a206163636f756e747320616e6420696473206c656e677468206d69736d61746368455243313135353a2069647320616e6420616d6f756e7473206c656e677468206d69736d61746368455243313135353a206d696e7420746f20746865207a65726f2061646472657373a265627a7a72315820d7d1876f457e2019fac713387ee8d2de8e8add6fe9a0663eb4797f176d2de3fd64736f6c6343000511003268747470733a2f2f7969656c64737465722e66696e616e63652f73747261746567792f6d6574612f7b69647d2e6a736f6e",
  "source": "pragma solidity >=0.5.0 <0.8.0;\nimport \"../../token/ERC1155/ERC1155.sol\";\nimport \"../../interfaces/IAPContract.sol\";\nimport \"../../interfaces/IYieldsterVault.sol\";\n\ncontract LivaOneMinter is ERC1155 {\n    address public APContract;\n    address public strategy;\n    address public owner;\n\n    constructor(address _APContract, address _strategyAddress)\n        public\n        ERC1155(\"https://yieldster.finance/strategy/meta/{id}.json\")\n    {\n        APContract = _APContract;\n        strategy = _strategyAddress;\n        owner = msg.sender;\n    }\n\n    modifier onlyOwner() {\n        require(msg.sender == owner, \"Only permitted to owner\");\n        _;\n    }\n\n    function setAPContract(address _APContract) public onlyOwner {\n        APContract = _APContract;\n    }\n\n    function setStrategyAddress(address _strategyAddress) public onlyOwner {\n        strategy = _strategyAddress;\n    }\n\n    function mintStrategy(address safeAddress, bytes memory instruction)\n        public\n    {\n        require(\n            IAPContract(APContract).strategyExecutor(strategy) == msg.sender,\n            \"Only Yieldster Strategy Executor\"\n        );\n        _mint(safeAddress, 1, 10**18, instruction);\n    }\n\n    function earn(\n        address safeAddress,\n        address[] memory _assets,\n        uint256[] memory _amount,\n        bytes memory data\n    ) public {\n        require(\n            IAPContract(APContract).strategyExecutor(strategy) == msg.sender,\n            \"Only Yieldster Strategy Executor\"\n        );\n        IYieldsterVault(safeAddress).earn(_assets, _amount, data);\n    }\n}\n",
  "sourcePath": "/home/dxuser/Documents/scode/yieldster-vault/contracts/strategies/LivaOne/LivaOneMinter.sol",
  "compiler": {
    "name": "solc",
    "version": "0.5.17+commit.d19bba13.Emscripten.clang"
  },
  "schemaVersion": "3.4.4",
  "updatedAt": "2022-02-04T04:47:14.860Z",
  "devdoc": {
    "methods": {
      "balanceOf(address,uint256)": {
        "details": "See {IERC1155-balanceOf}.     * Requirements:     * - `account` cannot be the zero address."
      },
      "balanceOfBatch(address[],uint256[])": {
        "details": "See {IERC1155-balanceOfBatch}.     * Requirements:     * - `accounts` and `ids` must have the same length."
      },
      "isApprovedForAll(address,address)": {
        "details": "See {IERC1155-isApprovedForAll}."
      },
      "safeBatchTransferFrom(address,address,uint256[],uint256[],bytes)": {
        "details": "See {IERC1155-safeBatchTransferFrom}."
      },
      "safeTransferFrom(address,address,uint256,uint256,bytes)": {
        "details": "See {IERC1155-safeTransferFrom}."
      },
      "setApprovalForAll(address,bool)": {
        "details": "See {IERC1155-setApprovalForAll}."
      },
      "supportsInterface(bytes4)": {
        "details": "See {IERC165-supportsInterface}.     * Time complexity O(1), guaranteed to always use less than 30 000 gas."
      },
      "uri(uint256)": {
        "details": "See {IERC1155MetadataURI-uri}.     * This implementation returns the same URI for *all* token types. It relies on the token type ID substitution mechanism https://eips.ethereum.org/EIPS/eip-1155#metadata[defined in the EIP].     * Clients calling this function must replace the `\\{id\\}` substring with the actual token type ID."
      }
    }
  },
  "userdoc": {
    "methods": {}
  }
}