{
  "contractName": "LivaOneCrv",
  "abi": [
    {
      "inputs": [
        {
          "internalType": "address",
          "name": "_APContract",
          "type": "address"
        },
        {
          "internalType": "address[]",
          "name": "_protocols",
          "type": "address[]"
        }
      ],
      "payable": false,
      "stateMutability": "nonpayable",
      "type": "constructor"
    },
    {
      "anonymous": false,
      "inputs": [
        {
          "indexed": true,
          "internalType": "address",
          "name": "owner",
          "type": "address"
        },
        {
          "indexed": true,
          "internalType": "address",
          "name": "spender",
          "type": "address"
        },
        {
          "indexed": false,
          "internalType": "uint256",
          "name": "value",
          "type": "uint256"
        }
      ],
      "name": "Approval",
      "type": "event"
    },
    {
      "anonymous": false,
      "inputs": [
        {
          "indexed": true,
          "internalType": "address",
          "name": "from",
          "type": "address"
        },
        {
          "indexed": true,
          "internalType": "address",
          "name": "to",
          "type": "address"
        },
        {
          "indexed": false,
          "internalType": "uint256",
          "name": "value",
          "type": "uint256"
        }
      ],
      "name": "Transfer",
      "type": "event"
    },
    {
      "constant": true,
      "inputs": [
        {
          "internalType": "address",
          "name": "owner",
          "type": "address"
        },
        {
          "internalType": "address",
          "name": "spender",
          "type": "address"
        }
      ],
      "name": "allowance",
      "outputs": [
        {
          "internalType": "uint256",
          "name": "",
          "type": "uint256"
        }
      ],
      "payable": false,
      "stateMutability": "view",
      "type": "function"
    },
    {
      "constant": false,
      "inputs": [
        {
          "internalType": "address",
          "name": "spender",
          "type": "address"
        },
        {
          "internalType": "uint256",
          "name": "amount",
          "type": "uint256"
        }
      ],
      "name": "approve",
      "outputs": [
        {
          "internalType": "bool",
          "name": "",
          "type": "bool"
        }
      ],
      "payable": false,
      "stateMutability": "nonpayable",
      "type": "function"
    },
    {
      "constant": true,
      "inputs": [
        {
          "internalType": "address",
          "name": "account",
          "type": "address"
        }
      ],
      "name": "balanceOf",
      "outputs": [
        {
          "internalType": "uint256",
          "name": "",
          "type": "uint256"
        }
      ],
      "payable": false,
      "stateMutability": "view",
      "type": "function"
    },
    {
      "constant": true,
      "inputs": [],
      "name": "decimals",
      "outputs": [
        {
          "internalType": "uint8",
          "name": "",
          "type": "uint8"
        }
      ],
      "payable": false,
      "stateMutability": "view",
      "type": "function"
    },
    {
      "constant": false,
      "inputs": [
        {
          "internalType": "address",
          "name": "spender",
          "type": "address"
        },
        {
          "internalType": "uint256",
          "name": "subtractedValue",
          "type": "uint256"
        }
      ],
      "name": "decreaseAllowance",
      "outputs": [
        {
          "internalType": "bool",
          "name": "",
          "type": "bool"
        }
      ],
      "payable": false,
      "stateMutability": "nonpayable",
      "type": "function"
    },
    {
      "constant": false,
      "inputs": [
        {
          "internalType": "address",
          "name": "spender",
          "type": "address"
        },
        {
          "internalType": "uint256",
          "name": "addedValue",
          "type": "uint256"
        }
      ],
      "name": "increaseAllowance",
      "outputs": [
        {
          "internalType": "bool",
          "name": "",
          "type": "bool"
        }
      ],
      "payable": false,
      "stateMutability": "nonpayable",
      "type": "function"
    },
    {
      "constant": true,
      "inputs": [],
      "name": "name",
      "outputs": [
        {
          "internalType": "string",
          "name": "",
          "type": "string"
        }
      ],
      "payable": false,
      "stateMutability": "view",
      "type": "function"
    },
    {
      "constant": true,
      "inputs": [
        {
          "internalType": "uint256",
          "name": "",
          "type": "uint256"
        }
      ],
      "name": "protocolList",
      "outputs": [
        {
          "internalType": "address",
          "name": "",
          "type": "address"
        }
      ],
      "payable": false,
      "stateMutability": "view",
      "type": "function"
    },
    {
      "constant": true,
      "inputs": [],
      "name": "symbol",
      "outputs": [
        {
          "internalType": "string",
          "name": "",
          "type": "string"
        }
      ],
      "payable": false,
      "stateMutability": "view",
      "type": "function"
    },
    {
      "constant": true,
      "inputs": [],
      "name": "totalSupply",
      "outputs": [
        {
          "internalType": "uint256",
          "name": "",
          "type": "uint256"
        }
      ],
      "payable": false,
      "stateMutability": "view",
      "type": "function"
    },
    {
      "constant": false,
      "inputs": [
        {
          "internalType": "address",
          "name": "recipient",
          "type": "address"
        },
        {
          "internalType": "uint256",
          "name": "amount",
          "type": "uint256"
        }
      ],
      "name": "transfer",
      "outputs": [
        {
          "internalType": "bool",
          "name": "",
          "type": "bool"
        }
      ],
      "payable": false,
      "stateMutability": "nonpayable",
      "type": "function"
    },
    {
      "constant": false,
      "inputs": [
        {
          "internalType": "address",
          "name": "sender",
          "type": "address"
        },
        {
          "internalType": "address",
          "name": "recipient",
          "type": "address"
        },
        {
          "internalType": "uint256",
          "name": "amount",
          "type": "uint256"
        }
      ],
      "name": "transferFrom",
      "outputs": [
        {
          "internalType": "bool",
          "name": "",
          "type": "bool"
        }
      ],
      "payable": false,
      "stateMutability": "nonpayable",
      "type": "function"
    },
    {
      "constant": false,
      "inputs": [
        {
          "internalType": "address",
          "name": "_protocol",
          "type": "address"
        }
      ],
      "name": "addProtocol",
      "outputs": [],
      "payable": false,
      "stateMutability": "nonpayable",
      "type": "function"
    },
    {
      "constant": false,
      "inputs": [
        {
          "internalType": "address",
          "name": "_protocol",
          "type": "address"
        }
      ],
      "name": "setActiveProtocol",
      "outputs": [
        {
          "internalType": "bool",
          "name": "",
          "type": "bool"
        }
      ],
      "payable": false,
      "stateMutability": "nonpayable",
      "type": "function"
    },
    {
      "constant": false,
      "inputs": [
        {
          "internalType": "uint256",
          "name": "_slippageSwap",
          "type": "uint256"
        }
      ],
      "name": "setSlippageSwap",
      "outputs": [],
      "payable": false,
      "stateMutability": "nonpayable",
      "type": "function"
    },
    {
      "constant": false,
      "inputs": [
        {
          "internalType": "uint256",
          "name": "_slippage",
          "type": "uint256"
        }
      ],
      "name": "setSlippage",
      "outputs": [],
      "payable": false,
      "stateMutability": "nonpayable",
      "type": "function"
    },
    {
      "constant": false,
      "inputs": [
        {
          "internalType": "address",
          "name": "_APContract",
          "type": "address"
        }
      ],
      "name": "setAPContract",
      "outputs": [],
      "payable": false,
      "stateMutability": "nonpayable",
      "type": "function"
    },
    {
      "constant": true,
      "inputs": [
        {
          "internalType": "address",
          "name": "_vaultAddress",
          "type": "address"
        }
      ],
      "name": "getActiveProtocol",
      "outputs": [
        {
          "internalType": "address",
          "name": "",
          "type": "address"
        }
      ],
      "payable": false,
      "stateMutability": "view",
      "type": "function"
    },
    {
      "constant": false,
      "inputs": [],
      "name": "registerSafe",
      "outputs": [],
      "payable": false,
      "stateMutability": "nonpayable",
      "type": "function"
    },
    {
      "constant": false,
      "inputs": [],
      "name": "deRegisterSafe",
      "outputs": [],
      "payable": false,
      "stateMutability": "nonpayable",
      "type": "function"
    },
    {
      "constant": false,
      "inputs": [
        {
          "internalType": "address[]",
          "name": "_depositAssets",
          "type": "address[]"
        },
        {
          "internalType": "uint256[]",
          "name": "_amounts",
          "type": "uint256[]"
        },
        {
          "internalType": "bytes",
          "name": "data",
          "type": "bytes"
        }
      ],
      "name": "deposit",
      "outputs": [],
      "payable": false,
      "stateMutability": "nonpayable",
      "type": "function"
    },
    {
      "constant": true,
      "inputs": [
        {
          "internalType": "uint256",
          "name": "depositNAV",
          "type": "uint256"
        }
      ],
      "name": "getMintValue",
      "outputs": [
        {
          "internalType": "uint256",
          "name": "",
          "type": "uint256"
        }
      ],
      "payable": false,
      "stateMutability": "view",
      "type": "function"
    },
    {
      "constant": true,
      "inputs": [],
      "name": "getStrategyNAV",
      "outputs": [
        {
          "internalType": "uint256",
          "name": "",
          "type": "uint256"
        }
      ],
      "payable": false,
      "stateMutability": "view",
      "type": "function"
    },
    {
      "constant": true,
      "inputs": [
        {
          "internalType": "address",
          "name": "_tokenAddress",
          "type": "address"
        },
        {
          "internalType": "uint256",
          "name": "_amount",
          "type": "uint256"
        }
      ],
      "name": "getDepositNAV",
      "outputs": [
        {
          "internalType": "uint256",
          "name": "",
          "type": "uint256"
        }
      ],
      "payable": false,
      "stateMutability": "view",
      "type": "function"
    },
    {
      "constant": true,
      "inputs": [],
      "name": "tokenValueInUSD",
      "outputs": [
        {
          "internalType": "uint256",
          "name": "",
          "type": "uint256"
        }
      ],
      "payable": false,
      "stateMutability": "view",
      "type": "function"
    },
    {
      "constant": false,
      "inputs": [
        {
          "internalType": "uint256",
          "name": "_shares",
          "type": "uint256"
        },
        {
          "internalType": "address",
          "name": "_withrawalAsset",
          "type": "address"
        }
      ],
      "name": "withdraw",
      "outputs": [
        {
          "internalType": "bool",
          "name": "",
          "type": "bool"
        },
        {
          "internalType": "address",
          "name": "",
          "type": "address"
        },
        {
          "internalType": "uint256",
          "name": "",
          "type": "uint256"
        }
      ],
      "payable": false,
      "stateMutability": "nonpayable",
      "type": "function"
    },
    {
      "constant": false,
      "inputs": [
        {
          "internalType": "address",
          "name": "_withdrawalAsset",
          "type": "address"
        }
      ],
      "name": "withdrawAllToSafe",
      "outputs": [
        {
          "internalType": "bool",
          "name": "",
          "type": "bool"
        },
        {
          "internalType": "address",
          "name": "",
          "type": "address"
        },
        {
          "internalType": "uint256",
          "name": "",
          "type": "uint256"
        }
      ],
      "payable": false,
      "stateMutability": "nonpayable",
      "type": "function"
    },
    {
      "constant": false,
      "inputs": [
        {
          "internalType": "address",
          "name": "_protocol",
          "type": "address"
        }
      ],
      "name": "changeProtocol",
      "outputs": [
        {
          "internalType": "bool",
          "name": "",
          "type": "bool"
        }
      ],
      "payable": false,
      "stateMutability": "nonpayable",
      "type": "function"
    },
    {
      "constant": false,
      "inputs": [
        {
          "internalType": "address",
          "name": "_tokenAddres",
          "type": "address"
        }
      ],
      "name": "inCaseTokenGetsStuck",
      "outputs": [],
      "payable": false,
      "stateMutability": "nonpayable",
      "type": "function"
    }
  ],
  "bytecode": "0x6080604052600780546001600160a01b0319908116736c3f90f043a72fa612cbac8115ee7e52bde6e49017909155600880549091166f22d53366457f9d5e68ec105046fc4383179055600a6009819055603290553480156200006057600080fd5b5060405162004e4c38038062004e4c833981810160405260408110156200008657600080fd5b815160208301805160405192949293830192919084640100000000821115620000ae57600080fd5b908301906020820185811115620000c457600080fd5b8251866020820283011164010000000082111715620000e257600080fd5b82525081516020918201928201910280838360005b8381101562000111578181015183820152602001620000f7565b5050505090910160408181018152600682527f4c56414f4e45000000000000000000000000000000000000000000000000000060208084019182528251808401909352600883527f4c495641204f4e4500000000000000000000000000000000000000000000000090830152825192965090945060129350620001989250600391620002af565b508151620001ae906004906020850190620002af565b506005805460ff191660ff9290921691909117610100600160a81b0319166101006001600160a01b0387160217905550600090505b815181101562000294576001600c60008484815181106200020057fe5b60200260200101516001600160a01b03166001600160a01b0316815260200190815260200160002060006101000a81548160ff021916908315150217905550600b8282815181106200024e57fe5b60209081029190910181015182546001808201855560009485529290932090920180546001600160a01b0319166001600160a01b039093169290921790915501620001e3565b5050600680546001600160a01b031916331790555062000354565b828054600181600116156101000203166002900490600052602060002090601f016020900481019282601f10620002f257805160ff191683800117855562000322565b8280016001018555821562000322579182015b828111156200032257825182559160200191906001019062000305565b506200033092915062000334565b5090565b6200035191905b808211156200033057600081556001016200033b565b90565b614ae880620003646000396000f3fe608060405234801561001057600080fd5b50600436106101ce5760003560e01c80635969326b116101045780639a8eff90116100a2578063dd62ed3e11610071578063dd62ed3e14610694578063ef0a4fd8146106c2578063f0fa55a9146106df578063f4837c11146106fc576101ce565b80639a8eff90146105f0578063a457c2d714610616578063a9059cbb14610642578063bcb58e3e1461066e576101ce565b80637264a5de116100de5780637264a5de146104ac578063771d4c28146104b4578063776b50eb146104da57806395d89b41146105e8576101ce565b80635969326b1461047657806362ebbeeb1461047e57806370a0823114610486576101ce565b80632e8d6e18116101715780634dd76ebe1161014b5780634dd76ebe146104055780635239a0d41461042b5780635354c8f11461045157806355c1f8281461046e576101ce565b80632e8d6e1814610393578063313ce567146103bb57806339509351146103d9576101ce565b8063095ea7b3116101ad578063095ea7b3146102dd57806318160ddd1461031d57806323b872dd14610337578063241cb4681461036d576101ce565b8062f714ce146101d357806306fdde031461022757806307c28c26146102a4575b600080fd5b6101ff600480360360408110156101e957600080fd5b50803590602001356001600160a01b0316610728565b6040805193151584526001600160a01b03909216602084015282820152519081900360600190f35b61022f610c22565b6040805160208082528351818301528351919283929083019185019080838360005b83811015610269578181015183820152602001610251565b50505050905090810190601f1680156102965780820380516001836020036101000a031916815260200191505b509250505060405180910390f35b6102c1600480360360208110156102ba57600080fd5b5035610cb9565b604080516001600160a01b039092168252519081900360200190f35b610309600480360360408110156102f357600080fd5b506001600160a01b038135169060200135610ce0565b604080519115158252519081900360200190f35b610325610cfe565b60408051918252519081900360200190f35b6103096004803603606081101561034d57600080fd5b506001600160a01b03813581169160208101359091169060400135610d04565b6101ff6004803603602081101561038357600080fd5b50356001600160a01b0316610d91565b6103b9600480360360208110156103a957600080fd5b50356001600160a01b0316610e06565b005b6103c3610ef1565b6040805160ff9092168252519081900360200190f35b610309600480360360408110156103ef57600080fd5b506001600160a01b038135169060200135610efa565b6103096004803603602081101561041b57600080fd5b50356001600160a01b0316610f4e565b6103096004803603602081101561044157600080fd5b50356001600160a01b03166110f1565b6103b96004803603602081101561046757600080fd5b5035611295565b6103b9611338565b610325611354565b6103256113d2565b6103256004803603602081101561049c57600080fd5b50356001600160a01b0316611900565b6103b961191b565b6103b9600480360360208110156104ca57600080fd5b50356001600160a01b031661198c565b6103b9600480360360608110156104f057600080fd5b810190602081018135600160201b81111561050a57600080fd5b82018360208201111561051c57600080fd5b803590602001918460208302840111600160201b8311171561053d57600080fd5b919390929091602081019035600160201b81111561055a57600080fd5b82018360208201111561056c57600080fd5b803590602001918460208302840111600160201b8311171561058d57600080fd5b919390929091602081019035600160201b8111156105aa57600080fd5b8201836020820111156105bc57600080fd5b803590602001918460018302840111600160201b831117156105dd57600080fd5b509092509050611a95565b61022f611de1565b6103b96004803603602081101561060657600080fd5b50356001600160a01b0316611e42565b6103096004803603604081101561062c57600080fd5b506001600160a01b038135169060200135611ec3565b6103096004803603604081101561065857600080fd5b506001600160a01b038135169060200135611f31565b6102c16004803603602081101561068457600080fd5b50356001600160a01b0316611f45565b610325600480360360408110156106aa57600080fd5b506001600160a01b0381358116916020013516611fc4565b610325600480360360208110156106d857600080fd5b5035611fef565b6103b9600480360360208110156106f557600080fd5b5035612048565b6103256004803603604081101561071257600080fd5b506001600160a01b0381351690602001356120eb565b336000908152600d60205260408120548190819060ff1661077e576040805162461bcd60e51b8152602060048201526015602482015260008051602061489c833981519152604482015290519081900360640190fd5b8461078833611900565b10156107cf576040805162461bcd60e51b81526020600482015260116024820152704e6f7420656e6f7567682073686172657360781b604482015290519081900360640190fd5b60006108016107dd33611900565b6107f56107e86113d2565b899063ffffffff61225116565b9063ffffffff6122b116565b336000908152600d60209081526040808320548151637e062a3560e11b8152915194955061010090046001600160a01b031693849263fc0c546a9260048082019391829003018186803b15801561085757600080fd5b505afa15801561086b573d6000803e3d6000fd5b505050506040513d602081101561088157600080fd5b505160055460408051638b2f0f4f60e01b81526001600160a01b038681166004830152915193945060009361010090930490911691638b2f0f4f91602480820192602092909190829003018186803b1580156108dc57600080fd5b505afa1580156108f0573d6000803e3d6000fd5b505050506040513d602081101561090657600080fd5b505190506000610928826107f587670de0b6b3a764000063ffffffff61225116565b90506000600560019054906101000a90046001600160a01b03166001600160a01b0316635a72fee86040518163ffffffff1660e01b815260040160206040518083038186803b15801561097a57600080fd5b505afa15801561098e573d6000803e3d6000fd5b505050506040513d60208110156109a457600080fd5b50516040805163566ab92760e01b81526001600160a01b038881166004830152602482018690529151919092169163566ab927916044808301926020929190829003018186803b1580156109f757600080fd5b505afa158015610a0b573d6000803e3d6000fd5b505050506040513d6020811015610a2157600080fd5b50519050610a2f338c6122f3565b336000908152600d602090815260408083206001600160a01b0389811685526001909101909252909120805483900390558a161580610a7f5750846001600160a01b03168a6001600160a01b0316145b15610ab257610a9e6001600160a01b038616338363ffffffff6123ef16565b60019850939650929450610c1b9350505050565b6000856001600160a01b0316632e1a7d4d836040518263ffffffff1660e01b815260040180828152602001915050602060405180830381600087803b158015610afa57600080fd5b505af1158015610b0e573d6000803e3d6000fd5b505050506040513d6020811015610b2457600080fd5b505190506001600160a01b038b81169086161415610b6b57610b566001600160a01b038616338363ffffffff6123ef16565b60019950939750929550610c1b945050505050565b6000610b778683612446565b6007549091506001600160a01b038d811691161415610bce57600754610bad906001600160a01b0316338363ffffffff6123ef16565b60075460019b506001600160a01b031699509750610c1b9650505050505050565b600754600090610be8906001600160a01b03168e846128aa565b9050610c046001600160a01b038e16338363ffffffff6123ef16565b60019b508c9a509850610c1b975050505050505050565b9250925092565b60038054604080516020601f6002600019610100600188161502019095169490940493840181900481028201810190925282815260609390929091830182828015610cae5780601f10610c8357610100808354040283529160200191610cae565b820191906000526020600020905b815481529060010190602001808311610c9157829003601f168201915b505050505090505b90565b600b8181548110610cc657fe5b6000918252602090912001546001600160a01b0316905081565b6000610cf4610ced612dec565b8484612df0565b5060015b92915050565b60025490565b6000610d11848484612edc565b610d8784610d1d612dec565b610d8285604051806060016040528060288152602001614947602891396001600160a01b038a16600090815260016020526040812090610d5b612dec565b6001600160a01b03168152602081019190915260400160002054919063ffffffff61303816565b612df0565b5060019392505050565b336000908152600d60205260408120548190819060ff16610de7576040805162461bcd60e51b8152602060048201526015602482015260008051602061489c833981519152604482015290519081900360640190fd5b610df9610df333611900565b85610728565b9250925092509193909250565b6006546001600160a01b03163314610e5f576040805162461bcd60e51b815260206004820152601760248201527627b7363c903832b936b4ba3a32b2103a379037bbb732b960491b604482015290519081900360640190fd5b604080516370a0823160e01b81523060048201529051610eee9133916001600160a01b038516916370a08231916024808301926020929190829003018186803b158015610eab57600080fd5b505afa158015610ebf573d6000803e3d6000fd5b505050506040513d6020811015610ed557600080fd5b50516001600160a01b038416919063ffffffff6123ef16565b50565b60055460ff1690565b6000610cf4610f07612dec565b84610d828560016000610f18612dec565b6001600160a01b03908116825260208083019390935260409182016000908120918c16815292529020549063ffffffff6130cf16565b336000908152600d602052604081205460ff16610fa0576040805162461bcd60e51b8152602060048201526015602482015260008051602061489c833981519152604482015290519081900360640190fd5b6001600160a01b0382166000908152600c602052604090205460ff16611004576040805162461bcd60e51b81526020600482015260146024820152731c1c9bdd1bd8dbdb081b9bdd081c1c995cd95b9d60621b604482015290519081900360640190fd5b6005546040805163a6ee554560e01b81523360048201523060248201526001600160a01b03858116604483015291516101009093049091169163a6ee554591606480820192602092909190829003018186803b15801561106357600080fd5b505afa158015611077573d6000803e3d6000fd5b505050506040513d602081101561108d57600080fd5b50516110e0576040805162461bcd60e51b815260206004820152601e60248201527f70726f746f636f6c206e6f7420656e61626c656420666f72207661756c740000604482015290519081900360640190fd5b6110e982613129565b90505b919050565b336000908152600d602052604081205460ff16611143576040805162461bcd60e51b8152602060048201526015602482015260008051602061489c833981519152604482015290519081900360640190fd5b6001600160a01b0382166000908152600c602052604090205460ff1661119a5760405162461bcd60e51b815260040180806020018281038252602c815260200180614a2d602c913960400191505060405180910390fd5b6005546040805163a6ee554560e01b81523360048201523060248201526001600160a01b03858116604483015291516101009093049091169163a6ee554591606480820192602092909190829003018186803b1580156111f957600080fd5b505afa15801561120d573d6000803e3d6000fd5b505050506040513d602081101561122357600080fd5b50516112605760405162461bcd60e51b815260040180806020018281038252602a8152602001806149b5602a913960400191505060405180910390fd5b50336000908152600d6020526040812080546001600160a01b03841661010002610100600160a81b0319909116179055919050565b6006546001600160a01b031633146112ee576040805162461bcd60e51b815260206004820152601760248201527627b7363c903832b936b4ba3a32b2103a379037bbb732b960491b604482015290519081900360640190fd5b6127108110611333576040805162461bcd60e51b815260206004820152600c60248201526b212070657263656e7461676560a01b604482015290519081900360640190fd5b600a55565b336000908152600d60205260409020805460ff19166001179055565b600061135e6113d2565b158061136f575061136d610cfe565b155b1561137c57506000610cb6565b336000908152600d602052604090205460ff16156113c7576113c06113a033611900565b6107f5670de0b6b3a76400006113b46113d2565b9063ffffffff61225116565b9050610cb6565b6113c06113a0610cfe565b336000908152600d6020526040812054819060ff16156115c857336000908152600d60209081526040808320805461010090046001600160a01b031680855260019091019092529091205480156115bd5760055460408051638b2f0f4f60e01b81526001600160a01b0385811660048301529151600093610100900490921691638b2f0f4f91602480820192602092909190829003018186803b15801561147857600080fd5b505afa15801561148c573d6000803e3d6000fd5b505050506040513d60208110156114a257600080fd5b505160055460408051630b4e5fdd60e31b815290519293506115b992670de0b6b3a7640000926107f59286926101009092046001600160a01b031691635a72fee891600480820192602092909190829003018186803b15801561150457600080fd5b505afa158015611518573d6000803e3d6000fd5b505050506040513d602081101561152e57600080fd5b50516040805163165013c360e31b81526001600160a01b038a81166004830152602482018a90529151919092169163b2809e18916044808301926020929190829003018186803b15801561158157600080fd5b505afa158015611595573d6000803e3d6000fd5b505050506040513d60208110156115ab57600080fd5b50519063ffffffff61225116565b9350505b829350505050610cb6565b60005b600b548110156118df576000600b82815481106115e457fe5b60009182526020918290200154604080516370a0823160e01b815230600482015290516001600160a01b03909216926370a0823192602480840193829003018186803b15801561163357600080fd5b505afa158015611647573d6000803e3d6000fd5b505050506040513d602081101561165d57600080fd5b505111156118d757600554600b805460009261010090046001600160a01b031691638b2f0f4f918590811061168e57fe5b60009182526020918290200154604080516001600160e01b031960e086901b1681526001600160a01b0390921660048301525160248083019392829003018186803b1580156116dc57600080fd5b505afa1580156116f0573d6000803e3d6000fd5b505050506040513d602081101561170657600080fd5b505160055460408051630b4e5fdd60e31b815290519293506000926101009092046001600160a01b031691635a72fee891600480820192602092909190829003018186803b15801561175757600080fd5b505afa15801561176b573d6000803e3d6000fd5b505050506040513d602081101561178157600080fd5b5051600b80546001600160a01b039092169163b2809e189190869081106117a457fe5b600091825260209091200154600b80546001600160a01b0390921691879081106117ca57fe5b60009182526020918290200154604080516370a0823160e01b815230600482015290516001600160a01b03909216926370a0823192602480840193829003018186803b15801561181957600080fd5b505afa15801561182d573d6000803e3d6000fd5b505050506040513d602081101561184357600080fd5b5051604080516001600160e01b031960e086901b1681526001600160a01b0390931660048401526024830191909152516044808301926020929190829003018186803b15801561189257600080fd5b505afa1580156118a6573d6000803e3d6000fd5b505050506040513d60208110156118bc57600080fd5b505190506118d0818363ffffffff61225116565b8401935050505b6001016115cb565b506118f881670de0b6b3a764000063ffffffff6122b116565b915050610cb6565b6001600160a01b031660009081526020819052604090205490565b336000908152600d602052604090205460ff1661196d576040805162461bcd60e51b8152602060048201526015602482015260008051602061489c833981519152604482015290519081900360640190fd5b336000908152600d6020526040902080546001600160a81b0319169055565b6006546001600160a01b031633146119e5576040805162461bcd60e51b815260206004820152601760248201527627b7363c903832b936b4ba3a32b2103a379037bbb732b960491b604482015290519081900360640190fd5b6001600160a01b038116611a2f576040805162461bcd60e51b815260206004820152600c60248201526b5a65726f206164647265737360a01b604482015290519081900360640190fd5b6001600160a01b03166000818152600c60205260408120805460ff19166001908117909155600b805491820181559091527f0175b7a638427703f0dbe7bb9bbf987a2551717b34e79f33b5b1008d1fa01db90180546001600160a01b0319169091179055565b336000908152600d602052604090205460ff16611ae7576040805162461bcd60e51b8152602060048201526015602482015260008051602061489c833981519152604482015290519081900360640190fd5b336000908152600d602052604090205461010090046001600160a01b0316611b4b576040805162461bcd60e51b8152602060048201526012602482015271139bc81858dd1a5d9948141c9bdd1bd8dbdb60721b604482015290519081900360640190fd5b336000908152600d60209081526040808320548151637e062a3560e11b815291516101009091046001600160a01b03169392849263fc0c546a9260048083019392829003018186803b158015611ba057600080fd5b505afa158015611bb4573d6000803e3d6000fd5b505050506040513d6020811015611bca57600080fd5b505190506000611bd86132bb565b6001600160a01b031663bdf475c3836040518263ffffffff1660e01b815260040180826001600160a01b03166001600160a01b0316815260200191505060206040518083038186803b158015611c2d57600080fd5b505afa158015611c41573d6000803e3d6000fd5b505050506040513d6020811015611c5757600080fd5b505190506001600160a01b038116611ca9576040805162461bcd60e51b815260206004820152601060248201526f1c1bdbdb081b9bdd081c1c995cd95b9d60821b604482015290519081900360640190fd5b60005b88811015611d24576000888883818110611cc257fe5b905060200201351115611d1c57611d1c33308a8a85818110611ce057fe5b905060200201358d8d86818110611cf357fe5b905060200201356001600160a01b03166001600160a01b0316613331909392919063ffffffff16565b600101611cac565b506000611d6686868080601f01602080910402602001604051908101604052809392919081815260200183838082843760009201919091525061339192505050565b90506000611d7333611900565b611d7e575080611d93565b611d90611d8b86846120eb565b611fef565b90505b8015611da357611da33382613580565b50336000908152600d602090815260408083206001600160a01b03979097168352600190960190529390932080549093019092555050505050505050565b60048054604080516020601f6002600019610100600188161502019095169490940493840181900481028201810190925282815260609390929091830182828015610cae5780601f10610c8357610100808354040283529160200191610cae565b6006546001600160a01b03163314611e9b576040805162461bcd60e51b815260206004820152601760248201527627b7363c903832b936b4ba3a32b2103a379037bbb732b960491b604482015290519081900360640190fd5b600580546001600160a01b0390921661010002610100600160a81b0319909216919091179055565b6000610cf4611ed0612dec565b84610d8285604051806060016040528060258152602001614a8f6025913960016000611efa612dec565b6001600160a01b03908116825260208083019390935260409182016000908120918d1681529252902054919063ffffffff61303816565b6000610cf4611f3e612dec565b8484612edc565b6001600160a01b0381166000908152600d602052604081205460ff16611fa0576040805162461bcd60e51b8152602060048201526015602482015260008051602061489c833981519152604482015290519081900360640190fd5b506001600160a01b039081166000908152600d602052604090205461010090041690565b6001600160a01b03918216600090815260016020908152604080832093909416825291909152205490565b336000908152600d602052604081205460ff16156120325761202b6120126113d2565b6107f561201e33611900565b859063ffffffff61225116565b90506110ec565b61202b61203d6113d2565b6107f561201e610cfe565b6006546001600160a01b031633146120a1576040805162461bcd60e51b815260206004820152601760248201527627b7363c903832b936b4ba3a32b2103a379037bbb732b960491b604482015290519081900360640190fd5b61271081106120e6576040805162461bcd60e51b815260206004820152600c60248201526b212070657263656e7461676560a01b604482015290519081900360640190fd5b600955565b60055460408051638b2f0f4f60e01b81526001600160a01b038581166004830152915160009384936101009091041691638b2f0f4f916024808301926020929190829003018186803b15801561214057600080fd5b505afa158015612154573d6000803e3d6000fd5b505050506040513d602081101561216a57600080fd5b505160055460408051630b4e5fdd60e31b8152905192935061224992670de0b6b3a7640000926107f59286926101009092046001600160a01b031691635a72fee891600480820192602092909190829003018186803b1580156121cc57600080fd5b505afa1580156121e0573d6000803e3d6000fd5b505050506040513d60208110156121f657600080fd5b50516040805163165013c360e31b81526001600160a01b038b81166004830152602482018b90529151919092169163b2809e18916044808301926020929190829003018186803b15801561158157600080fd5b949350505050565b60008261226057506000610cf8565b8282028284828161226d57fe5b04146122aa5760405162461bcd60e51b81526004018080602001828103825260218152602001806149266021913960400191505060405180910390fd5b9392505050565b60006122aa83836040518060400160405280601a81526020017f536166654d6174683a206469766973696f6e206279207a65726f000000000000815250613670565b6001600160a01b0382166123385760405162461bcd60e51b815260040180806020018281038252602181526020018061496f6021913960400191505060405180910390fd5b61237b816040518060600160405280602281526020016148bc602291396001600160a01b038516600090815260208190526040902054919063ffffffff61303816565b6001600160a01b0383166000908152602081905260409020556002546123a7908263ffffffff6136d516565b6002556040805182815290516000916001600160a01b038516917fddf252ad1be2c89b69c2b068fc378daa952ba7f163c4a11628f55a4df523b3ef9181900360200190a35050565b604080516001600160a01b038416602482015260448082018490528251808303909101815260649091019091526020810180516001600160e01b031663a9059cbb60e01b179052612441908490613717565b505050565b6000806124516132bb565b6001600160a01b031663bdf475c3856040518263ffffffff1660e01b815260040180826001600160a01b03166001600160a01b0316815260200191505060206040518083038186803b1580156124a657600080fd5b505afa1580156124ba573d6000803e3d6000fd5b505050506040513d60208110156124d057600080fd5b505160055460408051638b2f0f4f60e01b81526001600160a01b038881166004830152915193945060009361010090930490911691638b2f0f4f91602480820192602092909190829003018186803b15801561252b57600080fd5b505afa15801561253f573d6000803e3d6000fd5b505050506040513d602081101561255557600080fd5b505160055460075460408051638b2f0f4f60e01b81526001600160a01b039283166004820152905193945060009361010090930490911691638b2f0f4f91602480820192602092909190829003018186803b1580156125b357600080fd5b505afa1580156125c7573d6000803e3d6000fd5b505050506040513d60208110156125dd57600080fd5b505160055460408051630b4e5fdd60e31b815290519293506000926101009092046001600160a01b031691635a72fee891600480820192602092909190829003018186803b15801561262e57600080fd5b505afa158015612642573d6000803e3d6000fd5b505050506040513d602081101561265857600080fd5b50516040805163165013c360e31b81526001600160a01b038a81166004830152602482018a90529151919092169163b2809e18916044808301926020929190829003018186803b1580156126ab57600080fd5b505afa1580156126bf573d6000803e3d6000fd5b505050506040513d60208110156126d557600080fd5b5051905060006126ef836107f5848763ffffffff61225116565b90506000600560019054906101000a90046001600160a01b03166001600160a01b0316635a72fee86040518163ffffffff1660e01b815260040160206040518083038186803b15801561274157600080fd5b505afa158015612755573d6000803e3d6000fd5b505050506040513d602081101561276b57600080fd5b50516007546040805163566ab92760e01b81526001600160a01b039283166004820152602481018690529051919092169163566ab927916044808301926020929190829003018186803b1580156127c157600080fd5b505afa1580156127d5573d6000803e3d6000fd5b505050506040513d60208110156127eb57600080fd5b505160095490915060009061280f90612710906107f590859063ffffffff61225116565b820390506000876001600160a01b0316631a4d01d28b6001856040518463ffffffff1660e01b81526004018084815260200183600f0b81526020018281526020019350505050602060405180830381600087803b15801561286f57600080fd5b505af1158015612883573d6000803e3d6000fd5b505050506040513d602081101561289957600080fd5b50519b9a5050505050505050505050565b6000806000600560019054906101000a90046001600160a01b03166001600160a01b0316634407ea176040518163ffffffff1660e01b815260040160206040518083038186803b1580156128fd57600080fd5b505afa158015612911573d6000803e3d6000fd5b505050506040513d602081101561292757600080fd5b50516040805163e6a4390560e01b81526001600160a01b038981166004830152888116602483015291519293506000929184169163e6a439059160448082019260209290919082900301818787803b15801561298257600080fd5b505af1158015612996573d6000803e3d6000fd5b505050506040513d60208110156129ac57600080fd5b505190506001600160a01b038116612a0b576040805162461bcd60e51b815260206004820152601960248201527f45786368616e67652070616972206e6f742070726573656e7400000000000000604482015290519081900360640190fd5b60055460408051638b2f0f4f60e01b81526001600160a01b038a811660048301529151600093610100900490921691638b2f0f4f91602480820192602092909190829003018186803b158015612a6057600080fd5b505afa158015612a74573d6000803e3d6000fd5b505050506040513d6020811015612a8a57600080fd5b505160055460408051638b2f0f4f60e01b81526001600160a01b038b81166004830152915193945060009361010090930490911691638b2f0f4f91602480820192602092909190829003018186803b158015612ae557600080fd5b505afa158015612af9573d6000803e3d6000fd5b505050506040513d6020811015612b0f57600080fd5b505160055460408051630b4e5fdd60e31b815290519293506000926101009092046001600160a01b031691635a72fee891600480820192602092909190829003018186803b158015612b6057600080fd5b505afa158015612b74573d6000803e3d6000fd5b505050506040513d6020811015612b8a57600080fd5b50516040805163165013c360e31b81526001600160a01b038d81166004830152602482018c90529151919092169163b2809e18916044808301926020929190829003018186803b158015612bdd57600080fd5b505afa158015612bf1573d6000803e3d6000fd5b505050506040513d6020811015612c0757600080fd5b505190506000612c21836107f5848763ffffffff61225116565b90506000600560019054906101000a90046001600160a01b03166001600160a01b0316635a72fee86040518163ffffffff1660e01b815260040160206040518083038186803b158015612c7357600080fd5b505afa158015612c87573d6000803e3d6000fd5b505050506040513d6020811015612c9d57600080fd5b50516040805163566ab92760e01b81526001600160a01b038e81166004830152602482018690529151919092169163566ab927916044808301926020929190829003018186803b158015612cf057600080fd5b505afa158015612d04573d6000803e3d6000fd5b505050506040513d6020811015612d1a57600080fd5b5051600a54909150600090612d3e90612710906107f590859063ffffffff61225116565b82039050612d4d8d888d6138cf565b60408051637f0148ab60e11b81526001600160a01b038f811660048301528e81166024830152604482018e90526064820184905291519189169163fe029156916084808201926020929091908290030181600087803b158015612daf57600080fd5b505af1158015612dc3573d6000803e3d6000fd5b505050506040513d6020811015612dd957600080fd5b50519d9c50505050505050505050505050565b3390565b6001600160a01b038316612e355760405162461bcd60e51b81526004018080602001828103825260248152602001806149df6024913960400191505060405180910390fd5b6001600160a01b038216612e7a5760405162461bcd60e51b81526004018080602001828103825260228152602001806148de6022913960400191505060405180910390fd5b6001600160a01b03808416600081815260016020908152604080832094871680845294825291829020859055815185815291517f8c5be1e5ebec7d5bd14f71427d1e84f3dd0314c0f7b2291e5b200ac8c7c3b9259281900390910190a3505050565b6001600160a01b038316612f215760405162461bcd60e51b81526004018080602001828103825260258152602001806149906025913960400191505060405180910390fd5b6001600160a01b038216612f665760405162461bcd60e51b81526004018080602001828103825260238152602001806148796023913960400191505060405180910390fd5b612fa981604051806060016040528060268152602001614900602691396001600160a01b038616600090815260208190526040902054919063ffffffff61303816565b6001600160a01b038085166000908152602081905260408082209390935590841681522054612fde908263ffffffff6130cf16565b6001600160a01b038084166000818152602081815260409182902094909455805185815290519193928716927fddf252ad1be2c89b69c2b068fc378daa952ba7f163c4a11628f55a4df523b3ef92918290030190a3505050565b600081848411156130c75760405162461bcd60e51b81526004018080602001828103825283818151815260200191508051906020019080838360005b8381101561308c578181015183820152602001613074565b50505050905090810190601f1680156130b95780820380516001836020036101000a031916815260200191505b509250505060405180910390fd5b505050900390565b6000828201838110156122aa576040805162461bcd60e51b815260206004820152601b60248201527f536166654d6174683a206164646974696f6e206f766572666c6f770000000000604482015290519081900360640190fd5b336000908152600d6020908152604080832080546001600160a01b0361010080830482168088526001850187528588208054610100600160a81b0319909516938a1690920292909217909355918590558251632e1a7d4d60e01b81526004810182905292519193909285928592632e1a7d4d926024808201939182900301818787803b1580156131b857600080fd5b505af11580156131cc573d6000803e3d6000fd5b505050506040513d60208110156131e257600080fd5b505160408051637e062a3560e11b815290519192506000916001600160a01b0386169163fc0c546a916004808301926020929190829003018186803b15801561322a57600080fd5b505afa15801561323e573d6000803e3d6000fd5b505050506040513d602081101561325457600080fd5b5051905060006132648284612446565b90506000613271826139a6565b9050600061327f898361417e565b336000908152600d602090815260408083206001600160a01b038e16845260010190915281208054909201909155975050505050505050919050565b6008546040805163a262904b60e01b815290516000926001600160a01b03169163a262904b916004808301926020929190829003018186803b15801561330057600080fd5b505afa158015613314573d6000803e3d6000fd5b505050506040513d602081101561332a57600080fd5b5051905090565b604080516001600160a01b0385811660248301528416604482015260648082018490528251808303909101815260849091019091526020810180516001600160e01b03166323b872dd60e01b17905261338b908590613717565b50505050565b336000908152600d602052604081205481908190819081908190819061010090046001600160a01b03166133c361481d565b6133cb61481d565b60006060808d8060200190516101208110156133e657600080fd5b60c082015160e083018051604051606086019490929086019186919084600160201b82111561341457600080fd5b90830190602082018581111561342957600080fd5b82518660208202830111600160201b8211171561344557600080fd5b82525081516020918201928201910280838360005b8381101561347257818101518382015260200161345a565b5050505090500160405260200180516040519392919084600160201b82111561349a57600080fd5b9083019060208201858111156134af57600080fd5b82518660208202830111600160201b821117156134cb57600080fd5b82525081516020918201928201910280838360005b838110156134f85781810151838201526020016134e0565b5050505090500160405250505094509450945094509450600083111561352657613523858585614270565b9b505b81511561353f5761353782826144ed565b919b50995096505b8b89011561355557613552898d016139a6565b9a505b8a8a011561356c57613569868b8d0161417e565b97505b505050939092019998505050505050505050565b6001600160a01b0382166135db576040805162461bcd60e51b815260206004820152601f60248201527f45524332303a206d696e7420746f20746865207a65726f206164647265737300604482015290519081900360640190fd5b6002546135ee908263ffffffff6130cf16565b6002556001600160a01b03821660009081526020819052604090205461361a908263ffffffff6130cf16565b6001600160a01b0383166000818152602081815260408083209490945583518581529351929391927fddf252ad1be2c89b69c2b068fc378daa952ba7f163c4a11628f55a4df523b3ef9281900390910190a35050565b600081836136bf5760405162461bcd60e51b815260206004820181815283516024840152835190928392604490910191908501908083836000831561308c578181015183820152602001613074565b5060008385816136cb57fe5b0495945050505050565b60006122aa83836040518060400160405280601e81526020017f536166654d6174683a207375627472616374696f6e206f766572666c6f770000815250613038565b613729826001600160a01b03166146d1565b61377a576040805162461bcd60e51b815260206004820152601f60248201527f5361666545524332303a2063616c6c20746f206e6f6e2d636f6e747261637400604482015290519081900360640190fd5b60006060836001600160a01b0316836040518082805190602001908083835b602083106137b85780518252601f199092019160209182019101613799565b6001836020036101000a0380198251168184511680821785525050505050509050019150506000604051808303816000865af19150503d806000811461381a576040519150601f19603f3d011682016040523d82523d6000602084013e61381f565b606091505b509150915081613876576040805162461bcd60e51b815260206004820181905260248201527f5361666545524332303a206c6f772d6c6576656c2063616c6c206661696c6564604482015290519081900360640190fd5b80511561338b5780806020019051602081101561389257600080fd5b505161338b5760405162461bcd60e51b815260040180806020018281038252602a815260200180614a03602a913960400191505060405180910390fd5b60408051636eb1769f60e11b81523060048201526001600160a01b038481166024830152915160009286169163dd62ed3e916044808301926020929190829003018186803b15801561392057600080fd5b505afa158015613934573d6000803e3d6000fd5b505050506040513d602081101561394a57600080fd5b5051111561398c5761396d6001600160a01b03841683600063ffffffff61470a16565b6139876001600160a01b038416838363ffffffff61470a16565b612441565b6124416001600160a01b038416838363ffffffff61470a16565b336000908152600d60209081526040808320548151637e062a3560e11b815291516101009091046001600160a01b0316928492849263fc0c546a92600480840193919291829003018186803b1580156139fe57600080fd5b505afa158015613a12573d6000803e3d6000fd5b505050506040513d6020811015613a2857600080fd5b505190506000613a366132bb565b6001600160a01b031663bdf475c3836040518263ffffffff1660e01b815260040180826001600160a01b03166001600160a01b0316815260200191505060206040518083038186803b158015613a8b57600080fd5b505afa158015613a9f573d6000803e3d6000fd5b505050506040513d6020811015613ab557600080fd5b50519050613ac161483b565b613ac96132bb565b6040805163940494f160e01b81526001600160a01b038581166004830152825193169263940494f192602480840193919291829003018186803b158015613b0f57600080fd5b505afa158015613b23573d6000803e3d6000fd5b505050506040513d601f19601f820116820180604052506040811015613b4857600080fd5b509050613b53614859565b613b5b6132bb565b6001600160a01b0316639ac90d3d846040518263ffffffff1660e01b815260040180826001600160a01b03166001600160a01b031681526020019150506101006040518083038186803b158015613bb157600080fd5b505afa158015613bc5573d6000803e3d6000fd5b505050506040513d601f19601f82011682018060405250610100811015613beb57600080fd5b508251909150613bf961483b565b60005b82811015613c4b576007546001600160a01b0316848260088110613c1c57fe5b60200201516001600160a01b03161415613c435789828260028110613c3d57fe5b60200201525b600101613bfc565b50600754613c63906001600160a01b0316868b6138cf565b604080516370a0823160e01b815230600482015290516000916001600160a01b038916916370a0823191602480820192602092909190829003018186803b158015613cad57600080fd5b505afa158015613cc1573d6000803e3d6000fd5b505050506040513d6020811015613cd757600080fd5b505160055460075460408051638b2f0f4f60e01b81526001600160a01b039283166004820152905193945060009361010090930490911691638b2f0f4f91602480820192602092909190829003018186803b158015613d3557600080fd5b505afa158015613d49573d6000803e3d6000fd5b505050506040513d6020811015613d5f57600080fd5b505160055460408051630b4e5fdd60e31b815290519293506000926101009092046001600160a01b031691635a72fee891600480820192602092909190829003018186803b158015613db057600080fd5b505afa158015613dc4573d6000803e3d6000fd5b505050506040513d6020811015613dda57600080fd5b81019080805190602001909291905050506001600160a01b031663b2809e18600760009054906101000a90046001600160a01b03168e6040518363ffffffff1660e01b815260040180836001600160a01b03166001600160a01b031681526020018281526020019250505060206040518083038186803b158015613e5d57600080fd5b505afa158015613e71573d6000803e3d6000fd5b505050506040513d6020811015613e8757600080fd5b505160055460408051638b2f0f4f60e01b81526001600160a01b038d81166004830152915193945060009361010090930490911691638b2f0f4f91602480820192602092909190829003018186803b158015613ee257600080fd5b505afa158015613ef6573d6000803e3d6000fd5b505050506040513d6020811015613f0c57600080fd5b505190506000613f26826107f5858763ffffffff61225116565b90506000600560019054906101000a90046001600160a01b03166001600160a01b0316635a72fee86040518163ffffffff1660e01b815260040160206040518083038186803b158015613f7857600080fd5b505afa158015613f8c573d6000803e3d6000fd5b505050506040513d6020811015613fa257600080fd5b50516040805163566ab92760e01b81526001600160a01b038f81166004830152602482018690529151919092169163566ab927916044808301926020929190829003018186803b158015613ff557600080fd5b505afa158015614009573d6000803e3d6000fd5b505050506040513d602081101561401f57600080fd5b505160095490915060009061404390612710906107f590859063ffffffff61225116565b820390508b6001600160a01b0316630b4c7e4d89836040518363ffffffff1660e01b81526004018083600260200280838360005b8381101561408f578181015183820152602001614077565b5050505090500182815260200192505050600060405180830381600087803b1580156140ba57600080fd5b505af11580156140ce573d6000803e3d6000fd5b5050505060008d6001600160a01b03166370a08231306040518263ffffffff1660e01b815260040180826001600160a01b03166001600160a01b0316815260200191505060206040518083038186803b15801561412a57600080fd5b505afa15801561413e573d6000803e3d6000fd5b505050506040513d602081101561415457600080fd5b50519050614168818963ffffffff6136d516565b9f50505050505050505050505050505050919050565b600080836001600160a01b031663fc0c546a6040518163ffffffff1660e01b815260040160206040518083038186803b1580156141ba57600080fd5b505afa1580156141ce573d6000803e3d6000fd5b505050506040513d60208110156141e457600080fd5b505190506141f38185856138cf565b6000846001600160a01b031663b6b55f25856040518263ffffffff1660e01b815260040180828152602001915050602060405180830381600087803b15801561423b57600080fd5b505af115801561424f573d6000803e3d6000fd5b505050506040513d602081101561426557600080fd5b505195945050505050565b60008061427b6132bb565b6007546040805163bdf475c360e01b81526001600160a01b0392831660048201529051929091169163bdf475c391602480820192602092909190829003018186803b1580156142c957600080fd5b505afa1580156142dd573d6000803e3d6000fd5b505050506040513d60208110156142f357600080fd5b5051905060005b600381101561434f57600085826003811061431157fe5b602002015111156143475761434786826003811061432b57fe5b60200201518387846003811061433d57fe5b60200201516138cf565b6001016142fa565b50600754604080516370a0823160e01b815230600482015290516000926001600160a01b0316916370a08231916024808301926020929190829003018186803b15801561439b57600080fd5b505afa1580156143af573d6000803e3d6000fd5b505050506040513d60208110156143c557600080fd5b5051604051634515cef360e01b81529091506001600160a01b03831690634515cef390879087906004018083606080838360005b838110156144115781810151838201526020016143f9565b5050505090500182815260200192505050600060405180830381600087803b15801561443c57600080fd5b505af1158015614450573d6000803e3d6000fd5b5050600754604080516370a0823160e01b81523060048201529051600094506001600160a01b0390921692506370a08231916024808301926020929190829003018186803b1580156144a157600080fd5b505afa1580156144b5573d6000803e3d6000fd5b505050506040513d60208110156144cb57600080fd5b5051905060006144e1828463ffffffff6136d516565b98975050505050505050565b336000908152600d60209081526040808320548151637e062a3560e11b81529151849384938493849384936101009092046001600160a01b0316928492849263fc0c546a926004808201939291829003018186803b15801561454e57600080fd5b505afa158015614562573d6000803e3d6000fd5b505050506040513d602081101561457857600080fd5b5051905060005b8a518110156146c057816001600160a01b03168b828151811061459e57fe5b60200260200101516001600160a01b031614156145d2578981815181106145c157fe5b6020026020010151860195506146b8565b826001600160a01b03168b82815181106145e857fe5b60200260200101516001600160a01b0316141561461c5789818151811061460b57fe5b6020026020010151850194506146b8565b6007548b516001600160a01b03909116908c908390811061463957fe5b60200260200101516001600160a01b0316141561466d5789818151811061465c57fe5b6020026020010151840193506146b8565b6146b38b828151811061467c57fe5b6020026020010151600760009054906101000a90046001600160a01b03168c84815181106146a657fe5b60200260200101516128aa565b840193505b60010161457f565b509399919850919650945050505050565b6000813f7fc5d2460186f7233c927e7db2dcc703c0e500b653ca82273b7bfad8045d85a470818114801590612249575050151592915050565b801580614790575060408051636eb1769f60e11b81523060048201526001600160a01b03848116602483015291519185169163dd62ed3e91604480820192602092909190829003018186803b15801561476257600080fd5b505afa158015614776573d6000803e3d6000fd5b505050506040513d602081101561478c57600080fd5b5051155b6147cb5760405162461bcd60e51b8152600401808060200182810382526036815260200180614a596036913960400191505060405180910390fd5b604080516001600160a01b038416602482015260448082018490528251808303909101815260649091019091526020810180516001600160e01b031663095ea7b360e01b179052612441908490613717565b60405180606001604052806003906020820280388339509192915050565b60405180604001604052806002906020820280388339509192915050565b604051806101000160405280600890602082028038833950919291505056fe45524332303a207472616e7366657220746f20746865207a65726f20616464726573734e6f74206120726567697374657265642053616665000000000000000000000045524332303a206275726e20616d6f756e7420657863656564732062616c616e636545524332303a20617070726f766520746f20746865207a65726f206164647265737345524332303a207472616e7366657220616d6f756e7420657863656564732062616c616e6365536166654d6174683a206d756c7469706c69636174696f6e206f766572666c6f7745524332303a207472616e7366657220616d6f756e74206578636565647320616c6c6f77616e636545524332303a206275726e2066726f6d20746865207a65726f206164647265737345524332303a207472616e736665722066726f6d20746865207a65726f2061646472657373546869732070726f746f636f6c206973206e6f7420656e61626c656420666f722074686973207361666545524332303a20617070726f76652066726f6d20746865207a65726f20616464726573735361666545524332303a204552433230206f7065726174696f6e20646964206e6f742073756363656564546869732070726f746f636f6c206973206e6f742070726573656e7420696e207468652073747261746567795361666545524332303a20617070726f76652066726f6d206e6f6e2d7a65726f20746f206e6f6e2d7a65726f20616c6c6f77616e636545524332303a2064656372656173656420616c6c6f77616e63652062656c6f77207a65726fa265627a7a72315820a19de754d2f24d33c143f646ac6c84183cc25cde2439aac00dcc878c1809e59a64736f6c63430005110032",
  "source": "// SPDX-License-Identifier: MIT\npragma solidity >=0.5.0 <0.7.0;\nimport \"@openzeppelin/contracts/utils/Address.sol\";\nimport \"@openzeppelin/contracts/token/ERC20/ERC20.sol\";\nimport \"@openzeppelin/contracts/math/SafeMath.sol\";\nimport \"@openzeppelin/contracts/token/ERC20/ERC20.sol\";\nimport \"@openzeppelin/contracts/token/ERC20/IERC20.sol\";\nimport \"@openzeppelin/contracts/token/ERC20/SafeERC20.sol\";\nimport \"@openzeppelin/contracts/token/ERC20/ERC20Detailed.sol\";\nimport \"../interfaces/IAPContract.sol\";\nimport \"../interfaces/ICrvAddressProvider.sol\";\nimport \"../interfaces/ICrvRegistry.sol\";\nimport \"../interfaces/yearn/IVault.sol\";\nimport \"../interfaces/IExchange.sol\";\nimport \"../interfaces/IHexUtils.sol\";\nimport \"../interfaces/ICrvPool.sol\";\nimport \"../interfaces/ICrv3Pool.sol\";\nimport \"../interfaces/IExchangeRegistry.sol\";\n\ncontract LivaOneCrv is ERC20, ERC20Detailed {\n    using SafeERC20 for IERC20;\n    using SafeMath for uint256;\n\n    address APContract;\n    address owner;\n    address crv3Token = 0x6c3F90f043a72FA612cbac8115EE7e52BDe6E490;\n    address crvAddressProvider = 0x0000000022D53366457F9d5E68Ec105046FC4383;\n    uint256 slippage = 10; //  0.1% slippage\n    uint256 slippageSwap = 50; //  0.5% slippage on swap\n\n    address[] public protocolList;\n    mapping(address => bool) private protocols;\n\n    struct Vault {\n        bool isRegistered;\n        address vaultActiveProtocol;\n        mapping(address => uint256) protocolBalance;\n    }\n\n    mapping(address => Vault) vaults;\n\n    modifier onlyRegisteredVault() {\n        require(vaults[msg.sender].isRegistered, \"Not a registered Safe\");\n        _;\n    }\n\n    modifier onlyOwner() {\n        require(msg.sender == owner, \"Only permitted to owner\");\n        _;\n    }\n\n    /// @dev Function to add new yearn protocols to the strategy.\n    /// @param _protocol Address of the yearn protocol.\n    function addProtocol(address _protocol) public onlyOwner {\n        require(_protocol != address(0), \"Zero address\");\n        protocols[_protocol] = true;\n        protocolList.push(_protocol);\n    }\n\n    constructor(address _APContract, address[] memory _protocols)\n        public\n        ERC20Detailed(\"LVAONE\", \"LIVA ONE\", 18)\n    {\n        APContract = _APContract;\n        for (uint256 i = 0; i < _protocols.length; i++) {\n            protocols[_protocols[i]] = true;\n            protocolList.push(_protocols[i]);\n        }\n        owner = msg.sender;\n    }\n\n    /// @dev Function that returns the address of the Curve Registry contract.\n    function getRegistry() internal view returns (address) {\n        return ICrvAddressProvider(crvAddressProvider).get_registry();\n    }\n\n    /// @dev Function to initialy set new protocol for a subscribed Vault.\n    /// @param _protocol Address of the yearn protocol.\n    function setActiveProtocol(address _protocol)\n        public\n        onlyRegisteredVault\n        returns (bool)\n    {\n        require(\n            protocols[_protocol],\n            \"This protocol is not present in the strategy\"\n        );\n        require(\n            IAPContract(APContract)._isStrategyProtocolEnabled(\n                msg.sender,\n                address(this),\n                _protocol\n            ),\n            \"This protocol is not enabled for this safe\"\n        );\n        vaults[msg.sender].vaultActiveProtocol = _protocol;\n        return false;\n    }\n\n    /// @dev Function to set slippage settings when performing exchanges.\n    /// @param _slippageSwap Slippage value.\n    function setSlippageSwap(uint256 _slippageSwap) public onlyOwner {\n        require(_slippageSwap < 10000, \"! percentage\");\n        slippageSwap = _slippageSwap;\n    }\n\n    /// @dev Function to set slippage settings when interacting with Curve pools.\n    /// @param _slippage Slippage value.\n    function setSlippage(uint256 _slippage) public onlyOwner {\n        require(_slippage < 10000, \"! percentage\");\n        slippage = _slippage;\n    }\n\n    /// @dev Function to set the address of the Yieldster APS.\n    /// @param _APContract Address of the APS Contract.\n    function setAPContract(address _APContract) public onlyOwner {\n        APContract = _APContract;\n    }\n\n    /// @dev Function to get the protocol active for a subscribed vault.\n    /// @param _vaultAddress Address of the vault.\n    function getActiveProtocol(address _vaultAddress)\n        public\n        view\n        returns (address)\n    {\n        require(vaults[_vaultAddress].isRegistered, \"Not a registered Safe\");\n        return vaults[_vaultAddress].vaultActiveProtocol;\n    }\n\n    /// @dev Function to subscribe a new vault to the strategy.\n    function registerSafe() public {\n        Vault storage newVault = vaults[msg.sender];\n        newVault.isRegistered = true;\n    }\n\n    /// @dev Function to unsubscribe a vault from the strategy.\n    function deRegisterSafe() public onlyRegisteredVault {\n        delete vaults[msg.sender];\n    }\n\n    /// @dev Function to approve a token.\n    /// @param _token Address of the token.\n    /// @param _spender Address of the spender.\n    /// @param _amount Amount of tokens to approve.\n    function _approveToken(\n        address _token,\n        address _spender,\n        uint256 _amount\n    ) internal {\n        if (IERC20(_token).allowance(address(this), _spender) > 0) {\n            IERC20(_token).safeApprove(_spender, 0);\n            IERC20(_token).safeApprove(_spender, _amount);\n        } else IERC20(_token).safeApprove(_spender, _amount);\n    }\n\n    /// @dev Function to deposit DAI | USDC | USDT to Curve 3 Pool.\n    /// @param assets Address List of the token.\n    /// @param amounts Amount List of the token.\n    /// @param min_mint_amount Min amount of 3Crv tokens expected.\n    function depositToCurve3Pool(\n        address[3] memory assets,\n        uint256[3] memory amounts,\n        uint256 min_mint_amount\n    ) internal returns (uint256) {\n        address pool = ICrvRegistry(getRegistry()).get_pool_from_lp_token(\n            crv3Token\n        );\n        for (uint256 i = 0; i < assets.length; i++) {\n            if (amounts[i] > 0) _approveToken(assets[i], pool, amounts[i]);\n        }\n        uint256 crv3TokenBefore = IERC20(crv3Token).balanceOf(address(this));\n        ICrv3Pool(pool).add_liquidity(amounts, min_mint_amount);\n        uint256 crv3TokenAfter = IERC20(crv3Token).balanceOf(address(this));\n        uint256 returnAmount = crv3TokenAfter.sub(crv3TokenBefore);\n        return returnAmount;\n    }\n\n    /// @dev Function to deposit 3Crv to Target Pool.\n    /// @param amount Amount of 3Crv tokens.\n    function deposit3CrvToTargetPool(uint256 amount)\n        internal\n        returns (uint256)\n    {\n        address yVault = vaults[msg.sender].vaultActiveProtocol;\n        address underlying = IVault(yVault).token();\n        address pool = ICrvRegistry(getRegistry()).get_pool_from_lp_token(\n            underlying\n        );\n        uint256[2] memory poolNCoins = ICrvRegistry(getRegistry()).get_n_coins(\n            pool\n        );\n        address[8] memory poolCoins = ICrvRegistry(getRegistry()).get_coins(\n            pool\n        );\n        uint256 index = poolNCoins[0];\n        uint256[2] memory amounts;\n\n        for (uint256 i = 0; i < index; i++) {\n            if (poolCoins[i] == crv3Token) amounts[i] = amount;\n        }\n        _approveToken(crv3Token, pool, amount);\n        uint256 underlyingBefore = IERC20(underlying).balanceOf(address(this));\n        uint256 crv3TokenUSD = IAPContract(APContract).getUSDPrice(crv3Token);\n        uint256 crv3TokenAmountDecimals = IHexUtils(\n            IAPContract(APContract).stringUtils()\n        ).toDecimals(crv3Token, amount);\n        uint256 underlyingUSD = IAPContract(APContract).getUSDPrice(underlying);\n        uint256 expectedUnderlyingDecimal = (\n            crv3TokenAmountDecimals.mul(crv3TokenUSD)\n        ).div(underlyingUSD);\n        uint256 expectedUnderlying = IHexUtils(\n            IAPContract(APContract).stringUtils()\n        ).fromDecimals(underlying, expectedUnderlyingDecimal);\n        uint256 min_mint_amount = expectedUnderlying - //SLIPPAGE\n            expectedUnderlying.mul(slippage).div(10000);\n        ICrvPool(pool).add_liquidity(amounts, min_mint_amount);\n        uint256 underlyingAfter = IERC20(underlying).balanceOf(address(this));\n        return underlyingAfter.sub(underlyingBefore);\n    }\n\n    /// @dev Function to deposit LP tokens to Yearn Vault.\n    /// @param yVault Address of the yearn vault.\n    /// @param amount Amount of LP tokens to deposit.\n    function depositToYearnVault(address yVault, uint256 amount)\n        internal\n        returns (uint256)\n    {\n        address underlying = IVault(yVault).token();\n        _approveToken(underlying, yVault, amount);\n        uint256 yVaultTokens = IVault(yVault).deposit(amount);\n        return yVaultTokens;\n    }\n\n    /// @dev Function to exchange from one token to another.\n    /// @param fromToken Address of from token.\n    /// @param toToken Address of target token.\n    /// @param amount Amount of tokens to exchange.\n    function exchangeToken(\n        address fromToken,\n        address toToken,\n        uint256 amount\n    ) internal returns (uint256) {\n        uint256 exchangeReturn;\n        IExchangeRegistry exchangeRegistry = IExchangeRegistry(\n            IAPContract(APContract).exchangeRegistry()\n        );\n        address exchange = exchangeRegistry.getPair(fromToken, toToken);\n        require(exchange != address(0), \"Exchange pair not present\");\n\n        uint256 fromTokenUSD = IAPContract(APContract).getUSDPrice(fromToken);\n        uint256 toTokenUSD = IAPContract(APContract).getUSDPrice(toToken);\n        uint256 fromTokenAmountDecimals = IHexUtils(\n            IAPContract(APContract).stringUtils()\n        ).toDecimals(fromToken, amount);\n\n        uint256 expectedToTokenDecimal = (\n            fromTokenAmountDecimals.mul(fromTokenUSD)\n        ).div(toTokenUSD);\n        uint256 expectedToToken = IHexUtils(\n            IAPContract(APContract).stringUtils()\n        ).fromDecimals(toToken, expectedToTokenDecimal);\n        uint256 minReturn = expectedToToken - //SLIPPAGE\n            expectedToToken.mul(slippageSwap).div(10000);\n\n        _approveToken(fromToken, exchange, amount);\n        exchangeReturn = IExchange(exchange).swap(\n            fromToken,\n            toToken,\n            amount,\n            minReturn\n        );\n        return exchangeReturn;\n    }\n\n    /// @dev Function to handle tokens other than DAI | USDC | USDT.\n    /// @param otherAssets Address List of tokens.\n    /// @param otherAmounts Amount List of tokens.\n    function handleOtherTokens(\n        address[] memory otherAssets,\n        uint256[] memory otherAmounts\n    )\n        internal\n        returns (\n            uint256,\n            uint256,\n            uint256\n        )\n    {\n        uint256 underlyingTokens;\n        uint256 yVTokens;\n        uint256 crv3Tokens;\n        address yVault = vaults[msg.sender].vaultActiveProtocol;\n        address underlying = IVault(yVault).token();\n        for (uint256 i = 0; i < otherAssets.length; i++) {\n            if (otherAssets[i] == underlying)\n                underlyingTokens += otherAmounts[i];\n            else if (otherAssets[i] == yVault) yVTokens += otherAmounts[i];\n            else if (otherAssets[i] == crv3Token) crv3Tokens += otherAmounts[i];\n            else {\n                crv3Tokens += exchangeToken(\n                    otherAssets[i],\n                    crv3Token,\n                    otherAmounts[i]\n                );\n            }\n        }\n        return (underlyingTokens, crv3Tokens, yVTokens);\n    }\n\n    /// @dev Function to handle strategy deposit function.\n    /// @param data Encoded parameters to be used.\n    function handleDeposit(bytes memory data) internal returns (uint256) {\n        uint256 crv3PoolReturn;\n        uint256 yVaultUnderlyingReturn;\n        uint256 otherYVUnderlyingReturn;\n        uint256 other3CrvReturn;\n        uint256 yVTokens;\n        uint256 _yVToken;\n        address yVault = vaults[msg.sender].vaultActiveProtocol;\n        (\n            address[3] memory crv3Assets,\n            uint256[3] memory crv3Amounts,\n            uint256 min3CrvMint,\n            address[] memory otherAssets,\n            uint256[] memory otherAmounts\n        ) = abi.decode(\n                data,\n                (address[3], uint256[3], uint256, address[], uint256[])\n            );\n        if (min3CrvMint > 0) {\n            crv3PoolReturn = depositToCurve3Pool(\n                crv3Assets,\n                crv3Amounts,\n                min3CrvMint\n            );\n        }\n        if (otherAssets.length > 0) {\n            (\n                otherYVUnderlyingReturn,\n                other3CrvReturn,\n                _yVToken\n            ) = handleOtherTokens(otherAssets, otherAmounts);\n        }\n        if (crv3PoolReturn + other3CrvReturn > 0)\n            yVaultUnderlyingReturn = deposit3CrvToTargetPool(\n                crv3PoolReturn + other3CrvReturn\n            );\n\n        if (yVaultUnderlyingReturn + otherYVUnderlyingReturn > 0)\n            yVTokens = depositToYearnVault(\n                yVault,\n                yVaultUnderlyingReturn + otherYVUnderlyingReturn\n            );\n        return _yVToken + yVTokens;\n    }\n\n    /// @dev Function to deposit into strategy.\n    /// @param _depositAssets Address List of total assets being deposited.\n    /// @param _amounts Amounts List of total assets being deposited.\n    /// @param data Encoded parameters to be used.\n    function deposit(\n        address[] calldata _depositAssets,\n        uint256[] calldata _amounts,\n        bytes calldata data\n    ) external onlyRegisteredVault {\n        require(\n            vaults[msg.sender].vaultActiveProtocol != address(0),\n            \"No active Protocol\"\n        );\n        address yVault = vaults[msg.sender].vaultActiveProtocol;\n        address underlying = IVault(yVault).token();\n        address pool = ICrvRegistry(getRegistry()).get_pool_from_lp_token(\n            underlying\n        );\n        require(pool != address(0), \"pool not present\");\n        for (uint256 i = 0; i < _depositAssets.length; i++) {\n            if (_amounts[i] > 0) {\n                IERC20(_depositAssets[i]).safeTransferFrom(\n                    msg.sender,\n                    address(this),\n                    _amounts[i]\n                );\n            }\n        }\n\n        uint256 yVTokens = handleDeposit(data);\n\n        uint256 _shares;\n        if (balanceOf(msg.sender) == 0) _shares = yVTokens;\n        else _shares = getMintValue(getDepositNAV(yVault, yVTokens));\n\n        if (_shares > 0) _mint(msg.sender, _shares);\n        vaults[msg.sender].protocolBalance[yVault] += yVTokens;\n    }\n\n    /// @dev Function to calculate the strategy tokens to be minted for given nav.\n    /// @param depositNAV NAV for the amount.\n    function getMintValue(uint256 depositNAV) public view returns (uint256) {\n        if (vaults[msg.sender].isRegistered)\n            return\n                (depositNAV.mul(balanceOf(msg.sender))).div(getStrategyNAV());\n        else return (depositNAV.mul(totalSupply())).div(getStrategyNAV());\n    }\n\n    /// @dev Function to calculate the NAV of strategy for a subscribed vault | if the msg.sender is\n    ///not subscribed vault then overall NAV of the strategy is returned.\n    function getStrategyNAV() public view returns (uint256) {\n        uint256 strategyNAV;\n        if (vaults[msg.sender].isRegistered) {\n            address protocol = vaults[msg.sender].vaultActiveProtocol;\n            uint256 protocolBalance = vaults[msg.sender].protocolBalance[\n                protocol\n            ];\n            if (protocolBalance > 0) {\n                uint256 tokenUSD = IAPContract(APContract).getUSDPrice(\n                    protocol\n                );\n                strategyNAV = (\n                    IHexUtils(IAPContract(APContract).stringUtils())\n                        .toDecimals(protocol, protocolBalance)\n                        .mul(tokenUSD)\n                ).div(1e18);\n            }\n            return strategyNAV;\n        } else {\n            for (uint256 i = 0; i < protocolList.length; i++) {\n                if (IERC20(protocolList[i]).balanceOf(address(this)) > 0) {\n                    uint256 tokenUSD = IAPContract(APContract).getUSDPrice(\n                        protocolList[i]\n                    );\n                    uint256 balance = IHexUtils(\n                        IAPContract(APContract).stringUtils()\n                    ).toDecimals(\n                            protocolList[i],\n                            IERC20(protocolList[i]).balanceOf(address(this))\n                        );\n                    strategyNAV += balance.mul(tokenUSD);\n                }\n            }\n            return strategyNAV.div(1e18);\n        }\n    }\n\n    /// @dev Function to calculate the NAV of a given token and amount.\n    /// @param _tokenAddress Address of the deposit token.\n    /// @param _amount Amount of deposit token.\n    function getDepositNAV(address _tokenAddress, uint256 _amount)\n        public\n        view\n        returns (uint256)\n    {\n        uint256 tokenUSD = IAPContract(APContract).getUSDPrice(_tokenAddress);\n        return\n            (\n                IHexUtils(IAPContract(APContract).stringUtils())\n                    .toDecimals(_tokenAddress, _amount)\n                    .mul(tokenUSD)\n            ).div(1e18);\n    }\n\n    /// @dev Function to calculate the token value of strategy for a subscribed Safe, if msg.sender is\n    /// not a subscribed safe then the overall token value is returned.\n    function tokenValueInUSD() public view returns (uint256) {\n        if (getStrategyNAV() == 0 || totalSupply() == 0) return 0;\n        if (vaults[msg.sender].isRegistered)\n            return (getStrategyNAV().mul(1e18)).div(balanceOf(msg.sender));\n        else return (getStrategyNAV().mul(1e18)).div(totalSupply());\n    }\n\n    /// @dev Function to withdraw strategy shares.\n    /// @param _shares amount of strategy shares to withdraw.\n    /// @param _withrawalAsset Address of the prefered withdrawal asset.\n    function withdraw(uint256 _shares, address _withrawalAsset)\n        public\n        onlyRegisteredVault\n        returns (\n            bool,\n            address,\n            uint256\n        )\n    {\n        require(balanceOf(msg.sender) >= _shares, \"Not enough shares\");\n        uint256 strategyTokenValueInUSD = (_shares.mul(getStrategyNAV())).div(\n            balanceOf(msg.sender)\n        );\n        address protocol = vaults[msg.sender].vaultActiveProtocol;\n        address underlying = IVault(protocol).token();\n        uint256 protocolTokenUSD = IAPContract(APContract).getUSDPrice(\n            protocol\n        );\n        uint256 protocolTokenCount = strategyTokenValueInUSD.mul(1e18).div(\n            protocolTokenUSD\n        );\n        uint256 protocolTokensToWithdraw = IHexUtils(\n            IAPContract(APContract).stringUtils()\n        ).fromDecimals(protocol, protocolTokenCount);\n\n        _burn(msg.sender, _shares);\n        vaults[msg.sender].protocolBalance[\n            protocol\n        ] -= protocolTokensToWithdraw;\n\n        if (_withrawalAsset == address(0) || _withrawalAsset == protocol) {\n            IERC20(protocol).safeTransfer(msg.sender, protocolTokensToWithdraw);\n            return (true, protocol, protocolTokensToWithdraw);\n        } else {\n            uint256 underlyingAmount = IVault(protocol).withdraw(\n                protocolTokensToWithdraw\n            );\n            if (_withrawalAsset == underlying) {\n                IERC20(underlying).safeTransfer(msg.sender, underlyingAmount);\n                return (true, underlying, underlyingAmount);\n            } else {\n                uint256 crv3Tokens = withdrawTo3CrvFromPool(\n                    underlying,\n                    underlyingAmount\n                );\n                if (_withrawalAsset == crv3Token) {\n                    IERC20(crv3Token).safeTransfer(msg.sender, crv3Tokens);\n                    return (true, crv3Token, crv3Tokens);\n                }\n                uint256 withdrawalTokens = exchangeToken(\n                    crv3Token,\n                    _withrawalAsset,\n                    crv3Tokens\n                );\n                IERC20(_withrawalAsset).safeTransfer(\n                    msg.sender,\n                    withdrawalTokens\n                );\n                return (true, _withrawalAsset, withdrawalTokens);\n            }\n        }\n    }\n\n    /// @dev Function to remove Liquidity from Curve pool into 3Crv.\n    /// @param lpToken Address of the LP token of the Curve pool.\n    /// @param amount Amount of LP tokens.\n    function withdrawTo3CrvFromPool(address lpToken, uint256 amount)\n        internal\n        returns (uint256)\n    {\n        address pool = ICrvRegistry(getRegistry()).get_pool_from_lp_token(\n            lpToken\n        );\n        uint256 lpTokenUSD = IAPContract(APContract).getUSDPrice(lpToken);\n        uint256 crv3TokenUSD = IAPContract(APContract).getUSDPrice(crv3Token);\n        uint256 lpTokenAmountDecimals = IHexUtils(\n            IAPContract(APContract).stringUtils()\n        ).toDecimals(lpToken, amount);\n\n        uint256 expectedCrv3TokenDecimal = (\n            lpTokenAmountDecimals.mul(lpTokenUSD)\n        ).div(crv3TokenUSD);\n        uint256 expectedCrv3Token = IHexUtils(\n            IAPContract(APContract).stringUtils()\n        ).fromDecimals(crv3Token, expectedCrv3TokenDecimal);\n        uint256 minReturn = expectedCrv3Token - //SLIPPAGE\n            expectedCrv3Token.mul(slippage).div(10000);\n\n        uint256 crv3Return = ICrvPool(pool).remove_liquidity_one_coin(\n            amount,\n            1,\n            minReturn\n        );\n        return crv3Return;\n    }\n\n    /// @dev Function to change the protocol of a subscribed vault.\n    /// @param _protocol Address of the new protocol.\n    function _changeProtocol(address _protocol) private returns (bool) {\n        address currentProtocol = vaults[msg.sender].vaultActiveProtocol;\n        uint256 currentProtocolBalance = vaults[msg.sender].protocolBalance[\n            currentProtocol\n        ];\n        vaults[msg.sender].vaultActiveProtocol = _protocol;\n        vaults[msg.sender].protocolBalance[currentProtocol] = 0;\n        uint256 oldUnderlyingAmount = IVault(currentProtocol).withdraw(\n            currentProtocolBalance\n        );\n        address underlying = IVault(currentProtocol).token();\n        uint256 crv3Tokens = withdrawTo3CrvFromPool(\n            underlying,\n            oldUnderlyingAmount\n        );\n\n        uint256 newUnderlyingAmount = deposit3CrvToTargetPool(crv3Tokens);\n        uint256 newYVaultTokens = depositToYearnVault(\n            _protocol,\n            newUnderlyingAmount\n        );\n        vaults[msg.sender].protocolBalance[_protocol] += newYVaultTokens;\n        return false;\n    }\n\n    /// @dev Function to withdraw all shares from strategy.\n    /// @param _withdrawalAsset Address of the prefered withdrawal asset.\n    function withdrawAllToSafe(address _withdrawalAsset)\n        public\n        onlyRegisteredVault\n        returns (\n            bool,\n            address,\n            uint256\n        )\n    {\n        return withdraw(balanceOf(msg.sender), _withdrawalAsset);\n    }\n\n    /// @dev Function to change the protocol of a subscribed vault.\n    /// @param _protocol Address of the new protocol.\n    function changeProtocol(address _protocol)\n        external\n        onlyRegisteredVault\n        returns (bool)\n    {\n        require(protocols[_protocol], \"protocol not present\");\n        require(\n            IAPContract(APContract)._isStrategyProtocolEnabled(\n                msg.sender,\n                address(this),\n                _protocol\n            ),\n            \"protocol not enabled for vault\"\n        );\n        return _changeProtocol(_protocol);\n    }\n\n    /// @dev Function to use in an Emergency, when a token gets stuck in the strategy.\n    /// @param _tokenAddres Address of the token.\n    function inCaseTokenGetsStuck(address _tokenAddres) public onlyOwner {\n        IERC20(_tokenAddres).safeTransfer(\n            msg.sender,\n            IERC20(_tokenAddres).balanceOf(address(this))\n        );\n    }\n}\n",
  "sourcePath": "/home/dxuser/Documents/scode/yieldster-vault/contracts/strategies/LivaOne/LivaOneCrv.sol",
  "compiler": {
    "name": "solc",
    "version": "0.5.17+commit.d19bba13.Emscripten.clang"
  },
  "schemaVersion": "3.4.4",
  "updatedAt": "2022-02-08T04:41:08.955Z",
  "devdoc": {
    "methods": {
      "addProtocol(address)": {
        "details": "Function to add new yearn protocols to the strategy.",
        "params": {
          "_protocol": "Address of the yearn protocol."
        }
      },
      "allowance(address,address)": {
        "details": "See {IERC20-allowance}."
      },
      "approve(address,uint256)": {
        "details": "See {IERC20-approve}.     * Requirements:     * - `spender` cannot be the zero address."
      },
      "balanceOf(address)": {
        "details": "See {IERC20-balanceOf}."
      },
      "changeProtocol(address)": {
        "details": "Function to change the protocol of a subscribed vault.",
        "params": {
          "_protocol": "Address of the new protocol."
        }
      },
      "deRegisterSafe()": {
        "details": "Function to unsubscribe a vault from the strategy."
      },
      "decimals()": {
        "details": "Returns the number of decimals used to get its user representation. For example, if `decimals` equals `2`, a balance of `505` tokens should be displayed to a user as `5,05` (`505 / 10 ** 2`).     * Tokens usually opt for a value of 18, imitating the relationship between Ether and Wei.     * NOTE: This information is only used for _display_ purposes: it in no way affects any of the arithmetic of the contract, including {IERC20-balanceOf} and {IERC20-transfer}."
      },
      "decreaseAllowance(address,uint256)": {
        "details": "Atomically decreases the allowance granted to `spender` by the caller.     * This is an alternative to {approve} that can be used as a mitigation for problems described in {IERC20-approve}.     * Emits an {Approval} event indicating the updated allowance.     * Requirements:     * - `spender` cannot be the zero address. - `spender` must have allowance for the caller of at least `subtractedValue`."
      },
      "deposit(address[],uint256[],bytes)": {
        "details": "Function to deposit into strategy.",
        "params": {
          "_amounts": "Amounts List of total assets being deposited.",
          "_depositAssets": "Address List of total assets being deposited.",
          "data": "Encoded parameters to be used."
        }
      },
      "getActiveProtocol(address)": {
        "details": "Function to get the protocol active for a subscribed vault.",
        "params": {
          "_vaultAddress": "Address of the vault."
        }
      },
      "getDepositNAV(address,uint256)": {
        "details": "Function to calculate the NAV of a given token and amount.",
        "params": {
          "_amount": "Amount of deposit token.",
          "_tokenAddress": "Address of the deposit token."
        }
      },
      "getMintValue(uint256)": {
        "details": "Function to calculate the strategy tokens to be minted for given nav.",
        "params": {
          "depositNAV": "NAV for the amount."
        }
      },
      "getStrategyNAV()": {
        "details": "Function to calculate the NAV of strategy for a subscribed vault | if the msg.sender is not subscribed vault then overall NAV of the strategy is returned."
      },
      "inCaseTokenGetsStuck(address)": {
        "details": "Function to use in an Emergency, when a token gets stuck in the strategy.",
        "params": {
          "_tokenAddres": "Address of the token."
        }
      },
      "increaseAllowance(address,uint256)": {
        "details": "Atomically increases the allowance granted to `spender` by the caller.     * This is an alternative to {approve} that can be used as a mitigation for problems described in {IERC20-approve}.     * Emits an {Approval} event indicating the updated allowance.     * Requirements:     * - `spender` cannot be the zero address."
      },
      "name()": {
        "details": "Returns the name of the token."
      },
      "registerSafe()": {
        "details": "Function to subscribe a new vault to the strategy."
      },
      "setAPContract(address)": {
        "details": "Function to set the address of the Yieldster APS.",
        "params": {
          "_APContract": "Address of the APS Contract."
        }
      },
      "setActiveProtocol(address)": {
        "details": "Function to initialy set new protocol for a subscribed Vault.",
        "params": {
          "_protocol": "Address of the yearn protocol."
        }
      },
      "setSlippage(uint256)": {
        "details": "Function to set slippage settings when interacting with Curve pools.",
        "params": {
          "_slippage": "Slippage value."
        }
      },
      "setSlippageSwap(uint256)": {
        "details": "Function to set slippage settings when performing exchanges.",
        "params": {
          "_slippageSwap": "Slippage value."
        }
      },
      "symbol()": {
        "details": "Returns the symbol of the token, usually a shorter version of the name."
      },
      "tokenValueInUSD()": {
        "details": "Function to calculate the token value of strategy for a subscribed Safe, if msg.sender is not a subscribed safe then the overall token value is returned."
      },
      "totalSupply()": {
        "details": "See {IERC20-totalSupply}."
      },
      "transfer(address,uint256)": {
        "details": "See {IERC20-transfer}.     * Requirements:     * - `recipient` cannot be the zero address. - the caller must have a balance of at least `amount`."
      },
      "transferFrom(address,address,uint256)": {
        "details": "See {IERC20-transferFrom}.     * Emits an {Approval} event indicating the updated allowance. This is not required by the EIP. See the note at the beginning of {ERC20};     * Requirements: - `sender` and `recipient` cannot be the zero address. - `sender` must have a balance of at least `amount`. - the caller must have allowance for `sender`'s tokens of at least `amount`."
      },
      "withdraw(uint256,address)": {
        "details": "Function to withdraw strategy shares.",
        "params": {
          "_shares": "amount of strategy shares to withdraw.",
          "_withrawalAsset": "Address of the prefered withdrawal asset."
        }
      },
      "withdrawAllToSafe(address)": {
        "details": "Function to withdraw all shares from strategy.",
        "params": {
          "_withdrawalAsset": "Address of the prefered withdrawal asset."
        }
      }
    }
  },
  "userdoc": {
    "methods": {}
  }
}