{
  "contractName": "LockedWithdraw",
  "abi": [
    {
      "anonymous": false,
      "inputs": [
        {
          "indexed": true,
          "internalType": "address",
          "name": "owner",
          "type": "address"
        },
        {
          "indexed": true,
          "internalType": "address",
          "name": "spender",
          "type": "address"
        },
        {
          "indexed": false,
          "internalType": "uint256",
          "name": "value",
          "type": "uint256"
        }
      ],
      "name": "Approval",
      "type": "event"
    },
    {
      "anonymous": false,
      "inputs": [
        {
          "indexed": false,
          "internalType": "address",
          "name": "masterCopy",
          "type": "address"
        }
      ],
      "name": "ChangedMasterCopy",
      "type": "event"
    },
    {
      "anonymous": false,
      "inputs": [
        {
          "indexed": true,
          "internalType": "address",
          "name": "from",
          "type": "address"
        },
        {
          "indexed": true,
          "internalType": "address",
          "name": "to",
          "type": "address"
        },
        {
          "indexed": false,
          "internalType": "uint256",
          "name": "value",
          "type": "uint256"
        }
      ],
      "name": "Transfer",
      "type": "event"
    },
    {
      "constant": true,
      "inputs": [],
      "name": "APContract",
      "outputs": [
        {
          "internalType": "address",
          "name": "",
          "type": "address"
        }
      ],
      "payable": false,
      "stateMutability": "view",
      "type": "function"
    },
    {
      "constant": true,
      "inputs": [
        {
          "internalType": "address",
          "name": "owner",
          "type": "address"
        },
        {
          "internalType": "address",
          "name": "spender",
          "type": "address"
        }
      ],
      "name": "allowance",
      "outputs": [
        {
          "internalType": "uint256",
          "name": "",
          "type": "uint256"
        }
      ],
      "payable": false,
      "stateMutability": "view",
      "type": "function"
    },
    {
      "constant": false,
      "inputs": [
        {
          "internalType": "address",
          "name": "spender",
          "type": "address"
        },
        {
          "internalType": "uint256",
          "name": "amount",
          "type": "uint256"
        }
      ],
      "name": "approve",
      "outputs": [
        {
          "internalType": "bool",
          "name": "",
          "type": "bool"
        }
      ],
      "payable": false,
      "stateMutability": "nonpayable",
      "type": "function"
    },
    {
      "constant": true,
      "inputs": [
        {
          "internalType": "address",
          "name": "account",
          "type": "address"
        }
      ],
      "name": "balanceOf",
      "outputs": [
        {
          "internalType": "uint256",
          "name": "",
          "type": "uint256"
        }
      ],
      "payable": false,
      "stateMutability": "view",
      "type": "function"
    },
    {
      "constant": false,
      "inputs": [
        {
          "internalType": "address",
          "name": "_masterCopy",
          "type": "address"
        }
      ],
      "name": "changeMasterCopy",
      "outputs": [],
      "payable": false,
      "stateMutability": "nonpayable",
      "type": "function"
    },
    {
      "constant": true,
      "inputs": [],
      "name": "decimals",
      "outputs": [
        {
          "internalType": "uint8",
          "name": "",
          "type": "uint8"
        }
      ],
      "payable": false,
      "stateMutability": "view",
      "type": "function"
    },
    {
      "constant": false,
      "inputs": [
        {
          "internalType": "address",
          "name": "spender",
          "type": "address"
        },
        {
          "internalType": "uint256",
          "name": "subtractedValue",
          "type": "uint256"
        }
      ],
      "name": "decreaseAllowance",
      "outputs": [
        {
          "internalType": "bool",
          "name": "",
          "type": "bool"
        }
      ],
      "payable": false,
      "stateMutability": "nonpayable",
      "type": "function"
    },
    {
      "constant": true,
      "inputs": [],
      "name": "emergencyConditions",
      "outputs": [
        {
          "internalType": "uint8",
          "name": "",
          "type": "uint8"
        }
      ],
      "payable": false,
      "stateMutability": "view",
      "type": "function"
    },
    {
      "constant": true,
      "inputs": [
        {
          "internalType": "address",
          "name": "_tokenAddress",
          "type": "address"
        }
      ],
      "name": "getTokenBalance",
      "outputs": [
        {
          "internalType": "uint256",
          "name": "",
          "type": "uint256"
        }
      ],
      "payable": false,
      "stateMutability": "view",
      "type": "function"
    },
    {
      "constant": true,
      "inputs": [],
      "name": "getVaultActiveStrategy",
      "outputs": [
        {
          "internalType": "address[]",
          "name": "",
          "type": "address[]"
        }
      ],
      "payable": false,
      "stateMutability": "view",
      "type": "function"
    },
    {
      "constant": true,
      "inputs": [],
      "name": "getVaultNAV",
      "outputs": [
        {
          "internalType": "uint256",
          "name": "",
          "type": "uint256"
        }
      ],
      "payable": false,
      "stateMutability": "view",
      "type": "function"
    },
    {
      "constant": true,
      "inputs": [],
      "name": "getVaultNAVWithoutStrategyToken",
      "outputs": [
        {
          "internalType": "uint256",
          "name": "",
          "type": "uint256"
        }
      ],
      "payable": false,
      "stateMutability": "view",
      "type": "function"
    },
    {
      "constant": false,
      "inputs": [
        {
          "internalType": "address",
          "name": "spender",
          "type": "address"
        },
        {
          "internalType": "uint256",
          "name": "addedValue",
          "type": "uint256"
        }
      ],
      "name": "increaseAllowance",
      "outputs": [
        {
          "internalType": "bool",
          "name": "",
          "type": "bool"
        }
      ],
      "payable": false,
      "stateMutability": "nonpayable",
      "type": "function"
    },
    {
      "constant": true,
      "inputs": [],
      "name": "name",
      "outputs": [
        {
          "internalType": "string",
          "name": "",
          "type": "string"
        }
      ],
      "payable": false,
      "stateMutability": "view",
      "type": "function"
    },
    {
      "constant": false,
      "inputs": [
        {
          "internalType": "address",
          "name": "operator",
          "type": "address"
        },
        {
          "internalType": "address",
          "name": "from",
          "type": "address"
        },
        {
          "internalType": "uint256[]",
          "name": "ids",
          "type": "uint256[]"
        },
        {
          "internalType": "uint256[]",
          "name": "values",
          "type": "uint256[]"
        },
        {
          "internalType": "bytes",
          "name": "data",
          "type": "bytes"
        }
      ],
      "name": "onERC1155BatchReceived",
      "outputs": [
        {
          "internalType": "bytes4",
          "name": "",
          "type": "bytes4"
        }
      ],
      "payable": false,
      "stateMutability": "nonpayable",
      "type": "function"
    },
    {
      "constant": false,
      "inputs": [
        {
          "internalType": "address",
          "name": "operator",
          "type": "address"
        },
        {
          "internalType": "address",
          "name": "from",
          "type": "address"
        },
        {
          "internalType": "uint256",
          "name": "id",
          "type": "uint256"
        },
        {
          "internalType": "uint256",
          "name": "value",
          "type": "uint256"
        },
        {
          "internalType": "bytes",
          "name": "data",
          "type": "bytes"
        }
      ],
      "name": "onERC1155Received",
      "outputs": [
        {
          "internalType": "bytes4",
          "name": "",
          "type": "bytes4"
        }
      ],
      "payable": false,
      "stateMutability": "nonpayable",
      "type": "function"
    },
    {
      "constant": true,
      "inputs": [],
      "name": "owner",
      "outputs": [
        {
          "internalType": "address",
          "name": "",
          "type": "address"
        }
      ],
      "payable": false,
      "stateMutability": "view",
      "type": "function"
    },
    {
      "constant": true,
      "inputs": [
        {
          "internalType": "bytes4",
          "name": "interfaceId",
          "type": "bytes4"
        }
      ],
      "name": "supportsInterface",
      "outputs": [
        {
          "internalType": "bool",
          "name": "",
          "type": "bool"
        }
      ],
      "payable": false,
      "stateMutability": "view",
      "type": "function"
    },
    {
      "constant": true,
      "inputs": [],
      "name": "symbol",
      "outputs": [
        {
          "internalType": "string",
          "name": "",
          "type": "string"
        }
      ],
      "payable": false,
      "stateMutability": "view",
      "type": "function"
    },
    {
      "constant": true,
      "inputs": [],
      "name": "tokenValueInUSD",
      "outputs": [
        {
          "internalType": "uint256",
          "name": "",
          "type": "uint256"
        }
      ],
      "payable": false,
      "stateMutability": "view",
      "type": "function"
    },
    {
      "constant": true,
      "inputs": [],
      "name": "totalSupply",
      "outputs": [
        {
          "internalType": "uint256",
          "name": "",
          "type": "uint256"
        }
      ],
      "payable": false,
      "stateMutability": "view",
      "type": "function"
    },
    {
      "constant": false,
      "inputs": [
        {
          "internalType": "address",
          "name": "recipient",
          "type": "address"
        },
        {
          "internalType": "uint256",
          "name": "amount",
          "type": "uint256"
        }
      ],
      "name": "transfer",
      "outputs": [
        {
          "internalType": "bool",
          "name": "",
          "type": "bool"
        }
      ],
      "payable": false,
      "stateMutability": "nonpayable",
      "type": "function"
    },
    {
      "constant": false,
      "inputs": [
        {
          "internalType": "address",
          "name": "sender",
          "type": "address"
        },
        {
          "internalType": "address",
          "name": "recipient",
          "type": "address"
        },
        {
          "internalType": "uint256",
          "name": "amount",
          "type": "uint256"
        }
      ],
      "name": "transferFrom",
      "outputs": [
        {
          "internalType": "bool",
          "name": "",
          "type": "bool"
        }
      ],
      "payable": false,
      "stateMutability": "nonpayable",
      "type": "function"
    },
    {
      "constant": true,
      "inputs": [],
      "name": "vaultAPSManager",
      "outputs": [
        {
          "internalType": "address",
          "name": "",
          "type": "address"
        }
      ],
      "payable": false,
      "stateMutability": "view",
      "type": "function"
    },
    {
      "constant": true,
      "inputs": [],
      "name": "vaultStrategyManager",
      "outputs": [
        {
          "internalType": "address",
          "name": "",
          "type": "address"
        }
      ],
      "payable": false,
      "stateMutability": "view",
      "type": "function"
    },
    {
      "constant": false,
      "inputs": [
        {
          "internalType": "uint256",
          "name": "_shares",
          "type": "uint256"
        }
      ],
      "name": "withdraw",
      "outputs": [],
      "payable": false,
      "stateMutability": "nonpayable",
      "type": "function"
    },
    {
      "constant": false,
      "inputs": [
        {
          "internalType": "address",
          "name": "_tokenAddress",
          "type": "address"
        },
        {
          "internalType": "uint256",
          "name": "_shares",
          "type": "uint256"
        }
      ],
      "name": "withdraw",
      "outputs": [],
      "payable": false,
      "stateMutability": "nonpayable",
      "type": "function"
    },
    {
      "constant": false,
      "inputs": [
        {
          "internalType": "address[]",
          "name": "_strategies",
          "type": "address[]"
        },
        {
          "internalType": "address[]",
          "name": "_withdrawalAssets",
          "type": "address[]"
        },
        {
          "internalType": "uint256[]",
          "name": "_shares",
          "type": "uint256[]"
        }
      ],
      "name": "withdrawalCleanUp",
      "outputs": [],
      "payable": false,
      "stateMutability": "nonpayable",
      "type": "function"
    },
    {
      "constant": false,
      "inputs": [
        {
          "internalType": "address",
          "name": "_tokenAddress",
          "type": "address"
        },
        {
          "internalType": "uint256",
          "name": "_shares",
          "type": "uint256"
        },
        {
          "internalType": "address",
          "name": "_recipient",
          "type": "address"
        }
      ],
      "name": "withdrawInToken",
      "outputs": [],
      "payable": false,
      "stateMutability": "nonpayable",
      "type": "function"
    },
    {
      "constant": false,
      "inputs": [
        {
          "internalType": "uint256",
          "name": "_shares",
          "type": "uint256"
        },
        {
          "internalType": "address",
          "name": "_recipient",
          "type": "address"
        }
      ],
      "name": "withdrawInShares",
      "outputs": [],
      "payable": false,
      "stateMutability": "nonpayable",
      "type": "function"
    }
  ],
  "bytecode": "0x6080604052620000387f01ffc9a7000000000000000000000000000000000000000000000000000000006001600160e01b036200007216565b6200006c7f4e2312e0000000000000000000000000000000000000000000000000000000006001600160e01b036200007216565b62000141565b7fffffffff0000000000000000000000000000000000000000000000000000000080821614156200010457604080517f08c379a000000000000000000000000000000000000000000000000000000000815260206004820152601c60248201527f4552433136353a20696e76616c696420696e7465726661636520696400000000604482015290519081900360640190fd5b7fffffffff00000000000000000000000000000000000000000000000000000000166000908152600760205260409020805460ff19166001179055565b6135ca80620001516000396000f3fe608060405234801561001057600080fd5b50600436106101da5760003560e01c80635969326b11610104578063a7101715116100a2578063bc197c8111610071578063bc197c8114610709578063dd62ed3e1461084d578063f23a6e611461087b578063f3fef3a31461090e576101da565b8063a7101715146104d8578063a9059cbb1461067d578063ac221b5c146106a9578063b28aaf7d14610701576101da565b80638da5cb5b116100de5780638da5cb5b1461047057806395d89b41146104785780639e821d6014610480578063a457c2d7146104ac576101da565b80635969326b1461041c57806370a08231146104245780637de7edef1461044a576101da565b80632c9a41051161017c57806336f688bd1161014b57806336f688bd1461038c57806339509351146103c25780633aecd0e3146103ee5780633f51431514610414576101da565b80632c9a4105146103555780632e1a7d4d1461035d578063313ce5671461037c5780633384602714610384576101da565b80630c6a957f116101b85780630c6a957f146102c357806318160ddd146102e157806323b872dd146102fb5780632b27ef6614610331576101da565b806301ffc9a7146101df57806306fdde031461021a578063095ea7b314610297575b600080fd5b610206600480360360208110156101f557600080fd5b50356001600160e01b03191661093a565b604080519115158252519081900360200190f35b610222610959565b6040805160208082528351818301528351919283929083019185019080838360005b8381101561025c578181015183820152602001610244565b50505050905090810190601f1680156102895780820380516001836020036101000a031916815260200191505b509250505060405180910390f35b610206600480360360408110156102ad57600080fd5b506001600160a01b0381351690602001356109f0565b6102cb610a0e565b6040805160ff9092168252519081900360200190f35b6102e9610a17565b60408051918252519081900360200190f35b6102066004803603606081101561031157600080fd5b506001600160a01b03813581169160208101359091169060400135610a1d565b610339610aaa565b604080516001600160a01b039092168252519081900360200190f35b6102e9610ab9565b61037a6004803603602081101561037357600080fd5b5035610fe4565b005b6102cb611060565b610339611069565b61037a600480360360608110156103a257600080fd5b506001600160a01b0381358116916020810135916040909101351661107f565b610206600480360360408110156103d857600080fd5b506001600160a01b0381351690602001356112f3565b6102e96004803603602081101561040457600080fd5b50356001600160a01b0316611347565b6103396113ca565b6102e96113d9565b6102e96004803603602081101561043a57600080fd5b50356001600160a01b0316611427565b61037a6004803603602081101561046057600080fd5b50356001600160a01b0316611442565b610339611519565b610222611528565b61037a6004803603604081101561049657600080fd5b50803590602001356001600160a01b0316611589565b610206600480360360408110156104c257600080fd5b506001600160a01b038135169060200135611b52565b61037a600480360360608110156104ee57600080fd5b810190602081018135600160201b81111561050857600080fd5b82018360208201111561051a57600080fd5b803590602001918460208302840111600160201b8311171561053b57600080fd5b9190808060200260200160405190810160405280939291908181526020018383602002808284376000920191909152509295949360208101935035915050600160201b81111561058a57600080fd5b82018360208201111561059c57600080fd5b803590602001918460208302840111600160201b831117156105bd57600080fd5b9190808060200260200160405190810160405280939291908181526020018383602002808284376000920191909152509295949360208101935035915050600160201b81111561060c57600080fd5b82018360208201111561061e57600080fd5b803590602001918460208302840111600160201b8311171561063f57600080fd5b919080806020026020016040519081016040528093929190818152602001838360200280828437600092019190915250929550611bc0945050505050565b6102066004803603604081101561069357600080fd5b506001600160a01b03813516906020013561205e565b6106b1612072565b60408051602080825283518183015283519192839290830191858101910280838360005b838110156106ed5781810151838201526020016106d5565b505050509050019250505060405180910390f35b6102e9612190565b610830600480360360a081101561071f57600080fd5b6001600160a01b038235811692602081013590911691810190606081016040820135600160201b81111561075257600080fd5b82018360208201111561076457600080fd5b803590602001918460208302840111600160201b8311171561078557600080fd5b919390929091602081019035600160201b8111156107a257600080fd5b8201836020820111156107b457600080fd5b803590602001918460208302840111600160201b831117156107d557600080fd5b919390929091602081019035600160201b8111156107f257600080fd5b82018360208201111561080457600080fd5b803590602001918460018302840111600160201b8311171561082557600080fd5b509092509050612367565b604080516001600160e01b03199092168252519081900360200190f35b6102e96004803603604081101561086357600080fd5b506001600160a01b0381358116916020013516612375565b610830600480360360a081101561089157600080fd5b6001600160a01b03823581169260208101359091169160408201359160608101359181019060a081016080820135600160201b8111156108d057600080fd5b8201836020820111156108e257600080fd5b803590602001918460018302840111600160201b8311171561090357600080fd5b5090925090506123a0565b61037a6004803603604081101561092457600080fd5b506001600160a01b0381351690602001356123ac565b6001600160e01b03191660009081526007602052604090205460ff1690565b60048054604080516020601f60026000196101006001881615020190951694909404938401819004810282018101909252828152606093909290918301828280156109e55780601f106109ba576101008083540402835291602001916109e5565b820191906000526020600020905b8154815290600101906020018083116109c857829003601f168201915b505050505090505b90565b6000610a046109fd61243d565b8484612441565b5060015b92915050565b60085460ff1681565b60035490565b6000610a2a84848461252d565b610aa084610a3661243d565b610a9b85604051806060016040528060288152602001613489602891396001600160a01b038a16600090815260026020526040812090610a7461243d565b6001600160a01b03168152602081019190915260400160002054919063ffffffff61268b16565b612441565b5060019392505050565b600b546001600160a01b031681565b60006060610ac5612072565b90506000805b600d54811015610dfe57600f54600d80546000926001600160a01b031691633aecd0e39185908110610af957fe5b60009182526020918290200154604080516001600160e01b031960e086901b1681526001600160a01b0390921660048301525160248083019392829003018186803b158015610b4757600080fd5b505afa158015610b5b573d6000803e3d6000fd5b505050506040513d6020811015610b7157600080fd5b50511115610df657600854600d8054600092630100000090046001600160a01b031691638b2f0f4f9185908110610ba457fe5b60009182526020918290200154604080516001600160e01b031960e086901b1681526001600160a01b0390921660048301525160248083019392829003018186803b158015610bf257600080fd5b505afa158015610c06573d6000803e3d6000fd5b505050506040513d6020811015610c1c57600080fd5b505160085460408051630b4e5fdd60e31b81529051929350610df0928492630100000090046001600160a01b031691635a72fee8916004808301926020929190829003018186803b158015610c7057600080fd5b505afa158015610c84573d6000803e3d6000fd5b505050506040513d6020811015610c9a57600080fd5b5051600d80546001600160a01b039092169163b2809e18919087908110610cbd57fe5b600091825260209091200154600f54600d80546001600160a01b039384169390921691633aecd0e391908a908110610cf157fe5b60009182526020918290200154604080516001600160e01b031960e086901b1681526001600160a01b0390921660048301525160248083019392829003018186803b158015610d3f57600080fd5b505afa158015610d53573d6000803e3d6000fd5b505050506040513d6020811015610d6957600080fd5b5051604080516001600160e01b031960e086901b1681526001600160a01b0390931660048401526024830191909152516044808301926020929190829003018186803b158015610db857600080fd5b505afa158015610dcc573d6000803e3d6000fd5b505050506040513d6020811015610de257600080fd5b50519063ffffffff61272216565b83019250505b600101610acb565b508151610e2657610e1d81670de0b6b3a764000063ffffffff61278216565b925050506109ed565b60005b8251811015610fcb576000838281518110610e4057fe5b60200260200101516001600160a01b03166370a08231306040518263ffffffff1660e01b815260040180826001600160a01b03166001600160a01b0316815260200191505060206040518083038186803b158015610e9d57600080fd5b505afa158015610eb1573d6000803e3d6000fd5b505050506040513d6020811015610ec757600080fd5b50511115610fc3576000838281518110610edd57fe5b60200260200101516001600160a01b0316635969326b6040518163ffffffff1660e01b815260040160206040518083038186803b158015610f1d57600080fd5b505afa158015610f31573d6000803e3d6000fd5b505050506040513d6020811015610f4757600080fd5b50518451909150610fbd908290869085908110610f6057fe5b60200260200101516001600160a01b03166370a08231306040518263ffffffff1660e01b815260040180826001600160a01b03166001600160a01b0316815260200191505060206040518083038186803b158015610db857600080fd5b83019250505b600101610e29565b50610e1d81670de0b6b3a764000063ffffffff61278216565b6040805163837b528160e01b815233600482015260006024820181905260448201849052915173f8f1531383c56e7a5184e368714d58604a71329192839263837b5281926064808301939282900301818387803b15801561104457600080fd5b505af1158015611058573d6000803e3d6000fd5b505050505050565b60065460ff1690565b600854630100000090046001600160a01b031681565b611088836127c4565b60085460408051638b2f0f4f60e01b81526001600160a01b03868116600483015291516000936301000000900490921691638b2f0f4f91602480820192602092909190829003018186803b1580156110df57600080fd5b505afa1580156110f3573d6000803e3d6000fd5b505050506040513d602081101561110957600080fd5b50519050600061115a82611142670de0b6b3a764000061114e61112a610a17565b611142611135610ab9565b8b9063ffffffff61272216565b9063ffffffff61278216565b9063ffffffff61272216565b90506000600860039054906101000a90046001600160a01b03166001600160a01b0316635a72fee86040518163ffffffff1660e01b815260040160206040518083038186803b1580156111ac57600080fd5b505afa1580156111c0573d6000803e3d6000fd5b505050506040513d60208110156111d657600080fd5b50516040805163566ab92760e01b81526001600160a01b038981166004830152602482018690529151919092169163566ab927916044808301926020929190829003018186803b15801561122957600080fd5b505afa15801561123d573d6000803e3d6000fd5b505050506040513d602081101561125357600080fd5b5051600f5460408051633aecd0e360e01b81526001600160a01b038a811660048301529151939450911691633aecd0e391602480820192602092909190829003018186803b1580156112a457600080fd5b505afa1580156112b8573d6000803e3d6000fd5b505050506040513d60208110156112ce57600080fd5b505181116112e8576112e3868287848861284d565b611058565b611058868686612936565b6000610a0461130061243d565b84610a9b856002600061131161243d565b6001600160a01b03908116825260208083019390935260409182016000908120918c16815292529020549063ffffffff612c1516565b600f5460408051633aecd0e360e01b81526001600160a01b03848116600483015291516000939290921691633aecd0e391602480820192602092909190829003018186803b15801561139857600080fd5b505afa1580156113ac573d6000803e3d6000fd5b505050506040513d60208110156113c257600080fd5b505192915050565b600a546001600160a01b031681565b60006113e3610ab9565b15806113f457506113f2610a17565b155b15611401575060006109ed565b61142061140c610a17565b611142670de0b6b3a764000061114e610ab9565b90506109ed565b6001600160a01b031660009081526001602052604090205490565b3330146114805760405162461bcd60e51b815260040180806020018281038252602c8152602001806134f7602c913960400191505060405180910390fd5b6001600160a01b0381166114c55760405162461bcd60e51b81526004018080602001828103825260248152602001806133da6024913960400191505060405180910390fd5b600080546001600160a01b0383166001600160a01b0319909116811790915560408051918252517f75e41bc35ff1bf14d81d1d2f649c0084a0f974f9289c803ec9898eeec4c8d0b89181900360200190a150565b6009546001600160a01b031681565b60058054604080516020601f60026000196101006001881615020190951694909404938401819004810282018101909252828152606093909290918301828280156109e55780601f106109ba576101008083540402835291602001916109e5565b6000611593610a17565b905061159f8284612c6f565b6008546040805163387971a160e11b81523060048201529051606092630100000090046001600160a01b0316916370f2e342916024808301926000929190829003018186803b1580156115f157600080fd5b505afa158015611605573d6000803e3d6000fd5b505050506040513d6000823e601f3d908101601f19168201604052602081101561162e57600080fd5b8101908080516040519392919084600160201b82111561164d57600080fd5b90830190602082018581111561166257600080fd5b82518660208202830111600160201b8211171561167e57600080fd5b82525081516020918201928201910280838360005b838110156116ab578181015183820152602001611693565b50505050905001604052505050905060008090505b81518110156118585760008282815181106116d757fe5b60200260200101516001600160a01b03166370a08231306040518263ffffffff1660e01b815260040180826001600160a01b03166001600160a01b0316815260200191505060206040518083038186803b15801561173457600080fd5b505afa158015611748573d6000803e3d6000fd5b505050506040513d602081101561175e57600080fd5b50519050801561184f57600061177e85611142898563ffffffff61272216565b905060008085858151811061178f57fe5b60200260200101516001600160a01b031662f714ce8460006040518363ffffffff1660e01b815260040180838152602001826001600160a01b03166001600160a01b0316815260200192505050606060405180830381600087803b1580156117f657600080fd5b505af115801561180a573d6000803e3d6000fd5b505050506040513d606081101561182057600080fd5b506020810151604090910151909250905061184b6001600160a01b038316898363ffffffff612d6b16565b5050505b506001016116c0565b5060005b600d54811015611b4b576000600d828154811061187557fe5b6000918252602082200154600f54600d80546001600160a01b0393841695509190921691633aecd0e391869081106118a957fe5b60009182526020918290200154604080516001600160e01b031960e086901b1681526001600160a01b0390921660048301525160248083019392829003018186803b1580156118f757600080fd5b505afa15801561190b573d6000803e3d6000fd5b505050506040513d602081101561192157600080fd5b50511115611b4257600f54600d80546000926119de928892611142926001600160a01b031691633aecd0e3918990811061195757fe5b60009182526020918290200154604080516001600160e01b031960e086901b1681526001600160a01b0390921660048301525160248083019392829003018186803b1580156119a557600080fd5b505afa1580156119b9573d6000803e3d6000fd5b505050506040513d60208110156119cf57600080fd5b50518a9063ffffffff61272216565b600f54600d80549293506001600160a01b0390911691634ceb1f13919086908110611a0557fe5b600091825260209091200154600f54600d80546001600160a01b0393841693611ac4938893911691633aecd0e391908b908110611a3e57fe5b60009182526020918290200154604080516001600160e01b031960e086901b1681526001600160a01b0390921660048301525160248083019392829003018186803b158015611a8c57600080fd5b505afa158015611aa0573d6000803e3d6000fd5b505050506040513d6020811015611ab657600080fd5b50519063ffffffff612dc216565b6040518363ffffffff1660e01b815260040180836001600160a01b03166001600160a01b0316815260200182815260200192505050600060405180830381600087803b158015611b1357600080fd5b505af1158015611b27573d6000803e3d6000fd5b50611b40925050506001600160a01b0383168783612d6b565b505b5060010161185c565b5050505050565b6000610a04611b5f61243d565b84610a9b856040518060600160405280602581526020016135716025913960026000611b8961243d565b6001600160a01b03908116825260208083019390935260409182016000908120918d1681529252902054919063ffffffff61268b16565b60005b8351811015611cc157600080858381518110611bdb57fe5b60200260200101516001600160a01b031662f714ce858581518110611bfc57fe5b6020026020010151878681518110611c1057fe5b60200260200101516040518363ffffffff1660e01b815260040180838152602001826001600160a01b03166001600160a01b0316815260200192505050606060405180830381600087803b158015611c6757600080fd5b505af1158015611c7b573d6000803e3d6000fd5b505050506040513d6060811015611c9157600080fd5b5060208101516040909101519092509050611cab826127c4565b611cb782826001612e04565b5050600101611bc3565b50604080516332ce31ed60e21b8152306004820152905173f8f1531383c56e7a5184e368714d58604a7132919160609182918291859163cb38c7b4916024808301926000929190829003018186803b158015611d1c57600080fd5b505afa158015611d30573d6000803e3d6000fd5b505050506040513d6000823e601f3d908101601f191682016040526060811015611d5957600080fd5b8101908080516040519392919084600160201b821115611d7857600080fd5b908301906020820185811115611d8d57600080fd5b82518660208202830111600160201b82111715611da957600080fd5b82525081516020918201928201910280838360005b83811015611dd6578181015183820152602001611dbe565b5050505090500160405260200180516040519392919084600160201b821115611dfe57600080fd5b908301906020820185811115611e1357600080fd5b82518660208202830111600160201b82111715611e2f57600080fd5b82525081516020918201928201910280838360005b83811015611e5c578181015183820152602001611e44565b5050505090500160405260200180516040519392919084600160201b821115611e8457600080fd5b908301906020820185811115611e9957600080fd5b82518660208202830111600160201b82111715611eb557600080fd5b82525081516020918201928201910280838360005b83811015611ee2578181015183820152602001611eca565b5050505090500160405250505092509250925060008090505b83518110156120015760006001600160a01b0316848281518110611f1b57fe5b60200260200101516001600160a01b031614158015611f4d57506000828281518110611f4357fe5b6020026020010151115b15611ff95760006001600160a01b0316838281518110611f6957fe5b60200260200101516001600160a01b03161415611fb557611fb0828281518110611f8f57fe5b6020026020010151858381518110611fa357fe5b6020026020010151611589565b611ff9565b611ff9838281518110611fc457fe5b6020026020010151838381518110611fd857fe5b6020026020010151868481518110611fec57fe5b602002602001015161107f565b600101611efb565b50836001600160a01b03166338439f226040518163ffffffff1660e01b8152600401600060405180830381600087803b15801561203d57600080fd5b505af1158015612051573d6000803e3d6000fd5b5050505050505050505050565b6000610a0461206b61243d565b848461252d565b6008546040805163387971a160e11b81523060048201529051606092630100000090046001600160a01b0316916370f2e342916024808301926000929190829003018186803b1580156120c457600080fd5b505afa1580156120d8573d6000803e3d6000fd5b505050506040513d6000823e601f3d908101601f19168201604052602081101561210157600080fd5b8101908080516040519392919084600160201b82111561212057600080fd5b90830190602082018581111561213557600080fd5b82518660208202830111600160201b8211171561215157600080fd5b82525081516020918201928201910280838360005b8381101561217e578181015183820152602001612166565b50505050905001604052505050905090565b600080805b600d5481101561234857600f54600d80546000926001600160a01b031691633aecd0e391859081106121c357fe5b60009182526020918290200154604080516001600160e01b031960e086901b1681526001600160a01b0390921660048301525160248083019392829003018186803b15801561221157600080fd5b505afa158015612225573d6000803e3d6000fd5b505050506040513d602081101561223b57600080fd5b5051111561234057600854600d8054600092630100000090046001600160a01b031691638b2f0f4f918590811061226e57fe5b60009182526020918290200154604080516001600160e01b031960e086901b1681526001600160a01b0390921660048301525160248083019392829003018186803b1580156122bc57600080fd5b505afa1580156122d0573d6000803e3d6000fd5b505050506040513d60208110156122e657600080fd5b505160085460408051630b4e5fdd60e31b8152905192935061233a928492630100000090046001600160a01b031691635a72fee8916004808301926020929190829003018186803b158015610c7057600080fd5b83019250505b600101612195565b5061236181670de0b6b3a764000063ffffffff61278216565b91505090565b600098975050505050505050565b6001600160a01b03918216600090815260026020908152604080832093909416825291909152205490565b60009695505050505050565b6123b5826127c4565b6040805163837b528160e01b81523360048201526001600160a01b038416602482015260448101839052905173f8f1531383c56e7a5184e368714d58604a71329191829163837b52819160648082019260009290919082900301818387803b15801561242057600080fd5b505af1158015612434573d6000803e3d6000fd5b50505050505050565b3390565b6001600160a01b0383166124865760405162461bcd60e51b81526004018080602001828103825260248152602001806135236024913960400191505060405180910390fd5b6001600160a01b0382166124cb5760405162461bcd60e51b81526004018080602001828103825260228152602001806134206022913960400191505060405180910390fd5b6001600160a01b03808416600081815260026020908152604080832094871680845294825291829020859055815185815291517f8c5be1e5ebec7d5bd14f71427d1e84f3dd0314c0f7b2291e5b200ac8c7c3b9259281900390910190a3505050565b6001600160a01b0383166125725760405162461bcd60e51b81526004018080602001828103825260258152602001806134d26025913960400191505060405180910390fd5b6001600160a01b0382166125b75760405162461bcd60e51b81526004018080602001828103825260238152602001806133b76023913960400191505060405180910390fd5b6125fa81604051806060016040528060268152602001613442602691396001600160a01b038616600090815260016020526040902054919063ffffffff61268b16565b6001600160a01b03808516600090815260016020526040808220939093559084168152205461262f908263ffffffff612c1516565b6001600160a01b0380841660008181526001602090815260409182902094909455805185815290519193928716927fddf252ad1be2c89b69c2b068fc378daa952ba7f163c4a11628f55a4df523b3ef92918290030190a3505050565b6000818484111561271a5760405162461bcd60e51b81526004018080602001828103825283818151815260200191508051906020019080838360005b838110156126df5781810151838201526020016126c7565b50505050905090810190601f16801561270c5780820380516001836020036101000a031916815260200191505b509250505060405180910390fd5b505050900390565b60008261273157506000610a08565b8282028284828161273e57fe5b041461277b5760405162461bcd60e51b81526004018080602001828103825260218152602001806134686021913960400191505060405180910390fd5b9392505050565b600061277b83836040518060400160405280601a81526020017f536166654d6174683a206469766973696f6e206279207a65726f000000000000815250612fb9565b6001600160a01b0381166000908152600e602052604090205460ff1661284a576001600160a01b0381166000818152600e60205260408120805460ff19166001908117909155600d805491820181559091527fd7b6990105719101dabeb77144f2a3385c8033acd3af97e9423a695e81ad1eb50180546001600160a01b03191690911790555b50565b600f5460408051633aecd0e360e01b81526001600160a01b03888116600483015291519190921691634ceb1f139188916128ab9189918691633aecd0e391602480820192602092909190829003018186803b158015611a8c57600080fd5b6040518363ffffffff1660e01b815260040180836001600160a01b03166001600160a01b0316815260200182815260200192505050600060405180830381600087803b1580156128fa57600080fd5b505af115801561290e573d6000803e3d6000fd5b5050505061291c8184612c6f565b611b4b6001600160a01b038616828463ffffffff612d6b16565b60085460408051638b2f0f4f60e01b81526001600160a01b03868116600483015291516000936301000000900490921691638b2f0f4f91602480820192602092909190829003018186803b15801561298d57600080fd5b505afa1580156129a1573d6000803e3d6000fd5b505050506040513d60208110156129b757600080fd5b5051905060006129d882611142670de0b6b3a764000061114e61112a610a17565b600f5460408051633aecd0e360e01b81526001600160a01b03898116600483015291519394506000939190921691633aecd0e3916024808301926020929190829003018186803b158015612a2b57600080fd5b505afa158015612a3f573d6000803e3d6000fd5b505050506040513d6020811015612a5557600080fd5b505160085460408051630b4e5fdd60e31b8152905192935060009263010000009092046001600160a01b031691635a72fee891600480820192602092909190829003018186803b158015612aa857600080fd5b505afa158015612abc573d6000803e3d6000fd5b505050506040513d6020811015612ad257600080fd5b5051600f5460408051633aecd0e360e01b81526001600160a01b038b8116600483015291519382169363b2809e18938c931691633aecd0e3916024808301926020929190829003018186803b158015612b2a57600080fd5b505afa158015612b3e573d6000803e3d6000fd5b505050506040513d6020811015612b5457600080fd5b5051604080516001600160e01b031960e086901b1681526001600160a01b0390931660048401526024830191909152516044808301926020929190829003018186803b158015612ba357600080fd5b505afa158015612bb7573d6000803e3d6000fd5b505050506040513d6020811015612bcd57600080fd5b505190506000612bfa88612bf5670de0b6b3a76400006111428689038a63ffffffff61272216565b61301e565b9050612c0b8884830189818a61284d565b5050505050505050565b60008282018381101561277b576040805162461bcd60e51b815260206004820152601b60248201527f536166654d6174683a206164646974696f6e206f766572666c6f770000000000604482015290519081900360640190fd5b6001600160a01b038216612cb45760405162461bcd60e51b81526004018080602001828103825260218152602001806134b16021913960400191505060405180910390fd5b612cf7816040518060600160405280602281526020016133fe602291396001600160a01b038516600090815260016020526040902054919063ffffffff61268b16565b6001600160a01b038316600090815260016020526040902055600354612d23908263ffffffff612dc216565b6003556040805182815290516000916001600160a01b038516917fddf252ad1be2c89b69c2b068fc378daa952ba7f163c4a11628f55a4df523b3ef9181900360200190a35050565b604080516001600160a01b038416602482015260448082018490528251808303909101815260649091019091526020810180516001600160e01b031663a9059cbb60e01b179052612dbd9084906131aa565b505050565b600061277b83836040518060400160405280601e81526020017f536166654d6174683a207375627472616374696f6e206f766572666c6f77000081525061268b565b8015612f0c57600f5460408051633aecd0e360e01b81526001600160a01b03868116600483015291519190921691634ceb1f13918691612ea09187918691633aecd0e391602480820192602092909190829003018186803b158015612e6857600080fd5b505afa158015612e7c573d6000803e3d6000fd5b505050506040513d6020811015612e9257600080fd5b50519063ffffffff612c1516565b6040518363ffffffff1660e01b815260040180836001600160a01b03166001600160a01b0316815260200182815260200192505050600060405180830381600087803b158015612eef57600080fd5b505af1158015612f03573d6000803e3d6000fd5b50505050612dbd565b600f5460408051633aecd0e360e01b81526001600160a01b03868116600483015291519190921691634ceb1f13918691612f6a9187918691633aecd0e391602480820192602092909190829003018186803b158015611a8c57600080fd5b6040518363ffffffff1660e01b815260040180836001600160a01b03166001600160a01b0316815260200182815260200192505050600060405180830381600087803b15801561242057600080fd5b600081836130085760405162461bcd60e51b81526020600482018181528351602484015283519092839260449091019190850190808383600083156126df5781810151838201526020016126c7565b50600083858161301457fe5b0495945050505050565b6000806060600860039054906101000a90046001600160a01b03166001600160a01b031663d9ee71ee6040518163ffffffff1660e01b815260040160206040518083038186803b15801561307157600080fd5b505afa158015613085573d6000803e3d6000fd5b505050506040513d602081101561309b57600080fd5b5051604080516001600160a01b038881166024830152604480830189905283518084039091018152606490920183526020820180516001600160e01b0316634256fa9f60e01b178152925182519190941693919282918083835b602083106131145780518252601f1990920191602091820191016130f5565b6001836020036101000a038019825116818451168082178552505050505050905001915050600060405180830381855af49150503d8060008114613174576040519150601f19603f3d011682016040523d82523d6000602084013e613179565b606091505b509150915061318782613368565b600081806020019051602081101561319e57600080fd5b50519695505050505050565b6131bc826001600160a01b031661337a565b61320d576040805162461bcd60e51b815260206004820152601f60248201527f5361666545524332303a2063616c6c20746f206e6f6e2d636f6e747261637400604482015290519081900360640190fd5b60006060836001600160a01b0316836040518082805190602001908083835b6020831061324b5780518252601f19909201916020918201910161322c565b6001836020036101000a0380198251168184511680821785525050505050509050019150506000604051808303816000865af19150503d80600081146132ad576040519150601f19603f3d011682016040523d82523d6000602084013e6132b2565b606091505b509150915081613309576040805162461bcd60e51b815260206004820181905260248201527f5361666545524332303a206c6f772d6c6576656c2063616c6c206661696c6564604482015290519081900360640190fd5b8051156133625780806020019051602081101561332557600080fd5b50516133625760405162461bcd60e51b815260040180806020018281038252602a815260200180613547602a913960400191505060405180910390fd5b50505050565b8061284a576040513d806000833e8082fd5b6000813f7fc5d2460186f7233c927e7db2dcc703c0e500b653ca82273b7bfad8045d85a4708181148015906133ae57508115155b94935050505056fe45524332303a207472616e7366657220746f20746865207a65726f2061646472657373496e76616c6964206d617374657220636f707920616464726573732070726f766964656445524332303a206275726e20616d6f756e7420657863656564732062616c616e636545524332303a20617070726f766520746f20746865207a65726f206164647265737345524332303a207472616e7366657220616d6f756e7420657863656564732062616c616e6365536166654d6174683a206d756c7469706c69636174696f6e206f766572666c6f7745524332303a207472616e7366657220616d6f756e74206578636565647320616c6c6f77616e636545524332303a206275726e2066726f6d20746865207a65726f206164647265737345524332303a207472616e736665722066726f6d20746865207a65726f20616464726573734d6574686f642063616e206f6e6c792062652063616c6c65642066726f6d207468697320636f6e747261637445524332303a20617070726f76652066726f6d20746865207a65726f20616464726573735361666545524332303a204552433230206f7065726174696f6e20646964206e6f74207375636365656445524332303a2064656372656173656420616c6c6f77616e63652062656c6f77207a65726fa265627a7a723158203daa2fcae5090593e03791aeb7bf69e983edfac243efae136041bdc49932c06464736f6c63430005110032",
  "source": "// SPDX-License-Identifier: MIT\npragma solidity >=0.5.0 <0.7.0;\nimport \"../../storage/VaultStorage.sol\";\nimport \"./storage/LockStorage.sol\";\n\ncontract LockedWithdraw is VaultStorage {\n    /// @dev Function to Withdraw assets from the Vault.\n    /// @param _tokenAddress Address of the withdraw token.\n    /// @param _shares Amount of Vault token shares.\n    function withdraw(address _tokenAddress, uint256 _shares) public {\n        addToAssetList(_tokenAddress);\n        LockStorage lockStorage = LockStorage(\n            0xF8F1531383c56e7A5184E368714d58604a713291\n        );\n        lockStorage.addRequest(msg.sender, _tokenAddress, _shares);\n    }\n\n    /// @dev Function to Withdraw shares from the Vault.\n    /// @param _shares Amount of Vault token shares.\n    function withdraw(uint256 _shares) public {\n        LockStorage lockStorage = LockStorage(\n            0xF8F1531383c56e7A5184E368714d58604a713291\n        );\n        lockStorage.addRequest(msg.sender, address(0), _shares);\n    }\n\n    function withdrawalCleanUp(\n        address[] memory _strategies,\n        address[] memory _withdrawalAssets,\n        uint256[] memory _shares\n    ) public {\n        for (uint256 i = 0; i < _strategies.length; i++) {\n            (, address _returnToken, uint256 returnAmount) = IStrategy(\n                _strategies[i]\n            ).withdraw(_shares[i], _withdrawalAssets[i]);\n            addToAssetList(_returnToken);\n            updateTokenBalance(_returnToken, returnAmount, true);\n        }\n        LockStorage lockStorage = LockStorage(\n            0xF8F1531383c56e7A5184E368714d58604a713291\n        );\n        (\n            address[] memory withdrawers,\n            address[] memory assets,\n            uint256[] memory amounts\n        ) = lockStorage.getWithdrawalList(address(this));\n        for (uint256 i = 0; i < withdrawers.length; i++) {\n            if (withdrawers[i] != address(0) && amounts[i] > 0) {\n                if (assets[i] == address(0)) {\n                    withdrawInShares(amounts[i], withdrawers[i]);\n                } else {\n                    withdrawInToken(assets[i], amounts[i], withdrawers[i]);\n                }\n            }\n        }\n        lockStorage.clearWithdrawals();\n    }\n\n    //\n    //\n    //\n    //  Copied content\n    // ------------------\n    //\n    //\n    //\n    //\n    //\n\n    function getStrategyWithHighestNav()\n        internal\n        view\n        returns (address, uint256)\n    {\n        address[] memory strategies = IAPContract(APContract)\n        .getVaultActiveStrategy(address(this));\n        address strategyWithHighestNav;\n        uint256 highestNav;\n        for (uint256 i = 0; i < strategies.length; i++) {\n            uint256 strategyNav = (\n                IStrategy(strategies[i]).balanceOf(address(this)).mul(\n                    IStrategy(strategies[i]).tokenValueInUSD()\n                )\n            )\n            .div(1e18);\n            if (strategyNav > highestNav) {\n                strategyWithHighestNav = strategies[i];\n                highestNav = strategyNav;\n            }\n        }\n        return (strategyWithHighestNav, highestNav);\n    }\n\n    function exchange(address toToken, uint256 nav) internal returns (uint256) {\n        (bool result, bytes memory data) = IAPContract(APContract)\n        .yieldsterExchange()\n        .delegatecall(\n            abi.encodeWithSignature(\n                \"exchangeTokens(address,uint256)\",\n                toToken,\n                nav\n            )\n        );\n        revertDelegate(result);\n        uint256 exchangeReturn = abi.decode(data, (uint256));\n        return exchangeReturn;\n    }\n\n    function withdrawFromStrategy(\n        address strategy,\n        uint256 shares,\n        address tokenPrefered\n    ) internal returns (uint256, uint256) {\n        (, address returnToken, uint256 returnAmount) = IStrategy(strategy)\n        .withdraw(shares, tokenPrefered);\n        if (returnToken == tokenPrefered) {\n            return (returnAmount, 0);\n        } else {\n            uint256 returnNav = (\n                IHexUtils(IAPContract(APContract).stringUtils())\n                .toDecimals(returnToken, returnAmount)\n                .mul(IAPContract(APContract).getUSDPrice(returnToken))\n            )\n            .div(1e18);\n            return (0, returnNav);\n        }\n    }\n\n    function withdrawFromMultipleStrategy(\n        uint256 navToWithdraw,\n        address _tokenAddress\n    ) internal returns (uint256, uint256) {\n        uint256 currentNav;\n        uint256 towardsNeedWithSlippage;\n        uint256 navFromStrategyWithdraw;\n        address[] memory strategies = IAPContract(APContract)\n        .getVaultActiveStrategy(address(this));\n        for (uint256 i = 0; i < strategies.length; i++) {\n            if (currentNav < navToWithdraw) {\n                uint256 strategyNav = (\n                    IStrategy(strategies[i]).balanceOf(address(this)).mul(\n                        IStrategy(strategies[i]).tokenValueInUSD()\n                    )\n                )\n                .div(1e18);\n                if (strategyNav <= (navToWithdraw - currentNav)) {\n                    (uint256 amount, uint256 returnNav) = withdrawFromStrategy(\n                        strategies[i],\n                        IStrategy(strategies[i]).balanceOf(address(this)),\n                        _tokenAddress\n                    );\n                    towardsNeedWithSlippage += amount;\n                    navFromStrategyWithdraw += returnNav;\n                    currentNav += strategyNav;\n                } else {\n                    uint256 toWithdrawNav = navToWithdraw - currentNav;\n                    uint256 toWithdrawShares = (toWithdrawNav.mul(1e18)).div(\n                        IStrategy(strategies[i]).tokenValueInUSD()\n                    );\n                    (uint256 amount, uint256 returnNav) = withdrawFromStrategy(\n                        strategies[i],\n                        toWithdrawShares,\n                        _tokenAddress\n                    );\n                    towardsNeedWithSlippage += amount;\n                    navFromStrategyWithdraw += returnNav;\n                    currentNav += toWithdrawNav;\n                }\n            }\n            if (currentNav >= navToWithdraw) {\n                return (towardsNeedWithSlippage, navFromStrategyWithdraw);\n            }\n        }\n        return (towardsNeedWithSlippage, navFromStrategyWithdraw);\n    }\n\n    function updateAndTransferTokens(\n        address tokenAddress,\n        uint256 updatedBalance,\n        uint256 shares,\n        uint256 transferAmount,\n        address _recipient\n    ) internal {\n        tokenBalances.setTokenBalance(\n            tokenAddress,\n            tokenBalances.getTokenBalance(tokenAddress).sub(updatedBalance)\n        );\n        _burn(_recipient, shares);\n        IERC20(tokenAddress).safeTransfer(_recipient, transferAmount);\n    }\n\n    function strategyWithdraw(\n        address _tokenAddress,\n        uint256 _shares,\n        address _recipient\n    ) internal {\n        uint256 tokenUSD = IAPContract(APContract).getUSDPrice(_tokenAddress);\n        uint256 towardsNeedWithSlippage = (\n            tokenBalances.getTokenBalance(_tokenAddress)\n        );\n        uint256 haveNavInOtherTokens = getVaultNAVWithoutStrategyToken() -\n            (\n                IHexUtils(IAPContract(APContract).stringUtils())\n                .toDecimals(\n                    _tokenAddress,\n                    tokenBalances.getTokenBalance(_tokenAddress)\n                ).mul(tokenUSD)\n            )\n            .div(1e18);\n        uint256 navFromStrategyWithdraw;\n        uint256 strategyWithdrawNav = (_shares.mul(getVaultNAV())).div(\n            totalSupply()\n        ) - getVaultNAVWithoutStrategyToken();\n        (\n            address strategyWithHighestNav,\n            uint256 highestNav\n        ) = getStrategyWithHighestNav();\n\n        if (highestNav >= strategyWithdrawNav) {\n            (uint256 amount, uint256 returnNav) = withdrawFromStrategy(\n                strategyWithHighestNav,\n                (strategyWithdrawNav.mul(1e18)).div(\n                    IStrategy(strategyWithHighestNav).tokenValueInUSD()\n                ),\n                _tokenAddress\n            );\n            towardsNeedWithSlippage += amount;\n            navFromStrategyWithdraw += returnNav;\n        } else {\n            (\n                uint256 returnTowardsNeedWithSlippage,\n                uint256 returnNavFromStrategyWithdraw\n            ) = withdrawFromMultipleStrategy(\n                strategyWithdrawNav,\n                _tokenAddress\n            );\n            towardsNeedWithSlippage += returnTowardsNeedWithSlippage;\n            navFromStrategyWithdraw += returnNavFromStrategyWithdraw;\n        }\n\n        uint256 exchangeReturn = exchange(\n            _tokenAddress,\n            haveNavInOtherTokens + navFromStrategyWithdraw\n        );\n        updateAndTransferTokens(\n            _tokenAddress,\n            exchangeReturn + towardsNeedWithSlippage,\n            _shares,\n            exchangeReturn + towardsNeedWithSlippage,\n            _recipient\n        );\n    }\n\n    function exchangeWithdraw(\n        address _tokenAddress,\n        uint256 _shares,\n        address _recipient\n    ) internal {\n        uint256 tokenUSD = IAPContract(APContract).getUSDPrice(_tokenAddress);\n        uint256 tokenCount = (\n            (_shares.mul(getVaultNAV())).div(totalSupply()).mul(1e18)\n        )\n        .div(tokenUSD);\n\n        uint256 towardsNeedWithSlippage = (\n            tokenBalances.getTokenBalance(_tokenAddress)\n        );\n        uint256 haveTokenCount = IHexUtils(\n            IAPContract(APContract).stringUtils()\n        ).toDecimals(\n            _tokenAddress,\n            tokenBalances.getTokenBalance(_tokenAddress)\n        );\n        uint256 exchangeReturn = exchange(\n            _tokenAddress,\n            ((tokenCount - haveTokenCount).mul(tokenUSD)).div(1e18)\n        );\n        updateAndTransferTokens(\n            _tokenAddress,\n            exchangeReturn + towardsNeedWithSlippage,\n            _shares,\n            exchangeReturn + towardsNeedWithSlippage,\n            _recipient\n        );\n    }\n\n    /// @dev Function to Withdraw assets from the Vault.\n    /// @param _tokenAddress Address of the withdraw token.\n    /// @param _shares Amount of Vault token shares.\n    function withdrawInToken(\n        address _tokenAddress,\n        uint256 _shares,\n        address _recipient\n    ) public {\n        addToAssetList(_tokenAddress);\n        uint256 tokenUSD = IAPContract(APContract).getUSDPrice(_tokenAddress);\n        uint256 tokenCount = (\n            (_shares.mul(getVaultNAV())).div(totalSupply()).mul(1e18)\n        )\n        .div(tokenUSD);\n        uint256 tokenCountDecimals = IHexUtils(\n            IAPContract(APContract).stringUtils()\n        ).fromDecimals(_tokenAddress, tokenCount);\n\n        if (tokenCountDecimals <= tokenBalances.getTokenBalance(_tokenAddress))\n            updateAndTransferTokens(\n                _tokenAddress,\n                tokenCountDecimals,\n                _shares,\n                tokenCountDecimals,\n                _recipient\n            );\n        else {\n            exchangeWithdraw(_tokenAddress, _shares, _recipient);\n        }\n    }\n\n    /// @dev Function to Withdraw shares from the Vault.\n    /// @param _shares Amount of Vault token shares.\n    function withdrawInShares(uint256 _shares, address _recipient) public {\n        uint256 safeTotalSupply = totalSupply();\n        _burn(_recipient, _shares);\n        address[] memory strategies = IAPContract(APContract)\n        .getVaultActiveStrategy(address(this));\n\n        for (uint256 i = 0; i < strategies.length; i++) {\n            uint256 safeStrategyBalance = IStrategy(strategies[i]).balanceOf(\n                address(this)\n            );\n            if (safeStrategyBalance > 0) {\n                uint256 strategyShares = (_shares.mul(safeStrategyBalance)).div(\n                    safeTotalSupply\n                );\n                (, address returnToken, uint256 returnAmount) = IStrategy(\n                    strategies[i]\n                ).withdraw(strategyShares, address(0));\n                IERC20(returnToken).safeTransfer(_recipient, returnAmount);\n            }\n        }\n\n        for (uint256 i = 0; i < assetList.length; i++) {\n            IERC20 token = IERC20(assetList[i]);\n            if (tokenBalances.getTokenBalance(assetList[i]) > 0) {\n                uint256 tokensToGive = (\n                    _shares.mul(tokenBalances.getTokenBalance(assetList[i]))\n                )\n                .div(safeTotalSupply);\n                tokenBalances.setTokenBalance(\n                    assetList[i],\n                    tokenBalances.getTokenBalance(assetList[i]).sub(\n                        tokensToGive\n                    )\n                );\n                token.safeTransfer(_recipient, tokensToGive);\n            }\n        }\n    }\n}\n",
  "sourcePath": "/home/dxuser/Documents/scode/yieldster-vault/contracts/smartStrategies/withdraw/LockedWithdraw.sol",
  "compiler": {
    "name": "solc",
    "version": "0.5.17+commit.d19bba13.Emscripten.clang"
  },
  "schemaVersion": "3.4.4",
  "updatedAt": "2022-02-04T04:47:14.818Z",
  "devdoc": {
    "methods": {
      "allowance(address,address)": {
        "details": "See {IERC20-allowance}."
      },
      "approve(address,uint256)": {
        "details": "See {IERC20-approve}.     * Requirements:     * - `spender` cannot be the zero address."
      },
      "balanceOf(address)": {
        "details": "See {IERC20-balanceOf}."
      },
      "changeMasterCopy(address)": {
        "details": "Allows to upgrade the contract. This can only be done via a Safe transaction.",
        "params": {
          "_masterCopy": "New contract address."
        }
      },
      "decimals()": {
        "details": "Returns the number of decimals used to get its user representation. For example, if `decimals` equals `2`, a balance of `505` tokens should be displayed to a user as `5,05` (`505 / 10 ** 2`).     * Tokens usually opt for a value of 18, imitating the relationship between Ether and Wei.     * NOTE: This information is only used for _display_ purposes: it in no way affects any of the arithmetic of the contract, including {IERC20-balanceOf} and {IERC20-transfer}."
      },
      "decreaseAllowance(address,uint256)": {
        "details": "Atomically decreases the allowance granted to `spender` by the caller.     * This is an alternative to {approve} that can be used as a mitigation for problems described in {IERC20-approve}.     * Emits an {Approval} event indicating the updated allowance.     * Requirements:     * - `spender` cannot be the zero address. - `spender` must have allowance for the caller of at least `subtractedValue`."
      },
      "getVaultActiveStrategy()": {
        "details": "Function to get the address of active strategy in the vault."
      },
      "getVaultNAV()": {
        "details": "Function to return the NAV of the Vault."
      },
      "getVaultNAVWithoutStrategyToken()": {
        "details": "Function to return the NAV of the Vault excluding Strategy Tokens."
      },
      "increaseAllowance(address,uint256)": {
        "details": "Atomically increases the allowance granted to `spender` by the caller.     * This is an alternative to {approve} that can be used as a mitigation for problems described in {IERC20-approve}.     * Emits an {Approval} event indicating the updated allowance.     * Requirements:     * - `spender` cannot be the zero address."
      },
      "name()": {
        "details": "Returns the name of the token."
      },
      "supportsInterface(bytes4)": {
        "details": "See {IERC165-supportsInterface}.     * Time complexity O(1), guaranteed to always use less than 30 000 gas."
      },
      "symbol()": {
        "details": "Returns the symbol of the token, usually a shorter version of the name."
      },
      "tokenValueInUSD()": {
        "details": "Function to return Value of the Vault Token."
      },
      "totalSupply()": {
        "details": "See {IERC20-totalSupply}."
      },
      "transfer(address,uint256)": {
        "details": "See {IERC20-transfer}.     * Requirements:     * - `recipient` cannot be the zero address. - the caller must have a balance of at least `amount`."
      },
      "transferFrom(address,address,uint256)": {
        "details": "See {IERC20-transferFrom}.     * Emits an {Approval} event indicating the updated allowance. This is not required by the EIP. See the note at the beginning of {ERC20};     * Requirements: - `sender` and `recipient` cannot be the zero address. - `sender` must have a balance of at least `amount`. - the caller must have allowance for `sender`'s tokens of at least `amount`."
      },
      "withdraw(address,uint256)": {
        "details": "Function to Withdraw assets from the Vault.",
        "params": {
          "_shares": "Amount of Vault token shares.",
          "_tokenAddress": "Address of the withdraw token."
        }
      },
      "withdraw(uint256)": {
        "details": "Function to Withdraw shares from the Vault.",
        "params": {
          "_shares": "Amount of Vault token shares."
        }
      },
      "withdrawInShares(uint256,address)": {
        "details": "Function to Withdraw shares from the Vault.",
        "params": {
          "_shares": "Amount of Vault token shares."
        }
      },
      "withdrawInToken(address,uint256,address)": {
        "details": "Function to Withdraw assets from the Vault.",
        "params": {
          "_shares": "Amount of Vault token shares.",
          "_tokenAddress": "Address of the withdraw token."
        }
      }
    }
  },
  "userdoc": {
    "methods": {}
  }
}