{
  "contractName": "LockedWithdrawMinter",
  "abi": [
    {
      "inputs": [
        {
          "internalType": "address",
          "name": "_APContract",
          "type": "address"
        },
        {
          "internalType": "address",
          "name": "_strategyAddress",
          "type": "address"
        }
      ],
      "payable": false,
      "stateMutability": "nonpayable",
      "type": "constructor"
    },
    {
      "anonymous": false,
      "inputs": [
        {
          "indexed": true,
          "internalType": "address",
          "name": "account",
          "type": "address"
        },
        {
          "indexed": true,
          "internalType": "address",
          "name": "operator",
          "type": "address"
        },
        {
          "indexed": false,
          "internalType": "bool",
          "name": "approved",
          "type": "bool"
        }
      ],
      "name": "ApprovalForAll",
      "type": "event"
    },
    {
      "anonymous": false,
      "inputs": [
        {
          "indexed": true,
          "internalType": "address",
          "name": "operator",
          "type": "address"
        },
        {
          "indexed": true,
          "internalType": "address",
          "name": "from",
          "type": "address"
        },
        {
          "indexed": true,
          "internalType": "address",
          "name": "to",
          "type": "address"
        },
        {
          "indexed": false,
          "internalType": "uint256[]",
          "name": "ids",
          "type": "uint256[]"
        },
        {
          "indexed": false,
          "internalType": "uint256[]",
          "name": "values",
          "type": "uint256[]"
        }
      ],
      "name": "TransferBatch",
      "type": "event"
    },
    {
      "anonymous": false,
      "inputs": [
        {
          "indexed": true,
          "internalType": "address",
          "name": "operator",
          "type": "address"
        },
        {
          "indexed": true,
          "internalType": "address",
          "name": "from",
          "type": "address"
        },
        {
          "indexed": true,
          "internalType": "address",
          "name": "to",
          "type": "address"
        },
        {
          "indexed": false,
          "internalType": "uint256",
          "name": "id",
          "type": "uint256"
        },
        {
          "indexed": false,
          "internalType": "uint256",
          "name": "value",
          "type": "uint256"
        }
      ],
      "name": "TransferSingle",
      "type": "event"
    },
    {
      "anonymous": false,
      "inputs": [
        {
          "indexed": false,
          "internalType": "string",
          "name": "value",
          "type": "string"
        },
        {
          "indexed": true,
          "internalType": "uint256",
          "name": "id",
          "type": "uint256"
        }
      ],
      "name": "URI",
      "type": "event"
    },
    {
      "constant": true,
      "inputs": [],
      "name": "APContract",
      "outputs": [
        {
          "internalType": "address",
          "name": "",
          "type": "address"
        }
      ],
      "payable": false,
      "stateMutability": "view",
      "type": "function"
    },
    {
      "constant": true,
      "inputs": [
        {
          "internalType": "address",
          "name": "account",
          "type": "address"
        },
        {
          "internalType": "uint256",
          "name": "id",
          "type": "uint256"
        }
      ],
      "name": "balanceOf",
      "outputs": [
        {
          "internalType": "uint256",
          "name": "",
          "type": "uint256"
        }
      ],
      "payable": false,
      "stateMutability": "view",
      "type": "function"
    },
    {
      "constant": true,
      "inputs": [
        {
          "internalType": "address[]",
          "name": "accounts",
          "type": "address[]"
        },
        {
          "internalType": "uint256[]",
          "name": "ids",
          "type": "uint256[]"
        }
      ],
      "name": "balanceOfBatch",
      "outputs": [
        {
          "internalType": "uint256[]",
          "name": "",
          "type": "uint256[]"
        }
      ],
      "payable": false,
      "stateMutability": "view",
      "type": "function"
    },
    {
      "constant": true,
      "inputs": [
        {
          "internalType": "address",
          "name": "account",
          "type": "address"
        },
        {
          "internalType": "address",
          "name": "operator",
          "type": "address"
        }
      ],
      "name": "isApprovedForAll",
      "outputs": [
        {
          "internalType": "bool",
          "name": "",
          "type": "bool"
        }
      ],
      "payable": false,
      "stateMutability": "view",
      "type": "function"
    },
    {
      "constant": false,
      "inputs": [
        {
          "internalType": "address",
          "name": "from",
          "type": "address"
        },
        {
          "internalType": "address",
          "name": "to",
          "type": "address"
        },
        {
          "internalType": "uint256[]",
          "name": "ids",
          "type": "uint256[]"
        },
        {
          "internalType": "uint256[]",
          "name": "amounts",
          "type": "uint256[]"
        },
        {
          "internalType": "bytes",
          "name": "data",
          "type": "bytes"
        }
      ],
      "name": "safeBatchTransferFrom",
      "outputs": [],
      "payable": false,
      "stateMutability": "nonpayable",
      "type": "function"
    },
    {
      "constant": false,
      "inputs": [
        {
          "internalType": "address",
          "name": "from",
          "type": "address"
        },
        {
          "internalType": "address",
          "name": "to",
          "type": "address"
        },
        {
          "internalType": "uint256",
          "name": "id",
          "type": "uint256"
        },
        {
          "internalType": "uint256",
          "name": "amount",
          "type": "uint256"
        },
        {
          "internalType": "bytes",
          "name": "data",
          "type": "bytes"
        }
      ],
      "name": "safeTransferFrom",
      "outputs": [],
      "payable": false,
      "stateMutability": "nonpayable",
      "type": "function"
    },
    {
      "constant": false,
      "inputs": [
        {
          "internalType": "address",
          "name": "operator",
          "type": "address"
        },
        {
          "internalType": "bool",
          "name": "approved",
          "type": "bool"
        }
      ],
      "name": "setApprovalForAll",
      "outputs": [],
      "payable": false,
      "stateMutability": "nonpayable",
      "type": "function"
    },
    {
      "constant": true,
      "inputs": [
        {
          "internalType": "bytes4",
          "name": "interfaceId",
          "type": "bytes4"
        }
      ],
      "name": "supportsInterface",
      "outputs": [
        {
          "internalType": "bool",
          "name": "",
          "type": "bool"
        }
      ],
      "payable": false,
      "stateMutability": "view",
      "type": "function"
    },
    {
      "constant": true,
      "inputs": [
        {
          "internalType": "uint256",
          "name": "",
          "type": "uint256"
        }
      ],
      "name": "uri",
      "outputs": [
        {
          "internalType": "string",
          "name": "",
          "type": "string"
        }
      ],
      "payable": false,
      "stateMutability": "view",
      "type": "function"
    },
    {
      "constant": false,
      "inputs": [
        {
          "internalType": "address",
          "name": "safeAddress",
          "type": "address"
        },
        {
          "internalType": "string",
          "name": "instruction",
          "type": "string"
        }
      ],
      "name": "mintStrategy",
      "outputs": [],
      "payable": false,
      "stateMutability": "nonpayable",
      "type": "function"
    }
  ],
  "bytecode": "0x60806040523480156200001157600080fd5b5060405162001a7138038062001a71833981810160405260408110156200003757600080fd5b5080516020918201516040805160608101909152603180825292939192909162001a4090830139620000927f01ffc9a7000000000000000000000000000000000000000000000000000000006001600160e01b036200014116565b620000a6816001600160e01b036200021016565b620000da7fd9b67a26000000000000000000000000000000000000000000000000000000006001600160e01b036200014116565b6200010e7f0e89341c000000000000000000000000000000000000000000000000000000006001600160e01b036200014116565b50600480546001600160a01b039384166001600160a01b03199182161790915560058054929093169116179055620002ce565b7fffffffff000000000000000000000000000000000000000000000000000000008082161415620001d357604080517f08c379a000000000000000000000000000000000000000000000000000000000815260206004820152601c60248201527f4552433136353a20696e76616c696420696e7465726661636520696400000000604482015290519081900360640190fd5b7fffffffff00000000000000000000000000000000000000000000000000000000166000908152602081905260409020805460ff19166001179055565b80516200022590600390602084019062000229565b5050565b828054600181600116156101000203166002900490600052602060002090601f016020900481019282601f106200026c57805160ff19168380011785556200029c565b828001600101855582156200029c579182015b828111156200029c5782518255916020019190600101906200027f565b50620002aa929150620002ae565b5090565b620002cb91905b80821115620002aa5760008155600101620002b5565b90565b61176280620002de6000396000f3fe608060405234801561001057600080fd5b506004361061009d5760003560e01c80634e1273f4116100665780634e1273f414610394578063a22cb46514610507578063be84d85b14610535578063e985e9c5146105e9578063f242432a146106175761009d565b8062fdd58e146100a257806301ffc9a7146100e05780630e89341c1461011b5780632eb2c2d6146101ad5780633384602714610370575b600080fd5b6100ce600480360360408110156100b857600080fd5b506001600160a01b0381351690602001356106e0565b60408051918252519081900360200190f35b610107600480360360208110156100f657600080fd5b50356001600160e01b03191661074f565b604080519115158252519081900360200190f35b6101386004803603602081101561013157600080fd5b503561076e565b6040805160208082528351818301528351919283929083019185019080838360005b8381101561017257818101518382015260200161015a565b50505050905090810190601f16801561019f5780820380516001836020036101000a031916815260200191505b509250505060405180910390f35b61036e600480360360a08110156101c357600080fd5b6001600160a01b038235811692602081013590911691810190606081016040820135600160201b8111156101f657600080fd5b82018360208201111561020857600080fd5b803590602001918460208302840111600160201b8311171561022957600080fd5b9190808060200260200160405190810160405280939291908181526020018383602002808284376000920191909152509295949360208101935035915050600160201b81111561027857600080fd5b82018360208201111561028a57600080fd5b803590602001918460208302840111600160201b831117156102ab57600080fd5b9190808060200260200160405190810160405280939291908181526020018383602002808284376000920191909152509295949360208101935035915050600160201b8111156102fa57600080fd5b82018360208201111561030c57600080fd5b803590602001918460018302840111600160201b8311171561032d57600080fd5b91908080601f016020809104026020016040519081016040528093929190818152602001838380828437600092019190915250929550610806945050505050565b005b610378610b04565b604080516001600160a01b039092168252519081900360200190f35b6104b7600480360360408110156103aa57600080fd5b810190602081018135600160201b8111156103c457600080fd5b8201836020820111156103d657600080fd5b803590602001918460208302840111600160201b831117156103f757600080fd5b9190808060200260200160405190810160405280939291908181526020018383602002808284376000920191909152509295949360208101935035915050600160201b81111561044657600080fd5b82018360208201111561045857600080fd5b803590602001918460208302840111600160201b8311171561047957600080fd5b919080806020026020016040519081016040528093929190818152602001838360200280828437600092019190915250929550610b13945050505050565b60408051602080825283518183015283519192839290830191858101910280838360005b838110156104f35781810151838201526020016104db565b505050509050019250505060405180910390f35b61036e6004803603604081101561051d57600080fd5b506001600160a01b0381351690602001351515610be8565b61036e6004803603604081101561054b57600080fd5b6001600160a01b038235169190810190604081016020820135600160201b81111561057557600080fd5b82018360208201111561058757600080fd5b803590602001918460018302840111600160201b831117156105a857600080fd5b91908080601f016020809104026020016040519081016040528093929190818152602001838380828437600092019190915250929550610cd7945050505050565b610107600480360360408110156105ff57600080fd5b506001600160a01b0381358116916020013516610dcb565b61036e600480360360a081101561062d57600080fd5b6001600160a01b03823581169260208101359091169160408201359160608101359181019060a081016080820135600160201b81111561066c57600080fd5b82018360208201111561067e57600080fd5b803590602001918460018302840111600160201b8311171561069f57600080fd5b91908080601f016020809104026020016040519081016040528093929190818152602001838380828437600092019190915250929550610df9945050505050565b60006001600160a01b0383166107275760405162461bcd60e51b815260040180806020018281038252602b8152602001806115be602b913960400191505060405180910390fd5b5060009081526001602090815260408083206001600160a01b03949094168352929052205490565b6001600160e01b03191660009081526020819052604090205460ff1690565b60038054604080516020601f60026000196101006001881615020190951694909404938401819004810282018101909252828152606093909290918301828280156107fa5780601f106107cf576101008083540402835291602001916107fa565b820191906000526020600020905b8154815290600101906020018083116107dd57829003601f168201915b50505050509050919050565b81518351146108465760405162461bcd60e51b81526004018080602001828103825260288152602001806116e56028913960400191505060405180910390fd5b6001600160a01b03841661088b5760405162461bcd60e51b81526004018080602001828103825260258152602001806116126025913960400191505060405180910390fd5b610893610fca565b6001600160a01b0316856001600160a01b031614806108be57506108be856108b9610fca565b610dcb565b6108f95760405162461bcd60e51b81526004018080602001828103825260328152602001806116376032913960400191505060405180910390fd5b6000610903610fca565b9050610913818787878787610afc565b60005b8451811015610a1457600085828151811061092d57fe5b60200260200101519050600085838151811061094557fe5b602002602001015190506109b2816040518060600160405280602a8152602001611669602a91396001600086815260200190815260200160002060008d6001600160a01b03166001600160a01b0316815260200190815260200160002054610fce9092919063ffffffff16565b60008381526001602090815260408083206001600160a01b038e811685529252808320939093558a16815220546109e99082611065565b60009283526001602081815260408086206001600160a01b038d168752909152909320555001610916565b50846001600160a01b0316866001600160a01b0316826001600160a01b03167f4a39dc06d4c0dbc64b70af90fd698a233a518aa5d07e595d983b8c0526c8f7fb8787604051808060200180602001838103835285818151815260200191508051906020019060200280838360005b83811015610a9a578181015183820152602001610a82565b50505050905001838103825284818151815260200191508051906020019060200280838360005b83811015610ad9578181015183820152602001610ac1565b5050505090500194505050505060405180910390a4610afc8187878787876110c6565b505050505050565b6004546001600160a01b031681565b60608151835114610b555760405162461bcd60e51b81526004018080602001828103825260298152602001806116bc6029913960400191505060405180910390fd5b60608351604051908082528060200260200182016040528015610b82578160200160208202803883390190505b50905060005b8451811015610be057610bc1858281518110610ba057fe5b6020026020010151858381518110610bb457fe5b60200260200101516106e0565b828281518110610bcd57fe5b6020908102919091010152600101610b88565b509392505050565b816001600160a01b0316610bfa610fca565b6001600160a01b03161415610c405760405162461bcd60e51b81526004018080602001828103825260298152602001806116936029913960400191505060405180910390fd5b8060026000610c4d610fca565b6001600160a01b03908116825260208083019390935260409182016000908120918716808252919093529120805460ff191692151592909217909155610c91610fca565b60408051841515815290516001600160a01b0392909216917f17307eab39ab6107e8899845ad3d59bd9653f200f220920489ca2b5937696c319181900360200190a35050565b60048054600554604080516314c3165f60e01b81526001600160a01b039283169481019490945251339392909116916314c3165f916024808301926020929190829003018186803b158015610d2b57600080fd5b505afa158015610d3f573d6000803e3d6000fd5b505050506040513d6020811015610d5557600080fd5b50516001600160a01b031614610db2576040805162461bcd60e51b815260206004820152601760248201527f4e6f74206120617070726f766564206578656375746572000000000000000000604482015290519081900360640190fd5b610dc7826003670de0b6b3a7640000846112cd565b5050565b6001600160a01b03918216600090815260026020908152604080832093909416825291909152205460ff1690565b6001600160a01b038416610e3e5760405162461bcd60e51b81526004018080602001828103825260258152602001806116126025913960400191505060405180910390fd5b610e46610fca565b6001600160a01b0316856001600160a01b03161480610e6c5750610e6c856108b9610fca565b610ea75760405162461bcd60e51b81526004018080602001828103825260298152602001806115e96029913960400191505060405180910390fd5b6000610eb1610fca565b9050610ed1818787610ec2886113db565b610ecb886113db565b87610afc565b610f1e836040518060600160405280602a8152602001611669602a913960008781526001602090815260408083206001600160a01b038d168452909152902054919063ffffffff610fce16565b60008581526001602090815260408083206001600160a01b038b81168552925280832093909355871681522054610f559084611065565b60008581526001602090815260408083206001600160a01b03808b168086529184529382902094909455805188815291820187905280518a8416938616927fc3d58168c5ae7397731d063d5bbf3d657854427343f4c083240f7aacaa2d0f6292908290030190a4610afc81878787878761141f565b3390565b6000818484111561105d5760405162461bcd60e51b81526004018080602001828103825283818151815260200191508051906020019080838360005b8381101561102257818101518382015260200161100a565b50505050905090810190601f16801561104f5780820380516001836020036101000a031916815260200191505b509250505060405180910390fd5b505050900390565b6000828201838110156110bf576040805162461bcd60e51b815260206004820152601b60248201527f536166654d6174683a206164646974696f6e206f766572666c6f770000000000604482015290519081900360640190fd5b9392505050565b6110d8846001600160a01b0316611559565b15610afc576000846001600160a01b031663bc197c8188888787876040518663ffffffff1660e01b815260040180866001600160a01b03166001600160a01b03168152602001856001600160a01b03166001600160a01b03168152602001806020018060200180602001848103845287818151815260200191508051906020019060200280838360005b8381101561117a578181015183820152602001611162565b50505050905001848103835286818151815260200191508051906020019060200280838360005b838110156111b95781810151838201526020016111a1565b50505050905001848103825285818151815260200191508051906020019080838360005b838110156111f55781810151838201526020016111dd565b50505050905090810190601f1680156112225780820380516001836020036101000a031916815260200191505b5098505050505050505050602060405180830381600087803b15801561124757600080fd5b505af115801561125b573d6000803e3d6000fd5b505050506040513d602081101561127157600080fd5b505190506001600160e01b0319811663bc197c8160e01b146112c45760405162461bcd60e51b81526004018080602001828103825260288152602001806115966028913960400191505060405180910390fd5b50505050505050565b6001600160a01b0384166113125760405162461bcd60e51b815260040180806020018281038252602181526020018061170d6021913960400191505060405180910390fd5b600061131c610fca565b905061132e81600087610ec2886113db565b60008481526001602090815260408083206001600160a01b0389168452909152902054611361908463ffffffff61106516565b60008581526001602090815260408083206001600160a01b03808b16808652918452828520959095558151898152928301889052815190948616927fc3d58168c5ae7397731d063d5bbf3d657854427343f4c083240f7aacaa2d0f6292908290030190a46113d48160008787878761141f565b5050505050565b60408051600180825281830190925260609182919060208083019080388339019050509050828160008151811061140e57fe5b602090810291909101015292915050565b611431846001600160a01b0316611559565b15610afc576000846001600160a01b031663f23a6e6188888787876040518663ffffffff1660e01b815260040180866001600160a01b03166001600160a01b03168152602001856001600160a01b03166001600160a01b0316815260200184815260200183815260200180602001828103825283818151815260200191508051906020019080838360005b838110156114d45781810151838201526020016114bc565b50505050905090810190601f1680156115015780820380516001836020036101000a031916815260200191505b509650505050505050602060405180830381600087803b15801561152457600080fd5b505af1158015611538573d6000803e3d6000fd5b505050506040513d602081101561154e57600080fd5b505050505050505050565b6000813f7fc5d2460186f7233c927e7db2dcc703c0e500b653ca82273b7bfad8045d85a47081811480159061158d57508115155b94935050505056fe455243313135353a204552433131353552656365697665722072656a656374656420746f6b656e73455243313135353a2062616c616e636520717565727920666f7220746865207a65726f2061646472657373455243313135353a2063616c6c6572206973206e6f74206f776e6572206e6f7220617070726f766564455243313135353a207472616e7366657220746f20746865207a65726f2061646472657373455243313135353a207472616e736665722063616c6c6572206973206e6f74206f776e6572206e6f7220617070726f766564455243313135353a20696e73756666696369656e742062616c616e636520666f72207472616e73666572455243313135353a2073657474696e6720617070726f76616c2073746174757320666f722073656c66455243313135353a206163636f756e747320616e6420696473206c656e677468206d69736d61746368455243313135353a2069647320616e6420616d6f756e7473206c656e677468206d69736d61746368455243313135353a206d696e7420746f20746865207a65726f2061646472657373a265627a7a72315820ad6a9307bf1eebb020147b265013c73cc5efeab5d910dbc34464f4dddec43edf64736f6c6343000511003268747470733a2f2f7969656c64737465722e66696e616e63652f73747261746567792f6d6574612f7b69647d2e6a736f6e",
  "source": "pragma solidity >=0.5.0 <0.8.0;\nimport \"../token/ERC1155/ERC1155.sol\";\nimport \"../interfaces/IAPContract.sol\";\n\ncontract LockedWithdrawMinter is ERC1155 {\n    address public APContract;\n    address private strategy;\n\n    constructor(address _APContract, address _strategyAddress)\n        public\n        ERC1155(\"https://yieldster.finance/strategy/meta/{id}.json\")\n    {\n        APContract = _APContract;\n        strategy = _strategyAddress;\n    }\n\n    function mintStrategy(address safeAddress, string memory instruction)\n        public\n    {\n        require(\n            IAPContract(APContract).smartStrategyExecutor(strategy) ==\n                msg.sender,\n            \"Not a approved executer\"\n        );\n        _mint(safeAddress, 3, 10**18, bytes(instruction));\n    }\n}\n",
  "sourcePath": "/home/dxuser/Documents/scode/yieldster-vault/contracts/smartStrategies/LockedWithdrawMinter.sol",
  "compiler": {
    "name": "solc",
    "version": "0.5.17+commit.d19bba13.Emscripten.clang"
  },
  "schemaVersion": "3.4.4",
  "updatedAt": "2022-02-04T04:47:14.810Z",
  "devdoc": {
    "methods": {
      "balanceOf(address,uint256)": {
        "details": "See {IERC1155-balanceOf}.     * Requirements:     * - `account` cannot be the zero address."
      },
      "balanceOfBatch(address[],uint256[])": {
        "details": "See {IERC1155-balanceOfBatch}.     * Requirements:     * - `accounts` and `ids` must have the same length."
      },
      "isApprovedForAll(address,address)": {
        "details": "See {IERC1155-isApprovedForAll}."
      },
      "safeBatchTransferFrom(address,address,uint256[],uint256[],bytes)": {
        "details": "See {IERC1155-safeBatchTransferFrom}."
      },
      "safeTransferFrom(address,address,uint256,uint256,bytes)": {
        "details": "See {IERC1155-safeTransferFrom}."
      },
      "setApprovalForAll(address,bool)": {
        "details": "See {IERC1155-setApprovalForAll}."
      },
      "supportsInterface(bytes4)": {
        "details": "See {IERC165-supportsInterface}.     * Time complexity O(1), guaranteed to always use less than 30 000 gas."
      },
      "uri(uint256)": {
        "details": "See {IERC1155MetadataURI-uri}.     * This implementation returns the same URI for *all* token types. It relies on the token type ID substitution mechanism https://eips.ethereum.org/EIPS/eip-1155#metadata[defined in the EIP].     * Clients calling this function must replace the `\\{id\\}` substring with the actual token type ID."
      }
    }
  },
  "userdoc": {
    "methods": {}
  }
}