{
  "contractName": "LockStorage",
  "abi": [
    {
      "inputs": [
        {
          "internalType": "address",
          "name": "_APContract",
          "type": "address"
        }
      ],
      "payable": false,
      "stateMutability": "nonpayable",
      "type": "constructor"
    },
    {
      "constant": false,
      "inputs": [
        {
          "internalType": "address",
          "name": "_withdrawer",
          "type": "address"
        },
        {
          "internalType": "address",
          "name": "_asset",
          "type": "address"
        },
        {
          "internalType": "uint256",
          "name": "_amount",
          "type": "uint256"
        }
      ],
      "name": "addRequest",
      "outputs": [],
      "payable": false,
      "stateMutability": "nonpayable",
      "type": "function"
    },
    {
      "constant": false,
      "inputs": [],
      "name": "clearWithdrawals",
      "outputs": [],
      "payable": false,
      "stateMutability": "nonpayable",
      "type": "function"
    },
    {
      "constant": true,
      "inputs": [
        {
          "internalType": "address",
          "name": "_vaultAddress",
          "type": "address"
        }
      ],
      "name": "getWithdrawalList",
      "outputs": [
        {
          "internalType": "address[]",
          "name": "",
          "type": "address[]"
        },
        {
          "internalType": "address[]",
          "name": "",
          "type": "address[]"
        },
        {
          "internalType": "uint256[]",
          "name": "",
          "type": "uint256[]"
        }
      ],
      "payable": false,
      "stateMutability": "view",
      "type": "function"
    }
  ],
  "bytecode": "0x608060405234801561001057600080fd5b506040516106d13803806106d18339818101604052602081101561003357600080fd5b5051600180546001600160a01b0319166001600160a01b0390921691909117905561066e806100636000396000f3fe608060405234801561001057600080fd5b50600436106100415760003560e01c806338439f2214610046578063837b528114610050578063cb38c7b414610086575b600080fd5b61004e61018a565b005b61004e6004803603606081101561006657600080fd5b506001600160a01b038135811691602081013590911690604001356102da565b6100ac6004803603602081101561009c57600080fd5b50356001600160a01b0316610410565b60405180806020018060200180602001848103845287818151815260200191508051906020019060200280838360005b838110156100f45781810151838201526020016100dc565b50505050905001848103835286818151815260200191508051906020019060200280838360005b8381101561013357818101518382015260200161011b565b50505050905001848103825285818151815260200191508051906020019060200280838360005b8381101561017257818101518382015260200161015a565b50505050905001965050505050505060405180910390f35b6001546040805163652b9b4160e01b815233600482015290516001600160a01b039092169163652b9b4191602480820192602092909190829003018186803b1580156101d557600080fd5b505afa1580156101e9573d6000803e3d6000fd5b505050506040513d60208110156101ff57600080fd5b505161024c576040805162461bcd60e51b81526020600482015260176024820152764e6f7420612072656769737465726564207661756c742160481b604482015290519081900360640190fd5b60408051600060608201818152608083018452825282518181526020818101855280840191909152835182815280820185528385015233825281815292902081518051929391926102a0928492019061054c565b5060208281015180516102b9926001850192019061054c565b50604082015180516102d59160028401916020909101906105b1565b505050565b6001546040805163652b9b4160e01b815233600482015290516001600160a01b039092169163652b9b4191602480820192602092909190829003018186803b15801561032557600080fd5b505afa158015610339573d6000803e3d6000fd5b505050506040513d602081101561034f57600080fd5b505161039c576040805162461bcd60e51b81526020600482015260176024820152764e6f7420612072656769737465726564207661756c742160481b604482015290519081900360640190fd5b33600090815260208181526040822080546001818101835582855283852090910180546001600160a01b039889166001600160a01b03199182161790915581830180548084018255908652848620018054979098169616959095179095556002909401805493840181558152929092200155565b6001600160a01b0381166000908152602081815260409182902080548351818402810184019094528084526060938493849392600184019260028501929091859183018282801561048a57602002820191906000526020600020905b81546001600160a01b0316815260019091019060200180831161046c575b50505050509250818054806020026020016040519081016040528092919081815260200182805480156104e657602002820191906000526020600020905b81546001600160a01b031681526001909101906020018083116104c8575b505050505091508080548060200260200160405190810160405280929190818152602001828054801561053857602002820191906000526020600020905b815481526020019060010190808311610524575b505050505090509250925092509193909250565b8280548282559060005260206000209081019282156105a1579160200282015b828111156105a157825182546001600160a01b0319166001600160a01b0390911617825560209092019160019091019061056c565b506105ad9291506105f8565b5090565b8280548282559060005260206000209081019282156105ec579160200282015b828111156105ec5782518255916020019190600101906105d1565b506105ad92915061061f565b61061c91905b808211156105ad5780546001600160a01b03191681556001016105fe565b90565b61061c91905b808211156105ad576000815560010161062556fea265627a7a72315820ce163ce90c4673b0e4b72b0b624c5b7a233564f3666d2c683d317ad0c110dc5264736f6c63430005110032",
  "source": "pragma solidity >=0.5.0 <0.7.0;\nimport \"../../../interfaces/IAPContract.sol\";\n\ncontract LockStorage {\n    struct WithdrawalStorage {\n        address[] requestedAddresses;\n        address[] withdrawalAsset; // addresses of requested\n        uint256[] amounts; // safe share\n    }\n    mapping(address => WithdrawalStorage) vaultWithdrawalRequests;\n    address private APContract;\n\n    constructor(address _APContract) public {\n        APContract = _APContract;\n    }\n\n    function addRequest(\n        address _withdrawer,\n        address _asset,\n        uint256 _amount\n    ) external {\n        require(\n            IAPContract(APContract).isVault(msg.sender),\n            \"Not a registered vault!\"\n        );\n        vaultWithdrawalRequests[msg.sender].requestedAddresses.push(\n            _withdrawer\n        );\n        vaultWithdrawalRequests[msg.sender].withdrawalAsset.push(_asset);\n        vaultWithdrawalRequests[msg.sender].amounts.push(_amount);\n    }\n\n    function clearWithdrawals() external {\n        require(\n            IAPContract(APContract).isVault(msg.sender),\n            \"Not a registered vault!\"\n        );\n        vaultWithdrawalRequests[msg.sender] = WithdrawalStorage(\n            new address[](0),\n            new address[](0),\n            new uint256[](0)\n        );\n    }\n\n    function getWithdrawalList(address _vaultAddress)\n        external\n        view\n        returns (\n            address[] memory,\n            address[] memory,\n            uint256[] memory\n        )\n    {\n        return (\n            vaultWithdrawalRequests[_vaultAddress].requestedAddresses,\n            vaultWithdrawalRequests[_vaultAddress].withdrawalAsset,\n            vaultWithdrawalRequests[_vaultAddress].amounts\n        );\n    }\n}\n",
  "sourcePath": "/home/dxuser/Documents/scode/yieldster-vault/contracts/smartStrategies/withdraw/storage/LockStorage.sol",
  "compiler": {
    "name": "solc",
    "version": "0.5.17+commit.d19bba13.Emscripten.clang"
  },
  "schemaVersion": "3.4.4",
  "updatedAt": "2022-02-04T04:47:14.842Z",
  "devdoc": {
    "methods": {}
  },
  "userdoc": {
    "methods": {}
  }
}