{
  "contractName": "ManagementFee",
  "abi": [
    {
      "anonymous": false,
      "inputs": [
        {
          "indexed": true,
          "internalType": "address",
          "name": "owner",
          "type": "address"
        },
        {
          "indexed": true,
          "internalType": "address",
          "name": "spender",
          "type": "address"
        },
        {
          "indexed": false,
          "internalType": "uint256",
          "name": "value",
          "type": "uint256"
        }
      ],
      "name": "Approval",
      "type": "event"
    },
    {
      "anonymous": false,
      "inputs": [
        {
          "indexed": false,
          "internalType": "address",
          "name": "masterCopy",
          "type": "address"
        }
      ],
      "name": "ChangedMasterCopy",
      "type": "event"
    },
    {
      "anonymous": false,
      "inputs": [
        {
          "indexed": true,
          "internalType": "address",
          "name": "from",
          "type": "address"
        },
        {
          "indexed": true,
          "internalType": "address",
          "name": "to",
          "type": "address"
        },
        {
          "indexed": false,
          "internalType": "uint256",
          "name": "value",
          "type": "uint256"
        }
      ],
      "name": "Transfer",
      "type": "event"
    },
    {
      "constant": true,
      "inputs": [],
      "name": "APContract",
      "outputs": [
        {
          "internalType": "address",
          "name": "",
          "type": "address"
        }
      ],
      "payable": false,
      "stateMutability": "view",
      "type": "function"
    },
    {
      "constant": true,
      "inputs": [
        {
          "internalType": "address",
          "name": "owner",
          "type": "address"
        },
        {
          "internalType": "address",
          "name": "spender",
          "type": "address"
        }
      ],
      "name": "allowance",
      "outputs": [
        {
          "internalType": "uint256",
          "name": "",
          "type": "uint256"
        }
      ],
      "payable": false,
      "stateMutability": "view",
      "type": "function"
    },
    {
      "constant": false,
      "inputs": [
        {
          "internalType": "address",
          "name": "spender",
          "type": "address"
        },
        {
          "internalType": "uint256",
          "name": "amount",
          "type": "uint256"
        }
      ],
      "name": "approve",
      "outputs": [
        {
          "internalType": "bool",
          "name": "",
          "type": "bool"
        }
      ],
      "payable": false,
      "stateMutability": "nonpayable",
      "type": "function"
    },
    {
      "constant": true,
      "inputs": [
        {
          "internalType": "address",
          "name": "account",
          "type": "address"
        }
      ],
      "name": "balanceOf",
      "outputs": [
        {
          "internalType": "uint256",
          "name": "",
          "type": "uint256"
        }
      ],
      "payable": false,
      "stateMutability": "view",
      "type": "function"
    },
    {
      "constant": false,
      "inputs": [
        {
          "internalType": "address",
          "name": "_masterCopy",
          "type": "address"
        }
      ],
      "name": "changeMasterCopy",
      "outputs": [],
      "payable": false,
      "stateMutability": "nonpayable",
      "type": "function"
    },
    {
      "constant": true,
      "inputs": [],
      "name": "decimals",
      "outputs": [
        {
          "internalType": "uint8",
          "name": "",
          "type": "uint8"
        }
      ],
      "payable": false,
      "stateMutability": "view",
      "type": "function"
    },
    {
      "constant": false,
      "inputs": [
        {
          "internalType": "address",
          "name": "spender",
          "type": "address"
        },
        {
          "internalType": "uint256",
          "name": "subtractedValue",
          "type": "uint256"
        }
      ],
      "name": "decreaseAllowance",
      "outputs": [
        {
          "internalType": "bool",
          "name": "",
          "type": "bool"
        }
      ],
      "payable": false,
      "stateMutability": "nonpayable",
      "type": "function"
    },
    {
      "constant": true,
      "inputs": [],
      "name": "emergencyConditions",
      "outputs": [
        {
          "internalType": "uint8",
          "name": "",
          "type": "uint8"
        }
      ],
      "payable": false,
      "stateMutability": "view",
      "type": "function"
    },
    {
      "constant": true,
      "inputs": [
        {
          "internalType": "address",
          "name": "_tokenAddress",
          "type": "address"
        }
      ],
      "name": "getTokenBalance",
      "outputs": [
        {
          "internalType": "uint256",
          "name": "",
          "type": "uint256"
        }
      ],
      "payable": false,
      "stateMutability": "view",
      "type": "function"
    },
    {
      "constant": true,
      "inputs": [],
      "name": "getVaultActiveStrategy",
      "outputs": [
        {
          "internalType": "address[]",
          "name": "",
          "type": "address[]"
        }
      ],
      "payable": false,
      "stateMutability": "view",
      "type": "function"
    },
    {
      "constant": true,
      "inputs": [],
      "name": "getVaultNAV",
      "outputs": [
        {
          "internalType": "uint256",
          "name": "",
          "type": "uint256"
        }
      ],
      "payable": false,
      "stateMutability": "view",
      "type": "function"
    },
    {
      "constant": true,
      "inputs": [],
      "name": "getVaultNAVWithoutStrategyToken",
      "outputs": [
        {
          "internalType": "uint256",
          "name": "",
          "type": "uint256"
        }
      ],
      "payable": false,
      "stateMutability": "view",
      "type": "function"
    },
    {
      "constant": false,
      "inputs": [
        {
          "internalType": "address",
          "name": "spender",
          "type": "address"
        },
        {
          "internalType": "uint256",
          "name": "addedValue",
          "type": "uint256"
        }
      ],
      "name": "increaseAllowance",
      "outputs": [
        {
          "internalType": "bool",
          "name": "",
          "type": "bool"
        }
      ],
      "payable": false,
      "stateMutability": "nonpayable",
      "type": "function"
    },
    {
      "constant": true,
      "inputs": [],
      "name": "name",
      "outputs": [
        {
          "internalType": "string",
          "name": "",
          "type": "string"
        }
      ],
      "payable": false,
      "stateMutability": "view",
      "type": "function"
    },
    {
      "constant": false,
      "inputs": [
        {
          "internalType": "address",
          "name": "operator",
          "type": "address"
        },
        {
          "internalType": "address",
          "name": "from",
          "type": "address"
        },
        {
          "internalType": "uint256[]",
          "name": "ids",
          "type": "uint256[]"
        },
        {
          "internalType": "uint256[]",
          "name": "values",
          "type": "uint256[]"
        },
        {
          "internalType": "bytes",
          "name": "data",
          "type": "bytes"
        }
      ],
      "name": "onERC1155BatchReceived",
      "outputs": [
        {
          "internalType": "bytes4",
          "name": "",
          "type": "bytes4"
        }
      ],
      "payable": false,
      "stateMutability": "nonpayable",
      "type": "function"
    },
    {
      "constant": false,
      "inputs": [
        {
          "internalType": "address",
          "name": "operator",
          "type": "address"
        },
        {
          "internalType": "address",
          "name": "from",
          "type": "address"
        },
        {
          "internalType": "uint256",
          "name": "id",
          "type": "uint256"
        },
        {
          "internalType": "uint256",
          "name": "value",
          "type": "uint256"
        },
        {
          "internalType": "bytes",
          "name": "data",
          "type": "bytes"
        }
      ],
      "name": "onERC1155Received",
      "outputs": [
        {
          "internalType": "bytes4",
          "name": "",
          "type": "bytes4"
        }
      ],
      "payable": false,
      "stateMutability": "nonpayable",
      "type": "function"
    },
    {
      "constant": true,
      "inputs": [],
      "name": "owner",
      "outputs": [
        {
          "internalType": "address",
          "name": "",
          "type": "address"
        }
      ],
      "payable": false,
      "stateMutability": "view",
      "type": "function"
    },
    {
      "constant": true,
      "inputs": [
        {
          "internalType": "bytes4",
          "name": "interfaceId",
          "type": "bytes4"
        }
      ],
      "name": "supportsInterface",
      "outputs": [
        {
          "internalType": "bool",
          "name": "",
          "type": "bool"
        }
      ],
      "payable": false,
      "stateMutability": "view",
      "type": "function"
    },
    {
      "constant": true,
      "inputs": [],
      "name": "symbol",
      "outputs": [
        {
          "internalType": "string",
          "name": "",
          "type": "string"
        }
      ],
      "payable": false,
      "stateMutability": "view",
      "type": "function"
    },
    {
      "constant": true,
      "inputs": [],
      "name": "tokenValueInUSD",
      "outputs": [
        {
          "internalType": "uint256",
          "name": "",
          "type": "uint256"
        }
      ],
      "payable": false,
      "stateMutability": "view",
      "type": "function"
    },
    {
      "constant": true,
      "inputs": [],
      "name": "totalSupply",
      "outputs": [
        {
          "internalType": "uint256",
          "name": "",
          "type": "uint256"
        }
      ],
      "payable": false,
      "stateMutability": "view",
      "type": "function"
    },
    {
      "constant": false,
      "inputs": [
        {
          "internalType": "address",
          "name": "recipient",
          "type": "address"
        },
        {
          "internalType": "uint256",
          "name": "amount",
          "type": "uint256"
        }
      ],
      "name": "transfer",
      "outputs": [
        {
          "internalType": "bool",
          "name": "",
          "type": "bool"
        }
      ],
      "payable": false,
      "stateMutability": "nonpayable",
      "type": "function"
    },
    {
      "constant": false,
      "inputs": [
        {
          "internalType": "address",
          "name": "sender",
          "type": "address"
        },
        {
          "internalType": "address",
          "name": "recipient",
          "type": "address"
        },
        {
          "internalType": "uint256",
          "name": "amount",
          "type": "uint256"
        }
      ],
      "name": "transferFrom",
      "outputs": [
        {
          "internalType": "bool",
          "name": "",
          "type": "bool"
        }
      ],
      "payable": false,
      "stateMutability": "nonpayable",
      "type": "function"
    },
    {
      "constant": true,
      "inputs": [],
      "name": "vaultAPSManager",
      "outputs": [
        {
          "internalType": "address",
          "name": "",
          "type": "address"
        }
      ],
      "payable": false,
      "stateMutability": "view",
      "type": "function"
    },
    {
      "constant": true,
      "inputs": [],
      "name": "vaultStrategyManager",
      "outputs": [
        {
          "internalType": "address",
          "name": "",
          "type": "address"
        }
      ],
      "payable": false,
      "stateMutability": "view",
      "type": "function"
    },
    {
      "constant": false,
      "inputs": [],
      "name": "executeSafeCleanUp",
      "outputs": [],
      "payable": false,
      "stateMutability": "nonpayable",
      "type": "function"
    }
  ],
  "bytecode": "0x60806040526100367f01ffc9a7000000000000000000000000000000000000000000000000000000006001600160e01b0361006d16565b6100687f4e2312e0000000000000000000000000000000000000000000000000000000006001600160e01b0361006d16565b61013b565b7fffffffff0000000000000000000000000000000000000000000000000000000080821614156100fe57604080517f08c379a000000000000000000000000000000000000000000000000000000000815260206004820152601c60248201527f4552433136353a20696e76616c696420696e7465726661636520696400000000604482015290519081900360640190fd5b7fffffffff00000000000000000000000000000000000000000000000000000000166000908152600760205260409020805460ff19166001179055565b6120ce8061014a6000396000f3fe608060405234801561001057600080fd5b506004361061018e5760003560e01c80635969326b116100de578063a9059cbb11610097578063b28aaf7d11610071578063b28aaf7d14610499578063bc197c81146104a1578063dd62ed3e146105e5578063f23a6e61146106135761018e565b8063a9059cbb1461040d578063ac221b5c14610439578063ad4653e3146104915761018e565b80635969326b1461037b57806370a08231146103835780637de7edef146103a95780638da5cb5b146103d157806395d89b41146103d9578063a457c2d7146103e15761018e565b80632b27ef661161014b5780633384602711610125578063338460271461031957806339509351146103215780633aecd0e31461034d5780633f514315146103735761018e565b80632b27ef66146102e55780632c9a410514610309578063313ce567146103115761018e565b806301ffc9a71461019357806306fdde03146101ce578063095ea7b31461024b5780630c6a957f1461027757806318160ddd1461029557806323b872dd146102af575b600080fd5b6101ba600480360360208110156101a957600080fd5b50356001600160e01b0319166106a6565b604080519115158252519081900360200190f35b6101d66106c5565b6040805160208082528351818301528351919283929083019185019080838360005b838110156102105781810151838201526020016101f8565b50505050905090810190601f16801561023d5780820380516001836020036101000a031916815260200191505b509250505060405180910390f35b6101ba6004803603604081101561026157600080fd5b506001600160a01b03813516906020013561075c565b61027f61077a565b6040805160ff9092168252519081900360200190f35b61029d610783565b60408051918252519081900360200190f35b6101ba600480360360608110156102c557600080fd5b506001600160a01b03813581169160208101359091169060400135610789565b6102ed610816565b604080516001600160a01b039092168252519081900360200190f35b61029d610825565b61027f610d50565b6102ed610d59565b6101ba6004803603604081101561033757600080fd5b506001600160a01b038135169060200135610d6f565b61029d6004803603602081101561036357600080fd5b50356001600160a01b0316610dc3565b6102ed610e46565b61029d610e55565b61029d6004803603602081101561039957600080fd5b50356001600160a01b0316610ebb565b6103cf600480360360208110156103bf57600080fd5b50356001600160a01b0316610ed6565b005b6102ed610fad565b6101d6610fbc565b6101ba600480360360408110156103f757600080fd5b506001600160a01b03813516906020013561101d565b6101ba6004803603604081101561042357600080fd5b506001600160a01b03813516906020013561108b565b61044161109f565b60408051602080825283518183015283519192839290830191858101910280838360005b8381101561047d578181015183820152602001610465565b505050509050019250505060405180910390f35b6103cf6111bd565b61029d6112de565b6105c8600480360360a08110156104b757600080fd5b6001600160a01b038235811692602081013590911691810190606081016040820135600160201b8111156104ea57600080fd5b8201836020820111156104fc57600080fd5b803590602001918460208302840111600160201b8311171561051d57600080fd5b919390929091602081019035600160201b81111561053a57600080fd5b82018360208201111561054c57600080fd5b803590602001918460208302840111600160201b8311171561056d57600080fd5b919390929091602081019035600160201b81111561058a57600080fd5b82018360208201111561059c57600080fd5b803590602001918460018302840111600160201b831117156105bd57600080fd5b5090925090506114b5565b604080516001600160e01b03199092168252519081900360200190f35b61029d600480360360408110156105fb57600080fd5b506001600160a01b03813581169160200135166114c3565b6105c8600480360360a081101561062957600080fd5b6001600160a01b03823581169260208101359091169160408201359160608101359181019060a081016080820135600160201b81111561066857600080fd5b82018360208201111561067a57600080fd5b803590602001918460018302840111600160201b8311171561069b57600080fd5b5090925090506114ee565b6001600160e01b03191660009081526007602052604090205460ff1690565b60048054604080516020601f60026000196101006001881615020190951694909404938401819004810282018101909252828152606093909290918301828280156107515780601f1061072657610100808354040283529160200191610751565b820191906000526020600020905b81548152906001019060200180831161073457829003601f168201915b505050505090505b90565b60006107706107696114fa565b84846114fe565b5060015b92915050565b60085460ff1681565b60035490565b60006107968484846115ea565b61080c846107a26114fa565b61080785604051806060016040528060288152602001611fd8602891396001600160a01b038a166000908152600260205260408120906107e06114fa565b6001600160a01b03168152602081019190915260400160002054919063ffffffff61174816565b6114fe565b5060019392505050565b600b546001600160a01b031681565b6000606061083161109f565b90506000805b600d54811015610b6a57600f54600d80546000926001600160a01b031691633aecd0e3918590811061086557fe5b60009182526020918290200154604080516001600160e01b031960e086901b1681526001600160a01b0390921660048301525160248083019392829003018186803b1580156108b357600080fd5b505afa1580156108c7573d6000803e3d6000fd5b505050506040513d60208110156108dd57600080fd5b50511115610b6257600854600d8054600092630100000090046001600160a01b031691638b2f0f4f918590811061091057fe5b60009182526020918290200154604080516001600160e01b031960e086901b1681526001600160a01b0390921660048301525160248083019392829003018186803b15801561095e57600080fd5b505afa158015610972573d6000803e3d6000fd5b505050506040513d602081101561098857600080fd5b505160085460408051630b4e5fdd60e31b81529051929350610b5c928492630100000090046001600160a01b031691635a72fee8916004808301926020929190829003018186803b1580156109dc57600080fd5b505afa1580156109f0573d6000803e3d6000fd5b505050506040513d6020811015610a0657600080fd5b5051600d80546001600160a01b039092169163b2809e18919087908110610a2957fe5b600091825260209091200154600f54600d80546001600160a01b039384169390921691633aecd0e391908a908110610a5d57fe5b60009182526020918290200154604080516001600160e01b031960e086901b1681526001600160a01b0390921660048301525160248083019392829003018186803b158015610aab57600080fd5b505afa158015610abf573d6000803e3d6000fd5b505050506040513d6020811015610ad557600080fd5b5051604080516001600160e01b031960e086901b1681526001600160a01b0390931660048401526024830191909152516044808301926020929190829003018186803b158015610b2457600080fd5b505afa158015610b38573d6000803e3d6000fd5b505050506040513d6020811015610b4e57600080fd5b50519063ffffffff6117df16565b83019250505b600101610837565b508151610b9257610b8981670de0b6b3a764000063ffffffff61183f16565b92505050610759565b60005b8251811015610d37576000838281518110610bac57fe5b60200260200101516001600160a01b03166370a08231306040518263ffffffff1660e01b815260040180826001600160a01b03166001600160a01b0316815260200191505060206040518083038186803b158015610c0957600080fd5b505afa158015610c1d573d6000803e3d6000fd5b505050506040513d6020811015610c3357600080fd5b50511115610d2f576000838281518110610c4957fe5b60200260200101516001600160a01b0316635969326b6040518163ffffffff1660e01b815260040160206040518083038186803b158015610c8957600080fd5b505afa158015610c9d573d6000803e3d6000fd5b505050506040513d6020811015610cb357600080fd5b50518451909150610d29908290869085908110610ccc57fe5b60200260200101516001600160a01b03166370a08231306040518263ffffffff1660e01b815260040180826001600160a01b03166001600160a01b0316815260200191505060206040518083038186803b158015610b2457600080fd5b83019250505b600101610b95565b50610b8981670de0b6b3a764000063ffffffff61183f16565b60065460ff1690565b600854630100000090046001600160a01b031681565b6000610770610d7c6114fa565b846108078560026000610d8d6114fa565b6001600160a01b03908116825260208083019390935260409182016000908120918c16815292529020549063ffffffff61188116565b600f5460408051633aecd0e360e01b81526001600160a01b03848116600483015291516000939290921691633aecd0e391602480820192602092909190829003018186803b158015610e1457600080fd5b505afa158015610e28573d6000803e3d6000fd5b505050506040513d6020811015610e3e57600080fd5b505192915050565b600a546001600160a01b031681565b6000610e5f610825565b1580610e705750610e6e610783565b155b15610e7d57506000610759565b610eb4610e88610783565b610ea8670de0b6b3a7640000610e9c610825565b9063ffffffff6117df16565b9063ffffffff61183f16565b9050610759565b6001600160a01b031660009081526001602052604090205490565b333014610f145760405162461bcd60e51b815260040180806020018281038252602c815260200180612025602c913960400191505060405180910390fd5b6001600160a01b038116610f595760405162461bcd60e51b8152600401808060200182810382526024815260200180611f4b6024913960400191505060405180910390fd5b600080546001600160a01b0383166001600160a01b0319909116811790915560408051918252517f75e41bc35ff1bf14d81d1d2f649c0084a0f974f9289c803ec9898eeec4c8d0b89181900360200190a150565b6009546001600160a01b031681565b60058054604080516020601f60026000196101006001881615020190951694909404938401819004810282018101909252828152606093909290918301828280156107515780601f1061072657610100808354040283529160200191610751565b600061077061102a6114fa565b846108078560405180606001604052806025815260200161207560259139600260006110546114fa565b6001600160a01b03908116825260208083019390935260409182016000908120918d1681529252902054919063ffffffff61174816565b60006107706110986114fa565b84846115ea565b6008546040805163387971a160e11b81523060048201529051606092630100000090046001600160a01b0316916370f2e342916024808301926000929190829003018186803b1580156110f157600080fd5b505afa158015611105573d6000803e3d6000fd5b505050506040513d6000823e601f3d908101601f19168201604052602081101561112e57600080fd5b8101908080516040519392919084600160201b82111561114d57600080fd5b90830190602082018581111561116257600080fd5b82518660208202830111600160201b8211171561117e57600080fd5b82525081516020918201928201910280838360005b838110156111ab578181015183820152602001611193565b50505050905001604052505050905090565b6000611249600f60009054906101000a90046001600160a01b03166001600160a01b0316637e0094896040518163ffffffff1660e01b815260040160206040518083038186803b15801561121057600080fd5b505afa158015611224573d6000803e3d6000fd5b505050506040513d602081101561123a57600080fd5b5051439063ffffffff6118db16565b90506000611255610825565b905080156112da57611267828261191d565b6112718282611a9f565b600f60009054906101000a90046001600160a01b03166001600160a01b031663a265b26b6040518163ffffffff1660e01b8152600401600060405180830381600087803b1580156112c157600080fd5b505af11580156112d5573d6000803e3d6000fd5b505050505b5050565b600080805b600d5481101561149657600f54600d80546000926001600160a01b031691633aecd0e3918590811061131157fe5b60009182526020918290200154604080516001600160e01b031960e086901b1681526001600160a01b0390921660048301525160248083019392829003018186803b15801561135f57600080fd5b505afa158015611373573d6000803e3d6000fd5b505050506040513d602081101561138957600080fd5b5051111561148e57600854600d8054600092630100000090046001600160a01b031691638b2f0f4f91859081106113bc57fe5b60009182526020918290200154604080516001600160e01b031960e086901b1681526001600160a01b0390921660048301525160248083019392829003018186803b15801561140a57600080fd5b505afa15801561141e573d6000803e3d6000fd5b505050506040513d602081101561143457600080fd5b505160085460408051630b4e5fdd60e31b81529051929350611488928492630100000090046001600160a01b031691635a72fee8916004808301926020929190829003018186803b1580156109dc57600080fd5b83019250505b6001016112e3565b506114af81670de0b6b3a764000063ffffffff61183f16565b91505090565b600098975050505050505050565b6001600160a01b03918216600090815260026020908152604080832093909416825291909152205490565b60009695505050505050565b3390565b6001600160a01b0383166115435760405162461bcd60e51b81526004018080602001828103825260248152602001806120516024913960400191505060405180910390fd5b6001600160a01b0382166115885760405162461bcd60e51b8152600401808060200182810382526022815260200180611f6f6022913960400191505060405180910390fd5b6001600160a01b03808416600081815260026020908152604080832094871680845294825291829020859055815185815291517f8c5be1e5ebec7d5bd14f71427d1e84f3dd0314c0f7b2291e5b200ac8c7c3b9259281900390910190a3505050565b6001600160a01b03831661162f5760405162461bcd60e51b81526004018080602001828103825260258152602001806120006025913960400191505060405180910390fd5b6001600160a01b0382166116745760405162461bcd60e51b8152600401808060200182810382526023815260200180611f286023913960400191505060405180910390fd5b6116b781604051806060016040528060268152602001611f91602691396001600160a01b038616600090815260016020526040902054919063ffffffff61174816565b6001600160a01b0380851660009081526001602052604080822093909355908416815220546116ec908263ffffffff61188116565b6001600160a01b0380841660008181526001602090815260409182902094909455805185815290519193928716927fddf252ad1be2c89b69c2b068fc378daa952ba7f163c4a11628f55a4df523b3ef92918290030190a3505050565b600081848411156117d75760405162461bcd60e51b81526004018080602001828103825283818151815260200191508051906020019080838360005b8381101561179c578181015183820152602001611784565b50505050905090810190601f1680156117c95780820380516001836020036101000a031916815260200191505b509250505060405180910390fd5b505050900390565b6000826117ee57506000610774565b828202828482816117fb57fe5b04146118385760405162461bcd60e51b8152600401808060200182810382526021815260200180611fb76021913960400191505060405180910390fd5b9392505050565b600061183883836040518060400160405280601a81526020017f536166654d6174683a206469766973696f6e206279207a65726f000000000000815250611dd0565b600082820183811015611838576040805162461bcd60e51b815260206004820152601b60248201527f536166654d6174683a206164646974696f6e206f766572666c6f770000000000604482015290519081900360640190fd5b600061183883836040518060400160405280601e81526020017f536166654d6174683a207375627472616374696f6e206f766572666c6f770000815250611748565b600073e40462adef00dd036ef5b1c57862242b9205b65890506000816001600160a01b0316636ea8bc106040518163ffffffff1660e01b815260040160206040518083038186803b15801561197157600080fd5b505afa158015611985573d6000803e3d6000fd5b505050506040513d602081101561199b57600080fd5b5051905060006119f36119c7630faa02806ec097ce7bc90715b34b9f100000000063ffffffff6117df16565b610ea884610e9c6119e68a670de0b6b3a764000063ffffffff6117df16565b899063ffffffff6117df16565b90506000611a1a611a02610e55565b610ea884670de0b6b3a764000063ffffffff6117df16565b90506112d5600860039054906101000a90046001600160a01b03166001600160a01b031663061776426040518163ffffffff1660e01b815260040160206040518083038186803b158015611a6d57600080fd5b505afa158015611a81573d6000803e3d6000fd5b505050506040513d6020811015611a9757600080fd5b505182611e35565b6008546040805163387971a160e11b8152306004820152905173e40462adef00dd036ef5b1c57862242b9205b6589260609263010000009091046001600160a01b0316916370f2e34291602480820192600092909190829003018186803b158015611b0957600080fd5b505afa158015611b1d573d6000803e3d6000fd5b505050506040513d6000823e601f3d908101601f191682016040526020811015611b4657600080fd5b8101908080516040519392919084600160201b821115611b6557600080fd5b908301906020820185811115611b7a57600080fd5b82518660208202830111600160201b82111715611b9657600080fd5b82525081516020918201928201910280838360005b83811015611bc3578181015183820152602001611bab565b50505050905001604052505050905060008090505b8151811015611dc9576000600860039054906101000a90046001600160a01b03166001600160a01b031663aa9bb5d430858581518110611c1457fe5b60200260200101516040518363ffffffff1660e01b815260040180836001600160a01b03166001600160a01b03168152602001826001600160a01b03166001600160a01b0316815260200192505050604080518083038186803b158015611c7a57600080fd5b505afa158015611c8e573d6000803e3d6000fd5b505050506040513d6040811015611ca457600080fd5b505183519091506000906001600160a01b0386169063d191cbaa90869086908110611ccb57fe5b60200260200101516040518263ffffffff1660e01b815260040180826001600160a01b03166001600160a01b0316815260200191505060206040518083038186803b158015611d1957600080fd5b505afa158015611d2d573d6000803e3d6000fd5b505050506040513d6020811015611d4357600080fd5b505190508015611dbf576000611da1611d75630faa02806ec097ce7bc90715b34b9f100000000063ffffffff6117df16565b610ea884610e9c611d948d670de0b6b3a764000063ffffffff6117df16565b8c9063ffffffff6117df16565b90506000611db0611a02610e55565b9050611dbc8482611e35565b50505b5050600101611bd8565b5050505050565b60008183611e1f5760405162461bcd60e51b815260206004820181815283516024840152835190928392604490910191908501908083836000831561179c578181015183820152602001611784565b506000838581611e2b57fe5b0495945050505050565b6001600160a01b038216611e90576040805162461bcd60e51b815260206004820152601f60248201527f45524332303a206d696e7420746f20746865207a65726f206164647265737300604482015290519081900360640190fd5b600354611ea3908263ffffffff61188116565b6003556001600160a01b038216600090815260016020526040902054611ecf908263ffffffff61188116565b6001600160a01b03831660008181526001602090815260408083209490945583518581529351929391927fddf252ad1be2c89b69c2b068fc378daa952ba7f163c4a11628f55a4df523b3ef9281900390910190a3505056fe45524332303a207472616e7366657220746f20746865207a65726f2061646472657373496e76616c6964206d617374657220636f707920616464726573732070726f766964656445524332303a20617070726f766520746f20746865207a65726f206164647265737345524332303a207472616e7366657220616d6f756e7420657863656564732062616c616e6365536166654d6174683a206d756c7469706c69636174696f6e206f766572666c6f7745524332303a207472616e7366657220616d6f756e74206578636565647320616c6c6f77616e636545524332303a207472616e736665722066726f6d20746865207a65726f20616464726573734d6574686f642063616e206f6e6c792062652063616c6c65642066726f6d207468697320636f6e747261637445524332303a20617070726f76652066726f6d20746865207a65726f206164647265737345524332303a2064656372656173656420616c6c6f77616e63652062656c6f77207a65726fa265627a7a72315820569d7fb41e98a38db227d126401773b71988be52d03b1cbcb430028ebb02400464736f6c63430005110032",
  "source": "pragma solidity >=0.5.0 <0.7.0;\nimport \"../storage/VaultStorage.sol\";\nimport \"./storage/ManagementFeeStorage.sol\";\n\ncontract ManagementFee is VaultStorage {\n    function processPlatformFee(uint256 blockDifference, uint256 vaultNAV)\n        internal\n    {\n        ManagementFeeStorage mStorage = ManagementFeeStorage(\n            0xe40462adEf00dd036eF5B1C57862242B9205b658\n        );\n        uint256 platformFee = mStorage.getPlatformFee();\n        uint256 platformNavInterest = vaultNAV\n        .mul(blockDifference.mul(1e18))\n        .mul(platformFee)\n        .div(uint256(262800000).mul(1e36));\n        uint256 platformShare = platformNavInterest.mul(1e18).div(\n            tokenValueInUSD()\n        );\n        _mint(IAPContract(APContract).yieldsterDAO(), platformShare);\n    }\n\n    function processStrategyAnnualFee(uint256 blockDifference, uint256 vaultNAV)\n        internal\n    {\n        ManagementFeeStorage mStorage = ManagementFeeStorage(\n            0xe40462adEf00dd036eF5B1C57862242B9205b658\n        );\n        address[] memory strategies = IAPContract(APContract)\n        .getVaultActiveStrategy(address(this));\n        for (uint256 i = 0; i < strategies.length; i++) {\n            (address benefeciary, ) = IAPContract(APContract)\n            .getStrategyManagementDetails(address(this), strategies[i]);\n            uint256 strategyFee = mStorage.getStrategyFee(strategies[i]);\n            if (strategyFee > 0) {\n                uint256 strategyAnnualNavInterest = vaultNAV\n                .mul(blockDifference.mul(1e18))\n                .mul(strategyFee)\n                .div(uint256(262800000).mul(1e36));\n                uint256 strategyShare = strategyAnnualNavInterest.mul(1e18).div(\n                    tokenValueInUSD()\n                );\n                _mint(benefeciary, strategyShare);\n            }\n        }\n    }\n\n    function executeSafeCleanUp() public {\n        uint256 blockDifference = uint256(block.number).sub(\n            tokenBalances.getLastTransactionBlockNumber()\n        );\n        uint256 vaultNAV = getVaultNAV();\n\n        if (vaultNAV > 0) {\n            processPlatformFee(blockDifference, vaultNAV);\n            processStrategyAnnualFee(blockDifference, vaultNAV);\n            tokenBalances.setLastTransactionBlockNumber();\n        }\n    }\n}\n",
  "sourcePath": "/home/dxuser/Documents/scode/yieldster-vault/contracts/delegateContracts/ManagementFee.sol",
  "compiler": {
    "name": "solc",
    "version": "0.5.17+commit.d19bba13.Emscripten.clang"
  },
  "schemaVersion": "3.4.4",
  "updatedAt": "2022-02-04T04:47:14.763Z",
  "devdoc": {
    "methods": {
      "allowance(address,address)": {
        "details": "See {IERC20-allowance}."
      },
      "approve(address,uint256)": {
        "details": "See {IERC20-approve}.     * Requirements:     * - `spender` cannot be the zero address."
      },
      "balanceOf(address)": {
        "details": "See {IERC20-balanceOf}."
      },
      "changeMasterCopy(address)": {
        "details": "Allows to upgrade the contract. This can only be done via a Safe transaction.",
        "params": {
          "_masterCopy": "New contract address."
        }
      },
      "decimals()": {
        "details": "Returns the number of decimals used to get its user representation. For example, if `decimals` equals `2`, a balance of `505` tokens should be displayed to a user as `5,05` (`505 / 10 ** 2`).     * Tokens usually opt for a value of 18, imitating the relationship between Ether and Wei.     * NOTE: This information is only used for _display_ purposes: it in no way affects any of the arithmetic of the contract, including {IERC20-balanceOf} and {IERC20-transfer}."
      },
      "decreaseAllowance(address,uint256)": {
        "details": "Atomically decreases the allowance granted to `spender` by the caller.     * This is an alternative to {approve} that can be used as a mitigation for problems described in {IERC20-approve}.     * Emits an {Approval} event indicating the updated allowance.     * Requirements:     * - `spender` cannot be the zero address. - `spender` must have allowance for the caller of at least `subtractedValue`."
      },
      "getVaultActiveStrategy()": {
        "details": "Function to get the address of active strategy in the vault."
      },
      "getVaultNAV()": {
        "details": "Function to return the NAV of the Vault."
      },
      "getVaultNAVWithoutStrategyToken()": {
        "details": "Function to return the NAV of the Vault excluding Strategy Tokens."
      },
      "increaseAllowance(address,uint256)": {
        "details": "Atomically increases the allowance granted to `spender` by the caller.     * This is an alternative to {approve} that can be used as a mitigation for problems described in {IERC20-approve}.     * Emits an {Approval} event indicating the updated allowance.     * Requirements:     * - `spender` cannot be the zero address."
      },
      "name()": {
        "details": "Returns the name of the token."
      },
      "supportsInterface(bytes4)": {
        "details": "See {IERC165-supportsInterface}.     * Time complexity O(1), guaranteed to always use less than 30 000 gas."
      },
      "symbol()": {
        "details": "Returns the symbol of the token, usually a shorter version of the name."
      },
      "tokenValueInUSD()": {
        "details": "Function to return Value of the Vault Token."
      },
      "totalSupply()": {
        "details": "See {IERC20-totalSupply}."
      },
      "transfer(address,uint256)": {
        "details": "See {IERC20-transfer}.     * Requirements:     * - `recipient` cannot be the zero address. - the caller must have a balance of at least `amount`."
      },
      "transferFrom(address,address,uint256)": {
        "details": "See {IERC20-transferFrom}.     * Emits an {Approval} event indicating the updated allowance. This is not required by the EIP. See the note at the beginning of {ERC20};     * Requirements: - `sender` and `recipient` cannot be the zero address. - `sender` must have a balance of at least `amount`. - the caller must have allowance for `sender`'s tokens of at least `amount`."
      }
    }
  },
  "userdoc": {
    "methods": {}
  }
}