{
  "contractName": "ManagementFeeStorage",
  "abi": [
    {
      "inputs": [
        {
          "internalType": "uint256",
          "name": "_platformFee",
          "type": "uint256"
        }
      ],
      "payable": false,
      "stateMutability": "nonpayable",
      "type": "constructor"
    },
    {
      "constant": true,
      "inputs": [],
      "name": "manager",
      "outputs": [
        {
          "internalType": "address",
          "name": "",
          "type": "address"
        }
      ],
      "payable": false,
      "stateMutability": "view",
      "type": "function"
    },
    {
      "constant": false,
      "inputs": [
        {
          "internalType": "address",
          "name": "_manager",
          "type": "address"
        }
      ],
      "name": "setManager",
      "outputs": [],
      "payable": false,
      "stateMutability": "nonpayable",
      "type": "function"
    },
    {
      "constant": true,
      "inputs": [],
      "name": "getPlatformFee",
      "outputs": [
        {
          "internalType": "uint256",
          "name": "",
          "type": "uint256"
        }
      ],
      "payable": false,
      "stateMutability": "view",
      "type": "function"
    },
    {
      "constant": false,
      "inputs": [
        {
          "internalType": "uint256",
          "name": "_platformFee",
          "type": "uint256"
        }
      ],
      "name": "setPlatformFee",
      "outputs": [],
      "payable": false,
      "stateMutability": "nonpayable",
      "type": "function"
    },
    {
      "constant": true,
      "inputs": [
        {
          "internalType": "address",
          "name": "_strategy",
          "type": "address"
        }
      ],
      "name": "getStrategyFee",
      "outputs": [
        {
          "internalType": "uint256",
          "name": "",
          "type": "uint256"
        }
      ],
      "payable": false,
      "stateMutability": "view",
      "type": "function"
    },
    {
      "constant": false,
      "inputs": [
        {
          "internalType": "address",
          "name": "_strategy",
          "type": "address"
        },
        {
          "internalType": "uint256",
          "name": "_strategyFee",
          "type": "uint256"
        }
      ],
      "name": "setStrategyFee",
      "outputs": [],
      "payable": false,
      "stateMutability": "nonpayable",
      "type": "function"
    }
  ],
  "bytecode": "0x608060405234801561001057600080fd5b5060405161032d38038061032d8339818101604052602081101561003357600080fd5b5051600080546001600160a01b031916331790556001556102d4806100596000396000f3fe608060405234801561001057600080fd5b50600436106100625760003560e01c806312e8e2c31461006757806326e9560414610086578063481c6a75146100b25780636ea8bc10146100d6578063d0ebdbe7146100f0578063d191cbaa14610116575b600080fd5b6100846004803603602081101561007d57600080fd5b503561013c565b005b6100846004803603604081101561009c57600080fd5b506001600160a01b038135169060200135610191565b6100ba6101fd565b604080516001600160a01b039092168252519081900360200190f35b6100de61020c565b60408051918252519081900360200190f35b6100846004803603602081101561010657600080fd5b50356001600160a01b0316610212565b6100de6004803603602081101561012c57600080fd5b50356001600160a01b0316610284565b6000546001600160a01b0316331461018c576040805162461bcd60e51b815260206004820152600e60248201526d139bdd08105d5d1a1bdc9a5e995960921b604482015290519081900360640190fd5b600155565b6000546001600160a01b031633146101e1576040805162461bcd60e51b815260206004820152600e60248201526d139bdd08105d5d1a1bdc9a5e995960921b604482015290519081900360640190fd5b6001600160a01b03909116600090815260026020526040902055565b6000546001600160a01b031681565b60015490565b6000546001600160a01b03163314610262576040805162461bcd60e51b815260206004820152600e60248201526d139bdd08105d5d1a1bdc9a5e995960921b604482015290519081900360640190fd5b600080546001600160a01b0319166001600160a01b0392909216919091179055565b6001600160a01b03166000908152600260205260409020549056fea265627a7a72315820711727a389c6770643ea963410d29d1d328f653e35b27f3d53410fc070ceb49064736f6c63430005110032",
  "source": "pragma solidity >=0.5.0 <0.7.0;\n\ncontract ManagementFeeStorage {\n    address public manager;\n    uint256 platformFee;\n\n    mapping(address => uint256) managementFees;\n\n    constructor(uint256 _platformFee) public {\n        manager = msg.sender;\n        platformFee = _platformFee;\n    }\n\n    modifier onlyManager {\n        require(msg.sender == manager, \"Not Authorized\");\n        _;\n    }\n\n    function setManager(address _manager) external onlyManager {\n        manager = _manager;\n    }\n\n    function getPlatformFee() external view returns (uint256) {\n        return platformFee;\n    }\n\n    function setPlatformFee(uint256 _platformFee) external onlyManager {\n        platformFee = _platformFee;\n    }\n\n    function getStrategyFee(address _strategy) external view returns (uint256) {\n        return managementFees[_strategy];\n    }\n\n    function setStrategyFee(address _strategy, uint256 _strategyFee)\n        external\n        onlyManager\n    {\n        managementFees[_strategy] = _strategyFee;\n    }\n}\n",
  "sourcePath": "/home/dxuser/Documents/scode/yieldster-vault/contracts/delegateContracts/storage/ManagementFeeStorage.sol",
  "compiler": {
    "name": "solc",
    "version": "0.5.17+commit.d19bba13.Emscripten.clang"
  },
  "schemaVersion": "3.4.4",
  "updatedAt": "2022-02-01T11:12:09.290Z",
  "devdoc": {
    "methods": {}
  },
  "userdoc": {
    "methods": {}
  }
}