{
  "contractName": "MasterCopy",
  "abi": [
    {
      "anonymous": false,
      "inputs": [
        {
          "indexed": false,
          "internalType": "address",
          "name": "masterCopy",
          "type": "address"
        }
      ],
      "name": "ChangedMasterCopy",
      "type": "event"
    },
    {
      "constant": false,
      "inputs": [
        {
          "internalType": "address",
          "name": "_masterCopy",
          "type": "address"
        }
      ],
      "name": "changeMasterCopy",
      "outputs": [],
      "payable": false,
      "stateMutability": "nonpayable",
      "type": "function"
    }
  ],
  "bytecode": "0x608060405234801561001057600080fd5b506101b4806100206000396000f3fe608060405234801561001057600080fd5b506004361061002b5760003560e01c80637de7edef14610030575b600080fd5b6100566004803603602081101561004657600080fd5b50356001600160a01b0316610058565b005b3330146100965760405162461bcd60e51b815260040180806020018281038252602c815260200180610154602c913960400191505060405180910390fd5b6001600160a01b0381166100db5760405162461bcd60e51b81526004018080602001828103825260248152602001806101306024913960400191505060405180910390fd5b600080546001600160a01b0383166001600160a01b0319909116811790915560408051918252517f75e41bc35ff1bf14d81d1d2f649c0084a0f974f9289c803ec9898eeec4c8d0b89181900360200190a15056fe496e76616c6964206d617374657220636f707920616464726573732070726f76696465644d6574686f642063616e206f6e6c792062652063616c6c65642066726f6d207468697320636f6e7472616374a265627a7a72315820a905d13fe47b8d271730c06fcfdb1180d76b97b0c9abce8ea64d2fee06fe042364736f6c63430005110032",
  "source": "pragma solidity >=0.5.0 <0.7.0;\nimport \"./SelfAuthorized.sol\";\n\n/// @title MasterCopy - Base for master copy contracts (should always be first super contract)\n///         This contract is tightly coupled to our proxy contract (see `proxies/YieldsterVaultProxy.sol`)\n/// @author Richard Meissner - <richard@gnosis.io>\ncontract MasterCopy is SelfAuthorized {\n    event ChangedMasterCopy(address masterCopy);\n\n    // masterCopy always needs to be first declared variable, to ensure that it is at the same location as in the Proxy contract.\n    // It should also always be ensured that the address is stored alone (uses a full word)\n    address private masterCopy;\n\n    /// @dev Allows to upgrade the contract. This can only be done via a Safe transaction.\n    /// @param _masterCopy New contract address.\n    function changeMasterCopy(address _masterCopy) public authorized {\n        // Master copy address cannot be null.\n        require(\n            _masterCopy != address(0),\n            \"Invalid master copy address provided\"\n        );\n        masterCopy = _masterCopy;\n        emit ChangedMasterCopy(_masterCopy);\n    }\n}\n",
  "sourcePath": "/home/dxuser/Documents/scode/yieldster-vault/contracts/common/MasterCopy.sol",
  "compiler": {
    "name": "solc",
    "version": "0.5.17+commit.d19bba13.Emscripten.clang"
  },
  "schemaVersion": "3.4.4",
  "updatedAt": "2022-02-01T11:12:09.282Z",
  "devdoc": {
    "author": "Richard Meissner - <richard@gnosis.io>",
    "methods": {
      "changeMasterCopy(address)": {
        "details": "Allows to upgrade the contract. This can only be done via a Safe transaction.",
        "params": {
          "_masterCopy": "New contract address."
        }
      }
    },
    "title": "MasterCopy - Base for master copy contracts (should always be first super contract)         This contract is tightly coupled to our proxy contract (see `proxies/YieldsterVaultProxy.sol`)"
  },
  "userdoc": {
    "methods": {}
  }
}