{
  "contractName": "PriceModule",
  "abi": [
    {
      "inputs": [],
      "payable": false,
      "stateMutability": "nonpayable",
      "type": "constructor"
    },
    {
      "constant": true,
      "inputs": [],
      "name": "curveAddressProvider",
      "outputs": [
        {
          "internalType": "address",
          "name": "",
          "type": "address"
        }
      ],
      "payable": false,
      "stateMutability": "view",
      "type": "function"
    },
    {
      "constant": true,
      "inputs": [
        {
          "internalType": "address",
          "name": "feedAddress",
          "type": "address"
        }
      ],
      "name": "getLatestPrice",
      "outputs": [
        {
          "internalType": "int256",
          "name": "",
          "type": "int256"
        },
        {
          "internalType": "uint256",
          "name": "",
          "type": "uint256"
        },
        {
          "internalType": "uint8",
          "name": "",
          "type": "uint8"
        }
      ],
      "payable": false,
      "stateMutability": "view",
      "type": "function"
    },
    {
      "constant": true,
      "inputs": [],
      "name": "priceModuleManager",
      "outputs": [
        {
          "internalType": "address",
          "name": "",
          "type": "address"
        }
      ],
      "payable": false,
      "stateMutability": "view",
      "type": "function"
    },
    {
      "constant": false,
      "inputs": [
        {
          "internalType": "address",
          "name": "_crvAddressProvider",
          "type": "address"
        }
      ],
      "name": "changeCurveAddressProvider",
      "outputs": [],
      "payable": false,
      "stateMutability": "nonpayable",
      "type": "function"
    },
    {
      "constant": false,
      "inputs": [
        {
          "internalType": "address",
          "name": "_manager",
          "type": "address"
        }
      ],
      "name": "setManager",
      "outputs": [],
      "payable": false,
      "stateMutability": "nonpayable",
      "type": "function"
    },
    {
      "constant": false,
      "inputs": [
        {
          "internalType": "address",
          "name": "_tokenAddress",
          "type": "address"
        },
        {
          "internalType": "address",
          "name": "_feedAddress",
          "type": "address"
        },
        {
          "internalType": "uint256",
          "name": "_tokenType",
          "type": "uint256"
        }
      ],
      "name": "addToken",
      "outputs": [],
      "payable": false,
      "stateMutability": "nonpayable",
      "type": "function"
    },
    {
      "constant": false,
      "inputs": [
        {
          "internalType": "address[]",
          "name": "_tokenAddress",
          "type": "address[]"
        },
        {
          "internalType": "address[]",
          "name": "_feedAddress",
          "type": "address[]"
        },
        {
          "internalType": "uint256[]",
          "name": "_tokenType",
          "type": "uint256[]"
        }
      ],
      "name": "addTokenInBatches",
      "outputs": [],
      "payable": false,
      "stateMutability": "nonpayable",
      "type": "function"
    },
    {
      "constant": true,
      "inputs": [
        {
          "internalType": "address",
          "name": "_tokenAddress",
          "type": "address"
        }
      ],
      "name": "getUSDPrice",
      "outputs": [
        {
          "internalType": "uint256",
          "name": "",
          "type": "uint256"
        }
      ],
      "payable": false,
      "stateMutability": "view",
      "type": "function"
    }
  ],
  "bytecode": "0x608060405234801561001057600080fd5b50600080546001600160a01b03199081163317909155600180549091166f22d53366457f9d5e68ec105046fc4383179055610fb7806100506000396000f3fe608060405234801561001057600080fd5b50600436106100885760003560e01c80637c00e6311161005b5780637c00e631146101565780638b2f0f4f1461015e578063c05676dd14610196578063d0ebdbe7146102aa57610088565b806316345f181461008d5780633d6e7388146100d4578063450f5f17146100f85780636daa985014610120575b600080fd5b6100b3600480360360208110156100a357600080fd5b50356001600160a01b03166102d0565b60408051938452602084019290925260ff1682820152519081900360600190f35b6100dc6103cc565b604080516001600160a01b039092168252519081900360200190f35b61011e6004803603602081101561010e57600080fd5b50356001600160a01b03166103db565b005b61011e6004803603606081101561013657600080fd5b506001600160a01b0381358116916020810135909116906040013561044d565b6100dc610510565b6101846004803603602081101561017457600080fd5b50356001600160a01b031661051f565b60408051918252519081900360200190f35b61011e600480360360608110156101ac57600080fd5b8101906020810181356401000000008111156101c757600080fd5b8201836020820111156101d957600080fd5b803590602001918460208302840111640100000000831117156101fb57600080fd5b91939092909160208101903564010000000081111561021957600080fd5b82018360208201111561022b57600080fd5b8035906020019184602083028401116401000000008311171561024d57600080fd5b91939092909160208101903564010000000081111561026b57600080fd5b82018360208201111561027d57600080fd5b8035906020019184602083028401116401000000008311171561029f57600080fd5b509092509050610bec565b61011e600480360360208110156102c057600080fd5b50356001600160a01b0316610d2a565b600080600080849050600080826001600160a01b031663feaf968c6040518163ffffffff1660e01b815260040160a06040518083038186803b15801561031557600080fd5b505afa158015610329573d6000803e3d6000fd5b505050506040513d60a081101561033f57600080fd5b506020808201516060909201516040805163313ce56760e01b815290519395509093506000926001600160a01b0387169263313ce5679260048082019391829003018186803b15801561039157600080fd5b505afa1580156103a5573d6000803e3d6000fd5b505050506040513d60208110156103bb57600080fd5b505192989197509195509350505050565b6001546001600160a01b031681565b6000546001600160a01b0316331461042b576040805162461bcd60e51b815260206004820152600e60248201526d139bdd08105d5d1a1bdc9a5e995960921b604482015290519081900360640190fd5b600180546001600160a01b0319166001600160a01b0392909216919091179055565b6000546001600160a01b0316331461049d576040805162461bcd60e51b815260206004820152600e60248201526d139bdd08105d5d1a1bdc9a5e995960921b604482015290519081900360640190fd5b6104a5610f41565b50604080516060810182526001600160a01b03938416815260208082019384526001828401818152968616600090815260029283905293909320915182546001600160a01b031916951694909417815591519082015591519101805460ff1916911515919091179055565b6000546001600160a01b031681565b6001600160a01b03811660009081526002602081905260408220015460ff16610583576040805162461bcd60e51b8152602060048201526011602482015270151bdad95b881b9bdd081c1c995cd95b9d607a1b604482015290519081900360640190fd5b6001600160a01b038216600090815260026020526040902060019081015414156105d2576001600160a01b038083166000908152600260205260409020546105cb9116610d9c565b9050610be7565b6001600160a01b03821660009081526002602081905260409091206001015414156106ee57600160009054906101000a90046001600160a01b03166001600160a01b031663a262904b6040518163ffffffff1660e01b815260040160206040518083038186803b15801561064557600080fd5b505afa158015610659573d6000803e3d6000fd5b505050506040513d602081101561066f57600080fd5b5051604080516362db83a560e11b81526001600160a01b0385811660048301529151919092169163c5b7074a916024808301926020929190829003018186803b1580156106bb57600080fd5b505afa1580156106cf573d6000803e3d6000fd5b505050506040513d60208110156106e557600080fd5b50519050610be7565b6001600160a01b0382166000908152600260205260409020600101546003141561081e576000826001600160a01b031663fc0c546a6040518163ffffffff1660e01b815260040160206040518083038186803b15801561074d57600080fd5b505afa158015610761573d6000803e3d6000fd5b505050506040513d602081101561077757600080fd5b5051905060006107868261051f565b9050610815670de0b6b3a7640000610809866001600160a01b03166399530b066040518163ffffffff1660e01b815260040160206040518083038186803b1580156107d057600080fd5b505afa1580156107e4573d6000803e3d6000fd5b505050506040513d60208110156107fa57600080fd5b5051849063ffffffff610e0016565b9063ffffffff610e6216565b92505050610be7565b6001600160a01b0382166000908152600260205260409020600101546004141561087b57816001600160a01b0316635969326b6040518163ffffffff1660e01b815260040160206040518083038186803b1580156106bb57600080fd5b6001600160a01b038216600090815260026020526040902060010154600514156108d857816001600160a01b0316635969326b6040518163ffffffff1660e01b815260040160206040518083038186803b1580156106bb57600080fd5b6001600160a01b0382166000908152600260205260409020600101546006141561094e576001600160a01b0380831660009081526002602052604081205490916109229116610d9c565b90506000610930600061051f565b9050610815670de0b6b3a7640000610809848463ffffffff610e0016565b6001600160a01b03821660009081526002602052604090206001015460071415610a7a576001546040805163a262904b60e01b815290516000926001600160a01b03169163a262904b916004808301926020929190829003018186803b1580156109b757600080fd5b505afa1580156109cb573d6000803e3d6000fd5b505050506040513d60208110156109e157600080fd5b5051604080516362db83a560e11b81526001600160a01b0386811660048301529151919092169163c5b7074a916024808301926020929190829003018186803b158015610a2d57600080fd5b505afa158015610a41573d6000803e3d6000fd5b505050506040513d6020811015610a5757600080fd5b50519050600061093073b49f677943bc038e9857d61e7d053caa2c1734c161051f565b6001600160a01b03821660009081526002602052604090206001015460081415610ba6576001546040805163a262904b60e01b815290516000926001600160a01b03169163a262904b916004808301926020929190829003018186803b158015610ae357600080fd5b505afa158015610af7573d6000803e3d6000fd5b505050506040513d6020811015610b0d57600080fd5b5051604080516362db83a560e11b81526001600160a01b0386811660048301529151919092169163c5b7074a916024808301926020929190829003018186803b158015610b5957600080fd5b505afa158015610b6d573d6000803e3d6000fd5b505050506040513d6020811015610b8357600080fd5b50519050600061093073f4030086522a5beea4988f8ca5b36dbc97bee88c61051f565b6040805162461bcd60e51b8152602060048201526011602482015270151bdad95b881b9bdd081c1c995cd95b9d607a1b604482015290519081900360640190fd5b919050565b6000546001600160a01b03163314610c3c576040805162461bcd60e51b815260206004820152600e60248201526d139bdd08105d5d1a1bdc9a5e995960921b604482015290519081900360640190fd5b60005b85811015610d2157610c4f610f41565b6040518060600160405280878785818110610c6657fe5b905060200201356001600160a01b03166001600160a01b03168152602001858585818110610c9057fe5b90506020020135815260200160011515815250905080600260008a8a86818110610cb657fe5b602090810292909201356001600160a01b03908116845283830194909452506040918201600020845181546001600160a01b03191694169390931783558301516001808401919091559201516002909101805460ff1916911515919091179055919091019050610c3f565b50505050505050565b6000546001600160a01b03163314610d7a576040805162461bcd60e51b815260206004820152600e60248201526d139bdd08105d5d1a1bdc9a5e995960921b604482015290519081900360640190fd5b600080546001600160a01b0319166001600160a01b0392909216919091179055565b6000806000610daa846102d0565b925050915060128160ff161015610dd5576108158260ff601284900316600a0a63ffffffff610e0016565b60128160ff161115610df8576108158260ff60111984011663ffffffff610e6216565b509050610be7565b600082610e0f57506000610e5c565b82820282848281610e1c57fe5b0414610e595760405162461bcd60e51b8152600401808060200182810382526021815260200180610f626021913960400191505060405180910390fd5b90505b92915050565b6000610e5983836040518060400160405280601a81526020017f536166654d6174683a206469766973696f6e206279207a65726f00000000000081525060008183610f2b5760405162461bcd60e51b81526004018080602001828103825283818151815260200191508051906020019080838360005b83811015610ef0578181015183820152602001610ed8565b50505050905090810190601f168015610f1d5780820380516001836020036101000a031916815260200191505b509250505060405180910390fd5b506000838581610f3757fe5b0495945050505050565b60408051606081018252600080825260208201819052918101919091529056fe536166654d6174683a206d756c7469706c69636174696f6e206f766572666c6f77a265627a7a72315820d03b05d46268fd65404604c096255b029471cf112d7ad1033f1cc5095b86a1b264736f6c63430005110032",
  "source": "// SPDX-License-Identifier: MIT\npragma solidity >=0.5.0 <0.7.0;\nimport \"./ChainlinkService.sol\";\nimport \"@openzeppelin/contracts/math/SafeMath.sol\";\nimport \"../interfaces/IRegistry.sol\";\nimport \"../interfaces/yearn/IVault.sol\";\nimport \"../interfaces/IYieldsterVault.sol\";\nimport \"../interfaces/IAddressProvider.sol\";\nimport \"../interfaces/IYieldsterStrategy.sol\";\n//use ICrvAddressProvider.sol instead of IAddressProvider.sol\n\ncontract PriceModule is ChainlinkService {\n    using SafeMath for uint256;\n\n    address public priceModuleManager;\n\n    address public curveAddressProvider;\n\n    struct Token {\n        address feedAddress;\n        uint256 tokenType;\n        bool created;\n    }\n\n    mapping(address => Token) tokens;\n\n    constructor() public {\n        priceModuleManager = msg.sender;\n        curveAddressProvider = 0x0000000022D53366457F9d5E68Ec105046FC4383;\n    }\n\n    function changeCurveAddressProvider(address _crvAddressProvider) external {\n        require(msg.sender == priceModuleManager, \"Not Authorized\");\n        curveAddressProvider = _crvAddressProvider;\n    }\n\n    function setManager(address _manager) external {\n        require(msg.sender == priceModuleManager, \"Not Authorized\");\n        priceModuleManager = _manager;\n    }\n\n    function addToken(\n        address _tokenAddress,\n        address _feedAddress,\n        uint256 _tokenType\n    ) external {\n        require(msg.sender == priceModuleManager, \"Not Authorized\");\n        Token memory newToken = Token({\n            feedAddress: _feedAddress,\n            tokenType: _tokenType,\n            created: true\n        });\n        tokens[_tokenAddress] = newToken;\n    }\n\n    function addTokenInBatches(\n        address[] calldata _tokenAddress,\n        address[] calldata _feedAddress,\n        uint256[] calldata _tokenType\n    ) external {\n        require(msg.sender == priceModuleManager, \"Not Authorized\");\n        for (uint256 i = 0; i < _tokenAddress.length; i++) {\n            Token memory newToken = Token({\n                feedAddress: address(_feedAddress[i]),\n                tokenType: _tokenType[i],\n                created: true\n            });\n            tokens[address(_tokenAddress[i])] = newToken;\n        }\n    }\n\n    function getPriceFromChainlink(address _feedAddress)\n        internal\n        view\n        returns (uint256)\n    {\n        (int256 price, , uint8 decimals) = getLatestPrice(_feedAddress);\n        if (decimals < 18) {\n            return (uint256(price)).mul(10**uint256(18 - decimals));\n        } else if (decimals > 18) {\n            return (uint256(price)).div(uint256(decimals - 18));\n        } else {\n            return uint256(price);\n        }\n    }\n\n    function getUSDPrice(address _tokenAddress) public view returns (uint256) {\n        //revert(\"at priceModule\")\n        require(tokens[_tokenAddress].created, \"Token not present\");\n\n        if (tokens[_tokenAddress].tokenType == 1) {\n            return getPriceFromChainlink(tokens[_tokenAddress].feedAddress);\n        } else if (tokens[_tokenAddress].tokenType == 2) {\n            return\n                IRegistry(IAddressProvider(curveAddressProvider).get_registry())\n                    .get_virtual_price_from_lp_token(_tokenAddress);\n        } else if (tokens[_tokenAddress].tokenType == 3) {\n            address token = IVault(_tokenAddress).token();\n            uint256 tokenPrice = getUSDPrice(token);\n            return\n                (tokenPrice.mul(IVault(_tokenAddress).pricePerShare())).div(\n                    1e18\n                );\n        } else if (tokens[_tokenAddress].tokenType == 4) {\n            return IYieldsterStrategy(_tokenAddress).tokenValueInUSD();\n        } else if (tokens[_tokenAddress].tokenType == 5) {\n            return IYieldsterVault(_tokenAddress).tokenValueInUSD();\n        } else if (tokens[_tokenAddress].tokenType == 6) {\n            uint256 priceInEther = getPriceFromChainlink(\n                tokens[_tokenAddress].feedAddress\n            );\n            uint256 etherToUSD = getUSDPrice(address(0));\n            return (priceInEther.mul(etherToUSD)).div(1e18);\n        } else if (tokens[_tokenAddress].tokenType == 7) {\n            uint256 lpPriceEuro = IRegistry(\n                IAddressProvider(curveAddressProvider).get_registry()\n            ).get_virtual_price_from_lp_token(_tokenAddress);\n            uint256 euroToUSD = getUSDPrice(\n                address(0xb49f677943BC038e9857d61E7d053CaA2C1734C1)\n            );\n            return (lpPriceEuro.mul(euroToUSD)).div(1e18);\n        } else if (tokens[_tokenAddress].tokenType == 8) {\n            uint256 lpPriceBTC = IRegistry(\n                IAddressProvider(curveAddressProvider).get_registry()\n            ).get_virtual_price_from_lp_token(_tokenAddress);\n            uint256 btcToUSD = getUSDPrice(\n                address(0xF4030086522a5bEEa4988F8cA5B36dbC97BeE88c)\n            );\n            return (lpPriceBTC.mul(btcToUSD)).div(1e18);\n        } else revert(\"Token not present\");\n    }\n}\n\n",
  "sourcePath": "/home/dxuser/Documents/scode/yieldster-vault/contracts/price/PriceModule.sol",
  "compiler": {
    "name": "solc",
    "version": "0.5.17+commit.d19bba13.Emscripten.clang"
  },
  "schemaVersion": "3.4.4",
  "updatedAt": "2022-02-04T04:48:38.898Z",
  "networkType": "ethereum",
  "devdoc": {
    "methods": {}
  },
  "userdoc": {
    "methods": {}
  }
}