{
  "contractName": "ProfitManagementFee",
  "abi": [
    {
      "anonymous": false,
      "inputs": [
        {
          "indexed": true,
          "internalType": "address",
          "name": "owner",
          "type": "address"
        },
        {
          "indexed": true,
          "internalType": "address",
          "name": "spender",
          "type": "address"
        },
        {
          "indexed": false,
          "internalType": "uint256",
          "name": "value",
          "type": "uint256"
        }
      ],
      "name": "Approval",
      "type": "event"
    },
    {
      "anonymous": false,
      "inputs": [
        {
          "indexed": false,
          "internalType": "address",
          "name": "masterCopy",
          "type": "address"
        }
      ],
      "name": "ChangedMasterCopy",
      "type": "event"
    },
    {
      "anonymous": false,
      "inputs": [
        {
          "indexed": true,
          "internalType": "address",
          "name": "from",
          "type": "address"
        },
        {
          "indexed": true,
          "internalType": "address",
          "name": "to",
          "type": "address"
        },
        {
          "indexed": false,
          "internalType": "uint256",
          "name": "value",
          "type": "uint256"
        }
      ],
      "name": "Transfer",
      "type": "event"
    },
    {
      "constant": true,
      "inputs": [],
      "name": "APContract",
      "outputs": [
        {
          "internalType": "address",
          "name": "",
          "type": "address"
        }
      ],
      "payable": false,
      "stateMutability": "view",
      "type": "function"
    },
    {
      "constant": true,
      "inputs": [
        {
          "internalType": "address",
          "name": "owner",
          "type": "address"
        },
        {
          "internalType": "address",
          "name": "spender",
          "type": "address"
        }
      ],
      "name": "allowance",
      "outputs": [
        {
          "internalType": "uint256",
          "name": "",
          "type": "uint256"
        }
      ],
      "payable": false,
      "stateMutability": "view",
      "type": "function"
    },
    {
      "constant": false,
      "inputs": [
        {
          "internalType": "address",
          "name": "spender",
          "type": "address"
        },
        {
          "internalType": "uint256",
          "name": "amount",
          "type": "uint256"
        }
      ],
      "name": "approve",
      "outputs": [
        {
          "internalType": "bool",
          "name": "",
          "type": "bool"
        }
      ],
      "payable": false,
      "stateMutability": "nonpayable",
      "type": "function"
    },
    {
      "constant": true,
      "inputs": [
        {
          "internalType": "address",
          "name": "account",
          "type": "address"
        }
      ],
      "name": "balanceOf",
      "outputs": [
        {
          "internalType": "uint256",
          "name": "",
          "type": "uint256"
        }
      ],
      "payable": false,
      "stateMutability": "view",
      "type": "function"
    },
    {
      "constant": false,
      "inputs": [
        {
          "internalType": "address",
          "name": "_masterCopy",
          "type": "address"
        }
      ],
      "name": "changeMasterCopy",
      "outputs": [],
      "payable": false,
      "stateMutability": "nonpayable",
      "type": "function"
    },
    {
      "constant": true,
      "inputs": [],
      "name": "decimals",
      "outputs": [
        {
          "internalType": "uint8",
          "name": "",
          "type": "uint8"
        }
      ],
      "payable": false,
      "stateMutability": "view",
      "type": "function"
    },
    {
      "constant": false,
      "inputs": [
        {
          "internalType": "address",
          "name": "spender",
          "type": "address"
        },
        {
          "internalType": "uint256",
          "name": "subtractedValue",
          "type": "uint256"
        }
      ],
      "name": "decreaseAllowance",
      "outputs": [
        {
          "internalType": "bool",
          "name": "",
          "type": "bool"
        }
      ],
      "payable": false,
      "stateMutability": "nonpayable",
      "type": "function"
    },
    {
      "constant": true,
      "inputs": [],
      "name": "emergencyConditions",
      "outputs": [
        {
          "internalType": "uint8",
          "name": "",
          "type": "uint8"
        }
      ],
      "payable": false,
      "stateMutability": "view",
      "type": "function"
    },
    {
      "constant": true,
      "inputs": [
        {
          "internalType": "address",
          "name": "_tokenAddress",
          "type": "address"
        }
      ],
      "name": "getTokenBalance",
      "outputs": [
        {
          "internalType": "uint256",
          "name": "",
          "type": "uint256"
        }
      ],
      "payable": false,
      "stateMutability": "view",
      "type": "function"
    },
    {
      "constant": true,
      "inputs": [],
      "name": "getVaultActiveStrategy",
      "outputs": [
        {
          "internalType": "address[]",
          "name": "",
          "type": "address[]"
        }
      ],
      "payable": false,
      "stateMutability": "view",
      "type": "function"
    },
    {
      "constant": true,
      "inputs": [],
      "name": "getVaultNAV",
      "outputs": [
        {
          "internalType": "uint256",
          "name": "",
          "type": "uint256"
        }
      ],
      "payable": false,
      "stateMutability": "view",
      "type": "function"
    },
    {
      "constant": true,
      "inputs": [],
      "name": "getVaultNAVWithoutStrategyToken",
      "outputs": [
        {
          "internalType": "uint256",
          "name": "",
          "type": "uint256"
        }
      ],
      "payable": false,
      "stateMutability": "view",
      "type": "function"
    },
    {
      "constant": false,
      "inputs": [
        {
          "internalType": "address",
          "name": "spender",
          "type": "address"
        },
        {
          "internalType": "uint256",
          "name": "addedValue",
          "type": "uint256"
        }
      ],
      "name": "increaseAllowance",
      "outputs": [
        {
          "internalType": "bool",
          "name": "",
          "type": "bool"
        }
      ],
      "payable": false,
      "stateMutability": "nonpayable",
      "type": "function"
    },
    {
      "constant": true,
      "inputs": [],
      "name": "name",
      "outputs": [
        {
          "internalType": "string",
          "name": "",
          "type": "string"
        }
      ],
      "payable": false,
      "stateMutability": "view",
      "type": "function"
    },
    {
      "constant": false,
      "inputs": [
        {
          "internalType": "address",
          "name": "operator",
          "type": "address"
        },
        {
          "internalType": "address",
          "name": "from",
          "type": "address"
        },
        {
          "internalType": "uint256[]",
          "name": "ids",
          "type": "uint256[]"
        },
        {
          "internalType": "uint256[]",
          "name": "values",
          "type": "uint256[]"
        },
        {
          "internalType": "bytes",
          "name": "data",
          "type": "bytes"
        }
      ],
      "name": "onERC1155BatchReceived",
      "outputs": [
        {
          "internalType": "bytes4",
          "name": "",
          "type": "bytes4"
        }
      ],
      "payable": false,
      "stateMutability": "nonpayable",
      "type": "function"
    },
    {
      "constant": false,
      "inputs": [
        {
          "internalType": "address",
          "name": "operator",
          "type": "address"
        },
        {
          "internalType": "address",
          "name": "from",
          "type": "address"
        },
        {
          "internalType": "uint256",
          "name": "id",
          "type": "uint256"
        },
        {
          "internalType": "uint256",
          "name": "value",
          "type": "uint256"
        },
        {
          "internalType": "bytes",
          "name": "data",
          "type": "bytes"
        }
      ],
      "name": "onERC1155Received",
      "outputs": [
        {
          "internalType": "bytes4",
          "name": "",
          "type": "bytes4"
        }
      ],
      "payable": false,
      "stateMutability": "nonpayable",
      "type": "function"
    },
    {
      "constant": true,
      "inputs": [],
      "name": "owner",
      "outputs": [
        {
          "internalType": "address",
          "name": "",
          "type": "address"
        }
      ],
      "payable": false,
      "stateMutability": "view",
      "type": "function"
    },
    {
      "constant": true,
      "inputs": [
        {
          "internalType": "bytes4",
          "name": "interfaceId",
          "type": "bytes4"
        }
      ],
      "name": "supportsInterface",
      "outputs": [
        {
          "internalType": "bool",
          "name": "",
          "type": "bool"
        }
      ],
      "payable": false,
      "stateMutability": "view",
      "type": "function"
    },
    {
      "constant": true,
      "inputs": [],
      "name": "symbol",
      "outputs": [
        {
          "internalType": "string",
          "name": "",
          "type": "string"
        }
      ],
      "payable": false,
      "stateMutability": "view",
      "type": "function"
    },
    {
      "constant": true,
      "inputs": [],
      "name": "tokenValueInUSD",
      "outputs": [
        {
          "internalType": "uint256",
          "name": "",
          "type": "uint256"
        }
      ],
      "payable": false,
      "stateMutability": "view",
      "type": "function"
    },
    {
      "constant": true,
      "inputs": [],
      "name": "totalSupply",
      "outputs": [
        {
          "internalType": "uint256",
          "name": "",
          "type": "uint256"
        }
      ],
      "payable": false,
      "stateMutability": "view",
      "type": "function"
    },
    {
      "constant": false,
      "inputs": [
        {
          "internalType": "address",
          "name": "recipient",
          "type": "address"
        },
        {
          "internalType": "uint256",
          "name": "amount",
          "type": "uint256"
        }
      ],
      "name": "transfer",
      "outputs": [
        {
          "internalType": "bool",
          "name": "",
          "type": "bool"
        }
      ],
      "payable": false,
      "stateMutability": "nonpayable",
      "type": "function"
    },
    {
      "constant": false,
      "inputs": [
        {
          "internalType": "address",
          "name": "sender",
          "type": "address"
        },
        {
          "internalType": "address",
          "name": "recipient",
          "type": "address"
        },
        {
          "internalType": "uint256",
          "name": "amount",
          "type": "uint256"
        }
      ],
      "name": "transferFrom",
      "outputs": [
        {
          "internalType": "bool",
          "name": "",
          "type": "bool"
        }
      ],
      "payable": false,
      "stateMutability": "nonpayable",
      "type": "function"
    },
    {
      "constant": true,
      "inputs": [],
      "name": "vaultAPSManager",
      "outputs": [
        {
          "internalType": "address",
          "name": "",
          "type": "address"
        }
      ],
      "payable": false,
      "stateMutability": "view",
      "type": "function"
    },
    {
      "constant": true,
      "inputs": [],
      "name": "vaultStrategyManager",
      "outputs": [
        {
          "internalType": "address",
          "name": "",
          "type": "address"
        }
      ],
      "payable": false,
      "stateMutability": "view",
      "type": "function"
    },
    {
      "constant": false,
      "inputs": [],
      "name": "executeSafeCleanUp",
      "outputs": [],
      "payable": false,
      "stateMutability": "nonpayable",
      "type": "function"
    }
  ],
  "bytecode": "0x60806040526100367f01ffc9a7000000000000000000000000000000000000000000000000000000006001600160e01b0361006d16565b6100687f4e2312e0000000000000000000000000000000000000000000000000000000006001600160e01b0361006d16565b61013b565b7fffffffff0000000000000000000000000000000000000000000000000000000080821614156100fe57604080517f08c379a000000000000000000000000000000000000000000000000000000000815260206004820152601c60248201527f4552433136353a20696e76616c696420696e7465726661636520696400000000604482015290519081900360640190fd5b7fffffffff00000000000000000000000000000000000000000000000000000000166000908152600760205260409020805460ff19166001179055565b611e7b8061014a6000396000f3fe608060405234801561001057600080fd5b506004361061018e5760003560e01c80635969326b116100de578063a9059cbb11610097578063b28aaf7d11610071578063b28aaf7d14610499578063bc197c81146104a1578063dd62ed3e146105e5578063f23a6e61146106135761018e565b8063a9059cbb1461040d578063ac221b5c14610439578063ad4653e3146104915761018e565b80635969326b1461037b57806370a08231146103835780637de7edef146103a95780638da5cb5b146103d157806395d89b41146103d9578063a457c2d7146103e15761018e565b80632b27ef661161014b5780633384602711610125578063338460271461031957806339509351146103215780633aecd0e31461034d5780633f514315146103735761018e565b80632b27ef66146102e55780632c9a410514610309578063313ce567146103115761018e565b806301ffc9a71461019357806306fdde03146101ce578063095ea7b31461024b5780630c6a957f1461027757806318160ddd1461029557806323b872dd146102af575b600080fd5b6101ba600480360360208110156101a957600080fd5b50356001600160e01b0319166106a6565b604080519115158252519081900360200190f35b6101d66106c5565b6040805160208082528351818301528351919283929083019185019080838360005b838110156102105781810151838201526020016101f8565b50505050905090810190601f16801561023d5780820380516001836020036101000a031916815260200191505b509250505060405180910390f35b6101ba6004803603604081101561026157600080fd5b506001600160a01b03813516906020013561075c565b61027f61077a565b6040805160ff9092168252519081900360200190f35b61029d610783565b60408051918252519081900360200190f35b6101ba600480360360608110156102c557600080fd5b506001600160a01b03813581169160208101359091169060400135610789565b6102ed610816565b604080516001600160a01b039092168252519081900360200190f35b61029d610825565b61027f610d50565b6102ed610d59565b6101ba6004803603604081101561033757600080fd5b506001600160a01b038135169060200135610d6f565b61029d6004803603602081101561036357600080fd5b50356001600160a01b0316610dc3565b6102ed610e46565b61029d610e55565b61029d6004803603602081101561039957600080fd5b50356001600160a01b0316610ebb565b6103cf600480360360208110156103bf57600080fd5b50356001600160a01b0316610ed6565b005b6102ed610fad565b6101d6610fbc565b6101ba600480360360408110156103f757600080fd5b506001600160a01b03813516906020013561101d565b6101ba6004803603604081101561042357600080fd5b506001600160a01b03813516906020013561108b565b61044161109f565b60408051602080825283518183015283519192839290830191858101910280838360005b8381101561047d578181015183820152602001610465565b505050509050019250505060405180910390f35b6103cf6111bd565b61029d611580565b6105c8600480360360a08110156104b757600080fd5b6001600160a01b038235811692602081013590911691810190606081016040820135600160201b8111156104ea57600080fd5b8201836020820111156104fc57600080fd5b803590602001918460208302840111600160201b8311171561051d57600080fd5b919390929091602081019035600160201b81111561053a57600080fd5b82018360208201111561054c57600080fd5b803590602001918460208302840111600160201b8311171561056d57600080fd5b919390929091602081019035600160201b81111561058a57600080fd5b82018360208201111561059c57600080fd5b803590602001918460018302840111600160201b831117156105bd57600080fd5b509092509050611757565b604080516001600160e01b03199092168252519081900360200190f35b61029d600480360360408110156105fb57600080fd5b506001600160a01b0381358116916020013516611765565b6105c8600480360360a081101561062957600080fd5b6001600160a01b03823581169260208101359091169160408201359160608101359181019060a081016080820135600160201b81111561066857600080fd5b82018360208201111561067a57600080fd5b803590602001918460018302840111600160201b8311171561069b57600080fd5b509092509050611790565b6001600160e01b03191660009081526007602052604090205460ff1690565b60048054604080516020601f60026000196101006001881615020190951694909404938401819004810282018101909252828152606093909290918301828280156107515780601f1061072657610100808354040283529160200191610751565b820191906000526020600020905b81548152906001019060200180831161073457829003601f168201915b505050505090505b90565b600061077061076961179c565b84846117a0565b5060015b92915050565b60085460ff1681565b60035490565b600061079684848461188c565b61080c846107a261179c565b61080785604051806060016040528060288152602001611d85602891396001600160a01b038a166000908152600260205260408120906107e061179c565b6001600160a01b03168152602081019190915260400160002054919063ffffffff6119ea16565b6117a0565b5060019392505050565b600b546001600160a01b031681565b6000606061083161109f565b90506000805b600d54811015610b6a57600f54600d80546000926001600160a01b031691633aecd0e3918590811061086557fe5b60009182526020918290200154604080516001600160e01b031960e086901b1681526001600160a01b0390921660048301525160248083019392829003018186803b1580156108b357600080fd5b505afa1580156108c7573d6000803e3d6000fd5b505050506040513d60208110156108dd57600080fd5b50511115610b6257600854600d8054600092630100000090046001600160a01b031691638b2f0f4f918590811061091057fe5b60009182526020918290200154604080516001600160e01b031960e086901b1681526001600160a01b0390921660048301525160248083019392829003018186803b15801561095e57600080fd5b505afa158015610972573d6000803e3d6000fd5b505050506040513d602081101561098857600080fd5b505160085460408051630b4e5fdd60e31b81529051929350610b5c928492630100000090046001600160a01b031691635a72fee8916004808301926020929190829003018186803b1580156109dc57600080fd5b505afa1580156109f0573d6000803e3d6000fd5b505050506040513d6020811015610a0657600080fd5b5051600d80546001600160a01b039092169163b2809e18919087908110610a2957fe5b600091825260209091200154600f54600d80546001600160a01b039384169390921691633aecd0e391908a908110610a5d57fe5b60009182526020918290200154604080516001600160e01b031960e086901b1681526001600160a01b0390921660048301525160248083019392829003018186803b158015610aab57600080fd5b505afa158015610abf573d6000803e3d6000fd5b505050506040513d6020811015610ad557600080fd5b5051604080516001600160e01b031960e086901b1681526001600160a01b0390931660048401526024830191909152516044808301926020929190829003018186803b158015610b2457600080fd5b505afa158015610b38573d6000803e3d6000fd5b505050506040513d6020811015610b4e57600080fd5b50519063ffffffff611a8116565b83019250505b600101610837565b508151610b9257610b8981670de0b6b3a764000063ffffffff611ae116565b92505050610759565b60005b8251811015610d37576000838281518110610bac57fe5b60200260200101516001600160a01b03166370a08231306040518263ffffffff1660e01b815260040180826001600160a01b03166001600160a01b0316815260200191505060206040518083038186803b158015610c0957600080fd5b505afa158015610c1d573d6000803e3d6000fd5b505050506040513d6020811015610c3357600080fd5b50511115610d2f576000838281518110610c4957fe5b60200260200101516001600160a01b0316635969326b6040518163ffffffff1660e01b815260040160206040518083038186803b158015610c8957600080fd5b505afa158015610c9d573d6000803e3d6000fd5b505050506040513d6020811015610cb357600080fd5b50518451909150610d29908290869085908110610ccc57fe5b60200260200101516001600160a01b03166370a08231306040518263ffffffff1660e01b815260040180826001600160a01b03166001600160a01b0316815260200191505060206040518083038186803b158015610b2457600080fd5b83019250505b600101610b95565b50610b8981670de0b6b3a764000063ffffffff611ae116565b60065460ff1690565b600854630100000090046001600160a01b031681565b6000610770610d7c61179c565b846108078560026000610d8d61179c565b6001600160a01b03908116825260208083019390935260409182016000908120918c16815292529020549063ffffffff611b2316565b600f5460408051633aecd0e360e01b81526001600160a01b03848116600483015291516000939290921691633aecd0e391602480820192602092909190829003018186803b158015610e1457600080fd5b505afa158015610e28573d6000803e3d6000fd5b505050506040513d6020811015610e3e57600080fd5b505192915050565b600a546001600160a01b031681565b6000610e5f610825565b1580610e705750610e6e610783565b155b15610e7d57506000610759565b610eb4610e88610783565b610ea8670de0b6b3a7640000610e9c610825565b9063ffffffff611a8116565b9063ffffffff611ae116565b9050610759565b6001600160a01b031660009081526001602052604090205490565b333014610f145760405162461bcd60e51b815260040180806020018281038252602c815260200180611dd2602c913960400191505060405180910390fd5b6001600160a01b038116610f595760405162461bcd60e51b8152600401808060200182810382526024815260200180611cf86024913960400191505060405180910390fd5b600080546001600160a01b0383166001600160a01b0319909116811790915560408051918252517f75e41bc35ff1bf14d81d1d2f649c0084a0f974f9289c803ec9898eeec4c8d0b89181900360200190a150565b6009546001600160a01b031681565b60058054604080516020601f60026000196101006001881615020190951694909404938401819004810282018101909252828152606093909290918301828280156107515780601f1061072657610100808354040283529160200191610751565b600061077061102a61179c565b8461080785604051806060016040528060258152602001611e22602591396002600061105461179c565b6001600160a01b03908116825260208083019390935260409182016000908120918d1681529252902054919063ffffffff6119ea16565b600061077061109861179c565b848461188c565b6008546040805163387971a160e11b81523060048201529051606092630100000090046001600160a01b0316916370f2e342916024808301926000929190829003018186803b1580156110f157600080fd5b505afa158015611105573d6000803e3d6000fd5b505050506040513d6000823e601f3d908101601f19168201604052602081101561112e57600080fd5b8101908080516040519392919084600160201b82111561114d57600080fd5b90830190602082018581111561116257600080fd5b82518660208202830111600160201b8211171561117e57600080fd5b82525081516020918201928201910280838360005b838110156111ab578181015183820152602001611193565b50505050905001604052505050905090565b60006111c7610825565b9050600f60009054906101000a90046001600160a01b03166001600160a01b03166391718f5c6040518163ffffffff1660e01b815260040160206040518083038186803b15801561121757600080fd5b505afa15801561122b573d6000803e3d6000fd5b505050506040513d602081101561124157600080fd5b505181111561151857600f546040805163245c63d760e21b815290516000926001600160a01b0316916391718f5c916004808301926020929190829003018186803b15801561128f57600080fd5b505afa1580156112a3573d6000803e3d6000fd5b505050506040513d60208110156112b957600080fd5b50516008546040805163387971a160e11b81523060048201529051928503935060609263010000009092046001600160a01b0316916370f2e34291602480820192600092909190829003018186803b15801561131457600080fd5b505afa158015611328573d6000803e3d6000fd5b505050506040513d6000823e601f3d908101601f19168201604052602081101561135157600080fd5b8101908080516040519392919084600160201b82111561137057600080fd5b90830190602082018581111561138557600080fd5b82518660208202830111600160201b821117156113a157600080fd5b82525081516020918201928201910280838360005b838110156113ce5781810151838201526020016113b6565b50505050905001604052505050905060008090505b815181101561151457600080600860039054906101000a90046001600160a01b03166001600160a01b031663aa9bb5d43086868151811061142057fe5b60200260200101516040518363ffffffff1660e01b815260040180836001600160a01b03166001600160a01b03168152602001826001600160a01b03166001600160a01b0316815260200192505050604080518083038186803b15801561148657600080fd5b505afa15801561149a573d6000803e3d6000fd5b505050506040513d60408110156114b057600080fd5b508051602090910151909250905060006114dc670de0b6b3a7640000610ea8888563ffffffff611a8116565b905060006114f86114eb610e55565b839063ffffffff611ae116565b90506115048482611b7d565b5050600190920191506113e39050565b5050505b600f5460408051631b9420c160e31b81526004810184905290516001600160a01b039092169163dca106089160248082019260009290919082900301818387803b15801561156557600080fd5b505af1158015611579573d6000803e3d6000fd5b5050505050565b600080805b600d5481101561173857600f54600d80546000926001600160a01b031691633aecd0e391859081106115b357fe5b60009182526020918290200154604080516001600160e01b031960e086901b1681526001600160a01b0390921660048301525160248083019392829003018186803b15801561160157600080fd5b505afa158015611615573d6000803e3d6000fd5b505050506040513d602081101561162b57600080fd5b5051111561173057600854600d8054600092630100000090046001600160a01b031691638b2f0f4f918590811061165e57fe5b60009182526020918290200154604080516001600160e01b031960e086901b1681526001600160a01b0390921660048301525160248083019392829003018186803b1580156116ac57600080fd5b505afa1580156116c0573d6000803e3d6000fd5b505050506040513d60208110156116d657600080fd5b505160085460408051630b4e5fdd60e31b8152905192935061172a928492630100000090046001600160a01b031691635a72fee8916004808301926020929190829003018186803b1580156109dc57600080fd5b83019250505b600101611585565b5061175181670de0b6b3a764000063ffffffff611ae116565b91505090565b600098975050505050505050565b6001600160a01b03918216600090815260026020908152604080832093909416825291909152205490565b60009695505050505050565b3390565b6001600160a01b0383166117e55760405162461bcd60e51b8152600401808060200182810382526024815260200180611dfe6024913960400191505060405180910390fd5b6001600160a01b03821661182a5760405162461bcd60e51b8152600401808060200182810382526022815260200180611d1c6022913960400191505060405180910390fd5b6001600160a01b03808416600081815260026020908152604080832094871680845294825291829020859055815185815291517f8c5be1e5ebec7d5bd14f71427d1e84f3dd0314c0f7b2291e5b200ac8c7c3b9259281900390910190a3505050565b6001600160a01b0383166118d15760405162461bcd60e51b8152600401808060200182810382526025815260200180611dad6025913960400191505060405180910390fd5b6001600160a01b0382166119165760405162461bcd60e51b8152600401808060200182810382526023815260200180611cd56023913960400191505060405180910390fd5b61195981604051806060016040528060268152602001611d3e602691396001600160a01b038616600090815260016020526040902054919063ffffffff6119ea16565b6001600160a01b03808516600090815260016020526040808220939093559084168152205461198e908263ffffffff611b2316565b6001600160a01b0380841660008181526001602090815260409182902094909455805185815290519193928716927fddf252ad1be2c89b69c2b068fc378daa952ba7f163c4a11628f55a4df523b3ef92918290030190a3505050565b60008184841115611a795760405162461bcd60e51b81526004018080602001828103825283818151815260200191508051906020019080838360005b83811015611a3e578181015183820152602001611a26565b50505050905090810190601f168015611a6b5780820380516001836020036101000a031916815260200191505b509250505060405180910390fd5b505050900390565b600082611a9057506000610774565b82820282848281611a9d57fe5b0414611ada5760405162461bcd60e51b8152600401808060200182810382526021815260200180611d646021913960400191505060405180910390fd5b9392505050565b6000611ada83836040518060400160405280601a81526020017f536166654d6174683a206469766973696f6e206279207a65726f000000000000815250611c6f565b600082820183811015611ada576040805162461bcd60e51b815260206004820152601b60248201527f536166654d6174683a206164646974696f6e206f766572666c6f770000000000604482015290519081900360640190fd5b6001600160a01b038216611bd8576040805162461bcd60e51b815260206004820152601f60248201527f45524332303a206d696e7420746f20746865207a65726f206164647265737300604482015290519081900360640190fd5b600354611beb908263ffffffff611b2316565b6003556001600160a01b038216600090815260016020526040902054611c17908263ffffffff611b2316565b6001600160a01b03831660008181526001602090815260408083209490945583518581529351929391927fddf252ad1be2c89b69c2b068fc378daa952ba7f163c4a11628f55a4df523b3ef9281900390910190a35050565b60008183611cbe5760405162461bcd60e51b8152602060048201818152835160248401528351909283926044909101919085019080838360008315611a3e578181015183820152602001611a26565b506000838581611cca57fe5b049594505050505056fe45524332303a207472616e7366657220746f20746865207a65726f2061646472657373496e76616c6964206d617374657220636f707920616464726573732070726f766964656445524332303a20617070726f766520746f20746865207a65726f206164647265737345524332303a207472616e7366657220616d6f756e7420657863656564732062616c616e6365536166654d6174683a206d756c7469706c69636174696f6e206f766572666c6f7745524332303a207472616e7366657220616d6f756e74206578636565647320616c6c6f77616e636545524332303a207472616e736665722066726f6d20746865207a65726f20616464726573734d6574686f642063616e206f6e6c792062652063616c6c65642066726f6d207468697320636f6e747261637445524332303a20617070726f76652066726f6d20746865207a65726f206164647265737345524332303a2064656372656173656420616c6c6f77616e63652062656c6f77207a65726fa265627a7a723158209946996958e963b993d06d41cf5e6a157eedef8fec03df28b4a9875213c0e39764736f6c63430005110032",
  "source": "pragma solidity >=0.5.0 <0.7.0;\nimport \"../storage/VaultStorage.sol\";\n\ncontract ProfitManagementFee is VaultStorage {\n    function executeSafeCleanUp() public {\n        uint256 currentVaultNAV = getVaultNAV();\n        if (currentVaultNAV > tokenBalances.getLastTransactionNav()) {\n            uint256 profit = currentVaultNAV -\n                tokenBalances.getLastTransactionNav();\n            address[] memory strategies = IAPContract(APContract)\n            .getVaultActiveStrategy(address(this));\n\n            for (uint256 i = 0; i < strategies.length; i++) {\n                (address benefeciary, uint256 percentage) = IAPContract(\n                    APContract\n                ).getStrategyManagementDetails(address(this), strategies[i]);\n                uint256 fee = (profit.mul(percentage)).div(1e18);\n                uint256 tokensTobeMinted = fee.div(tokenValueInUSD());\n                _mint(benefeciary, tokensTobeMinted);\n            }\n        }\n        tokenBalances.setLastTransactionNav(currentVaultNAV);\n    }\n}\n",
  "sourcePath": "/home/dxuser/Documents/scode/yieldster-vault/contracts/delegateContracts/ProfitManagementFee.sol",
  "compiler": {
    "name": "solc",
    "version": "0.5.17+commit.d19bba13.Emscripten.clang"
  },
  "schemaVersion": "3.4.4",
  "updatedAt": "2022-02-04T04:47:14.766Z",
  "devdoc": {
    "methods": {
      "allowance(address,address)": {
        "details": "See {IERC20-allowance}."
      },
      "approve(address,uint256)": {
        "details": "See {IERC20-approve}.     * Requirements:     * - `spender` cannot be the zero address."
      },
      "balanceOf(address)": {
        "details": "See {IERC20-balanceOf}."
      },
      "changeMasterCopy(address)": {
        "details": "Allows to upgrade the contract. This can only be done via a Safe transaction.",
        "params": {
          "_masterCopy": "New contract address."
        }
      },
      "decimals()": {
        "details": "Returns the number of decimals used to get its user representation. For example, if `decimals` equals `2`, a balance of `505` tokens should be displayed to a user as `5,05` (`505 / 10 ** 2`).     * Tokens usually opt for a value of 18, imitating the relationship between Ether and Wei.     * NOTE: This information is only used for _display_ purposes: it in no way affects any of the arithmetic of the contract, including {IERC20-balanceOf} and {IERC20-transfer}."
      },
      "decreaseAllowance(address,uint256)": {
        "details": "Atomically decreases the allowance granted to `spender` by the caller.     * This is an alternative to {approve} that can be used as a mitigation for problems described in {IERC20-approve}.     * Emits an {Approval} event indicating the updated allowance.     * Requirements:     * - `spender` cannot be the zero address. - `spender` must have allowance for the caller of at least `subtractedValue`."
      },
      "getVaultActiveStrategy()": {
        "details": "Function to get the address of active strategy in the vault."
      },
      "getVaultNAV()": {
        "details": "Function to return the NAV of the Vault."
      },
      "getVaultNAVWithoutStrategyToken()": {
        "details": "Function to return the NAV of the Vault excluding Strategy Tokens."
      },
      "increaseAllowance(address,uint256)": {
        "details": "Atomically increases the allowance granted to `spender` by the caller.     * This is an alternative to {approve} that can be used as a mitigation for problems described in {IERC20-approve}.     * Emits an {Approval} event indicating the updated allowance.     * Requirements:     * - `spender` cannot be the zero address."
      },
      "name()": {
        "details": "Returns the name of the token."
      },
      "supportsInterface(bytes4)": {
        "details": "See {IERC165-supportsInterface}.     * Time complexity O(1), guaranteed to always use less than 30 000 gas."
      },
      "symbol()": {
        "details": "Returns the symbol of the token, usually a shorter version of the name."
      },
      "tokenValueInUSD()": {
        "details": "Function to return Value of the Vault Token."
      },
      "totalSupply()": {
        "details": "See {IERC20-totalSupply}."
      },
      "transfer(address,uint256)": {
        "details": "See {IERC20-transfer}.     * Requirements:     * - `recipient` cannot be the zero address. - the caller must have a balance of at least `amount`."
      },
      "transferFrom(address,address,uint256)": {
        "details": "See {IERC20-transferFrom}.     * Emits an {Approval} event indicating the updated allowance. This is not required by the EIP. See the note at the beginning of {ERC20};     * Requirements: - `sender` and `recipient` cannot be the zero address. - `sender` must have a balance of at least `amount`. - the caller must have allowance for `sender`'s tokens of at least `amount`."
      }
    }
  },
  "userdoc": {
    "methods": {}
  }
}