{
  "contractName": "SafeMinter",
  "abi": [
    {
      "inputs": [
        {
          "internalType": "address",
          "name": "_executor",
          "type": "address"
        }
      ],
      "payable": false,
      "stateMutability": "nonpayable",
      "type": "constructor"
    },
    {
      "anonymous": false,
      "inputs": [
        {
          "indexed": true,
          "internalType": "address",
          "name": "account",
          "type": "address"
        },
        {
          "indexed": true,
          "internalType": "address",
          "name": "operator",
          "type": "address"
        },
        {
          "indexed": false,
          "internalType": "bool",
          "name": "approved",
          "type": "bool"
        }
      ],
      "name": "ApprovalForAll",
      "type": "event"
    },
    {
      "anonymous": false,
      "inputs": [
        {
          "indexed": true,
          "internalType": "address",
          "name": "operator",
          "type": "address"
        },
        {
          "indexed": true,
          "internalType": "address",
          "name": "from",
          "type": "address"
        },
        {
          "indexed": true,
          "internalType": "address",
          "name": "to",
          "type": "address"
        },
        {
          "indexed": false,
          "internalType": "uint256[]",
          "name": "ids",
          "type": "uint256[]"
        },
        {
          "indexed": false,
          "internalType": "uint256[]",
          "name": "values",
          "type": "uint256[]"
        }
      ],
      "name": "TransferBatch",
      "type": "event"
    },
    {
      "anonymous": false,
      "inputs": [
        {
          "indexed": true,
          "internalType": "address",
          "name": "operator",
          "type": "address"
        },
        {
          "indexed": true,
          "internalType": "address",
          "name": "from",
          "type": "address"
        },
        {
          "indexed": true,
          "internalType": "address",
          "name": "to",
          "type": "address"
        },
        {
          "indexed": false,
          "internalType": "uint256",
          "name": "id",
          "type": "uint256"
        },
        {
          "indexed": false,
          "internalType": "uint256",
          "name": "value",
          "type": "uint256"
        }
      ],
      "name": "TransferSingle",
      "type": "event"
    },
    {
      "anonymous": false,
      "inputs": [
        {
          "indexed": false,
          "internalType": "string",
          "name": "value",
          "type": "string"
        },
        {
          "indexed": true,
          "internalType": "uint256",
          "name": "id",
          "type": "uint256"
        }
      ],
      "name": "URI",
      "type": "event"
    },
    {
      "constant": true,
      "inputs": [
        {
          "internalType": "address",
          "name": "account",
          "type": "address"
        },
        {
          "internalType": "uint256",
          "name": "id",
          "type": "uint256"
        }
      ],
      "name": "balanceOf",
      "outputs": [
        {
          "internalType": "uint256",
          "name": "",
          "type": "uint256"
        }
      ],
      "payable": false,
      "stateMutability": "view",
      "type": "function"
    },
    {
      "constant": true,
      "inputs": [
        {
          "internalType": "address[]",
          "name": "accounts",
          "type": "address[]"
        },
        {
          "internalType": "uint256[]",
          "name": "ids",
          "type": "uint256[]"
        }
      ],
      "name": "balanceOfBatch",
      "outputs": [
        {
          "internalType": "uint256[]",
          "name": "",
          "type": "uint256[]"
        }
      ],
      "payable": false,
      "stateMutability": "view",
      "type": "function"
    },
    {
      "constant": true,
      "inputs": [],
      "name": "executor",
      "outputs": [
        {
          "internalType": "address",
          "name": "",
          "type": "address"
        }
      ],
      "payable": false,
      "stateMutability": "view",
      "type": "function"
    },
    {
      "constant": true,
      "inputs": [
        {
          "internalType": "address",
          "name": "account",
          "type": "address"
        },
        {
          "internalType": "address",
          "name": "operator",
          "type": "address"
        }
      ],
      "name": "isApprovedForAll",
      "outputs": [
        {
          "internalType": "bool",
          "name": "",
          "type": "bool"
        }
      ],
      "payable": false,
      "stateMutability": "view",
      "type": "function"
    },
    {
      "constant": true,
      "inputs": [],
      "name": "owner",
      "outputs": [
        {
          "internalType": "address",
          "name": "",
          "type": "address"
        }
      ],
      "payable": false,
      "stateMutability": "view",
      "type": "function"
    },
    {
      "constant": false,
      "inputs": [
        {
          "internalType": "address",
          "name": "from",
          "type": "address"
        },
        {
          "internalType": "address",
          "name": "to",
          "type": "address"
        },
        {
          "internalType": "uint256[]",
          "name": "ids",
          "type": "uint256[]"
        },
        {
          "internalType": "uint256[]",
          "name": "amounts",
          "type": "uint256[]"
        },
        {
          "internalType": "bytes",
          "name": "data",
          "type": "bytes"
        }
      ],
      "name": "safeBatchTransferFrom",
      "outputs": [],
      "payable": false,
      "stateMutability": "nonpayable",
      "type": "function"
    },
    {
      "constant": false,
      "inputs": [
        {
          "internalType": "address",
          "name": "from",
          "type": "address"
        },
        {
          "internalType": "address",
          "name": "to",
          "type": "address"
        },
        {
          "internalType": "uint256",
          "name": "id",
          "type": "uint256"
        },
        {
          "internalType": "uint256",
          "name": "amount",
          "type": "uint256"
        },
        {
          "internalType": "bytes",
          "name": "data",
          "type": "bytes"
        }
      ],
      "name": "safeTransferFrom",
      "outputs": [],
      "payable": false,
      "stateMutability": "nonpayable",
      "type": "function"
    },
    {
      "constant": false,
      "inputs": [
        {
          "internalType": "address",
          "name": "operator",
          "type": "address"
        },
        {
          "internalType": "bool",
          "name": "approved",
          "type": "bool"
        }
      ],
      "name": "setApprovalForAll",
      "outputs": [],
      "payable": false,
      "stateMutability": "nonpayable",
      "type": "function"
    },
    {
      "constant": true,
      "inputs": [
        {
          "internalType": "bytes4",
          "name": "interfaceId",
          "type": "bytes4"
        }
      ],
      "name": "supportsInterface",
      "outputs": [
        {
          "internalType": "bool",
          "name": "",
          "type": "bool"
        }
      ],
      "payable": false,
      "stateMutability": "view",
      "type": "function"
    },
    {
      "constant": true,
      "inputs": [
        {
          "internalType": "uint256",
          "name": "",
          "type": "uint256"
        }
      ],
      "name": "uri",
      "outputs": [
        {
          "internalType": "string",
          "name": "",
          "type": "string"
        }
      ],
      "payable": false,
      "stateMutability": "view",
      "type": "function"
    },
    {
      "constant": false,
      "inputs": [
        {
          "internalType": "address",
          "name": "safeAddress",
          "type": "address"
        },
        {
          "internalType": "bytes",
          "name": "instruction",
          "type": "bytes"
        }
      ],
      "name": "mintStrategy",
      "outputs": [],
      "payable": false,
      "stateMutability": "nonpayable",
      "type": "function"
    },
    {
      "constant": false,
      "inputs": [
        {
          "internalType": "address",
          "name": "_executor",
          "type": "address"
        }
      ],
      "name": "setExecutor",
      "outputs": [],
      "payable": false,
      "stateMutability": "nonpayable",
      "type": "function"
    }
  ],
  "bytecode": "0x60806040523480156200001157600080fd5b5060405162001a9e38038062001a9e833981810160405260208110156200003757600080fd5b50516040805160608101909152602e80825262001a706020830139620000867f01ffc9a7000000000000000000000000000000000000000000000000000000006001600160e01b036200013716565b6200009a816001600160e01b036200020616565b620000ce7fd9b67a26000000000000000000000000000000000000000000000000000000006001600160e01b036200013716565b620001027f0e89341c000000000000000000000000000000000000000000000000000000006001600160e01b036200013716565b5060048054336001600160a01b031991821617909155600580549091166001600160a01b0392909216919091179055620002c4565b7fffffffff000000000000000000000000000000000000000000000000000000008082161415620001c957604080517f08c379a000000000000000000000000000000000000000000000000000000000815260206004820152601c60248201527f4552433136353a20696e76616c696420696e7465726661636520696400000000604482015290519081900360640190fd5b7fffffffff00000000000000000000000000000000000000000000000000000000166000908152602081905260409020805460ff19166001179055565b80516200021b9060039060208401906200021f565b5050565b828054600181600116156101000203166002900490600052602060002090601f016020900481019282601f106200026257805160ff191683800117855562000292565b8280016001018555821562000292579182015b828111156200029257825182559160200191906001019062000275565b50620002a0929150620002a4565b5090565b620002c191905b80821115620002a05760008155600101620002ab565b90565b61179c80620002d46000396000f3fe608060405234801561001057600080fd5b50600436106100b35760003560e01c80637f82e197116100715780637f82e1971461051f5780638da5cb5b146105d3578063a22cb465146105f7578063c34c08e514610625578063e985e9c51461062d578063f242432a1461065b576100b3565b8062fdd58e146100b857806301ffc9a7146100f65780630e89341c146101315780631c3c0ea8146101c35780632eb2c2d6146101eb5780634e1273f4146103ac575b600080fd5b6100e4600480360360408110156100ce57600080fd5b506001600160a01b038135169060200135610724565b60408051918252519081900360200190f35b61011d6004803603602081101561010c57600080fd5b50356001600160e01b031916610793565b604080519115158252519081900360200190f35b61014e6004803603602081101561014757600080fd5b50356107b2565b6040805160208082528351818301528351919283929083019185019080838360005b83811015610188578181015183820152602001610170565b50505050905090810190601f1680156101b55780820380516001836020036101000a031916815260200191505b509250505060405180910390f35b6101e9600480360360208110156101d957600080fd5b50356001600160a01b031661084a565b005b6101e9600480360360a081101561020157600080fd5b6001600160a01b038235811692602081013590911691810190606081016040820135600160201b81111561023457600080fd5b82018360208201111561024657600080fd5b803590602001918460208302840111600160201b8311171561026757600080fd5b9190808060200260200160405190810160405280939291908181526020018383602002808284376000920191909152509295949360208101935035915050600160201b8111156102b657600080fd5b8201836020820111156102c857600080fd5b803590602001918460208302840111600160201b831117156102e957600080fd5b9190808060200260200160405190810160405280939291908181526020018383602002808284376000920191909152509295949360208101935035915050600160201b81111561033857600080fd5b82018360208201111561034a57600080fd5b803590602001918460018302840111600160201b8311171561036b57600080fd5b91908080601f0160208091040260200160405190810160405280939291908181526020018383808284376000920191909152509295506108bc945050505050565b6104cf600480360360408110156103c257600080fd5b810190602081018135600160201b8111156103dc57600080fd5b8201836020820111156103ee57600080fd5b803590602001918460208302840111600160201b8311171561040f57600080fd5b9190808060200260200160405190810160405280939291908181526020018383602002808284376000920191909152509295949360208101935035915050600160201b81111561045e57600080fd5b82018360208201111561047057600080fd5b803590602001918460208302840111600160201b8311171561049157600080fd5b919080806020026020016040519081016040528093929190818152602001838360200280828437600092019190915250929550610bba945050505050565b60408051602080825283518183015283519192839290830191858101910280838360005b8381101561050b5781810151838201526020016104f3565b505050509050019250505060405180910390f35b6101e96004803603604081101561053557600080fd5b6001600160a01b038235169190810190604081016020820135600160201b81111561055f57600080fd5b82018360208201111561057157600080fd5b803590602001918460018302840111600160201b8311171561059257600080fd5b91908080601f016020809104026020016040519081016040528093929190818152602001838380828437600092019190915250929550610c8f945050505050565b6105db610cf8565b604080516001600160a01b039092168252519081900360200190f35b6101e96004803603604081101561060d57600080fd5b506001600160a01b0381351690602001351515610d07565b6105db610df6565b61011d6004803603604081101561064357600080fd5b506001600160a01b0381358116916020013516610e05565b6101e9600480360360a081101561067157600080fd5b6001600160a01b03823581169260208101359091169160408201359160608101359181019060a081016080820135600160201b8111156106b057600080fd5b8201836020820111156106c257600080fd5b803590602001918460018302840111600160201b831117156106e357600080fd5b91908080601f016020809104026020016040519081016040528093929190818152602001838380828437600092019190915250929550610e33945050505050565b60006001600160a01b03831661076b5760405162461bcd60e51b815260040180806020018281038252602b8152602001806115f8602b913960400191505060405180910390fd5b5060009081526001602090815260408083206001600160a01b03949094168352929052205490565b6001600160e01b03191660009081526020819052604090205460ff1690565b60038054604080516020601f600260001961010060018816150201909516949094049384018190048102820181019092528281526060939092909183018282801561083e5780601f106108135761010080835404028352916020019161083e565b820191906000526020600020905b81548152906001019060200180831161082157829003601f168201915b50505050509050919050565b6004546001600160a01b0316331461089a576040805162461bcd60e51b815260206004820152600e60248201526d139bdd08105d5d1a1bdc9a5e995960921b604482015290519081900360640190fd5b600580546001600160a01b0319166001600160a01b0392909216919091179055565b81518351146108fc5760405162461bcd60e51b815260040180806020018281038252602881526020018061171f6028913960400191505060405180910390fd5b6001600160a01b0384166109415760405162461bcd60e51b815260040180806020018281038252602581526020018061164c6025913960400191505060405180910390fd5b610949611004565b6001600160a01b0316856001600160a01b0316148061097457506109748561096f611004565b610e05565b6109af5760405162461bcd60e51b81526004018080602001828103825260328152602001806116716032913960400191505060405180910390fd5b60006109b9611004565b90506109c9818787878787610bb2565b60005b8451811015610aca5760008582815181106109e357fe5b6020026020010151905060008583815181106109fb57fe5b60200260200101519050610a68816040518060600160405280602a81526020016116a3602a91396001600086815260200190815260200160002060008d6001600160a01b03166001600160a01b03168152602001908152602001600020546110089092919063ffffffff16565b60008381526001602090815260408083206001600160a01b038e811685529252808320939093558a1681522054610a9f908261109f565b60009283526001602081815260408086206001600160a01b038d1687529091529093205550016109cc565b50846001600160a01b0316866001600160a01b0316826001600160a01b03167f4a39dc06d4c0dbc64b70af90fd698a233a518aa5d07e595d983b8c0526c8f7fb8787604051808060200180602001838103835285818151815260200191508051906020019060200280838360005b83811015610b50578181015183820152602001610b38565b50505050905001838103825284818151815260200191508051906020019060200280838360005b83811015610b8f578181015183820152602001610b77565b5050505090500194505050505060405180910390a4610bb2818787878787611100565b505050505050565b60608151835114610bfc5760405162461bcd60e51b81526004018080602001828103825260298152602001806116f66029913960400191505060405180910390fd5b60608351604051908082528060200260200182016040528015610c29578160200160208202803883390190505b50905060005b8451811015610c8757610c68858281518110610c4757fe5b6020026020010151858381518110610c5b57fe5b6020026020010151610724565b828281518110610c7457fe5b6020908102919091010152600101610c2f565b509392505050565b6005546001600160a01b03163314610cdf576040805162461bcd60e51b815260206004820152600e60248201526d139bdd08105d5d1a1bdc9a5e995960921b604482015290519081900360640190fd5b610cf4826000670de0b6b3a764000084611307565b5050565b6004546001600160a01b031681565b816001600160a01b0316610d19611004565b6001600160a01b03161415610d5f5760405162461bcd60e51b81526004018080602001828103825260298152602001806116cd6029913960400191505060405180910390fd5b8060026000610d6c611004565b6001600160a01b03908116825260208083019390935260409182016000908120918716808252919093529120805460ff191692151592909217909155610db0611004565b60408051841515815290516001600160a01b0392909216917f17307eab39ab6107e8899845ad3d59bd9653f200f220920489ca2b5937696c319181900360200190a35050565b6005546001600160a01b031681565b6001600160a01b03918216600090815260026020908152604080832093909416825291909152205460ff1690565b6001600160a01b038416610e785760405162461bcd60e51b815260040180806020018281038252602581526020018061164c6025913960400191505060405180910390fd5b610e80611004565b6001600160a01b0316856001600160a01b03161480610ea65750610ea68561096f611004565b610ee15760405162461bcd60e51b81526004018080602001828103825260298152602001806116236029913960400191505060405180910390fd5b6000610eeb611004565b9050610f0b818787610efc88611415565b610f0588611415565b87610bb2565b610f58836040518060600160405280602a81526020016116a3602a913960008781526001602090815260408083206001600160a01b038d168452909152902054919063ffffffff61100816565b60008581526001602090815260408083206001600160a01b038b81168552925280832093909355871681522054610f8f908461109f565b60008581526001602090815260408083206001600160a01b03808b168086529184529382902094909455805188815291820187905280518a8416938616927fc3d58168c5ae7397731d063d5bbf3d657854427343f4c083240f7aacaa2d0f6292908290030190a4610bb2818787878787611459565b3390565b600081848411156110975760405162461bcd60e51b81526004018080602001828103825283818151815260200191508051906020019080838360005b8381101561105c578181015183820152602001611044565b50505050905090810190601f1680156110895780820380516001836020036101000a031916815260200191505b509250505060405180910390fd5b505050900390565b6000828201838110156110f9576040805162461bcd60e51b815260206004820152601b60248201527f536166654d6174683a206164646974696f6e206f766572666c6f770000000000604482015290519081900360640190fd5b9392505050565b611112846001600160a01b0316611593565b15610bb2576000846001600160a01b031663bc197c8188888787876040518663ffffffff1660e01b815260040180866001600160a01b03166001600160a01b03168152602001856001600160a01b03166001600160a01b03168152602001806020018060200180602001848103845287818151815260200191508051906020019060200280838360005b838110156111b457818101518382015260200161119c565b50505050905001848103835286818151815260200191508051906020019060200280838360005b838110156111f35781810151838201526020016111db565b50505050905001848103825285818151815260200191508051906020019080838360005b8381101561122f578181015183820152602001611217565b50505050905090810190601f16801561125c5780820380516001836020036101000a031916815260200191505b5098505050505050505050602060405180830381600087803b15801561128157600080fd5b505af1158015611295573d6000803e3d6000fd5b505050506040513d60208110156112ab57600080fd5b505190506001600160e01b0319811663bc197c8160e01b146112fe5760405162461bcd60e51b81526004018080602001828103825260288152602001806115d06028913960400191505060405180910390fd5b50505050505050565b6001600160a01b03841661134c5760405162461bcd60e51b81526004018080602001828103825260218152602001806117476021913960400191505060405180910390fd5b6000611356611004565b905061136881600087610efc88611415565b60008481526001602090815260408083206001600160a01b038916845290915290205461139b908463ffffffff61109f16565b60008581526001602090815260408083206001600160a01b03808b16808652918452828520959095558151898152928301889052815190948616927fc3d58168c5ae7397731d063d5bbf3d657854427343f4c083240f7aacaa2d0f6292908290030190a461140e81600087878787611459565b5050505050565b60408051600180825281830190925260609182919060208083019080388339019050509050828160008151811061144857fe5b602090810291909101015292915050565b61146b846001600160a01b0316611593565b15610bb2576000846001600160a01b031663f23a6e6188888787876040518663ffffffff1660e01b815260040180866001600160a01b03166001600160a01b03168152602001856001600160a01b03166001600160a01b0316815260200184815260200183815260200180602001828103825283818151815260200191508051906020019080838360005b8381101561150e5781810151838201526020016114f6565b50505050905090810190601f16801561153b5780820380516001836020036101000a031916815260200191505b509650505050505050602060405180830381600087803b15801561155e57600080fd5b505af1158015611572573d6000803e3d6000fd5b505050506040513d602081101561158857600080fd5b505050505050505050565b6000813f7fc5d2460186f7233c927e7db2dcc703c0e500b653ca82273b7bfad8045d85a4708181148015906115c757508115155b94935050505056fe455243313135353a204552433131353552656365697665722072656a656374656420746f6b656e73455243313135353a2062616c616e636520717565727920666f7220746865207a65726f2061646472657373455243313135353a2063616c6c6572206973206e6f74206f776e6572206e6f7220617070726f766564455243313135353a207472616e7366657220746f20746865207a65726f2061646472657373455243313135353a207472616e736665722063616c6c6572206973206e6f74206f776e6572206e6f7220617070726f766564455243313135353a20696e73756666696369656e742062616c616e636520666f72207472616e73666572455243313135353a2073657474696e6720617070726f76616c2073746174757320666f722073656c66455243313135353a206163636f756e747320616e6420696473206c656e677468206d69736d61746368455243313135353a2069647320616e6420616d6f756e7473206c656e677468206d69736d61746368455243313135353a206d696e7420746f20746865207a65726f2061646472657373a265627a7a723158207b8489327d46089302203be297442f4d89176c816213e5e5e674f12aecacd70e64736f6c6343000511003268747470733a2f2f7969656c64737465722e66696e616e63652f7661756c742f6d6574612f7b69647d2e6a736f6e",
  "source": "pragma solidity >=0.5.0 <0.8.0;\nimport \"../token/ERC1155/ERC1155.sol\";\nimport \"../interfaces/IAPContract.sol\";\n\ncontract SafeMinter is ERC1155 {\n    address public owner;\n    address public executor;\n\n    constructor(address _executor)\n        public\n        ERC1155(\"https://yieldster.finance/vault/meta/{id}.json\")\n    {\n        owner = msg.sender;\n        executor = _executor;\n    }\n\n    function mintStrategy(address safeAddress, bytes memory instruction)\n        public\n    {\n        require(executor == msg.sender, \"Not Authorized\");\n        _mint(safeAddress, 0, 10**18, instruction);\n    }\n\n    function setExecutor(address _executor) public {\n        require(msg.sender == owner, \"Not Authorized\");\n        executor = _executor;\n    }\n}\n",
  "sourcePath": "/home/dxuser/Documents/scode/yieldster-vault/contracts/safeUtils/safeMinter.sol",
  "compiler": {
    "name": "solc",
    "version": "0.5.17+commit.d19bba13.Emscripten.clang"
  },
  "schemaVersion": "3.4.4",
  "updatedAt": "2022-02-04T04:48:38.842Z",
  "networkType": "ethereum",
  "devdoc": {
    "methods": {
      "balanceOf(address,uint256)": {
        "details": "See {IERC1155-balanceOf}.     * Requirements:     * - `account` cannot be the zero address."
      },
      "balanceOfBatch(address[],uint256[])": {
        "details": "See {IERC1155-balanceOfBatch}.     * Requirements:     * - `accounts` and `ids` must have the same length."
      },
      "isApprovedForAll(address,address)": {
        "details": "See {IERC1155-isApprovedForAll}."
      },
      "safeBatchTransferFrom(address,address,uint256[],uint256[],bytes)": {
        "details": "See {IERC1155-safeBatchTransferFrom}."
      },
      "safeTransferFrom(address,address,uint256,uint256,bytes)": {
        "details": "See {IERC1155-safeTransferFrom}."
      },
      "setApprovalForAll(address,bool)": {
        "details": "See {IERC1155-setApprovalForAll}."
      },
      "supportsInterface(bytes4)": {
        "details": "See {IERC165-supportsInterface}.     * Time complexity O(1), guaranteed to always use less than 30 000 gas."
      },
      "uri(uint256)": {
        "details": "See {IERC1155MetadataURI-uri}.     * This implementation returns the same URI for *all* token types. It relies on the token type ID substitution mechanism https://eips.ethereum.org/EIPS/eip-1155#metadata[defined in the EIP].     * Clients calling this function must replace the `\\{id\\}` substring with the actual token type ID."
      }
    }
  },
  "userdoc": {
    "methods": {}
  }
}