{
  "contractName": "SafeUtils",
  "abi": [
    {
      "anonymous": false,
      "inputs": [
        {
          "indexed": true,
          "internalType": "address",
          "name": "owner",
          "type": "address"
        },
        {
          "indexed": true,
          "internalType": "address",
          "name": "spender",
          "type": "address"
        },
        {
          "indexed": false,
          "internalType": "uint256",
          "name": "value",
          "type": "uint256"
        }
      ],
      "name": "Approval",
      "type": "event"
    },
    {
      "anonymous": false,
      "inputs": [
        {
          "indexed": false,
          "internalType": "address",
          "name": "masterCopy",
          "type": "address"
        }
      ],
      "name": "ChangedMasterCopy",
      "type": "event"
    },
    {
      "anonymous": false,
      "inputs": [
        {
          "indexed": true,
          "internalType": "address",
          "name": "from",
          "type": "address"
        },
        {
          "indexed": true,
          "internalType": "address",
          "name": "to",
          "type": "address"
        },
        {
          "indexed": false,
          "internalType": "uint256",
          "name": "value",
          "type": "uint256"
        }
      ],
      "name": "Transfer",
      "type": "event"
    },
    {
      "constant": true,
      "inputs": [],
      "name": "APContract",
      "outputs": [
        {
          "internalType": "address",
          "name": "",
          "type": "address"
        }
      ],
      "payable": false,
      "stateMutability": "view",
      "type": "function"
    },
    {
      "constant": true,
      "inputs": [
        {
          "internalType": "address",
          "name": "owner",
          "type": "address"
        },
        {
          "internalType": "address",
          "name": "spender",
          "type": "address"
        }
      ],
      "name": "allowance",
      "outputs": [
        {
          "internalType": "uint256",
          "name": "",
          "type": "uint256"
        }
      ],
      "payable": false,
      "stateMutability": "view",
      "type": "function"
    },
    {
      "constant": false,
      "inputs": [
        {
          "internalType": "address",
          "name": "spender",
          "type": "address"
        },
        {
          "internalType": "uint256",
          "name": "amount",
          "type": "uint256"
        }
      ],
      "name": "approve",
      "outputs": [
        {
          "internalType": "bool",
          "name": "",
          "type": "bool"
        }
      ],
      "payable": false,
      "stateMutability": "nonpayable",
      "type": "function"
    },
    {
      "constant": true,
      "inputs": [
        {
          "internalType": "address",
          "name": "account",
          "type": "address"
        }
      ],
      "name": "balanceOf",
      "outputs": [
        {
          "internalType": "uint256",
          "name": "",
          "type": "uint256"
        }
      ],
      "payable": false,
      "stateMutability": "view",
      "type": "function"
    },
    {
      "constant": false,
      "inputs": [
        {
          "internalType": "address",
          "name": "_masterCopy",
          "type": "address"
        }
      ],
      "name": "changeMasterCopy",
      "outputs": [],
      "payable": false,
      "stateMutability": "nonpayable",
      "type": "function"
    },
    {
      "constant": true,
      "inputs": [],
      "name": "decimals",
      "outputs": [
        {
          "internalType": "uint8",
          "name": "",
          "type": "uint8"
        }
      ],
      "payable": false,
      "stateMutability": "view",
      "type": "function"
    },
    {
      "constant": false,
      "inputs": [
        {
          "internalType": "address",
          "name": "spender",
          "type": "address"
        },
        {
          "internalType": "uint256",
          "name": "subtractedValue",
          "type": "uint256"
        }
      ],
      "name": "decreaseAllowance",
      "outputs": [
        {
          "internalType": "bool",
          "name": "",
          "type": "bool"
        }
      ],
      "payable": false,
      "stateMutability": "nonpayable",
      "type": "function"
    },
    {
      "constant": true,
      "inputs": [],
      "name": "emergencyConditions",
      "outputs": [
        {
          "internalType": "uint8",
          "name": "",
          "type": "uint8"
        }
      ],
      "payable": false,
      "stateMutability": "view",
      "type": "function"
    },
    {
      "constant": true,
      "inputs": [
        {
          "internalType": "address",
          "name": "_tokenAddress",
          "type": "address"
        }
      ],
      "name": "getTokenBalance",
      "outputs": [
        {
          "internalType": "uint256",
          "name": "",
          "type": "uint256"
        }
      ],
      "payable": false,
      "stateMutability": "view",
      "type": "function"
    },
    {
      "constant": true,
      "inputs": [],
      "name": "getVaultActiveStrategy",
      "outputs": [
        {
          "internalType": "address[]",
          "name": "",
          "type": "address[]"
        }
      ],
      "payable": false,
      "stateMutability": "view",
      "type": "function"
    },
    {
      "constant": true,
      "inputs": [],
      "name": "getVaultNAV",
      "outputs": [
        {
          "internalType": "uint256",
          "name": "",
          "type": "uint256"
        }
      ],
      "payable": false,
      "stateMutability": "view",
      "type": "function"
    },
    {
      "constant": true,
      "inputs": [],
      "name": "getVaultNAVWithoutStrategyToken",
      "outputs": [
        {
          "internalType": "uint256",
          "name": "",
          "type": "uint256"
        }
      ],
      "payable": false,
      "stateMutability": "view",
      "type": "function"
    },
    {
      "constant": false,
      "inputs": [
        {
          "internalType": "address",
          "name": "spender",
          "type": "address"
        },
        {
          "internalType": "uint256",
          "name": "addedValue",
          "type": "uint256"
        }
      ],
      "name": "increaseAllowance",
      "outputs": [
        {
          "internalType": "bool",
          "name": "",
          "type": "bool"
        }
      ],
      "payable": false,
      "stateMutability": "nonpayable",
      "type": "function"
    },
    {
      "constant": true,
      "inputs": [],
      "name": "name",
      "outputs": [
        {
          "internalType": "string",
          "name": "",
          "type": "string"
        }
      ],
      "payable": false,
      "stateMutability": "view",
      "type": "function"
    },
    {
      "constant": false,
      "inputs": [
        {
          "internalType": "address",
          "name": "operator",
          "type": "address"
        },
        {
          "internalType": "address",
          "name": "from",
          "type": "address"
        },
        {
          "internalType": "uint256[]",
          "name": "ids",
          "type": "uint256[]"
        },
        {
          "internalType": "uint256[]",
          "name": "values",
          "type": "uint256[]"
        },
        {
          "internalType": "bytes",
          "name": "data",
          "type": "bytes"
        }
      ],
      "name": "onERC1155BatchReceived",
      "outputs": [
        {
          "internalType": "bytes4",
          "name": "",
          "type": "bytes4"
        }
      ],
      "payable": false,
      "stateMutability": "nonpayable",
      "type": "function"
    },
    {
      "constant": false,
      "inputs": [
        {
          "internalType": "address",
          "name": "operator",
          "type": "address"
        },
        {
          "internalType": "address",
          "name": "from",
          "type": "address"
        },
        {
          "internalType": "uint256",
          "name": "id",
          "type": "uint256"
        },
        {
          "internalType": "uint256",
          "name": "value",
          "type": "uint256"
        },
        {
          "internalType": "bytes",
          "name": "data",
          "type": "bytes"
        }
      ],
      "name": "onERC1155Received",
      "outputs": [
        {
          "internalType": "bytes4",
          "name": "",
          "type": "bytes4"
        }
      ],
      "payable": false,
      "stateMutability": "nonpayable",
      "type": "function"
    },
    {
      "constant": true,
      "inputs": [],
      "name": "owner",
      "outputs": [
        {
          "internalType": "address",
          "name": "",
          "type": "address"
        }
      ],
      "payable": false,
      "stateMutability": "view",
      "type": "function"
    },
    {
      "constant": true,
      "inputs": [
        {
          "internalType": "bytes4",
          "name": "interfaceId",
          "type": "bytes4"
        }
      ],
      "name": "supportsInterface",
      "outputs": [
        {
          "internalType": "bool",
          "name": "",
          "type": "bool"
        }
      ],
      "payable": false,
      "stateMutability": "view",
      "type": "function"
    },
    {
      "constant": true,
      "inputs": [],
      "name": "symbol",
      "outputs": [
        {
          "internalType": "string",
          "name": "",
          "type": "string"
        }
      ],
      "payable": false,
      "stateMutability": "view",
      "type": "function"
    },
    {
      "constant": true,
      "inputs": [],
      "name": "tokenValueInUSD",
      "outputs": [
        {
          "internalType": "uint256",
          "name": "",
          "type": "uint256"
        }
      ],
      "payable": false,
      "stateMutability": "view",
      "type": "function"
    },
    {
      "constant": true,
      "inputs": [],
      "name": "totalSupply",
      "outputs": [
        {
          "internalType": "uint256",
          "name": "",
          "type": "uint256"
        }
      ],
      "payable": false,
      "stateMutability": "view",
      "type": "function"
    },
    {
      "constant": false,
      "inputs": [
        {
          "internalType": "address",
          "name": "recipient",
          "type": "address"
        },
        {
          "internalType": "uint256",
          "name": "amount",
          "type": "uint256"
        }
      ],
      "name": "transfer",
      "outputs": [
        {
          "internalType": "bool",
          "name": "",
          "type": "bool"
        }
      ],
      "payable": false,
      "stateMutability": "nonpayable",
      "type": "function"
    },
    {
      "constant": false,
      "inputs": [
        {
          "internalType": "address",
          "name": "sender",
          "type": "address"
        },
        {
          "internalType": "address",
          "name": "recipient",
          "type": "address"
        },
        {
          "internalType": "uint256",
          "name": "amount",
          "type": "uint256"
        }
      ],
      "name": "transferFrom",
      "outputs": [
        {
          "internalType": "bool",
          "name": "",
          "type": "bool"
        }
      ],
      "payable": false,
      "stateMutability": "nonpayable",
      "type": "function"
    },
    {
      "constant": true,
      "inputs": [],
      "name": "vaultAPSManager",
      "outputs": [
        {
          "internalType": "address",
          "name": "",
          "type": "address"
        }
      ],
      "payable": false,
      "stateMutability": "view",
      "type": "function"
    },
    {
      "constant": true,
      "inputs": [],
      "name": "vaultStrategyManager",
      "outputs": [
        {
          "internalType": "address",
          "name": "",
          "type": "address"
        }
      ],
      "payable": false,
      "stateMutability": "view",
      "type": "function"
    },
    {
      "constant": false,
      "inputs": [
        {
          "internalType": "address[]",
          "name": "cleanUpList",
          "type": "address[]"
        }
      ],
      "name": "safeCleanUp",
      "outputs": [],
      "payable": false,
      "stateMutability": "nonpayable",
      "type": "function"
    },
    {
      "constant": false,
      "inputs": [
        {
          "internalType": "address[]",
          "name": "_assetList",
          "type": "address[]"
        },
        {
          "internalType": "uint256[]",
          "name": "_amount",
          "type": "uint256[]"
        },
        {
          "internalType": "address[]",
          "name": "reciever",
          "type": "address[]"
        }
      ],
      "name": "approvedAssetCleanUp",
      "outputs": [],
      "payable": false,
      "stateMutability": "nonpayable",
      "type": "function"
    },
    {
      "constant": false,
      "inputs": [
        {
          "internalType": "uint256[]",
          "name": "gasCost",
          "type": "uint256[]"
        },
        {
          "internalType": "address[]",
          "name": "beneficiary",
          "type": "address[]"
        },
        {
          "internalType": "address[]",
          "name": "gasToken",
          "type": "address[]"
        }
      ],
      "name": "paybackExecutor",
      "outputs": [],
      "payable": false,
      "stateMutability": "nonpayable",
      "type": "function"
    },
    {
      "constant": false,
      "inputs": [
        {
          "internalType": "address[]",
          "name": "_assetList",
          "type": "address[]"
        },
        {
          "internalType": "uint256[]",
          "name": "_amount",
          "type": "uint256[]"
        }
      ],
      "name": "tokenBalanceUpdation",
      "outputs": [],
      "payable": false,
      "stateMutability": "nonpayable",
      "type": "function"
    },
    {
      "constant": false,
      "inputs": [],
      "name": "managementFeeCleanUp",
      "outputs": [],
      "payable": false,
      "stateMutability": "nonpayable",
      "type": "function"
    }
  ],
  "bytecode": "0x6080604052620000387f01ffc9a7000000000000000000000000000000000000000000000000000000006001600160e01b036200007216565b6200006c7f4e2312e0000000000000000000000000000000000000000000000000000000006001600160e01b036200007216565b62000141565b7fffffffff0000000000000000000000000000000000000000000000000000000080821614156200010457604080517f08c379a000000000000000000000000000000000000000000000000000000000815260206004820152601c60248201527f4552433136353a20696e76616c696420696e7465726661636520696400000000604482015290519081900360640190fd5b7fffffffff00000000000000000000000000000000000000000000000000000000166000908152600760205260409020805460ff19166001179055565b61303480620001516000396000f3fe608060405234801561001057600080fd5b50600436106101da5760003560e01c80635969326b11610104578063a457c2d7116100a2578063b28aaf7d11610071578063b28aaf7d146109f3578063bc197c81146109fb578063dd62ed3e14610b3f578063f23a6e6114610b6d576101da565b8063a457c2d71461093b578063a7be86ef14610967578063a9059cbb1461096f578063ac221b5c1461099b576101da565b80638d2f54f1116100de5780638d2f54f1146106e55780638da5cb5b1461078657806395d89b411461078e5780639c81a7aa14610796576101da565b80635969326b1461069157806370a08231146106995780637de7edef146106bf576101da565b80632b27ef661161017c578063395093511161014b57806339509351146105145780633aecd0e3146105405780633f514315146105665780634019d5711461056e576101da565b80632b27ef66146104d85780632c9a4105146104fc578063313ce56714610504578063338460271461050c576101da565b80630c6a957f116101b85780630c6a957f146102c357806310778fc6146102e157806318160ddd1461048857806323b872dd146104a2576101da565b806301ffc9a7146101df57806306fdde031461021a578063095ea7b314610297575b600080fd5b610206600480360360208110156101f557600080fd5b50356001600160e01b031916610c00565b604080519115158252519081900360200190f35b610222610c1f565b6040805160208082528351818301528351919283929083019185019080838360005b8381101561025c578181015183820152602001610244565b50505050905090810190601f1680156102895780820380516001836020036101000a031916815260200191505b509250505060405180910390f35b610206600480360360408110156102ad57600080fd5b506001600160a01b038135169060200135610cb6565b6102cb610cd4565b6040805160ff9092168252519081900360200190f35b610486600480360360608110156102f757600080fd5b810190602081018135600160201b81111561031157600080fd5b82018360208201111561032357600080fd5b803590602001918460208302840111600160201b8311171561034457600080fd5b9190808060200260200160405190810160405280939291908181526020018383602002808284376000920191909152509295949360208101935035915050600160201b81111561039357600080fd5b8201836020820111156103a557600080fd5b803590602001918460208302840111600160201b831117156103c657600080fd5b9190808060200260200160405190810160405280939291908181526020018383602002808284376000920191909152509295949360208101935035915050600160201b81111561041557600080fd5b82018360208201111561042757600080fd5b803590602001918460208302840111600160201b8311171561044857600080fd5b919080806020026020016040519081016040528093929190818152602001838360200280828437600092019190915250929550610cdd945050505050565b005b6104906110e1565b60408051918252519081900360200190f35b610206600480360360608110156104b857600080fd5b506001600160a01b038135811691602081013590911690604001356110e7565b6104e0611174565b604080516001600160a01b039092168252519081900360200190f35b610490611183565b6102cb6116ae565b6104e06116b7565b6102066004803603604081101561052a57600080fd5b506001600160a01b0381351690602001356116cd565b6104906004803603602081101561055657600080fd5b50356001600160a01b0316611721565b6104e06117a4565b6104866004803603604081101561058457600080fd5b810190602081018135600160201b81111561059e57600080fd5b8201836020820111156105b057600080fd5b803590602001918460208302840111600160201b831117156105d157600080fd5b9190808060200260200160405190810160405280939291908181526020018383602002808284376000920191909152509295949360208101935035915050600160201b81111561062057600080fd5b82018360208201111561063257600080fd5b803590602001918460208302840111600160201b8311171561065357600080fd5b9190808060200260200160405190810160405280939291908181526020018383602002808284376000920191909152509295506117b3945050505050565b610490611876565b610490600480360360208110156106af57600080fd5b50356001600160a01b03166118dc565b610486600480360360208110156106d557600080fd5b50356001600160a01b03166118f7565b610486600480360360208110156106fb57600080fd5b810190602081018135600160201b81111561071557600080fd5b82018360208201111561072757600080fd5b803590602001918460208302840111600160201b8311171561074857600080fd5b9190808060200260200160405190810160405280939291908181526020018383602002808284376000920191909152509295506119ce945050505050565b6104e0611be2565b610222611bf1565b610486600480360360608110156107ac57600080fd5b810190602081018135600160201b8111156107c657600080fd5b8201836020820111156107d857600080fd5b803590602001918460208302840111600160201b831117156107f957600080fd5b9190808060200260200160405190810160405280939291908181526020018383602002808284376000920191909152509295949360208101935035915050600160201b81111561084857600080fd5b82018360208201111561085a57600080fd5b803590602001918460208302840111600160201b8311171561087b57600080fd5b9190808060200260200160405190810160405280939291908181526020018383602002808284376000920191909152509295949360208101935035915050600160201b8111156108ca57600080fd5b8201836020820111156108dc57600080fd5b803590602001918460208302840111600160201b831117156108fd57600080fd5b919080806020026020016040519081016040528093929190818152602001838360200280828437600092019190915250929550611c52945050505050565b6102066004803603604081101561095157600080fd5b506001600160a01b038135169060200135611ec1565b610486611f2f565b6102066004803603604081101561098557600080fd5b506001600160a01b038135169060200135612140565b6109a3612154565b60408051602080825283518183015283519192839290830191858101910280838360005b838110156109df5781810151838201526020016109c7565b505050509050019250505060405180910390f35b610490612272565b610b22600480360360a0811015610a1157600080fd5b6001600160a01b038235811692602081013590911691810190606081016040820135600160201b811115610a4457600080fd5b820183602082011115610a5657600080fd5b803590602001918460208302840111600160201b83111715610a7757600080fd5b919390929091602081019035600160201b811115610a9457600080fd5b820183602082011115610aa657600080fd5b803590602001918460208302840111600160201b83111715610ac757600080fd5b919390929091602081019035600160201b811115610ae457600080fd5b820183602082011115610af657600080fd5b803590602001918460018302840111600160201b83111715610b1757600080fd5b509092509050612449565b604080516001600160e01b03199092168252519081900360200190f35b61049060048036036040811015610b5557600080fd5b506001600160a01b0381358116916020013516612457565b610b22600480360360a0811015610b8357600080fd5b6001600160a01b03823581169260208101359091169160408201359160608101359181019060a081016080820135600160201b811115610bc257600080fd5b820183602082011115610bd457600080fd5b803590602001918460018302840111600160201b83111715610bf557600080fd5b509092509050612482565b6001600160e01b03191660009081526007602052604090205460ff1690565b60048054604080516020601f6002600019610100600188161502019095169490940493840181900481028201810190925282815260609390929091830182828015610cab5780601f10610c8057610100808354040283529160200191610cab565b820191906000526020600020905b815481529060010190602001808311610c8e57829003601f168201915b505050505090505b90565b6000610cca610cc361248e565b8484612492565b5060015b92915050565b60085460ff1681565b60005b83518110156110db57600860039054906101000a90046001600160a01b03166001600160a01b0316639b0b6a51858381518110610d1957fe5b60200260200101516040518263ffffffff1660e01b815260040180826001600160a01b03166001600160a01b0316815260200191505060206040518083038186803b158015610d6757600080fd5b505afa158015610d7b573d6000803e3d6000fd5b505050506040513d6020811015610d9157600080fd5b5051156110d357610db4848281518110610da757fe5b602002602001015161257e565b600f548451600091610efb916001600160a01b0390911690633aecd0e390889086908110610dde57fe5b60200260200101516040518263ffffffff1660e01b815260040180826001600160a01b03166001600160a01b0316815260200191505060206040518083038186803b158015610e2c57600080fd5b505afa158015610e40573d6000803e3d6000fd5b505050506040513d6020811015610e5657600080fd5b50518651879085908110610e6657fe5b60200260200101516001600160a01b03166370a08231306040518263ffffffff1660e01b815260040180826001600160a01b03166001600160a01b0316815260200191505060206040518083038186803b158015610ec357600080fd5b505afa158015610ed7573d6000803e3d6000fd5b505050506040513d6020811015610eed57600080fd5b50519063ffffffff61260716565b9050838281518110610f0957fe5b602002602001015181106110d1576000610f51610f4c878581518110610f2b57fe5b6020026020010151878681518110610f3f57fe5b6020026020010151612650565b6127ba565b9050610f70848481518110610f6257fe5b6020026020010151826127df565b600f5486516001600160a01b0390911690634ceb1f1390889086908110610f9357fe5b6020026020010151611068888781518110610faa57fe5b6020026020010151600f60009054906101000a90046001600160a01b03166001600160a01b0316633aecd0e38c8a81518110610fe257fe5b60200260200101516040518263ffffffff1660e01b815260040180826001600160a01b03166001600160a01b0316815260200191505060206040518083038186803b15801561103057600080fd5b505afa158015611044573d6000803e3d6000fd5b505050506040513d602081101561105a57600080fd5b50519063ffffffff6128d116565b6040518363ffffffff1660e01b815260040180836001600160a01b03166001600160a01b0316815260200182815260200192505050600060405180830381600087803b1580156110b757600080fd5b505af11580156110cb573d6000803e3d6000fd5b50505050505b505b600101610ce0565b50505050565b60035490565b60006110f484848461292b565b61116a8461110061248e565b61116585604051806060016040528060288152602001612f14602891396001600160a01b038a1660009081526002602052604081209061113e61248e565b6001600160a01b03168152602081019190915260400160002054919063ffffffff612a8916565b612492565b5060019392505050565b600b546001600160a01b031681565b6000606061118f612154565b90506000805b600d548110156114c857600f54600d80546000926001600160a01b031691633aecd0e391859081106111c357fe5b60009182526020918290200154604080516001600160e01b031960e086901b1681526001600160a01b0390921660048301525160248083019392829003018186803b15801561121157600080fd5b505afa158015611225573d6000803e3d6000fd5b505050506040513d602081101561123b57600080fd5b505111156114c057600854600d8054600092630100000090046001600160a01b031691638b2f0f4f918590811061126e57fe5b60009182526020918290200154604080516001600160e01b031960e086901b1681526001600160a01b0390921660048301525160248083019392829003018186803b1580156112bc57600080fd5b505afa1580156112d0573d6000803e3d6000fd5b505050506040513d60208110156112e657600080fd5b505160085460408051630b4e5fdd60e31b815290519293506114ba928492630100000090046001600160a01b031691635a72fee8916004808301926020929190829003018186803b15801561133a57600080fd5b505afa15801561134e573d6000803e3d6000fd5b505050506040513d602081101561136457600080fd5b5051600d80546001600160a01b039092169163b2809e1891908790811061138757fe5b600091825260209091200154600f54600d80546001600160a01b039384169390921691633aecd0e391908a9081106113bb57fe5b60009182526020918290200154604080516001600160e01b031960e086901b1681526001600160a01b0390921660048301525160248083019392829003018186803b15801561140957600080fd5b505afa15801561141d573d6000803e3d6000fd5b505050506040513d602081101561143357600080fd5b5051604080516001600160e01b031960e086901b1681526001600160a01b0390931660048401526024830191909152516044808301926020929190829003018186803b15801561148257600080fd5b505afa158015611496573d6000803e3d6000fd5b505050506040513d60208110156114ac57600080fd5b50519063ffffffff612b2016565b83019250505b600101611195565b5081516114f0576114e781670de0b6b3a764000063ffffffff612b7916565b92505050610cb3565b60005b825181101561169557600083828151811061150a57fe5b60200260200101516001600160a01b03166370a08231306040518263ffffffff1660e01b815260040180826001600160a01b03166001600160a01b0316815260200191505060206040518083038186803b15801561156757600080fd5b505afa15801561157b573d6000803e3d6000fd5b505050506040513d602081101561159157600080fd5b5051111561168d5760008382815181106115a757fe5b60200260200101516001600160a01b0316635969326b6040518163ffffffff1660e01b815260040160206040518083038186803b1580156115e757600080fd5b505afa1580156115fb573d6000803e3d6000fd5b505050506040513d602081101561161157600080fd5b5051845190915061168790829086908590811061162a57fe5b60200260200101516001600160a01b03166370a08231306040518263ffffffff1660e01b815260040180826001600160a01b03166001600160a01b0316815260200191505060206040518083038186803b15801561148257600080fd5b83019250505b6001016114f3565b506114e781670de0b6b3a764000063ffffffff612b7916565b60065460ff1690565b600854630100000090046001600160a01b031681565b6000610cca6116da61248e565b8461116585600260006116eb61248e565b6001600160a01b03908116825260208083019390935260409182016000908120918c16815292529020549063ffffffff6128d116565b600f5460408051633aecd0e360e01b81526001600160a01b03848116600483015291516000939290921691633aecd0e391602480820192602092909190829003018186803b15801561177257600080fd5b505afa158015611786573d6000803e3d6000fd5b505050506040513d602081101561179c57600080fd5b505192915050565b600a546001600160a01b031681565b60005b825181101561187157600f5483516001600160a01b0390911690634ceb1f13908590849081106117e257fe5b60200260200101518484815181106117f657fe5b60200260200101516040518363ffffffff1660e01b815260040180836001600160a01b03166001600160a01b0316815260200182815260200192505050600060405180830381600087803b15801561184d57600080fd5b505af1158015611861573d6000803e3d6000fd5b5050600190920191506117b69050565b505050565b6000611880611183565b1580611891575061188f6110e1565b155b1561189e57506000610cb3565b6118d56118a96110e1565b6118c9670de0b6b3a76400006118bd611183565b9063ffffffff612b2016565b9063ffffffff612b7916565b9050610cb3565b6001600160a01b031660009081526001602052604090205490565b3330146119355760405162461bcd60e51b815260040180806020018281038252602c815260200180612f61602c913960400191505060405180910390fd5b6001600160a01b03811661197a5760405162461bcd60e51b8152600401808060200182810382526024815260200180612e876024913960400191505060405180910390fd5b600080546001600160a01b0383166001600160a01b0319909116811790915560408051918252517f75e41bc35ff1bf14d81d1d2f649c0084a0f974f9289c803ec9898eeec4c8d0b89181900360200190a150565b60005b8151811015611bde57600860039054906101000a90046001600160a01b03166001600160a01b0316639b0b6a51838381518110611a0a57fe5b60200260200101516040518263ffffffff1660e01b815260040180826001600160a01b03166001600160a01b0316815260200191505060206040518083038186803b158015611a5857600080fd5b505afa158015611a6c573d6000803e3d6000fd5b505050506040513d6020811015611a8257600080fd5b5051611bd6576000828281518110611a9657fe5b60200260200101516001600160a01b03166370a08231306040518263ffffffff1660e01b815260040180826001600160a01b03166001600160a01b0316815260200191505060206040518083038186803b158015611af357600080fd5b505afa158015611b07573d6000803e3d6000fd5b505050506040513d6020811015611b1d57600080fd5b505190508015611bd457611bd4600860039054906101000a90046001600160a01b03166001600160a01b031663d731cc7e6040518163ffffffff1660e01b815260040160206040518083038186803b158015611b7857600080fd5b505afa158015611b8c573d6000803e3d6000fd5b505050506040513d6020811015611ba257600080fd5b505184518390869086908110611bb457fe5b60200260200101516001600160a01b0316612bbb9092919063ffffffff16565b505b6001016119d1565b5050565b6009546001600160a01b031681565b60058054604080516020601f6002600019610100600188161502019095169490940493840181900481028201810190925282815260609390929091830182828015610cab5780601f10610c8057610100808354040283529160200191610cab565b60005b83518110156110db57600f5482516001600160a01b0390911690633aecd0e390849084908110611c8157fe5b60200260200101516040518263ffffffff1660e01b815260040180826001600160a01b03166001600160a01b0316815260200191505060206040518083038186803b158015611ccf57600080fd5b505afa158015611ce3573d6000803e3d6000fd5b505050506040513d6020811015611cf957600080fd5b50518451859083908110611d0957fe5b60200260200101511115611d5b576040805162461bcd60e51b81526020600482015260146024820152732737ba1032b737bab3b41033b0b9903a37b5b2b760611b604482015290519081900360640190fd5b600f5482516001600160a01b0390911690634ceb1f1390849084908110611d7e57fe5b6020026020010151611e1b878581518110611d9557fe5b6020026020010151600f60009054906101000a90046001600160a01b03166001600160a01b0316633aecd0e3888881518110611dcd57fe5b60200260200101516040518263ffffffff1660e01b815260040180826001600160a01b03166001600160a01b0316815260200191505060206040518083038186803b158015610ec357600080fd5b6040518363ffffffff1660e01b815260040180836001600160a01b03166001600160a01b0316815260200182815260200192505050600060405180830381600087803b158015611e6a57600080fd5b505af1158015611e7e573d6000803e3d6000fd5b50505050611eb9838281518110611e9157fe5b6020026020010151858381518110611ea557fe5b6020026020010151848481518110611bb457fe5b600101611c55565b6000610cca611ece61248e565b8461116585604051806060016040528060258152602001612fdb6025913960026000611ef861248e565b6001600160a01b03908116825260208083019390935260409182016000908120918d1681529252902054919063ffffffff612a8916565b6060600860039054906101000a90046001600160a01b03166001600160a01b03166302fd9b5d6040518163ffffffff1660e01b8152600401600060405180830381600087803b158015611f8157600080fd5b505af1158015611f95573d6000803e3d6000fd5b505050506040513d6000823e601f3d908101601f191682016040526020811015611fbe57600080fd5b8101908080516040519392919084600160201b821115611fdd57600080fd5b908301906020820185811115611ff257600080fd5b82518660208202830111600160201b8211171561200e57600080fd5b82525081516020918201928201910280838360005b8381101561203b578181015183820152602001612023565b50505050905001604052505050905060008090505b8151811015611bde5781818151811061206557fe5b602090810291909101810151604080516004815260248101825292830180516001600160e01b031663ad4653e360e01b178152905183516001600160a01b039093169392909182918083835b602083106120d05780518252601f1990920191602091820191016120b1565b6001836020036101000a038019825116818451168082178552505050505050905001915050600060405180830381855af49150503d8060008114612130576040519150601f19603f3d011682016040523d82523d6000602084013e612135565b606091505b505050600101612050565b6000610cca61214d61248e565b848461292b565b6008546040805163387971a160e11b81523060048201529051606092630100000090046001600160a01b0316916370f2e342916024808301926000929190829003018186803b1580156121a657600080fd5b505afa1580156121ba573d6000803e3d6000fd5b505050506040513d6000823e601f3d908101601f1916820160405260208110156121e357600080fd5b8101908080516040519392919084600160201b82111561220257600080fd5b90830190602082018581111561221757600080fd5b82518660208202830111600160201b8211171561223357600080fd5b82525081516020918201928201910280838360005b83811015612260578181015183820152602001612248565b50505050905001604052505050905090565b600080805b600d5481101561242a57600f54600d80546000926001600160a01b031691633aecd0e391859081106122a557fe5b60009182526020918290200154604080516001600160e01b031960e086901b1681526001600160a01b0390921660048301525160248083019392829003018186803b1580156122f357600080fd5b505afa158015612307573d6000803e3d6000fd5b505050506040513d602081101561231d57600080fd5b5051111561242257600854600d8054600092630100000090046001600160a01b031691638b2f0f4f918590811061235057fe5b60009182526020918290200154604080516001600160e01b031960e086901b1681526001600160a01b0390921660048301525160248083019392829003018186803b15801561239e57600080fd5b505afa1580156123b2573d6000803e3d6000fd5b505050506040513d60208110156123c857600080fd5b505160085460408051630b4e5fdd60e31b8152905192935061241c928492630100000090046001600160a01b031691635a72fee8916004808301926020929190829003018186803b15801561133a57600080fd5b83019250505b600101612277565b5061244381670de0b6b3a764000063ffffffff612b7916565b91505090565b600098975050505050505050565b6001600160a01b03918216600090815260026020908152604080832093909416825291909152205490565b60009695505050505050565b3390565b6001600160a01b0383166124d75760405162461bcd60e51b8152600401808060200182810382526024815260200180612f8d6024913960400191505060405180910390fd5b6001600160a01b03821661251c5760405162461bcd60e51b8152600401808060200182810382526022815260200180612eab6022913960400191505060405180910390fd5b6001600160a01b03808416600081815260026020908152604080832094871680845294825291829020859055815185815291517f8c5be1e5ebec7d5bd14f71427d1e84f3dd0314c0f7b2291e5b200ac8c7c3b9259281900390910190a3505050565b6001600160a01b0381166000908152600e602052604090205460ff16612604576001600160a01b0381166000818152600e60205260408120805460ff19166001908117909155600d805491820181559091527fd7b6990105719101dabeb77144f2a3385c8033acd3af97e9423a695e81ad1eb50180546001600160a01b03191690911790555b50565b600061264983836040518060400160405280601e81526020017f536166654d6174683a207375627472616374696f6e206f766572666c6f770000815250612a89565b9392505050565b60085460408051638b2f0f4f60e01b81526001600160a01b0385811660048301529151600093849363010000009091041691638b2f0f4f916024808301926020929190829003018186803b1580156126a757600080fd5b505afa1580156126bb573d6000803e3d6000fd5b505050506040513d60208110156126d157600080fd5b505160085460408051630b4e5fdd60e31b815290519293506127b292670de0b6b3a7640000926118c992869263010000009092046001600160a01b031691635a72fee891600480820192602092909190829003018186803b15801561273557600080fd5b505afa158015612749573d6000803e3d6000fd5b505050506040513d602081101561275f57600080fd5b50516040805163165013c360e31b81526001600160a01b038b81166004830152602482018b90529151919092169163b2809e18916044808301926020929190829003018186803b15801561148257600080fd5b949350505050565b6000610cce6127c7611183565b6118c96127d26110e1565b859063ffffffff612b2016565b6001600160a01b03821661283a576040805162461bcd60e51b815260206004820152601f60248201527f45524332303a206d696e7420746f20746865207a65726f206164647265737300604482015290519081900360640190fd5b60035461284d908263ffffffff6128d116565b6003556001600160a01b038216600090815260016020526040902054612879908263ffffffff6128d116565b6001600160a01b03831660008181526001602090815260408083209490945583518581529351929391927fddf252ad1be2c89b69c2b068fc378daa952ba7f163c4a11628f55a4df523b3ef9281900390910190a35050565b600082820183811015612649576040805162461bcd60e51b815260206004820152601b60248201527f536166654d6174683a206164646974696f6e206f766572666c6f770000000000604482015290519081900360640190fd5b6001600160a01b0383166129705760405162461bcd60e51b8152600401808060200182810382526025815260200180612f3c6025913960400191505060405180910390fd5b6001600160a01b0382166129b55760405162461bcd60e51b8152600401808060200182810382526023815260200180612e646023913960400191505060405180910390fd5b6129f881604051806060016040528060268152602001612ecd602691396001600160a01b038616600090815260016020526040902054919063ffffffff612a8916565b6001600160a01b038085166000908152600160205260408082209390935590841681522054612a2d908263ffffffff6128d116565b6001600160a01b0380841660008181526001602090815260409182902094909455805185815290519193928716927fddf252ad1be2c89b69c2b068fc378daa952ba7f163c4a11628f55a4df523b3ef92918290030190a3505050565b60008184841115612b185760405162461bcd60e51b81526004018080602001828103825283818151815260200191508051906020019080838360005b83811015612add578181015183820152602001612ac5565b50505050905090810190601f168015612b0a5780820380516001836020036101000a031916815260200191505b509250505060405180910390fd5b505050900390565b600082612b2f57506000610cce565b82820282848281612b3c57fe5b04146126495760405162461bcd60e51b8152600401808060200182810382526021815260200180612ef36021913960400191505060405180910390fd5b600061264983836040518060400160405280601a81526020017f536166654d6174683a206469766973696f6e206279207a65726f000000000000815250612c0d565b604080516001600160a01b038416602482015260448082018490528251808303909101815260649091019091526020810180516001600160e01b031663a9059cbb60e01b179052611871908490612c72565b60008183612c5c5760405162461bcd60e51b8152602060048201818152835160248401528351909283926044909101919085019080838360008315612add578181015183820152602001612ac5565b506000838581612c6857fe5b0495945050505050565b612c84826001600160a01b0316612e2a565b612cd5576040805162461bcd60e51b815260206004820152601f60248201527f5361666545524332303a2063616c6c20746f206e6f6e2d636f6e747261637400604482015290519081900360640190fd5b60006060836001600160a01b0316836040518082805190602001908083835b60208310612d135780518252601f199092019160209182019101612cf4565b6001836020036101000a0380198251168184511680821785525050505050509050019150506000604051808303816000865af19150503d8060008114612d75576040519150601f19603f3d011682016040523d82523d6000602084013e612d7a565b606091505b509150915081612dd1576040805162461bcd60e51b815260206004820181905260248201527f5361666545524332303a206c6f772d6c6576656c2063616c6c206661696c6564604482015290519081900360640190fd5b8051156110db57808060200190516020811015612ded57600080fd5b50516110db5760405162461bcd60e51b815260040180806020018281038252602a815260200180612fb1602a913960400191505060405180910390fd5b6000813f7fc5d2460186f7233c927e7db2dcc703c0e500b653ca82273b7bfad8045d85a4708181148015906127b257505015159291505056fe45524332303a207472616e7366657220746f20746865207a65726f2061646472657373496e76616c6964206d617374657220636f707920616464726573732070726f766964656445524332303a20617070726f766520746f20746865207a65726f206164647265737345524332303a207472616e7366657220616d6f756e7420657863656564732062616c616e6365536166654d6174683a206d756c7469706c69636174696f6e206f766572666c6f7745524332303a207472616e7366657220616d6f756e74206578636565647320616c6c6f77616e636545524332303a207472616e736665722066726f6d20746865207a65726f20616464726573734d6574686f642063616e206f6e6c792062652063616c6c65642066726f6d207468697320636f6e747261637445524332303a20617070726f76652066726f6d20746865207a65726f20616464726573735361666545524332303a204552433230206f7065726174696f6e20646964206e6f74207375636365656445524332303a2064656372656173656420616c6c6f77616e63652062656c6f77207a65726fa265627a7a723158200f67214db80741dd0c3084025536aba6e0ba56a83c82d1ece815e500dac67b9e64736f6c63430005110032",
  "source": "// SPDX-License-Identifier: MIT\npragma solidity >=0.5.0 <0.7.0;\nimport \"../storage/VaultStorage.sol\";\n\ncontract SafeUtils is VaultStorage {\n    /// @dev Function to cleanup vault unsupported tokens to the Yieldster Treasury.\n    /// @param cleanUpList List of unsupported tokens to be transfered.\n    function safeCleanUp(address[] memory cleanUpList) public {\n        for (uint256 i = 0; i < cleanUpList.length; i++) {\n            if (!(IAPContract(APContract)._isVaultAsset(cleanUpList[i]))) {\n                uint256 _amount = IERC20(cleanUpList[i]).balanceOf(\n                    address(this)\n                );\n                if (_amount > 0) {\n                    IERC20(cleanUpList[i]).safeTransfer(\n                        IAPContract(APContract).yieldsterTreasury(),\n                        _amount\n                    );\n                }\n            }\n        }\n    }\n\n    function approvedAssetCleanUp(\n        address[] memory _assetList,\n        uint256[] memory _amount,\n        address[] memory reciever\n    ) public {\n        for (uint256 i = 0; i < _assetList.length; i++) {\n            if ((IAPContract(APContract)._isVaultAsset(_assetList[i]))) {\n                addToAssetList(_assetList[i]);\n                uint256 unmintedShare = IERC20(_assetList[i])\n                .balanceOf(address(this))\n                .sub(tokenBalances.getTokenBalance(_assetList[i]));\n                if (unmintedShare >= _amount[i]) {\n                    uint256 tokensToBeMinted = getMintValue(\n                        getDepositNAV(_assetList[i], _amount[i])\n                    );\n                    _mint(reciever[i], tokensToBeMinted);\n                    tokenBalances.setTokenBalance(\n                        _assetList[i],\n                        tokenBalances.getTokenBalance(_assetList[i]).add(\n                            _amount[i]\n                        )\n                    );\n                }\n            }\n        }\n    }\n\n    function paybackExecutor(\n        uint256[] memory gasCost,\n        address[] memory beneficiary,\n        address[] memory gasToken\n    ) public {\n        for (uint256 i = 0; i < gasCost.length; i++) {\n            require(\n                gasCost[i] <= tokenBalances.getTokenBalance(gasToken[i]),\n                \"Not enough gas token\"\n            );\n            tokenBalances.setTokenBalance(\n                gasToken[i],\n                tokenBalances.getTokenBalance(gasToken[i]).sub(gasCost[i])\n            );\n            IERC20(gasToken[i]).safeTransfer(beneficiary[i], gasCost[i]);\n        }\n    }\n\n    function tokenBalanceUpdation(\n        address[] memory _assetList,\n        uint256[] memory _amount\n    ) public {\n        for (uint256 i = 0; i < _assetList.length; i++) {\n            tokenBalances.setTokenBalance(_assetList[i], _amount[i]);\n        }\n    }\n\n    function managementFeeCleanUp() public {\n        address[] memory managementFeeStrategies = IAPContract(APContract)\n        .getVaultManagementFee();\n        for (uint256 i = 0; i < managementFeeStrategies.length; i++) {\n            managementFeeStrategies[i].delegatecall(\n                abi.encodeWithSignature(\"executeSafeCleanUp()\")\n            );\n        }\n    }\n}\n",
  "sourcePath": "/home/dxuser/Documents/scode/yieldster-vault/contracts/safeUtils/safeUtils.sol",
  "compiler": {
    "name": "solc",
    "version": "0.5.17+commit.d19bba13.Emscripten.clang"
  },
  "schemaVersion": "3.4.4",
  "updatedAt": "2022-02-04T04:48:38.887Z",
  "networkType": "ethereum",
  "devdoc": {
    "methods": {
      "allowance(address,address)": {
        "details": "See {IERC20-allowance}."
      },
      "approve(address,uint256)": {
        "details": "See {IERC20-approve}.     * Requirements:     * - `spender` cannot be the zero address."
      },
      "balanceOf(address)": {
        "details": "See {IERC20-balanceOf}."
      },
      "changeMasterCopy(address)": {
        "details": "Allows to upgrade the contract. This can only be done via a Safe transaction.",
        "params": {
          "_masterCopy": "New contract address."
        }
      },
      "decimals()": {
        "details": "Returns the number of decimals used to get its user representation. For example, if `decimals` equals `2`, a balance of `505` tokens should be displayed to a user as `5,05` (`505 / 10 ** 2`).     * Tokens usually opt for a value of 18, imitating the relationship between Ether and Wei.     * NOTE: This information is only used for _display_ purposes: it in no way affects any of the arithmetic of the contract, including {IERC20-balanceOf} and {IERC20-transfer}."
      },
      "decreaseAllowance(address,uint256)": {
        "details": "Atomically decreases the allowance granted to `spender` by the caller.     * This is an alternative to {approve} that can be used as a mitigation for problems described in {IERC20-approve}.     * Emits an {Approval} event indicating the updated allowance.     * Requirements:     * - `spender` cannot be the zero address. - `spender` must have allowance for the caller of at least `subtractedValue`."
      },
      "getVaultActiveStrategy()": {
        "details": "Function to get the address of active strategy in the vault."
      },
      "getVaultNAV()": {
        "details": "Function to return the NAV of the Vault."
      },
      "getVaultNAVWithoutStrategyToken()": {
        "details": "Function to return the NAV of the Vault excluding Strategy Tokens."
      },
      "increaseAllowance(address,uint256)": {
        "details": "Atomically increases the allowance granted to `spender` by the caller.     * This is an alternative to {approve} that can be used as a mitigation for problems described in {IERC20-approve}.     * Emits an {Approval} event indicating the updated allowance.     * Requirements:     * - `spender` cannot be the zero address."
      },
      "name()": {
        "details": "Returns the name of the token."
      },
      "safeCleanUp(address[])": {
        "details": "Function to cleanup vault unsupported tokens to the Yieldster Treasury.",
        "params": {
          "cleanUpList": "List of unsupported tokens to be transfered."
        }
      },
      "supportsInterface(bytes4)": {
        "details": "See {IERC165-supportsInterface}.     * Time complexity O(1), guaranteed to always use less than 30 000 gas."
      },
      "symbol()": {
        "details": "Returns the symbol of the token, usually a shorter version of the name."
      },
      "tokenValueInUSD()": {
        "details": "Function to return Value of the Vault Token."
      },
      "totalSupply()": {
        "details": "See {IERC20-totalSupply}."
      },
      "transfer(address,uint256)": {
        "details": "See {IERC20-transfer}.     * Requirements:     * - `recipient` cannot be the zero address. - the caller must have a balance of at least `amount`."
      },
      "transferFrom(address,address,uint256)": {
        "details": "See {IERC20-transferFrom}.     * Emits an {Approval} event indicating the updated allowance. This is not required by the EIP. See the note at the beginning of {ERC20};     * Requirements: - `sender` and `recipient` cannot be the zero address. - `sender` must have a balance of at least `amount`. - the caller must have allowance for `sender`'s tokens of at least `amount`."
      }
    }
  },
  "userdoc": {
    "methods": {}
  }
}