{
  "contractName": "SingleAsset3Crv",
  "abi": [
    {
      "inputs": [
        {
          "internalType": "string",
          "name": "_name",
          "type": "string"
        },
        {
          "internalType": "string",
          "name": "_symbol",
          "type": "string"
        },
        {
          "internalType": "address",
          "name": "_APContract",
          "type": "address"
        },
        {
          "internalType": "address",
          "name": "_protocol",
          "type": "address"
        },
        {
          "internalType": "address",
          "name": "_baseToken",
          "type": "address"
        }
      ],
      "payable": false,
      "stateMutability": "nonpayable",
      "type": "constructor"
    },
    {
      "anonymous": false,
      "inputs": [
        {
          "indexed": true,
          "internalType": "address",
          "name": "owner",
          "type": "address"
        },
        {
          "indexed": true,
          "internalType": "address",
          "name": "spender",
          "type": "address"
        },
        {
          "indexed": false,
          "internalType": "uint256",
          "name": "value",
          "type": "uint256"
        }
      ],
      "name": "Approval",
      "type": "event"
    },
    {
      "anonymous": false,
      "inputs": [
        {
          "indexed": true,
          "internalType": "address",
          "name": "from",
          "type": "address"
        },
        {
          "indexed": true,
          "internalType": "address",
          "name": "to",
          "type": "address"
        },
        {
          "indexed": false,
          "internalType": "uint256",
          "name": "value",
          "type": "uint256"
        }
      ],
      "name": "Transfer",
      "type": "event"
    },
    {
      "constant": true,
      "inputs": [],
      "name": "APContract",
      "outputs": [
        {
          "internalType": "address",
          "name": "",
          "type": "address"
        }
      ],
      "payable": false,
      "stateMutability": "view",
      "type": "function"
    },
    {
      "constant": true,
      "inputs": [
        {
          "internalType": "address",
          "name": "owner",
          "type": "address"
        },
        {
          "internalType": "address",
          "name": "spender",
          "type": "address"
        }
      ],
      "name": "allowance",
      "outputs": [
        {
          "internalType": "uint256",
          "name": "",
          "type": "uint256"
        }
      ],
      "payable": false,
      "stateMutability": "view",
      "type": "function"
    },
    {
      "constant": false,
      "inputs": [
        {
          "internalType": "address",
          "name": "spender",
          "type": "address"
        },
        {
          "internalType": "uint256",
          "name": "amount",
          "type": "uint256"
        }
      ],
      "name": "approve",
      "outputs": [
        {
          "internalType": "bool",
          "name": "",
          "type": "bool"
        }
      ],
      "payable": false,
      "stateMutability": "nonpayable",
      "type": "function"
    },
    {
      "constant": true,
      "inputs": [
        {
          "internalType": "address",
          "name": "account",
          "type": "address"
        }
      ],
      "name": "balanceOf",
      "outputs": [
        {
          "internalType": "uint256",
          "name": "",
          "type": "uint256"
        }
      ],
      "payable": false,
      "stateMutability": "view",
      "type": "function"
    },
    {
      "constant": true,
      "inputs": [],
      "name": "baseToken",
      "outputs": [
        {
          "internalType": "address",
          "name": "",
          "type": "address"
        }
      ],
      "payable": false,
      "stateMutability": "view",
      "type": "function"
    },
    {
      "constant": true,
      "inputs": [],
      "name": "decimals",
      "outputs": [
        {
          "internalType": "uint8",
          "name": "",
          "type": "uint8"
        }
      ],
      "payable": false,
      "stateMutability": "view",
      "type": "function"
    },
    {
      "constant": false,
      "inputs": [
        {
          "internalType": "address",
          "name": "spender",
          "type": "address"
        },
        {
          "internalType": "uint256",
          "name": "subtractedValue",
          "type": "uint256"
        }
      ],
      "name": "decreaseAllowance",
      "outputs": [
        {
          "internalType": "bool",
          "name": "",
          "type": "bool"
        }
      ],
      "payable": false,
      "stateMutability": "nonpayable",
      "type": "function"
    },
    {
      "constant": false,
      "inputs": [
        {
          "internalType": "address",
          "name": "spender",
          "type": "address"
        },
        {
          "internalType": "uint256",
          "name": "addedValue",
          "type": "uint256"
        }
      ],
      "name": "increaseAllowance",
      "outputs": [
        {
          "internalType": "bool",
          "name": "",
          "type": "bool"
        }
      ],
      "payable": false,
      "stateMutability": "nonpayable",
      "type": "function"
    },
    {
      "constant": true,
      "inputs": [],
      "name": "name",
      "outputs": [
        {
          "internalType": "string",
          "name": "",
          "type": "string"
        }
      ],
      "payable": false,
      "stateMutability": "view",
      "type": "function"
    },
    {
      "constant": true,
      "inputs": [],
      "name": "owner",
      "outputs": [
        {
          "internalType": "address",
          "name": "",
          "type": "address"
        }
      ],
      "payable": false,
      "stateMutability": "view",
      "type": "function"
    },
    {
      "constant": true,
      "inputs": [],
      "name": "protocol",
      "outputs": [
        {
          "internalType": "address",
          "name": "",
          "type": "address"
        }
      ],
      "payable": false,
      "stateMutability": "view",
      "type": "function"
    },
    {
      "constant": true,
      "inputs": [],
      "name": "protocolBalance",
      "outputs": [
        {
          "internalType": "uint256",
          "name": "",
          "type": "uint256"
        }
      ],
      "payable": false,
      "stateMutability": "view",
      "type": "function"
    },
    {
      "constant": true,
      "inputs": [],
      "name": "symbol",
      "outputs": [
        {
          "internalType": "string",
          "name": "",
          "type": "string"
        }
      ],
      "payable": false,
      "stateMutability": "view",
      "type": "function"
    },
    {
      "constant": true,
      "inputs": [],
      "name": "totalSupply",
      "outputs": [
        {
          "internalType": "uint256",
          "name": "",
          "type": "uint256"
        }
      ],
      "payable": false,
      "stateMutability": "view",
      "type": "function"
    },
    {
      "constant": false,
      "inputs": [
        {
          "internalType": "address",
          "name": "recipient",
          "type": "address"
        },
        {
          "internalType": "uint256",
          "name": "amount",
          "type": "uint256"
        }
      ],
      "name": "transfer",
      "outputs": [
        {
          "internalType": "bool",
          "name": "",
          "type": "bool"
        }
      ],
      "payable": false,
      "stateMutability": "nonpayable",
      "type": "function"
    },
    {
      "constant": false,
      "inputs": [
        {
          "internalType": "address",
          "name": "sender",
          "type": "address"
        },
        {
          "internalType": "address",
          "name": "recipient",
          "type": "address"
        },
        {
          "internalType": "uint256",
          "name": "amount",
          "type": "uint256"
        }
      ],
      "name": "transferFrom",
      "outputs": [
        {
          "internalType": "bool",
          "name": "",
          "type": "bool"
        }
      ],
      "payable": false,
      "stateMutability": "nonpayable",
      "type": "function"
    },
    {
      "constant": false,
      "inputs": [
        {
          "internalType": "address",
          "name": "_protocol",
          "type": "address"
        },
        {
          "internalType": "address",
          "name": "_baseToken",
          "type": "address"
        }
      ],
      "name": "setProtocol",
      "outputs": [],
      "payable": false,
      "stateMutability": "nonpayable",
      "type": "function"
    },
    {
      "constant": false,
      "inputs": [
        {
          "internalType": "uint256",
          "name": "_slippageSwap",
          "type": "uint256"
        }
      ],
      "name": "setSlippageSwap",
      "outputs": [],
      "payable": false,
      "stateMutability": "nonpayable",
      "type": "function"
    },
    {
      "constant": false,
      "inputs": [
        {
          "internalType": "uint256",
          "name": "_slippage",
          "type": "uint256"
        }
      ],
      "name": "setSlippage",
      "outputs": [],
      "payable": false,
      "stateMutability": "nonpayable",
      "type": "function"
    },
    {
      "constant": false,
      "inputs": [
        {
          "internalType": "address",
          "name": "_APContract",
          "type": "address"
        }
      ],
      "name": "setAPContract",
      "outputs": [],
      "payable": false,
      "stateMutability": "nonpayable",
      "type": "function"
    },
    {
      "constant": false,
      "inputs": [],
      "name": "registerSafe",
      "outputs": [],
      "payable": false,
      "stateMutability": "nonpayable",
      "type": "function"
    },
    {
      "constant": false,
      "inputs": [],
      "name": "deRegisterSafe",
      "outputs": [],
      "payable": false,
      "stateMutability": "nonpayable",
      "type": "function"
    },
    {
      "constant": false,
      "inputs": [
        {
          "internalType": "address[]",
          "name": "_depositAssets",
          "type": "address[]"
        },
        {
          "internalType": "uint256[]",
          "name": "_amounts",
          "type": "uint256[]"
        },
        {
          "internalType": "bytes",
          "name": "data",
          "type": "bytes"
        }
      ],
      "name": "deposit",
      "outputs": [],
      "payable": false,
      "stateMutability": "nonpayable",
      "type": "function"
    },
    {
      "constant": true,
      "inputs": [
        {
          "internalType": "uint256",
          "name": "depositNAV",
          "type": "uint256"
        }
      ],
      "name": "getMintValue",
      "outputs": [
        {
          "internalType": "uint256",
          "name": "",
          "type": "uint256"
        }
      ],
      "payable": false,
      "stateMutability": "view",
      "type": "function"
    },
    {
      "constant": true,
      "inputs": [],
      "name": "getStrategyNAV",
      "outputs": [
        {
          "internalType": "uint256",
          "name": "",
          "type": "uint256"
        }
      ],
      "payable": false,
      "stateMutability": "view",
      "type": "function"
    },
    {
      "constant": true,
      "inputs": [
        {
          "internalType": "address",
          "name": "_tokenAddress",
          "type": "address"
        },
        {
          "internalType": "uint256",
          "name": "_amount",
          "type": "uint256"
        }
      ],
      "name": "getDepositNAV",
      "outputs": [
        {
          "internalType": "uint256",
          "name": "",
          "type": "uint256"
        }
      ],
      "payable": false,
      "stateMutability": "view",
      "type": "function"
    },
    {
      "constant": true,
      "inputs": [],
      "name": "tokenValueInUSD",
      "outputs": [
        {
          "internalType": "uint256",
          "name": "",
          "type": "uint256"
        }
      ],
      "payable": false,
      "stateMutability": "view",
      "type": "function"
    },
    {
      "constant": false,
      "inputs": [
        {
          "internalType": "uint256",
          "name": "_shares",
          "type": "uint256"
        },
        {
          "internalType": "address",
          "name": "_withrawalAsset",
          "type": "address"
        }
      ],
      "name": "withdraw",
      "outputs": [
        {
          "internalType": "bool",
          "name": "",
          "type": "bool"
        },
        {
          "internalType": "address",
          "name": "",
          "type": "address"
        },
        {
          "internalType": "uint256",
          "name": "",
          "type": "uint256"
        }
      ],
      "payable": false,
      "stateMutability": "nonpayable",
      "type": "function"
    },
    {
      "constant": false,
      "inputs": [
        {
          "internalType": "address",
          "name": "_withdrawalAsset",
          "type": "address"
        }
      ],
      "name": "withdrawAllToSafe",
      "outputs": [
        {
          "internalType": "bool",
          "name": "",
          "type": "bool"
        },
        {
          "internalType": "address",
          "name": "",
          "type": "address"
        },
        {
          "internalType": "uint256",
          "name": "",
          "type": "uint256"
        }
      ],
      "payable": false,
      "stateMutability": "nonpayable",
      "type": "function"
    },
    {
      "constant": false,
      "inputs": [
        {
          "internalType": "address",
          "name": "_tokenAddres",
          "type": "address"
        },
        {
          "internalType": "uint256",
          "name": "_tokenAmount",
          "type": "uint256"
        }
      ],
      "name": "inCaseTokenGetsStuck",
      "outputs": [],
      "payable": false,
      "stateMutability": "nonpayable",
      "type": "function"
    }
  ],
  "bytecode": "0x6080604052600780546001600160a01b0319908116736c3f90f043a72fa612cbac8115ee7e52bde6e49017909155600880549091166f22d53366457f9d5e68ec105046fc438317905560326009819055600a553480156200005f57600080fd5b506040516200416e3803806200416e833981810160405260a08110156200008557600080fd5b8101908080516040519392919084640100000000821115620000a657600080fd5b908301906020820185811115620000bc57600080fd5b8251640100000000811182820188101715620000d757600080fd5b82525081516020918201929091019080838360005b8381101562000106578181015183820152602001620000ec565b50505050905090810190601f168015620001345780820380516001836020036101000a031916815260200191505b50604052602001805160405193929190846401000000008211156200015857600080fd5b9083019060208201858111156200016e57600080fd5b82516401000000008111828201881017156200018957600080fd5b82525081516020918201929091019080838360005b83811015620001b85781810151838201526020016200019e565b50505050905090810190601f168015620001e65780820380516001836020036101000a031916815260200191505b506040818152602083810151918401516060909401517f796c000000000000000000000000000000000000000000000000000000000000828501908152885193975094955093879390926022909101918401908083835b602083106200025e5780518252601f1990920191602091820191016200023d565b6001836020036101000a0380198251168184511680821785525050505050509050019150506040516020818303038152906040528560405160200180807f796c00000000000000000000000000000000000000000000000000000000000081525060020182805190602001908083835b60208310620002ef5780518252601f199092019160209182019101620002ce565b6001836020036101000a038019825116818451168082178552505050505050905001915050604051602081830303815290604052601282600390805190602001906200033d929190620003c2565b50815162000353906004906020850190620003c2565b506005805460ff191660ff9290921691909117610100600160a81b0319166101006001600160a01b03978816021790555050600b80546001600160a01b0319908116938516939093179055600d8054831691909316179091556006805433921691909117905550620004679050565b828054600181600116156101000203166002900490600052602060002090601f016020900481019282601f106200040557805160ff191683800117855562000435565b8280016001018555821562000435579182015b828111156200043557825182559160200191906001019062000418565b506200044392915062000447565b5090565b6200046491905b808211156200044357600081556001016200044e565b90565b613cf780620004776000396000f3fe608060405234801561001057600080fd5b50600436106101d95760003560e01c806370a0823111610104578063a457c2d7116100a2578063dd62ed3e11610071578063dd62ed3e14610646578063ef0a4fd814610674578063f0fa55a914610691578063f4837c11146106ae576101d9565b8063a457c2d7146105b8578063a9059cbb146105e4578063c3b4627e14610610578063c55dae631461063e576101d9565b80638ce74426116100de5780638ce744261461057a5780638da5cb5b1461058257806395d89b411461058a5780639a8eff9014610592576101d9565b806370a082311461043e5780637264a5de14610464578063776b50eb1461046c576101d9565b8063338460271161017c5780635969326b1161014b5780635969326b146103fa57806361e98db81461040257806362ebbeeb1461040a5780636700b2f314610412576101d9565b8063338460271461038357806339509351146103a75780635354c8f1146103d357806355c1f828146103f2576101d9565b806318160ddd116101b857806318160ddd146102ef57806323b872dd14610309578063241cb4681461033f578063313ce56714610365576101d9565b8062f714ce146101de57806306fdde0314610232578063095ea7b3146102af575b600080fd5b61020a600480360360408110156101f457600080fd5b50803590602001356001600160a01b03166106da565b6040805193151584526001600160a01b03909216602084015282820152519081900360600190f35b61023a610c48565b6040805160208082528351818301528351919283929083019185019080838360005b8381101561027457818101518382015260200161025c565b50505050905090810190601f1680156102a15780820380516001836020036101000a031916815260200191505b509250505060405180910390f35b6102db600480360360408110156102c557600080fd5b506001600160a01b038135169060200135610cdf565b604080519115158252519081900360200190f35b6102f7610cfd565b60408051918252519081900360200190f35b6102db6004803603606081101561031f57600080fd5b506001600160a01b03813581169160208101359091169060400135610d03565b61020a6004803603602081101561035557600080fd5b50356001600160a01b0316610d90565b61036d610e0f565b6040805160ff9092168252519081900360200190f35b61038b610e18565b604080516001600160a01b039092168252519081900360200190f35b6102db600480360360408110156103bd57600080fd5b506001600160a01b038135169060200135610e2c565b6103f0600480360360208110156103e957600080fd5b5035610e80565b005b6103f0610f23565b6102f7610f3f565b6102f7610f99565b6102f7610f9f565b6103f06004803603604081101561042857600080fd5b506001600160a01b03813516906020013561115b565b6102f76004803603602081101561045457600080fd5b50356001600160a01b031661123e565b6103f0611259565b6103f06004803603606081101561048257600080fd5b810190602081018135600160201b81111561049c57600080fd5b8201836020820111156104ae57600080fd5b803590602001918460208302840111600160201b831117156104cf57600080fd5b919390929091602081019035600160201b8111156104ec57600080fd5b8201836020820111156104fe57600080fd5b803590602001918460208302840111600160201b8311171561051f57600080fd5b919390929091602081019035600160201b81111561053c57600080fd5b82018360208201111561054e57600080fd5b803590602001918460018302840111600160201b8311171561056f57600080fd5b5090925090506112ce565b61038b611592565b61038b6115a1565b61023a6115b0565b6103f0600480360360208110156105a857600080fd5b50356001600160a01b0316611611565b6102db600480360360408110156105ce57600080fd5b506001600160a01b038135169060200135611692565b6102db600480360360408110156105fa57600080fd5b506001600160a01b038135169060200135611700565b6103f06004803603604081101561062657600080fd5b506001600160a01b0381358116916020013516611714565b61038b6117e5565b6102f76004803603604081101561065c57600080fd5b506001600160a01b03813581169160200135166117f4565b6102f76004803603602081101561068a57600080fd5b503561181f565b6103f0600480360360208110156106a757600080fd5b5035611844565b6102f7600480360360408110156106c457600080fd5b506001600160a01b0381351690602001356118e7565b336000908152600e60205260408120548190819060ff1661073a576040805162461bcd60e51b81526020600482015260156024820152744e6f7420612072656769737465726564205361666560581b604482015290519081900360640190fd5b846107443361123e565b101561078b576040805162461bcd60e51b81526020600482015260116024820152704e6f7420656e6f7567682073686172657360781b604482015290519081900360640190fd5b60006107bc610798610cfd565b6107b06107a3610f9f565b899063ffffffff611a8516565b9063ffffffff611ae516565b90506000600b60009054906101000a90046001600160a01b03166001600160a01b031663fc0c546a6040518163ffffffff1660e01b815260040160206040518083038186803b15801561080e57600080fd5b505afa158015610822573d6000803e3d6000fd5b505050506040513d602081101561083857600080fd5b5051600554600b5460408051638b2f0f4f60e01b81526001600160a01b039283166004820152905193945060009361010090930490911691638b2f0f4f91602480820192602092909190829003018186803b15801561089657600080fd5b505afa1580156108aa573d6000803e3d6000fd5b505050506040513d60208110156108c057600080fd5b5051905060006108e2826107b086670de0b6b3a764000063ffffffff611a8516565b90506000600560019054906101000a90046001600160a01b03166001600160a01b0316635a72fee86040518163ffffffff1660e01b815260040160206040518083038186803b15801561093457600080fd5b505afa158015610948573d6000803e3d6000fd5b505050506040513d602081101561095e57600080fd5b5051600b546040805163566ab92760e01b81526001600160a01b039283166004820152602481018690529051919092169163566ab927916044808301926020929190829003018186803b1580156109b457600080fd5b505afa1580156109c8573d6000803e3d6000fd5b505050506040513d60208110156109de57600080fd5b505190506109ec338b611b27565b600c805482900390556001600160a01b0389161580610a185750600b546001600160a01b038a81169116145b15610a5857600b54610a3a906001600160a01b0316338363ffffffff611c2316565b600b54600198506001600160a01b031696509450610c419350505050565b600b5460408051632e1a7d4d60e01b81526004810184905290516000926001600160a01b031691632e1a7d4d91602480830192602092919082900301818787803b158015610aa557600080fd5b505af1158015610ab9573d6000803e3d6000fd5b505050506040513d6020811015610acf57600080fd5b505190506001600160a01b038a81169086161415610b1557610b016001600160a01b038616338363ffffffff611c2316565b60019850939650929450610c419350505050565b600d546001600160a01b038b811691161415610b8557600d54600090610b45906001600160a01b03168784611c7a565b600d54909150610b65906001600160a01b0316338363ffffffff611c2316565b600d5460019a506001600160a01b031698509650610c4195505050505050565b600754600090610b9f906001600160a01b03168784611c7a565b6007549091506001600160a01b038c811691161415610bf557600754610bd5906001600160a01b0316338363ffffffff611c2316565b60075460019a506001600160a01b031698509650610c4195505050505050565b600754600090610c0f906001600160a01b03168d84611f33565b9050610c2b6001600160a01b038d16338363ffffffff611c2316565b60019a508b99509750610c419650505050505050565b9250925092565b60038054604080516020601f6002600019610100600188161502019095169490940493840181900481028201810190925282815260609390929091830182828015610cd45780601f10610ca957610100808354040283529160200191610cd4565b820191906000526020600020905b815481529060010190602001808311610cb757829003601f168201915b505050505090505b90565b6000610cf3610cec61214b565b848461214f565b5060015b92915050565b60025490565b6000610d1084848461223b565b610d8684610d1c61214b565b610d8185604051806060016040528060288152602001613bac602891396001600160a01b038a16600090815260016020526040812090610d5a61214b565b6001600160a01b03168152602081019190915260400160002054919063ffffffff61239716565b61214f565b5060019392505050565b336000908152600e60205260408120548190819060ff16610df0576040805162461bcd60e51b81526020600482015260156024820152744e6f7420612072656769737465726564205361666560581b604482015290519081900360640190fd5b610e02610dfc3361123e565b856106da565b9250925092509193909250565b60055460ff1690565b60055461010090046001600160a01b031681565b6000610cf3610e3961214b565b84610d818560016000610e4a61214b565b6001600160a01b03908116825260208083019390935260409182016000908120918c16815292529020549063ffffffff61242e16565b6006546001600160a01b03163314610ed9576040805162461bcd60e51b815260206004820152601760248201527627b7363c903832b936b4ba3a32b2103a379037bbb732b960491b604482015290519081900360640190fd5b6127108110610f1e576040805162461bcd60e51b815260206004820152600c60248201526b212070657263656e7461676560a01b604482015290519081900360640190fd5b600a55565b336000908152600e60205260409020805460ff19166001179055565b6000610f49610f9f565b1580610f5a5750610f58610cfd565b155b15610f6757506000610cdc565b610f92610f72610cfd565b6107b0670de0b6b3a7640000610f86610f9f565b9063ffffffff611a8516565b9050610cdc565b600c5481565b600c546000901561115357600554600b5460408051638b2f0f4f60e01b81526001600160a01b0392831660048201529051600093610100900490921691638b2f0f4f91602480820192602092909190829003018186803b15801561100257600080fd5b505afa158015611016573d6000803e3d6000fd5b505050506040513d602081101561102c57600080fd5b505160055460408051630b4e5fdd60e31b815290519293506000926101009092046001600160a01b031691635a72fee891600480820192602092909190829003018186803b15801561107d57600080fd5b505afa158015611091573d6000803e3d6000fd5b505050506040513d60208110156110a757600080fd5b5051600b54600c546040805163165013c360e31b81526001600160a01b039384166004820152602481019290925251919092169163b2809e18916044808301926020929190829003018186803b15801561110057600080fd5b505afa158015611114573d6000803e3d6000fd5b505050506040513d602081101561112a57600080fd5b5051905061114a670de0b6b3a76400006107b0838563ffffffff611a8516565b92505050610cdc565b506000610cdc565b600560019054906101000a90046001600160a01b03166001600160a01b031663061776426040518163ffffffff1660e01b815260040160206040518083038186803b1580156111a957600080fd5b505afa1580156111bd573d6000803e3d6000fd5b505050506040513d60208110156111d357600080fd5b50516001600160a01b03163314611220576040805162461bcd60e51b815260206004820152600c60248201526b1d5b985d5d1a1bdc9a5e995960a21b604482015290519081900360640190fd5b61123a6001600160a01b038316338363ffffffff611c2316565b5050565b6001600160a01b031660009081526020819052604090205490565b336000908152600e602052604090205460ff166112b5576040805162461bcd60e51b81526020600482015260156024820152744e6f7420612072656769737465726564205361666560581b604482015290519081900360640190fd5b336000908152600e60205260409020805460ff19169055565b336000908152600e602052604090205460ff1661132a576040805162461bcd60e51b81526020600482015260156024820152744e6f7420612072656769737465726564205361666560581b604482015290519081900360640190fd5b600b5460408051637e062a3560e11b815290516000926001600160a01b03169163fc0c546a916004808301926020929190829003018186803b15801561136f57600080fd5b505afa158015611383573d6000803e3d6000fd5b505050506040513d602081101561139957600080fd5b5051905060006113a7612488565b6001600160a01b031663bdf475c3836040518263ffffffff1660e01b815260040180826001600160a01b03166001600160a01b0316815260200191505060206040518083038186803b1580156113fc57600080fd5b505afa158015611410573d6000803e3d6000fd5b505050506040513d602081101561142657600080fd5b505190506001600160a01b038116611478576040805162461bcd60e51b815260206004820152601060248201526f1c1bdbdb081b9bdd081c1c995cd95b9d60821b604482015290519081900360640190fd5b60005b878110156114f357600087878381811061149157fe5b9050602002013511156114eb576114eb33308989858181106114af57fe5b905060200201358c8c868181106114c257fe5b905060200201356001600160a01b03166001600160a01b03166124fe909392919063ffffffff16565b60010161147b565b50600061153585858080601f01602080910402602001604051908101604052809392919081815260200183838082843760009201919091525061255e92505050565b90506000611541610cfd565b61154c57508061156e565b600b5461156b90611566906001600160a01b0316846118e7565b61181f565b90505b600c805483019055801561158657611586338261274d565b50505050505050505050565b600b546001600160a01b031681565b6006546001600160a01b031681565b60048054604080516020601f6002600019610100600188161502019095169490940493840181900481028201810190925282815260609390929091830182828015610cd45780601f10610ca957610100808354040283529160200191610cd4565b6006546001600160a01b0316331461166a576040805162461bcd60e51b815260206004820152601760248201527627b7363c903832b936b4ba3a32b2103a379037bbb732b960491b604482015290519081900360640190fd5b600580546001600160a01b0390921661010002610100600160a81b0319909216919091179055565b6000610cf361169f61214b565b84610d8185604051806060016040528060258152602001613c9e60259139600160006116c961214b565b6001600160a01b03908116825260208083019390935260409182016000908120918d1681529252902054919063ffffffff61239716565b6000610cf361170d61214b565b848461223b565b6006546001600160a01b0316331461176d576040805162461bcd60e51b815260206004820152601760248201527627b7363c903832b936b4ba3a32b2103a379037bbb732b960491b604482015290519081900360640190fd5b6001600160a01b0382166117b7576040805162461bcd60e51b815260206004820152600c60248201526b5a65726f206164647265737360a01b604482015290519081900360640190fd5b600b80546001600160a01b039384166001600160a01b031991821617909155600d8054929093169116179055565b600d546001600160a01b031681565b6001600160a01b03918216600090815260016020908152604080832093909416825291909152205490565b6000610cf761182c610f9f565b6107b0611837610cfd565b859063ffffffff611a8516565b6006546001600160a01b0316331461189d576040805162461bcd60e51b815260206004820152601760248201527627b7363c903832b936b4ba3a32b2103a379037bbb732b960491b604482015290519081900360640190fd5b61271081106118e2576040805162461bcd60e51b815260206004820152600c60248201526b212070657263656e7461676560a01b604482015290519081900360640190fd5b600955565b60055460408051638b2f0f4f60e01b81526001600160a01b038581166004830152915160009384936101009091041691638b2f0f4f916024808301926020929190829003018186803b15801561193c57600080fd5b505afa158015611950573d6000803e3d6000fd5b505050506040513d602081101561196657600080fd5b505160055460408051630b4e5fdd60e31b81529051929350611a7d92670de0b6b3a7640000926107b09286926101009092046001600160a01b031691635a72fee891600480820192602092909190829003018186803b1580156119c857600080fd5b505afa1580156119dc573d6000803e3d6000fd5b505050506040513d60208110156119f257600080fd5b50516040805163165013c360e31b81526001600160a01b038b81166004830152602482018b90529151919092169163b2809e18916044808301926020929190829003018186803b158015611a4557600080fd5b505afa158015611a59573d6000803e3d6000fd5b505050506040513d6020811015611a6f57600080fd5b50519063ffffffff611a8516565b949350505050565b600082611a9457506000610cf7565b82820282848281611aa157fe5b0414611ade5760405162461bcd60e51b8152600401808060200182810382526021815260200180613b8b6021913960400191505060405180910390fd5b9392505050565b6000611ade83836040518060400160405280601a81526020017f536166654d6174683a206469766973696f6e206279207a65726f00000000000081525061283d565b6001600160a01b038216611b6c5760405162461bcd60e51b8152600401808060200182810382526021815260200180613bd46021913960400191505060405180910390fd5b611baf81604051806060016040528060228152602001613b21602291396001600160a01b038516600090815260208190526040902054919063ffffffff61239716565b6001600160a01b038316600090815260208190526040902055600254611bdb908263ffffffff6128a216565b6002556040805182815290516000916001600160a01b038516917fddf252ad1be2c89b69c2b068fc378daa952ba7f163c4a11628f55a4df523b3ef9181900360200190a35050565b604080516001600160a01b038416602482015260448082018490528251808303909101815260649091019091526020810180516001600160e01b031663a9059cbb60e01b179052611c759084906128e4565b505050565b6000806000611c87612488565b6001600160a01b031663bdf475c3866040518263ffffffff1660e01b815260040180826001600160a01b03166001600160a01b0316815260200191505060206040518083038186803b158015611cdc57600080fd5b505afa158015611cf0573d6000803e3d6000fd5b505050506040513d6020811015611d0657600080fd5b50519050611d12613aa2565b611d1a612488565b6040805163940494f160e01b81526001600160a01b038581166004830152825193169263940494f192602480840193919291829003018186803b158015611d6057600080fd5b505afa158015611d74573d6000803e3d6000fd5b505050506040513d601f19601f820116820180604052506040811015611d9957600080fd5b509050611da4613ac0565b611dac612488565b6001600160a01b0316639ac90d3d846040518263ffffffff1660e01b815260040180826001600160a01b03166001600160a01b031681526020019150506101006040518083038186803b158015611e0257600080fd5b505afa158015611e16573d6000803e3d6000fd5b505050506040513d601f19601f82011682018060405250610100811015611e3c57600080fd5b50905060008281602002015190506000611e5a898b8a600954612a9c565b905060005b82811015611f24578a6001600160a01b0316848260088110611e7d57fe5b60200201516001600160a01b03161415611f1c57856001600160a01b0316631a4d01d28a83856040518463ffffffff1660e01b81526004018084815260200183600f0b600f0b81526020018281526020019350505050602060405180830381600087803b158015611eed57600080fd5b505af1158015611f01573d6000803e3d6000fd5b505050506040513d6020811015611f1757600080fd5b505196505b600101611e5f565b50949998505050505050505050565b6000806000600560019054906101000a90046001600160a01b03166001600160a01b0316634407ea176040518163ffffffff1660e01b815260040160206040518083038186803b158015611f8657600080fd5b505afa158015611f9a573d6000803e3d6000fd5b505050506040513d6020811015611fb057600080fd5b50516040805163e6a4390560e01b81526001600160a01b038981166004830152888116602483015291519293506000929184169163e6a439059160448082019260209290919082900301818787803b15801561200b57600080fd5b505af115801561201f573d6000803e3d6000fd5b505050506040513d602081101561203557600080fd5b505190506001600160a01b038116612094576040805162461bcd60e51b815260206004820152601960248201527f45786368616e67652070616972206e6f742070726573656e7400000000000000604482015290519081900360640190fd5b60006120a4888888600a54612a9c565b90506120b1888388612dd8565b60408051637f0148ab60e11b81526001600160a01b038a811660048301528981166024830152604482018990526064820184905291519184169163fe029156916084808201926020929091908290030181600087803b15801561211357600080fd5b505af1158015612127573d6000803e3d6000fd5b505050506040513d602081101561213d57600080fd5b505198975050505050505050565b3390565b6001600160a01b0383166121945760405162461bcd60e51b8152600401808060200182810382526024815260200180613c1a6024913960400191505060405180910390fd5b6001600160a01b0382166121d95760405162461bcd60e51b8152600401808060200182810382526022815260200180613b436022913960400191505060405180910390fd5b6001600160a01b03808416600081815260016020908152604080832094871680845294825291829020859055815185815291517f8c5be1e5ebec7d5bd14f71427d1e84f3dd0314c0f7b2291e5b200ac8c7c3b9259281900390910190a3505050565b6001600160a01b0383166122805760405162461bcd60e51b8152600401808060200182810382526025815260200180613bf56025913960400191505060405180910390fd5b6001600160a01b0382166122c55760405162461bcd60e51b8152600401808060200182810382526023815260200180613afe6023913960400191505060405180910390fd5b61230881604051806060016040528060268152602001613b65602691396001600160a01b038616600090815260208190526040902054919063ffffffff61239716565b6001600160a01b03808516600090815260208190526040808220939093559084168152205461233d908263ffffffff61242e16565b6001600160a01b038084166000818152602081815260409182902094909455805185815290519193928716927fddf252ad1be2c89b69c2b068fc378daa952ba7f163c4a11628f55a4df523b3ef92918290030190a3505050565b600081848411156124265760405162461bcd60e51b81526004018080602001828103825283818151815260200191508051906020019080838360005b838110156123eb5781810151838201526020016123d3565b50505050905090810190601f1680156124185780820380516001836020036101000a031916815260200191505b509250505060405180910390fd5b505050900390565b600082820183811015611ade576040805162461bcd60e51b815260206004820152601b60248201527f536166654d6174683a206164646974696f6e206f766572666c6f770000000000604482015290519081900360640190fd5b6008546040805163a262904b60e01b815290516000926001600160a01b03169163a262904b916004808301926020929190829003018186803b1580156124cd57600080fd5b505afa1580156124e1573d6000803e3d6000fd5b505050506040513d60208110156124f757600080fd5b5051905090565b604080516001600160a01b0385811660248301528416604482015260648082018490528251808303909101815260849091019091526020810180516001600160e01b03166323b872dd60e01b1790526125589085906128e4565b50505050565b600080600080600080600080612572613adf565b61257a613adf565b60006060808d80602001905161012081101561259557600080fd5b60c082015160e083018051604051606086019490929086019186919084600160201b8211156125c357600080fd5b9083019060208201858111156125d857600080fd5b82518660208202830111600160201b821117156125f457600080fd5b82525081516020918201928201910280838360005b83811015612621578181015183820152602001612609565b5050505090500160405260200180516040519392919084600160201b82111561264957600080fd5b90830190602082018581111561265e57600080fd5b82518660208202830111600160201b8211171561267a57600080fd5b82525081516020918201928201910280838360005b838110156126a757818101518382015260200161268f565b505050509050016040525050509450945094509450945060008311156126d5576126d2858585612eaf565b9b505b8151156126f1576126e6828261312c565b929c50909a50985095505b6000898d0111806127025750600088115b1561271657612713898d0189613364565b9a505b8a8a011561273957600b54612736906001600160a01b03168c8c01613864565b96505b505050929091019998505050505050505050565b6001600160a01b0382166127a8576040805162461bcd60e51b815260206004820152601f60248201527f45524332303a206d696e7420746f20746865207a65726f206164647265737300604482015290519081900360640190fd5b6002546127bb908263ffffffff61242e16565b6002556001600160a01b0382166000908152602081905260409020546127e7908263ffffffff61242e16565b6001600160a01b0383166000818152602081815260408083209490945583518581529351929391927fddf252ad1be2c89b69c2b068fc378daa952ba7f163c4a11628f55a4df523b3ef9281900390910190a35050565b6000818361288c5760405162461bcd60e51b81526020600482018181528351602484015283519092839260449091019190850190808383600083156123eb5781810151838201526020016123d3565b50600083858161289857fe5b0495945050505050565b6000611ade83836040518060400160405280601e81526020017f536166654d6174683a207375627472616374696f6e206f766572666c6f770000815250612397565b6128f6826001600160a01b0316613956565b612947576040805162461bcd60e51b815260206004820152601f60248201527f5361666545524332303a2063616c6c20746f206e6f6e2d636f6e747261637400604482015290519081900360640190fd5b60006060836001600160a01b0316836040518082805190602001908083835b602083106129855780518252601f199092019160209182019101612966565b6001836020036101000a0380198251168184511680821785525050505050509050019150506000604051808303816000865af19150503d80600081146129e7576040519150601f19603f3d011682016040523d82523d6000602084013e6129ec565b606091505b509150915081612a43576040805162461bcd60e51b815260206004820181905260248201527f5361666545524332303a206c6f772d6c6576656c2063616c6c206661696c6564604482015290519081900360640190fd5b80511561255857808060200190516020811015612a5f57600080fd5b50516125585760405162461bcd60e51b815260040180806020018281038252602a815260200180613c3e602a913960400191505060405180910390fd5b60055460408051638b2f0f4f60e01b81526001600160a01b038781166004830152915160009384936101009091041691638b2f0f4f916024808301926020929190829003018186803b158015612af157600080fd5b505afa158015612b05573d6000803e3d6000fd5b505050506040513d6020811015612b1b57600080fd5b505160055460408051638b2f0f4f60e01b81526001600160a01b038981166004830152915193945060009361010090930490911691638b2f0f4f91602480820192602092909190829003018186803b158015612b7657600080fd5b505afa158015612b8a573d6000803e3d6000fd5b505050506040513d6020811015612ba057600080fd5b505160055460408051630b4e5fdd60e31b815290519293506000926101009092046001600160a01b031691635a72fee891600480820192602092909190829003018186803b158015612bf157600080fd5b505afa158015612c05573d6000803e3d6000fd5b505050506040513d6020811015612c1b57600080fd5b50516040805163165013c360e31b81526001600160a01b038b81166004830152602482018a90529151919092169163b2809e18916044808301926020929190829003018186803b158015612c6e57600080fd5b505afa158015612c82573d6000803e3d6000fd5b505050506040513d6020811015612c9857600080fd5b505190506000612cb2836107b0848763ffffffff611a8516565b90506000600560019054906101000a90046001600160a01b03166001600160a01b0316635a72fee86040518163ffffffff1660e01b815260040160206040518083038186803b158015612d0457600080fd5b505afa158015612d18573d6000803e3d6000fd5b505050506040513d6020811015612d2e57600080fd5b50516040805163566ab92760e01b81526001600160a01b038c81166004830152602482018690529151919092169163566ab927916044808301926020929190829003018186803b158015612d8157600080fd5b505afa158015612d95573d6000803e3d6000fd5b505050506040513d6020811015612dab57600080fd5b505190506000612dc76127106107b0848b63ffffffff611a8516565b9091039a9950505050505050505050565b60408051636eb1769f60e11b81523060048201526001600160a01b038481166024830152915160009286169163dd62ed3e916044808301926020929190829003018186803b158015612e2957600080fd5b505afa158015612e3d573d6000803e3d6000fd5b505050506040513d6020811015612e5357600080fd5b50511115612e9557612e766001600160a01b03841683600063ffffffff61398f16565b612e906001600160a01b038416838363ffffffff61398f16565b611c75565b611c756001600160a01b038416838363ffffffff61398f16565b600080612eba612488565b6007546040805163bdf475c360e01b81526001600160a01b0392831660048201529051929091169163bdf475c391602480820192602092909190829003018186803b158015612f0857600080fd5b505afa158015612f1c573d6000803e3d6000fd5b505050506040513d6020811015612f3257600080fd5b5051905060005b6003811015612f8e576000858260038110612f5057fe5b60200201511115612f8657612f86868260038110612f6a57fe5b602002015183878460038110612f7c57fe5b6020020151612dd8565b600101612f39565b50600754604080516370a0823160e01b815230600482015290516000926001600160a01b0316916370a08231916024808301926020929190829003018186803b158015612fda57600080fd5b505afa158015612fee573d6000803e3d6000fd5b505050506040513d602081101561300457600080fd5b5051604051634515cef360e01b81529091506001600160a01b03831690634515cef390879087906004018083606080838360005b83811015613050578181015183820152602001613038565b5050505090500182815260200192505050600060405180830381600087803b15801561307b57600080fd5b505af115801561308f573d6000803e3d6000fd5b5050600754604080516370a0823160e01b81523060048201529051600094506001600160a01b0390921692506370a08231916024808301926020929190829003018186803b1580156130e057600080fd5b505afa1580156130f4573d6000803e3d6000fd5b505050506040513d602081101561310a57600080fd5b505190506000613120828463ffffffff6128a216565b98975050505050505050565b6000806000806000806000806000600b60009054906101000a90046001600160a01b03166001600160a01b031663fc0c546a6040518163ffffffff1660e01b815260040160206040518083038186803b15801561318857600080fd5b505afa15801561319c573d6000803e3d6000fd5b505050506040513d60208110156131b257600080fd5b5051905060005b8b5181101561335257816001600160a01b03168c82815181106131d857fe5b60200260200101516001600160a01b0316141561320c578a81815181106131fb57fe5b60200260200101518601955061334a565b600b548c516001600160a01b03909116908d908390811061322957fe5b60200260200101516001600160a01b0316141561325d578a818151811061324c57fe5b60200260200101518501945061334a565b600d548c516001600160a01b03909116908d908390811061327a57fe5b60200260200101516001600160a01b031614156132ae578a818151811061329d57fe5b60200260200101518301925061334a565b6007548c516001600160a01b03909116908d90839081106132cb57fe5b60200260200101516001600160a01b031614156132ff578a81815181106132ee57fe5b60200260200101518401935061334a565b6133458c828151811061330e57fe5b6020026020010151600760009054906101000a90046001600160a01b03168d848151811061333857fe5b6020026020010151611f33565b840193505b6001016131b9565b50939a91995097509095509350505050565b6000806000600b60009054906101000a90046001600160a01b03166001600160a01b031663fc0c546a6040518163ffffffff1660e01b815260040160206040518083038186803b1580156133b757600080fd5b505afa1580156133cb573d6000803e3d6000fd5b505050506040513d60208110156133e157600080fd5b5051905060006133ef612488565b6001600160a01b031663bdf475c3836040518263ffffffff1660e01b815260040180826001600160a01b03166001600160a01b0316815260200191505060206040518083038186803b15801561344457600080fd5b505afa158015613458573d6000803e3d6000fd5b505050506040513d602081101561346e57600080fd5b5051905061347a613aa2565b613482612488565b6040805163940494f160e01b81526001600160a01b038581166004830152825193169263940494f192602480840193919291829003018186803b1580156134c857600080fd5b505afa1580156134dc573d6000803e3d6000fd5b505050506040513d601f19601f82011682018060405250604081101561350157600080fd5b50905061350c613ac0565b613514612488565b6001600160a01b0316639ac90d3d846040518263ffffffff1660e01b815260040180826001600160a01b03166001600160a01b031681526020019150506101006040518083038186803b15801561356a57600080fd5b505afa15801561357e573d6000803e3d6000fd5b505050506040513d601f19601f820116820180604052506101008110156135a457600080fd5b5082519091506135b2613aa2565b60005b828110156136c4576007546001600160a01b03168482600881106135d557fe5b60200201516001600160a01b0316141561363f578a8282600281106135f657fe5b60200201528a1561363a57600754613618906001600160a01b0316878d612dd8565b600754600954613635916001600160a01b03169089908e90612a9c565b880197505b6136bc565b600d546001600160a01b031684826008811061365757fe5b60200201516001600160a01b031614156136bc578982826002811061367857fe5b602002015289156136bc57600d5461369a906001600160a01b0316878c612dd8565b600d546009546136b7916001600160a01b03169089908d90612a9c565b880197505b6001016135b5565b50604080516370a0823160e01b815230600482015290516000916001600160a01b038916916370a0823191602480820192602092909190829003018186803b15801561370f57600080fd5b505afa158015613723573d6000803e3d6000fd5b505050506040513d602081101561373957600080fd5b505160408051630b4c7e4d60e01b81529192506001600160a01b03881691630b4c7e4d9185918c916004909101908190849080838360005b83811015613789578181015183820152602001613771565b5050505090500182815260200192505050600060405180830381600087803b1580156137b457600080fd5b505af11580156137c8573d6000803e3d6000fd5b5050604080516370a0823160e01b81523060048201529051600093506001600160a01b038b1692506370a0823191602480820192602092909190829003018186803b15801561381657600080fd5b505afa15801561382a573d6000803e3d6000fd5b505050506040513d602081101561384057600080fd5b50519050613854818363ffffffff6128a216565b9c9b505050505050505050505050565b600080836001600160a01b031663fc0c546a6040518163ffffffff1660e01b815260040160206040518083038186803b1580156138a057600080fd5b505afa1580156138b4573d6000803e3d6000fd5b505050506040513d60208110156138ca57600080fd5b505190506138d9818585612dd8565b6000846001600160a01b031663b6b55f25856040518263ffffffff1660e01b815260040180828152602001915050602060405180830381600087803b15801561392157600080fd5b505af1158015613935573d6000803e3d6000fd5b505050506040513d602081101561394b57600080fd5b505195945050505050565b6000813f7fc5d2460186f7233c927e7db2dcc703c0e500b653ca82273b7bfad8045d85a470818114801590611a7d575050151592915050565b801580613a15575060408051636eb1769f60e11b81523060048201526001600160a01b03848116602483015291519185169163dd62ed3e91604480820192602092909190829003018186803b1580156139e757600080fd5b505afa1580156139fb573d6000803e3d6000fd5b505050506040513d6020811015613a1157600080fd5b5051155b613a505760405162461bcd60e51b8152600401808060200182810382526036815260200180613c686036913960400191505060405180910390fd5b604080516001600160a01b038416602482015260448082018490528251808303909101815260649091019091526020810180516001600160e01b031663095ea7b360e01b179052611c759084906128e4565b60405180604001604052806002906020820280388339509192915050565b6040518061010001604052806008906020820280388339509192915050565b6040518060600160405280600390602082028038833950919291505056fe45524332303a207472616e7366657220746f20746865207a65726f206164647265737345524332303a206275726e20616d6f756e7420657863656564732062616c616e636545524332303a20617070726f766520746f20746865207a65726f206164647265737345524332303a207472616e7366657220616d6f756e7420657863656564732062616c616e6365536166654d6174683a206d756c7469706c69636174696f6e206f766572666c6f7745524332303a207472616e7366657220616d6f756e74206578636565647320616c6c6f77616e636545524332303a206275726e2066726f6d20746865207a65726f206164647265737345524332303a207472616e736665722066726f6d20746865207a65726f206164647265737345524332303a20617070726f76652066726f6d20746865207a65726f20616464726573735361666545524332303a204552433230206f7065726174696f6e20646964206e6f7420737563636565645361666545524332303a20617070726f76652066726f6d206e6f6e2d7a65726f20746f206e6f6e2d7a65726f20616c6c6f77616e636545524332303a2064656372656173656420616c6c6f77616e63652062656c6f77207a65726fa265627a7a72315820aae7c9f2a67bb95d7e9830431d18a7ec554288fdae7c4ef6e4e5b2e429db99cf64736f6c63430005110032",
  "source": "// SPDX-License-Identifier: MIT\npragma solidity >=0.5.0 <0.7.0;\nimport \"@openzeppelin/contracts/math/SafeMath.sol\";\nimport \"@openzeppelin/contracts/utils/Address.sol\";\nimport \"@openzeppelin/contracts/token/ERC20/SafeERC20.sol\";\nimport \"@openzeppelin/contracts/token/ERC20/ERC20Detailed.sol\";\nimport \"@openzeppelin/contracts/token/ERC20/ERC20.sol\";\nimport \"@openzeppelin/contracts/token/ERC20/IERC20.sol\";\nimport \"../interfaces/IAPContract.sol\";\nimport \"../interfaces/ICrvAddressProvider.sol\";\nimport \"../interfaces/ICrvRegistry.sol\";\nimport \"../interfaces/yearn/IVault.sol\";\nimport \"../interfaces/IExchange.sol\";\nimport \"../interfaces/IHexUtils.sol\";\nimport \"../interfaces/ICrvPool.sol\";\nimport \"../interfaces/ICrv3Pool.sol\";\nimport \"../interfaces/IExchangeRegistry.sol\";\n\ncontract SingleAsset3Crv is ERC20, ERC20Detailed {\n    using SafeERC20 for IERC20;\n    using SafeMath for uint256;\n\n    address public APContract;\n    address public owner;\n    address private crv3Token = 0x6c3F90f043a72FA612cbac8115EE7e52BDe6E490;\n    address private crvAddressProvider =\n        0x0000000022D53366457F9d5E68Ec105046FC4383;\n    uint256 slippage = 50; //  0.1% slippage\n    uint256 slippageSwap = 50; //  0.5% slippage on swap\n\n    address public protocol;\n    uint256 public protocolBalance;\n    address public baseToken;\n    mapping(address => bool) isRegistered;\n\n    modifier onlyRegisteredVault() {\n        require(isRegistered[msg.sender], \"Not a registered Safe\");\n        _;\n    }\n\n    modifier onlyOwner() {\n        require(msg.sender == owner, \"Only permitted to owner\");\n        _;\n    }\n\n    constructor(\n        string memory _name,\n        string memory _symbol,\n        address _APContract,\n        address _protocol,\n        address _baseToken\n    )\n        public\n        ERC20Detailed(\n            string(abi.encodePacked(\"yl\", _symbol)),\n            string(abi.encodePacked(\"yl\", _name)),\n            18\n        )\n    {\n        APContract = _APContract;\n        protocol = _protocol;\n        baseToken = _baseToken;\n        owner = msg.sender;\n    }\n\n    /// @dev Function to set yearn protocols to the strategy.\n    /// @param _protocol Address of the yearn protocol.\n    function setProtocol(address _protocol, address _baseToken)\n        external\n        onlyOwner\n    {\n        require(_protocol != address(0), \"Zero address\");\n        protocol = _protocol;\n        baseToken = _baseToken;\n    }\n\n    /// @dev Function that returns the address of the Curve Registry contract.\n    function getRegistry() internal view returns (address) {\n        return ICrvAddressProvider(crvAddressProvider).get_registry();\n    }\n\n    /// @dev Function to set slippage settings when performing exchanges.\n    /// @param _slippageSwap Slippage value.\n    function setSlippageSwap(uint256 _slippageSwap) external onlyOwner {\n        require(_slippageSwap < 10000, \"! percentage\");\n        slippageSwap = _slippageSwap;\n    }\n\n    /// @dev Function to set slippage settings when interacting with Curve pools.\n    /// @param _slippage Slippage value.\n    function setSlippage(uint256 _slippage) external onlyOwner {\n        require(_slippage < 10000, \"! percentage\");\n        slippage = _slippage;\n    }\n\n    /// @dev Function to set the address of the Yieldster APS.\n    /// @param _APContract Address of the APS Contract.\n    function setAPContract(address _APContract) external onlyOwner {\n        APContract = _APContract;\n    }\n\n    /// @dev Function to subscribe a new vault to the strategy.\n    function registerSafe() external {\n        isRegistered[msg.sender] = true;\n    }\n\n    /// @dev Function to unsubscribe a vault from the strategy.\n    function deRegisterSafe() external onlyRegisteredVault {\n        isRegistered[msg.sender] = false;\n    }\n\n    /// @dev Function to approve a token.\n    /// @param _token Address of the token.\n    /// @param _spender Address of the spender.\n    /// @param _amount Amount of tokens to approve.\n    function _approveToken(\n        address _token,\n        address _spender,\n        uint256 _amount\n    ) internal {\n        if (IERC20(_token).allowance(address(this), _spender) > 0) {\n            IERC20(_token).safeApprove(_spender, 0);\n            IERC20(_token).safeApprove(_spender, _amount);\n        } else IERC20(_token).safeApprove(_spender, _amount);\n    }\n\n    function calculateSlippage(\n        address fromToken,\n        address toToken,\n        uint256 amount,\n        uint256 slippagePercent\n    ) internal view returns (uint256) {\n        uint256 fromTokenUSD = IAPContract(APContract).getUSDPrice(fromToken);\n        uint256 toTokenUSD = IAPContract(APContract).getUSDPrice(toToken);\n        uint256 fromTokenAmountDecimals = IHexUtils(\n            IAPContract(APContract).stringUtils()\n        ).toDecimals(fromToken, amount);\n\n        uint256 expectedToTokenDecimal = (\n            fromTokenAmountDecimals.mul(fromTokenUSD)\n        ).div(toTokenUSD);\n        uint256 expectedToToken = IHexUtils(\n            IAPContract(APContract).stringUtils()\n        ).fromDecimals(toToken, expectedToTokenDecimal);\n        uint256 minReturn = expectedToToken - //SLIPPAGE\n            expectedToToken.mul(slippagePercent).div(10000);\n        return minReturn;\n    }\n\n    /// @dev Function to deposit DAI | USDC | USDT to Curve 3 Pool.\n    /// @param assets Address List of the token.\n    /// @param amounts Amount List of the token.\n    /// @param min_mint_amount Min amount of 3Crv tokens expected.\n    function depositToCurve3Pool(\n        address[3] memory assets,\n        uint256[3] memory amounts,\n        uint256 min_mint_amount\n    ) internal returns (uint256) {\n        address pool = ICrvRegistry(getRegistry()).get_pool_from_lp_token(\n            crv3Token\n        );\n        for (uint256 i = 0; i < assets.length; i++) {\n            if (amounts[i] > 0) _approveToken(assets[i], pool, amounts[i]);\n        }\n        uint256 crv3TokenBefore = IERC20(crv3Token).balanceOf(address(this));\n        ICrv3Pool(pool).add_liquidity(amounts, min_mint_amount);\n        uint256 crv3TokenAfter = IERC20(crv3Token).balanceOf(address(this));\n        uint256 returnAmount = crv3TokenAfter.sub(crv3TokenBefore);\n        return returnAmount;\n    }\n\n    /// @dev Function to deposit 3Crv to Target Pool.\n    /// @param crv3Amount Amount of 3Crv tokens.\n    /// @param baseAmount Amount of base tokens.\n    function depositToTargetPool(uint256 crv3Amount, uint256 baseAmount)\n        internal\n        returns (uint256)\n    {\n        uint256 min_mint_amount;\n        address underlying = IVault(protocol).token();\n        address pool = ICrvRegistry(getRegistry()).get_pool_from_lp_token(\n            underlying\n        );\n        uint256[2] memory poolNCoins = ICrvRegistry(getRegistry()).get_n_coins(\n            pool\n        );\n        address[8] memory poolCoins = ICrvRegistry(getRegistry()).get_coins(\n            pool\n        );\n        uint256 index = poolNCoins[0];\n        uint256[2] memory amounts;\n\n        for (uint256 i = 0; i < index; i++) {\n            if (poolCoins[i] == crv3Token) {\n                amounts[i] = crv3Amount;\n                if (crv3Amount > 0) {\n                    _approveToken(crv3Token, pool, crv3Amount);\n                    min_mint_amount += calculateSlippage(\n                        crv3Token,\n                        underlying,\n                        crv3Amount,\n                        slippage\n                    );\n                }\n            } else if (poolCoins[i] == baseToken) {\n                amounts[i] = baseAmount;\n                if (baseAmount > 0) {\n                    _approveToken(baseToken, pool, baseAmount);\n                    min_mint_amount += calculateSlippage(\n                        baseToken,\n                        underlying,\n                        baseAmount,\n                        slippage\n                    );\n                }\n            }\n        }\n        uint256 underlyingBefore = IERC20(underlying).balanceOf(address(this));\n        ICrvPool(pool).add_liquidity(amounts, min_mint_amount);\n        uint256 underlyingAfter = IERC20(underlying).balanceOf(address(this));\n        return underlyingAfter.sub(underlyingBefore);\n    }\n\n    /// @dev Function to deposit LP tokens to Yearn Vault.\n    /// @param yVault Address of the yearn vault.\n    /// @param amount Amount of LP tokens to deposit.\n    function depositToYearnVault(address yVault, uint256 amount)\n        internal\n        returns (uint256)\n    {\n        address underlying = IVault(yVault).token();\n        _approveToken(underlying, yVault, amount);\n        uint256 yVaultTokens = IVault(yVault).deposit(amount);\n        return yVaultTokens;\n    }\n\n    /// @dev Function to exchange from one token to another.\n    /// @param fromToken Address of from token.\n    /// @param toToken Address of target token.\n    /// @param amount Amount of tokens to exchange.\n    function exchangeToken(\n        address fromToken,\n        address toToken,\n        uint256 amount\n    ) internal returns (uint256) {\n        uint256 exchangeReturn;\n        IExchangeRegistry exchangeRegistry = IExchangeRegistry(\n            IAPContract(APContract).exchangeRegistry()\n        );\n        address exchange = exchangeRegistry.getPair(fromToken, toToken);\n        require(exchange != address(0), \"Exchange pair not present\");\n\n        uint256 minReturn = calculateSlippage(\n            fromToken,\n            toToken,\n            amount,\n            slippageSwap\n        );\n\n        _approveToken(fromToken, exchange, amount);\n        exchangeReturn = IExchange(exchange).swap(\n            fromToken,\n            toToken,\n            amount,\n            minReturn\n        );\n        return exchangeReturn;\n    }\n\n    /// @dev Function to handle tokens other than DAI | USDC | USDT.\n    /// @param otherAssets Address List of tokens.\n    /// @param otherAmounts Amount List of tokens.\n    function handleOtherTokens(\n        address[] memory otherAssets,\n        uint256[] memory otherAmounts\n    )\n        internal\n        returns (\n            uint256,\n            uint256,\n            uint256,\n            uint256\n        )\n    {\n        uint256 underlyingTokens;\n        uint256 yVTokens;\n        uint256 crv3Tokens;\n        uint256 baseTokens;\n        address underlying = IVault(protocol).token();\n        for (uint256 i = 0; i < otherAssets.length; i++) {\n            if (otherAssets[i] == underlying)\n                underlyingTokens += otherAmounts[i];\n            else if (otherAssets[i] == protocol) yVTokens += otherAmounts[i];\n            else if (otherAssets[i] == baseToken) baseTokens += otherAmounts[i];\n            else if (otherAssets[i] == crv3Token) crv3Tokens += otherAmounts[i];\n            else {\n                crv3Tokens += exchangeToken(\n                    otherAssets[i],\n                    crv3Token,\n                    otherAmounts[i]\n                );\n            }\n        }\n        return (underlyingTokens, crv3Tokens, baseTokens, yVTokens);\n    }\n\n    /// @dev Function to handle strategy deposit function.\n    /// @param data Encoded parameters to be used.\n    function handleDeposit(bytes memory data) internal returns (uint256) {\n        uint256 crv3PoolReturn;\n        uint256 yVaultUnderlyingReturn;\n        uint256 otherYVUnderlyingReturn;\n        uint256 other3CrvReturn;\n        uint256 otherBaseReturn;\n        uint256 yVTokens;\n        uint256 _yVToken;\n        (\n            address[3] memory crv3Assets,\n            uint256[3] memory crv3Amounts,\n            uint256 min3CrvMint,\n            address[] memory otherAssets,\n            uint256[] memory otherAmounts\n        ) = abi.decode(\n                data,\n                (address[3], uint256[3], uint256, address[], uint256[])\n            );\n        if (min3CrvMint > 0) {\n            crv3PoolReturn = depositToCurve3Pool(\n                crv3Assets,\n                crv3Amounts,\n                min3CrvMint\n            );\n        }\n        if (otherAssets.length > 0) {\n            (\n                otherYVUnderlyingReturn,\n                other3CrvReturn,\n                otherBaseReturn,\n                _yVToken\n            ) = handleOtherTokens(otherAssets, otherAmounts);\n        }\n\n        if (crv3PoolReturn + other3CrvReturn > 0 || otherBaseReturn > 0)\n            yVaultUnderlyingReturn = depositToTargetPool(\n                crv3PoolReturn + other3CrvReturn,\n                otherBaseReturn\n            );\n        if (yVaultUnderlyingReturn + otherYVUnderlyingReturn > 0)\n            yVTokens = depositToYearnVault(\n                protocol,\n                yVaultUnderlyingReturn + otherYVUnderlyingReturn\n            );\n        return _yVToken + yVTokens;\n    }\n\n    /// @dev Function to deposit into strategy.\n    /// @param _depositAssets Address List of total assets being deposited.\n    /// @param _amounts Amounts List of total assets being deposited.\n    /// @param data Encoded parameters to be used.\n    function deposit(\n        address[] calldata _depositAssets,\n        uint256[] calldata _amounts,\n        bytes calldata data\n    ) external onlyRegisteredVault {\n        address underlying = IVault(protocol).token();\n        address pool = ICrvRegistry(getRegistry()).get_pool_from_lp_token(\n            underlying\n        );\n        require(pool != address(0), \"pool not present\");\n        for (uint256 i = 0; i < _depositAssets.length; i++) {\n            if (_amounts[i] > 0) {\n                IERC20(_depositAssets[i]).safeTransferFrom(\n                    msg.sender,\n                    address(this),\n                    _amounts[i]\n                );\n            }\n        }\n\n        uint256 yVTokens = handleDeposit(data);\n\n        uint256 _shares;\n        if (totalSupply() == 0) _shares = yVTokens;\n        else _shares = getMintValue(getDepositNAV(protocol, yVTokens));\n        protocolBalance += yVTokens;\n\n        if (_shares > 0) _mint(msg.sender, _shares);\n    }\n\n    /// @dev Function to calculate the strategy tokens to be minted for given nav.\n    /// @param depositNAV NAV for the amount.\n    function getMintValue(uint256 depositNAV) public view returns (uint256) {\n        return (depositNAV.mul(totalSupply())).div(getStrategyNAV());\n    }\n\n    /// @dev Function to calculate the NAV of strategy for a subscribed vault | if the msg.sender is\n    function getStrategyNAV() public view returns (uint256) {\n        if (protocolBalance > 0) {\n            uint256 tokenUSD = IAPContract(APContract).getUSDPrice(protocol);\n            uint256 balance = IHexUtils(IAPContract(APContract).stringUtils())\n                .toDecimals(protocol, protocolBalance);\n            return (balance.mul(tokenUSD)).div(1e18);\n        } else return 0;\n    }\n\n    /// @dev Function to calculate the NAV of a given token and amount.\n    /// @param _tokenAddress Address of the deposit token.\n    /// @param _amount Amount of deposit token.\n    function getDepositNAV(address _tokenAddress, uint256 _amount)\n        public\n        view\n        returns (uint256)\n    {\n        uint256 tokenUSD = IAPContract(APContract).getUSDPrice(_tokenAddress);\n        return\n            (\n                IHexUtils(IAPContract(APContract).stringUtils())\n                    .toDecimals(_tokenAddress, _amount)\n                    .mul(tokenUSD)\n            ).div(1e18);\n    }\n\n    /// @dev Function to calculate the token value of strategy for a subscribed Safe, if msg.sender is\n    function tokenValueInUSD() public view returns (uint256) {\n        if (getStrategyNAV() == 0 || totalSupply() == 0) return 0;\n        else return (getStrategyNAV().mul(1e18)).div(totalSupply());\n    }\n\n    /// @dev Function to withdraw strategy shares.\n    /// @param _shares amount of strategy shares to withdraw.\n    /// @param _withrawalAsset Address of the prefered withdrawal asset.\n    function withdraw(uint256 _shares, address _withrawalAsset)\n        public\n        onlyRegisteredVault\n        returns (\n            bool,\n            address,\n            uint256\n        )\n    {\n        require(balanceOf(msg.sender) >= _shares, \"Not enough shares\");\n        uint256 strategyTokenValueInUSD = (_shares.mul(getStrategyNAV())).div(\n            totalSupply()\n        );\n        address underlying = IVault(protocol).token();\n        uint256 protocolTokenUSD = IAPContract(APContract).getUSDPrice(\n            protocol\n        );\n        uint256 protocolTokenCount = strategyTokenValueInUSD.mul(1e18).div(\n            protocolTokenUSD\n        );\n        uint256 protocolTokensToWithdraw = IHexUtils(\n            IAPContract(APContract).stringUtils()\n        ).fromDecimals(protocol, protocolTokenCount);\n\n        _burn(msg.sender, _shares);\n        protocolBalance -= protocolTokensToWithdraw;\n\n        if (_withrawalAsset == address(0) || _withrawalAsset == protocol) {\n            IERC20(protocol).safeTransfer(msg.sender, protocolTokensToWithdraw);\n            return (true, protocol, protocolTokensToWithdraw);\n        } else {\n            uint256 underlyingAmount = IVault(protocol).withdraw(\n                protocolTokensToWithdraw\n            );\n            if (_withrawalAsset == underlying) {\n                IERC20(underlying).safeTransfer(msg.sender, underlyingAmount);\n                return (true, underlying, underlyingAmount);\n            } else if (_withrawalAsset == baseToken) {\n                uint256 baseTokens = withdrawFromPool(\n                    baseToken,\n                    underlying,\n                    underlyingAmount\n                );\n                IERC20(baseToken).safeTransfer(msg.sender, baseTokens);\n                return (true, baseToken, baseTokens);\n            } else {\n                uint256 crv3Tokens = withdrawFromPool(\n                    crv3Token,\n                    underlying,\n                    underlyingAmount\n                );\n                if (_withrawalAsset == crv3Token) {\n                    IERC20(crv3Token).safeTransfer(msg.sender, crv3Tokens);\n                    return (true, crv3Token, crv3Tokens);\n                }\n                uint256 withdrawalTokens = exchangeToken(\n                    crv3Token,\n                    _withrawalAsset,\n                    crv3Tokens\n                );\n                IERC20(_withrawalAsset).safeTransfer(\n                    msg.sender,\n                    withdrawalTokens\n                );\n                return (true, _withrawalAsset, withdrawalTokens);\n            }\n        }\n    }\n\n    /// @dev Function to remove Liquidity from Curve pool into 3Crv.\n    /// @param lpToken Address of the LP token of the Curve pool.\n    /// @param amount Amount of LP tokens.\n    function withdrawFromPool(\n        address toToken,\n        address lpToken,\n        uint256 amount\n    ) internal returns (uint256) {\n        uint256 toTokenReturn;\n        address pool = ICrvRegistry(getRegistry()).get_pool_from_lp_token(\n            lpToken\n        );\n\n        uint256[2] memory poolNCoins = ICrvRegistry(getRegistry()).get_n_coins(\n            pool\n        );\n        address[8] memory poolCoins = ICrvRegistry(getRegistry()).get_coins(\n            pool\n        );\n        uint256 index = poolNCoins[0];\n\n        uint256 minReturn = calculateSlippage(\n            lpToken,\n            toToken,\n            amount,\n            slippage\n        );\n\n        for (uint256 i = 0; i < index; i++) {\n            if (poolCoins[i] == toToken) {\n                toTokenReturn = ICrvPool(pool).remove_liquidity_one_coin(\n                    amount,\n                    int128(int256(i)),\n                    minReturn\n                );\n            }\n        }\n\n        return toTokenReturn;\n    }\n\n    /// @dev Function to withdraw all shares from strategy.\n    /// @param _withdrawalAsset Address of the prefered withdrawal asset.\n    function withdrawAllToSafe(address _withdrawalAsset)\n        external\n        onlyRegisteredVault\n        returns (\n            bool,\n            address,\n            uint256\n        )\n    {\n        return withdraw(balanceOf(msg.sender), _withdrawalAsset);\n    }\n\n    /// @dev Function to use in an Emergency, when a token gets stuck in the strategy.\n    /// @param _tokenAddres Address of the token.\n    /// @param _tokenAmount Amount of the token.\n    function inCaseTokenGetsStuck(address _tokenAddres, uint256 _tokenAmount)\n        external\n    {\n        require(\n            msg.sender == IAPContract(APContract).yieldsterDAO(),\n            \"unauthorized\"\n        );\n        IERC20(_tokenAddres).safeTransfer(msg.sender, _tokenAmount);\n    }\n}\n",
  "sourcePath": "/home/dxuser/Documents/scode/yieldster-vault/contracts/strategies/SingleAsset3Crv/SingleAsset3Crv.sol",
  "compiler": {
    "name": "solc",
    "version": "0.5.17+commit.d19bba13.Emscripten.clang"
  },
  "schemaVersion": "3.4.4",
  "updatedAt": "2022-02-08T04:41:08.979Z",
  "devdoc": {
    "methods": {
      "allowance(address,address)": {
        "details": "See {IERC20-allowance}."
      },
      "approve(address,uint256)": {
        "details": "See {IERC20-approve}.     * Requirements:     * - `spender` cannot be the zero address."
      },
      "balanceOf(address)": {
        "details": "See {IERC20-balanceOf}."
      },
      "deRegisterSafe()": {
        "details": "Function to unsubscribe a vault from the strategy."
      },
      "decimals()": {
        "details": "Returns the number of decimals used to get its user representation. For example, if `decimals` equals `2`, a balance of `505` tokens should be displayed to a user as `5,05` (`505 / 10 ** 2`).     * Tokens usually opt for a value of 18, imitating the relationship between Ether and Wei.     * NOTE: This information is only used for _display_ purposes: it in no way affects any of the arithmetic of the contract, including {IERC20-balanceOf} and {IERC20-transfer}."
      },
      "decreaseAllowance(address,uint256)": {
        "details": "Atomically decreases the allowance granted to `spender` by the caller.     * This is an alternative to {approve} that can be used as a mitigation for problems described in {IERC20-approve}.     * Emits an {Approval} event indicating the updated allowance.     * Requirements:     * - `spender` cannot be the zero address. - `spender` must have allowance for the caller of at least `subtractedValue`."
      },
      "deposit(address[],uint256[],bytes)": {
        "details": "Function to deposit into strategy.",
        "params": {
          "_amounts": "Amounts List of total assets being deposited.",
          "_depositAssets": "Address List of total assets being deposited.",
          "data": "Encoded parameters to be used."
        }
      },
      "getDepositNAV(address,uint256)": {
        "details": "Function to calculate the NAV of a given token and amount.",
        "params": {
          "_amount": "Amount of deposit token.",
          "_tokenAddress": "Address of the deposit token."
        }
      },
      "getMintValue(uint256)": {
        "details": "Function to calculate the strategy tokens to be minted for given nav.",
        "params": {
          "depositNAV": "NAV for the amount."
        }
      },
      "getStrategyNAV()": {
        "details": "Function to calculate the NAV of strategy for a subscribed vault | if the msg.sender is"
      },
      "inCaseTokenGetsStuck(address,uint256)": {
        "details": "Function to use in an Emergency, when a token gets stuck in the strategy.",
        "params": {
          "_tokenAddres": "Address of the token.",
          "_tokenAmount": "Amount of the token."
        }
      },
      "increaseAllowance(address,uint256)": {
        "details": "Atomically increases the allowance granted to `spender` by the caller.     * This is an alternative to {approve} that can be used as a mitigation for problems described in {IERC20-approve}.     * Emits an {Approval} event indicating the updated allowance.     * Requirements:     * - `spender` cannot be the zero address."
      },
      "name()": {
        "details": "Returns the name of the token."
      },
      "registerSafe()": {
        "details": "Function to subscribe a new vault to the strategy."
      },
      "setAPContract(address)": {
        "details": "Function to set the address of the Yieldster APS.",
        "params": {
          "_APContract": "Address of the APS Contract."
        }
      },
      "setProtocol(address,address)": {
        "details": "Function to set yearn protocols to the strategy.",
        "params": {
          "_protocol": "Address of the yearn protocol."
        }
      },
      "setSlippage(uint256)": {
        "details": "Function to set slippage settings when interacting with Curve pools.",
        "params": {
          "_slippage": "Slippage value."
        }
      },
      "setSlippageSwap(uint256)": {
        "details": "Function to set slippage settings when performing exchanges.",
        "params": {
          "_slippageSwap": "Slippage value."
        }
      },
      "symbol()": {
        "details": "Returns the symbol of the token, usually a shorter version of the name."
      },
      "tokenValueInUSD()": {
        "details": "Function to calculate the token value of strategy for a subscribed Safe, if msg.sender is"
      },
      "totalSupply()": {
        "details": "See {IERC20-totalSupply}."
      },
      "transfer(address,uint256)": {
        "details": "See {IERC20-transfer}.     * Requirements:     * - `recipient` cannot be the zero address. - the caller must have a balance of at least `amount`."
      },
      "transferFrom(address,address,uint256)": {
        "details": "See {IERC20-transferFrom}.     * Emits an {Approval} event indicating the updated allowance. This is not required by the EIP. See the note at the beginning of {ERC20};     * Requirements: - `sender` and `recipient` cannot be the zero address. - `sender` must have a balance of at least `amount`. - the caller must have allowance for `sender`'s tokens of at least `amount`."
      },
      "withdraw(uint256,address)": {
        "details": "Function to withdraw strategy shares.",
        "params": {
          "_shares": "amount of strategy shares to withdraw.",
          "_withrawalAsset": "Address of the prefered withdrawal asset."
        }
      },
      "withdrawAllToSafe(address)": {
        "details": "Function to withdraw all shares from strategy.",
        "params": {
          "_withdrawalAsset": "Address of the prefered withdrawal asset."
        }
      }
    }
  },
  "userdoc": {
    "methods": {}
  }
}