{
  "contractName": "StockWithdraw",
  "abi": [
    {
      "anonymous": false,
      "inputs": [
        {
          "indexed": true,
          "internalType": "address",
          "name": "owner",
          "type": "address"
        },
        {
          "indexed": true,
          "internalType": "address",
          "name": "spender",
          "type": "address"
        },
        {
          "indexed": false,
          "internalType": "uint256",
          "name": "value",
          "type": "uint256"
        }
      ],
      "name": "Approval",
      "type": "event"
    },
    {
      "anonymous": false,
      "inputs": [
        {
          "indexed": false,
          "internalType": "address",
          "name": "masterCopy",
          "type": "address"
        }
      ],
      "name": "ChangedMasterCopy",
      "type": "event"
    },
    {
      "anonymous": false,
      "inputs": [
        {
          "indexed": true,
          "internalType": "address",
          "name": "from",
          "type": "address"
        },
        {
          "indexed": true,
          "internalType": "address",
          "name": "to",
          "type": "address"
        },
        {
          "indexed": false,
          "internalType": "uint256",
          "name": "value",
          "type": "uint256"
        }
      ],
      "name": "Transfer",
      "type": "event"
    },
    {
      "constant": true,
      "inputs": [],
      "name": "APContract",
      "outputs": [
        {
          "internalType": "address",
          "name": "",
          "type": "address"
        }
      ],
      "payable": false,
      "stateMutability": "view",
      "type": "function"
    },
    {
      "constant": true,
      "inputs": [
        {
          "internalType": "address",
          "name": "owner",
          "type": "address"
        },
        {
          "internalType": "address",
          "name": "spender",
          "type": "address"
        }
      ],
      "name": "allowance",
      "outputs": [
        {
          "internalType": "uint256",
          "name": "",
          "type": "uint256"
        }
      ],
      "payable": false,
      "stateMutability": "view",
      "type": "function"
    },
    {
      "constant": false,
      "inputs": [
        {
          "internalType": "address",
          "name": "spender",
          "type": "address"
        },
        {
          "internalType": "uint256",
          "name": "amount",
          "type": "uint256"
        }
      ],
      "name": "approve",
      "outputs": [
        {
          "internalType": "bool",
          "name": "",
          "type": "bool"
        }
      ],
      "payable": false,
      "stateMutability": "nonpayable",
      "type": "function"
    },
    {
      "constant": true,
      "inputs": [
        {
          "internalType": "address",
          "name": "account",
          "type": "address"
        }
      ],
      "name": "balanceOf",
      "outputs": [
        {
          "internalType": "uint256",
          "name": "",
          "type": "uint256"
        }
      ],
      "payable": false,
      "stateMutability": "view",
      "type": "function"
    },
    {
      "constant": false,
      "inputs": [
        {
          "internalType": "address",
          "name": "_masterCopy",
          "type": "address"
        }
      ],
      "name": "changeMasterCopy",
      "outputs": [],
      "payable": false,
      "stateMutability": "nonpayable",
      "type": "function"
    },
    {
      "constant": true,
      "inputs": [],
      "name": "decimals",
      "outputs": [
        {
          "internalType": "uint8",
          "name": "",
          "type": "uint8"
        }
      ],
      "payable": false,
      "stateMutability": "view",
      "type": "function"
    },
    {
      "constant": false,
      "inputs": [
        {
          "internalType": "address",
          "name": "spender",
          "type": "address"
        },
        {
          "internalType": "uint256",
          "name": "subtractedValue",
          "type": "uint256"
        }
      ],
      "name": "decreaseAllowance",
      "outputs": [
        {
          "internalType": "bool",
          "name": "",
          "type": "bool"
        }
      ],
      "payable": false,
      "stateMutability": "nonpayable",
      "type": "function"
    },
    {
      "constant": true,
      "inputs": [],
      "name": "emergencyConditions",
      "outputs": [
        {
          "internalType": "uint8",
          "name": "",
          "type": "uint8"
        }
      ],
      "payable": false,
      "stateMutability": "view",
      "type": "function"
    },
    {
      "constant": true,
      "inputs": [
        {
          "internalType": "address",
          "name": "_tokenAddress",
          "type": "address"
        }
      ],
      "name": "getTokenBalance",
      "outputs": [
        {
          "internalType": "uint256",
          "name": "",
          "type": "uint256"
        }
      ],
      "payable": false,
      "stateMutability": "view",
      "type": "function"
    },
    {
      "constant": true,
      "inputs": [],
      "name": "getVaultActiveStrategy",
      "outputs": [
        {
          "internalType": "address[]",
          "name": "",
          "type": "address[]"
        }
      ],
      "payable": false,
      "stateMutability": "view",
      "type": "function"
    },
    {
      "constant": true,
      "inputs": [],
      "name": "getVaultNAV",
      "outputs": [
        {
          "internalType": "uint256",
          "name": "",
          "type": "uint256"
        }
      ],
      "payable": false,
      "stateMutability": "view",
      "type": "function"
    },
    {
      "constant": true,
      "inputs": [],
      "name": "getVaultNAVWithoutStrategyToken",
      "outputs": [
        {
          "internalType": "uint256",
          "name": "",
          "type": "uint256"
        }
      ],
      "payable": false,
      "stateMutability": "view",
      "type": "function"
    },
    {
      "constant": false,
      "inputs": [
        {
          "internalType": "address",
          "name": "spender",
          "type": "address"
        },
        {
          "internalType": "uint256",
          "name": "addedValue",
          "type": "uint256"
        }
      ],
      "name": "increaseAllowance",
      "outputs": [
        {
          "internalType": "bool",
          "name": "",
          "type": "bool"
        }
      ],
      "payable": false,
      "stateMutability": "nonpayable",
      "type": "function"
    },
    {
      "constant": true,
      "inputs": [],
      "name": "name",
      "outputs": [
        {
          "internalType": "string",
          "name": "",
          "type": "string"
        }
      ],
      "payable": false,
      "stateMutability": "view",
      "type": "function"
    },
    {
      "constant": false,
      "inputs": [
        {
          "internalType": "address",
          "name": "operator",
          "type": "address"
        },
        {
          "internalType": "address",
          "name": "from",
          "type": "address"
        },
        {
          "internalType": "uint256[]",
          "name": "ids",
          "type": "uint256[]"
        },
        {
          "internalType": "uint256[]",
          "name": "values",
          "type": "uint256[]"
        },
        {
          "internalType": "bytes",
          "name": "data",
          "type": "bytes"
        }
      ],
      "name": "onERC1155BatchReceived",
      "outputs": [
        {
          "internalType": "bytes4",
          "name": "",
          "type": "bytes4"
        }
      ],
      "payable": false,
      "stateMutability": "nonpayable",
      "type": "function"
    },
    {
      "constant": false,
      "inputs": [
        {
          "internalType": "address",
          "name": "operator",
          "type": "address"
        },
        {
          "internalType": "address",
          "name": "from",
          "type": "address"
        },
        {
          "internalType": "uint256",
          "name": "id",
          "type": "uint256"
        },
        {
          "internalType": "uint256",
          "name": "value",
          "type": "uint256"
        },
        {
          "internalType": "bytes",
          "name": "data",
          "type": "bytes"
        }
      ],
      "name": "onERC1155Received",
      "outputs": [
        {
          "internalType": "bytes4",
          "name": "",
          "type": "bytes4"
        }
      ],
      "payable": false,
      "stateMutability": "nonpayable",
      "type": "function"
    },
    {
      "constant": true,
      "inputs": [],
      "name": "owner",
      "outputs": [
        {
          "internalType": "address",
          "name": "",
          "type": "address"
        }
      ],
      "payable": false,
      "stateMutability": "view",
      "type": "function"
    },
    {
      "constant": true,
      "inputs": [
        {
          "internalType": "bytes4",
          "name": "interfaceId",
          "type": "bytes4"
        }
      ],
      "name": "supportsInterface",
      "outputs": [
        {
          "internalType": "bool",
          "name": "",
          "type": "bool"
        }
      ],
      "payable": false,
      "stateMutability": "view",
      "type": "function"
    },
    {
      "constant": true,
      "inputs": [],
      "name": "symbol",
      "outputs": [
        {
          "internalType": "string",
          "name": "",
          "type": "string"
        }
      ],
      "payable": false,
      "stateMutability": "view",
      "type": "function"
    },
    {
      "constant": true,
      "inputs": [],
      "name": "tokenValueInUSD",
      "outputs": [
        {
          "internalType": "uint256",
          "name": "",
          "type": "uint256"
        }
      ],
      "payable": false,
      "stateMutability": "view",
      "type": "function"
    },
    {
      "constant": true,
      "inputs": [],
      "name": "totalSupply",
      "outputs": [
        {
          "internalType": "uint256",
          "name": "",
          "type": "uint256"
        }
      ],
      "payable": false,
      "stateMutability": "view",
      "type": "function"
    },
    {
      "constant": false,
      "inputs": [
        {
          "internalType": "address",
          "name": "recipient",
          "type": "address"
        },
        {
          "internalType": "uint256",
          "name": "amount",
          "type": "uint256"
        }
      ],
      "name": "transfer",
      "outputs": [
        {
          "internalType": "bool",
          "name": "",
          "type": "bool"
        }
      ],
      "payable": false,
      "stateMutability": "nonpayable",
      "type": "function"
    },
    {
      "constant": false,
      "inputs": [
        {
          "internalType": "address",
          "name": "sender",
          "type": "address"
        },
        {
          "internalType": "address",
          "name": "recipient",
          "type": "address"
        },
        {
          "internalType": "uint256",
          "name": "amount",
          "type": "uint256"
        }
      ],
      "name": "transferFrom",
      "outputs": [
        {
          "internalType": "bool",
          "name": "",
          "type": "bool"
        }
      ],
      "payable": false,
      "stateMutability": "nonpayable",
      "type": "function"
    },
    {
      "constant": true,
      "inputs": [],
      "name": "vaultAPSManager",
      "outputs": [
        {
          "internalType": "address",
          "name": "",
          "type": "address"
        }
      ],
      "payable": false,
      "stateMutability": "view",
      "type": "function"
    },
    {
      "constant": true,
      "inputs": [],
      "name": "vaultStrategyManager",
      "outputs": [
        {
          "internalType": "address",
          "name": "",
          "type": "address"
        }
      ],
      "payable": false,
      "stateMutability": "view",
      "type": "function"
    },
    {
      "constant": false,
      "inputs": [
        {
          "internalType": "uint256",
          "name": "_shares",
          "type": "uint256"
        }
      ],
      "name": "withdraw",
      "outputs": [],
      "payable": false,
      "stateMutability": "nonpayable",
      "type": "function"
    },
    {
      "constant": false,
      "inputs": [
        {
          "internalType": "address",
          "name": "_tokenAddress",
          "type": "address"
        },
        {
          "internalType": "uint256",
          "name": "_shares",
          "type": "uint256"
        }
      ],
      "name": "withdraw",
      "outputs": [],
      "payable": false,
      "stateMutability": "nonpayable",
      "type": "function"
    }
  ],
  "bytecode": "0x6080604052620000387f01ffc9a7000000000000000000000000000000000000000000000000000000006001600160e01b036200007216565b6200006c7f4e2312e0000000000000000000000000000000000000000000000000000000006001600160e01b036200007216565b62000173565b7fffffffff000000000000000000000000000000000000000000000000000000008082161415620000da576040517f08c379a0000000000000000000000000000000000000000000000000000000008152600401620000d19062000152565b60405180910390fd5b7fffffffff00000000000000000000000000000000000000000000000000000000166000908152600760205260409020805460ff19166001179055565b600062000126601c836200016a565b7f4552433136353a20696e76616c696420696e7465726661636520696400000000815260200192915050565b60208082528101620001648162000117565b92915050565b90815260200190565b6139b380620001836000396000f3fe608060405234801561001057600080fd5b50600436106101a95760003560e01c80633f514315116100f9578063a9059cbb11610097578063bc197c8111610071578063bc197c811461032d578063dd62ed3e1461034d578063f23a6e6114610360578063f3fef3a314610373576101a9565b8063a9059cbb146102fd578063ac221b5c14610310578063b28aaf7d14610325576101a9565b80637de7edef116100d35780637de7edef146102c75780638da5cb5b146102da57806395d89b41146102e2578063a457c2d7146102ea576101a9565b80633f514315146102a45780635969326b146102ac57806370a08231146102b4576101a9565b80632b27ef6611610166578063313ce56711610140578063313ce5671461026e5780633384602714610276578063395093511461027e5780633aecd0e314610291576101a9565b80632b27ef661461023c5780632c9a4105146102515780632e1a7d4d14610259576101a9565b806301ffc9a7146101ae57806306fdde03146101d7578063095ea7b3146101ec5780630c6a957f146101ff57806318160ddd1461021457806323b872dd14610229575b600080fd5b6101c16101bc3660046131c0565b610386565b6040516101ce9190613697565b60405180910390f35b6101df6103a5565b6040516101ce91906136b3565b6101c16101fa3660046130fa565b61043c565b61020761045a565b6040516101ce91906137c8565b61021c610463565b6040516101ce9190613784565b6101c161023736600461301d565b610469565b6102446104f7565b6040516101ce919061365d565b61021c610506565b61026c6102673660046131de565b610a28565b005b610207610f5e565b610244610f67565b6101c161028c3660046130fa565b610f7d565b61021c61029f366004612edd565b610fd1565b610244611052565b61021c611061565b61021c6102c2366004612edd565b6110af565b61026c6102d5366004612edd565b6110ca565b61024461116e565b6101df61117d565b6101c16102f83660046130fa565b6111de565b6101c161030b3660046130fa565b61124c565b610318611260565b6040516101ce9190613686565b61021c6112f1565b61034061033b366004612f53565b6114e2565b6040516101ce91906136a5565b61021c61035b366004612f19565b6114f0565b61034061036e36600461306a565b61151b565b61026c6103813660046130fa565b611527565b6001600160e01b03191660009081526007602052604090205460ff1690565b60048054604080516020601f60026000196101006001881615020190951694909404938401819004810282018101909252828152606093909290918301828280156104315780601f1061040657610100808354040283529160200191610431565b820191906000526020600020905b81548152906001019060200180831161041457829003601f168201915b505050505090505b90565b60006104506104496117da565b84846117de565b5060015b92915050565b60085460ff1681565b60035490565b6000610476848484611892565b6104ec846104826117da565b6104e785604051806060016040528060288152602001613924602891396001600160a01b038a166000908152600260205260408120906104c06117da565b6001600160a01b03168152602081019190915260400160002054919063ffffffff6119a816565b6117de565b5060015b9392505050565b600b546001600160a01b031681565b60006060610512611260565b90506000805b600d5481101561086b57600f54600d80546000926001600160a01b031691633aecd0e3918590811061054657fe5b6000918252602090912001546040516001600160e01b031960e084901b16815261057c916001600160a01b03169060040161365d565b60206040518083038186803b15801561059457600080fd5b505afa1580156105a8573d6000803e3d6000fd5b505050506040513d601f19601f820116820180604052506105cc91908101906131fc565b111561086357600854600d8054600092630100000090046001600160a01b031691638b2f0f4f91859081106105fd57fe5b6000918252602090912001546040516001600160e01b031960e084901b168152610633916001600160a01b03169060040161365d565b60206040518083038186803b15801561064b57600080fd5b505afa15801561065f573d6000803e3d6000fd5b505050506040513d601f19601f8201168201806040525061068391908101906131fc565b905061085d81600860039054906101000a90046001600160a01b03166001600160a01b0316635a72fee86040518163ffffffff1660e01b815260040160206040518083038186803b1580156106d757600080fd5b505afa1580156106eb573d6000803e3d6000fd5b505050506040513d601f19601f8201168201806040525061070f9190810190612efb565b6001600160a01b031663b2809e18600d868154811061072a57fe5b600091825260209091200154600f54600d80546001600160a01b039384169390921691633aecd0e391908a90811061075e57fe5b6000918252602090912001546040516001600160e01b031960e084901b168152610794916001600160a01b03169060040161365d565b60206040518083038186803b1580156107ac57600080fd5b505afa1580156107c0573d6000803e3d6000fd5b505050506040513d601f19601f820116820180604052506107e491908101906131fc565b6040518363ffffffff1660e01b815260040161080192919061366b565b60206040518083038186803b15801561081957600080fd5b505afa15801561082d573d6000803e3d6000fd5b505050506040513d601f19601f8201168201806040525061085191908101906131fc565b9063ffffffff6119d416565b83019250505b600101610518565b5081516108935761088a81670de0b6b3a764000063ffffffff611a0e16565b92505050610439565b60005b8251811015610a0f5760008382815181106108ad57fe5b60200260200101516001600160a01b03166370a08231306040518263ffffffff1660e01b81526004016108e0919061365d565b60206040518083038186803b1580156108f857600080fd5b505afa15801561090c573d6000803e3d6000fd5b505050506040513d601f19601f8201168201806040525061093091908101906131fc565b1115610a0757600083828151811061094457fe5b60200260200101516001600160a01b0316635969326b6040518163ffffffff1660e01b815260040160206040518083038186803b15801561098457600080fd5b505afa158015610998573d6000803e3d6000fd5b505050506040513d601f19601f820116820180604052506109bc91908101906131fc565b9050610a01818584815181106109ce57fe5b60200260200101516001600160a01b03166370a08231306040518263ffffffff1660e01b8152600401610801919061365d565b83019250505b600101610896565b5061088a81670de0b6b3a764000063ffffffff611a0e16565b6000610a32610463565b9050610a3e3383611a50565b60085460405163387971a160e11b8152606091630100000090046001600160a01b0316906370f2e34290610a7690309060040161365d565b60006040518083038186803b158015610a8e57600080fd5b505afa158015610aa2573d6000803e3d6000fd5b505050506040513d6000823e601f3d908101601f19168201604052610aca919081019061312a565b905060005b8151811015610c59576000828281518110610ae657fe5b60200260200101516001600160a01b03166370a08231306040518263ffffffff1660e01b8152600401610b19919061365d565b60206040518083038186803b158015610b3157600080fd5b505afa158015610b45573d6000803e3d6000fd5b505050506040513d601f19601f82011682018060405250610b6991908101906131fc565b90508015610c50576000610b9385610b87888563ffffffff6119d416565b9063ffffffff611a0e16565b9050600080858581518110610ba457fe5b60200260200101516001600160a01b031662f714ce8460006040518363ffffffff1660e01b8152600401610bd99291906137ad565b606060405180830381600087803b158015610bf357600080fd5b505af1158015610c07573d6000803e3d6000fd5b505050506040513d601f19601f82011682018060405250610c2b919081019061317d565b9093509150610c4c90506001600160a01b038316338363ffffffff611b3216565b5050505b50600101610acf565b5060005b600d54811015610f58576000600d8281548110610c7657fe5b6000918252602082200154600f54600d80546001600160a01b0393841695509190921691633aecd0e39186908110610caa57fe5b6000918252602090912001546040516001600160e01b031960e084901b168152610ce0916001600160a01b03169060040161365d565b60206040518083038186803b158015610cf857600080fd5b505afa158015610d0c573d6000803e3d6000fd5b505050506040513d601f19601f82011682018060405250610d3091908101906131fc565b1115610f4f57600f54600d8054600092610df7928892610b87926001600160a01b031691633aecd0e39189908110610d6457fe5b6000918252602090912001546040516001600160e01b031960e084901b168152610d9a916001600160a01b03169060040161365d565b60206040518083038186803b158015610db257600080fd5b505afa158015610dc6573d6000803e3d6000fd5b505050506040513d601f19601f82011682018060405250610dea91908101906131fc565b899063ffffffff6119d416565b600f54600d80549293506001600160a01b0390911691634ceb1f13919086908110610e1e57fe5b600091825260209091200154600f54600d80546001600160a01b0393841693610ee9938893911691633aecd0e391908b908110610e5757fe5b6000918252602090912001546040516001600160e01b031960e084901b168152610e8d916001600160a01b03169060040161365d565b60206040518083038186803b158015610ea557600080fd5b505afa158015610eb9573d6000803e3d6000fd5b505050506040513d601f19601f82011682018060405250610edd91908101906131fc565b9063ffffffff611b9016565b6040518363ffffffff1660e01b8152600401610f0692919061366b565b600060405180830381600087803b158015610f2057600080fd5b505af1158015610f34573d6000803e3d6000fd5b50610f4d925050506001600160a01b0383163383611b32565b505b50600101610c5d565b50505050565b60065460ff1690565b600854630100000090046001600160a01b031681565b6000610450610f8a6117da565b846104e78560026000610f9b6117da565b6001600160a01b03908116825260208083019390935260409182016000908120918c16815292529020549063ffffffff611bd216565b600f54604051633aecd0e360e01b81526000916001600160a01b031690633aecd0e39061100290859060040161365d565b60206040518083038186803b15801561101a57600080fd5b505afa15801561102e573d6000803e3d6000fd5b505050506040513d601f19601f8201168201806040525061045491908101906131fc565b600a546001600160a01b031681565b600061106b610506565b158061107c575061107a610463565b155b1561108957506000610439565b6110a8611094610463565b610b87670de0b6b3a7640000610851610506565b9050610439565b6001600160a01b031660009081526001602052604090205490565b3330146110f25760405162461bcd60e51b81526004016110e990613744565b60405180910390fd5b6001600160a01b0381166111185760405162461bcd60e51b81526004016110e9906136d4565b600080546001600160a01b0319166001600160a01b0383161790556040517f75e41bc35ff1bf14d81d1d2f649c0084a0f974f9289c803ec9898eeec4c8d0b89061116390839061365d565b60405180910390a150565b6009546001600160a01b031681565b60058054604080516020601f60026000196101006001881615020190951694909404938401819004810282018101909252828152606093909290918301828280156104315780601f1061040657610100808354040283529160200191610431565b60006104506111eb6117da565b846104e78560405180606001604052806025815260200161394c60259139600260006112156117da565b6001600160a01b03908116825260208083019390935260409182016000908120918d1681529252902054919063ffffffff6119a816565b60006104506112596117da565b8484611892565b60085460405163387971a160e11b8152606091630100000090046001600160a01b0316906370f2e3429061129890309060040161365d565b60006040518083038186803b1580156112b057600080fd5b505afa1580156112c4573d6000803e3d6000fd5b505050506040513d6000823e601f3d908101601f191682016040526112ec919081019061312a565b905090565b600080805b600d548110156114c357600f54600d80546000926001600160a01b031691633aecd0e3918590811061132457fe5b6000918252602090912001546040516001600160e01b031960e084901b16815261135a916001600160a01b03169060040161365d565b60206040518083038186803b15801561137257600080fd5b505afa158015611386573d6000803e3d6000fd5b505050506040513d601f19601f820116820180604052506113aa91908101906131fc565b11156114bb57600854600d8054600092630100000090046001600160a01b031691638b2f0f4f91859081106113db57fe5b6000918252602090912001546040516001600160e01b031960e084901b168152611411916001600160a01b03169060040161365d565b60206040518083038186803b15801561142957600080fd5b505afa15801561143d573d6000803e3d6000fd5b505050506040513d601f19601f8201168201806040525061146191908101906131fc565b90506114b581600860039054906101000a90046001600160a01b03166001600160a01b0316635a72fee86040518163ffffffff1660e01b815260040160206040518083038186803b1580156106d757600080fd5b83019250505b6001016112f6565b506114dc81670de0b6b3a764000063ffffffff611a0e16565b91505090565b600098975050505050505050565b6001600160a01b03918216600090815260026020908152604080832093909416825291909152205490565b60009695505050505050565b61153082611bf7565b600854604051638b2f0f4f60e01b8152600091630100000090046001600160a01b031690638b2f0f4f9061156890869060040161365d565b60206040518083038186803b15801561158057600080fd5b505afa158015611594573d6000803e3d6000fd5b505050506040513d601f19601f820116820180604052506115b891908101906131fc565b905060006115ef82610b87670de0b6b3a76400006108516115d7610463565b610b876115e2610506565b8a9063ffffffff6119d416565b90506000600860039054906101000a90046001600160a01b03166001600160a01b0316635a72fee86040518163ffffffff1660e01b815260040160206040518083038186803b15801561164157600080fd5b505afa158015611655573d6000803e3d6000fd5b505050506040513d601f19601f820116820180604052506116799190810190612efb565b6001600160a01b031663566ab92786846040518363ffffffff1660e01b81526004016116a692919061366b565b60206040518083038186803b1580156116be57600080fd5b505afa1580156116d2573d6000803e3d6000fd5b505050506040513d601f19601f820116820180604052506116f691908101906131fc565b600f54604051633aecd0e360e01b81529192506001600160a01b031690633aecd0e39061172790889060040161365d565b60206040518083038186803b15801561173f57600080fd5b505afa158015611753573d6000803e3d6000fd5b505050506040513d601f19601f8201168201806040525061177791908101906131fc565b811161178e5761178985828684611c80565b6117d3565b6117966112f1565b6117b96117a1610463565b610b876117ac610506565b889063ffffffff6119d416565b11156117c9576117898585611d33565b6117d38585612044565b5050505050565b3390565b6001600160a01b0383166118045760405162461bcd60e51b81526004016110e990613754565b6001600160a01b03821661182a5760405162461bcd60e51b81526004016110e9906136e4565b6001600160a01b0380841660008181526002602090815260408083209487168084529490915290819020849055517f8c5be1e5ebec7d5bd14f71427d1e84f3dd0314c0f7b2291e5b200ac8c7c3b92590611885908590613784565b60405180910390a3505050565b6001600160a01b0383166118b85760405162461bcd60e51b81526004016110e990613734565b6001600160a01b0382166118de5760405162461bcd60e51b81526004016110e9906136c4565b611921816040518060600160405280602681526020016138fe602691396001600160a01b038616600090815260016020526040902054919063ffffffff6119a816565b6001600160a01b038085166000908152600160205260408082209390935590841681522054611956908263ffffffff611bd216565b6001600160a01b0380841660008181526001602052604090819020939093559151908516907fddf252ad1be2c89b69c2b068fc378daa952ba7f163c4a11628f55a4df523b3ef90611885908590613784565b600081848411156119cc5760405162461bcd60e51b81526004016110e991906136b3565b505050900390565b6000826119e357506000610454565b828202828482816119f057fe5b04146104f05760405162461bcd60e51b81526004016110e990613714565b60006104f083836040518060400160405280601a81526020017f536166654d6174683a206469766973696f6e206279207a65726f000000000000815250612337565b6001600160a01b038216611a765760405162461bcd60e51b81526004016110e990613724565b611ab9816040518060600160405280602281526020016138dc602291396001600160a01b038516600090815260016020526040902054919063ffffffff6119a816565b6001600160a01b038316600090815260016020526040902055600354611ae5908263ffffffff611b9016565b6003556040516000906001600160a01b038416907fddf252ad1be2c89b69c2b068fc378daa952ba7f163c4a11628f55a4df523b3ef90611b26908590613784565b60405180910390a35050565b604051611b8b90849063a9059cbb60e01b90611b54908690869060240161366b565b60408051601f198184030181529190526020810180516001600160e01b03166001600160e01b03199093169290921790915261236e565b505050565b60006104f083836040518060400160405280601e81526020017f536166654d6174683a207375627472616374696f6e206f766572666c6f7700008152506119a8565b6000828201838110156104f05760405162461bcd60e51b81526004016110e9906136f4565b6001600160a01b0381166000908152600e602052604090205460ff16611c7d576001600160a01b0381166000818152600e60205260408120805460ff19166001908117909155600d805491820181559091527fd7b6990105719101dabeb77144f2a3385c8033acd3af97e9423a695e81ad1eb50180546001600160a01b03191690911790555b50565b600f54604051633aecd0e360e01b81526001600160a01b0390911690634ceb1f13908690611cc09087908590633aecd0e390610e8d90869060040161365d565b6040518363ffffffff1660e01b8152600401611cdd92919061366b565b600060405180830381600087803b158015611cf757600080fd5b505af1158015611d0b573d6000803e3d6000fd5b50505050611d193383611a50565b610f586001600160a01b038516338363ffffffff611b3216565b600854604051638b2f0f4f60e01b8152600091630100000090046001600160a01b031690638b2f0f4f90611d6b90869060040161365d565b60206040518083038186803b158015611d8357600080fd5b505afa158015611d97573d6000803e3d6000fd5b505050506040513d601f19601f82011682018060405250611dbb91908101906131fc565b600f54604051633aecd0e360e01b81529192506000916001600160a01b0390911690633aecd0e390611df190879060040161365d565b60206040518083038186803b158015611e0957600080fd5b505afa158015611e1d573d6000803e3d6000fd5b505050506040513d601f19601f82011682018060405250611e4191908101906131fc565b90506000611f16670de0b6b3a7640000610b8785600860039054906101000a90046001600160a01b03166001600160a01b0316635a72fee86040518163ffffffff1660e01b815260040160206040518083038186803b158015611ea357600080fd5b505afa158015611eb7573d6000803e3d6000fd5b505050506040513d601f19601f82011682018060405250611edb9190810190612efb565b600f54604051633aecd0e360e01b81526001600160a01b039283169263b2809e18928d92911690633aecd0e39061079490849060040161365d565b611f1e6112f1565b039050600080611f2c6112f1565b611f376115d7610463565b039050600080611f45612453565b91509150828110611ff957600080611fe984611fe3866001600160a01b0316635969326b6040518163ffffffff1660e01b815260040160206040518083038186803b158015611f9357600080fd5b505afa158015611fa7573d6000803e3d6000fd5b505050506040513d601f19601f82011682018060405250611fcb91908101906131fc565b610b8789670de0b6b3a764000063ffffffff6119d416565b8d6125cd565b9801979590950194506120119050565b600080612006858c6128d5565b980197959095019450505b60008585011561202a576120278a868801612c00565b90505b6120388a8289018b81611c80565b50505050505050505050565b600854604051638b2f0f4f60e01b8152600091630100000090046001600160a01b031690638b2f0f4f9061207c90869060040161365d565b60206040518083038186803b15801561209457600080fd5b505afa1580156120a8573d6000803e3d6000fd5b505050506040513d601f19601f820116820180604052506120cc91908101906131fc565b905060006120eb82610b87670de0b6b3a76400006108516115d7610463565b600f54604051633aecd0e360e01b81529192506000916001600160a01b0390911690633aecd0e39061212190889060040161365d565b60206040518083038186803b15801561213957600080fd5b505afa15801561214d573d6000803e3d6000fd5b505050506040513d601f19601f8201168201806040525061217191908101906131fc565b90506000600860039054906101000a90046001600160a01b03166001600160a01b0316635a72fee86040518163ffffffff1660e01b815260040160206040518083038186803b1580156121c357600080fd5b505afa1580156121d7573d6000803e3d6000fd5b505050506040513d601f19601f820116820180604052506121fb9190810190612efb565b600f54604051633aecd0e360e01b81526001600160a01b039283169263b2809e18928a92911690633aecd0e39061223690849060040161365d565b60206040518083038186803b15801561224e57600080fd5b505afa158015612262573d6000803e3d6000fd5b505050506040513d601f19601f8201168201806040525061228691908101906131fc565b6040518363ffffffff1660e01b81526004016122a392919061366b565b60206040518083038186803b1580156122bb57600080fd5b505afa1580156122cf573d6000803e3d6000fd5b505050506040513d601f19601f820116820180604052506122f391908101906131fc565b9050600061231e87612319670de0b6b3a7640000610b878689038a63ffffffff6119d416565b612c00565b905061232e878483018881611c80565b50505050505050565b600081836123585760405162461bcd60e51b81526004016110e991906136b3565b50600083858161236457fe5b0495945050505050565b612380826001600160a01b0316612d4a565b61239c5760405162461bcd60e51b81526004016110e990613774565b60006060836001600160a01b0316836040516123b89190613651565b6000604051808303816000865af19150503d80600081146123f5576040519150601f19603f3d011682016040523d82523d6000602084013e6123fa565b606091505b50915091508161241c5760405162461bcd60e51b81526004016110e990613704565b805115610f585780806020019051612437919081019061315f565b610f585760405162461bcd60e51b81526004016110e990613764565b60085460405163387971a160e11b81526000918291606091630100000090046001600160a01b0316906370f2e3429061249090309060040161365d565b60006040518083038186803b1580156124a857600080fd5b505afa1580156124bc573d6000803e3d6000fd5b505050506040513d6000823e601f3d908101601f191682016040526124e4919081019061312a565b9050600080805b83518110156125c2576000612595670de0b6b3a7640000610b8787858151811061251157fe5b60200260200101516001600160a01b0316635969326b6040518163ffffffff1660e01b815260040160206040518083038186803b15801561255157600080fd5b505afa158015612565573d6000803e3d6000fd5b505050506040513d601f19601f8201168201806040525061258991908101906131fc565b8886815181106109ce57fe5b9050828111156125b9578482815181106125ab57fe5b602002602001015193508092505b506001016124eb565b509093509150509091565b600080600080866001600160a01b031662f714ce87876040518363ffffffff1660e01b8152600401612600929190613792565b606060405180830381600087803b15801561261a57600080fd5b505af115801561262e573d6000803e3d6000fd5b505050506040513d601f19601f82011682018060405250612652919081019061317d565b600f54604051633aecd0e360e01b81529295509093506001600160a01b03169150634ceb1f139084906126f39085908590633aecd0e39061269790869060040161365d565b60206040518083038186803b1580156126af57600080fd5b505afa1580156126c3573d6000803e3d6000fd5b505050506040513d601f19601f820116820180604052506126e791908101906131fc565b9063ffffffff611bd216565b6040518363ffffffff1660e01b815260040161271092919061366b565b600060405180830381600087803b15801561272a57600080fd5b505af115801561273e573d6000803e3d6000fd5b50505050846001600160a01b0316826001600160a01b03161415612769579250600091506128cd9050565b60006128be670de0b6b3a7640000610b87600860039054906101000a90046001600160a01b03166001600160a01b0316638b2f0f4f876040518263ffffffff1660e01b81526004016127bb919061365d565b60206040518083038186803b1580156127d357600080fd5b505afa1580156127e7573d6000803e3d6000fd5b505050506040513d601f19601f8201168201806040525061280b91908101906131fc565b600860039054906101000a90046001600160a01b03166001600160a01b0316635a72fee86040518163ffffffff1660e01b815260040160206040518083038186803b15801561285957600080fd5b505afa15801561286d573d6000803e3d6000fd5b505050506040513d601f19601f820116820180604052506128919190810190612efb565b6001600160a01b031663b2809e1888886040518363ffffffff1660e01b815260040161080192919061366b565b6000955093506128cd92505050565b935093915050565b60008060008060006060600860039054906101000a90046001600160a01b03166001600160a01b03166370f2e342306040518263ffffffff1660e01b8152600401612920919061365d565b60006040518083038186803b15801561293857600080fd5b505afa15801561294c573d6000803e3d6000fd5b505050506040513d6000823e601f3d908101601f19168201604052612974919081019061312a565b905060005b8151811015612bf05788851015612bd3576000612a2b670de0b6b3a7640000610b878585815181106129a757fe5b60200260200101516001600160a01b0316635969326b6040518163ffffffff1660e01b815260040160206040518083038186803b1580156129e757600080fd5b505afa1580156129fb573d6000803e3d6000fd5b505050506040513d601f19601f82011682018060405250612a1f91908101906131fc565b8686815181106109ce57fe5b9050858a038111612af357600080612adf858581518110612a4857fe5b6020026020010151868681518110612a5c57fe5b60200260200101516001600160a01b03166370a08231306040518263ffffffff1660e01b8152600401612a8f919061365d565b60206040518083038186803b158015612aa757600080fd5b505afa158015612abb573d6000803e3d6000fd5b505050506040513d601f19601f82011682018060405250611fe391908101906131fc565b98840198970196959095019450612bd19050565b6000868b0390506000612b9b858581518110612b0b57fe5b60200260200101516001600160a01b0316635969326b6040518163ffffffff1660e01b815260040160206040518083038186803b158015612b4b57600080fd5b505afa158015612b5f573d6000803e3d6000fd5b505050506040513d601f19601f82011682018060405250612b8391908101906131fc565b610b8784670de0b6b3a764000063ffffffff6119d416565b9050600080612bbe878781518110612baf57fe5b6020026020010151848f6125cd565b9a90940199989093019796909601955050505b505b888510612be857509194509250612bf9915050565b600101612979565b50919450925050505b9250929050565b6000806060600860039054906101000a90046001600160a01b03166001600160a01b031663d9ee71ee6040518163ffffffff1660e01b815260040160206040518083038186803b158015612c5357600080fd5b505afa158015612c67573d6000803e3d6000fd5b505050506040513d601f19601f82011682018060405250612c8b9190810190612efb565b6001600160a01b03168585604051602401612ca792919061366b565b60408051601f198184030181529181526020820180516001600160e01b0316634256fa9f60e01b17905251612cdc9190613651565b600060405180830381855af49150503d8060008114612d17576040519150601f19603f3d011682016040523d82523d6000602084013e612d1c565b606091505b5091509150612d2a82612d86565b600081806020019051612d4091908101906131fc565b9695505050505050565b6000813f7fc5d2460186f7233c927e7db2dcc703c0e500b653ca82273b7bfad8045d85a470818114801590612d7e57508115155b949350505050565b80611c7d576040513d806000833e8082fd5b8035610454816138ac565b8051610454816138ac565b600082601f830112612dbf57600080fd5b8151612dd2612dcd826137fd565b6137d6565b91508181835260208401935060208101905083856020840282011115612df757600080fd5b60005b83811015612e235781612e0d8882612da3565b8452506020928301929190910190600101612dfa565b5050505092915050565b60008083601f840112612e3f57600080fd5b50813567ffffffffffffffff811115612e5757600080fd5b602083019150836020820283011115612bf957600080fd5b8051610454816138c0565b8035610454816138c9565b60008083601f840112612e9757600080fd5b50813567ffffffffffffffff811115612eaf57600080fd5b602083019150836001820283011115612bf957600080fd5b8035610454816138d2565b8051610454816138d2565b600060208284031215612eef57600080fd5b6000612d7e8484612d98565b600060208284031215612f0d57600080fd5b6000612d7e8484612da3565b60008060408385031215612f2c57600080fd5b6000612f388585612d98565b9250506020612f4985828601612d98565b9150509250929050565b60008060008060008060008060a0898b031215612f6f57600080fd5b6000612f7b8b8b612d98565b9850506020612f8c8b828c01612d98565b975050604089013567ffffffffffffffff811115612fa957600080fd5b612fb58b828c01612e2d565b9650965050606089013567ffffffffffffffff811115612fd457600080fd5b612fe08b828c01612e2d565b9450945050608089013567ffffffffffffffff811115612fff57600080fd5b61300b8b828c01612e85565b92509250509295985092959890939650565b60008060006060848603121561303257600080fd5b600061303e8686612d98565b935050602061304f86828701612d98565b925050604061306086828701612ec7565b9150509250925092565b60008060008060008060a0878903121561308357600080fd5b600061308f8989612d98565b96505060206130a089828a01612d98565b95505060406130b189828a01612ec7565b94505060606130c289828a01612ec7565b935050608087013567ffffffffffffffff8111156130df57600080fd5b6130eb89828a01612e85565b92509250509295509295509295565b6000806040838503121561310d57600080fd5b60006131198585612d98565b9250506020612f4985828601612ec7565b60006020828403121561313c57600080fd5b815167ffffffffffffffff81111561315357600080fd5b612d7e84828501612dae565b60006020828403121561317157600080fd5b6000612d7e8484612e6f565b60008060006060848603121561319257600080fd5b600061319e8686612e6f565b93505060206131af86828701612da3565b925050604061306086828701612ed2565b6000602082840312156131d257600080fd5b6000612d7e8484612e7a565b6000602082840312156131f057600080fd5b6000612d7e8484612ec7565b60006020828403121561320e57600080fd5b6000612d7e8484612ed2565b6000613226838361323d565b505060200190565b61323781613865565b82525050565b61323781613836565b600061325182613824565b61325b8185613828565b93506132668361381e565b8060005b8381101561329457815161327e888261321a565b97506132898361381e565b92505060010161326a565b509495945050505050565b61323781613841565b61323781613846565b60006132bc82613824565b6132c68185613831565b93506132d6818560208601613876565b9290920192915050565b60006132eb82613824565b6132f58185613828565b9350613305818560208601613876565b61330e816138a2565b9093019392505050565b6000613325602383613828565b7f45524332303a207472616e7366657220746f20746865207a65726f206164647281526265737360e81b602082015260400192915050565b600061336a602483613828565b7f496e76616c6964206d617374657220636f707920616464726573732070726f768152631a59195960e21b602082015260400192915050565b60006133b0602283613828565b7f45524332303a20617070726f766520746f20746865207a65726f206164647265815261737360f01b602082015260400192915050565b60006133f4601b83613828565b7f536166654d6174683a206164646974696f6e206f766572666c6f770000000000815260200192915050565b600061342d602083613828565b7f5361666545524332303a206c6f772d6c6576656c2063616c6c206661696c6564815260200192915050565b6000613466602183613828565b7f536166654d6174683a206d756c7469706c69636174696f6e206f766572666c6f8152607760f81b602082015260400192915050565b60006134a9602183613828565b7f45524332303a206275726e2066726f6d20746865207a65726f206164647265738152607360f81b602082015260400192915050565b60006134ec602583613828565b7f45524332303a207472616e736665722066726f6d20746865207a65726f206164815264647265737360d81b602082015260400192915050565b6000613533602c83613828565b7f4d6574686f642063616e206f6e6c792062652063616c6c65642066726f6d207481526b1a1a5cc818dbdb9d1c9858dd60a21b602082015260400192915050565b6000613581602483613828565b7f45524332303a20617070726f76652066726f6d20746865207a65726f206164648152637265737360e01b602082015260400192915050565b60006135c7602a83613828565b7f5361666545524332303a204552433230206f7065726174696f6e20646964206e8152691bdd081cdd58d8d9595960b21b602082015260400192915050565b6000613613601f83613828565b7f5361666545524332303a2063616c6c20746f206e6f6e2d636f6e747261637400815260200192915050565b61323781610439565b6132378161385f565b60006104f082846132b1565b60208101610454828461323d565b60408101613679828561323d565b6104f0602083018461363f565b602080825281016104f08184613246565b60208101610454828461329f565b6020810161045482846132a8565b602080825281016104f081846132e0565b6020808252810161045481613318565b602080825281016104548161335d565b60208082528101610454816133a3565b60208082528101610454816133e7565b6020808252810161045481613420565b6020808252810161045481613459565b602080825281016104548161349c565b60208082528101610454816134df565b6020808252810161045481613526565b6020808252810161045481613574565b60208082528101610454816135ba565b6020808252810161045481613606565b60208101610454828461363f565b604081016137a0828561363f565b6104f0602083018461323d565b604081016137bb828561363f565b6104f0602083018461322e565b602081016104548284613648565b60405181810167ffffffffffffffff811182821017156137f557600080fd5b604052919050565b600067ffffffffffffffff82111561381457600080fd5b5060209081020190565b60200190565b5190565b90815260200190565b919050565b600061045482613853565b151590565b6001600160e01b03191690565b6001600160a01b031690565b60ff1690565b600061045482600061045482613836565b60005b83811015613891578181015183820152602001613879565b83811115610f585750506000910152565b601f01601f191690565b6138b581613836565b8114611c7d57600080fd5b6138b581613841565b6138b581613846565b6138b58161043956fe45524332303a206275726e20616d6f756e7420657863656564732062616c616e636545524332303a207472616e7366657220616d6f756e7420657863656564732062616c616e636545524332303a207472616e7366657220616d6f756e74206578636565647320616c6c6f77616e636545524332303a2064656372656173656420616c6c6f77616e63652062656c6f77207a65726fa365627a7a72315820c61006ec39311f886e1b26f8149ac83f6ae6ed91032d18efae9c9ffb4c39f3126c6578706572696d656e74616cf564736f6c63430005110040",
  "source": "// SPDX-License-Identifier: MIT\npragma solidity >=0.5.0 <0.7.0;\npragma experimental ABIEncoderV2;\nimport \"../../storage/VaultStorage.sol\";\n\ncontract StockWithdraw is VaultStorage {\n    function getStrategyWithHighestNav()\n        internal\n        view\n        returns (address, uint256)\n    {\n        address[] memory strategies = IAPContract(APContract)\n            .getVaultActiveStrategy(address(this));\n        address strategyWithHighestNav;\n        uint256 highestNav;\n        for (uint256 i = 0; i < strategies.length; i++) {\n            uint256 strategyNav = (\n                IStrategy(strategies[i]).balanceOf(address(this)).mul(\n                    IStrategy(strategies[i]).tokenValueInUSD()\n                )\n            ).div(1e18);\n            if (strategyNav > highestNav) {\n                strategyWithHighestNav = strategies[i];\n                highestNav = strategyNav;\n            }\n        }\n        return (strategyWithHighestNav, highestNav);\n    }\n\n    function exchange(address toToken, uint256 nav) internal returns (uint256) {\n        (bool result, bytes memory data) = IAPContract(APContract)\n            .yieldsterExchange()\n            .delegatecall(\n                abi.encodeWithSignature(\n                    \"exchangeTokens(address,uint256)\",\n                    toToken,\n                    nav\n                )\n            );\n        revertDelegate(result);\n        uint256 exchangeReturn = abi.decode(data, (uint256));\n        return exchangeReturn;\n    }\n\n    function withdrawFromStrategy(\n        address strategy,\n        uint256 shares,\n        address tokenPrefered\n    ) internal returns (uint256, uint256) {\n        (, address returnToken, uint256 returnAmount) = IStrategy(strategy)\n            .withdraw(shares, tokenPrefered);\n\n        tokenBalances.setTokenBalance(\n            returnToken,\n            tokenBalances.getTokenBalance(returnToken).add(returnAmount)\n        );\n        if (returnToken == tokenPrefered) {\n            return (returnAmount, 0);\n        } else {\n            uint256 returnNav = (\n                IHexUtils(IAPContract(APContract).stringUtils())\n                    .toDecimals(returnToken, returnAmount)\n                    .mul(IAPContract(APContract).getUSDPrice(returnToken))\n            ).div(1e18);\n            return (0, returnNav);\n        }\n    }\n\n    function withdrawFromMultipleStrategy(\n        uint256 navToWithdraw,\n        address _tokenAddress\n    ) internal returns (uint256, uint256) {\n        uint256 currentNav;\n        uint256 towardsNeedWithSlippage;\n        uint256 navFromStrategyWithdraw;\n        address[] memory strategies = IAPContract(APContract)\n            .getVaultActiveStrategy(address(this));\n        for (uint256 i = 0; i < strategies.length; i++) {\n            if (currentNav < navToWithdraw) {\n                uint256 strategyNav = (\n                    IStrategy(strategies[i]).balanceOf(address(this)).mul(\n                        IStrategy(strategies[i]).tokenValueInUSD()\n                    )\n                ).div(1e18);\n                if (strategyNav <= (navToWithdraw - currentNav)) {\n                    (uint256 amount, uint256 returnNav) = withdrawFromStrategy(\n                        strategies[i],\n                        IStrategy(strategies[i]).balanceOf(address(this)),\n                        _tokenAddress\n                    );\n                    towardsNeedWithSlippage += amount;\n                    navFromStrategyWithdraw += returnNav;\n                    currentNav += strategyNav;\n                } else {\n                    uint256 toWithdrawNav = navToWithdraw - currentNav;\n                    uint256 toWithdrawShares = (toWithdrawNav.mul(1e18)).div(\n                        IStrategy(strategies[i]).tokenValueInUSD()\n                    );\n                    (uint256 amount, uint256 returnNav) = withdrawFromStrategy(\n                        strategies[i],\n                        toWithdrawShares,\n                        _tokenAddress\n                    );\n                    towardsNeedWithSlippage += amount;\n                    navFromStrategyWithdraw += returnNav;\n                    currentNav += toWithdrawNav;\n                }\n            }\n            if (currentNav >= navToWithdraw) {\n                return (towardsNeedWithSlippage, navFromStrategyWithdraw);\n            }\n        }\n        return (towardsNeedWithSlippage, navFromStrategyWithdraw);\n    }\n\n    function updateAndTransferTokens(\n        address tokenAddress,\n        uint256 updatedBalance,\n        uint256 shares,\n        uint256 transferAmount\n    ) internal {\n        tokenBalances.setTokenBalance(\n            tokenAddress,\n            tokenBalances.getTokenBalance(tokenAddress).sub(updatedBalance)\n        );\n        _burn(msg.sender, shares);\n        IERC20(tokenAddress).safeTransfer(msg.sender, transferAmount);\n    }\n\n    function strategyWithdraw(address _tokenAddress, uint256 _shares) internal {\n        uint256 tokenUSD = IAPContract(APContract).getUSDPrice(_tokenAddress);\n        uint256 towardsNeedWithSlippage = (\n            tokenBalances.getTokenBalance(_tokenAddress)\n        );\n        uint256 haveNavInOtherTokens = getVaultNAVWithoutStrategyToken() -  //~10k\n            (\n                IHexUtils(IAPContract(APContract).stringUtils())\n                    .toDecimals(\n                        _tokenAddress,\n                        tokenBalances.getTokenBalance(_tokenAddress)\n                    )\n                    .mul(tokenUSD)\n            ).div(1e18);\n        uint256 navFromStrategyWithdraw;\n        uint256 strategyWithdrawNav = (_shares.mul(getVaultNAV())).div(\n            totalSupply()\n        ) - getVaultNAVWithoutStrategyToken();\n        (\n            address strategyWithHighestNav,\n            uint256 highestNav\n        ) = getStrategyWithHighestNav();\n\n        if (highestNav >= strategyWithdrawNav) {\n            (uint256 amount, uint256 returnNav) = withdrawFromStrategy(\n                strategyWithHighestNav,\n                (strategyWithdrawNav.mul(1e18)).div(\n                    IStrategy(strategyWithHighestNav).tokenValueInUSD()\n                ),\n                _tokenAddress\n            );\n            towardsNeedWithSlippage += amount;\n            navFromStrategyWithdraw += returnNav;\n        } else {\n            (\n                uint256 returnTowardsNeedWithSlippage,\n                uint256 returnNavFromStrategyWithdraw\n            ) = withdrawFromMultipleStrategy(\n                    strategyWithdrawNav,\n                    _tokenAddress\n                );\n            towardsNeedWithSlippage += returnTowardsNeedWithSlippage;\n            navFromStrategyWithdraw += returnNavFromStrategyWithdraw;\n        }\n\n        uint256 exchangeReturn;\n        if (haveNavInOtherTokens + navFromStrategyWithdraw > 0) {\n            exchangeReturn = exchange(\n                _tokenAddress,\n                haveNavInOtherTokens + navFromStrategyWithdraw\n            );\n        }\n        updateAndTransferTokens(\n            _tokenAddress,\n            exchangeReturn + towardsNeedWithSlippage,\n            _shares,\n            exchangeReturn + towardsNeedWithSlippage\n        );\n    }\n\n    function exchangeWithdraw(address _tokenAddress, uint256 _shares) internal {\n        uint256 tokenUSD = IAPContract(APContract).getUSDPrice(_tokenAddress);\n        uint256 tokenCount = (\n            (_shares.mul(getVaultNAV())).div(totalSupply()).mul(1e18)\n        ).div(tokenUSD);\n        uint256 towardsNeedWithSlippage = (\n            tokenBalances.getTokenBalance(_tokenAddress)\n        );\n        uint256 haveTokenCount = IHexUtils(\n            IAPContract(APContract).stringUtils()\n        ).toDecimals(\n                _tokenAddress,\n                tokenBalances.getTokenBalance(_tokenAddress)\n            );\n        uint256 exchangeReturn = exchange(\n            _tokenAddress,\n            ((tokenCount - haveTokenCount).mul(tokenUSD)).div(1e18)\n        );\n        updateAndTransferTokens(\n            _tokenAddress,\n            exchangeReturn + towardsNeedWithSlippage,\n            _shares,\n            exchangeReturn + towardsNeedWithSlippage\n        );\n    }\n\n    /// @dev Function to Withdraw assets from the Vault.\n    /// @param _tokenAddress Address of the withdraw token.\n    /// @param _shares Amount of Vault token shares.\n    function withdraw(address _tokenAddress, uint256 _shares) public {\n       // revert(\"hey\");\n        addToAssetList(_tokenAddress);\n        uint256 tokenUSD = IAPContract(APContract).getUSDPrice(_tokenAddress);\n        uint256 tokenCount = (\n            (_shares.mul(getVaultNAV())).div(totalSupply()).mul(1e18)\n        ).div(tokenUSD);\n        uint256 tokenCountDecimals = IHexUtils(\n            IAPContract(APContract).stringUtils()\n        ).fromDecimals(_tokenAddress, tokenCount);\n\n        if (tokenCountDecimals <= tokenBalances.getTokenBalance(_tokenAddress))\n            updateAndTransferTokens(\n                _tokenAddress,\n                tokenCountDecimals,\n                _shares,\n                tokenCountDecimals\n            );\n        else {\n            if (\n                (_shares.mul(getVaultNAV())).div(totalSupply()) >\n                getVaultNAVWithoutStrategyToken()\n            ) strategyWithdraw(_tokenAddress, _shares);\n            else exchangeWithdraw(_tokenAddress, _shares);\n        }\n    }\n\n    /// @dev Function to Withdraw shares from the Vault.\n    /// @param _shares Amount of Vault token shares.\n    function withdraw(uint256 _shares) public {\n        uint256 safeTotalSupply = totalSupply();\n        _burn(msg.sender, _shares);\n        // address[] memory strategies;\n        address[] memory strategies = IAPContract(APContract)\n            .getVaultActiveStrategy(address(this));\n\n        for (uint256 i = 0; i < strategies.length; i++) {\n            uint256 safeStrategyBalance = IStrategy(strategies[i]).balanceOf(\n                address(this)\n            );\n            if (safeStrategyBalance > 0) {\n                uint256 strategyShares = (_shares.mul(safeStrategyBalance)).div(\n                    safeTotalSupply\n                );\n                (, address returnToken, uint256 returnAmount) = IStrategy(\n                    strategies[i]\n                ).withdraw(strategyShares, address(0));\n                IERC20(returnToken).safeTransfer(msg.sender, returnAmount);\n            }\n        }\n\n        for (uint256 i = 0; i < assetList.length; i++) {\n            IERC20 token = IERC20(assetList[i]);\n            if (tokenBalances.getTokenBalance(assetList[i]) > 0) {\n                uint256 tokensToGive = (\n                    _shares.mul(tokenBalances.getTokenBalance(assetList[i]))\n                ).div(safeTotalSupply);\n                tokenBalances.setTokenBalance(\n                    assetList[i],\n                    tokenBalances.getTokenBalance(assetList[i]).sub(\n                        tokensToGive\n                    )\n                );\n                token.safeTransfer(msg.sender, tokensToGive);\n            }\n        }\n    }\n}\n",
  "sourcePath": "/home/dxuser/Documents/scode/yieldster-vault/contracts/smartStrategies/withdraw/StockWithdraw.sol",
  "compiler": {
    "name": "solc",
    "version": "0.5.17+commit.d19bba13.Emscripten.clang"
  },
  "schemaVersion": "3.4.4",
  "updatedAt": "2022-02-04T04:48:38.826Z",
  "networkType": "ethereum",
  "devdoc": {
    "methods": {
      "allowance(address,address)": {
        "details": "See {IERC20-allowance}."
      },
      "approve(address,uint256)": {
        "details": "See {IERC20-approve}.     * Requirements:     * - `spender` cannot be the zero address."
      },
      "balanceOf(address)": {
        "details": "See {IERC20-balanceOf}."
      },
      "changeMasterCopy(address)": {
        "details": "Allows to upgrade the contract. This can only be done via a Safe transaction.",
        "params": {
          "_masterCopy": "New contract address."
        }
      },
      "decimals()": {
        "details": "Returns the number of decimals used to get its user representation. For example, if `decimals` equals `2`, a balance of `505` tokens should be displayed to a user as `5,05` (`505 / 10 ** 2`).     * Tokens usually opt for a value of 18, imitating the relationship between Ether and Wei.     * NOTE: This information is only used for _display_ purposes: it in no way affects any of the arithmetic of the contract, including {IERC20-balanceOf} and {IERC20-transfer}."
      },
      "decreaseAllowance(address,uint256)": {
        "details": "Atomically decreases the allowance granted to `spender` by the caller.     * This is an alternative to {approve} that can be used as a mitigation for problems described in {IERC20-approve}.     * Emits an {Approval} event indicating the updated allowance.     * Requirements:     * - `spender` cannot be the zero address. - `spender` must have allowance for the caller of at least `subtractedValue`."
      },
      "getVaultActiveStrategy()": {
        "details": "Function to get the address of active strategy in the vault."
      },
      "getVaultNAV()": {
        "details": "Function to return the NAV of the Vault."
      },
      "getVaultNAVWithoutStrategyToken()": {
        "details": "Function to return the NAV of the Vault excluding Strategy Tokens."
      },
      "increaseAllowance(address,uint256)": {
        "details": "Atomically increases the allowance granted to `spender` by the caller.     * This is an alternative to {approve} that can be used as a mitigation for problems described in {IERC20-approve}.     * Emits an {Approval} event indicating the updated allowance.     * Requirements:     * - `spender` cannot be the zero address."
      },
      "name()": {
        "details": "Returns the name of the token."
      },
      "supportsInterface(bytes4)": {
        "details": "See {IERC165-supportsInterface}.     * Time complexity O(1), guaranteed to always use less than 30 000 gas."
      },
      "symbol()": {
        "details": "Returns the symbol of the token, usually a shorter version of the name."
      },
      "tokenValueInUSD()": {
        "details": "Function to return Value of the Vault Token."
      },
      "totalSupply()": {
        "details": "See {IERC20-totalSupply}."
      },
      "transfer(address,uint256)": {
        "details": "See {IERC20-transfer}.     * Requirements:     * - `recipient` cannot be the zero address. - the caller must have a balance of at least `amount`."
      },
      "transferFrom(address,address,uint256)": {
        "details": "See {IERC20-transferFrom}.     * Emits an {Approval} event indicating the updated allowance. This is not required by the EIP. See the note at the beginning of {ERC20};     * Requirements: - `sender` and `recipient` cannot be the zero address. - `sender` must have a balance of at least `amount`. - the caller must have allowance for `sender`'s tokens of at least `amount`."
      },
      "withdraw(address,uint256)": {
        "details": "Function to Withdraw assets from the Vault.",
        "params": {
          "_shares": "Amount of Vault token shares.",
          "_tokenAddress": "Address of the withdraw token."
        }
      },
      "withdraw(uint256)": {
        "details": "Function to Withdraw shares from the Vault.",
        "params": {
          "_shares": "Amount of Vault token shares."
        }
      }
    }
  },
  "userdoc": {
    "methods": {}
  }
}