{
  "contractName": "StockDeposit",
  "abi": [
    {
      "anonymous": false,
      "inputs": [
        {
          "indexed": true,
          "internalType": "address",
          "name": "owner",
          "type": "address"
        },
        {
          "indexed": true,
          "internalType": "address",
          "name": "spender",
          "type": "address"
        },
        {
          "indexed": false,
          "internalType": "uint256",
          "name": "value",
          "type": "uint256"
        }
      ],
      "name": "Approval",
      "type": "event"
    },
    {
      "anonymous": false,
      "inputs": [
        {
          "indexed": false,
          "internalType": "address",
          "name": "masterCopy",
          "type": "address"
        }
      ],
      "name": "ChangedMasterCopy",
      "type": "event"
    },
    {
      "anonymous": false,
      "inputs": [
        {
          "indexed": true,
          "internalType": "address",
          "name": "from",
          "type": "address"
        },
        {
          "indexed": true,
          "internalType": "address",
          "name": "to",
          "type": "address"
        },
        {
          "indexed": false,
          "internalType": "uint256",
          "name": "value",
          "type": "uint256"
        }
      ],
      "name": "Transfer",
      "type": "event"
    },
    {
      "constant": true,
      "inputs": [],
      "name": "APContract",
      "outputs": [
        {
          "internalType": "address",
          "name": "",
          "type": "address"
        }
      ],
      "payable": false,
      "stateMutability": "view",
      "type": "function"
    },
    {
      "constant": true,
      "inputs": [
        {
          "internalType": "address",
          "name": "owner",
          "type": "address"
        },
        {
          "internalType": "address",
          "name": "spender",
          "type": "address"
        }
      ],
      "name": "allowance",
      "outputs": [
        {
          "internalType": "uint256",
          "name": "",
          "type": "uint256"
        }
      ],
      "payable": false,
      "stateMutability": "view",
      "type": "function"
    },
    {
      "constant": false,
      "inputs": [
        {
          "internalType": "address",
          "name": "spender",
          "type": "address"
        },
        {
          "internalType": "uint256",
          "name": "amount",
          "type": "uint256"
        }
      ],
      "name": "approve",
      "outputs": [
        {
          "internalType": "bool",
          "name": "",
          "type": "bool"
        }
      ],
      "payable": false,
      "stateMutability": "nonpayable",
      "type": "function"
    },
    {
      "constant": true,
      "inputs": [
        {
          "internalType": "address",
          "name": "account",
          "type": "address"
        }
      ],
      "name": "balanceOf",
      "outputs": [
        {
          "internalType": "uint256",
          "name": "",
          "type": "uint256"
        }
      ],
      "payable": false,
      "stateMutability": "view",
      "type": "function"
    },
    {
      "constant": false,
      "inputs": [
        {
          "internalType": "address",
          "name": "_masterCopy",
          "type": "address"
        }
      ],
      "name": "changeMasterCopy",
      "outputs": [],
      "payable": false,
      "stateMutability": "nonpayable",
      "type": "function"
    },
    {
      "constant": true,
      "inputs": [],
      "name": "decimals",
      "outputs": [
        {
          "internalType": "uint8",
          "name": "",
          "type": "uint8"
        }
      ],
      "payable": false,
      "stateMutability": "view",
      "type": "function"
    },
    {
      "constant": false,
      "inputs": [
        {
          "internalType": "address",
          "name": "spender",
          "type": "address"
        },
        {
          "internalType": "uint256",
          "name": "subtractedValue",
          "type": "uint256"
        }
      ],
      "name": "decreaseAllowance",
      "outputs": [
        {
          "internalType": "bool",
          "name": "",
          "type": "bool"
        }
      ],
      "payable": false,
      "stateMutability": "nonpayable",
      "type": "function"
    },
    {
      "constant": true,
      "inputs": [],
      "name": "emergencyConditions",
      "outputs": [
        {
          "internalType": "uint8",
          "name": "",
          "type": "uint8"
        }
      ],
      "payable": false,
      "stateMutability": "view",
      "type": "function"
    },
    {
      "constant": true,
      "inputs": [
        {
          "internalType": "address",
          "name": "_tokenAddress",
          "type": "address"
        }
      ],
      "name": "getTokenBalance",
      "outputs": [
        {
          "internalType": "uint256",
          "name": "",
          "type": "uint256"
        }
      ],
      "payable": false,
      "stateMutability": "view",
      "type": "function"
    },
    {
      "constant": true,
      "inputs": [],
      "name": "getVaultActiveStrategy",
      "outputs": [
        {
          "internalType": "address[]",
          "name": "",
          "type": "address[]"
        }
      ],
      "payable": false,
      "stateMutability": "view",
      "type": "function"
    },
    {
      "constant": true,
      "inputs": [],
      "name": "getVaultNAV",
      "outputs": [
        {
          "internalType": "uint256",
          "name": "",
          "type": "uint256"
        }
      ],
      "payable": false,
      "stateMutability": "view",
      "type": "function"
    },
    {
      "constant": true,
      "inputs": [],
      "name": "getVaultNAVWithoutStrategyToken",
      "outputs": [
        {
          "internalType": "uint256",
          "name": "",
          "type": "uint256"
        }
      ],
      "payable": false,
      "stateMutability": "view",
      "type": "function"
    },
    {
      "constant": false,
      "inputs": [
        {
          "internalType": "address",
          "name": "spender",
          "type": "address"
        },
        {
          "internalType": "uint256",
          "name": "addedValue",
          "type": "uint256"
        }
      ],
      "name": "increaseAllowance",
      "outputs": [
        {
          "internalType": "bool",
          "name": "",
          "type": "bool"
        }
      ],
      "payable": false,
      "stateMutability": "nonpayable",
      "type": "function"
    },
    {
      "constant": true,
      "inputs": [],
      "name": "name",
      "outputs": [
        {
          "internalType": "string",
          "name": "",
          "type": "string"
        }
      ],
      "payable": false,
      "stateMutability": "view",
      "type": "function"
    },
    {
      "constant": false,
      "inputs": [
        {
          "internalType": "address",
          "name": "operator",
          "type": "address"
        },
        {
          "internalType": "address",
          "name": "from",
          "type": "address"
        },
        {
          "internalType": "uint256[]",
          "name": "ids",
          "type": "uint256[]"
        },
        {
          "internalType": "uint256[]",
          "name": "values",
          "type": "uint256[]"
        },
        {
          "internalType": "bytes",
          "name": "data",
          "type": "bytes"
        }
      ],
      "name": "onERC1155BatchReceived",
      "outputs": [
        {
          "internalType": "bytes4",
          "name": "",
          "type": "bytes4"
        }
      ],
      "payable": false,
      "stateMutability": "nonpayable",
      "type": "function"
    },
    {
      "constant": false,
      "inputs": [
        {
          "internalType": "address",
          "name": "operator",
          "type": "address"
        },
        {
          "internalType": "address",
          "name": "from",
          "type": "address"
        },
        {
          "internalType": "uint256",
          "name": "id",
          "type": "uint256"
        },
        {
          "internalType": "uint256",
          "name": "value",
          "type": "uint256"
        },
        {
          "internalType": "bytes",
          "name": "data",
          "type": "bytes"
        }
      ],
      "name": "onERC1155Received",
      "outputs": [
        {
          "internalType": "bytes4",
          "name": "",
          "type": "bytes4"
        }
      ],
      "payable": false,
      "stateMutability": "nonpayable",
      "type": "function"
    },
    {
      "constant": true,
      "inputs": [],
      "name": "owner",
      "outputs": [
        {
          "internalType": "address",
          "name": "",
          "type": "address"
        }
      ],
      "payable": false,
      "stateMutability": "view",
      "type": "function"
    },
    {
      "constant": true,
      "inputs": [
        {
          "internalType": "bytes4",
          "name": "interfaceId",
          "type": "bytes4"
        }
      ],
      "name": "supportsInterface",
      "outputs": [
        {
          "internalType": "bool",
          "name": "",
          "type": "bool"
        }
      ],
      "payable": false,
      "stateMutability": "view",
      "type": "function"
    },
    {
      "constant": true,
      "inputs": [],
      "name": "symbol",
      "outputs": [
        {
          "internalType": "string",
          "name": "",
          "type": "string"
        }
      ],
      "payable": false,
      "stateMutability": "view",
      "type": "function"
    },
    {
      "constant": true,
      "inputs": [],
      "name": "tokenValueInUSD",
      "outputs": [
        {
          "internalType": "uint256",
          "name": "",
          "type": "uint256"
        }
      ],
      "payable": false,
      "stateMutability": "view",
      "type": "function"
    },
    {
      "constant": true,
      "inputs": [],
      "name": "totalSupply",
      "outputs": [
        {
          "internalType": "uint256",
          "name": "",
          "type": "uint256"
        }
      ],
      "payable": false,
      "stateMutability": "view",
      "type": "function"
    },
    {
      "constant": false,
      "inputs": [
        {
          "internalType": "address",
          "name": "recipient",
          "type": "address"
        },
        {
          "internalType": "uint256",
          "name": "amount",
          "type": "uint256"
        }
      ],
      "name": "transfer",
      "outputs": [
        {
          "internalType": "bool",
          "name": "",
          "type": "bool"
        }
      ],
      "payable": false,
      "stateMutability": "nonpayable",
      "type": "function"
    },
    {
      "constant": false,
      "inputs": [
        {
          "internalType": "address",
          "name": "sender",
          "type": "address"
        },
        {
          "internalType": "address",
          "name": "recipient",
          "type": "address"
        },
        {
          "internalType": "uint256",
          "name": "amount",
          "type": "uint256"
        }
      ],
      "name": "transferFrom",
      "outputs": [
        {
          "internalType": "bool",
          "name": "",
          "type": "bool"
        }
      ],
      "payable": false,
      "stateMutability": "nonpayable",
      "type": "function"
    },
    {
      "constant": true,
      "inputs": [],
      "name": "vaultAPSManager",
      "outputs": [
        {
          "internalType": "address",
          "name": "",
          "type": "address"
        }
      ],
      "payable": false,
      "stateMutability": "view",
      "type": "function"
    },
    {
      "constant": true,
      "inputs": [],
      "name": "vaultStrategyManager",
      "outputs": [
        {
          "internalType": "address",
          "name": "",
          "type": "address"
        }
      ],
      "payable": false,
      "stateMutability": "view",
      "type": "function"
    },
    {
      "constant": false,
      "inputs": [
        {
          "internalType": "address",
          "name": "_tokenAddress",
          "type": "address"
        },
        {
          "internalType": "uint256",
          "name": "_amount",
          "type": "uint256"
        }
      ],
      "name": "deposit",
      "outputs": [],
      "payable": false,
      "stateMutability": "nonpayable",
      "type": "function"
    }
  ],
  "bytecode": "0x60806040526100367f01ffc9a7000000000000000000000000000000000000000000000000000000006001600160e01b0361006d16565b6100687f4e2312e0000000000000000000000000000000000000000000000000000000006001600160e01b0361006d16565b61013b565b7fffffffff0000000000000000000000000000000000000000000000000000000080821614156100fe57604080517f08c379a000000000000000000000000000000000000000000000000000000000815260206004820152601c60248201527f4552433136353a20696e76616c696420696e7465726661636520696400000000604482015290519081900360640190fd5b7fffffffff00000000000000000000000000000000000000000000000000000000166000908152600760205260409020805460ff19166001179055565b6121bc806200014b6000396000f3fe608060405234801561001057600080fd5b506004361061018e5760003560e01c806347e7ef24116100de578063a457c2d711610097578063b28aaf7d11610071578063b28aaf7d146104bd578063bc197c81146104c5578063dd62ed3e14610609578063f23a6e61146106375761018e565b8063a457c2d71461040d578063a9059cbb14610439578063ac221b5c146104655761018e565b806347e7ef241461037b5780635969326b146103a957806370a08231146103b15780637de7edef146103d75780638da5cb5b146103fd57806395d89b41146104055761018e565b80632b27ef661161014b5780633384602711610125578063338460271461031957806339509351146103215780633aecd0e31461034d5780633f514315146103735761018e565b80632b27ef66146102e55780632c9a410514610309578063313ce567146103115761018e565b806301ffc9a71461019357806306fdde03146101ce578063095ea7b31461024b5780630c6a957f1461027757806318160ddd1461029557806323b872dd146102af575b600080fd5b6101ba600480360360208110156101a957600080fd5b50356001600160e01b0319166106ca565b604080519115158252519081900360200190f35b6101d66106e9565b6040805160208082528351818301528351919283929083019185019080838360005b838110156102105781810151838201526020016101f8565b50505050905090810190601f16801561023d5780820380516001836020036101000a031916815260200191505b509250505060405180910390f35b6101ba6004803603604081101561026157600080fd5b506001600160a01b038135169060200135610780565b61027f61079e565b6040805160ff9092168252519081900360200190f35b61029d6107a7565b60408051918252519081900360200190f35b6101ba600480360360608110156102c557600080fd5b506001600160a01b038135811691602081013590911690604001356107ad565b6102ed61083a565b604080516001600160a01b039092168252519081900360200190f35b61029d610849565b61027f610d74565b6102ed610d7d565b6101ba6004803603604081101561033757600080fd5b506001600160a01b038135169060200135610d93565b61029d6004803603602081101561036357600080fd5b50356001600160a01b0316610de7565b6102ed610e6a565b6103a76004803603604081101561039157600080fd5b506001600160a01b038135169060200135610e79565b005b61029d6110cc565b61029d600480360360208110156103c757600080fd5b50356001600160a01b0316611132565b6103a7600480360360208110156103ed57600080fd5b50356001600160a01b031661114d565b6102ed611224565b6101d6611233565b6101ba6004803603604081101561042357600080fd5b506001600160a01b038135169060200135611294565b6101ba6004803603604081101561044f57600080fd5b506001600160a01b038135169060200135611302565b61046d611316565b60408051602080825283518183015283519192839290830191858101910280838360005b838110156104a9578181015183820152602001610491565b505050509050019250505060405180910390f35b61029d611434565b6105ec600480360360a08110156104db57600080fd5b6001600160a01b038235811692602081013590911691810190606081016040820135600160201b81111561050e57600080fd5b82018360208201111561052057600080fd5b803590602001918460208302840111600160201b8311171561054157600080fd5b919390929091602081019035600160201b81111561055e57600080fd5b82018360208201111561057057600080fd5b803590602001918460208302840111600160201b8311171561059157600080fd5b919390929091602081019035600160201b8111156105ae57600080fd5b8201836020820111156105c057600080fd5b803590602001918460018302840111600160201b831117156105e157600080fd5b50909250905061160b565b604080516001600160e01b03199092168252519081900360200190f35b61029d6004803603604081101561061f57600080fd5b506001600160a01b0381358116916020013516611619565b6105ec600480360360a081101561064d57600080fd5b6001600160a01b03823581169260208101359091169160408201359160608101359181019060a081016080820135600160201b81111561068c57600080fd5b82018360208201111561069e57600080fd5b803590602001918460018302840111600160201b831117156106bf57600080fd5b509092509050611644565b6001600160e01b03191660009081526007602052604090205460ff1690565b60048054604080516020601f60026000196101006001881615020190951694909404938401819004810282018101909252828152606093909290918301828280156107755780601f1061074a57610100808354040283529160200191610775565b820191906000526020600020905b81548152906001019060200180831161075857829003601f168201915b505050505090505b90565b600061079461078d611650565b8484611654565b5060015b92915050565b60085460ff1681565b60035490565b60006107ba848484611740565b610830846107c6611650565b61082b8560405180606001604052806028815260200161209c602891396001600160a01b038a16600090815260026020526040812090610804611650565b6001600160a01b03168152602081019190915260400160002054919063ffffffff61189e16565b611654565b5060019392505050565b600b546001600160a01b031681565b60006060610855611316565b90506000805b600d54811015610b8e57600f54600d80546000926001600160a01b031691633aecd0e3918590811061088957fe5b60009182526020918290200154604080516001600160e01b031960e086901b1681526001600160a01b0390921660048301525160248083019392829003018186803b1580156108d757600080fd5b505afa1580156108eb573d6000803e3d6000fd5b505050506040513d602081101561090157600080fd5b50511115610b8657600854600d8054600092630100000090046001600160a01b031691638b2f0f4f918590811061093457fe5b60009182526020918290200154604080516001600160e01b031960e086901b1681526001600160a01b0390921660048301525160248083019392829003018186803b15801561098257600080fd5b505afa158015610996573d6000803e3d6000fd5b505050506040513d60208110156109ac57600080fd5b505160085460408051630b4e5fdd60e31b81529051929350610b80928492630100000090046001600160a01b031691635a72fee8916004808301926020929190829003018186803b158015610a0057600080fd5b505afa158015610a14573d6000803e3d6000fd5b505050506040513d6020811015610a2a57600080fd5b5051600d80546001600160a01b039092169163b2809e18919087908110610a4d57fe5b600091825260209091200154600f54600d80546001600160a01b039384169390921691633aecd0e391908a908110610a8157fe5b60009182526020918290200154604080516001600160e01b031960e086901b1681526001600160a01b0390921660048301525160248083019392829003018186803b158015610acf57600080fd5b505afa158015610ae3573d6000803e3d6000fd5b505050506040513d6020811015610af957600080fd5b5051604080516001600160e01b031960e086901b1681526001600160a01b0390931660048401526024830191909152516044808301926020929190829003018186803b158015610b4857600080fd5b505afa158015610b5c573d6000803e3d6000fd5b505050506040513d6020811015610b7257600080fd5b50519063ffffffff61193516565b83019250505b60010161085b565b508151610bb657610bad81670de0b6b3a764000063ffffffff61199516565b9250505061077d565b60005b8251811015610d5b576000838281518110610bd057fe5b60200260200101516001600160a01b03166370a08231306040518263ffffffff1660e01b815260040180826001600160a01b03166001600160a01b0316815260200191505060206040518083038186803b158015610c2d57600080fd5b505afa158015610c41573d6000803e3d6000fd5b505050506040513d6020811015610c5757600080fd5b50511115610d53576000838281518110610c6d57fe5b60200260200101516001600160a01b0316635969326b6040518163ffffffff1660e01b815260040160206040518083038186803b158015610cad57600080fd5b505afa158015610cc1573d6000803e3d6000fd5b505050506040513d6020811015610cd757600080fd5b50518451909150610d4d908290869085908110610cf057fe5b60200260200101516001600160a01b03166370a08231306040518263ffffffff1660e01b815260040180826001600160a01b03166001600160a01b0316815260200191505060206040518083038186803b158015610b4857600080fd5b83019250505b600101610bb9565b50610bad81670de0b6b3a764000063ffffffff61199516565b60065460ff1690565b600854630100000090046001600160a01b031681565b6000610794610da0611650565b8461082b8560026000610db1611650565b6001600160a01b03908116825260208083019390935260409182016000908120918c16815292529020549063ffffffff6119d716565b600f5460408051633aecd0e360e01b81526001600160a01b03848116600483015291516000939290921691633aecd0e391602480820192602092909190829003018186803b158015610e3857600080fd5b505afa158015610e4c573d6000803e3d6000fd5b505050506040513d6020811015610e6257600080fd5b505192915050565b600a546001600160a01b031681565b600082610e846107a7565b610f8657600860039054906101000a90046001600160a01b03166001600160a01b0316635a72fee86040518163ffffffff1660e01b815260040160206040518083038186803b158015610ed657600080fd5b505afa158015610eea573d6000803e3d6000fd5b505050506040513d6020811015610f0057600080fd5b50516040805163165013c360e31b81526001600160a01b038781166004830152602482018790529151919092169163b2809e18916044808301926020929190829003018186803b158015610f5357600080fd5b505afa158015610f67573d6000803e3d6000fd5b505050506040513d6020811015610f7d57600080fd5b50519150610f9b565b610f98610f938585611a31565b611b9b565b91505b610fb66001600160a01b03821633308663ffffffff611bc016565b600f5460408051633aecd0e360e01b81526001600160a01b03878116600483015291519190921691634ceb1f1391879161104c9188918691633aecd0e391602480820192602092909190829003018186803b15801561101457600080fd5b505afa158015611028573d6000803e3d6000fd5b505050506040513d602081101561103e57600080fd5b50519063ffffffff6119d716565b6040518363ffffffff1660e01b815260040180836001600160a01b03166001600160a01b0316815260200182815260200192505050600060405180830381600087803b15801561109b57600080fd5b505af11580156110af573d6000803e3d6000fd5b505050506110bd3383611c1a565b6110c684611d0c565b50505050565b60006110d6610849565b15806110e757506110e56107a7565b155b156110f45750600061077d565b61112b6110ff6107a7565b61111f670de0b6b3a7640000611113610849565b9063ffffffff61193516565b9063ffffffff61199516565b905061077d565b6001600160a01b031660009081526001602052604090205490565b33301461118b5760405162461bcd60e51b815260040180806020018281038252602c8152602001806120e9602c913960400191505060405180910390fd5b6001600160a01b0381166111d05760405162461bcd60e51b815260040180806020018281038252602481526020018061200f6024913960400191505060405180910390fd5b600080546001600160a01b0383166001600160a01b0319909116811790915560408051918252517f75e41bc35ff1bf14d81d1d2f649c0084a0f974f9289c803ec9898eeec4c8d0b89181900360200190a150565b6009546001600160a01b031681565b60058054604080516020601f60026000196101006001881615020190951694909404938401819004810282018101909252828152606093909290918301828280156107755780601f1061074a57610100808354040283529160200191610775565b60006107946112a1611650565b8461082b8560405180606001604052806025815260200161216360259139600260006112cb611650565b6001600160a01b03908116825260208083019390935260409182016000908120918d1681529252902054919063ffffffff61189e16565b600061079461130f611650565b8484611740565b6008546040805163387971a160e11b81523060048201529051606092630100000090046001600160a01b0316916370f2e342916024808301926000929190829003018186803b15801561136857600080fd5b505afa15801561137c573d6000803e3d6000fd5b505050506040513d6000823e601f3d908101601f1916820160405260208110156113a557600080fd5b8101908080516040519392919084600160201b8211156113c457600080fd5b9083019060208201858111156113d957600080fd5b82518660208202830111600160201b821117156113f557600080fd5b82525081516020918201928201910280838360005b8381101561142257818101518382015260200161140a565b50505050905001604052505050905090565b600080805b600d548110156115ec57600f54600d80546000926001600160a01b031691633aecd0e3918590811061146757fe5b60009182526020918290200154604080516001600160e01b031960e086901b1681526001600160a01b0390921660048301525160248083019392829003018186803b1580156114b557600080fd5b505afa1580156114c9573d6000803e3d6000fd5b505050506040513d60208110156114df57600080fd5b505111156115e457600854600d8054600092630100000090046001600160a01b031691638b2f0f4f918590811061151257fe5b60009182526020918290200154604080516001600160e01b031960e086901b1681526001600160a01b0390921660048301525160248083019392829003018186803b15801561156057600080fd5b505afa158015611574573d6000803e3d6000fd5b505050506040513d602081101561158a57600080fd5b505160085460408051630b4e5fdd60e31b815290519293506115de928492630100000090046001600160a01b031691635a72fee8916004808301926020929190829003018186803b158015610a0057600080fd5b83019250505b600101611439565b5061160581670de0b6b3a764000063ffffffff61199516565b91505090565b600098975050505050505050565b6001600160a01b03918216600090815260026020908152604080832093909416825291909152205490565b60009695505050505050565b3390565b6001600160a01b0383166116995760405162461bcd60e51b81526004018080602001828103825260248152602001806121156024913960400191505060405180910390fd5b6001600160a01b0382166116de5760405162461bcd60e51b81526004018080602001828103825260228152602001806120336022913960400191505060405180910390fd5b6001600160a01b03808416600081815260026020908152604080832094871680845294825291829020859055815185815291517f8c5be1e5ebec7d5bd14f71427d1e84f3dd0314c0f7b2291e5b200ac8c7c3b9259281900390910190a3505050565b6001600160a01b0383166117855760405162461bcd60e51b81526004018080602001828103825260258152602001806120c46025913960400191505060405180910390fd5b6001600160a01b0382166117ca5760405162461bcd60e51b8152600401808060200182810382526023815260200180611fec6023913960400191505060405180910390fd5b61180d81604051806060016040528060268152602001612055602691396001600160a01b038616600090815260016020526040902054919063ffffffff61189e16565b6001600160a01b038085166000908152600160205260408082209390935590841681522054611842908263ffffffff6119d716565b6001600160a01b0380841660008181526001602090815260409182902094909455805185815290519193928716927fddf252ad1be2c89b69c2b068fc378daa952ba7f163c4a11628f55a4df523b3ef92918290030190a3505050565b6000818484111561192d5760405162461bcd60e51b81526004018080602001828103825283818151815260200191508051906020019080838360005b838110156118f25781810151838201526020016118da565b50505050905090810190601f16801561191f5780820380516001836020036101000a031916815260200191505b509250505060405180910390fd5b505050900390565b60008261194457506000610798565b8282028284828161195157fe5b041461198e5760405162461bcd60e51b815260040180806020018281038252602181526020018061207b6021913960400191505060405180910390fd5b9392505050565b600061198e83836040518060400160405280601a81526020017f536166654d6174683a206469766973696f6e206279207a65726f000000000000815250611d95565b60008282018381101561198e576040805162461bcd60e51b815260206004820152601b60248201527f536166654d6174683a206164646974696f6e206f766572666c6f770000000000604482015290519081900360640190fd5b60085460408051638b2f0f4f60e01b81526001600160a01b0385811660048301529151600093849363010000009091041691638b2f0f4f916024808301926020929190829003018186803b158015611a8857600080fd5b505afa158015611a9c573d6000803e3d6000fd5b505050506040513d6020811015611ab257600080fd5b505160085460408051630b4e5fdd60e31b81529051929350611b9392670de0b6b3a76400009261111f92869263010000009092046001600160a01b031691635a72fee891600480820192602092909190829003018186803b158015611b1657600080fd5b505afa158015611b2a573d6000803e3d6000fd5b505050506040513d6020811015611b4057600080fd5b50516040805163165013c360e31b81526001600160a01b038b81166004830152602482018b90529151919092169163b2809e18916044808301926020929190829003018186803b158015610b4857600080fd5b949350505050565b6000610798611ba8610849565b61111f611bb36107a7565b859063ffffffff61193516565b604080516001600160a01b0385811660248301528416604482015260648082018490528251808303909101815260849091019091526020810180516001600160e01b03166323b872dd60e01b1790526110c6908590611dfa565b6001600160a01b038216611c75576040805162461bcd60e51b815260206004820152601f60248201527f45524332303a206d696e7420746f20746865207a65726f206164647265737300604482015290519081900360640190fd5b600354611c88908263ffffffff6119d716565b6003556001600160a01b038216600090815260016020526040902054611cb4908263ffffffff6119d716565b6001600160a01b03831660008181526001602090815260408083209490945583518581529351929391927fddf252ad1be2c89b69c2b068fc378daa952ba7f163c4a11628f55a4df523b3ef9281900390910190a35050565b6001600160a01b0381166000908152600e602052604090205460ff16611d92576001600160a01b0381166000818152600e60205260408120805460ff19166001908117909155600d805491820181559091527fd7b6990105719101dabeb77144f2a3385c8033acd3af97e9423a695e81ad1eb50180546001600160a01b03191690911790555b50565b60008183611de45760405162461bcd60e51b81526020600482018181528351602484015283519092839260449091019190850190808383600083156118f25781810151838201526020016118da565b506000838581611df057fe5b0495945050505050565b611e0c826001600160a01b0316611fb2565b611e5d576040805162461bcd60e51b815260206004820152601f60248201527f5361666545524332303a2063616c6c20746f206e6f6e2d636f6e747261637400604482015290519081900360640190fd5b60006060836001600160a01b0316836040518082805190602001908083835b60208310611e9b5780518252601f199092019160209182019101611e7c565b6001836020036101000a0380198251168184511680821785525050505050509050019150506000604051808303816000865af19150503d8060008114611efd576040519150601f19603f3d011682016040523d82523d6000602084013e611f02565b606091505b509150915081611f59576040805162461bcd60e51b815260206004820181905260248201527f5361666545524332303a206c6f772d6c6576656c2063616c6c206661696c6564604482015290519081900360640190fd5b8051156110c657808060200190516020811015611f7557600080fd5b50516110c65760405162461bcd60e51b815260040180806020018281038252602a815260200180612139602a913960400191505060405180910390fd5b6000813f7fc5d2460186f7233c927e7db2dcc703c0e500b653ca82273b7bfad8045d85a470818114801590611b9357505015159291505056fe45524332303a207472616e7366657220746f20746865207a65726f2061646472657373496e76616c6964206d617374657220636f707920616464726573732070726f766964656445524332303a20617070726f766520746f20746865207a65726f206164647265737345524332303a207472616e7366657220616d6f756e7420657863656564732062616c616e6365536166654d6174683a206d756c7469706c69636174696f6e206f766572666c6f7745524332303a207472616e7366657220616d6f756e74206578636565647320616c6c6f77616e636545524332303a207472616e736665722066726f6d20746865207a65726f20616464726573734d6574686f642063616e206f6e6c792062652063616c6c65642066726f6d207468697320636f6e747261637445524332303a20617070726f76652066726f6d20746865207a65726f20616464726573735361666545524332303a204552433230206f7065726174696f6e20646964206e6f74207375636365656445524332303a2064656372656173656420616c6c6f77616e63652062656c6f77207a65726fa265627a7a723158200e8c17dda0c0e1cf86e0ed042868433ad88d2e266bf7da27878025694c94330564736f6c63430005110032",
  "source": "// SPDX-License-Identifier: MIT\npragma solidity >=0.5.0 <0.7.0;\nimport \"../../storage/VaultStorage.sol\";\n\ncontract StockDeposit is VaultStorage {\n    /// @dev Function to Deposit assets into the Vault.\n    /// @param _tokenAddress Address of the deposit token.\n    /// @param _amount Amount of deposit token.\n    function deposit(address _tokenAddress, uint256 _amount) public {\n        //revert(\"at stockdeposit\");\n        uint256 _share;\n        IERC20 token = IERC20(_tokenAddress);\n        if (totalSupply() == 0) {\n            _share = IHexUtils(IAPContract(APContract).stringUtils())\n                .toDecimals(_tokenAddress, _amount);\n        } else {\n            _share = getMintValue(getDepositNAV(_tokenAddress, _amount));\n        }\n        token.safeTransferFrom(msg.sender, address(this), _amount);\n        tokenBalances.setTokenBalance(\n            _tokenAddress,\n            tokenBalances.getTokenBalance(_tokenAddress).add(_amount)\n        );\n        _mint(msg.sender, _share);\n        addToAssetList(_tokenAddress);\n    }\n}\n",
  "sourcePath": "/home/dxuser/Documents/scode/yieldster-vault/contracts/smartStrategies/deposit/StockDeposit.sol",
  "compiler": {
    "name": "solc",
    "version": "0.5.17+commit.d19bba13.Emscripten.clang"
  },
  "schemaVersion": "3.4.4",
  "updatedAt": "2022-02-04T04:48:38.816Z",
  "networkType": "ethereum",
  "devdoc": {
    "methods": {
      "allowance(address,address)": {
        "details": "See {IERC20-allowance}."
      },
      "approve(address,uint256)": {
        "details": "See {IERC20-approve}.     * Requirements:     * - `spender` cannot be the zero address."
      },
      "balanceOf(address)": {
        "details": "See {IERC20-balanceOf}."
      },
      "changeMasterCopy(address)": {
        "details": "Allows to upgrade the contract. This can only be done via a Safe transaction.",
        "params": {
          "_masterCopy": "New contract address."
        }
      },
      "decimals()": {
        "details": "Returns the number of decimals used to get its user representation. For example, if `decimals` equals `2`, a balance of `505` tokens should be displayed to a user as `5,05` (`505 / 10 ** 2`).     * Tokens usually opt for a value of 18, imitating the relationship between Ether and Wei.     * NOTE: This information is only used for _display_ purposes: it in no way affects any of the arithmetic of the contract, including {IERC20-balanceOf} and {IERC20-transfer}."
      },
      "decreaseAllowance(address,uint256)": {
        "details": "Atomically decreases the allowance granted to `spender` by the caller.     * This is an alternative to {approve} that can be used as a mitigation for problems described in {IERC20-approve}.     * Emits an {Approval} event indicating the updated allowance.     * Requirements:     * - `spender` cannot be the zero address. - `spender` must have allowance for the caller of at least `subtractedValue`."
      },
      "deposit(address,uint256)": {
        "details": "Function to Deposit assets into the Vault.",
        "params": {
          "_amount": "Amount of deposit token.",
          "_tokenAddress": "Address of the deposit token."
        }
      },
      "getVaultActiveStrategy()": {
        "details": "Function to get the address of active strategy in the vault."
      },
      "getVaultNAV()": {
        "details": "Function to return the NAV of the Vault."
      },
      "getVaultNAVWithoutStrategyToken()": {
        "details": "Function to return the NAV of the Vault excluding Strategy Tokens."
      },
      "increaseAllowance(address,uint256)": {
        "details": "Atomically increases the allowance granted to `spender` by the caller.     * This is an alternative to {approve} that can be used as a mitigation for problems described in {IERC20-approve}.     * Emits an {Approval} event indicating the updated allowance.     * Requirements:     * - `spender` cannot be the zero address."
      },
      "name()": {
        "details": "Returns the name of the token."
      },
      "supportsInterface(bytes4)": {
        "details": "See {IERC165-supportsInterface}.     * Time complexity O(1), guaranteed to always use less than 30 000 gas."
      },
      "symbol()": {
        "details": "Returns the symbol of the token, usually a shorter version of the name."
      },
      "tokenValueInUSD()": {
        "details": "Function to return Value of the Vault Token."
      },
      "totalSupply()": {
        "details": "See {IERC20-totalSupply}."
      },
      "transfer(address,uint256)": {
        "details": "See {IERC20-transfer}.     * Requirements:     * - `recipient` cannot be the zero address. - the caller must have a balance of at least `amount`."
      },
      "transferFrom(address,address,uint256)": {
        "details": "See {IERC20-transferFrom}.     * Emits an {Approval} event indicating the updated allowance. This is not required by the EIP. See the note at the beginning of {ERC20};     * Requirements: - `sender` and `recipient` cannot be the zero address. - `sender` must have a balance of at least `amount`. - the caller must have allowance for `sender`'s tokens of at least `amount`."
      }
    }
  },
  "userdoc": {
    "methods": {}
  }
}