{
  "contractName": "TokenBalanceStorage",
  "abi": [
    {
      "inputs": [],
      "payable": false,
      "stateMutability": "nonpayable",
      "type": "constructor"
    },
    {
      "constant": false,
      "inputs": [
        {
          "internalType": "address",
          "name": "_tokenAddress",
          "type": "address"
        },
        {
          "internalType": "uint256",
          "name": "_balance",
          "type": "uint256"
        }
      ],
      "name": "setTokenBalance",
      "outputs": [],
      "payable": false,
      "stateMutability": "nonpayable",
      "type": "function"
    },
    {
      "constant": true,
      "inputs": [
        {
          "internalType": "address",
          "name": "_token",
          "type": "address"
        }
      ],
      "name": "getTokenBalance",
      "outputs": [
        {
          "internalType": "uint256",
          "name": "",
          "type": "uint256"
        }
      ],
      "payable": false,
      "stateMutability": "view",
      "type": "function"
    },
    {
      "constant": false,
      "inputs": [],
      "name": "setLastTransactionBlockNumber",
      "outputs": [],
      "payable": false,
      "stateMutability": "nonpayable",
      "type": "function"
    },
    {
      "constant": true,
      "inputs": [],
      "name": "getLastTransactionBlockNumber",
      "outputs": [
        {
          "internalType": "uint256",
          "name": "",
          "type": "uint256"
        }
      ],
      "payable": false,
      "stateMutability": "view",
      "type": "function"
    },
    {
      "constant": true,
      "inputs": [],
      "name": "getLastTransactionNav",
      "outputs": [
        {
          "internalType": "uint256",
          "name": "",
          "type": "uint256"
        }
      ],
      "payable": false,
      "stateMutability": "view",
      "type": "function"
    },
    {
      "constant": false,
      "inputs": [
        {
          "internalType": "uint256",
          "name": "_nav",
          "type": "uint256"
        }
      ],
      "name": "setLastTransactionNav",
      "outputs": [],
      "payable": false,
      "stateMutability": "nonpayable",
      "type": "function"
    }
  ],
  "bytecode": "0x608060405234801561001057600080fd5b5043600055600280546001600160a01b03191633179055610269806100366000396000f3fe608060405234801561001057600080fd5b50600436106100625760003560e01c80633aecd0e3146100675780634ceb1f131461009f5780637e009489146100cd57806391718f5c146100d5578063a265b26b146100dd578063dca10608146100e5575b600080fd5b61008d6004803603602081101561007d57600080fd5b50356001600160a01b0316610102565b60408051918252519081900360200190f35b6100cb600480360360408110156100b557600080fd5b506001600160a01b03813516906020013561011d565b005b61008d610185565b61008d61018b565b6100cb610191565b6100cb600480360360208110156100fb57600080fd5b50356101e3565b6001600160a01b031660009081526003602052604090205490565b6002546001600160a01b03163314610169576040805162461bcd60e51b815260206004820152600a60248201526937b7363c9027bbb732b960b11b604482015290519081900360640190fd5b6001600160a01b03909116600090815260036020526040902055565b60005490565b60015490565b6002546001600160a01b031633146101dd576040805162461bcd60e51b815260206004820152600a60248201526937b7363c9027bbb732b960b11b604482015290519081900360640190fd5b43600055565b6002546001600160a01b0316331461022f576040805162461bcd60e51b815260206004820152600a60248201526937b7363c9027bbb732b960b11b604482015290519081900360640190fd5b60015556fea265627a7a723158209dddd3ddfdd576920d1d145ccf3dd338518fbbad3dbaa494c2c2cebff41d3c2a64736f6c63430005110032",
  "source": "pragma solidity >=0.5.0 <0.7.0;\n\ncontract TokenBalanceStorage {\n    uint256 private blockNumber;\n    uint256 private lastTransactionNav;\n    address private owner;\n    mapping(address => uint256) tokenBalance;\n\n    constructor() public {\n        blockNumber = block.number;\n        owner = msg.sender;\n    }\n\n    function setTokenBalance(address _tokenAddress, uint256 _balance) public {\n        require(msg.sender == owner, \"only Owner\");\n        tokenBalance[_tokenAddress] = _balance;\n    }\n\n    function getTokenBalance(address _token) public view returns (uint256) {\n        return tokenBalance[_token];\n    }\n\n    function setLastTransactionBlockNumber() public {\n        require(msg.sender == owner, \"only Owner\");\n        blockNumber = block.number;\n    }\n\n    function getLastTransactionBlockNumber() public view returns (uint256) {\n        return blockNumber;\n    }\n\n    function getLastTransactionNav() public view returns (uint256) {\n        return lastTransactionNav;\n    }\n\n    function setLastTransactionNav(uint256 _nav) public {\n        require(msg.sender == owner, \"only Owner\");\n        lastTransactionNav = _nav;\n    }\n}\n",
  "sourcePath": "/home/dxuser/Documents/scode/yieldster-vault/contracts/storage/TokenBalanceStorage.sol",
  "compiler": {
    "name": "solc",
    "version": "0.5.17+commit.d19bba13.Emscripten.clang"
  },
  "schemaVersion": "3.4.4",
  "updatedAt": "2022-02-01T11:12:09.338Z",
  "devdoc": {
    "methods": {}
  },
  "userdoc": {
    "methods": {}
  }
}