{
  "contractName": "VaultStorage",
  "abi": [
    {
      "anonymous": false,
      "inputs": [
        {
          "indexed": true,
          "internalType": "address",
          "name": "owner",
          "type": "address"
        },
        {
          "indexed": true,
          "internalType": "address",
          "name": "spender",
          "type": "address"
        },
        {
          "indexed": false,
          "internalType": "uint256",
          "name": "value",
          "type": "uint256"
        }
      ],
      "name": "Approval",
      "type": "event"
    },
    {
      "anonymous": false,
      "inputs": [
        {
          "indexed": false,
          "internalType": "address",
          "name": "masterCopy",
          "type": "address"
        }
      ],
      "name": "ChangedMasterCopy",
      "type": "event"
    },
    {
      "anonymous": false,
      "inputs": [
        {
          "indexed": true,
          "internalType": "address",
          "name": "from",
          "type": "address"
        },
        {
          "indexed": true,
          "internalType": "address",
          "name": "to",
          "type": "address"
        },
        {
          "indexed": false,
          "internalType": "uint256",
          "name": "value",
          "type": "uint256"
        }
      ],
      "name": "Transfer",
      "type": "event"
    },
    {
      "constant": true,
      "inputs": [],
      "name": "APContract",
      "outputs": [
        {
          "internalType": "address",
          "name": "",
          "type": "address"
        }
      ],
      "payable": false,
      "stateMutability": "view",
      "type": "function"
    },
    {
      "constant": true,
      "inputs": [
        {
          "internalType": "address",
          "name": "owner",
          "type": "address"
        },
        {
          "internalType": "address",
          "name": "spender",
          "type": "address"
        }
      ],
      "name": "allowance",
      "outputs": [
        {
          "internalType": "uint256",
          "name": "",
          "type": "uint256"
        }
      ],
      "payable": false,
      "stateMutability": "view",
      "type": "function"
    },
    {
      "constant": false,
      "inputs": [
        {
          "internalType": "address",
          "name": "spender",
          "type": "address"
        },
        {
          "internalType": "uint256",
          "name": "amount",
          "type": "uint256"
        }
      ],
      "name": "approve",
      "outputs": [
        {
          "internalType": "bool",
          "name": "",
          "type": "bool"
        }
      ],
      "payable": false,
      "stateMutability": "nonpayable",
      "type": "function"
    },
    {
      "constant": true,
      "inputs": [
        {
          "internalType": "address",
          "name": "account",
          "type": "address"
        }
      ],
      "name": "balanceOf",
      "outputs": [
        {
          "internalType": "uint256",
          "name": "",
          "type": "uint256"
        }
      ],
      "payable": false,
      "stateMutability": "view",
      "type": "function"
    },
    {
      "constant": false,
      "inputs": [
        {
          "internalType": "address",
          "name": "_masterCopy",
          "type": "address"
        }
      ],
      "name": "changeMasterCopy",
      "outputs": [],
      "payable": false,
      "stateMutability": "nonpayable",
      "type": "function"
    },
    {
      "constant": true,
      "inputs": [],
      "name": "decimals",
      "outputs": [
        {
          "internalType": "uint8",
          "name": "",
          "type": "uint8"
        }
      ],
      "payable": false,
      "stateMutability": "view",
      "type": "function"
    },
    {
      "constant": false,
      "inputs": [
        {
          "internalType": "address",
          "name": "spender",
          "type": "address"
        },
        {
          "internalType": "uint256",
          "name": "subtractedValue",
          "type": "uint256"
        }
      ],
      "name": "decreaseAllowance",
      "outputs": [
        {
          "internalType": "bool",
          "name": "",
          "type": "bool"
        }
      ],
      "payable": false,
      "stateMutability": "nonpayable",
      "type": "function"
    },
    {
      "constant": true,
      "inputs": [],
      "name": "emergencyConditions",
      "outputs": [
        {
          "internalType": "uint8",
          "name": "",
          "type": "uint8"
        }
      ],
      "payable": false,
      "stateMutability": "view",
      "type": "function"
    },
    {
      "constant": false,
      "inputs": [
        {
          "internalType": "address",
          "name": "spender",
          "type": "address"
        },
        {
          "internalType": "uint256",
          "name": "addedValue",
          "type": "uint256"
        }
      ],
      "name": "increaseAllowance",
      "outputs": [
        {
          "internalType": "bool",
          "name": "",
          "type": "bool"
        }
      ],
      "payable": false,
      "stateMutability": "nonpayable",
      "type": "function"
    },
    {
      "constant": true,
      "inputs": [],
      "name": "name",
      "outputs": [
        {
          "internalType": "string",
          "name": "",
          "type": "string"
        }
      ],
      "payable": false,
      "stateMutability": "view",
      "type": "function"
    },
    {
      "constant": false,
      "inputs": [
        {
          "internalType": "address",
          "name": "operator",
          "type": "address"
        },
        {
          "internalType": "address",
          "name": "from",
          "type": "address"
        },
        {
          "internalType": "uint256[]",
          "name": "ids",
          "type": "uint256[]"
        },
        {
          "internalType": "uint256[]",
          "name": "values",
          "type": "uint256[]"
        },
        {
          "internalType": "bytes",
          "name": "data",
          "type": "bytes"
        }
      ],
      "name": "onERC1155BatchReceived",
      "outputs": [
        {
          "internalType": "bytes4",
          "name": "",
          "type": "bytes4"
        }
      ],
      "payable": false,
      "stateMutability": "nonpayable",
      "type": "function"
    },
    {
      "constant": false,
      "inputs": [
        {
          "internalType": "address",
          "name": "operator",
          "type": "address"
        },
        {
          "internalType": "address",
          "name": "from",
          "type": "address"
        },
        {
          "internalType": "uint256",
          "name": "id",
          "type": "uint256"
        },
        {
          "internalType": "uint256",
          "name": "value",
          "type": "uint256"
        },
        {
          "internalType": "bytes",
          "name": "data",
          "type": "bytes"
        }
      ],
      "name": "onERC1155Received",
      "outputs": [
        {
          "internalType": "bytes4",
          "name": "",
          "type": "bytes4"
        }
      ],
      "payable": false,
      "stateMutability": "nonpayable",
      "type": "function"
    },
    {
      "constant": true,
      "inputs": [],
      "name": "owner",
      "outputs": [
        {
          "internalType": "address",
          "name": "",
          "type": "address"
        }
      ],
      "payable": false,
      "stateMutability": "view",
      "type": "function"
    },
    {
      "constant": true,
      "inputs": [
        {
          "internalType": "bytes4",
          "name": "interfaceId",
          "type": "bytes4"
        }
      ],
      "name": "supportsInterface",
      "outputs": [
        {
          "internalType": "bool",
          "name": "",
          "type": "bool"
        }
      ],
      "payable": false,
      "stateMutability": "view",
      "type": "function"
    },
    {
      "constant": true,
      "inputs": [],
      "name": "symbol",
      "outputs": [
        {
          "internalType": "string",
          "name": "",
          "type": "string"
        }
      ],
      "payable": false,
      "stateMutability": "view",
      "type": "function"
    },
    {
      "constant": true,
      "inputs": [],
      "name": "totalSupply",
      "outputs": [
        {
          "internalType": "uint256",
          "name": "",
          "type": "uint256"
        }
      ],
      "payable": false,
      "stateMutability": "view",
      "type": "function"
    },
    {
      "constant": false,
      "inputs": [
        {
          "internalType": "address",
          "name": "recipient",
          "type": "address"
        },
        {
          "internalType": "uint256",
          "name": "amount",
          "type": "uint256"
        }
      ],
      "name": "transfer",
      "outputs": [
        {
          "internalType": "bool",
          "name": "",
          "type": "bool"
        }
      ],
      "payable": false,
      "stateMutability": "nonpayable",
      "type": "function"
    },
    {
      "constant": false,
      "inputs": [
        {
          "internalType": "address",
          "name": "sender",
          "type": "address"
        },
        {
          "internalType": "address",
          "name": "recipient",
          "type": "address"
        },
        {
          "internalType": "uint256",
          "name": "amount",
          "type": "uint256"
        }
      ],
      "name": "transferFrom",
      "outputs": [
        {
          "internalType": "bool",
          "name": "",
          "type": "bool"
        }
      ],
      "payable": false,
      "stateMutability": "nonpayable",
      "type": "function"
    },
    {
      "constant": true,
      "inputs": [],
      "name": "vaultAPSManager",
      "outputs": [
        {
          "internalType": "address",
          "name": "",
          "type": "address"
        }
      ],
      "payable": false,
      "stateMutability": "view",
      "type": "function"
    },
    {
      "constant": true,
      "inputs": [],
      "name": "vaultStrategyManager",
      "outputs": [
        {
          "internalType": "address",
          "name": "",
          "type": "address"
        }
      ],
      "payable": false,
      "stateMutability": "view",
      "type": "function"
    },
    {
      "constant": true,
      "inputs": [
        {
          "internalType": "address",
          "name": "_tokenAddress",
          "type": "address"
        }
      ],
      "name": "getTokenBalance",
      "outputs": [
        {
          "internalType": "uint256",
          "name": "",
          "type": "uint256"
        }
      ],
      "payable": false,
      "stateMutability": "view",
      "type": "function"
    },
    {
      "constant": true,
      "inputs": [],
      "name": "getVaultActiveStrategy",
      "outputs": [
        {
          "internalType": "address[]",
          "name": "",
          "type": "address[]"
        }
      ],
      "payable": false,
      "stateMutability": "view",
      "type": "function"
    },
    {
      "constant": true,
      "inputs": [],
      "name": "getVaultNAV",
      "outputs": [
        {
          "internalType": "uint256",
          "name": "",
          "type": "uint256"
        }
      ],
      "payable": false,
      "stateMutability": "view",
      "type": "function"
    },
    {
      "constant": true,
      "inputs": [],
      "name": "getVaultNAVWithoutStrategyToken",
      "outputs": [
        {
          "internalType": "uint256",
          "name": "",
          "type": "uint256"
        }
      ],
      "payable": false,
      "stateMutability": "view",
      "type": "function"
    },
    {
      "constant": true,
      "inputs": [],
      "name": "tokenValueInUSD",
      "outputs": [
        {
          "internalType": "uint256",
          "name": "",
          "type": "uint256"
        }
      ],
      "payable": false,
      "stateMutability": "view",
      "type": "function"
    }
  ],
  "bytecode": "0x60806040526100367f01ffc9a7000000000000000000000000000000000000000000000000000000006001600160e01b0361006d16565b6100687f4e2312e0000000000000000000000000000000000000000000000000000000006001600160e01b0361006d16565b61013b565b7fffffffff0000000000000000000000000000000000000000000000000000000080821614156100fe57604080517f08c379a000000000000000000000000000000000000000000000000000000000815260206004820152601c60248201527f4552433136353a20696e76616c696420696e7465726661636520696400000000604482015290519081900360640190fd5b7fffffffff00000000000000000000000000000000000000000000000000000000166000908152600760205260409020805460ff19166001179055565b6119a38061014a6000396000f3fe608060405234801561001057600080fd5b50600436106101735760003560e01c80633f514315116100de578063a457c2d711610097578063b28aaf7d11610071578063b28aaf7d14610476578063bc197c811461047e578063dd62ed3e146105c2578063f23a6e61146105f057610173565b8063a457c2d7146103c6578063a9059cbb146103f2578063ac221b5c1461041e57610173565b80633f514315146103585780635969326b1461036057806370a08231146103685780637de7edef1461038e5780638da5cb5b146103b657806395d89b41146103be57610173565b80632b27ef66116101305780632b27ef66146102ca5780632c9a4105146102ee578063313ce567146102f657806333846027146102fe57806339509351146103065780633aecd0e31461033257610173565b806301ffc9a71461017857806306fdde03146101b3578063095ea7b3146102305780630c6a957f1461025c57806318160ddd1461027a57806323b872dd14610294575b600080fd5b61019f6004803603602081101561018e57600080fd5b50356001600160e01b031916610683565b604080519115158252519081900360200190f35b6101bb6106a2565b6040805160208082528351818301528351919283929083019185019080838360005b838110156101f55781810151838201526020016101dd565b50505050905090810190601f1680156102225780820380516001836020036101000a031916815260200191505b509250505060405180910390f35b61019f6004803603604081101561024657600080fd5b506001600160a01b038135169060200135610739565b610264610757565b6040805160ff9092168252519081900360200190f35b610282610760565b60408051918252519081900360200190f35b61019f600480360360608110156102aa57600080fd5b506001600160a01b03813581169160208101359091169060400135610766565b6102d26107f3565b604080516001600160a01b039092168252519081900360200190f35b610282610802565b610264610d2d565b6102d2610d36565b61019f6004803603604081101561031c57600080fd5b506001600160a01b038135169060200135610d4c565b6102826004803603602081101561034857600080fd5b50356001600160a01b0316610da0565b6102d2610e23565b610282610e32565b6102826004803603602081101561037e57600080fd5b50356001600160a01b0316610e98565b6103b4600480360360208110156103a457600080fd5b50356001600160a01b0316610eb3565b005b6102d2610f8a565b6101bb610f99565b61019f600480360360408110156103dc57600080fd5b506001600160a01b038135169060200135610ffa565b61019f6004803603604081101561040857600080fd5b506001600160a01b038135169060200135611068565b61042661107c565b60408051602080825283518183015283519192839290830191858101910280838360005b8381101561046257818101518382015260200161044a565b505050509050019250505060405180910390f35b61028261119a565b6105a5600480360360a081101561049457600080fd5b6001600160a01b038235811692602081013590911691810190606081016040820135600160201b8111156104c757600080fd5b8201836020820111156104d957600080fd5b803590602001918460208302840111600160201b831117156104fa57600080fd5b919390929091602081019035600160201b81111561051757600080fd5b82018360208201111561052957600080fd5b803590602001918460208302840111600160201b8311171561054a57600080fd5b919390929091602081019035600160201b81111561056757600080fd5b82018360208201111561057957600080fd5b803590602001918460018302840111600160201b8311171561059a57600080fd5b509092509050611371565b604080516001600160e01b03199092168252519081900360200190f35b610282600480360360408110156105d857600080fd5b506001600160a01b038135811691602001351661137f565b6105a5600480360360a081101561060657600080fd5b6001600160a01b03823581169260208101359091169160408201359160608101359181019060a081016080820135600160201b81111561064557600080fd5b82018360208201111561065757600080fd5b803590602001918460018302840111600160201b8311171561067857600080fd5b5090925090506113aa565b6001600160e01b03191660009081526007602052604090205460ff1690565b60048054604080516020601f600260001961010060018816150201909516949094049384018190048102820181019092528281526060939092909183018282801561072e5780601f106107035761010080835404028352916020019161072e565b820191906000526020600020905b81548152906001019060200180831161071157829003601f168201915b505050505090505b90565b600061074d6107466113b6565b84846113ba565b5060015b92915050565b60085460ff1681565b60035490565b60006107738484846114a6565b6107e98461077f6113b6565b6107e4856040518060600160405280602881526020016118ad602891396001600160a01b038a166000908152600260205260408120906107bd6113b6565b6001600160a01b03168152602081019190915260400160002054919063ffffffff61160416565b6113ba565b5060019392505050565b600b546001600160a01b031681565b6000606061080e61107c565b90506000805b600d54811015610b4757600f54600d80546000926001600160a01b031691633aecd0e3918590811061084257fe5b60009182526020918290200154604080516001600160e01b031960e086901b1681526001600160a01b0390921660048301525160248083019392829003018186803b15801561089057600080fd5b505afa1580156108a4573d6000803e3d6000fd5b505050506040513d60208110156108ba57600080fd5b50511115610b3f57600854600d8054600092630100000090046001600160a01b031691638b2f0f4f91859081106108ed57fe5b60009182526020918290200154604080516001600160e01b031960e086901b1681526001600160a01b0390921660048301525160248083019392829003018186803b15801561093b57600080fd5b505afa15801561094f573d6000803e3d6000fd5b505050506040513d602081101561096557600080fd5b505160085460408051630b4e5fdd60e31b81529051929350610b39928492630100000090046001600160a01b031691635a72fee8916004808301926020929190829003018186803b1580156109b957600080fd5b505afa1580156109cd573d6000803e3d6000fd5b505050506040513d60208110156109e357600080fd5b5051600d80546001600160a01b039092169163b2809e18919087908110610a0657fe5b600091825260209091200154600f54600d80546001600160a01b039384169390921691633aecd0e391908a908110610a3a57fe5b60009182526020918290200154604080516001600160e01b031960e086901b1681526001600160a01b0390921660048301525160248083019392829003018186803b158015610a8857600080fd5b505afa158015610a9c573d6000803e3d6000fd5b505050506040513d6020811015610ab257600080fd5b5051604080516001600160e01b031960e086901b1681526001600160a01b0390931660048401526024830191909152516044808301926020929190829003018186803b158015610b0157600080fd5b505afa158015610b15573d6000803e3d6000fd5b505050506040513d6020811015610b2b57600080fd5b50519063ffffffff61169b16565b83019250505b600101610814565b508151610b6f57610b6681670de0b6b3a764000063ffffffff6116fb16565b92505050610736565b60005b8251811015610d14576000838281518110610b8957fe5b60200260200101516001600160a01b03166370a08231306040518263ffffffff1660e01b815260040180826001600160a01b03166001600160a01b0316815260200191505060206040518083038186803b158015610be657600080fd5b505afa158015610bfa573d6000803e3d6000fd5b505050506040513d6020811015610c1057600080fd5b50511115610d0c576000838281518110610c2657fe5b60200260200101516001600160a01b0316635969326b6040518163ffffffff1660e01b815260040160206040518083038186803b158015610c6657600080fd5b505afa158015610c7a573d6000803e3d6000fd5b505050506040513d6020811015610c9057600080fd5b50518451909150610d06908290869085908110610ca957fe5b60200260200101516001600160a01b03166370a08231306040518263ffffffff1660e01b815260040180826001600160a01b03166001600160a01b0316815260200191505060206040518083038186803b158015610b0157600080fd5b83019250505b600101610b72565b50610b6681670de0b6b3a764000063ffffffff6116fb16565b60065460ff1690565b600854630100000090046001600160a01b031681565b600061074d610d596113b6565b846107e48560026000610d6a6113b6565b6001600160a01b03908116825260208083019390935260409182016000908120918c16815292529020549063ffffffff61173d16565b600f5460408051633aecd0e360e01b81526001600160a01b03848116600483015291516000939290921691633aecd0e391602480820192602092909190829003018186803b158015610df157600080fd5b505afa158015610e05573d6000803e3d6000fd5b505050506040513d6020811015610e1b57600080fd5b505192915050565b600a546001600160a01b031681565b6000610e3c610802565b1580610e4d5750610e4b610760565b155b15610e5a57506000610736565b610e91610e65610760565b610e85670de0b6b3a7640000610e79610802565b9063ffffffff61169b16565b9063ffffffff6116fb16565b9050610736565b6001600160a01b031660009081526001602052604090205490565b333014610ef15760405162461bcd60e51b815260040180806020018281038252602c8152602001806118fa602c913960400191505060405180910390fd5b6001600160a01b038116610f365760405162461bcd60e51b81526004018080602001828103825260248152602001806118206024913960400191505060405180910390fd5b600080546001600160a01b0383166001600160a01b0319909116811790915560408051918252517f75e41bc35ff1bf14d81d1d2f649c0084a0f974f9289c803ec9898eeec4c8d0b89181900360200190a150565b6009546001600160a01b031681565b60058054604080516020601f600260001961010060018816150201909516949094049384018190048102820181019092528281526060939092909183018282801561072e5780601f106107035761010080835404028352916020019161072e565b600061074d6110076113b6565b846107e48560405180606001604052806025815260200161194a60259139600260006110316113b6565b6001600160a01b03908116825260208083019390935260409182016000908120918d1681529252902054919063ffffffff61160416565b600061074d6110756113b6565b84846114a6565b6008546040805163387971a160e11b81523060048201529051606092630100000090046001600160a01b0316916370f2e342916024808301926000929190829003018186803b1580156110ce57600080fd5b505afa1580156110e2573d6000803e3d6000fd5b505050506040513d6000823e601f3d908101601f19168201604052602081101561110b57600080fd5b8101908080516040519392919084600160201b82111561112a57600080fd5b90830190602082018581111561113f57600080fd5b82518660208202830111600160201b8211171561115b57600080fd5b82525081516020918201928201910280838360005b83811015611188578181015183820152602001611170565b50505050905001604052505050905090565b600080805b600d5481101561135257600f54600d80546000926001600160a01b031691633aecd0e391859081106111cd57fe5b60009182526020918290200154604080516001600160e01b031960e086901b1681526001600160a01b0390921660048301525160248083019392829003018186803b15801561121b57600080fd5b505afa15801561122f573d6000803e3d6000fd5b505050506040513d602081101561124557600080fd5b5051111561134a57600854600d8054600092630100000090046001600160a01b031691638b2f0f4f918590811061127857fe5b60009182526020918290200154604080516001600160e01b031960e086901b1681526001600160a01b0390921660048301525160248083019392829003018186803b1580156112c657600080fd5b505afa1580156112da573d6000803e3d6000fd5b505050506040513d60208110156112f057600080fd5b505160085460408051630b4e5fdd60e31b81529051929350611344928492630100000090046001600160a01b031691635a72fee8916004808301926020929190829003018186803b1580156109b957600080fd5b83019250505b60010161119f565b5061136b81670de0b6b3a764000063ffffffff6116fb16565b91505090565b600098975050505050505050565b6001600160a01b03918216600090815260026020908152604080832093909416825291909152205490565b60009695505050505050565b3390565b6001600160a01b0383166113ff5760405162461bcd60e51b81526004018080602001828103825260248152602001806119266024913960400191505060405180910390fd5b6001600160a01b0382166114445760405162461bcd60e51b81526004018080602001828103825260228152602001806118446022913960400191505060405180910390fd5b6001600160a01b03808416600081815260026020908152604080832094871680845294825291829020859055815185815291517f8c5be1e5ebec7d5bd14f71427d1e84f3dd0314c0f7b2291e5b200ac8c7c3b9259281900390910190a3505050565b6001600160a01b0383166114eb5760405162461bcd60e51b81526004018080602001828103825260258152602001806118d56025913960400191505060405180910390fd5b6001600160a01b0382166115305760405162461bcd60e51b81526004018080602001828103825260238152602001806117fd6023913960400191505060405180910390fd5b61157381604051806060016040528060268152602001611866602691396001600160a01b038616600090815260016020526040902054919063ffffffff61160416565b6001600160a01b0380851660009081526001602052604080822093909355908416815220546115a8908263ffffffff61173d16565b6001600160a01b0380841660008181526001602090815260409182902094909455805185815290519193928716927fddf252ad1be2c89b69c2b068fc378daa952ba7f163c4a11628f55a4df523b3ef92918290030190a3505050565b600081848411156116935760405162461bcd60e51b81526004018080602001828103825283818151815260200191508051906020019080838360005b83811015611658578181015183820152602001611640565b50505050905090810190601f1680156116855780820380516001836020036101000a031916815260200191505b509250505060405180910390fd5b505050900390565b6000826116aa57506000610751565b828202828482816116b757fe5b04146116f45760405162461bcd60e51b815260040180806020018281038252602181526020018061188c6021913960400191505060405180910390fd5b9392505050565b60006116f483836040518060400160405280601a81526020017f536166654d6174683a206469766973696f6e206279207a65726f000000000000815250611797565b6000828201838110156116f4576040805162461bcd60e51b815260206004820152601b60248201527f536166654d6174683a206164646974696f6e206f766572666c6f770000000000604482015290519081900360640190fd5b600081836117e65760405162461bcd60e51b8152602060048201818152835160248401528351909283926044909101919085019080838360008315611658578181015183820152602001611640565b5060008385816117f257fe5b049594505050505056fe45524332303a207472616e7366657220746f20746865207a65726f2061646472657373496e76616c6964206d617374657220636f707920616464726573732070726f766964656445524332303a20617070726f766520746f20746865207a65726f206164647265737345524332303a207472616e7366657220616d6f756e7420657863656564732062616c616e6365536166654d6174683a206d756c7469706c69636174696f6e206f766572666c6f7745524332303a207472616e7366657220616d6f756e74206578636565647320616c6c6f77616e636545524332303a207472616e736665722066726f6d20746865207a65726f20616464726573734d6574686f642063616e206f6e6c792062652063616c6c65642066726f6d207468697320636f6e747261637445524332303a20617070726f76652066726f6d20746865207a65726f206164647265737345524332303a2064656372656173656420616c6c6f77616e63652062656c6f77207a65726fa265627a7a723158206546872c5cd203ccf9fd2038f7d501add757b78485216b79023dccf070ee274964736f6c63430005110032",
  "source": "pragma solidity >=0.5.0 <0.7.0;\nimport \"../common/MasterCopy.sol\";\nimport \"../token/ERC1155/ERC1155Receiver.sol\";\nimport \"../token/ERC20Detailed.sol\";\nimport \"../interfaces/IAPContract.sol\";\nimport \"../interfaces/IWhitelist.sol\";\nimport \"../interfaces/IExchangeRegistry.sol\";\nimport \"../interfaces/IExchange.sol\";\nimport \"../interfaces/IStrategy.sol\";\nimport \"../interfaces/IHexUtils.sol\";\nimport \"./TokenBalanceStorage.sol\";\nimport \"@openzeppelin/contracts/token/ERC20/IERC20.sol\";\nimport \"@openzeppelin/contracts/token/ERC20/SafeERC20.sol\";\nimport \"@openzeppelin/contracts/token/ERC20/ERC20.sol\";\nimport \"@openzeppelin/contracts/math/SafeMath.sol\";\n\ncontract VaultStorage is MasterCopy, ERC20, ERC20Detailed, ERC1155Receiver {\n    using SafeMath for uint256;\n    using SafeERC20 for IERC20;\n\n    uint8 public emergencyConditions;\n    bool internal vaultSetupCompleted;\n    bool internal vaultRegistrationCompleted;\n\n    address public APContract;\n    address public owner;\n    address public vaultAPSManager;\n    address public vaultStrategyManager;\n\n    uint256[] internal whiteListGroups;\n    address[] internal assetList;\n    mapping(address => bool) isAssetPresent;\n\n    // Token balance storage keeps track of tokens that are deposited to safe without worrying direct depoited assets affesting the NAV;\n    TokenBalanceStorage tokenBalances;\n\n    /// @dev Function to revert in case of delegatecall fail.\n    function revertDelegate(bool delegateStatus) internal pure {\n        if (delegateStatus == false) {\n            assembly {\n                let ptr := mload(0x40)\n                let size := returndatasize()\n                returndatacopy(ptr, 0, size)\n                revert(ptr, size)\n            }\n        }\n    }\n\n    function getTokenBalance(address _tokenAddress)\n        external\n        view\n        returns (uint256)\n    {\n        return tokenBalances.getTokenBalance(_tokenAddress);\n    }\n\n    function addToAssetList(address _asset) internal {\n        if (!isAssetPresent[_asset]) {\n            isAssetPresent[_asset] = true;\n            assetList.push(_asset);\n        }\n    }\n\n    /// @dev Function to get the address of active strategy in the vault.\n    function getVaultActiveStrategy() public view returns (address[] memory) {\n        return IAPContract(APContract).getVaultActiveStrategy(address(this));\n    }\n\n    /// @dev Function to return the NAV of the Vault.\n    function getVaultNAV() public view returns (uint256) {\n        address[] memory strategies = getVaultActiveStrategy();\n        uint256 nav = 0;\n        for (uint256 i = 0; i < assetList.length; i++) {\n            if (tokenBalances.getTokenBalance(assetList[i]) > 0) {\n                uint256 tokenUSD = IAPContract(APContract).getUSDPrice(\n                    assetList[i]\n                );\n                nav += IHexUtils(IAPContract(APContract).stringUtils())\n                .toDecimals(\n                    assetList[i],\n                    tokenBalances.getTokenBalance(assetList[i])\n                ).mul(tokenUSD);\n            }\n        }\n        if (strategies.length == 0) {\n            return nav.div(1e18);\n        } else {\n            for (uint256 i = 0; i < strategies.length; i++) {\n                if (IERC20(strategies[i]).balanceOf(address(this)) > 0) {\n                    uint256 strategyTokenUSD = IStrategy(strategies[i])\n                    .tokenValueInUSD();\n                    nav += IERC20(strategies[i]).balanceOf(address(this)).mul(\n                        strategyTokenUSD\n                    );\n                }\n            }\n            return nav.div(1e18);\n        }\n    }\n\n    /// @dev Function to return the NAV of the Vault excluding Strategy Tokens.\n    function getVaultNAVWithoutStrategyToken() public view returns (uint256) {\n        uint256 nav = 0;\n        for (uint256 i = 0; i < assetList.length; i++) {\n            if (tokenBalances.getTokenBalance(assetList[i]) > 0) {\n                uint256 tokenUSD = IAPContract(APContract).getUSDPrice(\n                    assetList[i]\n                );\n                nav += (\n                    IHexUtils(IAPContract(APContract).stringUtils())\n                    .toDecimals(\n                        assetList[i],\n                        tokenBalances.getTokenBalance(assetList[i])\n                    ).mul(tokenUSD)\n                );\n            }\n        }\n        return nav.div(1e18);\n    }\n\n    /// @dev Function to return NAV for Deposit token and amount.\n    /// @param _tokenAddress Address of the deposit Token.\n    /// @param _amount Amount of the Deposit tokens.\n    function getDepositNAV(address _tokenAddress, uint256 _amount)\n        internal\n        view\n        returns (uint256)\n    {\n        uint256 tokenUSD = IAPContract(APContract).getUSDPrice(_tokenAddress);\n        return\n            (\n                IHexUtils(IAPContract(APContract).stringUtils())\n                    .toDecimals(_tokenAddress, _amount)\n                    .mul(tokenUSD)\n            )\n                .div(1e18);\n    }\n\n    /// @dev Function to get the amount of Vault Tokens to be minted for the deposit NAV.\n    /// @param depositNAV NAV of the Deposit Amount.\n    function getMintValue(uint256 depositNAV) internal view returns (uint256) {\n        return (depositNAV.mul(totalSupply())).div(getVaultNAV());\n    }\n\n    /// @dev Function to return Value of the Vault Token.\n    function tokenValueInUSD() public view returns (uint256) {\n        if (getVaultNAV() == 0 || totalSupply() == 0) {\n            return 0;\n        } else {\n            return (getVaultNAV().mul(1e18)).div(totalSupply());\n        }\n    }\n\n    function _approveToken(\n        address _token,\n        address _spender,\n        uint256 _amount\n    ) internal {\n        if (IERC20(_token).allowance(address(this), _spender) > 0) {\n            IERC20(_token).safeApprove(_spender, 0);\n            IERC20(_token).safeApprove(_spender, _amount);\n        } else IERC20(_token).safeApprove(_spender, _amount);\n    }\n\n    function updateTokenBalance(\n        address tokenAddress,\n        uint256 tokenAmount,\n        bool isAddition\n    ) internal {\n        if (isAddition) {\n            tokenBalances.setTokenBalance(\n                tokenAddress,\n                tokenBalances.getTokenBalance(tokenAddress).add(tokenAmount)\n            );\n        } else {\n            tokenBalances.setTokenBalance(\n                tokenAddress,\n                tokenBalances.getTokenBalance(tokenAddress).sub(tokenAmount)\n            );\n        }\n    }\n\n    function updateBalance(bytes memory data) internal {\n        bool assetUpdation = abi.decode(data, (bool));\n        if (assetUpdation) {\n            (, address asset, uint256 amount) = abi.decode(\n                data,\n                (bool, address, uint256)\n            );\n            if (asset != address(0)) updateTokenBalance(asset, amount, true);\n        }\n    }\n}\n",
  "sourcePath": "/home/dxuser/Documents/scode/yieldster-vault/contracts/storage/VaultStorage.sol",
  "compiler": {
    "name": "solc",
    "version": "0.5.17+commit.d19bba13.Emscripten.clang"
  },
  "schemaVersion": "3.4.4",
  "updatedAt": "2022-02-04T04:47:14.847Z",
  "devdoc": {
    "methods": {
      "allowance(address,address)": {
        "details": "See {IERC20-allowance}."
      },
      "approve(address,uint256)": {
        "details": "See {IERC20-approve}.     * Requirements:     * - `spender` cannot be the zero address."
      },
      "balanceOf(address)": {
        "details": "See {IERC20-balanceOf}."
      },
      "changeMasterCopy(address)": {
        "details": "Allows to upgrade the contract. This can only be done via a Safe transaction.",
        "params": {
          "_masterCopy": "New contract address."
        }
      },
      "decimals()": {
        "details": "Returns the number of decimals used to get its user representation. For example, if `decimals` equals `2`, a balance of `505` tokens should be displayed to a user as `5,05` (`505 / 10 ** 2`).     * Tokens usually opt for a value of 18, imitating the relationship between Ether and Wei.     * NOTE: This information is only used for _display_ purposes: it in no way affects any of the arithmetic of the contract, including {IERC20-balanceOf} and {IERC20-transfer}."
      },
      "decreaseAllowance(address,uint256)": {
        "details": "Atomically decreases the allowance granted to `spender` by the caller.     * This is an alternative to {approve} that can be used as a mitigation for problems described in {IERC20-approve}.     * Emits an {Approval} event indicating the updated allowance.     * Requirements:     * - `spender` cannot be the zero address. - `spender` must have allowance for the caller of at least `subtractedValue`."
      },
      "getVaultActiveStrategy()": {
        "details": "Function to get the address of active strategy in the vault."
      },
      "getVaultNAV()": {
        "details": "Function to return the NAV of the Vault."
      },
      "getVaultNAVWithoutStrategyToken()": {
        "details": "Function to return the NAV of the Vault excluding Strategy Tokens."
      },
      "increaseAllowance(address,uint256)": {
        "details": "Atomically increases the allowance granted to `spender` by the caller.     * This is an alternative to {approve} that can be used as a mitigation for problems described in {IERC20-approve}.     * Emits an {Approval} event indicating the updated allowance.     * Requirements:     * - `spender` cannot be the zero address."
      },
      "name()": {
        "details": "Returns the name of the token."
      },
      "supportsInterface(bytes4)": {
        "details": "See {IERC165-supportsInterface}.     * Time complexity O(1), guaranteed to always use less than 30 000 gas."
      },
      "symbol()": {
        "details": "Returns the symbol of the token, usually a shorter version of the name."
      },
      "tokenValueInUSD()": {
        "details": "Function to return Value of the Vault Token."
      },
      "totalSupply()": {
        "details": "See {IERC20-totalSupply}."
      },
      "transfer(address,uint256)": {
        "details": "See {IERC20-transfer}.     * Requirements:     * - `recipient` cannot be the zero address. - the caller must have a balance of at least `amount`."
      },
      "transferFrom(address,address,uint256)": {
        "details": "See {IERC20-transferFrom}.     * Emits an {Approval} event indicating the updated allowance. This is not required by the EIP. See the note at the beginning of {ERC20};     * Requirements: - `sender` and `recipient` cannot be the zero address. - `sender` must have a balance of at least `amount`. - the caller must have allowance for `sender`'s tokens of at least `amount`."
      }
    }
  },
  "userdoc": {
    "methods": {}
  }
}