{
  "contractName": "Whitelist",
  "abi": [
    {
      "inputs": [],
      "payable": false,
      "stateMutability": "nonpayable",
      "type": "constructor"
    },
    {
      "anonymous": false,
      "inputs": [
        {
          "indexed": false,
          "internalType": "address",
          "name": "",
          "type": "address"
        },
        {
          "indexed": false,
          "internalType": "uint256",
          "name": "",
          "type": "uint256"
        }
      ],
      "name": "GroupCreated",
      "type": "event"
    },
    {
      "constant": true,
      "inputs": [],
      "name": "whiteListManager",
      "outputs": [
        {
          "internalType": "address",
          "name": "",
          "type": "address"
        }
      ],
      "payable": false,
      "stateMutability": "view",
      "type": "function"
    },
    {
      "constant": false,
      "inputs": [
        {
          "internalType": "address",
          "name": "_manager",
          "type": "address"
        }
      ],
      "name": "changeManager",
      "outputs": [],
      "payable": false,
      "stateMutability": "nonpayable",
      "type": "function"
    },
    {
      "constant": false,
      "inputs": [
        {
          "internalType": "address",
          "name": "_whitelistGroupAdmin",
          "type": "address"
        }
      ],
      "name": "createGroup",
      "outputs": [
        {
          "internalType": "uint256",
          "name": "",
          "type": "uint256"
        }
      ],
      "payable": false,
      "stateMutability": "nonpayable",
      "type": "function"
    },
    {
      "constant": false,
      "inputs": [
        {
          "internalType": "uint256",
          "name": "_groupId",
          "type": "uint256"
        }
      ],
      "name": "deleteGroup",
      "outputs": [],
      "payable": false,
      "stateMutability": "nonpayable",
      "type": "function"
    },
    {
      "constant": false,
      "inputs": [
        {
          "internalType": "uint256",
          "name": "_groupId",
          "type": "uint256"
        },
        {
          "internalType": "address[]",
          "name": "_memberAddress",
          "type": "address[]"
        }
      ],
      "name": "addMembersToGroup",
      "outputs": [],
      "payable": false,
      "stateMutability": "nonpayable",
      "type": "function"
    },
    {
      "constant": false,
      "inputs": [
        {
          "internalType": "uint256",
          "name": "_groupId",
          "type": "uint256"
        },
        {
          "internalType": "address[]",
          "name": "_memberAddress",
          "type": "address[]"
        }
      ],
      "name": "removeMembersFromGroup",
      "outputs": [],
      "payable": false,
      "stateMutability": "nonpayable",
      "type": "function"
    },
    {
      "constant": true,
      "inputs": [
        {
          "internalType": "uint256",
          "name": "_groupId",
          "type": "uint256"
        },
        {
          "internalType": "address",
          "name": "_memberAddress",
          "type": "address"
        }
      ],
      "name": "isMember",
      "outputs": [
        {
          "internalType": "bool",
          "name": "",
          "type": "bool"
        }
      ],
      "payable": false,
      "stateMutability": "view",
      "type": "function"
    },
    {
      "constant": true,
      "inputs": [
        {
          "internalType": "uint256",
          "name": "_groupId",
          "type": "uint256"
        }
      ],
      "name": "getWhitelistAdmin",
      "outputs": [
        {
          "internalType": "address",
          "name": "",
          "type": "address"
        }
      ],
      "payable": false,
      "stateMutability": "view",
      "type": "function"
    },
    {
      "constant": false,
      "inputs": [
        {
          "internalType": "uint256",
          "name": "_groupId",
          "type": "uint256"
        },
        {
          "internalType": "address",
          "name": "_whitelistGroupAdmin",
          "type": "address"
        }
      ],
      "name": "changeWhitelistAdmin",
      "outputs": [],
      "payable": false,
      "stateMutability": "nonpayable",
      "type": "function"
    }
  ],
  "bytecode": "0x608060405234801561001057600080fd5b50600180546001600160a01b03191633179055610abc806100326000396000f3fe608060405234801561001057600080fd5b50600436106100935760003560e01c80634a6241f2116100665780634a6241f214610124578063595d83d3146101ce5780635c3f3b60146102785780637d9e10f5146102b0578063a3fbbaae146102f057610093565b8063043e9c1d146100985780630a32fc6e146100d157806325a93264146100ff57806345d88d2d14610107575b600080fd5b6100b5600480360360208110156100ae57600080fd5b5035610316565b604080516001600160a01b039092168252519081900360200190f35b6100fd600480360360408110156100e757600080fd5b50803590602001356001600160a01b0316610388565b005b6100b5610462565b6100fd6004803603602081101561011d57600080fd5b5035610471565b6100fd6004803603604081101561013a57600080fd5b8135919081019060408101602082013564010000000081111561015c57600080fd5b82018360208201111561016e57600080fd5b8035906020019184602083028401116401000000008311171561019057600080fd5b919080806020026020016040519081016040528093929190818152602001838360200280828437600092019190915250929550610527945050505050565b6100fd600480360360408110156101e457600080fd5b8135919081019060408101602082013564010000000081111561020657600080fd5b82018360208201111561021857600080fd5b8035906020019184602083028401116401000000008311171561023a57600080fd5b919080806020026020016040519081016040528093929190818152602001838360200280828437600092019190915250929550610627945050505050565b61029e6004803603602081101561028e57600080fd5b50356001600160a01b0316610720565b60408051918252519081900360200190f35b6102dc600480360360408110156102c657600080fd5b50803590602001356001600160a01b0316610876565b604080519115158252519081900360200190f35b6100fd6004803603602081101561030657600080fd5b50356001600160a01b03166108f5565b600061032182610960565b610369576040805162461bcd60e51b815260206004820152601460248201527347726f757020646f65736e27742065786973742160601b604482015290519081900360640190fd5b506000908152600260205260409020600101546001600160a01b031690565b61039182610960565b6103d9576040805162461bcd60e51b815260206004820152601460248201527347726f757020646f65736e27742065786973742160601b604482015290519081900360640190fd5b6000828152600260205260409020600101546001600160a01b031633146104315760405162461bcd60e51b81526004018080602001828103825260388152602001806109b96038913960400191505060405180910390fd5b60009182526002602052604090912060010180546001600160a01b0319166001600160a01b03909216919091179055565b6001546001600160a01b031681565b61047a81610960565b6104c2576040805162461bcd60e51b815260206004820152601460248201527347726f757020646f65736e27742065786973742160601b604482015290519081900360640190fd5b6104cb8161097f565b6105065760405162461bcd60e51b815260040180806020018281038252603a815260200180610a4e603a913960400191505060405180910390fd5b600090815260026020526040902060010180546001600160a81b0319169055565b61053082610960565b610578576040805162461bcd60e51b815260206004820152601460248201527347726f757020646f65736e27742065786973742160601b604482015290519081900360640190fd5b6105818261097f565b6105bc5760405162461bcd60e51b815260040180806020018281038252602f815260200180610a1f602f913960400191505060405180910390fd5b60005b81518110156106225760008381526002602052604081208351600192908590859081106105e857fe5b6020908102919091018101516001600160a01b03168252810191909152604001600020805460ff19169115159190911790556001016105bf565b505050565b61063082610960565b610678576040805162461bcd60e51b815260206004820152601460248201527347726f757020646f65736e27742065786973742160601b604482015290519081900360640190fd5b6106818261097f565b6106bc5760405162461bcd60e51b815260040180806020018281038252603a815260200180610a4e603a913960400191505060405180910390fd5b60005b8151811015610622576000838152600260205260408120835182908590859081106106e657fe5b6020908102919091018101516001600160a01b03168252810191909152604001600020805460ff19169115159190911790556001016106bf565b60008054600190810180835582526002602052604082200154600160a01b900460ff161561078c576040805162461bcd60e51b815260206004820152601460248201527347726f757020616c72656164792065786973747360601b604482015290519081900360640190fd5b6107946109a1565b506040805180820182526001600160a01b038481168083526001602080850182815260008054815260028084528882208851908601805494516001600160a01b0319909516919098161760ff60a01b1916600160a01b931515939093029290921790955584548552868520938552928152858420805460ff199081168417909155845485529281528584203380865290825286852080549094169092179092559154845192835290820152825191927f3482e3d6d38a18835a6ad59afad8098300ce9f907925e4be71126d7b43dc803d92918290030190a15050600054919050565b600061088183610960565b6108c9576040805162461bcd60e51b815260206004820152601460248201527347726f757020646f65736e27742065786973742160601b604482015290519081900360640190fd5b5060009182526002602090815260408084206001600160a01b0393909316845291905290205460ff1690565b6001546001600160a01b0316331461093e5760405162461bcd60e51b815260040180806020018281038252602e8152602001806109f1602e913960400191505060405180910390fd5b600180546001600160a01b0319166001600160a01b0392909216919091179055565b600090815260026020526040902060010154600160a01b900460ff1690565b6000818152600260205260409020600101546001600160a01b03163314919050565b60408051808201909152600080825260208201529056fe4f6e6c79206578697374696e672077686974656c6973742061646d696e2063616e20706572666f726d2074686973206f7065726174696f6e4f6e6c792057686974656c697374206d616e616765722063616e2063616c6c20746869732066756e6374696f6e2e4f6e6c7920676f75702061646d696e206973207065726d697474656420666f722074686973206f7065726174696f6e4f6e6c792057686974656c6973742047726f75702061646d696e206973207065726d697474656420666f722074686973206f7065726174696f6ea265627a7a723158201dc70a0d91e53da55419b9dafa50c9790907688a655b7dba8089280723eef78364736f6c63430005110032",
  "source": "// SPDX-License-Identifier: MIT\npragma solidity >=0.5.0 <0.7.0;\n\ncontract Whitelist {\n    uint256 groupId;\n    address public whiteListManager;\n    struct WhitelistGroup {\n        mapping(address => bool) members;\n        address whitelistGroupAdmin;\n        bool created;\n    }\n    mapping(uint256 => WhitelistGroup) private whitelistGroups;\n    event GroupCreated(address, uint256);\n\n    constructor() public {\n        whiteListManager = msg.sender;\n    }\n\n    modifier onlyWhitelistManager {\n        require(\n            msg.sender == whiteListManager,\n            \"Only Whitelist manager can call this function.\"\n        );\n        _;\n    }\n\n    /// @dev Function to change the whitelist manager of Yieldster.\n    /// @param _manager Address of the new manager.\n    function changeManager(address _manager) public onlyWhitelistManager {\n        whiteListManager = _manager;\n    }\n\n    /// @dev Function that returns if a whitelist group is exist.\n    /// @param _groupId Group Id of the whitelist group.\n    function _isGroup(uint256 _groupId) private view returns (bool) {\n        return whitelistGroups[_groupId].created;\n    }\n\n    /// @dev Function that returns if the msg.sender is the whitelist group admin.\n    /// @param _groupId Group Id of the whitelist group.\n    function _isGroupAdmin(uint256 _groupId) private view returns (bool) {\n        return whitelistGroups[_groupId].whitelistGroupAdmin == msg.sender;\n    }\n\n    /// @dev Function to create a new whitelist group.\n    /// @param _whitelistGroupAdmin Address of the whitelist group admin.\n    function createGroup(address _whitelistGroupAdmin)\n        public\n        returns (uint256)\n    {\n        groupId += 1;\n        require(!whitelistGroups[groupId].created, \"Group already exists\");\n        WhitelistGroup memory newGroup = WhitelistGroup({\n            whitelistGroupAdmin: _whitelistGroupAdmin,\n            created: true\n        });\n        whitelistGroups[groupId] = newGroup;\n        whitelistGroups[groupId].members[_whitelistGroupAdmin] = true;\n        whitelistGroups[groupId].members[msg.sender] = true;\n        emit GroupCreated(msg.sender, groupId);\n        return groupId;\n    }\n\n    /// @dev Function to delete a whitelist group.\n    /// @param _groupId Group Id of the whitelist group.\n    function deleteGroup(uint256 _groupId) public {\n        require(_isGroup(_groupId), \"Group doesn't exist!\");\n        require(\n            _isGroupAdmin(_groupId),\n            \"Only Whitelist Group admin is permitted for this operation\"\n        );\n        delete whitelistGroups[_groupId];\n    }\n\n    /// @dev Function to add members to a whitelist group.\n    /// @param _groupId Group Id of the whitelist group.\n    /// @param _memberAddress List of address to be added to the whitelist group.\n    function addMembersToGroup(\n        uint256 _groupId,\n        address[] memory _memberAddress\n    ) public {\n        require(_isGroup(_groupId), \"Group doesn't exist!\");\n        require(\n            _isGroupAdmin(_groupId),\n            \"Only goup admin is permitted for this operation\"\n        );\n\n        for (uint256 i = 0; i < _memberAddress.length; i++) {\n            whitelistGroups[_groupId].members[_memberAddress[i]] = true;\n        }\n    }\n\n    /// @dev Function to remove members from a whitelist group.\n    /// @param _groupId Group Id of the whitelist group.\n    /// @param _memberAddress List of address to be removed from the whitelist group.\n    function removeMembersFromGroup(\n        uint256 _groupId,\n        address[] memory _memberAddress\n    ) public {\n        require(_isGroup(_groupId), \"Group doesn't exist!\");\n        require(\n            _isGroupAdmin(_groupId),\n            \"Only Whitelist Group admin is permitted for this operation\"\n        );\n\n        for (uint256 i = 0; i < _memberAddress.length; i++) {\n            whitelistGroups[_groupId].members[_memberAddress[i]] = false;\n        }\n    }\n\n    /// @dev Function to check if an address is a whitelisted address.\n    /// @param _groupId Group Id of the whitelist group.\n    /// @param _memberAddress Address to check.\n    function isMember(uint256 _groupId, address _memberAddress)\n        public\n        view\n        returns (bool)\n    {\n        require(_isGroup(_groupId), \"Group doesn't exist!\");\n        return whitelistGroups[_groupId].members[_memberAddress];\n    }\n\n    /// @dev Function that returns the address of the whitelist group admin.\n    /// @param _groupId Group Id of the whitelist group.\n    function getWhitelistAdmin(uint256 _groupId) public view returns (address) {\n        require(_isGroup(_groupId), \"Group doesn't exist!\");\n        return whitelistGroups[_groupId].whitelistGroupAdmin;\n    }\n\n    /// @dev Function to change the whitelist admin of a group.\n    /// @param _groupId Group Id of the whitelist group.\n    /// @param _whitelistGroupAdmin Address of the new whitelist admin.\n    function changeWhitelistAdmin(\n        uint256 _groupId,\n        address _whitelistGroupAdmin\n    ) public {\n        require(_isGroup(_groupId), \"Group doesn't exist!\");\n        require(\n            whitelistGroups[_groupId].whitelistGroupAdmin == msg.sender,\n            \"Only existing whitelist admin can perform this operation\"\n        );\n        whitelistGroups[_groupId].whitelistGroupAdmin = _whitelistGroupAdmin;\n    }\n}\n",
  "sourcePath": "/home/dxuser/Documents/scode/yieldster-vault/contracts/whitelist/Whitelist.sol",
  "compiler": {
    "name": "solc",
    "version": "0.5.17+commit.d19bba13.Emscripten.clang"
  },
  "schemaVersion": "3.4.4",
  "updatedAt": "2022-02-01T11:12:09.433Z",
  "devdoc": {
    "methods": {
      "addMembersToGroup(uint256,address[])": {
        "details": "Function to add members to a whitelist group.",
        "params": {
          "_groupId": "Group Id of the whitelist group.",
          "_memberAddress": "List of address to be added to the whitelist group."
        }
      },
      "changeManager(address)": {
        "details": "Function to change the whitelist manager of Yieldster.",
        "params": {
          "_manager": "Address of the new manager."
        }
      },
      "changeWhitelistAdmin(uint256,address)": {
        "details": "Function to change the whitelist admin of a group.",
        "params": {
          "_groupId": "Group Id of the whitelist group.",
          "_whitelistGroupAdmin": "Address of the new whitelist admin."
        }
      },
      "createGroup(address)": {
        "details": "Function to create a new whitelist group.",
        "params": {
          "_whitelistGroupAdmin": "Address of the whitelist group admin."
        }
      },
      "deleteGroup(uint256)": {
        "details": "Function to delete a whitelist group.",
        "params": {
          "_groupId": "Group Id of the whitelist group."
        }
      },
      "getWhitelistAdmin(uint256)": {
        "details": "Function that returns the address of the whitelist group admin.",
        "params": {
          "_groupId": "Group Id of the whitelist group."
        }
      },
      "isMember(uint256,address)": {
        "details": "Function to check if an address is a whitelisted address.",
        "params": {
          "_groupId": "Group Id of the whitelist group.",
          "_memberAddress": "Address to check."
        }
      },
      "removeMembersFromGroup(uint256,address[])": {
        "details": "Function to remove members from a whitelist group.",
        "params": {
          "_groupId": "Group Id of the whitelist group.",
          "_memberAddress": "List of address to be removed from the whitelist group."
        }
      }
    }
  },
  "userdoc": {
    "methods": {}
  }
}