{
  "contractName": "YieldsterVault",
  "abi": [
    {
      "anonymous": false,
      "inputs": [
        {
          "indexed": true,
          "internalType": "address",
          "name": "owner",
          "type": "address"
        },
        {
          "indexed": true,
          "internalType": "address",
          "name": "spender",
          "type": "address"
        },
        {
          "indexed": false,
          "internalType": "uint256",
          "name": "value",
          "type": "uint256"
        }
      ],
      "name": "Approval",
      "type": "event"
    },
    {
      "anonymous": false,
      "inputs": [
        {
          "indexed": false,
          "internalType": "address",
          "name": "masterCopy",
          "type": "address"
        }
      ],
      "name": "ChangedMasterCopy",
      "type": "event"
    },
    {
      "anonymous": false,
      "inputs": [
        {
          "indexed": true,
          "internalType": "address",
          "name": "from",
          "type": "address"
        },
        {
          "indexed": true,
          "internalType": "address",
          "name": "to",
          "type": "address"
        },
        {
          "indexed": false,
          "internalType": "uint256",
          "name": "value",
          "type": "uint256"
        }
      ],
      "name": "Transfer",
      "type": "event"
    },
    {
      "constant": true,
      "inputs": [],
      "name": "APContract",
      "outputs": [
        {
          "internalType": "address",
          "name": "",
          "type": "address"
        }
      ],
      "payable": false,
      "stateMutability": "view",
      "type": "function"
    },
    {
      "constant": true,
      "inputs": [
        {
          "internalType": "address",
          "name": "owner",
          "type": "address"
        },
        {
          "internalType": "address",
          "name": "spender",
          "type": "address"
        }
      ],
      "name": "allowance",
      "outputs": [
        {
          "internalType": "uint256",
          "name": "",
          "type": "uint256"
        }
      ],
      "payable": false,
      "stateMutability": "view",
      "type": "function"
    },
    {
      "constant": false,
      "inputs": [
        {
          "internalType": "address",
          "name": "spender",
          "type": "address"
        },
        {
          "internalType": "uint256",
          "name": "amount",
          "type": "uint256"
        }
      ],
      "name": "approve",
      "outputs": [
        {
          "internalType": "bool",
          "name": "",
          "type": "bool"
        }
      ],
      "payable": false,
      "stateMutability": "nonpayable",
      "type": "function"
    },
    {
      "constant": true,
      "inputs": [
        {
          "internalType": "address",
          "name": "account",
          "type": "address"
        }
      ],
      "name": "balanceOf",
      "outputs": [
        {
          "internalType": "uint256",
          "name": "",
          "type": "uint256"
        }
      ],
      "payable": false,
      "stateMutability": "view",
      "type": "function"
    },
    {
      "constant": false,
      "inputs": [
        {
          "internalType": "address",
          "name": "_masterCopy",
          "type": "address"
        }
      ],
      "name": "changeMasterCopy",
      "outputs": [],
      "payable": false,
      "stateMutability": "nonpayable",
      "type": "function"
    },
    {
      "constant": true,
      "inputs": [],
      "name": "decimals",
      "outputs": [
        {
          "internalType": "uint8",
          "name": "",
          "type": "uint8"
        }
      ],
      "payable": false,
      "stateMutability": "view",
      "type": "function"
    },
    {
      "constant": false,
      "inputs": [
        {
          "internalType": "address",
          "name": "spender",
          "type": "address"
        },
        {
          "internalType": "uint256",
          "name": "subtractedValue",
          "type": "uint256"
        }
      ],
      "name": "decreaseAllowance",
      "outputs": [
        {
          "internalType": "bool",
          "name": "",
          "type": "bool"
        }
      ],
      "payable": false,
      "stateMutability": "nonpayable",
      "type": "function"
    },
    {
      "constant": true,
      "inputs": [],
      "name": "emergencyConditions",
      "outputs": [
        {
          "internalType": "uint8",
          "name": "",
          "type": "uint8"
        }
      ],
      "payable": false,
      "stateMutability": "view",
      "type": "function"
    },
    {
      "constant": true,
      "inputs": [
        {
          "internalType": "address",
          "name": "_tokenAddress",
          "type": "address"
        }
      ],
      "name": "getTokenBalance",
      "outputs": [
        {
          "internalType": "uint256",
          "name": "",
          "type": "uint256"
        }
      ],
      "payable": false,
      "stateMutability": "view",
      "type": "function"
    },
    {
      "constant": true,
      "inputs": [],
      "name": "getVaultActiveStrategy",
      "outputs": [
        {
          "internalType": "address[]",
          "name": "",
          "type": "address[]"
        }
      ],
      "payable": false,
      "stateMutability": "view",
      "type": "function"
    },
    {
      "constant": true,
      "inputs": [],
      "name": "getVaultNAV",
      "outputs": [
        {
          "internalType": "uint256",
          "name": "",
          "type": "uint256"
        }
      ],
      "payable": false,
      "stateMutability": "view",
      "type": "function"
    },
    {
      "constant": true,
      "inputs": [],
      "name": "getVaultNAVWithoutStrategyToken",
      "outputs": [
        {
          "internalType": "uint256",
          "name": "",
          "type": "uint256"
        }
      ],
      "payable": false,
      "stateMutability": "view",
      "type": "function"
    },
    {
      "constant": false,
      "inputs": [
        {
          "internalType": "address",
          "name": "spender",
          "type": "address"
        },
        {
          "internalType": "uint256",
          "name": "addedValue",
          "type": "uint256"
        }
      ],
      "name": "increaseAllowance",
      "outputs": [
        {
          "internalType": "bool",
          "name": "",
          "type": "bool"
        }
      ],
      "payable": false,
      "stateMutability": "nonpayable",
      "type": "function"
    },
    {
      "constant": true,
      "inputs": [],
      "name": "name",
      "outputs": [
        {
          "internalType": "string",
          "name": "",
          "type": "string"
        }
      ],
      "payable": false,
      "stateMutability": "view",
      "type": "function"
    },
    {
      "constant": false,
      "inputs": [
        {
          "internalType": "address",
          "name": "operator",
          "type": "address"
        },
        {
          "internalType": "address",
          "name": "from",
          "type": "address"
        },
        {
          "internalType": "uint256[]",
          "name": "ids",
          "type": "uint256[]"
        },
        {
          "internalType": "uint256[]",
          "name": "values",
          "type": "uint256[]"
        },
        {
          "internalType": "bytes",
          "name": "data",
          "type": "bytes"
        }
      ],
      "name": "onERC1155BatchReceived",
      "outputs": [
        {
          "internalType": "bytes4",
          "name": "",
          "type": "bytes4"
        }
      ],
      "payable": false,
      "stateMutability": "nonpayable",
      "type": "function"
    },
    {
      "constant": true,
      "inputs": [],
      "name": "owner",
      "outputs": [
        {
          "internalType": "address",
          "name": "",
          "type": "address"
        }
      ],
      "payable": false,
      "stateMutability": "view",
      "type": "function"
    },
    {
      "constant": true,
      "inputs": [
        {
          "internalType": "bytes4",
          "name": "interfaceId",
          "type": "bytes4"
        }
      ],
      "name": "supportsInterface",
      "outputs": [
        {
          "internalType": "bool",
          "name": "",
          "type": "bool"
        }
      ],
      "payable": false,
      "stateMutability": "view",
      "type": "function"
    },
    {
      "constant": true,
      "inputs": [],
      "name": "symbol",
      "outputs": [
        {
          "internalType": "string",
          "name": "",
          "type": "string"
        }
      ],
      "payable": false,
      "stateMutability": "view",
      "type": "function"
    },
    {
      "constant": true,
      "inputs": [],
      "name": "tokenValueInUSD",
      "outputs": [
        {
          "internalType": "uint256",
          "name": "",
          "type": "uint256"
        }
      ],
      "payable": false,
      "stateMutability": "view",
      "type": "function"
    },
    {
      "constant": true,
      "inputs": [],
      "name": "totalSupply",
      "outputs": [
        {
          "internalType": "uint256",
          "name": "",
          "type": "uint256"
        }
      ],
      "payable": false,
      "stateMutability": "view",
      "type": "function"
    },
    {
      "constant": false,
      "inputs": [
        {
          "internalType": "address",
          "name": "recipient",
          "type": "address"
        },
        {
          "internalType": "uint256",
          "name": "amount",
          "type": "uint256"
        }
      ],
      "name": "transfer",
      "outputs": [
        {
          "internalType": "bool",
          "name": "",
          "type": "bool"
        }
      ],
      "payable": false,
      "stateMutability": "nonpayable",
      "type": "function"
    },
    {
      "constant": false,
      "inputs": [
        {
          "internalType": "address",
          "name": "sender",
          "type": "address"
        },
        {
          "internalType": "address",
          "name": "recipient",
          "type": "address"
        },
        {
          "internalType": "uint256",
          "name": "amount",
          "type": "uint256"
        }
      ],
      "name": "transferFrom",
      "outputs": [
        {
          "internalType": "bool",
          "name": "",
          "type": "bool"
        }
      ],
      "payable": false,
      "stateMutability": "nonpayable",
      "type": "function"
    },
    {
      "constant": true,
      "inputs": [],
      "name": "vaultAPSManager",
      "outputs": [
        {
          "internalType": "address",
          "name": "",
          "type": "address"
        }
      ],
      "payable": false,
      "stateMutability": "view",
      "type": "function"
    },
    {
      "constant": true,
      "inputs": [],
      "name": "vaultStrategyManager",
      "outputs": [
        {
          "internalType": "address",
          "name": "",
          "type": "address"
        }
      ],
      "payable": false,
      "stateMutability": "view",
      "type": "function"
    },
    {
      "constant": false,
      "inputs": [
        {
          "internalType": "address",
          "name": "_mastercopy",
          "type": "address"
        }
      ],
      "name": "upgradeMasterCopy",
      "outputs": [],
      "payable": false,
      "stateMutability": "nonpayable",
      "type": "function"
    },
    {
      "constant": false,
      "inputs": [
        {
          "internalType": "address",
          "name": "_APContract",
          "type": "address"
        }
      ],
      "name": "setAPS",
      "outputs": [],
      "payable": false,
      "stateMutability": "nonpayable",
      "type": "function"
    },
    {
      "constant": false,
      "inputs": [],
      "name": "toggleEmergencyBreak",
      "outputs": [],
      "payable": false,
      "stateMutability": "nonpayable",
      "type": "function"
    },
    {
      "constant": false,
      "inputs": [],
      "name": "enableEmergencyExit",
      "outputs": [],
      "payable": false,
      "stateMutability": "nonpayable",
      "type": "function"
    },
    {
      "constant": false,
      "inputs": [
        {
          "internalType": "string",
          "name": "_tokenName",
          "type": "string"
        },
        {
          "internalType": "string",
          "name": "_symbol",
          "type": "string"
        },
        {
          "internalType": "address",
          "name": "_vaultAPSManager",
          "type": "address"
        },
        {
          "internalType": "address",
          "name": "_APContract",
          "type": "address"
        },
        {
          "internalType": "address",
          "name": "_owner",
          "type": "address"
        },
        {
          "internalType": "uint256[]",
          "name": "_whiteListGroups",
          "type": "uint256[]"
        }
      ],
      "name": "setup",
      "outputs": [],
      "payable": false,
      "stateMutability": "nonpayable",
      "type": "function"
    },
    {
      "constant": false,
      "inputs": [],
      "name": "registerVaultWithAPS",
      "outputs": [],
      "payable": false,
      "stateMutability": "nonpayable",
      "type": "function"
    },
    {
      "constant": false,
      "inputs": [
        {
          "internalType": "uint256",
          "name": "_slippage",
          "type": "uint256"
        }
      ],
      "name": "setVaultSlippage",
      "outputs": [],
      "payable": false,
      "stateMutability": "nonpayable",
      "type": "function"
    },
    {
      "constant": false,
      "inputs": [
        {
          "internalType": "address[]",
          "name": "_enabledDepositAsset",
          "type": "address[]"
        },
        {
          "internalType": "address[]",
          "name": "_enabledWithdrawalAsset",
          "type": "address[]"
        },
        {
          "internalType": "address[]",
          "name": "_disabledDepositAsset",
          "type": "address[]"
        },
        {
          "internalType": "address[]",
          "name": "_disabledWithdrawalAsset",
          "type": "address[]"
        }
      ],
      "name": "setVaultAssets",
      "outputs": [],
      "payable": false,
      "stateMutability": "nonpayable",
      "type": "function"
    },
    {
      "constant": false,
      "inputs": [
        {
          "internalType": "address",
          "name": "_vaultStrategy",
          "type": "address"
        },
        {
          "internalType": "address[]",
          "name": "_enabledStrategyProtocols",
          "type": "address[]"
        },
        {
          "internalType": "address[]",
          "name": "_disabledStrategyProtocols",
          "type": "address[]"
        },
        {
          "internalType": "address[]",
          "name": "_assetsToBeEnabled",
          "type": "address[]"
        }
      ],
      "name": "setVaultStrategyAndProtocol",
      "outputs": [],
      "payable": false,
      "stateMutability": "nonpayable",
      "type": "function"
    },
    {
      "constant": false,
      "inputs": [
        {
          "internalType": "address",
          "name": "_strategyAddress",
          "type": "address"
        },
        {
          "internalType": "address[]",
          "name": "_assetsToBeDisabled",
          "type": "address[]"
        }
      ],
      "name": "disableVaultStrategy",
      "outputs": [],
      "payable": false,
      "stateMutability": "nonpayable",
      "type": "function"
    },
    {
      "constant": false,
      "inputs": [
        {
          "internalType": "address",
          "name": "_activeVaultStrategy",
          "type": "address"
        }
      ],
      "name": "setVaultActiveStrategy",
      "outputs": [],
      "payable": false,
      "stateMutability": "nonpayable",
      "type": "function"
    },
    {
      "constant": false,
      "inputs": [
        {
          "internalType": "address",
          "name": "_strategyAddress",
          "type": "address"
        }
      ],
      "name": "deactivateVaultStrategy",
      "outputs": [],
      "payable": false,
      "stateMutability": "nonpayable",
      "type": "function"
    },
    {
      "constant": false,
      "inputs": [
        {
          "internalType": "address",
          "name": "_smartStrategyAddress",
          "type": "address"
        },
        {
          "internalType": "uint256",
          "name": "_type",
          "type": "uint256"
        }
      ],
      "name": "setVaultSmartStrategy",
      "outputs": [],
      "payable": false,
      "stateMutability": "nonpayable",
      "type": "function"
    },
    {
      "constant": false,
      "inputs": [
        {
          "internalType": "address",
          "name": "_vaultAPSManager",
          "type": "address"
        }
      ],
      "name": "changeAPSManager",
      "outputs": [],
      "payable": false,
      "stateMutability": "nonpayable",
      "type": "function"
    },
    {
      "constant": false,
      "inputs": [
        {
          "internalType": "address",
          "name": "_strategyManager",
          "type": "address"
        }
      ],
      "name": "changeStrategyManager",
      "outputs": [],
      "payable": false,
      "stateMutability": "nonpayable",
      "type": "function"
    },
    {
      "constant": false,
      "inputs": [
        {
          "internalType": "address",
          "name": "_tokenAddress",
          "type": "address"
        },
        {
          "internalType": "uint256",
          "name": "_amount",
          "type": "uint256"
        }
      ],
      "name": "deposit",
      "outputs": [],
      "payable": false,
      "stateMutability": "nonpayable",
      "type": "function"
    },
    {
      "constant": false,
      "inputs": [
        {
          "internalType": "address",
          "name": "_tokenAddress",
          "type": "address"
        },
        {
          "internalType": "uint256",
          "name": "_shares",
          "type": "uint256"
        }
      ],
      "name": "withdraw",
      "outputs": [],
      "payable": false,
      "stateMutability": "nonpayable",
      "type": "function"
    },
    {
      "constant": false,
      "inputs": [
        {
          "internalType": "address[]",
          "name": "_assets",
          "type": "address[]"
        },
        {
          "internalType": "uint256[]",
          "name": "_amount",
          "type": "uint256[]"
        },
        {
          "internalType": "bytes",
          "name": "data",
          "type": "bytes"
        }
      ],
      "name": "earn",
      "outputs": [],
      "payable": false,
      "stateMutability": "nonpayable",
      "type": "function"
    },
    {
      "constant": false,
      "inputs": [
        {
          "internalType": "address",
          "name": "",
          "type": "address"
        },
        {
          "internalType": "address",
          "name": "",
          "type": "address"
        },
        {
          "internalType": "uint256",
          "name": "id",
          "type": "uint256"
        },
        {
          "internalType": "uint256",
          "name": "",
          "type": "uint256"
        },
        {
          "internalType": "bytes",
          "name": "data",
          "type": "bytes"
        }
      ],
      "name": "onERC1155Received",
      "outputs": [
        {
          "internalType": "bytes4",
          "name": "",
          "type": "bytes4"
        }
      ],
      "payable": false,
      "stateMutability": "nonpayable",
      "type": "function"
    }
  ],
  "bytecode": "0x6080604052620000387f01ffc9a7000000000000000000000000000000000000000000000000000000006001600160e01b036200007216565b6200006c7f4e2312e0000000000000000000000000000000000000000000000000000000006001600160e01b036200007216565b62000173565b7fffffffff000000000000000000000000000000000000000000000000000000008082161415620000da576040517f08c379a0000000000000000000000000000000000000000000000000000000008152600401620000d19062000152565b60405180910390fd5b7fffffffff00000000000000000000000000000000000000000000000000000000166000908152600760205260409020805460ff19166001179055565b600062000126601c836200016a565b7f4552433136353a20696e76616c696420696e7465726661636520696400000000815260200192915050565b60208082528101620001648162000117565b92915050565b90815260200190565b61582480620001836000396000f3fe608060405234801561001057600080fd5b50600436106102695760003560e01c806370a0823111610151578063b28aaf7d116100c3578063e4e75e3d11610087578063e4e75e3d146104f9578063e6b8b5c614610501578063e8ced68c14610514578063e9bf666d1461051c578063f23a6e611461052f578063f3fef3a31461054257610269565b8063b28aaf7d14610498578063bc197c81146104a0578063cd707675146104c0578063dd62ed3e146104d3578063de033715146104e657610269565b806395d89b411161011557806395d89b411461042f578063a352c32b14610437578063a457c2d71461044a578063a9059cbb1461045d578063ac221b5c14610470578063b1d3ce211461048557610269565b806370a08231146103db5780637de7edef146103ee57806385a345cf146104015780638da5cb5b1461041457806394520bbd1461041c57610269565b8063313ce567116101ea5780633f514315116101ae5780633f5143151461037f57806347e7ef241461038757806351eaa9b41461039a57806353f9e8ff146103ad5780635948cb9e146103c05780635969326b146103d357610269565b8063313ce567146103415780633384602714610349578063357a8c591461035157806339509351146103595780633aecd0e31461036c57610269565b806318160ddd1161023157806318160ddd146102e957806323b872dd146102fe5780632b27ef66146103115780632bf2ebe5146103265780632c9a41051461033957610269565b806301ffc9a71461026e57806306fdde0314610297578063095ea7b3146102ac5780630c6a957f146102bf578063155a7b70146102d4575b600080fd5b61028161027c366004614531565b610555565b60405161028e9190615178565b60405180910390f35b61029f610574565b60405161028e9190615194565b6102816102ba36600461432d565b61060b565b6102c7610629565b60405161028e919061536e565b6102e76102e236600461400b565b610632565b005b6102f1610786565b60405161028e9190615345565b61028161030c366004614148565b61078c565b61031961081a565b60405161028e9190614fbf565b6102e761033436600461400b565b610829565b6102f161085d565b6102c7610d7f565b610319610d88565b6102e7610d9e565b61028161036736600461432d565b610e82565b6102f161037a36600461400b565b610ed6565b610319610f57565b6102e761039536600461432d565b610f66565b6102e76103a8366004614419565b61114d565b6102e76103bb366004614628565b611448565b6102e76103ce36600461432d565b61148e565b6102f1611504565b6102f16103e936600461400b565b61155e565b6102e76103fc36600461400b565b611579565b6102e761040f36600461400b565b611614565b6103196117e2565b6102e761042a366004614224565b6117f1565b61029f611ad6565b6102e761044536600461454f565b611b37565b61028161045836600461432d565b611c9b565b61028161046b36600461432d565b611d09565b610478611d1d565b60405161028e9190615167565b6102e761049336600461400b565b611dae565b6102f1611ec4565b6104b36104ae366004614081565b6120b5565b60405161028e9190615186565b6102e76104ce366004614279565b6120c3565b6102f16104e1366004614047565b612115565b6102e76104f436600461400b565b612140565b6102e76121ed565b6102e761050f36600461435d565b61222c565b6102e76122de565b6102e761052a36600461400b565b612686565b6104b361053d366004614195565b612739565b6102e761055036600461432d565b612f12565b6001600160e01b03191660009081526007602052604090205460ff1690565b60048054604080516020601f60026000196101006001881615020190951694909404938401819004810282018101909252828152606093909290918301828280156106005780601f106105d557610100808354040283529160200191610600565b820191906000526020600020905b8154815290600101906020018083116105e357829003601f168201915b505050505090505b90565b600061061f6106186130cf565b84846130d3565b5060015b92915050565b60085460ff1681565b61063a613187565b6008546040805163030bbb2160e11b815290513392630100000090046001600160a01b0316916306177642916004808301926020929190829003018186803b15801561068557600080fd5b505afa158015610699573d6000803e3d6000fd5b505050506040513d601f19601f820116820180604052506106bd9190810190614029565b6001600160a01b031614806106dc5750600b546001600160a01b031633145b6107015760405162461bcd60e51b81526004016106f890615255565b60405180910390fd5b600b80546001600160a01b0319166001600160a01b038381169190911790915560085460405163104c3e2d60e31b8152630100000090910490911690638261f16890610751908490600401614fbf565b600060405180830381600087803b15801561076b57600080fd5b505af115801561077f573d6000803e3d6000fd5b5050505050565b60035490565b60006107998484846131c8565b61080f846107a56130cf565b61080a85604051806060016040528060288152602001615795602891396001600160a01b038a166000908152600260205260408120906107e36130cf565b6001600160a01b03168152602081019190915260400160002054919063ffffffff6132de16565b6130d3565b5060015b9392505050565b600b546001600160a01b031681565b61083161330a565b600880546001600160a01b039092166301000000026301000000600160b81b0319909216919091179055565b60006060610869611d1d565b90506000805b600d54811015610bc257600f54600d80546000926001600160a01b031691633aecd0e3918590811061089d57fe5b6000918252602090912001546040516001600160e01b031960e084901b1681526108d3916001600160a01b031690600401614fbf565b60206040518083038186803b1580156108eb57600080fd5b505afa1580156108ff573d6000803e3d6000fd5b505050506040513d601f19601f820116820180604052506109239190810190614646565b1115610bba57600854600d8054600092630100000090046001600160a01b031691638b2f0f4f918590811061095457fe5b6000918252602090912001546040516001600160e01b031960e084901b16815261098a916001600160a01b031690600401614fbf565b60206040518083038186803b1580156109a257600080fd5b505afa1580156109b6573d6000803e3d6000fd5b505050506040513d601f19601f820116820180604052506109da9190810190614646565b9050610bb481600860039054906101000a90046001600160a01b03166001600160a01b0316635a72fee86040518163ffffffff1660e01b815260040160206040518083038186803b158015610a2e57600080fd5b505afa158015610a42573d6000803e3d6000fd5b505050506040513d601f19601f82011682018060405250610a669190810190614029565b6001600160a01b031663b2809e18600d8681548110610a8157fe5b600091825260209091200154600f54600d80546001600160a01b039384169390921691633aecd0e391908a908110610ab557fe5b6000918252602090912001546040516001600160e01b031960e084901b168152610aeb916001600160a01b031690600401614fbf565b60206040518083038186803b158015610b0357600080fd5b505afa158015610b17573d6000803e3d6000fd5b505050506040513d601f19601f82011682018060405250610b3b9190810190614646565b6040518363ffffffff1660e01b8152600401610b589291906150a5565b60206040518083038186803b158015610b7057600080fd5b505afa158015610b84573d6000803e3d6000fd5b505050506040513d601f19601f82011682018060405250610ba89190810190614646565b9063ffffffff6133c016565b83019250505b60010161086f565b508151610bea57610be181670de0b6b3a764000063ffffffff6133fa16565b92505050610608565b60005b8251811015610d66576000838281518110610c0457fe5b60200260200101516001600160a01b03166370a08231306040518263ffffffff1660e01b8152600401610c379190614fbf565b60206040518083038186803b158015610c4f57600080fd5b505afa158015610c63573d6000803e3d6000fd5b505050506040513d601f19601f82011682018060405250610c879190810190614646565b1115610d5e576000838281518110610c9b57fe5b60200260200101516001600160a01b0316635969326b6040518163ffffffff1660e01b815260040160206040518083038186803b158015610cdb57600080fd5b505afa158015610cef573d6000803e3d6000fd5b505050506040513d601f19601f82011682018060405250610d139190810190614646565b9050610d5881858481518110610d2557fe5b60200260200101516001600160a01b03166370a08231306040518263ffffffff1660e01b8152600401610b589190614fbf565b83019250505b600101610bed565b50610be181670de0b6b3a764000063ffffffff6133fa16565b60065460ff1690565b600854630100000090046001600160a01b031681565b610da6613187565b6009546001600160a01b03163314610dd05760405162461bcd60e51b81526004016106f890615255565b60085462010000900460ff1615610df95760405162461bcd60e51b81526004016106f890615275565b6008805462ff00001916620100001790819055600a54600b54604051631bea35cd60e01b81526001600160a01b036301000000909404841693631bea35cd93610e4e9390821692911690600c90600401614ff6565b600060405180830381600087803b158015610e6857600080fd5b505af1158015610e7c573d6000803e3d6000fd5b50505050565b600061061f610e8f6130cf565b8461080a8560026000610ea06130cf565b6001600160a01b03908116825260208083019390935260409182016000908120918c16815292529020549063ffffffff61343c16565b600f54604051633aecd0e360e01b81526000916001600160a01b031690633aecd0e390610f07908590600401614fbf565b60206040518083038186803b158015610f1f57600080fd5b505afa158015610f33573d6000803e3d6000fd5b505050506040513d601f19601f820116820180604052506106239190810190614646565b600a546001600160a01b031681565b610f6e613187565b610f76613461565b60085460405163bdbef07d60e01b815263010000009091046001600160a01b03169063bdbef07d90610fac908590600401614fbf565b60206040518083038186803b158015610fc457600080fd5b505afa158015610fd8573d6000803e3d6000fd5b505050506040513d601f19601f82011682018060405250610ffc91908101906144d0565b6110185760405162461bcd60e51b81526004016106f8906151a5565b6110206135c0565b6000600860039054906101000a90046001600160a01b03166001600160a01b03166313ae2e116040518163ffffffff1660e01b8152600401602060405180830381600087803b15801561107257600080fd5b505af1158015611086573d6000803e3d6000fd5b505050506040513d601f19601f820116820180604052506110aa9190810190614029565b6001600160a01b031683836040516024016110c69291906150a5565b60408051601f198184030181529181526020820180516001600160e01b03166311f9fbc960e21b179052516110fb9190614f91565b600060405180830381855af49150503d8060008114611136576040519150601f19603f3d011682016040523d82523d6000602084013e61113b565b606091505b50509050611148816136fc565b505050565b611155613187565b61115d6135c0565b600854604051633bc8334960e21b8152600091630100000090046001600160a01b03169063ef20cd2490611195903390600401614fcd565b60206040518083038186803b1580156111ad57600080fd5b505afa1580156111c1573d6000803e3d6000fd5b505050506040513d601f19601f820116820180604052506111e59190810190614029565b60085460405163a515364360e01b8152919250630100000090046001600160a01b03169063a51536439061121f9030908590600401614fdb565b60206040518083038186803b15801561123757600080fd5b505afa15801561124b573d6000803e3d6000fd5b505050506040513d601f19601f8201168201806040525061126f91908101906144d0565b61128b5760405162461bcd60e51b81526004016106f890615205565b60005b868110156113d657600f546000906001600160a01b0316633aecd0e38a8a858181106112b657fe5b90506020020160206112cb919081019061400b565b6040518263ffffffff1660e01b81526004016112e79190614fbf565b60206040518083038186803b1580156112ff57600080fd5b505afa158015611313573d6000803e3d6000fd5b505050506040513d601f19601f820116820180604052506113379190810190614646565b905086868381811061134557fe5b9050602002013581106113cd5761139089898481811061136157fe5b9050602002016020611376919081019061400b565b88888581811061138257fe5b905060200201356000613711565b6113cd89898481811061139f57fe5b90506020020160206113b4919081019061400b565b848989868181106113c157fe5b905060200201356138c0565b5060010161128e565b5060405163776b50eb60e01b81526001600160a01b0382169063776b50eb9061140d908a908a908a908a908a908a9060040161511f565b600060405180830381600087803b15801561142757600080fd5b505af115801561143b573d6000803e3d6000fd5b5050505050505050505050565b611450613187565b61145861399b565b6008546040516353f9e8ff60e01b815263010000009091046001600160a01b0316906353f9e8ff90610751908490600401615345565b61149661399b565b600854604051632ca465cf60e11b815263010000009091046001600160a01b031690635948cb9e906114ce90859085906004016150a5565b600060405180830381600087803b1580156114e857600080fd5b505af11580156114fc573d6000803e3d6000fd5b505050505050565b600061150e61085d565b158061151f575061151d610786565b155b1561152c57506000610608565b611557611537610786565b61154b670de0b6b3a7640000610ba861085d565b9063ffffffff6133fa16565b9050610608565b6001600160a01b031660009081526001602052604090205490565b3330146115985760405162461bcd60e51b81526004016106f8906152b5565b6001600160a01b0381166115be5760405162461bcd60e51b81526004016106f8906151c5565b600080546001600160a01b0319166001600160a01b0383161790556040517f75e41bc35ff1bf14d81d1d2f649c0084a0f974f9289c803ec9898eeec4c8d0b890611609908390614fbf565b60405180910390a150565b61161c613187565b61162461399b565b6008546040516385a345cf60e01b815263010000009091046001600160a01b0316906385a345cf9061165a908490600401614fbf565b600060405180830381600087803b15801561167457600080fd5b505af1158015611688573d6000803e3d6000fd5b50506040516370a0823160e01b8152600092506001600160a01b03841691506370a08231906116bb903090600401614fbf565b60206040518083038186803b1580156116d357600080fd5b505afa1580156116e7573d6000803e3d6000fd5b505050506040513d601f19601f8201168201806040525061170b9190810190614646565b11156117a757600080826001600160a01b031663241cb46860006040518263ffffffff1660e01b81526004016117419190614fcd565b606060405180830381600087803b15801561175b57600080fd5b505af115801561176f573d6000803e3d6000fd5b505050506040513d601f19601f8201168201806040525061179391908101906144ee565b92509250506117a482826001613711565b50505b806001600160a01b0316637264a5de6040518163ffffffff1660e01b8152600401600060405180830381600087803b15801561076b57600080fd5b6009546001600160a01b031681565b6117f9613187565b61180161399b565b60085460405163a515364360e01b815263010000009091046001600160a01b03169063a5153643906118399030908790600401614fdb565b60206040518083038186803b15801561185157600080fd5b505afa158015611865573d6000803e3d6000fd5b505050506040513d601f19601f8201168201806040525061188991908101906144d0565b15611a65576040516370a0823160e01b81526000906001600160a01b038516906370a08231906118bd903090600401614fbf565b60206040518083038186803b1580156118d557600080fd5b505afa1580156118e9573d6000803e3d6000fd5b505050506040513d601f19601f8201168201806040525061190d9190810190614646565b11156119a957600080846001600160a01b031663241cb46860006040518263ffffffff1660e01b81526004016119439190614fcd565b606060405180830381600087803b15801561195d57600080fd5b505af1158015611971573d6000803e3d6000fd5b505050506040513d601f19601f8201168201806040525061199591908101906144ee565b92509250506119a682826001613711565b50505b826001600160a01b0316637264a5de6040518163ffffffff1660e01b8152600401600060405180830381600087803b1580156119e457600080fd5b505af11580156119f8573d6000803e3d6000fd5b50506008546040516385a345cf60e01b815263010000009091046001600160a01b031692506385a345cf9150611a32908690600401614fbf565b600060405180830381600087803b158015611a4c57600080fd5b505af1158015611a60573d6000803e3d6000fd5b505050505b6008546040516394520bbd60e01b815263010000009091046001600160a01b0316906394520bbd90611a9f9086908690869060040161502c565b600060405180830381600087803b158015611ab957600080fd5b505af1158015611acd573d6000803e3d6000fd5b50505050505050565b60058054604080516020601f60026000196101006001881615020190951694909404938401819004810282018101909252828152606093909290918301828280156106005780601f106105d557610100808354040283529160200191610600565b600854610100900460ff1615611b5f5760405162461bcd60e51b81526004016106f8906151d5565b60088054600a80546001600160a01b03199081166001600160a01b038a8116918217909355600b80548316909117905561010061ff0019909316929092176301000000600160b81b0319166301000000888316021790925560098054909116918516919091179055611bd3600c8383613de1565b50611c4789898080601f01602080910402602001604051908101604052809392919081815260200183838082843760009201919091525050604080516020601f8d018190048102820181019092528b815292508b91508a90819084018382808284376000920191909152506139c592505050565b604051611c5390613e2c565b604051809103906000f080158015611c6f573d6000803e3d6000fd5b50600f80546001600160a01b0319166001600160a01b0392909216919091179055505050505050505050565b600061061f611ca86130cf565b8461080a856040518060600160405280602581526020016157bd6025913960026000611cd26130cf565b6001600160a01b03908116825260208083019390935260409182016000908120918d1681529252902054919063ffffffff6132de16565b600061061f611d166130cf565b84846131c8565b60085460405163387971a160e11b8152606091630100000090046001600160a01b0316906370f2e34290611d55903090600401614fbf565b60006040518083038186803b158015611d6d57600080fd5b505afa158015611d81573d6000803e3d6000fd5b505050506040513d6000823e601f3d908101601f19168201604052611da9919081019061449c565b905090565b611db6613187565b6008546040805163030bbb2160e11b815290513392630100000090046001600160a01b0316916306177642916004808301926020929190829003018186803b158015611e0157600080fd5b505afa158015611e15573d6000803e3d6000fd5b505050506040513d601f19601f82011682018060405250611e399190810190614029565b6001600160a01b03161480611e585750600a546001600160a01b031633145b611e745760405162461bcd60e51b81526004016106f890615255565b600a80546001600160a01b0319166001600160a01b0383811691909117909155600854604051633987ebab60e21b815263010000009091049091169063e61faeac90610751908490600401614fbf565b600080805b600d5481101561209657600f54600d80546000926001600160a01b031691633aecd0e39185908110611ef757fe5b6000918252602090912001546040516001600160e01b031960e084901b168152611f2d916001600160a01b031690600401614fbf565b60206040518083038186803b158015611f4557600080fd5b505afa158015611f59573d6000803e3d6000fd5b505050506040513d601f19601f82011682018060405250611f7d9190810190614646565b111561208e57600854600d8054600092630100000090046001600160a01b031691638b2f0f4f9185908110611fae57fe5b6000918252602090912001546040516001600160e01b031960e084901b168152611fe4916001600160a01b031690600401614fbf565b60206040518083038186803b158015611ffc57600080fd5b505afa158015612010573d6000803e3d6000fd5b505050506040513d601f19601f820116820180604052506120349190810190614646565b905061208881600860039054906101000a90046001600160a01b03166001600160a01b0316635a72fee86040518163ffffffff1660e01b815260040160206040518083038186803b158015610a2e57600080fd5b83019250505b600101611ec9565b506120af81670de0b6b3a764000063ffffffff6133fa16565b91505090565b600098975050505050505050565b6120cb613187565b6120d361399b565b60085460405163cd70767560e01b815263010000009091046001600160a01b03169063cd7076759061140d908a908a908a908a908a908a908a9060040161504d565b6001600160a01b03918216600090815260026020908152604080832093909416825291909152205490565b61214861330a565b6000306001600160a01b0316826040516024016121659190614fbf565b60408051601f198184030181529181526020820180516001600160e01b0316637de7edef60e01b1790525161219a9190614f91565b6000604051808303816000865af19150503d80600081146121d7576040519150601f19603f3d011682016040523d82523d6000602084013e6121dc565b606091505b505090506121e9816136fc565b5050565b6121f561330a565b60085460ff1660011415612212576008805460ff1916905561222a565b60085460ff1661222a576008805460ff191660011790555b565b612234613187565b600a546001600160a01b0316331461225e5760405162461bcd60e51b81526004016106f890615255565b60085460405163735c5ae360e11b815263010000009091046001600160a01b03169063e6b8b5c6906122a2908b908b908b908b908b908b908b908b906004016150c0565b600060405180830381600087803b1580156122bc57600080fd5b505af11580156122d0573d6000803e3d6000fd5b505050505050505050505050565b6122e661330a565b6008805460ff1916600217905560606122fd611d1d565b905060005b815181101561257b5760006001600160a01b031682828151811061232257fe5b60200260200101516001600160a01b03161461257357600082828151811061234657fe5b60200260200101516001600160a01b03166370a08231306040518263ffffffff1660e01b81526004016123799190614fbf565b60206040518083038186803b15801561239157600080fd5b505afa1580156123a5573d6000803e3d6000fd5b505050506040513d601f19601f820116820180604052506123c99190810190614646565b111561250c576000808383815181106123de57fe5b60200260200101516001600160a01b031663241cb46860006040518263ffffffff1660e01b81526004016124129190614fcd565b606060405180830381600087803b15801561242c57600080fd5b505af1158015612440573d6000803e3d6000fd5b505050506040513d601f19601f8201168201806040525061246491908101906144ee565b9250925050612509600860039054906101000a90046001600160a01b03166001600160a01b031663fe6f68ba6040518163ffffffff1660e01b815260040160206040518083038186803b1580156124ba57600080fd5b505afa1580156124ce573d6000803e3d6000fd5b505050506040513d601f19601f820116820180604052506124f29190810190614029565b6001600160a01b038416908363ffffffff613ad216565b50505b81818151811061251857fe5b60200260200101516001600160a01b0316637264a5de6040518163ffffffff1660e01b8152600401600060405180830381600087803b15801561255a57600080fd5b505af115801561256e573d6000803e3d6000fd5b505050505b600101612302565b5060005b600d548110156121e9576000600d828154811061259857fe5b60009182526020822001546040516370a0823160e01b81526001600160a01b03909116925082906370a08231906125d3903090600401614fbf565b60206040518083038186803b1580156125eb57600080fd5b505afa1580156125ff573d6000803e3d6000fd5b505050506040513d601f19601f820116820180604052506126239190810190614646565b9050801561267c5761267c600860039054906101000a90046001600160a01b03166001600160a01b031663fe6f68ba6040518163ffffffff1660e01b815260040160206040518083038186803b1580156124ba57600080fd5b505060010161257f565b61268e613187565b61269661399b565b60085460405163e9bf666d60e01b815263010000009091046001600160a01b03169063e9bf666d906126cc908490600401614fbf565b600060405180830381600087803b1580156126e657600080fd5b505af11580156126fa573d6000803e3d6000fd5b50505050806001600160a01b03166355c1f8286040518163ffffffff1660e01b8152600401600060405180830381600087803b15801561076b57600080fd5b6000612743613187565b61274b6135c0565b846128f15760085460408051632970947d60e01b815290513392630100000090046001600160a01b031691632970947d9160048083019260209291908290030181600087803b15801561279d57600080fd5b505af11580156127b1573d6000803e3d6000fd5b505050506040513d601f19601f820116820180604052506127d59190810190614029565b6001600160a01b0316146127fb5760405162461bcd60e51b81526004016106f890615295565b6000600860039054906101000a90046001600160a01b03166001600160a01b03166356ba93846040518163ffffffff1660e01b8152600401602060405180830381600087803b15801561284d57600080fd5b505af1158015612861573d6000803e3d6000fd5b505050506040513d601f19601f820116820180604052506128859190810190614029565b6001600160a01b0316848460405161289e929190614f84565b600060405180830381855af49150503d80600081146128d9576040519150601f19603f3d011682016040523d82523d6000602084013e6128de565b606091505b505090506128eb816136fc565b50612ef2565b8460011415612b1857600854604051633bc8334960e21b815263010000009091046001600160a01b03169063a5153643903090839063ef20cd249061293a903390600401614fcd565b60206040518083038186803b15801561295257600080fd5b505afa158015612966573d6000803e3d6000fd5b505050506040513d601f19601f8201168201806040525061298a9190810190614029565b6040518363ffffffff1660e01b81526004016129a7929190614fdb565b60206040518083038186803b1580156129bf57600080fd5b505afa1580156129d3573d6000803e3d6000fd5b505050506040513d601f19601f820116820180604052506129f791908101906144d0565b612a135760405162461bcd60e51b81526004016106f890615205565b600854604051633bc8334960e21b815260009160609163010000009091046001600160a01b03169063ef20cd2490612a4f903390600401614fcd565b60206040518083038186803b158015612a6757600080fd5b505afa158015612a7b573d6000803e3d6000fd5b505050506040513d601f19601f82011682018060405250612a9f9190810190614029565b6001600160a01b03168585604051612ab8929190614f84565b6000604051808303816000865af19150503d8060008114612af5576040519150601f19603f3d011682016040523d82523d6000602084013e612afa565b606091505b5091509150612b08826136fc565b612b1181613b2b565b5050612ef2565b8460021415612cbf57600860039054906101000a90046001600160a01b03166001600160a01b03166313ae2e116040518163ffffffff1660e01b8152600401602060405180830381600087803b158015612b7157600080fd5b505af1158015612b85573d6000803e3d6000fd5b505050506040513d601f19601f82011682018060405250612ba99190810190614029565b600854604051633bc8334960e21b81526001600160a01b039283169263010000009092049091169063ef20cd2490612be5903390600401614fcd565b60206040518083038186803b158015612bfd57600080fd5b505afa158015612c11573d6000803e3d6000fd5b505050506040513d601f19601f82011682018060405250612c359190810190614029565b6001600160a01b031614612c5b5760405162461bcd60e51b81526004016106f890615225565b600854604051633bc8334960e21b8152600091630100000090046001600160a01b03169063ef20cd2490612c93903390600401614fcd565b60206040518083038186803b158015612cab57600080fd5b505afa158015612861573d6000803e3d6000fd5b8460031415612ef257600860039054906101000a90046001600160a01b03166001600160a01b031663eb6c91306040518163ffffffff1660e01b8152600401602060405180830381600087803b158015612d1857600080fd5b505af1158015612d2c573d6000803e3d6000fd5b505050506040513d601f19601f82011682018060405250612d509190810190614029565b600854604051633bc8334960e21b81526001600160a01b039283169263010000009092049091169063ef20cd2490612d8c903390600401614fcd565b60206040518083038186803b158015612da457600080fd5b505afa158015612db8573d6000803e3d6000fd5b505050506040513d601f19601f82011682018060405250612ddc9190810190614029565b6001600160a01b031614612e025760405162461bcd60e51b81526004016106f8906152d5565b600854604051633bc8334960e21b8152600091630100000090046001600160a01b03169063ef20cd2490612e3a903390600401614fcd565b60206040518083038186803b158015612e5257600080fd5b505afa158015612e66573d6000803e3d6000fd5b505050506040513d601f19601f82011682018060405250612e8a9190810190614029565b6001600160a01b03168484604051612ea3929190614f84565b600060405180830381855af49150503d8060008114612ede576040519150601f19603f3d011682016040523d82523d6000602084013e612ee3565b606091505b50509050612ef0816136fc565b505b604051612efe90614fb4565b604051809103902090509695505050505050565b612f1a613187565b612f22613461565b60085460405163b4eed71d60e01b815263010000009091046001600160a01b03169063b4eed71d90612f58908590600401614fbf565b60206040518083038186803b158015612f7057600080fd5b505afa158015612f84573d6000803e3d6000fd5b505050506040513d601f19601f82011682018060405250612fa891908101906144d0565b612fc45760405162461bcd60e51b81526004016106f8906152e5565b80612fce3361155e565b1015612fec5760405162461bcd60e51b81526004016106f890615235565b612ff46135c0565b6000600860039054906101000a90046001600160a01b03166001600160a01b031663eb6c91306040518163ffffffff1660e01b8152600401602060405180830381600087803b15801561304657600080fd5b505af115801561305a573d6000803e3d6000fd5b505050506040513d601f19601f8201168201806040525061307e9190810190614029565b6001600160a01b0316838360405160240161309a9291906150a5565b60408051601f198184030181529181526020820180516001600160e01b031663f3fef3a360e01b179052516110fb9190614f91565b3390565b6001600160a01b0383166130f95760405162461bcd60e51b81526004016106f8906152c5565b6001600160a01b03821661311f5760405162461bcd60e51b81526004016106f8906151e5565b6001600160a01b0380841660008181526002602090815260408083209487168084529490915290819020849055517f8c5be1e5ebec7d5bd14f71427d1e84f3dd0314c0f7b2291e5b200ac8c7c3b9259061317a908590615345565b60405180910390a3505050565b60085460ff16600114156131a25761319d61330a565b61222a565b60085460ff166002141561222a5760405162461bcd60e51b81526004016106f890615305565b6001600160a01b0383166131ee5760405162461bcd60e51b81526004016106f8906152a5565b6001600160a01b0382166132145760405162461bcd60e51b81526004016106f8906151b5565b6132578160405180606001604052806026815260200161576f602691396001600160a01b038616600090815260016020526040902054919063ffffffff6132de16565b6001600160a01b03808516600090815260016020526040808220939093559084168152205461328c908263ffffffff61343c16565b6001600160a01b0380841660008181526001602052604090819020939093559151908516907fddf252ad1be2c89b69c2b068fc378daa952ba7f163c4a11628f55a4df523b3ef9061317a908590615345565b600081848411156133025760405162461bcd60e51b81526004016106f89190615194565b505050900390565b600860039054906101000a90046001600160a01b03166001600160a01b03166328b0d4e26040518163ffffffff1660e01b815260040160206040518083038186803b15801561335857600080fd5b505afa15801561336c573d6000803e3d6000fd5b505050506040513d601f19601f820116820180604052506133909190810190614029565b6001600160a01b0316336001600160a01b03161461222a5760405162461bcd60e51b81526004016106f890615255565b6000826133cf57506000610623565b828202828482816133dc57fe5b04146108135760405162461bcd60e51b81526004016106f890615245565b600061081383836040518060400160405280601a81526020017f536166654d6174683a206469766973696f6e206279207a65726f000000000000815250613b81565b6000828201838110156108135760405162461bcd60e51b81526004016106f8906151f5565b600c5461346d5761222a565b60005b600c548110156135a757600860039054906101000a90046001600160a01b03166001600160a01b0316638fea31b06040518163ffffffff1660e01b815260040160206040518083038186803b1580156134c857600080fd5b505afa1580156134dc573d6000803e3d6000fd5b505050506040513d601f19601f820116820180604052506135009190810190614029565b6001600160a01b0316637d9e10f5600c838154811061351b57fe5b9060005260206000200154336040518363ffffffff1660e01b8152600401613544929190615353565b60206040518083038186803b15801561355c57600080fd5b505afa158015613570573d6000803e3d6000fd5b505050506040513d601f19601f8201168201806040525061359491908101906144d0565b1561359f575061222a565b600101613470565b5060405162461bcd60e51b81526004016106f890615285565b6060600860039054906101000a90046001600160a01b03166001600160a01b03166302fd9b5d6040518163ffffffff1660e01b8152600401600060405180830381600087803b15801561361257600080fd5b505af1158015613626573d6000803e3d6000fd5b505050506040513d6000823e601f3d908101601f1916820160405261364e919081019061449c565b905060005b81518110156121e95781818151811061366857fe5b602090810291909101810151604080516004815260248101825292830180516001600160e01b031663ad4653e360e01b179052516001600160a01b03909116916136b191614f91565b600060405180830381855af49150503d80600081146136ec576040519150601f19603f3d011682016040523d82523d6000602084013e6136f1565b606091505b505050600101613653565b8061370e576040513d806000833e8082fd5b50565b801561380757600f54604051633aecd0e360e01b81526001600160a01b0390911690634ceb1f139085906137b39086908590633aecd0e390613757908690600401614fbf565b60206040518083038186803b15801561376f57600080fd5b505afa158015613783573d6000803e3d6000fd5b505050506040513d601f19601f820116820180604052506137a79190810190614646565b9063ffffffff61343c16565b6040518363ffffffff1660e01b81526004016137d09291906150a5565b600060405180830381600087803b1580156137ea57600080fd5b505af11580156137fe573d6000803e3d6000fd5b50505050611148565b600f54604051633aecd0e360e01b81526001600160a01b0390911690634ceb1f139085906138a39086908590633aecd0e390613847908690600401614fbf565b60206040518083038186803b15801561385f57600080fd5b505afa158015613873573d6000803e3d6000fd5b505050506040513d601f19601f820116820180604052506138979190810190614646565b9063ffffffff613bb816565b6040518363ffffffff1660e01b8152600401611a9f9291906150a5565b604051636eb1769f60e11b81526000906001600160a01b0385169063dd62ed3e906138f19030908790600401614fdb565b60206040518083038186803b15801561390957600080fd5b505afa15801561391d573d6000803e3d6000fd5b505050506040513d601f19601f820116820180604052506139419190810190614646565b1115613981576139626001600160a01b03841683600063ffffffff613bfa16565b61397c6001600160a01b038416838363ffffffff613bfa16565b611148565b6111486001600160a01b038416838363ffffffff613bfa16565b600b546001600160a01b0316331461222a5760405162461bcd60e51b81526004016106f890615255565b6040516020016139d490614fa9565b6040516020818303038152906040528051906020012060046040516020016139fc9190614f9d565b6040516020818303038152906040528051906020012014613a2f5760405162461bcd60e51b81526004016106f890615265565b604051602001613a3e90614fa9565b604051602081830303815290604052805190602001206005604051602001613a669190614f9d565b6040516020818303038152906040528051906020012014613a995760405162461bcd60e51b81526004016106f890615315565b8151613aac906004906020850190613e39565b508051613ac0906005906020840190613e39565b50506006805460ff1916601217905550565b60405161114890849063a9059cbb60e01b90613af490869086906024016150a5565b60408051601f198184030181529190526020810180516001600160e01b03166001600160e01b031990931692909217909152613cc0565b600081806020019051613b4191908101906144d0565b905080156121e95760008083806020019051613b6091908101906144ee565b9093509150506001600160a01b03821615610e7c57610e7c82826001613711565b60008183613ba25760405162461bcd60e51b81526004016106f89190615194565b506000838581613bae57fe5b0495945050505050565b600061081383836040518060400160405280601e81526020017f536166654d6174683a207375627472616374696f6e206f766572666c6f7700008152506132de565b801580613c825750604051636eb1769f60e11b81526001600160a01b0384169063dd62ed3e90613c309030908690600401614fdb565b60206040518083038186803b158015613c4857600080fd5b505afa158015613c5c573d6000803e3d6000fd5b505050506040513d601f19601f82011682018060405250613c809190810190614646565b155b613c9e5760405162461bcd60e51b81526004016106f890615325565b60405161114890849063095ea7b360e01b90613af490869086906024016150a5565b613cd2826001600160a01b0316613da5565b613cee5760405162461bcd60e51b81526004016106f890615335565b60006060836001600160a01b031683604051613d0a9190614f91565b6000604051808303816000865af19150503d8060008114613d47576040519150601f19603f3d011682016040523d82523d6000602084013e613d4c565b606091505b509150915081613d6e5760405162461bcd60e51b81526004016106f890615215565b805115610e7c5780806020019051613d8991908101906144d0565b610e7c5760405162461bcd60e51b81526004016106f8906152f5565b6000813f7fc5d2460186f7233c927e7db2dcc703c0e500b653ca82273b7bfad8045d85a470818114801590613dd957508115155b949350505050565b828054828255906000526020600020908101928215613e1c579160200282015b82811115613e1c578235825591602001919060010190613e01565b50613e28929150613ea7565b5090565b61029f806154d083390190565b828054600181600116156101000203166002900490600052602060002090601f016020900481019282601f10613e7a57805160ff1916838001178555613e1c565b82800160010185558215613e1c579182015b82811115613e1c578251825591602001919060010190613e8c565b61060891905b80821115613e285760008155600101613ead565b8035610623816154a0565b8051610623816154a0565b60008083601f840112613ee957600080fd5b5081356001600160401b03811115613f0057600080fd5b602083019150836020820283011115613f1857600080fd5b9250929050565b600082601f830112613f3057600080fd5b8151613f43613f3e826153a2565b61537c565b91508181835260208401935060208101905083856020840282011115613f6857600080fd5b60005b83811015613f945781613f7e8882613ecc565b8452506020928301929190910190600101613f6b565b5050505092915050565b8051610623816154b4565b8035610623816154bd565b60008083601f840112613fc657600080fd5b5081356001600160401b03811115613fdd57600080fd5b602083019150836001820283011115613f1857600080fd5b8035610623816154c6565b8051610623816154c6565b60006020828403121561401d57600080fd5b6000613dd98484613ec1565b60006020828403121561403b57600080fd5b6000613dd98484613ecc565b6000806040838503121561405a57600080fd5b60006140668585613ec1565b925050602061407785828601613ec1565b9150509250929050565b60008060008060008060008060a0898b03121561409d57600080fd5b60006140a98b8b613ec1565b98505060206140ba8b828c01613ec1565b97505060408901356001600160401b038111156140d657600080fd5b6140e28b828c01613ed7565b965096505060608901356001600160401b0381111561410057600080fd5b61410c8b828c01613ed7565b945094505060808901356001600160401b0381111561412a57600080fd5b6141368b828c01613fb4565b92509250509295985092959890939650565b60008060006060848603121561415d57600080fd5b60006141698686613ec1565b935050602061417a86828701613ec1565b925050604061418b86828701613ff5565b9150509250925092565b60008060008060008060a087890312156141ae57600080fd5b60006141ba8989613ec1565b96505060206141cb89828a01613ec1565b95505060406141dc89828a01613ff5565b94505060606141ed89828a01613ff5565b93505060808701356001600160401b0381111561420957600080fd5b61421589828a01613fb4565b92509250509295509295509295565b60008060006040848603121561423957600080fd5b60006142458686613ec1565b93505060208401356001600160401b0381111561426157600080fd5b61426d86828701613ed7565b92509250509250925092565b60008060008060008060006080888a03121561429457600080fd5b60006142a08a8a613ec1565b97505060208801356001600160401b038111156142bc57600080fd5b6142c88a828b01613ed7565b965096505060408801356001600160401b038111156142e657600080fd5b6142f28a828b01613ed7565b945094505060608801356001600160401b0381111561431057600080fd5b61431c8a828b01613ed7565b925092505092959891949750929550565b6000806040838503121561434057600080fd5b600061434c8585613ec1565b925050602061407785828601613ff5565b6000806000806000806000806080898b03121561437957600080fd5b88356001600160401b0381111561438f57600080fd5b61439b8b828c01613ed7565b985098505060208901356001600160401b038111156143b957600080fd5b6143c58b828c01613ed7565b965096505060408901356001600160401b038111156143e357600080fd5b6143ef8b828c01613ed7565b945094505060608901356001600160401b0381111561440d57600080fd5b6141368b828c01613ed7565b6000806000806000806060878903121561443257600080fd5b86356001600160401b0381111561444857600080fd5b61445489828a01613ed7565b965096505060208701356001600160401b0381111561447257600080fd5b61447e89828a01613ed7565b945094505060408701356001600160401b0381111561420957600080fd5b6000602082840312156144ae57600080fd5b81516001600160401b038111156144c457600080fd5b613dd984828501613f1f565b6000602082840312156144e257600080fd5b6000613dd98484613f9e565b60008060006060848603121561450357600080fd5b600061450f8686613f9e565b935050602061452086828701613ecc565b925050604061418b86828701614000565b60006020828403121561454357600080fd5b6000613dd98484613fa9565b600080600080600080600080600060c08a8c03121561456d57600080fd5b89356001600160401b0381111561458357600080fd5b61458f8c828d01613fb4565b995099505060208a01356001600160401b038111156145ad57600080fd5b6145b98c828d01613fb4565b975097505060406145cc8c828d01613ec1565b95505060606145dd8c828d01613ec1565b94505060806145ee8c828d01613ec1565b93505060a08a01356001600160401b0381111561460a57600080fd5b6146168c828d01613ed7565b92509250509295985092959850929598565b60006020828403121561463a57600080fd5b6000613dd98484613ff5565b60006020828403121561465857600080fd5b6000613dd98484614000565b60006146708383614693565b505060200190565b60006146708383614f72565b61468d8161542e565b82525050565b61468d816153ff565b60006146a883856153e2565b93506146b382610608565b8060005b858110156146e9576146c982846153f0565b6146d38882614664565b97506146de836153c2565b9250506001016146b7565b509495945050505050565b60006146ff826153d4565b61470981856153e2565b9350614714836153c2565b8060005b838110156146e957815161472c8882614664565b9750614737836153c2565b925050600101614718565b600061474e83856153e2565b93506001600160fb1b0383111561476457600080fd5b60208302925061477583858461543f565b50500190565b6000614786826153d8565b61479081856153e2565b935061479b836153c8565b8060005b838110156146e9576147b08261548a565b6147ba8882614678565b97506147c5836153dc565b92505060010161479f565b61468d8161540a565b61468d8161540f565b60006147ee83856153e2565b93506147fb83858461543f565b61480483615496565b9093019392505050565b600061481a83856153eb565b935061477583858461543f565b6000614832826153d4565b61483c81856153eb565b935061484c81856020860161544b565b9290920192915050565b6000614861826153d4565b61486b81856153e2565b935061487b81856020860161544b565b61480481615496565b6000815460018116600081146148a157600181146148c457614903565b607f60028304166148b281876153eb565b60ff1984168152955085019250614903565b600282046148d281876153eb565b95506148dd856153c8565b60005b828110156148fc578154888201526001909101906020016148e0565b5050850192505b505092915050565b6000614918601d836153e2565b7f4e6f7420616e20617070726f766564206465706f736974206173736574000000815260200192915050565b60006149516023836153e2565b7f45524332303a207472616e7366657220746f20746865207a65726f206164647281526265737360e81b602082015260400192915050565b60006149966024836153e2565b7f496e76616c6964206d617374657220636f707920616464726573732070726f768152631a59195960e21b602082015260400192915050565b60006149dc6016836153e2565b7505661756c7420697320616c72656164792073657475760541b815260200192915050565b6000614a0e6022836153e2565b7f45524332303a20617070726f766520746f20746865207a65726f206164647265815261737360f01b602082015260400192915050565b6000614a52601b836153e2565b7f536166654d6174683a206164646974696f6e206f766572666c6f770000000000815260200192915050565b6000614a8b6011836153e2565b70537472617465677920696e61637469766560781b815260200192915050565b6000614ab86020836153e2565b7f5361666545524332303a206c6f772d6c6576656c2063616c6c206661696c6564815260200192915050565b6000614af16014836153e2565b734e6f74204465706f73697420737472617465677960601b815260200192915050565b6000614b21601c836153e2565b7f596f7520646f6e2774206861766520656e6f7567682073686172657300000000815260200192915050565b6000614b5a6021836153e2565b7f536166654d6174683a206d756c7469706c69636174696f6e206f766572666c6f8152607760f81b602082015260400192915050565b6000614b9d600c836153e2565b6b1d5b985d5d1a1bdc9a5e995960a21b815260200192915050565b6000614bc5601b836153e2565b7f546f6b656e204e616d6520616c72656164792061737369676e65640000000000815260200192915050565b6000614bfe601b836153e2565b7f5661756c7420697320616c726561647920726567697374657265640000000000815260200192915050565b6000614c376010836153e2565b6f13db9b1e4815da1a5d195b1a5cdd195960821b815260200192915050565b6000614c636010836153e2565b6f27b7363c9029b0b3329026b4b73a32b960811b815260200192915050565b6000614c8f6025836153e2565b7f45524332303a207472616e736665722066726f6d20746865207a65726f206164815264647265737360d81b602082015260400192915050565b6000614cd6602c836153e2565b7f4d6574686f642063616e206f6e6c792062652063616c6c65642066726f6d207481526b1a1a5cc818dbdb9d1c9858dd60a21b602082015260400192915050565b60006106236000836153eb565b6000614d316024836153e2565b7f45524332303a20617070726f76652066726f6d20746865207a65726f206164648152637265737360e01b602082015260400192915050565b6000614d776015836153e2565b744e6f7420576974686472617720737472617465677960581b815260200192915050565b6000614da86020836153e2565b7f4e6f7420616e20617070726f766564205769746864726177616c206173736574815260200192915050565b6000614de1602a836153e2565b7f5361666545524332303a204552433230206f7065726174696f6e20646964206e8152691bdd081cdd58d8d9595960b21b602082015260400192915050565b6000614e2d600d836153e2565b6c7361666520696e61637469766560981b815260200192915050565b6000614e56601d836153e2565b7f546f6b656e2053796d626f6c20616c72656164792061737369676e6564000000815260200192915050565b6000614e8f6036836153e2565b7f5361666545524332303a20617070726f76652066726f6d206e6f6e2d7a65726f81527520746f206e6f6e2d7a65726f20616c6c6f77616e636560501b602082015260400192915050565b6000614ee76038836153eb565b7f6f6e45524331313535526563656976656428616464726573732c61646472657381527f732c75696e743235362c75696e743235362c6279746573290000000000000000602082015260380192915050565b6000614f46601f836153e2565b7f5361666545524332303a2063616c6c20746f206e6f6e2d636f6e747261637400815260200192915050565b61468d81610608565b61468d81615428565b6000613dd982848661480e565b60006108138284614827565b60006108138284614884565b600061062382614d17565b600061062382614eda565b602081016106238284614693565b602081016106238284614684565b60408101614fe98285614693565b6108136020830184614693565b606081016150048286614693565b6150116020830185614693565b8181036040830152615023818461477b565b95945050505050565b6040810161503a8286614693565b818103602083015261502381848661469c565b6080810161505b828a614693565b818103602083015261506e81888a61469c565b9050818103604083015261508381868861469c565b9050818103606083015261509881848661469c565b9998505050505050505050565b604081016150b38285614693565b6108136020830184614f72565b608080825281016150d2818a8c61469c565b905081810360208301526150e781888a61469c565b905081810360408301526150fc81868861469c565b9050818103606083015261511181848661469c565b9a9950505050505050505050565b6060808252810161513181888a61469c565b90508181036020830152615146818688614742565b9050818103604083015261515b8184866147e2565b98975050505050505050565b6020808252810161081381846146f4565b6020810161062382846147d0565b6020810161062382846147d9565b602080825281016108138184614856565b602080825281016106238161490b565b6020808252810161062381614944565b6020808252810161062381614989565b60208082528101610623816149cf565b6020808252810161062381614a01565b6020808252810161062381614a45565b6020808252810161062381614a7e565b6020808252810161062381614aab565b6020808252810161062381614ae4565b6020808252810161062381614b14565b6020808252810161062381614b4d565b6020808252810161062381614b90565b6020808252810161062381614bb8565b6020808252810161062381614bf1565b6020808252810161062381614c2a565b6020808252810161062381614c56565b6020808252810161062381614c82565b6020808252810161062381614cc9565b6020808252810161062381614d24565b6020808252810161062381614d6a565b6020808252810161062381614d9b565b6020808252810161062381614dd4565b6020808252810161062381614e20565b6020808252810161062381614e49565b6020808252810161062381614e82565b6020808252810161062381614f39565b602081016106238284614f72565b604081016153618285614f72565b6108136020830184614684565b602081016106238284614f7b565b6040518181016001600160401b038111828210171561539a57600080fd5b604052919050565b60006001600160401b038211156153b857600080fd5b5060209081020190565b60200190565b60009081526020902090565b5190565b5490565b60010190565b90815260200190565b919050565b60006108136020840184613ec1565b60006106238261541c565b151590565b6001600160e01b03191690565b6001600160a01b031690565b60ff1690565b6000610623826000610623826153ff565b82818337506000910152565b60005b8381101561546657818101518382015260200161544e565b83811115610e7c5750506000910152565b600061062361548583610608565b610608565b60006106238254615477565b601f01601f191690565b6154a9816153ff565b811461370e57600080fd5b6154a98161540a565b6154a98161540f565b6154a98161060856fe608060405234801561001057600080fd5b5043600055600280546001600160a01b03191633179055610269806100366000396000f3fe608060405234801561001057600080fd5b50600436106100625760003560e01c80633aecd0e3146100675780634ceb1f131461009f5780637e009489146100cd57806391718f5c146100d5578063a265b26b146100dd578063dca10608146100e5575b600080fd5b61008d6004803603602081101561007d57600080fd5b50356001600160a01b0316610102565b60408051918252519081900360200190f35b6100cb600480360360408110156100b557600080fd5b506001600160a01b03813516906020013561011d565b005b61008d610185565b61008d61018b565b6100cb610191565b6100cb600480360360208110156100fb57600080fd5b50356101e3565b6001600160a01b031660009081526003602052604090205490565b6002546001600160a01b03163314610169576040805162461bcd60e51b815260206004820152600a60248201526937b7363c9027bbb732b960b11b604482015290519081900360640190fd5b6001600160a01b03909116600090815260036020526040902055565b60005490565b60015490565b6002546001600160a01b031633146101dd576040805162461bcd60e51b815260206004820152600a60248201526937b7363c9027bbb732b960b11b604482015290519081900360640190fd5b43600055565b6002546001600160a01b0316331461022f576040805162461bcd60e51b815260206004820152600a60248201526937b7363c9027bbb732b960b11b604482015290519081900360640190fd5b60015556fea265627a7a723158209dddd3ddfdd576920d1d145ccf3dd338518fbbad3dbaa494c2c2cebff41d3c2a64736f6c6343000511003245524332303a207472616e7366657220616d6f756e7420657863656564732062616c616e636545524332303a207472616e7366657220616d6f756e74206578636565647320616c6c6f77616e636545524332303a2064656372656173656420616c6c6f77616e63652062656c6f77207a65726fa365627a7a723158203c80a15339a023eb44dd95e058d03146626850f1b95352f24d395ce32c3a2ec96c6578706572696d656e74616cf564736f6c63430005110040",
  "source": "// SPDX-License-Identifier: MIT\npragma solidity >=0.5.0 <0.7.0;\npragma experimental ABIEncoderV2;\nimport \"./storage/VaultStorage.sol\";\n\ncontract YieldsterVault is VaultStorage {\n    /// @dev Function to upgrade the vault.\n    function upgradeMasterCopy(address _mastercopy) external {\n        _isYieldsterGOD();\n        (bool result, ) = address(this).call(\n            abi.encodeWithSignature(\"changeMasterCopy(address)\", _mastercopy)\n        );\n        revertDelegate(result);\n    }\n\n    /// @dev Function to set APS Address.\n    function setAPS(address _APContract) external {\n        _isYieldsterGOD();\n        APContract = _APContract;\n    }\n\n    /// @dev Function to toggle Emergency Break feature of the Vault.\n    function toggleEmergencyBreak() external {\n        _isYieldsterGOD();\n        if (emergencyConditions == 1) emergencyConditions = 0;\n        else if (emergencyConditions == 0) emergencyConditions = 1;\n    }\n\n    /// @dev Function to enable Emergency Exit feature of the Vault.\n    function enableEmergencyExit() external {\n        _isYieldsterGOD();\n        emergencyConditions = 2;\n        address[] memory vaultActiveStrategy = getVaultActiveStrategy();\n\n        for (uint256 i = 0; i < vaultActiveStrategy.length; i++) {\n            if (vaultActiveStrategy[i] != address(0)) {\n                if (\n                    IStrategy(vaultActiveStrategy[i]).balanceOf(address(this)) >\n                    0\n                ) {\n                    (\n                        ,\n                        address withdrawToken,\n                        uint256 withdrawAmount\n                    ) = IStrategy(vaultActiveStrategy[i]).withdrawAllToSafe(\n                            address(0)\n                        );\n                    IERC20(withdrawToken).safeTransfer(\n                        IAPContract(APContract).emergencyVault(),\n                        withdrawAmount\n                    );\n                }\n                IStrategy(vaultActiveStrategy[i]).deRegisterSafe();\n            }\n        }\n        for (uint256 i = 0; i < assetList.length; i++) {\n            IERC20 token = IERC20(assetList[i]);\n            uint256 tokenBalance = token.balanceOf(address(this));\n            if (tokenBalance > 0) {\n                token.safeTransfer(\n                    IAPContract(APContract).emergencyVault(),\n                    tokenBalance\n                );\n            }\n        }\n    }\n\n    modifier onlyNormalMode() {\n        _onlyNormalMode();\n        _;\n    }\n\n    /// @dev Function that Disables vault interactions in case of Emergency Break and Emergency Exit.\n    function _onlyNormalMode() private view {\n        if (emergencyConditions == 1) {\n            _isYieldsterGOD();\n        } else if (emergencyConditions == 2) {\n            revert(\"safe inactive\");\n        }\n    }\n\n    /// @dev Function that checks if the user is whitelisted.\n    function _isWhiteListed() private view {\n        if (whiteListGroups.length == 0) {\n            return;\n        } else {\n            for (uint256 i = 0; i < whiteListGroups.length; i++) {\n                if (\n                    IWhitelist(IAPContract(APContract).whitelistModule())\n                        .isMember(whiteListGroups[i], msg.sender)\n                ) {\n                    return;\n                }\n            }\n            revert(\"Only Whitelisted\");\n        }\n    }\n\n    function _isYieldsterGOD() private view {\n        require(\n            msg.sender == IAPContract(APContract).yieldsterGOD(),\n            \"unauthorized\"\n        );\n    }\n\n    function _isStrategyManager() private view {\n        require(msg.sender == vaultStrategyManager, \"unauthorized\");\n    }\n\n    // / @dev Setup function sets initial storage of contract.\n    // / @param _vaultName Name of the Vault.\n    // / @param _tokenName Name of the Vault Token.\n    // / @param _symbol Symbol for the Vault Token.\n    // / @param _vaultAPSManager Address of the Vault APS Manager.\n    // / @param _vaultStrategyManager Address of the Vault Strategy Manager.\n    // / @param _owner Address of the Vault owner.\n    // / @param _whiteListGroups List of whitelist groups that is authorized to perform interactions.\n    function setup(\n        string calldata _tokenName,\n        string calldata _symbol,\n        address _vaultAPSManager,\n        address _APContract,\n        // address _vaultStrategyManager, //uncomment this line in production\n        address _owner,\n        uint256[] calldata _whiteListGroups\n    ) external {\n        require(!vaultSetupCompleted, \"Vault is already setup\");\n        vaultSetupCompleted = true;\n        vaultAPSManager = _vaultAPSManager;\n        vaultStrategyManager = _vaultAPSManager;\n        // APContract = 0xB24Ff34F5AE7F8Dde93A197FB406c1E78EEC0B25; //hardcode APContract address here before deploy to mainnet\n        APContract = _APContract;\n        owner = _owner;\n        whiteListGroups = _whiteListGroups;\n        setupToken(_tokenName, _symbol);\n        tokenBalances = new TokenBalanceStorage();\n    }\n\n    /// @dev Function that is called once after vault creation to Register the Vault with APS.\n    function registerVaultWithAPS() external onlyNormalMode {\n        require(msg.sender == owner, \"unauthorized\");\n        require(!vaultRegistrationCompleted, \"Vault is already registered\");\n        vaultRegistrationCompleted = true;\n        IAPContract(APContract).addVault(\n            vaultAPSManager,\n            vaultStrategyManager,\n            whiteListGroups\n        );\n    }\n\n    function setVaultSlippage(uint256 _slippage) external onlyNormalMode {\n        _isStrategyManager();\n        IAPContract(APContract).setVaultSlippage(_slippage);\n    }\n\n    /// @dev Function to manage the assets supported by the vaults.\n    /// @param _enabledDepositAsset List of assets to be enabled in Deposit assets.\n    /// @param _enabledWithdrawalAsset List of assets to be enabled in Withdrawal assets.\n    /// @param _disabledDepositAsset List of assets to be disabled in Deposit assets.\n    /// @param _disabledWithdrawalAsset List of assets to be disabled in Withdrawal assets.\n    function setVaultAssets(\n        address[] calldata _enabledDepositAsset,\n        address[] calldata _enabledWithdrawalAsset,\n        address[] calldata _disabledDepositAsset,\n        address[] calldata _disabledWithdrawalAsset\n    ) external onlyNormalMode {\n        require(msg.sender == vaultAPSManager, \"unauthorized\");\n        IAPContract(APContract).setVaultAssets(\n            _enabledDepositAsset,\n            _enabledWithdrawalAsset,\n            _disabledDepositAsset,\n            _disabledWithdrawalAsset\n        );\n    }\n\n    /// @dev Function to manage the Strategy and corresponding protocols supported by the vaults.\n    /// @param _vaultStrategy Address of the strategy to be enabled.\n    /// @param _enabledStrategyProtocols List of protocols to be enabled in above strategy.\n    /// @param _disabledStrategyProtocols List of protocols to be disabled in above strategy.\n    /// @param _assetsToBeEnabled List of assets to be enabled in Vault for the strategy.\n    function setVaultStrategyAndProtocol(\n        address _vaultStrategy,\n        address[] calldata _enabledStrategyProtocols,\n        address[] calldata _disabledStrategyProtocols,\n        address[] calldata _assetsToBeEnabled\n    ) external onlyNormalMode {\n        _isStrategyManager();\n        IAPContract(APContract).setVaultStrategyAndProtocol(\n            _vaultStrategy,\n            _enabledStrategyProtocols,\n            _disabledStrategyProtocols,\n            _assetsToBeEnabled\n        );\n    }\n\n    /// @dev Function to disable a strategy along with the assets.\n    /// @param _strategyAddress Address of the strategy to be disabled.\n    /// @param _assetsToBeDisabled List of assets to be disabled in Vault along with strategy.\n    function disableVaultStrategy(\n        address _strategyAddress,\n        address[] calldata _assetsToBeDisabled\n    ) external onlyNormalMode {\n        _isStrategyManager();\n        if (\n            IAPContract(APContract).isStrategyActive(\n                address(this),\n                _strategyAddress\n            )\n        ) {\n            if (IERC20(_strategyAddress).balanceOf(address(this)) > 0) {\n                (\n                    ,\n                    address withdrawalAsset,\n                    uint256 withdrawalAmount\n                ) = IStrategy(_strategyAddress).withdrawAllToSafe(address(0));\n                updateTokenBalance(withdrawalAsset, withdrawalAmount, true);\n            }\n            IStrategy(_strategyAddress).deRegisterSafe();\n            IAPContract(APContract).deactivateVaultStrategy(_strategyAddress);\n        }\n        IAPContract(APContract).disableVaultStrategy(\n            _strategyAddress,\n            _assetsToBeDisabled\n        );\n    }\n\n    /// @dev Function to activate a strategy in the vault.\n    /// @param _activeVaultStrategy Address of the strategy to be activated.\n    function setVaultActiveStrategy(address _activeVaultStrategy)\n        external\n        onlyNormalMode\n    {\n        _isStrategyManager();\n        IAPContract(APContract).setVaultActiveStrategy(_activeVaultStrategy);\n        IStrategy(_activeVaultStrategy).registerSafe();\n    }\n\n    /// @dev Function to deactivate a strategy in the vault.\n    /// @param _strategyAddress Address of the strategy to be deactivated.\n    function deactivateVaultStrategy(address _strategyAddress)\n        external\n        onlyNormalMode\n    {\n        _isStrategyManager();\n        IAPContract(APContract).deactivateVaultStrategy(_strategyAddress);\n        if (IERC20(_strategyAddress).balanceOf(address(this)) > 0) {\n            (, address withdrawalAsset, uint256 withdrawalAmount) = IStrategy(\n                _strategyAddress\n            ).withdrawAllToSafe(address(0));\n            updateTokenBalance(withdrawalAsset, withdrawalAmount, true);\n        }\n        IStrategy(_strategyAddress).deRegisterSafe();\n    }\n\n    /// @dev Function to set smart strategies to vault.\n    /// @param _smartStrategyAddress Address of smart Strategy.\n    /// @param _type Type of smart strategy.\n    function setVaultSmartStrategy(address _smartStrategyAddress, uint256 _type)\n        external\n    {\n        _isStrategyManager();\n        IAPContract(APContract).setVaultSmartStrategy(\n            _smartStrategyAddress,\n            _type\n        );\n    }\n\n    /// @dev Function to change the APS Manager of the Vault.\n    /// @param _vaultAPSManager Address of the new APS Manager.\n    function changeAPSManager(address _vaultAPSManager)\n        external\n        onlyNormalMode\n    {\n        require(\n            IAPContract(APContract).yieldsterDAO() == msg.sender ||\n                vaultAPSManager == msg.sender,\n            \"unauthorized\"\n        );\n        vaultAPSManager = _vaultAPSManager;\n        IAPContract(APContract).changeVaultAPSManager(_vaultAPSManager);\n    }\n\n    /// @dev Function to change the Strategy Manager of the Vault.\n    /// @param _strategyManager Address of the new Strategy Manager.\n    function changeStrategyManager(address _strategyManager)\n        external\n        onlyNormalMode\n    {\n        require(\n            IAPContract(APContract).yieldsterDAO() == msg.sender ||\n                vaultStrategyManager == msg.sender,\n            \"unauthorized\"\n        );\n        vaultStrategyManager = _strategyManager;\n        IAPContract(APContract).changeVaultStrategyManager(_strategyManager);\n    }\n\n    /// @dev Function to Deposit assets into the Vault.\n    /// @param _tokenAddress Address of the deposit token.\n    /// @param _amount Amount of deposit token.\n    function deposit(address _tokenAddress, uint256 _amount)\n        external\n        onlyNormalMode\n    {\n        _isWhiteListed();\n        require(\n            IAPContract(APContract).isDepositAsset(_tokenAddress),\n            \"Not an approved deposit asset\"\n        );\n        managementFeeCleanUp();\n        (bool result, ) = IAPContract(APContract)\n            .getDepositStrategy()\n            .delegatecall(\n                abi.encodeWithSignature(\n                    \"deposit(address,uint256)\",\n                    _tokenAddress,\n                    _amount\n                )\n            );\n        revertDelegate(result);\n    }\n\n    /// @dev Function to Withdraw assets from the Vault.\n    /// @param _tokenAddress Address of the withdraw token.\n    /// @param _shares Amount of Vault token shares.\n    function withdraw(address _tokenAddress, uint256 _shares)\n        external\n        onlyNormalMode\n    {\n        _isWhiteListed();\n        require(\n            IAPContract(APContract).isWithdrawalAsset(_tokenAddress),\n            \"Not an approved Withdrawal asset\"\n        );\n        require(\n            balanceOf(msg.sender) >= _shares,\n            \"You don't have enough shares\"\n        );\n        managementFeeCleanUp();\n       // revert(\"at 340 vault\");\n        (bool result, ) = IAPContract(APContract)\n            .getWithdrawStrategy()\n            .delegatecall(\n                abi.encodeWithSignature(\n                    \"withdraw(address,uint256)\",\n                    _tokenAddress,\n                    _shares\n                )\n            );\n        revertDelegate(result);\n    }\n\n    // /// @dev Function to Withdraw shares from the Vault.\n    // /// @param _shares Amount of Vault token shares.\n    // function withdraw(uint256 _shares) external onlyNormalMode {\n    //     _isWhiteListed();\n    //     require(\n    //         balanceOf(msg.sender) >= _shares,\n    //         \"You don't have enough shares\"\n    //     );\n    //     managementFeeCleanUp();\n    //     (bool result, ) = IAPContract(APContract)\n    //     .getWithdrawStrategy()\n    //     .delegatecall(abi.encodeWithSignature(\"withdraw(uint256)\", _shares));\n    //     revertDelegate(result);\n    // }\n\n    /// @dev Function to deposit vault assets to strategy\n    /// @param _assets list of asset address to deposit\n    /// @param _amount list of asset amounts to deposit\n    function earn(\n        address[] calldata _assets,\n        uint256[] calldata _amount,\n        bytes calldata data\n    ) external onlyNormalMode {\n        managementFeeCleanUp();\n        address strategy = IAPContract(APContract).getStrategyFromMinter(\n            msg.sender\n        );\n        require(\n            IAPContract(APContract).isStrategyActive(address(this), strategy),\n            \"Strategy inactive\"\n        );\n        for (uint256 i = 0; i < _assets.length; i++) {\n            uint256 tokenBalance = tokenBalances.getTokenBalance(_assets[i]);\n            if (tokenBalance >= _amount[i]) {\n                updateTokenBalance(_assets[i], _amount[i], false);\n                _approveToken(_assets[i], strategy, _amount[i]);\n            }\n        }\n        IStrategy(strategy).deposit(_assets, _amount, data);\n    }\n\n    /// @dev Function to perform operation on Receivel of ERC1155 token from Yieldster Strategy Minter.\n    function onERC1155Received(\n        address,\n        address,\n        uint256 id,\n        uint256,\n        bytes calldata data\n    ) external onlyNormalMode returns (bytes4) {\n        managementFeeCleanUp();\n        if (id == 0) {\n            require(\n                IAPContract(APContract).safeMinter() == msg.sender,\n                \"Only Safe Minter\"\n            );\n            (bool success, ) = IAPContract(APContract).safeUtils().delegatecall(\n                data\n            );\n            revertDelegate(success);\n        } else if (id == 1) {\n            require(\n                IAPContract(APContract).isStrategyActive(\n                    address(this),\n                    IAPContract(APContract).getStrategyFromMinter(msg.sender)\n                ),\n                \"Strategy inactive\"\n            );\n            (bool success, bytes memory returnData) = IAPContract(APContract)\n                .getStrategyFromMinter(msg.sender)\n                .call(data);\n            revertDelegate(success);\n            updateBalance(returnData);\n        } else if (id == 2) {\n            require(\n                IAPContract(APContract).getStrategyFromMinter(msg.sender) ==\n                    IAPContract(APContract).getDepositStrategy(),\n                \"Not Deposit strategy\"\n            );\n            (bool success, ) = IAPContract(APContract)\n                .getStrategyFromMinter(msg.sender)\n                .delegatecall(data);\n            revertDelegate(success);\n        } else if (id == 3) {\n            require(\n                IAPContract(APContract).getStrategyFromMinter(msg.sender) ==\n                    IAPContract(APContract).getWithdrawStrategy(),\n                \"Not Withdraw strategy\"\n            );\n            (bool success, ) = IAPContract(APContract)\n                .getStrategyFromMinter(msg.sender)\n                .delegatecall(data);\n            revertDelegate(success);\n        }\n        return\n            bytes4(\n                keccak256(\n                    \"onERC1155Received(address,address,uint256,uint256,bytes)\"\n                )\n            );\n    }\n\n    /// @dev Function to perform Management fee Calculations in the Vault.\n    function managementFeeCleanUp() private {\n        address[] memory managementFeeStrategies = IAPContract(APContract)\n            .getVaultManagementFee();\n        for (uint256 i = 0; i < managementFeeStrategies.length; i++) {\n            managementFeeStrategies[i].delegatecall(\n                abi.encodeWithSignature(\"executeSafeCleanUp()\")\n            );\n        }\n    }\n}\n",
  "sourcePath": "/home/dxuser/Documents/scode/yieldster-vault/contracts/YieldsterVault.sol",
  "compiler": {
    "name": "solc",
    "version": "0.5.17+commit.d19bba13.Emscripten.clang"
  },
  "schemaVersion": "3.4.4",
  "updatedAt": "2022-02-04T04:48:38.853Z",
  "networkType": "ethereum",
  "devdoc": {
    "methods": {
      "allowance(address,address)": {
        "details": "See {IERC20-allowance}."
      },
      "approve(address,uint256)": {
        "details": "See {IERC20-approve}.     * Requirements:     * - `spender` cannot be the zero address."
      },
      "balanceOf(address)": {
        "details": "See {IERC20-balanceOf}."
      },
      "changeAPSManager(address)": {
        "details": "Function to change the APS Manager of the Vault.",
        "params": {
          "_vaultAPSManager": "Address of the new APS Manager."
        }
      },
      "changeMasterCopy(address)": {
        "details": "Allows to upgrade the contract. This can only be done via a Safe transaction.",
        "params": {
          "_masterCopy": "New contract address."
        }
      },
      "changeStrategyManager(address)": {
        "details": "Function to change the Strategy Manager of the Vault.",
        "params": {
          "_strategyManager": "Address of the new Strategy Manager."
        }
      },
      "deactivateVaultStrategy(address)": {
        "details": "Function to deactivate a strategy in the vault.",
        "params": {
          "_strategyAddress": "Address of the strategy to be deactivated."
        }
      },
      "decimals()": {
        "details": "Returns the number of decimals used to get its user representation. For example, if `decimals` equals `2`, a balance of `505` tokens should be displayed to a user as `5,05` (`505 / 10 ** 2`).     * Tokens usually opt for a value of 18, imitating the relationship between Ether and Wei.     * NOTE: This information is only used for _display_ purposes: it in no way affects any of the arithmetic of the contract, including {IERC20-balanceOf} and {IERC20-transfer}."
      },
      "decreaseAllowance(address,uint256)": {
        "details": "Atomically decreases the allowance granted to `spender` by the caller.     * This is an alternative to {approve} that can be used as a mitigation for problems described in {IERC20-approve}.     * Emits an {Approval} event indicating the updated allowance.     * Requirements:     * - `spender` cannot be the zero address. - `spender` must have allowance for the caller of at least `subtractedValue`."
      },
      "deposit(address,uint256)": {
        "details": "Function to Deposit assets into the Vault.",
        "params": {
          "_amount": "Amount of deposit token.",
          "_tokenAddress": "Address of the deposit token."
        }
      },
      "disableVaultStrategy(address,address[])": {
        "details": "Function to disable a strategy along with the assets.",
        "params": {
          "_assetsToBeDisabled": "List of assets to be disabled in Vault along with strategy.",
          "_strategyAddress": "Address of the strategy to be disabled."
        }
      },
      "earn(address[],uint256[],bytes)": {
        "details": "Function to deposit vault assets to strategy",
        "params": {
          "_amount": "list of asset amounts to deposit",
          "_assets": "list of asset address to deposit"
        }
      },
      "enableEmergencyExit()": {
        "details": "Function to enable Emergency Exit feature of the Vault."
      },
      "getVaultActiveStrategy()": {
        "details": "Function to get the address of active strategy in the vault."
      },
      "getVaultNAV()": {
        "details": "Function to return the NAV of the Vault."
      },
      "getVaultNAVWithoutStrategyToken()": {
        "details": "Function to return the NAV of the Vault excluding Strategy Tokens."
      },
      "increaseAllowance(address,uint256)": {
        "details": "Atomically increases the allowance granted to `spender` by the caller.     * This is an alternative to {approve} that can be used as a mitigation for problems described in {IERC20-approve}.     * Emits an {Approval} event indicating the updated allowance.     * Requirements:     * - `spender` cannot be the zero address."
      },
      "name()": {
        "details": "Returns the name of the token."
      },
      "onERC1155Received(address,address,uint256,uint256,bytes)": {
        "details": "Function to perform operation on Receivel of ERC1155 token from Yieldster Strategy Minter."
      },
      "registerVaultWithAPS()": {
        "details": "Function that is called once after vault creation to Register the Vault with APS."
      },
      "setAPS(address)": {
        "details": "Function to set APS Address."
      },
      "setVaultActiveStrategy(address)": {
        "details": "Function to activate a strategy in the vault.",
        "params": {
          "_activeVaultStrategy": "Address of the strategy to be activated."
        }
      },
      "setVaultAssets(address[],address[],address[],address[])": {
        "details": "Function to manage the assets supported by the vaults.",
        "params": {
          "_disabledDepositAsset": "List of assets to be disabled in Deposit assets.",
          "_disabledWithdrawalAsset": "List of assets to be disabled in Withdrawal assets.",
          "_enabledDepositAsset": "List of assets to be enabled in Deposit assets.",
          "_enabledWithdrawalAsset": "List of assets to be enabled in Withdrawal assets."
        }
      },
      "setVaultSmartStrategy(address,uint256)": {
        "details": "Function to set smart strategies to vault.",
        "params": {
          "_smartStrategyAddress": "Address of smart Strategy.",
          "_type": "Type of smart strategy."
        }
      },
      "setVaultStrategyAndProtocol(address,address[],address[],address[])": {
        "details": "Function to manage the Strategy and corresponding protocols supported by the vaults.",
        "params": {
          "_assetsToBeEnabled": "List of assets to be enabled in Vault for the strategy.",
          "_disabledStrategyProtocols": "List of protocols to be disabled in above strategy.",
          "_enabledStrategyProtocols": "List of protocols to be enabled in above strategy.",
          "_vaultStrategy": "Address of the strategy to be enabled."
        }
      },
      "supportsInterface(bytes4)": {
        "details": "See {IERC165-supportsInterface}.     * Time complexity O(1), guaranteed to always use less than 30 000 gas."
      },
      "symbol()": {
        "details": "Returns the symbol of the token, usually a shorter version of the name."
      },
      "toggleEmergencyBreak()": {
        "details": "Function to toggle Emergency Break feature of the Vault."
      },
      "tokenValueInUSD()": {
        "details": "Function to return Value of the Vault Token."
      },
      "totalSupply()": {
        "details": "See {IERC20-totalSupply}."
      },
      "transfer(address,uint256)": {
        "details": "See {IERC20-transfer}.     * Requirements:     * - `recipient` cannot be the zero address. - the caller must have a balance of at least `amount`."
      },
      "transferFrom(address,address,uint256)": {
        "details": "See {IERC20-transferFrom}.     * Emits an {Approval} event indicating the updated allowance. This is not required by the EIP. See the note at the beginning of {ERC20};     * Requirements: - `sender` and `recipient` cannot be the zero address. - `sender` must have a balance of at least `amount`. - the caller must have allowance for `sender`'s tokens of at least `amount`."
      },
      "upgradeMasterCopy(address)": {
        "details": "Function to upgrade the vault."
      },
      "withdraw(address,uint256)": {
        "details": "Function to Withdraw assets from the Vault.",
        "params": {
          "_shares": "Amount of Vault token shares.",
          "_tokenAddress": "Address of the withdraw token."
        }
      }
    }
  },
  "userdoc": {
    "methods": {}
  }
}