{
  "contractName": "YieldsterVaultProxyFactory",
  "abi": [
    {
      "inputs": [
        {
          "internalType": "address",
          "name": "_mastercopy",
          "type": "address"
        },
        {
          "internalType": "address",
          "name": "_APContract",
          "type": "address"
        }
      ],
      "payable": false,
      "stateMutability": "nonpayable",
      "type": "constructor"
    },
    {
      "anonymous": false,
      "inputs": [
        {
          "indexed": false,
          "internalType": "contract YieldsterVaultProxy",
          "name": "proxy",
          "type": "address"
        }
      ],
      "name": "ProxyCreation",
      "type": "event"
    },
    {
      "constant": false,
      "inputs": [
        {
          "internalType": "address",
          "name": "_mastercopy",
          "type": "address"
        }
      ],
      "name": "setMasterCopy",
      "outputs": [],
      "payable": false,
      "stateMutability": "nonpayable",
      "type": "function"
    },
    {
      "constant": false,
      "inputs": [
        {
          "internalType": "address",
          "name": "_APContract",
          "type": "address"
        }
      ],
      "name": "setAPContract",
      "outputs": [],
      "payable": false,
      "stateMutability": "nonpayable",
      "type": "function"
    },
    {
      "constant": false,
      "inputs": [
        {
          "internalType": "bytes",
          "name": "data",
          "type": "bytes"
        }
      ],
      "name": "createProxy",
      "outputs": [
        {
          "internalType": "contract YieldsterVaultProxy",
          "name": "proxy",
          "type": "address"
        }
      ],
      "payable": false,
      "stateMutability": "nonpayable",
      "type": "function"
    },
    {
      "constant": true,
      "inputs": [],
      "name": "proxyRuntimeCode",
      "outputs": [
        {
          "internalType": "bytes",
          "name": "",
          "type": "bytes"
        }
      ],
      "payable": false,
      "stateMutability": "pure",
      "type": "function"
    },
    {
      "constant": true,
      "inputs": [],
      "name": "proxyCreationCode",
      "outputs": [
        {
          "internalType": "bytes",
          "name": "",
          "type": "bytes"
        }
      ],
      "payable": false,
      "stateMutability": "pure",
      "type": "function"
    }
  ],
  "bytecode": "0x608060405234801561001057600080fd5b506040516106e33803806106e38339818101604052604081101561003357600080fd5b508051602090910151600080546001600160a01b039384166001600160a01b0319918216179091556001805493909216928116929092179055600280549091163317905561065d806100866000396000f3fe608060405234801561001057600080fd5b50600436106100575760003560e01c806353e5d9351461005c5780638f295d59146100d95780639a8eff901461019b578063addacc0f146101c3578063cf497e6c146101cb575b600080fd5b6100646101f1565b6040805160208082528351818301528351919283929083019185019080838360005b8381101561009e578181015183820152602001610086565b50505050905090810190601f1680156100cb5780820380516001836020036101000a031916815260200191505b509250505060405180910390f35b61017f600480360360208110156100ef57600080fd5b81019060208101813564010000000081111561010a57600080fd5b82018360208201111561011c57600080fd5b8035906020019184600183028401116401000000008311171561013e57600080fd5b91908080601f01602080910402602001604051908101604052809392919081815260200183838082843760009201919091525092955061021b945050505050565b604080516001600160a01b039092168252519081900360200190f35b6101c1600480360360208110156101b157600080fd5b50356001600160a01b0316610332565b005b6100646103a4565b6101c1600480360360208110156101e157600080fd5b50356001600160a01b03166103b6565b60606040518060200161020390610428565b601f1982820381018352601f90910116604052905090565b600080546040516001600160a01b039091169061023790610428565b6001600160a01b03909116815260405190819003602001906000f080158015610264573d6000803e3d6000fd5b5082519091501561028a5760008060008451602086016000865af1141561028a57600080fd5b60015460408051635a5eb7a360e11b81526001600160a01b0384811660048301529151919092169163b4bd6f4691602480830192600092919082900301818387803b1580156102d857600080fd5b505af11580156102ec573d6000803e3d6000fd5b5050604080516001600160a01b038516815290517fa38789425dbeee0239e16ff2d2567e31720127fbc6430758c1a4efc6aef29f809350908190036020019150a1919050565b6002546001600160a01b03163314610382576040805162461bcd60e51b815260206004820152600e60248201526d139bdd08105d5d1a1bdc9a5e995960921b604482015290519081900360640190fd5b600180546001600160a01b0319166001600160a01b0392909216919091179055565b60606040518060200161020390610435565b6002546001600160a01b03163314610406576040805162461bcd60e51b815260206004820152600e60248201526d139bdd08105d5d1a1bdc9a5e995960921b604482015290519081900360640190fd5b600080546001600160a01b0319166001600160a01b0392909216919091179055565b6101678061044283390190565b6080806105a98339019056fe608060405234801561001057600080fd5b506040516101673803806101678339818101604052602081101561003357600080fd5b50516001600160a01b038116610094576040517f08c379a00000000000000000000000000000000000000000000000000000000081526004018080602001828103825260248152602001806101436024913960400191505060405180910390fd5b600080546001600160a01b039092166001600160a01b03199092169190911790556080806100c36000396000f3fe60806040526001600160a01b036000541663530ca43760e11b6000351415602a578060005260206000f35b3660008037600080366000845af43d6000803e806046573d6000fd5b3d6000f3fea265627a7a72315820c00c416e654d8fe2d93e31864d8c3e2b8d9b48c1d4e01cb8b8bb68d15e60a8d964736f6c63430005110032496e76616c6964206d617374657220636f707920616464726573732070726f766964656460806040526001600160a01b036000541663530ca43760e11b6000351415602a578060005260206000f35b3660008037600080366000845af43d6000803e806046573d6000fd5b3d6000f3fea265627a7a72315820c00c416e654d8fe2d93e31864d8c3e2b8d9b48c1d4e01cb8b8bb68d15e60a8d964736f6c63430005110032a265627a7a72315820d4d92027268caeaa2bdd6d843703f15c02389f567c04fb15968c87674786b1d664736f6c63430005110032",
  "source": "pragma solidity ^0.5.3;\nimport \"./YieldsterVaultProxy.sol\";\nimport \"./IProxyCreationCallback.sol\";\nimport \"../interfaces/IAPContract.sol\";\n\ncontract YieldsterVaultProxyFactory {\n    address private mastercopy;\n    address private APContract;\n    address private owner;\n\n    event ProxyCreation(YieldsterVaultProxy proxy);\n\n    constructor(address _mastercopy, address _APContract) public {\n        mastercopy = _mastercopy;\n        APContract = _APContract;\n        owner = msg.sender;\n    }\n\n    function setMasterCopy(address _mastercopy) public {\n        require(msg.sender == owner, \"Not Authorized\");\n        mastercopy = _mastercopy;\n    }\n\n    function setAPContract(address _APContract) public {\n        require(msg.sender == owner, \"Not Authorized\");\n        APContract = _APContract;\n    }\n\n    /// @dev Allows to create new proxy contact and execute a message call to the new proxy within one transaction.\n    /// @param data Payload for message call sent to new proxy contract.\n    function createProxy(bytes memory data)\n        public\n        returns (YieldsterVaultProxy proxy)\n    {\n        proxy = new YieldsterVaultProxy(mastercopy);\n        if (data.length > 0)\n            // solium-disable-next-line security/no-inline-assembly\n            assembly {\n                if eq(\n                    call(gas, proxy, 0, add(data, 0x20), mload(data), 0, 0),\n                    0\n                ) {\n                    revert(0, 0)\n                }\n            }\n        IAPContract(APContract).createVault(address(proxy));\n        emit ProxyCreation(proxy);\n    }\n\n    /// @dev Allows to retrieve the runtime code of a deployed Proxy. This can be used to check that the expected Proxy was deployed.\n    function proxyRuntimeCode() public pure returns (bytes memory) {\n        return type(YieldsterVaultProxy).runtimeCode;\n    }\n\n    /// @dev Allows to retrieve the creation code used for the Proxy deployment. With this it is easily possible to calculate predicted address.\n    function proxyCreationCode() public pure returns (bytes memory) {\n        return type(YieldsterVaultProxy).creationCode;\n    }\n}\n",
  "sourcePath": "/home/dxuser/Documents/scode/yieldster-vault/contracts/proxies/YieldsterVaultProxyFactory.sol",
  "compiler": {
    "name": "solc",
    "version": "0.5.17+commit.d19bba13.Emscripten.clang"
  },
  "schemaVersion": "3.4.4",
  "updatedAt": "2022-02-04T04:48:38.882Z",
  "networkType": "ethereum",
  "devdoc": {
    "methods": {
      "createProxy(bytes)": {
        "details": "Allows to create new proxy contact and execute a message call to the new proxy within one transaction.",
        "params": {
          "data": "Payload for message call sent to new proxy contract."
        }
      },
      "proxyCreationCode()": {
        "details": "Allows to retrieve the creation code used for the Proxy deployment. With this it is easily possible to calculate predicted address."
      },
      "proxyRuntimeCode()": {
        "details": "Allows to retrieve the runtime code of a deployed Proxy. This can be used to check that the expected Proxy was deployed."
      }
    }
  },
  "userdoc": {
    "methods": {}
  }
}